{
	"BetPulse.sol": {
		"BetPulse": {
			"abi": [
				{
					"inputs": [
						{
							"internalType": "address",
							"name": "_pulseToken",
							"type": "address"
						},
						{
							"internalType": "address",
							"name": "initialOwner",
							"type": "address"
						}
					],
					"stateMutability": "nonpayable",
					"type": "constructor"
				},
				{
					"inputs": [
						{
							"internalType": "address",
							"name": "owner",
							"type": "address"
						}
					],
					"name": "OwnableInvalidOwner",
					"type": "error"
				},
				{
					"inputs": [
						{
							"internalType": "address",
							"name": "account",
							"type": "address"
						}
					],
					"name": "OwnableUnauthorizedAccount",
					"type": "error"
				},
				{
					"anonymous": false,
					"inputs": [
						{
							"indexed": true,
							"internalType": "address",
							"name": "user",
							"type": "address"
						},
						{
							"indexed": true,
							"internalType": "uint256",
							"name": "eventId",
							"type": "uint256"
						},
						{
							"indexed": false,
							"internalType": "uint256",
							"name": "amount",
							"type": "uint256"
						},
						{
							"indexed": false,
							"internalType": "uint256",
							"name": "odds",
							"type": "uint256"
						}
					],
					"name": "BetPlaced",
					"type": "event"
				},
				{
					"anonymous": false,
					"inputs": [
						{
							"indexed": true,
							"internalType": "uint256",
							"name": "eventId",
							"type": "uint256"
						},
						{
							"indexed": false,
							"internalType": "bool",
							"name": "outcome",
							"type": "bool"
						}
					],
					"name": "EventResolved",
					"type": "event"
				},
				{
					"anonymous": false,
					"inputs": [
						{
							"indexed": true,
							"internalType": "address",
							"name": "previousOwner",
							"type": "address"
						},
						{
							"indexed": true,
							"internalType": "address",
							"name": "newOwner",
							"type": "address"
						}
					],
					"name": "OwnershipTransferred",
					"type": "event"
				},
				{
					"anonymous": false,
					"inputs": [
						{
							"indexed": true,
							"internalType": "address",
							"name": "user",
							"type": "address"
						},
						{
							"indexed": true,
							"internalType": "uint256",
							"name": "eventId",
							"type": "uint256"
						},
						{
							"indexed": false,
							"internalType": "uint256",
							"name": "payout",
							"type": "uint256"
						}
					],
					"name": "WinningsWithdrawn",
					"type": "event"
				},
				{
					"inputs": [
						{
							"internalType": "uint256",
							"name": "",
							"type": "uint256"
						},
						{
							"internalType": "address",
							"name": "",
							"type": "address"
						}
					],
					"name": "bets",
					"outputs": [
						{
							"internalType": "uint256",
							"name": "amount",
							"type": "uint256"
						},
						{
							"internalType": "uint256",
							"name": "odds",
							"type": "uint256"
						},
						{
							"internalType": "bool",
							"name": "resolved",
							"type": "bool"
						},
						{
							"internalType": "bool",
							"name": "won",
							"type": "bool"
						}
					],
					"stateMutability": "view",
					"type": "function"
				},
				{
					"inputs": [
						{
							"internalType": "uint256",
							"name": "",
							"type": "uint256"
						}
					],
					"name": "eventOutcome",
					"outputs": [
						{
							"internalType": "bool",
							"name": "",
							"type": "bool"
						}
					],
					"stateMutability": "view",
					"type": "function"
				},
				{
					"inputs": [
						{
							"internalType": "uint256",
							"name": "",
							"type": "uint256"
						},
						{
							"internalType": "address",
							"name": "",
							"type": "address"
						}
					],
					"name": "hasWithdrawn",
					"outputs": [
						{
							"internalType": "bool",
							"name": "",
							"type": "bool"
						}
					],
					"stateMutability": "view",
					"type": "function"
				},
				{
					"inputs": [
						{
							"internalType": "address",
							"name": "user",
							"type": "address"
						},
						{
							"internalType": "uint256",
							"name": "eventId",
							"type": "uint256"
						},
						{
							"internalType": "bool",
							"name": "won",
							"type": "bool"
						}
					],
					"name": "markResult",
					"outputs": [],
					"stateMutability": "nonpayable",
					"type": "function"
				},
				{
					"inputs": [],
					"name": "owner",
					"outputs": [
						{
							"internalType": "address",
							"name": "",
							"type": "address"
						}
					],
					"stateMutability": "view",
					"type": "function"
				},
				{
					"inputs": [
						{
							"internalType": "uint256",
							"name": "eventId",
							"type": "uint256"
						},
						{
							"internalType": "uint256",
							"name": "amount",
							"type": "uint256"
						},
						{
							"internalType": "uint256",
							"name": "odds",
							"type": "uint256"
						}
					],
					"name": "placeBet",
					"outputs": [],
					"stateMutability": "nonpayable",
					"type": "function"
				},
				{
					"inputs": [],
					"name": "pulseToken",
					"outputs": [
						{
							"internalType": "contract IERC20",
							"name": "",
							"type": "address"
						}
					],
					"stateMutability": "view",
					"type": "function"
				},
				{
					"inputs": [],
					"name": "renounceOwnership",
					"outputs": [],
					"stateMutability": "nonpayable",
					"type": "function"
				},
				{
					"inputs": [
						{
							"internalType": "uint256",
							"name": "eventId",
							"type": "uint256"
						},
						{
							"internalType": "bool",
							"name": "outcome",
							"type": "bool"
						}
					],
					"name": "resolveEvent",
					"outputs": [],
					"stateMutability": "nonpayable",
					"type": "function"
				},
				{
					"inputs": [
						{
							"internalType": "address",
							"name": "newOwner",
							"type": "address"
						}
					],
					"name": "transferOwnership",
					"outputs": [],
					"stateMutability": "nonpayable",
					"type": "function"
				},
				{
					"inputs": [
						{
							"internalType": "uint256",
							"name": "eventId",
							"type": "uint256"
						}
					],
					"name": "withdrawWinnings",
					"outputs": [],
					"stateMutability": "nonpayable",
					"type": "function"
				}
			],
			"devdoc": {
				"errors": {
					"OwnableInvalidOwner(address)": [
						{
							"details": "The owner is not a valid owner account. (eg. `address(0)`)"
						}
					],
					"OwnableUnauthorizedAccount(address)": [
						{
							"details": "The caller account is not authorized to perform an operation."
						}
					]
				},
				"kind": "dev",
				"methods": {
					"owner()": {
						"details": "Returns the address of the current owner."
					},
					"renounceOwnership()": {
						"details": "Leaves the contract without owner. It will not be possible to call `onlyOwner` functions. Can only be called by the current owner. NOTE: Renouncing ownership will leave the contract without an owner, thereby disabling any functionality that is only available to the owner."
					},
					"transferOwnership(address)": {
						"details": "Transfers ownership of the contract to a new account (`newOwner`). Can only be called by the current owner."
					}
				},
				"version": 1
			},
			"evm": {
				"assembly": "    /* \"BetPulse.sol\":232:3293  contract BetPulse is Ownable, ReentrancyGuard {... */\n  mstore(0x40, 0xa0)\n    /* \"BetPulse.sol\":1074:1262  constructor(address _pulseToken, address initialOwner) Ownable(initialOwner) {... */\n  callvalue\n  dup1\n  iszero\n  tag_1\n  jumpi\n  0x00\n  dup1\n  revert\ntag_1:\n  pop\n  mload(0x40)\n  sub(codesize, bytecodeSize)\n  dup1\n  bytecodeSize\n  dup4\n  codecopy\n  dup2\n  dup2\n  add\n  0x40\n  mstore\n  dup2\n  add\n  swap1\n  tag_2\n  swap2\n  swap1\n  tag_3\n  jump\t// in\ntag_2:\n    /* \"BetPulse.sol\":1137:1149  initialOwner */\n  dup1\n    /* \"@openzeppelin/contracts/access/Ownable.sol\":1297:1298  0 */\n  0x00\n    /* \"@openzeppelin/contracts/access/Ownable.sol\":1273:1299  initialOwner == address(0) */\n  0xffffffffffffffffffffffffffffffffffffffff\n  and\n    /* \"@openzeppelin/contracts/access/Ownable.sol\":1273:1285  initialOwner */\n  dup2\n    /* \"@openzeppelin/contracts/access/Ownable.sol\":1273:1299  initialOwner == address(0) */\n  0xffffffffffffffffffffffffffffffffffffffff\n  and\n  sub\n    /* \"@openzeppelin/contracts/access/Ownable.sol\":1269:1364  if (initialOwner == address(0)) {... */\n  tag_8\n  jumpi\n    /* \"@openzeppelin/contracts/access/Ownable.sol\":1350:1351  0 */\n  0x00\n    /* \"@openzeppelin/contracts/access/Ownable.sol\":1322:1353  OwnableInvalidOwner(address(0)) */\n  mload(0x40)\n  0x1e4fbdf700000000000000000000000000000000000000000000000000000000\n  dup2\n  mstore\n  0x04\n  add\n  tag_9\n  swap2\n  swap1\n  tag_10\n  jump\t// in\ntag_9:\n  mload(0x40)\n  dup1\n  swap2\n  sub\n  swap1\n  revert\n    /* \"@openzeppelin/contracts/access/Ownable.sol\":1269:1364  if (initialOwner == address(0)) {... */\ntag_8:\n    /* \"@openzeppelin/contracts/access/Ownable.sol\":1373:1405  _transferOwnership(initialOwner) */\n  tag_11\n    /* \"@openzeppelin/contracts/access/Ownable.sol\":1392:1404  initialOwner */\n  dup2\n    /* \"@openzeppelin/contracts/access/Ownable.sol\":1373:1391  _transferOwnership */\n  shl(0x20, tag_12)\n    /* \"@openzeppelin/contracts/access/Ownable.sol\":1373:1405  _transferOwnership(initialOwner) */\n  0x20\n  shr\n  jump\t// in\ntag_11:\n    /* \"@openzeppelin/contracts/access/Ownable.sol\":1225:1412  constructor(address initialOwner) {... */\n  pop\n    /* \"@openzeppelin/contracts/security/ReentrancyGuard.sol\":1716:1717  1 */\n  0x01\n    /* \"@openzeppelin/contracts/security/ReentrancyGuard.sol\":1821:1828  _status */\n  dup1\n    /* \"@openzeppelin/contracts/security/ReentrancyGuard.sol\":1821:1843  _status = _NOT_ENTERED */\n  dup2\n  swap1\n  sstore\n  pop\n    /* \"BetPulse.sol\":1192:1193  0 */\n  0x00\n    /* \"BetPulse.sol\":1169:1194  _pulseToken != address(0) */\n  0xffffffffffffffffffffffffffffffffffffffff\n  and\n    /* \"BetPulse.sol\":1169:1180  _pulseToken */\n  dup3\n    /* \"BetPulse.sol\":1169:1194  _pulseToken != address(0) */\n  0xffffffffffffffffffffffffffffffffffffffff\n  and\n  sub\n    /* \"BetPulse.sol\":1161:1213  require(_pulseToken != address(0), \"Token invalido\") */\n  tag_15\n  jumpi\n  mload(0x40)\n  0x08c379a000000000000000000000000000000000000000000000000000000000\n  dup2\n  mstore\n  0x04\n  add\n  tag_16\n  swap1\n  tag_17\n  jump\t// in\ntag_16:\n  mload(0x40)\n  dup1\n  swap2\n  sub\n  swap1\n  revert\ntag_15:\n    /* \"BetPulse.sol\":1243:1254  _pulseToken */\n  dup2\n    /* \"BetPulse.sol\":1223:1255  pulseToken = IERC20(_pulseToken) */\n  0xffffffffffffffffffffffffffffffffffffffff\n  and\n  0x80\n  dup2\n  0xffffffffffffffffffffffffffffffffffffffff\n  and\n  dup2\n  mstore\n  pop\n  pop\n    /* \"BetPulse.sol\":1074:1262  constructor(address _pulseToken, address initialOwner) Ownable(initialOwner) {... */\n  pop\n  pop\n    /* \"BetPulse.sol\":232:3293  contract BetPulse is Ownable, ReentrancyGuard {... */\n  jump(tag_18)\n    /* \"@openzeppelin/contracts/access/Ownable.sol\":2912:3099  function _transferOwnership(address newOwner) internal virtual {... */\ntag_12:\n    /* \"@openzeppelin/contracts/access/Ownable.sol\":2985:3001  address oldOwner */\n  0x00\n    /* \"@openzeppelin/contracts/access/Ownable.sol\":3004:3010  _owner */\n  dup1\n  0x00\n  swap1\n  sload\n  swap1\n  0x0100\n  exp\n  swap1\n  div\n  0xffffffffffffffffffffffffffffffffffffffff\n  and\n    /* \"@openzeppelin/contracts/access/Ownable.sol\":2985:3010  address oldOwner = _owner */\n  swap1\n  pop\n    /* \"@openzeppelin/contracts/access/Ownable.sol\":3029:3037  newOwner */\n  dup2\n    /* \"@openzeppelin/contracts/access/Ownable.sol\":3020:3026  _owner */\n  0x00\n  dup1\n    /* \"@openzeppelin/contracts/access/Ownable.sol\":3020:3037  _owner = newOwner */\n  0x0100\n  exp\n  dup2\n  sload\n  dup2\n  0xffffffffffffffffffffffffffffffffffffffff\n  mul\n  not\n  and\n  swap1\n  dup4\n  0xffffffffffffffffffffffffffffffffffffffff\n  and\n  mul\n  or\n  swap1\n  sstore\n  pop\n    /* \"@openzeppelin/contracts/access/Ownable.sol\":3083:3091  newOwner */\n  dup2\n    /* \"@openzeppelin/contracts/access/Ownable.sol\":3052:3092  OwnershipTransferred(oldOwner, newOwner) */\n  0xffffffffffffffffffffffffffffffffffffffff\n  and\n    /* \"@openzeppelin/contracts/access/Ownable.sol\":3073:3081  oldOwner */\n  dup2\n    /* \"@openzeppelin/contracts/access/Ownable.sol\":3052:3092  OwnershipTransferred(oldOwner, newOwner) */\n  0xffffffffffffffffffffffffffffffffffffffff\n  and\n  0x8be0079c531659141344cd1fd0a4f28419497f9722a3daafe3b4186f6b6457e0\n  mload(0x40)\n  mload(0x40)\n  dup1\n  swap2\n  sub\n  swap1\n  log3\n    /* \"@openzeppelin/contracts/access/Ownable.sol\":2975:3099  {... */\n  pop\n    /* \"@openzeppelin/contracts/access/Ownable.sol\":2912:3099  function _transferOwnership(address newOwner) internal virtual {... */\n  pop\n  jump\t// out\n    /* \"#utility.yul\":88:205   */\ntag_21:\n    /* \"#utility.yul\":197:198   */\n  0x00\n    /* \"#utility.yul\":194:195   */\n  dup1\n    /* \"#utility.yul\":187:199   */\n  revert\n    /* \"#utility.yul\":334:460   */\ntag_23:\n    /* \"#utility.yul\":371:378   */\n  0x00\n    /* \"#utility.yul\":411:453   */\n  0xffffffffffffffffffffffffffffffffffffffff\n    /* \"#utility.yul\":404:409   */\n  dup3\n    /* \"#utility.yul\":400:454   */\n  and\n    /* \"#utility.yul\":389:454   */\n  swap1\n  pop\n    /* \"#utility.yul\":334:460   */\n  swap2\n  swap1\n  pop\n  jump\t// out\n    /* \"#utility.yul\":466:562   */\ntag_24:\n    /* \"#utility.yul\":503:510   */\n  0x00\n    /* \"#utility.yul\":532:556   */\n  tag_37\n    /* \"#utility.yul\":550:555   */\n  dup3\n    /* \"#utility.yul\":532:556   */\n  tag_23\n  jump\t// in\ntag_37:\n    /* \"#utility.yul\":521:556   */\n  swap1\n  pop\n    /* \"#utility.yul\":466:562   */\n  swap2\n  swap1\n  pop\n  jump\t// out\n    /* \"#utility.yul\":568:690   */\ntag_25:\n    /* \"#utility.yul\":641:665   */\n  tag_39\n    /* \"#utility.yul\":659:664   */\n  dup2\n    /* \"#utility.yul\":641:665   */\n  tag_24\n  jump\t// in\ntag_39:\n    /* \"#utility.yul\":634:639   */\n  dup2\n    /* \"#utility.yul\":631:666   */\n  eq\n    /* \"#utility.yul\":621:684   */\n  tag_40\n  jumpi\n    /* \"#utility.yul\":680:681   */\n  0x00\n    /* \"#utility.yul\":677:678   */\n  dup1\n    /* \"#utility.yul\":670:682   */\n  revert\n    /* \"#utility.yul\":621:684   */\ntag_40:\n    /* \"#utility.yul\":568:690   */\n  pop\n  jump\t// out\n    /* \"#utility.yul\":696:839   */\ntag_26:\n    /* \"#utility.yul\":753:758   */\n  0x00\n    /* \"#utility.yul\":784:790   */\n  dup2\n    /* \"#utility.yul\":778:791   */\n  mload\n    /* \"#utility.yul\":769:791   */\n  swap1\n  pop\n    /* \"#utility.yul\":800:833   */\n  tag_42\n    /* \"#utility.yul\":827:832   */\n  dup2\n    /* \"#utility.yul\":800:833   */\n  tag_25\n  jump\t// in\ntag_42:\n    /* \"#utility.yul\":696:839   */\n  swap3\n  swap2\n  pop\n  pop\n  jump\t// out\n    /* \"#utility.yul\":845:1352   */\ntag_3:\n    /* \"#utility.yul\":924:930   */\n  0x00\n    /* \"#utility.yul\":932:938   */\n  dup1\n    /* \"#utility.yul\":981:983   */\n  0x40\n    /* \"#utility.yul\":969:978   */\n  dup4\n    /* \"#utility.yul\":960:967   */\n  dup6\n    /* \"#utility.yul\":956:979   */\n  sub\n    /* \"#utility.yul\":952:984   */\n  slt\n    /* \"#utility.yul\":949:1068   */\n  iszero\n  tag_44\n  jumpi\n    /* \"#utility.yul\":987:1066   */\n  tag_45\n  tag_21\n  jump\t// in\ntag_45:\n    /* \"#utility.yul\":949:1068   */\ntag_44:\n    /* \"#utility.yul\":1107:1108   */\n  0x00\n    /* \"#utility.yul\":1132:1196   */\n  tag_46\n    /* \"#utility.yul\":1188:1195   */\n  dup6\n    /* \"#utility.yul\":1179:1185   */\n  dup3\n    /* \"#utility.yul\":1168:1177   */\n  dup7\n    /* \"#utility.yul\":1164:1186   */\n  add\n    /* \"#utility.yul\":1132:1196   */\n  tag_26\n  jump\t// in\ntag_46:\n    /* \"#utility.yul\":1122:1196   */\n  swap3\n  pop\n    /* \"#utility.yul\":1078:1206   */\n  pop\n    /* \"#utility.yul\":1245:1247   */\n  0x20\n    /* \"#utility.yul\":1271:1335   */\n  tag_47\n    /* \"#utility.yul\":1327:1334   */\n  dup6\n    /* \"#utility.yul\":1318:1324   */\n  dup3\n    /* \"#utility.yul\":1307:1316   */\n  dup7\n    /* \"#utility.yul\":1303:1325   */\n  add\n    /* \"#utility.yul\":1271:1335   */\n  tag_26\n  jump\t// in\ntag_47:\n    /* \"#utility.yul\":1261:1335   */\n  swap2\n  pop\n    /* \"#utility.yul\":1216:1345   */\n  pop\n    /* \"#utility.yul\":845:1352   */\n  swap3\n  pop\n  swap3\n  swap1\n  pop\n  jump\t// out\n    /* \"#utility.yul\":1358:1476   */\ntag_27:\n    /* \"#utility.yul\":1445:1469   */\n  tag_49\n    /* \"#utility.yul\":1463:1468   */\n  dup2\n    /* \"#utility.yul\":1445:1469   */\n  tag_24\n  jump\t// in\ntag_49:\n    /* \"#utility.yul\":1440:1443   */\n  dup3\n    /* \"#utility.yul\":1433:1470   */\n  mstore\n    /* \"#utility.yul\":1358:1476   */\n  pop\n  pop\n  jump\t// out\n    /* \"#utility.yul\":1482:1704   */\ntag_10:\n    /* \"#utility.yul\":1575:1579   */\n  0x00\n    /* \"#utility.yul\":1613:1615   */\n  0x20\n    /* \"#utility.yul\":1602:1611   */\n  dup3\n    /* \"#utility.yul\":1598:1616   */\n  add\n    /* \"#utility.yul\":1590:1616   */\n  swap1\n  pop\n    /* \"#utility.yul\":1626:1697   */\n  tag_51\n    /* \"#utility.yul\":1694:1695   */\n  0x00\n    /* \"#utility.yul\":1683:1692   */\n  dup4\n    /* \"#utility.yul\":1679:1696   */\n  add\n    /* \"#utility.yul\":1670:1676   */\n  dup5\n    /* \"#utility.yul\":1626:1697   */\n  tag_27\n  jump\t// in\ntag_51:\n    /* \"#utility.yul\":1482:1704   */\n  swap3\n  swap2\n  pop\n  pop\n  jump\t// out\n    /* \"#utility.yul\":1710:1879   */\ntag_28:\n    /* \"#utility.yul\":1794:1805   */\n  0x00\n    /* \"#utility.yul\":1828:1834   */\n  dup3\n    /* \"#utility.yul\":1823:1826   */\n  dup3\n    /* \"#utility.yul\":1816:1835   */\n  mstore\n    /* \"#utility.yul\":1868:1872   */\n  0x20\n    /* \"#utility.yul\":1863:1866   */\n  dup3\n    /* \"#utility.yul\":1859:1873   */\n  add\n    /* \"#utility.yul\":1844:1873   */\n  swap1\n  pop\n    /* \"#utility.yul\":1710:1879   */\n  swap3\n  swap2\n  pop\n  pop\n  jump\t// out\n    /* \"#utility.yul\":1885:2049   */\ntag_29:\n    /* \"#utility.yul\":2025:2041   */\n  0x546f6b656e20696e76616c69646f000000000000000000000000000000000000\n    /* \"#utility.yul\":2021:2022   */\n  0x00\n    /* \"#utility.yul\":2013:2019   */\n  dup3\n    /* \"#utility.yul\":2009:2023   */\n  add\n    /* \"#utility.yul\":2002:2042   */\n  mstore\n    /* \"#utility.yul\":1885:2049   */\n  pop\n  jump\t// out\n    /* \"#utility.yul\":2055:2421   */\ntag_30:\n    /* \"#utility.yul\":2197:2200   */\n  0x00\n    /* \"#utility.yul\":2218:2285   */\n  tag_55\n    /* \"#utility.yul\":2282:2284   */\n  0x0e\n    /* \"#utility.yul\":2277:2280   */\n  dup4\n    /* \"#utility.yul\":2218:2285   */\n  tag_28\n  jump\t// in\ntag_55:\n    /* \"#utility.yul\":2211:2285   */\n  swap2\n  pop\n    /* \"#utility.yul\":2294:2387   */\n  tag_56\n    /* \"#utility.yul\":2383:2386   */\n  dup3\n    /* \"#utility.yul\":2294:2387   */\n  tag_29\n  jump\t// in\ntag_56:\n    /* \"#utility.yul\":2412:2414   */\n  0x20\n    /* \"#utility.yul\":2407:2410   */\n  dup3\n    /* \"#utility.yul\":2403:2415   */\n  add\n    /* \"#utility.yul\":2396:2415   */\n  swap1\n  pop\n    /* \"#utility.yul\":2055:2421   */\n  swap2\n  swap1\n  pop\n  jump\t// out\n    /* \"#utility.yul\":2427:2846   */\ntag_17:\n    /* \"#utility.yul\":2593:2597   */\n  0x00\n    /* \"#utility.yul\":2631:2633   */\n  0x20\n    /* \"#utility.yul\":2620:2629   */\n  dup3\n    /* \"#utility.yul\":2616:2634   */\n  add\n    /* \"#utility.yul\":2608:2634   */\n  swap1\n  pop\n    /* \"#utility.yul\":2680:2689   */\n  dup2\n    /* \"#utility.yul\":2674:2678   */\n  dup2\n    /* \"#utility.yul\":2670:2690   */\n  sub\n    /* \"#utility.yul\":2666:2667   */\n  0x00\n    /* \"#utility.yul\":2655:2664   */\n  dup4\n    /* \"#utility.yul\":2651:2668   */\n  add\n    /* \"#utility.yul\":2644:2691   */\n  mstore\n    /* \"#utility.yul\":2708:2839   */\n  tag_58\n    /* \"#utility.yul\":2834:2838   */\n  dup2\n    /* \"#utility.yul\":2708:2839   */\n  tag_30\n  jump\t// in\ntag_58:\n    /* \"#utility.yul\":2700:2839   */\n  swap1\n  pop\n    /* \"#utility.yul\":2427:2846   */\n  swap2\n  swap1\n  pop\n  jump\t// out\n    /* \"BetPulse.sol\":232:3293  contract BetPulse is Ownable, ReentrancyGuard {... */\ntag_18:\n  mload(0x80)\n  codecopy(0x00, dataOffset(sub_0), dataSize(sub_0))\n  0x00\n  assignImmutable(\"0x7af96f1f1efc65ed484a0803de1d90713519e6ec663d7600835d02d7249d71c5\")\n  return(0x00, dataSize(sub_0))\nstop\n\nsub_0: assembly {\n        /* \"BetPulse.sol\":232:3293  contract BetPulse is Ownable, ReentrancyGuard {... */\n      mstore(0x40, 0x80)\n      callvalue\n      dup1\n      iszero\n      tag_1\n      jumpi\n      0x00\n      dup1\n      revert\n    tag_1:\n      pop\n      jumpi(tag_2, lt(calldatasize, 0x04))\n      shr(0xe0, calldataload(0x00))\n      dup1\n      0x915439fb\n      gt\n      tag_14\n      jumpi\n      dup1\n      0x915439fb\n      eq\n      tag_8\n      jumpi\n      dup1\n      0x94cec7a7\n      eq\n      tag_9\n      jumpi\n      dup1\n      0x9f2efb40\n      eq\n      tag_10\n      jumpi\n      dup1\n      0xe71c9697\n      eq\n      tag_11\n      jumpi\n      dup1\n      0xf2fde38b\n      eq\n      tag_12\n      jumpi\n      dup1\n      0xf644b3bb\n      eq\n      tag_13\n      jumpi\n      jump(tag_2)\n    tag_14:\n      dup1\n      0x14794702\n      eq\n      tag_3\n      jumpi\n      dup1\n      0x5b0fc6e8\n      eq\n      tag_4\n      jumpi\n      dup1\n      0x715018a6\n      eq\n      tag_5\n      jumpi\n      dup1\n      0x885735a5\n      eq\n      tag_6\n      jumpi\n      dup1\n      0x8da5cb5b\n      eq\n      tag_7\n      jumpi\n    tag_2:\n      0x00\n      dup1\n      revert\n        /* \"BetPulse.sol\":2534:3291  function withdrawWinnings(uint256 eventId) external nonReentrant {... */\n    tag_3:\n      tag_15\n      0x04\n      dup1\n      calldatasize\n      sub\n      dup2\n      add\n      swap1\n      tag_16\n      swap2\n      swap1\n      tag_17\n      jump\t// in\n    tag_16:\n      tag_18\n      jump\t// in\n    tag_15:\n      stop\n        /* \"BetPulse.sol\":284:318  IERC20 public immutable pulseToken */\n    tag_4:\n      tag_19\n      tag_20\n      jump\t// in\n    tag_19:\n      mload(0x40)\n      tag_21\n      swap2\n      swap1\n      tag_22\n      jump\t// in\n    tag_21:\n      mload(0x40)\n      dup1\n      swap2\n      sub\n      swap1\n      return\n        /* \"@openzeppelin/contracts/access/Ownable.sol\":2293:2394  function renounceOwnership() public virtual onlyOwner {... */\n    tag_5:\n      tag_23\n      tag_24\n      jump\t// in\n    tag_23:\n      stop\n        /* \"BetPulse.sol\":625:669  mapping(uint256 => bool) public eventOutcome */\n    tag_6:\n      tag_25\n      0x04\n      dup1\n      calldatasize\n      sub\n      dup2\n      add\n      swap1\n      tag_26\n      swap2\n      swap1\n      tag_17\n      jump\t// in\n    tag_26:\n      tag_27\n      jump\t// in\n    tag_25:\n      mload(0x40)\n      tag_28\n      swap2\n      swap1\n      tag_29\n      jump\t// in\n    tag_28:\n      mload(0x40)\n      dup1\n      swap2\n      sub\n      swap1\n      return\n        /* \"@openzeppelin/contracts/access/Ownable.sol\":1638:1723  function owner() public view virtual returns (address) {... */\n    tag_7:\n      tag_30\n      tag_31\n      jump\t// in\n    tag_30:\n      mload(0x40)\n      tag_32\n      swap2\n      swap1\n      tag_33\n      jump\t// in\n    tag_32:\n      mload(0x40)\n      dup1\n      swap2\n      sub\n      swap1\n      return\n        /* \"BetPulse.sol\":1978:2240  function resolveEvent(uint256 eventId, bool outcome) external onlyOwner {... */\n    tag_8:\n      tag_34\n      0x04\n      dup1\n      calldatasize\n      sub\n      dup2\n      add\n      swap1\n      tag_35\n      swap2\n      swap1\n      tag_36\n      jump\t// in\n    tag_35:\n      tag_37\n      jump\t// in\n    tag_34:\n      stop\n        /* \"BetPulse.sol\":733:797  mapping(uint256 => mapping(address => bool)) public hasWithdrawn */\n    tag_9:\n      tag_38\n      0x04\n      dup1\n      calldatasize\n      sub\n      dup2\n      add\n      swap1\n      tag_39\n      swap2\n      swap1\n      tag_40\n      jump\t// in\n    tag_39:\n      tag_41\n      jump\t// in\n    tag_38:\n      mload(0x40)\n      tag_42\n      swap2\n      swap1\n      tag_29\n      jump\t// in\n    tag_42:\n      mload(0x40)\n      dup1\n      swap2\n      sub\n      swap1\n      return\n        /* \"BetPulse.sol\":2246:2528  function markResult(address user, uint256 eventId, bool won) external onlyOwner {... */\n    tag_10:\n      tag_43\n      0x04\n      dup1\n      calldatasize\n      sub\n      dup2\n      add\n      swap1\n      tag_44\n      swap2\n      swap1\n      tag_45\n      jump\t// in\n    tag_44:\n      tag_46\n      jump\t// in\n    tag_43:\n      stop\n        /* \"BetPulse.sol\":1268:1972  function placeBet(uint256 eventId, uint256 amount, uint256 odds) external nonReentrant {... */\n    tag_11:\n      tag_47\n      0x04\n      dup1\n      calldatasize\n      sub\n      dup2\n      add\n      swap1\n      tag_48\n      swap2\n      swap1\n      tag_49\n      jump\t// in\n    tag_48:\n      tag_50\n      jump\t// in\n    tag_47:\n      stop\n        /* \"@openzeppelin/contracts/access/Ownable.sol\":2543:2758  function transferOwnership(address newOwner) public virtual onlyOwner {... */\n    tag_12:\n      tag_51\n      0x04\n      dup1\n      calldatasize\n      sub\n      dup2\n      add\n      swap1\n      tag_52\n      swap2\n      swap1\n      tag_53\n      jump\t// in\n    tag_52:\n      tag_54\n      jump\t// in\n    tag_51:\n      stop\n        /* \"BetPulse.sol\":528:583  mapping(uint256 => mapping(address => Bet)) public bets */\n    tag_13:\n      tag_55\n      0x04\n      dup1\n      calldatasize\n      sub\n      dup2\n      add\n      swap1\n      tag_56\n      swap2\n      swap1\n      tag_40\n      jump\t// in\n    tag_56:\n      tag_57\n      jump\t// in\n    tag_55:\n      mload(0x40)\n      tag_58\n      swap5\n      swap4\n      swap3\n      swap2\n      swap1\n      tag_59\n      jump\t// in\n    tag_58:\n      mload(0x40)\n      dup1\n      swap2\n      sub\n      swap1\n      return\n        /* \"BetPulse.sol\":2534:3291  function withdrawWinnings(uint256 eventId) external nonReentrant {... */\n    tag_18:\n        /* \"@openzeppelin/contracts/security/ReentrancyGuard.sol\":2261:2282  _nonReentrantBefore() */\n      tag_61\n        /* \"@openzeppelin/contracts/security/ReentrancyGuard.sol\":2261:2280  _nonReentrantBefore */\n      tag_62\n        /* \"@openzeppelin/contracts/security/ReentrancyGuard.sol\":2261:2282  _nonReentrantBefore() */\n      jump\t// in\n    tag_61:\n        /* \"BetPulse.sol\":2609:2624  Bet storage bet */\n      0x00\n        /* \"BetPulse.sol\":2627:2631  bets */\n      0x02\n        /* \"BetPulse.sol\":2627:2640  bets[eventId] */\n      0x00\n        /* \"BetPulse.sol\":2632:2639  eventId */\n      dup4\n        /* \"BetPulse.sol\":2627:2640  bets[eventId] */\n      dup2\n      mstore\n      0x20\n      add\n      swap1\n      dup2\n      mstore\n      0x20\n      add\n      0x00\n      keccak256\n        /* \"BetPulse.sol\":2627:2652  bets[eventId][msg.sender] */\n      0x00\n        /* \"BetPulse.sol\":2641:2651  msg.sender */\n      caller\n        /* \"BetPulse.sol\":2627:2652  bets[eventId][msg.sender] */\n      0xffffffffffffffffffffffffffffffffffffffff\n      and\n      0xffffffffffffffffffffffffffffffffffffffff\n      and\n      dup2\n      mstore\n      0x20\n      add\n      swap1\n      dup2\n      mstore\n      0x20\n      add\n      0x00\n      keccak256\n        /* \"BetPulse.sol\":2609:2652  Bet storage bet = bets[eventId][msg.sender] */\n      swap1\n      pop\n        /* \"BetPulse.sol\":2683:2684  0 */\n      0x00\n        /* \"BetPulse.sol\":2670:2673  bet */\n      dup2\n        /* \"BetPulse.sol\":2670:2680  bet.amount */\n      0x00\n      add\n      sload\n        /* \"BetPulse.sol\":2670:2684  bet.amount > 0 */\n      gt\n        /* \"BetPulse.sol\":2662:2703  require(bet.amount > 0, \"Nenhuma aposta\") */\n      tag_64\n      jumpi\n      mload(0x40)\n      0x08c379a000000000000000000000000000000000000000000000000000000000\n      dup2\n      mstore\n      0x04\n      add\n      tag_65\n      swap1\n      tag_66\n      jump\t// in\n    tag_65:\n      mload(0x40)\n      dup1\n      swap2\n      sub\n      swap1\n      revert\n    tag_64:\n        /* \"BetPulse.sol\":2721:2724  bet */\n      dup1\n        /* \"BetPulse.sol\":2721:2733  bet.resolved */\n      0x02\n      add\n      0x00\n      swap1\n      sload\n      swap1\n      0x0100\n      exp\n      swap1\n      div\n      0xff\n      and\n        /* \"BetPulse.sol\":2713:2758  require(bet.resolved, \"Aposta nao resolvida\") */\n      tag_67\n      jumpi\n      mload(0x40)\n      0x08c379a000000000000000000000000000000000000000000000000000000000\n      dup2\n      mstore\n      0x04\n      add\n      tag_68\n      swap1\n      tag_69\n      jump\t// in\n    tag_68:\n      mload(0x40)\n      dup1\n      swap2\n      sub\n      swap1\n      revert\n    tag_67:\n        /* \"BetPulse.sol\":2776:2779  bet */\n      dup1\n        /* \"BetPulse.sol\":2776:2783  bet.won */\n      0x02\n      add\n      0x01\n      swap1\n      sload\n      swap1\n      0x0100\n      exp\n      swap1\n      div\n      0xff\n      and\n        /* \"BetPulse.sol\":2768:2802  require(bet.won, \"Aposta perdida\") */\n      tag_70\n      jumpi\n      mload(0x40)\n      0x08c379a000000000000000000000000000000000000000000000000000000000\n      dup2\n      mstore\n      0x04\n      add\n      tag_71\n      swap1\n      tag_72\n      jump\t// in\n    tag_71:\n      mload(0x40)\n      dup1\n      swap2\n      sub\n      swap1\n      revert\n    tag_70:\n        /* \"BetPulse.sol\":2821:2833  hasWithdrawn */\n      0x04\n        /* \"BetPulse.sol\":2821:2842  hasWithdrawn[eventId] */\n      0x00\n        /* \"BetPulse.sol\":2834:2841  eventId */\n      dup4\n        /* \"BetPulse.sol\":2821:2842  hasWithdrawn[eventId] */\n      dup2\n      mstore\n      0x20\n      add\n      swap1\n      dup2\n      mstore\n      0x20\n      add\n      0x00\n      keccak256\n        /* \"BetPulse.sol\":2821:2854  hasWithdrawn[eventId][msg.sender] */\n      0x00\n        /* \"BetPulse.sol\":2843:2853  msg.sender */\n      caller\n        /* \"BetPulse.sol\":2821:2854  hasWithdrawn[eventId][msg.sender] */\n      0xffffffffffffffffffffffffffffffffffffffff\n      and\n      0xffffffffffffffffffffffffffffffffffffffff\n      and\n      dup2\n      mstore\n      0x20\n      add\n      swap1\n      dup2\n      mstore\n      0x20\n      add\n      0x00\n      keccak256\n      0x00\n      swap1\n      sload\n      swap1\n      0x0100\n      exp\n      swap1\n      div\n      0xff\n      and\n        /* \"BetPulse.sol\":2820:2854  !hasWithdrawn[eventId][msg.sender] */\n      iszero\n        /* \"BetPulse.sol\":2812:2868  require(!hasWithdrawn[eventId][msg.sender], \"Ja sacado\") */\n      tag_73\n      jumpi\n      mload(0x40)\n      0x08c379a000000000000000000000000000000000000000000000000000000000\n      dup2\n      mstore\n      0x04\n      add\n      tag_74\n      swap1\n      tag_75\n      jump\t// in\n    tag_74:\n      mload(0x40)\n      dup1\n      swap2\n      sub\n      swap1\n      revert\n    tag_73:\n        /* \"BetPulse.sol\":2879:2893  uint256 payout */\n      0x00\n        /* \"BetPulse.sol\":2922:2925  100 */\n      0x64\n        /* \"BetPulse.sol\":2910:2913  bet */\n      dup3\n        /* \"BetPulse.sol\":2910:2918  bet.odds */\n      0x01\n      add\n      sload\n        /* \"BetPulse.sol\":2897:2900  bet */\n      dup4\n        /* \"BetPulse.sol\":2897:2907  bet.amount */\n      0x00\n      add\n      sload\n        /* \"BetPulse.sol\":2897:2918  bet.amount * bet.odds */\n      tag_76\n      swap2\n      swap1\n      tag_77\n      jump\t// in\n    tag_76:\n        /* \"BetPulse.sol\":2896:2925  (bet.amount * bet.odds) / 100 */\n      tag_78\n      swap2\n      swap1\n      tag_79\n      jump\t// in\n    tag_78:\n        /* \"BetPulse.sol\":2879:2925  uint256 payout = (bet.amount * bet.odds) / 100 */\n      swap1\n      pop\n        /* \"BetPulse.sol\":2966:2970  1000 */\n      0x03e8\n        /* \"BetPulse.sol\":2953:2956  bet */\n      dup3\n        /* \"BetPulse.sol\":2953:2963  bet.amount */\n      0x00\n      add\n      sload\n        /* \"BetPulse.sol\":2953:2970  bet.amount * 1000 */\n      tag_80\n      swap2\n      swap1\n      tag_77\n      jump\t// in\n    tag_80:\n        /* \"BetPulse.sol\":2943:2949  payout */\n      dup2\n        /* \"BetPulse.sol\":2943:2970  payout <= bet.amount * 1000 */\n      gt\n      iszero\n        /* \"BetPulse.sol\":2935:2997  require(payout <= bet.amount * 1000, \"Payout acima do limite\") */\n      tag_81\n      jumpi\n      mload(0x40)\n      0x08c379a000000000000000000000000000000000000000000000000000000000\n      dup2\n      mstore\n      0x04\n      add\n      tag_82\n      swap1\n      tag_83\n      jump\t// in\n    tag_82:\n      mload(0x40)\n      dup1\n      swap2\n      sub\n      swap1\n      revert\n    tag_81:\n        /* \"BetPulse.sol\":3069:3073  true */\n      0x01\n        /* \"BetPulse.sol\":3033:3045  hasWithdrawn */\n      0x04\n        /* \"BetPulse.sol\":3033:3054  hasWithdrawn[eventId] */\n      0x00\n        /* \"BetPulse.sol\":3046:3053  eventId */\n      dup6\n        /* \"BetPulse.sol\":3033:3054  hasWithdrawn[eventId] */\n      dup2\n      mstore\n      0x20\n      add\n      swap1\n      dup2\n      mstore\n      0x20\n      add\n      0x00\n      keccak256\n        /* \"BetPulse.sol\":3033:3066  hasWithdrawn[eventId][msg.sender] */\n      0x00\n        /* \"BetPulse.sol\":3055:3065  msg.sender */\n      caller\n        /* \"BetPulse.sol\":3033:3066  hasWithdrawn[eventId][msg.sender] */\n      0xffffffffffffffffffffffffffffffffffffffff\n      and\n      0xffffffffffffffffffffffffffffffffffffffff\n      and\n      dup2\n      mstore\n      0x20\n      add\n      swap1\n      dup2\n      mstore\n      0x20\n      add\n      0x00\n      keccak256\n      0x00\n        /* \"BetPulse.sol\":3033:3073  hasWithdrawn[eventId][msg.sender] = true */\n      0x0100\n      exp\n      dup2\n      sload\n      dup2\n      0xff\n      mul\n      not\n      and\n      swap1\n      dup4\n      iszero\n      iszero\n      mul\n      or\n      swap1\n      sstore\n      pop\n        /* \"BetPulse.sol\":3090:3094  bets */\n      0x02\n        /* \"BetPulse.sol\":3090:3103  bets[eventId] */\n      0x00\n        /* \"BetPulse.sol\":3095:3102  eventId */\n      dup5\n        /* \"BetPulse.sol\":3090:3103  bets[eventId] */\n      dup2\n      mstore\n      0x20\n      add\n      swap1\n      dup2\n      mstore\n      0x20\n      add\n      0x00\n      keccak256\n        /* \"BetPulse.sol\":3090:3115  bets[eventId][msg.sender] */\n      0x00\n        /* \"BetPulse.sol\":3104:3114  msg.sender */\n      caller\n        /* \"BetPulse.sol\":3090:3115  bets[eventId][msg.sender] */\n      0xffffffffffffffffffffffffffffffffffffffff\n      and\n      0xffffffffffffffffffffffffffffffffffffffff\n      and\n      dup2\n      mstore\n      0x20\n      add\n      swap1\n      dup2\n      mstore\n      0x20\n      add\n      0x00\n      keccak256\n      0x00\n        /* \"BetPulse.sol\":3083:3115  delete bets[eventId][msg.sender] */\n      dup1\n      dup3\n      add\n      0x00\n      swap1\n      sstore\n      0x01\n      dup3\n      add\n      0x00\n      swap1\n      sstore\n      0x02\n      dup3\n      add\n      exp(0x0100, 0x00)\n      dup2\n      sload\n      swap1\n      0xff\n      mul\n      not\n      and\n      swap1\n      sstore\n      0x02\n      dup3\n      add\n      exp(0x0100, 0x01)\n      dup2\n      sload\n      swap1\n      0xff\n      mul\n      not\n      and\n      swap1\n      sstore\n      pop\n      pop\n        /* \"BetPulse.sol\":3126:3133  bool ok */\n      0x00\n        /* \"BetPulse.sol\":3136:3146  pulseToken */\n      immutable(\"0x7af96f1f1efc65ed484a0803de1d90713519e6ec663d7600835d02d7249d71c5\")\n        /* \"BetPulse.sol\":3136:3155  pulseToken.transfer */\n      0xffffffffffffffffffffffffffffffffffffffff\n      and\n      0xa9059cbb\n        /* \"BetPulse.sol\":3156:3166  msg.sender */\n      caller\n        /* \"BetPulse.sol\":3168:3174  payout */\n      dup5\n        /* \"BetPulse.sol\":3136:3175  pulseToken.transfer(msg.sender, payout) */\n      mload(0x40)\n      dup4\n      0xffffffff\n      and\n      0xe0\n      shl\n      dup2\n      mstore\n      0x04\n      add\n      tag_84\n      swap3\n      swap2\n      swap1\n      tag_85\n      jump\t// in\n    tag_84:\n      0x20\n      mload(0x40)\n      dup1\n      dup4\n      sub\n      dup2\n      0x00\n      dup8\n      gas\n      call\n      iszero\n      dup1\n      iszero\n      tag_87\n      jumpi\n      returndatasize\n      0x00\n      dup1\n      returndatacopy\n      revert(0x00, returndatasize)\n    tag_87:\n      pop\n      pop\n      pop\n      pop\n      mload(0x40)\n      returndatasize\n      not(0x1f)\n      0x1f\n      dup3\n      add\n      and\n      dup3\n      add\n      dup1\n      0x40\n      mstore\n      pop\n      dup2\n      add\n      swap1\n      tag_88\n      swap2\n      swap1\n      tag_89\n      jump\t// in\n    tag_88:\n        /* \"BetPulse.sol\":3126:3175  bool ok = pulseToken.transfer(msg.sender, payout) */\n      swap1\n      pop\n        /* \"BetPulse.sol\":3193:3195  ok */\n      dup1\n        /* \"BetPulse.sol\":3185:3222  require(ok, \"Falha na transferencia\") */\n      tag_90\n      jumpi\n      mload(0x40)\n      0x08c379a000000000000000000000000000000000000000000000000000000000\n      dup2\n      mstore\n      0x04\n      add\n      tag_91\n      swap1\n      tag_92\n      jump\t// in\n    tag_91:\n      mload(0x40)\n      dup1\n      swap2\n      sub\n      swap1\n      revert\n    tag_90:\n        /* \"BetPulse.sol\":3268:3275  eventId */\n      dup4\n        /* \"BetPulse.sol\":3256:3266  msg.sender */\n      caller\n        /* \"BetPulse.sol\":3238:3284  WinningsWithdrawn(msg.sender, eventId, payout) */\n      0xffffffffffffffffffffffffffffffffffffffff\n      and\n      0x64bd7c266edce1b240f0ed2697cdca2e2478fb1dbc18ec833f80cda28a34c029\n        /* \"BetPulse.sol\":3277:3283  payout */\n      dup5\n        /* \"BetPulse.sol\":3238:3284  WinningsWithdrawn(msg.sender, eventId, payout) */\n      mload(0x40)\n      tag_93\n      swap2\n      swap1\n      tag_94\n      jump\t// in\n    tag_93:\n      mload(0x40)\n      dup1\n      swap2\n      sub\n      swap1\n      log3\n        /* \"BetPulse.sol\":2599:3291  {... */\n      pop\n      pop\n      pop\n        /* \"@openzeppelin/contracts/security/ReentrancyGuard.sol\":2303:2323  _nonReentrantAfter() */\n      tag_95\n        /* \"@openzeppelin/contracts/security/ReentrancyGuard.sol\":2303:2321  _nonReentrantAfter */\n      tag_96\n        /* \"@openzeppelin/contracts/security/ReentrancyGuard.sol\":2303:2323  _nonReentrantAfter() */\n      jump\t// in\n    tag_95:\n        /* \"BetPulse.sol\":2534:3291  function withdrawWinnings(uint256 eventId) external nonReentrant {... */\n      pop\n      jump\t// out\n        /* \"BetPulse.sol\":284:318  IERC20 public immutable pulseToken */\n    tag_20:\n      immutable(\"0x7af96f1f1efc65ed484a0803de1d90713519e6ec663d7600835d02d7249d71c5\")\n      dup2\n      jump\t// out\n        /* \"@openzeppelin/contracts/access/Ownable.sol\":2293:2394  function renounceOwnership() public virtual onlyOwner {... */\n    tag_24:\n        /* \"@openzeppelin/contracts/access/Ownable.sol\":1531:1544  _checkOwner() */\n      tag_98\n        /* \"@openzeppelin/contracts/access/Ownable.sol\":1531:1542  _checkOwner */\n      tag_99\n        /* \"@openzeppelin/contracts/access/Ownable.sol\":1531:1544  _checkOwner() */\n      jump\t// in\n    tag_98:\n        /* \"@openzeppelin/contracts/access/Ownable.sol\":2357:2387  _transferOwnership(address(0)) */\n      tag_101\n        /* \"@openzeppelin/contracts/access/Ownable.sol\":2384:2385  0 */\n      0x00\n        /* \"@openzeppelin/contracts/access/Ownable.sol\":2357:2375  _transferOwnership */\n      tag_102\n        /* \"@openzeppelin/contracts/access/Ownable.sol\":2357:2387  _transferOwnership(address(0)) */\n      jump\t// in\n    tag_101:\n        /* \"@openzeppelin/contracts/access/Ownable.sol\":2293:2394  function renounceOwnership() public virtual onlyOwner {... */\n      jump\t// out\n        /* \"BetPulse.sol\":625:669  mapping(uint256 => bool) public eventOutcome */\n    tag_27:\n      mstore(0x20, 0x03)\n      dup1\n      0x00\n      mstore\n      keccak256(0x00, 0x40)\n      0x00\n      swap2\n      pop\n      sload\n      swap1\n      0x0100\n      exp\n      swap1\n      div\n      0xff\n      and\n      dup2\n      jump\t// out\n        /* \"@openzeppelin/contracts/access/Ownable.sol\":1638:1723  function owner() public view virtual returns (address) {... */\n    tag_31:\n        /* \"@openzeppelin/contracts/access/Ownable.sol\":1684:1691  address */\n      0x00\n        /* \"@openzeppelin/contracts/access/Ownable.sol\":1710:1716  _owner */\n      dup1\n      0x00\n      swap1\n      sload\n      swap1\n      0x0100\n      exp\n      swap1\n      div\n      0xffffffffffffffffffffffffffffffffffffffff\n      and\n        /* \"@openzeppelin/contracts/access/Ownable.sol\":1703:1716  return _owner */\n      swap1\n      pop\n        /* \"@openzeppelin/contracts/access/Ownable.sol\":1638:1723  function owner() public view virtual returns (address) {... */\n      swap1\n      jump\t// out\n        /* \"BetPulse.sol\":1978:2240  function resolveEvent(uint256 eventId, bool outcome) external onlyOwner {... */\n    tag_37:\n        /* \"@openzeppelin/contracts/access/Ownable.sol\":1531:1544  _checkOwner() */\n      tag_105\n        /* \"@openzeppelin/contracts/access/Ownable.sol\":1531:1542  _checkOwner */\n      tag_99\n        /* \"@openzeppelin/contracts/access/Ownable.sol\":1531:1544  _checkOwner() */\n      jump\t// in\n    tag_105:\n        /* \"BetPulse.sol\":2069:2081  eventOutcome */\n      0x03\n        /* \"BetPulse.sol\":2069:2090  eventOutcome[eventId] */\n      0x00\n        /* \"BetPulse.sol\":2082:2089  eventId */\n      dup4\n        /* \"BetPulse.sol\":2069:2090  eventOutcome[eventId] */\n      dup2\n      mstore\n      0x20\n      add\n      swap1\n      dup2\n      mstore\n      0x20\n      add\n      0x00\n      keccak256\n      0x00\n      swap1\n      sload\n      swap1\n      0x0100\n      exp\n      swap1\n      div\n      0xff\n      and\n        /* \"BetPulse.sol\":2068:2090  !eventOutcome[eventId] */\n      iszero\n        /* \"BetPulse.sol\":2060:2114  require(!eventOutcome[eventId], \"Evento ja resolvido\") */\n      tag_107\n      jumpi\n      mload(0x40)\n      0x08c379a000000000000000000000000000000000000000000000000000000000\n      dup2\n      mstore\n      0x04\n      add\n      tag_108\n      swap1\n      tag_109\n      jump\t// in\n    tag_108:\n      mload(0x40)\n      dup1\n      swap2\n      sub\n      swap1\n      revert\n    tag_107:\n        /* \"BetPulse.sol\":2179:2186  outcome */\n      dup1\n        /* \"BetPulse.sol\":2155:2167  eventOutcome */\n      0x03\n        /* \"BetPulse.sol\":2155:2176  eventOutcome[eventId] */\n      0x00\n        /* \"BetPulse.sol\":2168:2175  eventId */\n      dup5\n        /* \"BetPulse.sol\":2155:2176  eventOutcome[eventId] */\n      dup2\n      mstore\n      0x20\n      add\n      swap1\n      dup2\n      mstore\n      0x20\n      add\n      0x00\n      keccak256\n      0x00\n        /* \"BetPulse.sol\":2155:2186  eventOutcome[eventId] = outcome */\n      0x0100\n      exp\n      dup2\n      sload\n      dup2\n      0xff\n      mul\n      not\n      and\n      swap1\n      dup4\n      iszero\n      iszero\n      mul\n      or\n      swap1\n      sstore\n      pop\n        /* \"BetPulse.sol\":2216:2223  eventId */\n      dup2\n        /* \"BetPulse.sol\":2202:2233  EventResolved(eventId, outcome) */\n      0x17124873aec4a4b1ba3660b40d20291d60e85c85f1f19c45b09715a01178133f\n        /* \"BetPulse.sol\":2225:2232  outcome */\n      dup3\n        /* \"BetPulse.sol\":2202:2233  EventResolved(eventId, outcome) */\n      mload(0x40)\n      tag_110\n      swap2\n      swap1\n      tag_29\n      jump\t// in\n    tag_110:\n      mload(0x40)\n      dup1\n      swap2\n      sub\n      swap1\n      log2\n        /* \"BetPulse.sol\":1978:2240  function resolveEvent(uint256 eventId, bool outcome) external onlyOwner {... */\n      pop\n      pop\n      jump\t// out\n        /* \"BetPulse.sol\":733:797  mapping(uint256 => mapping(address => bool)) public hasWithdrawn */\n    tag_41:\n      mstore(0x20, 0x04)\n      dup2\n      0x00\n      mstore\n      mstore(0x20, keccak256(0x00, 0x40))\n      dup1\n      0x00\n      mstore\n      keccak256(0x00, 0x40)\n      0x00\n      swap2\n      pop\n      swap2\n      pop\n      swap1\n      sload\n      swap1\n      0x0100\n      exp\n      swap1\n      div\n      0xff\n      and\n      dup2\n      jump\t// out\n        /* \"BetPulse.sol\":2246:2528  function markResult(address user, uint256 eventId, bool won) external onlyOwner {... */\n    tag_46:\n        /* \"@openzeppelin/contracts/access/Ownable.sol\":1531:1544  _checkOwner() */\n      tag_112\n        /* \"@openzeppelin/contracts/access/Ownable.sol\":1531:1542  _checkOwner */\n      tag_99\n        /* \"@openzeppelin/contracts/access/Ownable.sol\":1531:1544  _checkOwner() */\n      jump\t// in\n    tag_112:\n        /* \"BetPulse.sol\":2336:2351  Bet storage bet */\n      0x00\n        /* \"BetPulse.sol\":2354:2358  bets */\n      0x02\n        /* \"BetPulse.sol\":2354:2367  bets[eventId] */\n      0x00\n        /* \"BetPulse.sol\":2359:2366  eventId */\n      dup5\n        /* \"BetPulse.sol\":2354:2367  bets[eventId] */\n      dup2\n      mstore\n      0x20\n      add\n      swap1\n      dup2\n      mstore\n      0x20\n      add\n      0x00\n      keccak256\n        /* \"BetPulse.sol\":2354:2373  bets[eventId][user] */\n      0x00\n        /* \"BetPulse.sol\":2368:2372  user */\n      dup6\n        /* \"BetPulse.sol\":2354:2373  bets[eventId][user] */\n      0xffffffffffffffffffffffffffffffffffffffff\n      and\n      0xffffffffffffffffffffffffffffffffffffffff\n      and\n      dup2\n      mstore\n      0x20\n      add\n      swap1\n      dup2\n      mstore\n      0x20\n      add\n      0x00\n      keccak256\n        /* \"BetPulse.sol\":2336:2373  Bet storage bet = bets[eventId][user] */\n      swap1\n      pop\n        /* \"BetPulse.sol\":2404:2405  0 */\n      0x00\n        /* \"BetPulse.sol\":2391:2394  bet */\n      dup2\n        /* \"BetPulse.sol\":2391:2401  bet.amount */\n      0x00\n      add\n      sload\n        /* \"BetPulse.sol\":2391:2405  bet.amount > 0 */\n      gt\n        /* \"BetPulse.sol\":2383:2420  require(bet.amount > 0, \"Sem aposta\") */\n      tag_114\n      jumpi\n      mload(0x40)\n      0x08c379a000000000000000000000000000000000000000000000000000000000\n      dup2\n      mstore\n      0x04\n      add\n      tag_115\n      swap1\n      tag_116\n      jump\t// in\n    tag_115:\n      mload(0x40)\n      dup1\n      swap2\n      sub\n      swap1\n      revert\n    tag_114:\n        /* \"BetPulse.sol\":2439:2442  bet */\n      dup1\n        /* \"BetPulse.sol\":2439:2451  bet.resolved */\n      0x02\n      add\n      0x00\n      swap1\n      sload\n      swap1\n      0x0100\n      exp\n      swap1\n      div\n      0xff\n      and\n        /* \"BetPulse.sol\":2438:2451  !bet.resolved */\n      iszero\n        /* \"BetPulse.sol\":2430:2468  require(!bet.resolved, \"Ja resolvida\") */\n      tag_117\n      jumpi\n      mload(0x40)\n      0x08c379a000000000000000000000000000000000000000000000000000000000\n      dup2\n      mstore\n      0x04\n      add\n      tag_118\n      swap1\n      tag_119\n      jump\t// in\n    tag_118:\n      mload(0x40)\n      dup1\n      swap2\n      sub\n      swap1\n      revert\n    tag_117:\n        /* \"BetPulse.sol\":2494:2498  true */\n      0x01\n        /* \"BetPulse.sol\":2479:2482  bet */\n      dup2\n        /* \"BetPulse.sol\":2479:2491  bet.resolved */\n      0x02\n      add\n      0x00\n        /* \"BetPulse.sol\":2479:2498  bet.resolved = true */\n      0x0100\n      exp\n      dup2\n      sload\n      dup2\n      0xff\n      mul\n      not\n      and\n      swap1\n      dup4\n      iszero\n      iszero\n      mul\n      or\n      swap1\n      sstore\n      pop\n        /* \"BetPulse.sol\":2518:2521  won */\n      dup2\n        /* \"BetPulse.sol\":2508:2511  bet */\n      dup2\n        /* \"BetPulse.sol\":2508:2515  bet.won */\n      0x02\n      add\n      0x01\n        /* \"BetPulse.sol\":2508:2521  bet.won = won */\n      0x0100\n      exp\n      dup2\n      sload\n      dup2\n      0xff\n      mul\n      not\n      and\n      swap1\n      dup4\n      iszero\n      iszero\n      mul\n      or\n      swap1\n      sstore\n      pop\n        /* \"BetPulse.sol\":2326:2528  {... */\n      pop\n        /* \"BetPulse.sol\":2246:2528  function markResult(address user, uint256 eventId, bool won) external onlyOwner {... */\n      pop\n      pop\n      pop\n      jump\t// out\n        /* \"BetPulse.sol\":1268:1972  function placeBet(uint256 eventId, uint256 amount, uint256 odds) external nonReentrant {... */\n    tag_50:\n        /* \"@openzeppelin/contracts/security/ReentrancyGuard.sol\":2261:2282  _nonReentrantBefore() */\n      tag_121\n        /* \"@openzeppelin/contracts/security/ReentrancyGuard.sol\":2261:2280  _nonReentrantBefore */\n      tag_62\n        /* \"@openzeppelin/contracts/security/ReentrancyGuard.sol\":2261:2282  _nonReentrantBefore() */\n      jump\t// in\n    tag_121:\n        /* \"BetPulse.sol\":1382:1383  0 */\n      0x00\n        /* \"BetPulse.sol\":1373:1379  amount */\n      dup3\n        /* \"BetPulse.sol\":1373:1383  amount > 0 */\n      gt\n        /* \"BetPulse.sol\":1365:1402  require(amount > 0, \"Valor invalido\") */\n      tag_123\n      jumpi\n      mload(0x40)\n      0x08c379a000000000000000000000000000000000000000000000000000000000\n      dup2\n      mstore\n      0x04\n      add\n      tag_124\n      swap1\n      tag_125\n      jump\t// in\n    tag_124:\n      mload(0x40)\n      dup1\n      swap2\n      sub\n      swap1\n      revert\n    tag_123:\n        /* \"BetPulse.sol\":1428:1431  100 */\n      0x64\n        /* \"BetPulse.sol\":1420:1424  odds */\n      dup2\n        /* \"BetPulse.sol\":1420:1431  odds >= 100 */\n      lt\n      iszero\n        /* \"BetPulse.sol\":1412:1454  require(odds >= 100, \"Odds minimas: 100%\") */\n      tag_126\n      jumpi\n      mload(0x40)\n      0x08c379a000000000000000000000000000000000000000000000000000000000\n      dup2\n      mstore\n      0x04\n      add\n      tag_127\n      swap1\n      tag_128\n      jump\t// in\n    tag_127:\n      mload(0x40)\n      dup1\n      swap2\n      sub\n      swap1\n      revert\n    tag_126:\n        /* \"BetPulse.sol\":1508:1509  0 */\n      0x00\n        /* \"BetPulse.sol\":1472:1476  bets */\n      0x02\n        /* \"BetPulse.sol\":1472:1485  bets[eventId] */\n      0x00\n        /* \"BetPulse.sol\":1477:1484  eventId */\n      dup6\n        /* \"BetPulse.sol\":1472:1485  bets[eventId] */\n      dup2\n      mstore\n      0x20\n      add\n      swap1\n      dup2\n      mstore\n      0x20\n      add\n      0x00\n      keccak256\n        /* \"BetPulse.sol\":1472:1497  bets[eventId][msg.sender] */\n      0x00\n        /* \"BetPulse.sol\":1486:1496  msg.sender */\n      caller\n        /* \"BetPulse.sol\":1472:1497  bets[eventId][msg.sender] */\n      0xffffffffffffffffffffffffffffffffffffffff\n      and\n      0xffffffffffffffffffffffffffffffffffffffff\n      and\n      dup2\n      mstore\n      0x20\n      add\n      swap1\n      dup2\n      mstore\n      0x20\n      add\n      0x00\n      keccak256\n        /* \"BetPulse.sol\":1472:1504  bets[eventId][msg.sender].amount */\n      0x00\n      add\n      sload\n        /* \"BetPulse.sol\":1472:1509  bets[eventId][msg.sender].amount == 0 */\n      eq\n        /* \"BetPulse.sol\":1464:1524  require(bets[eventId][msg.sender].amount == 0, \"Ja apostou\") */\n      tag_129\n      jumpi\n      mload(0x40)\n      0x08c379a000000000000000000000000000000000000000000000000000000000\n      dup2\n      mstore\n      0x04\n      add\n      tag_130\n      swap1\n      tag_131\n      jump\t// in\n    tag_130:\n      mload(0x40)\n      dup1\n      swap2\n      sub\n      swap1\n      revert\n    tag_129:\n        /* \"BetPulse.sol\":1543:1555  eventOutcome */\n      0x03\n        /* \"BetPulse.sol\":1543:1564  eventOutcome[eventId] */\n      0x00\n        /* \"BetPulse.sol\":1556:1563  eventId */\n      dup5\n        /* \"BetPulse.sol\":1543:1564  eventOutcome[eventId] */\n      dup2\n      mstore\n      0x20\n      add\n      swap1\n      dup2\n      mstore\n      0x20\n      add\n      0x00\n      keccak256\n      0x00\n      swap1\n      sload\n      swap1\n      0x0100\n      exp\n      swap1\n      div\n      0xff\n      and\n        /* \"BetPulse.sol\":1542:1564  !eventOutcome[eventId] */\n      iszero\n        /* \"BetPulse.sol\":1534:1585  require(!eventOutcome[eventId], \"Evento encerrado\") */\n      tag_132\n      jumpi\n      mload(0x40)\n      0x08c379a000000000000000000000000000000000000000000000000000000000\n      dup2\n      mstore\n      0x04\n      add\n      tag_133\n      swap1\n      tag_134\n      jump\t// in\n    tag_133:\n      mload(0x40)\n      dup1\n      swap2\n      sub\n      swap1\n      revert\n    tag_132:\n        /* \"BetPulse.sol\":1631:1638  bool ok */\n      0x00\n        /* \"BetPulse.sol\":1641:1651  pulseToken */\n      immutable(\"0x7af96f1f1efc65ed484a0803de1d90713519e6ec663d7600835d02d7249d71c5\")\n        /* \"BetPulse.sol\":1641:1664  pulseToken.transferFrom */\n      0xffffffffffffffffffffffffffffffffffffffff\n      and\n      0x23b872dd\n        /* \"BetPulse.sol\":1665:1675  msg.sender */\n      caller\n        /* \"BetPulse.sol\":1685:1689  this */\n      address\n        /* \"BetPulse.sol\":1692:1698  amount */\n      dup7\n        /* \"BetPulse.sol\":1641:1699  pulseToken.transferFrom(msg.sender, address(this), amount) */\n      mload(0x40)\n      dup5\n      0xffffffff\n      and\n      0xe0\n      shl\n      dup2\n      mstore\n      0x04\n      add\n      tag_135\n      swap4\n      swap3\n      swap2\n      swap1\n      tag_136\n      jump\t// in\n    tag_135:\n      0x20\n      mload(0x40)\n      dup1\n      dup4\n      sub\n      dup2\n      0x00\n      dup8\n      gas\n      call\n      iszero\n      dup1\n      iszero\n      tag_138\n      jumpi\n      returndatasize\n      0x00\n      dup1\n      returndatacopy\n      revert(0x00, returndatasize)\n    tag_138:\n      pop\n      pop\n      pop\n      pop\n      mload(0x40)\n      returndatasize\n      not(0x1f)\n      0x1f\n      dup3\n      add\n      and\n      dup3\n      add\n      dup1\n      0x40\n      mstore\n      pop\n      dup2\n      add\n      swap1\n      tag_139\n      swap2\n      swap1\n      tag_89\n      jump\t// in\n    tag_139:\n        /* \"BetPulse.sol\":1631:1699  bool ok = pulseToken.transferFrom(msg.sender, address(this), amount) */\n      swap1\n      pop\n        /* \"BetPulse.sol\":1717:1719  ok */\n      dup1\n        /* \"BetPulse.sol\":1709:1746  require(ok, \"Falha na transferencia\") */\n      tag_140\n      jumpi\n      mload(0x40)\n      0x08c379a000000000000000000000000000000000000000000000000000000000\n      dup2\n      mstore\n      0x04\n      add\n      tag_141\n      swap1\n      tag_92\n      jump\t// in\n    tag_141:\n      mload(0x40)\n      dup1\n      swap2\n      sub\n      swap1\n      revert\n    tag_140:\n        /* \"BetPulse.sol\":1785:1905  Bet({... */\n      mload(0x40)\n      dup1\n      0x80\n      add\n      0x40\n      mstore\n      dup1\n        /* \"BetPulse.sol\":1811:1817  amount */\n      dup5\n        /* \"BetPulse.sol\":1785:1905  Bet({... */\n      dup2\n      mstore\n      0x20\n      add\n        /* \"BetPulse.sol\":1837:1841  odds */\n      dup4\n        /* \"BetPulse.sol\":1785:1905  Bet({... */\n      dup2\n      mstore\n      0x20\n      add\n        /* \"BetPulse.sol\":1865:1870  false */\n      0x00\n        /* \"BetPulse.sol\":1785:1905  Bet({... */\n      iszero\n      iszero\n      dup2\n      mstore\n      0x20\n      add\n        /* \"BetPulse.sol\":1889:1894  false */\n      0x00\n        /* \"BetPulse.sol\":1785:1905  Bet({... */\n      iszero\n      iszero\n      dup2\n      mstore\n      pop\n        /* \"BetPulse.sol\":1757:1761  bets */\n      0x02\n        /* \"BetPulse.sol\":1757:1770  bets[eventId] */\n      0x00\n        /* \"BetPulse.sol\":1762:1769  eventId */\n      dup7\n        /* \"BetPulse.sol\":1757:1770  bets[eventId] */\n      dup2\n      mstore\n      0x20\n      add\n      swap1\n      dup2\n      mstore\n      0x20\n      add\n      0x00\n      keccak256\n        /* \"BetPulse.sol\":1757:1782  bets[eventId][msg.sender] */\n      0x00\n        /* \"BetPulse.sol\":1771:1781  msg.sender */\n      caller\n        /* \"BetPulse.sol\":1757:1782  bets[eventId][msg.sender] */\n      0xffffffffffffffffffffffffffffffffffffffff\n      and\n      0xffffffffffffffffffffffffffffffffffffffff\n      and\n      dup2\n      mstore\n      0x20\n      add\n      swap1\n      dup2\n      mstore\n      0x20\n      add\n      0x00\n      keccak256\n        /* \"BetPulse.sol\":1757:1905  bets[eventId][msg.sender] = Bet({... */\n      0x00\n      dup3\n      add\n      mload\n      dup2\n      0x00\n      add\n      sstore\n      0x20\n      dup3\n      add\n      mload\n      dup2\n      0x01\n      add\n      sstore\n      0x40\n      dup3\n      add\n      mload\n      dup2\n      0x02\n      add\n      exp(0x0100, 0x00)\n      dup2\n      sload\n      dup2\n      0xff\n      mul\n      not\n      and\n      swap1\n      dup4\n      iszero\n      iszero\n      mul\n      or\n      swap1\n      sstore\n      pop\n      0x60\n      dup3\n      add\n      mload\n      dup2\n      0x02\n      add\n      exp(0x0100, 0x01)\n      dup2\n      sload\n      dup2\n      0xff\n      mul\n      not\n      and\n      swap1\n      dup4\n      iszero\n      iszero\n      mul\n      or\n      swap1\n      sstore\n      pop\n      swap1\n      pop\n      pop\n        /* \"BetPulse.sol\":1943:1950  eventId */\n      dup4\n        /* \"BetPulse.sol\":1931:1941  msg.sender */\n      caller\n        /* \"BetPulse.sol\":1921:1965  BetPlaced(msg.sender, eventId, amount, odds) */\n      0xffffffffffffffffffffffffffffffffffffffff\n      and\n      0x7363e6581df4db69463222156be4a09656528b9f1302890fa4c0b60819b69fc6\n        /* \"BetPulse.sol\":1952:1958  amount */\n      dup6\n        /* \"BetPulse.sol\":1960:1964  odds */\n      dup6\n        /* \"BetPulse.sol\":1921:1965  BetPlaced(msg.sender, eventId, amount, odds) */\n      mload(0x40)\n      tag_142\n      swap3\n      swap2\n      swap1\n      tag_143\n      jump\t// in\n    tag_142:\n      mload(0x40)\n      dup1\n      swap2\n      sub\n      swap1\n      log3\n        /* \"BetPulse.sol\":1355:1972  {... */\n      pop\n        /* \"@openzeppelin/contracts/security/ReentrancyGuard.sol\":2303:2323  _nonReentrantAfter() */\n      tag_144\n        /* \"@openzeppelin/contracts/security/ReentrancyGuard.sol\":2303:2321  _nonReentrantAfter */\n      tag_96\n        /* \"@openzeppelin/contracts/security/ReentrancyGuard.sol\":2303:2323  _nonReentrantAfter() */\n      jump\t// in\n    tag_144:\n        /* \"BetPulse.sol\":1268:1972  function placeBet(uint256 eventId, uint256 amount, uint256 odds) external nonReentrant {... */\n      pop\n      pop\n      pop\n      jump\t// out\n        /* \"@openzeppelin/contracts/access/Ownable.sol\":2543:2758  function transferOwnership(address newOwner) public virtual onlyOwner {... */\n    tag_54:\n        /* \"@openzeppelin/contracts/access/Ownable.sol\":1531:1544  _checkOwner() */\n      tag_146\n        /* \"@openzeppelin/contracts/access/Ownable.sol\":1531:1542  _checkOwner */\n      tag_99\n        /* \"@openzeppelin/contracts/access/Ownable.sol\":1531:1544  _checkOwner() */\n      jump\t// in\n    tag_146:\n        /* \"@openzeppelin/contracts/access/Ownable.sol\":2647:2648  0 */\n      0x00\n        /* \"@openzeppelin/contracts/access/Ownable.sol\":2627:2649  newOwner == address(0) */\n      0xffffffffffffffffffffffffffffffffffffffff\n      and\n        /* \"@openzeppelin/contracts/access/Ownable.sol\":2627:2635  newOwner */\n      dup2\n        /* \"@openzeppelin/contracts/access/Ownable.sol\":2627:2649  newOwner == address(0) */\n      0xffffffffffffffffffffffffffffffffffffffff\n      and\n      sub\n        /* \"@openzeppelin/contracts/access/Ownable.sol\":2623:2714  if (newOwner == address(0)) {... */\n      tag_148\n      jumpi\n        /* \"@openzeppelin/contracts/access/Ownable.sol\":2700:2701  0 */\n      0x00\n        /* \"@openzeppelin/contracts/access/Ownable.sol\":2672:2703  OwnableInvalidOwner(address(0)) */\n      mload(0x40)\n      0x1e4fbdf700000000000000000000000000000000000000000000000000000000\n      dup2\n      mstore\n      0x04\n      add\n      tag_149\n      swap2\n      swap1\n      tag_33\n      jump\t// in\n    tag_149:\n      mload(0x40)\n      dup1\n      swap2\n      sub\n      swap1\n      revert\n        /* \"@openzeppelin/contracts/access/Ownable.sol\":2623:2714  if (newOwner == address(0)) {... */\n    tag_148:\n        /* \"@openzeppelin/contracts/access/Ownable.sol\":2723:2751  _transferOwnership(newOwner) */\n      tag_150\n        /* \"@openzeppelin/contracts/access/Ownable.sol\":2742:2750  newOwner */\n      dup2\n        /* \"@openzeppelin/contracts/access/Ownable.sol\":2723:2741  _transferOwnership */\n      tag_102\n        /* \"@openzeppelin/contracts/access/Ownable.sol\":2723:2751  _transferOwnership(newOwner) */\n      jump\t// in\n    tag_150:\n        /* \"@openzeppelin/contracts/access/Ownable.sol\":2543:2758  function transferOwnership(address newOwner) public virtual onlyOwner {... */\n      pop\n      jump\t// out\n        /* \"BetPulse.sol\":528:583  mapping(uint256 => mapping(address => Bet)) public bets */\n    tag_57:\n      mstore(0x20, 0x02)\n      dup2\n      0x00\n      mstore\n      mstore(0x20, keccak256(0x00, 0x40))\n      dup1\n      0x00\n      mstore\n      keccak256(0x00, 0x40)\n      0x00\n      swap2\n      pop\n      swap2\n      pop\n      pop\n      dup1\n      0x00\n      add\n      sload\n      swap1\n      dup1\n      0x01\n      add\n      sload\n      swap1\n      dup1\n      0x02\n      add\n      0x00\n      swap1\n      sload\n      swap1\n      0x0100\n      exp\n      swap1\n      div\n      0xff\n      and\n      swap1\n      dup1\n      0x02\n      add\n      0x01\n      swap1\n      sload\n      swap1\n      0x0100\n      exp\n      swap1\n      div\n      0xff\n      and\n      swap1\n      pop\n      dup5\n      jump\t// out\n        /* \"@openzeppelin/contracts/security/ReentrancyGuard.sol\":2336:2623  function _nonReentrantBefore() private {... */\n    tag_62:\n        /* \"@openzeppelin/contracts/security/ReentrancyGuard.sol\":1759:1760  2 */\n      0x02\n        /* \"@openzeppelin/contracts/security/ReentrancyGuard.sol\":2468:2475  _status */\n      sload(0x01)\n        /* \"@openzeppelin/contracts/security/ReentrancyGuard.sol\":2468:2487  _status != _ENTERED */\n      sub\n        /* \"@openzeppelin/contracts/security/ReentrancyGuard.sol\":2460:2523  require(_status != _ENTERED, \"ReentrancyGuard: reentrant call\") */\n      tag_152\n      jumpi\n      mload(0x40)\n      0x08c379a000000000000000000000000000000000000000000000000000000000\n      dup2\n      mstore\n      0x04\n      add\n      tag_153\n      swap1\n      tag_154\n      jump\t// in\n    tag_153:\n      mload(0x40)\n      dup1\n      swap2\n      sub\n      swap1\n      revert\n    tag_152:\n        /* \"@openzeppelin/contracts/security/ReentrancyGuard.sol\":1759:1760  2 */\n      0x02\n        /* \"@openzeppelin/contracts/security/ReentrancyGuard.sol\":2598:2605  _status */\n      0x01\n        /* \"@openzeppelin/contracts/security/ReentrancyGuard.sol\":2598:2616  _status = _ENTERED */\n      dup2\n      swap1\n      sstore\n      pop\n        /* \"@openzeppelin/contracts/security/ReentrancyGuard.sol\":2336:2623  function _nonReentrantBefore() private {... */\n      jump\t// out\n        /* \"@openzeppelin/contracts/security/ReentrancyGuard.sol\":2629:2838  function _nonReentrantAfter() private {... */\n    tag_96:\n        /* \"@openzeppelin/contracts/security/ReentrancyGuard.sol\":1716:1717  1 */\n      0x01\n        /* \"@openzeppelin/contracts/security/ReentrancyGuard.sol\":2809:2816  _status */\n      dup1\n        /* \"@openzeppelin/contracts/security/ReentrancyGuard.sol\":2809:2831  _status = _NOT_ENTERED */\n      dup2\n      swap1\n      sstore\n      pop\n        /* \"@openzeppelin/contracts/security/ReentrancyGuard.sol\":2629:2838  function _nonReentrantAfter() private {... */\n      jump\t// out\n        /* \"@openzeppelin/contracts/access/Ownable.sol\":1796:1958  function _checkOwner() internal view virtual {... */\n    tag_99:\n        /* \"@openzeppelin/contracts/access/Ownable.sol\":1866:1878  _msgSender() */\n      tag_157\n        /* \"@openzeppelin/contracts/access/Ownable.sol\":1866:1876  _msgSender */\n      tag_158\n        /* \"@openzeppelin/contracts/access/Ownable.sol\":1866:1878  _msgSender() */\n      jump\t// in\n    tag_157:\n        /* \"@openzeppelin/contracts/access/Ownable.sol\":1855:1878  owner() != _msgSender() */\n      0xffffffffffffffffffffffffffffffffffffffff\n      and\n        /* \"@openzeppelin/contracts/access/Ownable.sol\":1855:1862  owner() */\n      tag_159\n        /* \"@openzeppelin/contracts/access/Ownable.sol\":1855:1860  owner */\n      tag_31\n        /* \"@openzeppelin/contracts/access/Ownable.sol\":1855:1862  owner() */\n      jump\t// in\n    tag_159:\n        /* \"@openzeppelin/contracts/access/Ownable.sol\":1855:1878  owner() != _msgSender() */\n      0xffffffffffffffffffffffffffffffffffffffff\n      and\n      eq\n        /* \"@openzeppelin/contracts/access/Ownable.sol\":1851:1952  if (owner() != _msgSender()) {... */\n      tag_160\n      jumpi\n        /* \"@openzeppelin/contracts/access/Ownable.sol\":1928:1940  _msgSender() */\n      tag_161\n        /* \"@openzeppelin/contracts/access/Ownable.sol\":1928:1938  _msgSender */\n      tag_158\n        /* \"@openzeppelin/contracts/access/Ownable.sol\":1928:1940  _msgSender() */\n      jump\t// in\n    tag_161:\n        /* \"@openzeppelin/contracts/access/Ownable.sol\":1901:1941  OwnableUnauthorizedAccount(_msgSender()) */\n      mload(0x40)\n      0x118cdaa700000000000000000000000000000000000000000000000000000000\n      dup2\n      mstore\n      0x04\n      add\n      tag_162\n      swap2\n      swap1\n      tag_33\n      jump\t// in\n    tag_162:\n      mload(0x40)\n      dup1\n      swap2\n      sub\n      swap1\n      revert\n        /* \"@openzeppelin/contracts/access/Ownable.sol\":1851:1952  if (owner() != _msgSender()) {... */\n    tag_160:\n        /* \"@openzeppelin/contracts/access/Ownable.sol\":1796:1958  function _checkOwner() internal view virtual {... */\n      jump\t// out\n        /* \"@openzeppelin/contracts/access/Ownable.sol\":2912:3099  function _transferOwnership(address newOwner) internal virtual {... */\n    tag_102:\n        /* \"@openzeppelin/contracts/access/Ownable.sol\":2985:3001  address oldOwner */\n      0x00\n        /* \"@openzeppelin/contracts/access/Ownable.sol\":3004:3010  _owner */\n      dup1\n      0x00\n      swap1\n      sload\n      swap1\n      0x0100\n      exp\n      swap1\n      div\n      0xffffffffffffffffffffffffffffffffffffffff\n      and\n        /* \"@openzeppelin/contracts/access/Ownable.sol\":2985:3010  address oldOwner = _owner */\n      swap1\n      pop\n        /* \"@openzeppelin/contracts/access/Ownable.sol\":3029:3037  newOwner */\n      dup2\n        /* \"@openzeppelin/contracts/access/Ownable.sol\":3020:3026  _owner */\n      0x00\n      dup1\n        /* \"@openzeppelin/contracts/access/Ownable.sol\":3020:3037  _owner = newOwner */\n      0x0100\n      exp\n      dup2\n      sload\n      dup2\n      0xffffffffffffffffffffffffffffffffffffffff\n      mul\n      not\n      and\n      swap1\n      dup4\n      0xffffffffffffffffffffffffffffffffffffffff\n      and\n      mul\n      or\n      swap1\n      sstore\n      pop\n        /* \"@openzeppelin/contracts/access/Ownable.sol\":3083:3091  newOwner */\n      dup2\n        /* \"@openzeppelin/contracts/access/Ownable.sol\":3052:3092  OwnershipTransferred(oldOwner, newOwner) */\n      0xffffffffffffffffffffffffffffffffffffffff\n      and\n        /* \"@openzeppelin/contracts/access/Ownable.sol\":3073:3081  oldOwner */\n      dup2\n        /* \"@openzeppelin/contracts/access/Ownable.sol\":3052:3092  OwnershipTransferred(oldOwner, newOwner) */\n      0xffffffffffffffffffffffffffffffffffffffff\n      and\n      0x8be0079c531659141344cd1fd0a4f28419497f9722a3daafe3b4186f6b6457e0\n      mload(0x40)\n      mload(0x40)\n      dup1\n      swap2\n      sub\n      swap1\n      log3\n        /* \"@openzeppelin/contracts/access/Ownable.sol\":2975:3099  {... */\n      pop\n        /* \"@openzeppelin/contracts/access/Ownable.sol\":2912:3099  function _transferOwnership(address newOwner) internal virtual {... */\n      pop\n      jump\t// out\n        /* \"@openzeppelin/contracts/utils/Context.sol\":656:752  function _msgSender() internal view virtual returns (address) {... */\n    tag_158:\n        /* \"@openzeppelin/contracts/utils/Context.sol\":709:716  address */\n      0x00\n        /* \"@openzeppelin/contracts/utils/Context.sol\":735:745  msg.sender */\n      caller\n        /* \"@openzeppelin/contracts/utils/Context.sol\":728:745  return msg.sender */\n      swap1\n      pop\n        /* \"@openzeppelin/contracts/utils/Context.sol\":656:752  function _msgSender() internal view virtual returns (address) {... */\n      swap1\n      jump\t// out\n        /* \"#utility.yul\":88:205   */\n    tag_166:\n        /* \"#utility.yul\":197:198   */\n      0x00\n        /* \"#utility.yul\":194:195   */\n      dup1\n        /* \"#utility.yul\":187:199   */\n      revert\n        /* \"#utility.yul\":334:411   */\n    tag_168:\n        /* \"#utility.yul\":371:378   */\n      0x00\n        /* \"#utility.yul\":400:405   */\n      dup2\n        /* \"#utility.yul\":389:405   */\n      swap1\n      pop\n        /* \"#utility.yul\":334:411   */\n      swap2\n      swap1\n      pop\n      jump\t// out\n        /* \"#utility.yul\":417:539   */\n    tag_169:\n        /* \"#utility.yul\":490:514   */\n      tag_224\n        /* \"#utility.yul\":508:513   */\n      dup2\n        /* \"#utility.yul\":490:514   */\n      tag_168\n      jump\t// in\n    tag_224:\n        /* \"#utility.yul\":483:488   */\n      dup2\n        /* \"#utility.yul\":480:515   */\n      eq\n        /* \"#utility.yul\":470:533   */\n      tag_225\n      jumpi\n        /* \"#utility.yul\":529:530   */\n      0x00\n        /* \"#utility.yul\":526:527   */\n      dup1\n        /* \"#utility.yul\":519:531   */\n      revert\n        /* \"#utility.yul\":470:533   */\n    tag_225:\n        /* \"#utility.yul\":417:539   */\n      pop\n      jump\t// out\n        /* \"#utility.yul\":545:684   */\n    tag_170:\n        /* \"#utility.yul\":591:596   */\n      0x00\n        /* \"#utility.yul\":629:635   */\n      dup2\n        /* \"#utility.yul\":616:636   */\n      calldataload\n        /* \"#utility.yul\":607:636   */\n      swap1\n      pop\n        /* \"#utility.yul\":645:678   */\n      tag_227\n        /* \"#utility.yul\":672:677   */\n      dup2\n        /* \"#utility.yul\":645:678   */\n      tag_169\n      jump\t// in\n    tag_227:\n        /* \"#utility.yul\":545:684   */\n      swap3\n      swap2\n      pop\n      pop\n      jump\t// out\n        /* \"#utility.yul\":690:1019   */\n    tag_17:\n        /* \"#utility.yul\":749:755   */\n      0x00\n        /* \"#utility.yul\":798:800   */\n      0x20\n        /* \"#utility.yul\":786:795   */\n      dup3\n        /* \"#utility.yul\":777:784   */\n      dup5\n        /* \"#utility.yul\":773:796   */\n      sub\n        /* \"#utility.yul\":769:801   */\n      slt\n        /* \"#utility.yul\":766:885   */\n      iszero\n      tag_229\n      jumpi\n        /* \"#utility.yul\":804:883   */\n      tag_230\n      tag_166\n      jump\t// in\n    tag_230:\n        /* \"#utility.yul\":766:885   */\n    tag_229:\n        /* \"#utility.yul\":924:925   */\n      0x00\n        /* \"#utility.yul\":949:1002   */\n      tag_231\n        /* \"#utility.yul\":994:1001   */\n      dup5\n        /* \"#utility.yul\":985:991   */\n      dup3\n        /* \"#utility.yul\":974:983   */\n      dup6\n        /* \"#utility.yul\":970:992   */\n      add\n        /* \"#utility.yul\":949:1002   */\n      tag_170\n      jump\t// in\n    tag_231:\n        /* \"#utility.yul\":939:1002   */\n      swap2\n      pop\n        /* \"#utility.yul\":895:1012   */\n      pop\n        /* \"#utility.yul\":690:1019   */\n      swap3\n      swap2\n      pop\n      pop\n      jump\t// out\n        /* \"#utility.yul\":1025:1151   */\n    tag_171:\n        /* \"#utility.yul\":1062:1069   */\n      0x00\n        /* \"#utility.yul\":1102:1144   */\n      0xffffffffffffffffffffffffffffffffffffffff\n        /* \"#utility.yul\":1095:1100   */\n      dup3\n        /* \"#utility.yul\":1091:1145   */\n      and\n        /* \"#utility.yul\":1080:1145   */\n      swap1\n      pop\n        /* \"#utility.yul\":1025:1151   */\n      swap2\n      swap1\n      pop\n      jump\t// out\n        /* \"#utility.yul\":1157:1217   */\n    tag_172:\n        /* \"#utility.yul\":1185:1188   */\n      0x00\n        /* \"#utility.yul\":1206:1211   */\n      dup2\n        /* \"#utility.yul\":1199:1211   */\n      swap1\n      pop\n        /* \"#utility.yul\":1157:1217   */\n      swap2\n      swap1\n      pop\n      jump\t// out\n        /* \"#utility.yul\":1223:1365   */\n    tag_173:\n        /* \"#utility.yul\":1273:1282   */\n      0x00\n        /* \"#utility.yul\":1306:1359   */\n      tag_235\n        /* \"#utility.yul\":1324:1358   */\n      tag_236\n        /* \"#utility.yul\":1333:1357   */\n      tag_237\n        /* \"#utility.yul\":1351:1356   */\n      dup5\n        /* \"#utility.yul\":1333:1357   */\n      tag_171\n      jump\t// in\n    tag_237:\n        /* \"#utility.yul\":1324:1358   */\n      tag_172\n      jump\t// in\n    tag_236:\n        /* \"#utility.yul\":1306:1359   */\n      tag_171\n      jump\t// in\n    tag_235:\n        /* \"#utility.yul\":1293:1359   */\n      swap1\n      pop\n        /* \"#utility.yul\":1223:1365   */\n      swap2\n      swap1\n      pop\n      jump\t// out\n        /* \"#utility.yul\":1371:1497   */\n    tag_174:\n        /* \"#utility.yul\":1421:1430   */\n      0x00\n        /* \"#utility.yul\":1454:1491   */\n      tag_239\n        /* \"#utility.yul\":1485:1490   */\n      dup3\n        /* \"#utility.yul\":1454:1491   */\n      tag_173\n      jump\t// in\n    tag_239:\n        /* \"#utility.yul\":1441:1491   */\n      swap1\n      pop\n        /* \"#utility.yul\":1371:1497   */\n      swap2\n      swap1\n      pop\n      jump\t// out\n        /* \"#utility.yul\":1503:1643   */\n    tag_175:\n        /* \"#utility.yul\":1567:1576   */\n      0x00\n        /* \"#utility.yul\":1600:1637   */\n      tag_241\n        /* \"#utility.yul\":1631:1636   */\n      dup3\n        /* \"#utility.yul\":1600:1637   */\n      tag_174\n      jump\t// in\n    tag_241:\n        /* \"#utility.yul\":1587:1637   */\n      swap1\n      pop\n        /* \"#utility.yul\":1503:1643   */\n      swap2\n      swap1\n      pop\n      jump\t// out\n        /* \"#utility.yul\":1649:1808   */\n    tag_176:\n        /* \"#utility.yul\":1750:1801   */\n      tag_243\n        /* \"#utility.yul\":1795:1800   */\n      dup2\n        /* \"#utility.yul\":1750:1801   */\n      tag_175\n      jump\t// in\n    tag_243:\n        /* \"#utility.yul\":1745:1748   */\n      dup3\n        /* \"#utility.yul\":1738:1802   */\n      mstore\n        /* \"#utility.yul\":1649:1808   */\n      pop\n      pop\n      jump\t// out\n        /* \"#utility.yul\":1814:2064   */\n    tag_22:\n        /* \"#utility.yul\":1921:1925   */\n      0x00\n        /* \"#utility.yul\":1959:1961   */\n      0x20\n        /* \"#utility.yul\":1948:1957   */\n      dup3\n        /* \"#utility.yul\":1944:1962   */\n      add\n        /* \"#utility.yul\":1936:1962   */\n      swap1\n      pop\n        /* \"#utility.yul\":1972:2057   */\n      tag_245\n        /* \"#utility.yul\":2054:2055   */\n      0x00\n        /* \"#utility.yul\":2043:2052   */\n      dup4\n        /* \"#utility.yul\":2039:2056   */\n      add\n        /* \"#utility.yul\":2030:2036   */\n      dup5\n        /* \"#utility.yul\":1972:2057   */\n      tag_176\n      jump\t// in\n    tag_245:\n        /* \"#utility.yul\":1814:2064   */\n      swap3\n      swap2\n      pop\n      pop\n      jump\t// out\n        /* \"#utility.yul\":2070:2160   */\n    tag_177:\n        /* \"#utility.yul\":2104:2111   */\n      0x00\n        /* \"#utility.yul\":2147:2152   */\n      dup2\n        /* \"#utility.yul\":2140:2153   */\n      iszero\n        /* \"#utility.yul\":2133:2154   */\n      iszero\n        /* \"#utility.yul\":2122:2154   */\n      swap1\n      pop\n        /* \"#utility.yul\":2070:2160   */\n      swap2\n      swap1\n      pop\n      jump\t// out\n        /* \"#utility.yul\":2166:2275   */\n    tag_178:\n        /* \"#utility.yul\":2247:2268   */\n      tag_248\n        /* \"#utility.yul\":2262:2267   */\n      dup2\n        /* \"#utility.yul\":2247:2268   */\n      tag_177\n      jump\t// in\n    tag_248:\n        /* \"#utility.yul\":2242:2245   */\n      dup3\n        /* \"#utility.yul\":2235:2269   */\n      mstore\n        /* \"#utility.yul\":2166:2275   */\n      pop\n      pop\n      jump\t// out\n        /* \"#utility.yul\":2281:2491   */\n    tag_29:\n        /* \"#utility.yul\":2368:2372   */\n      0x00\n        /* \"#utility.yul\":2406:2408   */\n      0x20\n        /* \"#utility.yul\":2395:2404   */\n      dup3\n        /* \"#utility.yul\":2391:2409   */\n      add\n        /* \"#utility.yul\":2383:2409   */\n      swap1\n      pop\n        /* \"#utility.yul\":2419:2484   */\n      tag_250\n        /* \"#utility.yul\":2481:2482   */\n      0x00\n        /* \"#utility.yul\":2470:2479   */\n      dup4\n        /* \"#utility.yul\":2466:2483   */\n      add\n        /* \"#utility.yul\":2457:2463   */\n      dup5\n        /* \"#utility.yul\":2419:2484   */\n      tag_178\n      jump\t// in\n    tag_250:\n        /* \"#utility.yul\":2281:2491   */\n      swap3\n      swap2\n      pop\n      pop\n      jump\t// out\n        /* \"#utility.yul\":2497:2593   */\n    tag_179:\n        /* \"#utility.yul\":2534:2541   */\n      0x00\n        /* \"#utility.yul\":2563:2587   */\n      tag_252\n        /* \"#utility.yul\":2581:2586   */\n      dup3\n        /* \"#utility.yul\":2563:2587   */\n      tag_171\n      jump\t// in\n    tag_252:\n        /* \"#utility.yul\":2552:2587   */\n      swap1\n      pop\n        /* \"#utility.yul\":2497:2593   */\n      swap2\n      swap1\n      pop\n      jump\t// out\n        /* \"#utility.yul\":2599:2717   */\n    tag_180:\n        /* \"#utility.yul\":2686:2710   */\n      tag_254\n        /* \"#utility.yul\":2704:2709   */\n      dup2\n        /* \"#utility.yul\":2686:2710   */\n      tag_179\n      jump\t// in\n    tag_254:\n        /* \"#utility.yul\":2681:2684   */\n      dup3\n        /* \"#utility.yul\":2674:2711   */\n      mstore\n        /* \"#utility.yul\":2599:2717   */\n      pop\n      pop\n      jump\t// out\n        /* \"#utility.yul\":2723:2945   */\n    tag_33:\n        /* \"#utility.yul\":2816:2820   */\n      0x00\n        /* \"#utility.yul\":2854:2856   */\n      0x20\n        /* \"#utility.yul\":2843:2852   */\n      dup3\n        /* \"#utility.yul\":2839:2857   */\n      add\n        /* \"#utility.yul\":2831:2857   */\n      swap1\n      pop\n        /* \"#utility.yul\":2867:2938   */\n      tag_256\n        /* \"#utility.yul\":2935:2936   */\n      0x00\n        /* \"#utility.yul\":2924:2933   */\n      dup4\n        /* \"#utility.yul\":2920:2937   */\n      add\n        /* \"#utility.yul\":2911:2917   */\n      dup5\n        /* \"#utility.yul\":2867:2938   */\n      tag_180\n      jump\t// in\n    tag_256:\n        /* \"#utility.yul\":2723:2945   */\n      swap3\n      swap2\n      pop\n      pop\n      jump\t// out\n        /* \"#utility.yul\":2951:3067   */\n    tag_181:\n        /* \"#utility.yul\":3021:3042   */\n      tag_258\n        /* \"#utility.yul\":3036:3041   */\n      dup2\n        /* \"#utility.yul\":3021:3042   */\n      tag_177\n      jump\t// in\n    tag_258:\n        /* \"#utility.yul\":3014:3019   */\n      dup2\n        /* \"#utility.yul\":3011:3043   */\n      eq\n        /* \"#utility.yul\":3001:3061   */\n      tag_259\n      jumpi\n        /* \"#utility.yul\":3057:3058   */\n      0x00\n        /* \"#utility.yul\":3054:3055   */\n      dup1\n        /* \"#utility.yul\":3047:3059   */\n      revert\n        /* \"#utility.yul\":3001:3061   */\n    tag_259:\n        /* \"#utility.yul\":2951:3067   */\n      pop\n      jump\t// out\n        /* \"#utility.yul\":3073:3206   */\n    tag_182:\n        /* \"#utility.yul\":3116:3121   */\n      0x00\n        /* \"#utility.yul\":3154:3160   */\n      dup2\n        /* \"#utility.yul\":3141:3161   */\n      calldataload\n        /* \"#utility.yul\":3132:3161   */\n      swap1\n      pop\n        /* \"#utility.yul\":3170:3200   */\n      tag_261\n        /* \"#utility.yul\":3194:3199   */\n      dup2\n        /* \"#utility.yul\":3170:3200   */\n      tag_181\n      jump\t// in\n    tag_261:\n        /* \"#utility.yul\":3073:3206   */\n      swap3\n      swap2\n      pop\n      pop\n      jump\t// out\n        /* \"#utility.yul\":3212:3680   */\n    tag_36:\n        /* \"#utility.yul\":3277:3283   */\n      0x00\n        /* \"#utility.yul\":3285:3291   */\n      dup1\n        /* \"#utility.yul\":3334:3336   */\n      0x40\n        /* \"#utility.yul\":3322:3331   */\n      dup4\n        /* \"#utility.yul\":3313:3320   */\n      dup6\n        /* \"#utility.yul\":3309:3332   */\n      sub\n        /* \"#utility.yul\":3305:3337   */\n      slt\n        /* \"#utility.yul\":3302:3421   */\n      iszero\n      tag_263\n      jumpi\n        /* \"#utility.yul\":3340:3419   */\n      tag_264\n      tag_166\n      jump\t// in\n    tag_264:\n        /* \"#utility.yul\":3302:3421   */\n    tag_263:\n        /* \"#utility.yul\":3460:3461   */\n      0x00\n        /* \"#utility.yul\":3485:3538   */\n      tag_265\n        /* \"#utility.yul\":3530:3537   */\n      dup6\n        /* \"#utility.yul\":3521:3527   */\n      dup3\n        /* \"#utility.yul\":3510:3519   */\n      dup7\n        /* \"#utility.yul\":3506:3528   */\n      add\n        /* \"#utility.yul\":3485:3538   */\n      tag_170\n      jump\t// in\n    tag_265:\n        /* \"#utility.yul\":3475:3538   */\n      swap3\n      pop\n        /* \"#utility.yul\":3431:3548   */\n      pop\n        /* \"#utility.yul\":3587:3589   */\n      0x20\n        /* \"#utility.yul\":3613:3663   */\n      tag_266\n        /* \"#utility.yul\":3655:3662   */\n      dup6\n        /* \"#utility.yul\":3646:3652   */\n      dup3\n        /* \"#utility.yul\":3635:3644   */\n      dup7\n        /* \"#utility.yul\":3631:3653   */\n      add\n        /* \"#utility.yul\":3613:3663   */\n      tag_182\n      jump\t// in\n    tag_266:\n        /* \"#utility.yul\":3603:3663   */\n      swap2\n      pop\n        /* \"#utility.yul\":3558:3673   */\n      pop\n        /* \"#utility.yul\":3212:3680   */\n      swap3\n      pop\n      swap3\n      swap1\n      pop\n      jump\t// out\n        /* \"#utility.yul\":3686:3808   */\n    tag_183:\n        /* \"#utility.yul\":3759:3783   */\n      tag_268\n        /* \"#utility.yul\":3777:3782   */\n      dup2\n        /* \"#utility.yul\":3759:3783   */\n      tag_179\n      jump\t// in\n    tag_268:\n        /* \"#utility.yul\":3752:3757   */\n      dup2\n        /* \"#utility.yul\":3749:3784   */\n      eq\n        /* \"#utility.yul\":3739:3802   */\n      tag_269\n      jumpi\n        /* \"#utility.yul\":3798:3799   */\n      0x00\n        /* \"#utility.yul\":3795:3796   */\n      dup1\n        /* \"#utility.yul\":3788:3800   */\n      revert\n        /* \"#utility.yul\":3739:3802   */\n    tag_269:\n        /* \"#utility.yul\":3686:3808   */\n      pop\n      jump\t// out\n        /* \"#utility.yul\":3814:3953   */\n    tag_184:\n        /* \"#utility.yul\":3860:3865   */\n      0x00\n        /* \"#utility.yul\":3898:3904   */\n      dup2\n        /* \"#utility.yul\":3885:3905   */\n      calldataload\n        /* \"#utility.yul\":3876:3905   */\n      swap1\n      pop\n        /* \"#utility.yul\":3914:3947   */\n      tag_271\n        /* \"#utility.yul\":3941:3946   */\n      dup2\n        /* \"#utility.yul\":3914:3947   */\n      tag_183\n      jump\t// in\n    tag_271:\n        /* \"#utility.yul\":3814:3953   */\n      swap3\n      swap2\n      pop\n      pop\n      jump\t// out\n        /* \"#utility.yul\":3959:4433   */\n    tag_40:\n        /* \"#utility.yul\":4027:4033   */\n      0x00\n        /* \"#utility.yul\":4035:4041   */\n      dup1\n        /* \"#utility.yul\":4084:4086   */\n      0x40\n        /* \"#utility.yul\":4072:4081   */\n      dup4\n        /* \"#utility.yul\":4063:4070   */\n      dup6\n        /* \"#utility.yul\":4059:4082   */\n      sub\n        /* \"#utility.yul\":4055:4087   */\n      slt\n        /* \"#utility.yul\":4052:4171   */\n      iszero\n      tag_273\n      jumpi\n        /* \"#utility.yul\":4090:4169   */\n      tag_274\n      tag_166\n      jump\t// in\n    tag_274:\n        /* \"#utility.yul\":4052:4171   */\n    tag_273:\n        /* \"#utility.yul\":4210:4211   */\n      0x00\n        /* \"#utility.yul\":4235:4288   */\n      tag_275\n        /* \"#utility.yul\":4280:4287   */\n      dup6\n        /* \"#utility.yul\":4271:4277   */\n      dup3\n        /* \"#utility.yul\":4260:4269   */\n      dup7\n        /* \"#utility.yul\":4256:4278   */\n      add\n        /* \"#utility.yul\":4235:4288   */\n      tag_170\n      jump\t// in\n    tag_275:\n        /* \"#utility.yul\":4225:4288   */\n      swap3\n      pop\n        /* \"#utility.yul\":4181:4298   */\n      pop\n        /* \"#utility.yul\":4337:4339   */\n      0x20\n        /* \"#utility.yul\":4363:4416   */\n      tag_276\n        /* \"#utility.yul\":4408:4415   */\n      dup6\n        /* \"#utility.yul\":4399:4405   */\n      dup3\n        /* \"#utility.yul\":4388:4397   */\n      dup7\n        /* \"#utility.yul\":4384:4406   */\n      add\n        /* \"#utility.yul\":4363:4416   */\n      tag_184\n      jump\t// in\n    tag_276:\n        /* \"#utility.yul\":4353:4416   */\n      swap2\n      pop\n        /* \"#utility.yul\":4308:4426   */\n      pop\n        /* \"#utility.yul\":3959:4433   */\n      swap3\n      pop\n      swap3\n      swap1\n      pop\n      jump\t// out\n        /* \"#utility.yul\":4439:5052   */\n    tag_45:\n        /* \"#utility.yul\":4513:4519   */\n      0x00\n        /* \"#utility.yul\":4521:4527   */\n      dup1\n        /* \"#utility.yul\":4529:4535   */\n      0x00\n        /* \"#utility.yul\":4578:4580   */\n      0x60\n        /* \"#utility.yul\":4566:4575   */\n      dup5\n        /* \"#utility.yul\":4557:4564   */\n      dup7\n        /* \"#utility.yul\":4553:4576   */\n      sub\n        /* \"#utility.yul\":4549:4581   */\n      slt\n        /* \"#utility.yul\":4546:4665   */\n      iszero\n      tag_278\n      jumpi\n        /* \"#utility.yul\":4584:4663   */\n      tag_279\n      tag_166\n      jump\t// in\n    tag_279:\n        /* \"#utility.yul\":4546:4665   */\n    tag_278:\n        /* \"#utility.yul\":4704:4705   */\n      0x00\n        /* \"#utility.yul\":4729:4782   */\n      tag_280\n        /* \"#utility.yul\":4774:4781   */\n      dup7\n        /* \"#utility.yul\":4765:4771   */\n      dup3\n        /* \"#utility.yul\":4754:4763   */\n      dup8\n        /* \"#utility.yul\":4750:4772   */\n      add\n        /* \"#utility.yul\":4729:4782   */\n      tag_184\n      jump\t// in\n    tag_280:\n        /* \"#utility.yul\":4719:4782   */\n      swap4\n      pop\n        /* \"#utility.yul\":4675:4792   */\n      pop\n        /* \"#utility.yul\":4831:4833   */\n      0x20\n        /* \"#utility.yul\":4857:4910   */\n      tag_281\n        /* \"#utility.yul\":4902:4909   */\n      dup7\n        /* \"#utility.yul\":4893:4899   */\n      dup3\n        /* \"#utility.yul\":4882:4891   */\n      dup8\n        /* \"#utility.yul\":4878:4900   */\n      add\n        /* \"#utility.yul\":4857:4910   */\n      tag_170\n      jump\t// in\n    tag_281:\n        /* \"#utility.yul\":4847:4910   */\n      swap3\n      pop\n        /* \"#utility.yul\":4802:4920   */\n      pop\n        /* \"#utility.yul\":4959:4961   */\n      0x40\n        /* \"#utility.yul\":4985:5035   */\n      tag_282\n        /* \"#utility.yul\":5027:5034   */\n      dup7\n        /* \"#utility.yul\":5018:5024   */\n      dup3\n        /* \"#utility.yul\":5007:5016   */\n      dup8\n        /* \"#utility.yul\":5003:5025   */\n      add\n        /* \"#utility.yul\":4985:5035   */\n      tag_182\n      jump\t// in\n    tag_282:\n        /* \"#utility.yul\":4975:5035   */\n      swap2\n      pop\n        /* \"#utility.yul\":4930:5045   */\n      pop\n        /* \"#utility.yul\":4439:5052   */\n      swap3\n      pop\n      swap3\n      pop\n      swap3\n      jump\t// out\n        /* \"#utility.yul\":5058:5677   */\n    tag_49:\n        /* \"#utility.yul\":5135:5141   */\n      0x00\n        /* \"#utility.yul\":5143:5149   */\n      dup1\n        /* \"#utility.yul\":5151:5157   */\n      0x00\n        /* \"#utility.yul\":5200:5202   */\n      0x60\n        /* \"#utility.yul\":5188:5197   */\n      dup5\n        /* \"#utility.yul\":5179:5186   */\n      dup7\n        /* \"#utility.yul\":5175:5198   */\n      sub\n        /* \"#utility.yul\":5171:5203   */\n      slt\n        /* \"#utility.yul\":5168:5287   */\n      iszero\n      tag_284\n      jumpi\n        /* \"#utility.yul\":5206:5285   */\n      tag_285\n      tag_166\n      jump\t// in\n    tag_285:\n        /* \"#utility.yul\":5168:5287   */\n    tag_284:\n        /* \"#utility.yul\":5326:5327   */\n      0x00\n        /* \"#utility.yul\":5351:5404   */\n      tag_286\n        /* \"#utility.yul\":5396:5403   */\n      dup7\n        /* \"#utility.yul\":5387:5393   */\n      dup3\n        /* \"#utility.yul\":5376:5385   */\n      dup8\n        /* \"#utility.yul\":5372:5394   */\n      add\n        /* \"#utility.yul\":5351:5404   */\n      tag_170\n      jump\t// in\n    tag_286:\n        /* \"#utility.yul\":5341:5404   */\n      swap4\n      pop\n        /* \"#utility.yul\":5297:5414   */\n      pop\n        /* \"#utility.yul\":5453:5455   */\n      0x20\n        /* \"#utility.yul\":5479:5532   */\n      tag_287\n        /* \"#utility.yul\":5524:5531   */\n      dup7\n        /* \"#utility.yul\":5515:5521   */\n      dup3\n        /* \"#utility.yul\":5504:5513   */\n      dup8\n        /* \"#utility.yul\":5500:5522   */\n      add\n        /* \"#utility.yul\":5479:5532   */\n      tag_170\n      jump\t// in\n    tag_287:\n        /* \"#utility.yul\":5469:5532   */\n      swap3\n      pop\n        /* \"#utility.yul\":5424:5542   */\n      pop\n        /* \"#utility.yul\":5581:5583   */\n      0x40\n        /* \"#utility.yul\":5607:5660   */\n      tag_288\n        /* \"#utility.yul\":5652:5659   */\n      dup7\n        /* \"#utility.yul\":5643:5649   */\n      dup3\n        /* \"#utility.yul\":5632:5641   */\n      dup8\n        /* \"#utility.yul\":5628:5650   */\n      add\n        /* \"#utility.yul\":5607:5660   */\n      tag_170\n      jump\t// in\n    tag_288:\n        /* \"#utility.yul\":5597:5660   */\n      swap2\n      pop\n        /* \"#utility.yul\":5552:5670   */\n      pop\n        /* \"#utility.yul\":5058:5677   */\n      swap3\n      pop\n      swap3\n      pop\n      swap3\n      jump\t// out\n        /* \"#utility.yul\":5683:6012   */\n    tag_53:\n        /* \"#utility.yul\":5742:5748   */\n      0x00\n        /* \"#utility.yul\":5791:5793   */\n      0x20\n        /* \"#utility.yul\":5779:5788   */\n      dup3\n        /* \"#utility.yul\":5770:5777   */\n      dup5\n        /* \"#utility.yul\":5766:5789   */\n      sub\n        /* \"#utility.yul\":5762:5794   */\n      slt\n        /* \"#utility.yul\":5759:5878   */\n      iszero\n      tag_290\n      jumpi\n        /* \"#utility.yul\":5797:5876   */\n      tag_291\n      tag_166\n      jump\t// in\n    tag_291:\n        /* \"#utility.yul\":5759:5878   */\n    tag_290:\n        /* \"#utility.yul\":5917:5918   */\n      0x00\n        /* \"#utility.yul\":5942:5995   */\n      tag_292\n        /* \"#utility.yul\":5987:5994   */\n      dup5\n        /* \"#utility.yul\":5978:5984   */\n      dup3\n        /* \"#utility.yul\":5967:5976   */\n      dup6\n        /* \"#utility.yul\":5963:5985   */\n      add\n        /* \"#utility.yul\":5942:5995   */\n      tag_184\n      jump\t// in\n    tag_292:\n        /* \"#utility.yul\":5932:5995   */\n      swap2\n      pop\n        /* \"#utility.yul\":5888:6005   */\n      pop\n        /* \"#utility.yul\":5683:6012   */\n      swap3\n      swap2\n      pop\n      pop\n      jump\t// out\n        /* \"#utility.yul\":6018:6136   */\n    tag_185:\n        /* \"#utility.yul\":6105:6129   */\n      tag_294\n        /* \"#utility.yul\":6123:6128   */\n      dup2\n        /* \"#utility.yul\":6105:6129   */\n      tag_168\n      jump\t// in\n    tag_294:\n        /* \"#utility.yul\":6100:6103   */\n      dup3\n        /* \"#utility.yul\":6093:6130   */\n      mstore\n        /* \"#utility.yul\":6018:6136   */\n      pop\n      pop\n      jump\t// out\n        /* \"#utility.yul\":6142:6671   */\n    tag_59:\n        /* \"#utility.yul\":6307:6311   */\n      0x00\n        /* \"#utility.yul\":6345:6348   */\n      0x80\n        /* \"#utility.yul\":6334:6343   */\n      dup3\n        /* \"#utility.yul\":6330:6349   */\n      add\n        /* \"#utility.yul\":6322:6349   */\n      swap1\n      pop\n        /* \"#utility.yul\":6359:6430   */\n      tag_296\n        /* \"#utility.yul\":6427:6428   */\n      0x00\n        /* \"#utility.yul\":6416:6425   */\n      dup4\n        /* \"#utility.yul\":6412:6429   */\n      add\n        /* \"#utility.yul\":6403:6409   */\n      dup8\n        /* \"#utility.yul\":6359:6430   */\n      tag_185\n      jump\t// in\n    tag_296:\n        /* \"#utility.yul\":6440:6512   */\n      tag_297\n        /* \"#utility.yul\":6508:6510   */\n      0x20\n        /* \"#utility.yul\":6497:6506   */\n      dup4\n        /* \"#utility.yul\":6493:6511   */\n      add\n        /* \"#utility.yul\":6484:6490   */\n      dup7\n        /* \"#utility.yul\":6440:6512   */\n      tag_185\n      jump\t// in\n    tag_297:\n        /* \"#utility.yul\":6522:6588   */\n      tag_298\n        /* \"#utility.yul\":6584:6586   */\n      0x40\n        /* \"#utility.yul\":6573:6582   */\n      dup4\n        /* \"#utility.yul\":6569:6587   */\n      add\n        /* \"#utility.yul\":6560:6566   */\n      dup6\n        /* \"#utility.yul\":6522:6588   */\n      tag_178\n      jump\t// in\n    tag_298:\n        /* \"#utility.yul\":6598:6664   */\n      tag_299\n        /* \"#utility.yul\":6660:6662   */\n      0x60\n        /* \"#utility.yul\":6649:6658   */\n      dup4\n        /* \"#utility.yul\":6645:6663   */\n      add\n        /* \"#utility.yul\":6636:6642   */\n      dup5\n        /* \"#utility.yul\":6598:6664   */\n      tag_178\n      jump\t// in\n    tag_299:\n        /* \"#utility.yul\":6142:6671   */\n      swap6\n      swap5\n      pop\n      pop\n      pop\n      pop\n      pop\n      jump\t// out\n        /* \"#utility.yul\":6677:6846   */\n    tag_186:\n        /* \"#utility.yul\":6761:6772   */\n      0x00\n        /* \"#utility.yul\":6795:6801   */\n      dup3\n        /* \"#utility.yul\":6790:6793   */\n      dup3\n        /* \"#utility.yul\":6783:6802   */\n      mstore\n        /* \"#utility.yul\":6835:6839   */\n      0x20\n        /* \"#utility.yul\":6830:6833   */\n      dup3\n        /* \"#utility.yul\":6826:6840   */\n      add\n        /* \"#utility.yul\":6811:6840   */\n      swap1\n      pop\n        /* \"#utility.yul\":6677:6846   */\n      swap3\n      swap2\n      pop\n      pop\n      jump\t// out\n        /* \"#utility.yul\":6852:7016   */\n    tag_187:\n        /* \"#utility.yul\":6992:7008   */\n      0x4e656e68756d612061706f737461000000000000000000000000000000000000\n        /* \"#utility.yul\":6988:6989   */\n      0x00\n        /* \"#utility.yul\":6980:6986   */\n      dup3\n        /* \"#utility.yul\":6976:6990   */\n      add\n        /* \"#utility.yul\":6969:7009   */\n      mstore\n        /* \"#utility.yul\":6852:7016   */\n      pop\n      jump\t// out\n        /* \"#utility.yul\":7022:7388   */\n    tag_188:\n        /* \"#utility.yul\":7164:7167   */\n      0x00\n        /* \"#utility.yul\":7185:7252   */\n      tag_303\n        /* \"#utility.yul\":7249:7251   */\n      0x0e\n        /* \"#utility.yul\":7244:7247   */\n      dup4\n        /* \"#utility.yul\":7185:7252   */\n      tag_186\n      jump\t// in\n    tag_303:\n        /* \"#utility.yul\":7178:7252   */\n      swap2\n      pop\n        /* \"#utility.yul\":7261:7354   */\n      tag_304\n        /* \"#utility.yul\":7350:7353   */\n      dup3\n        /* \"#utility.yul\":7261:7354   */\n      tag_187\n      jump\t// in\n    tag_304:\n        /* \"#utility.yul\":7379:7381   */\n      0x20\n        /* \"#utility.yul\":7374:7377   */\n      dup3\n        /* \"#utility.yul\":7370:7382   */\n      add\n        /* \"#utility.yul\":7363:7382   */\n      swap1\n      pop\n        /* \"#utility.yul\":7022:7388   */\n      swap2\n      swap1\n      pop\n      jump\t// out\n        /* \"#utility.yul\":7394:7813   */\n    tag_66:\n        /* \"#utility.yul\":7560:7564   */\n      0x00\n        /* \"#utility.yul\":7598:7600   */\n      0x20\n        /* \"#utility.yul\":7587:7596   */\n      dup3\n        /* \"#utility.yul\":7583:7601   */\n      add\n        /* \"#utility.yul\":7575:7601   */\n      swap1\n      pop\n        /* \"#utility.yul\":7647:7656   */\n      dup2\n        /* \"#utility.yul\":7641:7645   */\n      dup2\n        /* \"#utility.yul\":7637:7657   */\n      sub\n        /* \"#utility.yul\":7633:7634   */\n      0x00\n        /* \"#utility.yul\":7622:7631   */\n      dup4\n        /* \"#utility.yul\":7618:7635   */\n      add\n        /* \"#utility.yul\":7611:7658   */\n      mstore\n        /* \"#utility.yul\":7675:7806   */\n      tag_306\n        /* \"#utility.yul\":7801:7805   */\n      dup2\n        /* \"#utility.yul\":7675:7806   */\n      tag_188\n      jump\t// in\n    tag_306:\n        /* \"#utility.yul\":7667:7806   */\n      swap1\n      pop\n        /* \"#utility.yul\":7394:7813   */\n      swap2\n      swap1\n      pop\n      jump\t// out\n        /* \"#utility.yul\":7819:7989   */\n    tag_189:\n        /* \"#utility.yul\":7959:7981   */\n      0x41706f737461206e616f207265736f6c76696461000000000000000000000000\n        /* \"#utility.yul\":7955:7956   */\n      0x00\n        /* \"#utility.yul\":7947:7953   */\n      dup3\n        /* \"#utility.yul\":7943:7957   */\n      add\n        /* \"#utility.yul\":7936:7982   */\n      mstore\n        /* \"#utility.yul\":7819:7989   */\n      pop\n      jump\t// out\n        /* \"#utility.yul\":7995:8361   */\n    tag_190:\n        /* \"#utility.yul\":8137:8140   */\n      0x00\n        /* \"#utility.yul\":8158:8225   */\n      tag_309\n        /* \"#utility.yul\":8222:8224   */\n      0x14\n        /* \"#utility.yul\":8217:8220   */\n      dup4\n        /* \"#utility.yul\":8158:8225   */\n      tag_186\n      jump\t// in\n    tag_309:\n        /* \"#utility.yul\":8151:8225   */\n      swap2\n      pop\n        /* \"#utility.yul\":8234:8327   */\n      tag_310\n        /* \"#utility.yul\":8323:8326   */\n      dup3\n        /* \"#utility.yul\":8234:8327   */\n      tag_189\n      jump\t// in\n    tag_310:\n        /* \"#utility.yul\":8352:8354   */\n      0x20\n        /* \"#utility.yul\":8347:8350   */\n      dup3\n        /* \"#utility.yul\":8343:8355   */\n      add\n        /* \"#utility.yul\":8336:8355   */\n      swap1\n      pop\n        /* \"#utility.yul\":7995:8361   */\n      swap2\n      swap1\n      pop\n      jump\t// out\n        /* \"#utility.yul\":8367:8786   */\n    tag_69:\n        /* \"#utility.yul\":8533:8537   */\n      0x00\n        /* \"#utility.yul\":8571:8573   */\n      0x20\n        /* \"#utility.yul\":8560:8569   */\n      dup3\n        /* \"#utility.yul\":8556:8574   */\n      add\n        /* \"#utility.yul\":8548:8574   */\n      swap1\n      pop\n        /* \"#utility.yul\":8620:8629   */\n      dup2\n        /* \"#utility.yul\":8614:8618   */\n      dup2\n        /* \"#utility.yul\":8610:8630   */\n      sub\n        /* \"#utility.yul\":8606:8607   */\n      0x00\n        /* \"#utility.yul\":8595:8604   */\n      dup4\n        /* \"#utility.yul\":8591:8608   */\n      add\n        /* \"#utility.yul\":8584:8631   */\n      mstore\n        /* \"#utility.yul\":8648:8779   */\n      tag_312\n        /* \"#utility.yul\":8774:8778   */\n      dup2\n        /* \"#utility.yul\":8648:8779   */\n      tag_190\n      jump\t// in\n    tag_312:\n        /* \"#utility.yul\":8640:8779   */\n      swap1\n      pop\n        /* \"#utility.yul\":8367:8786   */\n      swap2\n      swap1\n      pop\n      jump\t// out\n        /* \"#utility.yul\":8792:8956   */\n    tag_191:\n        /* \"#utility.yul\":8932:8948   */\n      0x41706f7374612070657264696461000000000000000000000000000000000000\n        /* \"#utility.yul\":8928:8929   */\n      0x00\n        /* \"#utility.yul\":8920:8926   */\n      dup3\n        /* \"#utility.yul\":8916:8930   */\n      add\n        /* \"#utility.yul\":8909:8949   */\n      mstore\n        /* \"#utility.yul\":8792:8956   */\n      pop\n      jump\t// out\n        /* \"#utility.yul\":8962:9328   */\n    tag_192:\n        /* \"#utility.yul\":9104:9107   */\n      0x00\n        /* \"#utility.yul\":9125:9192   */\n      tag_315\n        /* \"#utility.yul\":9189:9191   */\n      0x0e\n        /* \"#utility.yul\":9184:9187   */\n      dup4\n        /* \"#utility.yul\":9125:9192   */\n      tag_186\n      jump\t// in\n    tag_315:\n        /* \"#utility.yul\":9118:9192   */\n      swap2\n      pop\n        /* \"#utility.yul\":9201:9294   */\n      tag_316\n        /* \"#utility.yul\":9290:9293   */\n      dup3\n        /* \"#utility.yul\":9201:9294   */\n      tag_191\n      jump\t// in\n    tag_316:\n        /* \"#utility.yul\":9319:9321   */\n      0x20\n        /* \"#utility.yul\":9314:9317   */\n      dup3\n        /* \"#utility.yul\":9310:9322   */\n      add\n        /* \"#utility.yul\":9303:9322   */\n      swap1\n      pop\n        /* \"#utility.yul\":8962:9328   */\n      swap2\n      swap1\n      pop\n      jump\t// out\n        /* \"#utility.yul\":9334:9753   */\n    tag_72:\n        /* \"#utility.yul\":9500:9504   */\n      0x00\n        /* \"#utility.yul\":9538:9540   */\n      0x20\n        /* \"#utility.yul\":9527:9536   */\n      dup3\n        /* \"#utility.yul\":9523:9541   */\n      add\n        /* \"#utility.yul\":9515:9541   */\n      swap1\n      pop\n        /* \"#utility.yul\":9587:9596   */\n      dup2\n        /* \"#utility.yul\":9581:9585   */\n      dup2\n        /* \"#utility.yul\":9577:9597   */\n      sub\n        /* \"#utility.yul\":9573:9574   */\n      0x00\n        /* \"#utility.yul\":9562:9571   */\n      dup4\n        /* \"#utility.yul\":9558:9575   */\n      add\n        /* \"#utility.yul\":9551:9598   */\n      mstore\n        /* \"#utility.yul\":9615:9746   */\n      tag_318\n        /* \"#utility.yul\":9741:9745   */\n      dup2\n        /* \"#utility.yul\":9615:9746   */\n      tag_192\n      jump\t// in\n    tag_318:\n        /* \"#utility.yul\":9607:9746   */\n      swap1\n      pop\n        /* \"#utility.yul\":9334:9753   */\n      swap2\n      swap1\n      pop\n      jump\t// out\n        /* \"#utility.yul\":9759:9918   */\n    tag_193:\n        /* \"#utility.yul\":9899:9910   */\n      0x4a612073616361646f0000000000000000000000000000000000000000000000\n        /* \"#utility.yul\":9895:9896   */\n      0x00\n        /* \"#utility.yul\":9887:9893   */\n      dup3\n        /* \"#utility.yul\":9883:9897   */\n      add\n        /* \"#utility.yul\":9876:9911   */\n      mstore\n        /* \"#utility.yul\":9759:9918   */\n      pop\n      jump\t// out\n        /* \"#utility.yul\":9924:10289   */\n    tag_194:\n        /* \"#utility.yul\":10066:10069   */\n      0x00\n        /* \"#utility.yul\":10087:10153   */\n      tag_321\n        /* \"#utility.yul\":10151:10152   */\n      0x09\n        /* \"#utility.yul\":10146:10149   */\n      dup4\n        /* \"#utility.yul\":10087:10153   */\n      tag_186\n      jump\t// in\n    tag_321:\n        /* \"#utility.yul\":10080:10153   */\n      swap2\n      pop\n        /* \"#utility.yul\":10162:10255   */\n      tag_322\n        /* \"#utility.yul\":10251:10254   */\n      dup3\n        /* \"#utility.yul\":10162:10255   */\n      tag_193\n      jump\t// in\n    tag_322:\n        /* \"#utility.yul\":10280:10282   */\n      0x20\n        /* \"#utility.yul\":10275:10278   */\n      dup3\n        /* \"#utility.yul\":10271:10283   */\n      add\n        /* \"#utility.yul\":10264:10283   */\n      swap1\n      pop\n        /* \"#utility.yul\":9924:10289   */\n      swap2\n      swap1\n      pop\n      jump\t// out\n        /* \"#utility.yul\":10295:10714   */\n    tag_75:\n        /* \"#utility.yul\":10461:10465   */\n      0x00\n        /* \"#utility.yul\":10499:10501   */\n      0x20\n        /* \"#utility.yul\":10488:10497   */\n      dup3\n        /* \"#utility.yul\":10484:10502   */\n      add\n        /* \"#utility.yul\":10476:10502   */\n      swap1\n      pop\n        /* \"#utility.yul\":10548:10557   */\n      dup2\n        /* \"#utility.yul\":10542:10546   */\n      dup2\n        /* \"#utility.yul\":10538:10558   */\n      sub\n        /* \"#utility.yul\":10534:10535   */\n      0x00\n        /* \"#utility.yul\":10523:10532   */\n      dup4\n        /* \"#utility.yul\":10519:10536   */\n      add\n        /* \"#utility.yul\":10512:10559   */\n      mstore\n        /* \"#utility.yul\":10576:10707   */\n      tag_324\n        /* \"#utility.yul\":10702:10706   */\n      dup2\n        /* \"#utility.yul\":10576:10707   */\n      tag_194\n      jump\t// in\n    tag_324:\n        /* \"#utility.yul\":10568:10707   */\n      swap1\n      pop\n        /* \"#utility.yul\":10295:10714   */\n      swap2\n      swap1\n      pop\n      jump\t// out\n        /* \"#utility.yul\":10720:10900   */\n    tag_195:\n        /* \"#utility.yul\":10768:10845   */\n      0x4e487b7100000000000000000000000000000000000000000000000000000000\n        /* \"#utility.yul\":10765:10766   */\n      0x00\n        /* \"#utility.yul\":10758:10846   */\n      mstore\n        /* \"#utility.yul\":10865:10869   */\n      0x11\n        /* \"#utility.yul\":10862:10863   */\n      0x04\n        /* \"#utility.yul\":10855:10870   */\n      mstore\n        /* \"#utility.yul\":10889:10893   */\n      0x24\n        /* \"#utility.yul\":10886:10887   */\n      0x00\n        /* \"#utility.yul\":10879:10894   */\n      revert\n        /* \"#utility.yul\":10906:11316   */\n    tag_77:\n        /* \"#utility.yul\":10946:10953   */\n      0x00\n        /* \"#utility.yul\":10969:10989   */\n      tag_327\n        /* \"#utility.yul\":10987:10988   */\n      dup3\n        /* \"#utility.yul\":10969:10989   */\n      tag_168\n      jump\t// in\n    tag_327:\n        /* \"#utility.yul\":10964:10989   */\n      swap2\n      pop\n        /* \"#utility.yul\":11003:11023   */\n      tag_328\n        /* \"#utility.yul\":11021:11022   */\n      dup4\n        /* \"#utility.yul\":11003:11023   */\n      tag_168\n      jump\t// in\n    tag_328:\n        /* \"#utility.yul\":10998:11023   */\n      swap3\n      pop\n        /* \"#utility.yul\":11058:11059   */\n      dup3\n        /* \"#utility.yul\":11055:11056   */\n      dup3\n        /* \"#utility.yul\":11051:11060   */\n      mul\n        /* \"#utility.yul\":11080:11110   */\n      tag_329\n        /* \"#utility.yul\":11098:11109   */\n      dup2\n        /* \"#utility.yul\":11080:11110   */\n      tag_168\n      jump\t// in\n    tag_329:\n        /* \"#utility.yul\":11069:11110   */\n      swap2\n      pop\n        /* \"#utility.yul\":11259:11260   */\n      dup3\n        /* \"#utility.yul\":11250:11257   */\n      dup3\n        /* \"#utility.yul\":11246:11261   */\n      div\n        /* \"#utility.yul\":11243:11244   */\n      dup5\n        /* \"#utility.yul\":11240:11262   */\n      eq\n        /* \"#utility.yul\":11220:11221   */\n      dup4\n        /* \"#utility.yul\":11213:11222   */\n      iszero\n        /* \"#utility.yul\":11193:11276   */\n      or\n        /* \"#utility.yul\":11170:11309   */\n      tag_330\n      jumpi\n        /* \"#utility.yul\":11289:11307   */\n      tag_331\n      tag_195\n      jump\t// in\n    tag_331:\n        /* \"#utility.yul\":11170:11309   */\n    tag_330:\n        /* \"#utility.yul\":10954:11316   */\n      pop\n        /* \"#utility.yul\":10906:11316   */\n      swap3\n      swap2\n      pop\n      pop\n      jump\t// out\n        /* \"#utility.yul\":11322:11502   */\n    tag_196:\n        /* \"#utility.yul\":11370:11447   */\n      0x4e487b7100000000000000000000000000000000000000000000000000000000\n        /* \"#utility.yul\":11367:11368   */\n      0x00\n        /* \"#utility.yul\":11360:11448   */\n      mstore\n        /* \"#utility.yul\":11467:11471   */\n      0x12\n        /* \"#utility.yul\":11464:11465   */\n      0x04\n        /* \"#utility.yul\":11457:11472   */\n      mstore\n        /* \"#utility.yul\":11491:11495   */\n      0x24\n        /* \"#utility.yul\":11488:11489   */\n      0x00\n        /* \"#utility.yul\":11481:11496   */\n      revert\n        /* \"#utility.yul\":11508:11693   */\n    tag_79:\n        /* \"#utility.yul\":11548:11549   */\n      0x00\n        /* \"#utility.yul\":11565:11585   */\n      tag_334\n        /* \"#utility.yul\":11583:11584   */\n      dup3\n        /* \"#utility.yul\":11565:11585   */\n      tag_168\n      jump\t// in\n    tag_334:\n        /* \"#utility.yul\":11560:11585   */\n      swap2\n      pop\n        /* \"#utility.yul\":11599:11619   */\n      tag_335\n        /* \"#utility.yul\":11617:11618   */\n      dup4\n        /* \"#utility.yul\":11599:11619   */\n      tag_168\n      jump\t// in\n    tag_335:\n        /* \"#utility.yul\":11594:11619   */\n      swap3\n      pop\n        /* \"#utility.yul\":11638:11639   */\n      dup3\n        /* \"#utility.yul\":11628:11663   */\n      tag_336\n      jumpi\n        /* \"#utility.yul\":11643:11661   */\n      tag_337\n      tag_196\n      jump\t// in\n    tag_337:\n        /* \"#utility.yul\":11628:11663   */\n    tag_336:\n        /* \"#utility.yul\":11685:11686   */\n      dup3\n        /* \"#utility.yul\":11682:11683   */\n      dup3\n        /* \"#utility.yul\":11678:11687   */\n      div\n        /* \"#utility.yul\":11673:11687   */\n      swap1\n      pop\n        /* \"#utility.yul\":11508:11693   */\n      swap3\n      swap2\n      pop\n      pop\n      jump\t// out\n        /* \"#utility.yul\":11699:11871   */\n    tag_197:\n        /* \"#utility.yul\":11839:11863   */\n      0x5061796f7574206163696d6120646f206c696d69746500000000000000000000\n        /* \"#utility.yul\":11835:11836   */\n      0x00\n        /* \"#utility.yul\":11827:11833   */\n      dup3\n        /* \"#utility.yul\":11823:11837   */\n      add\n        /* \"#utility.yul\":11816:11864   */\n      mstore\n        /* \"#utility.yul\":11699:11871   */\n      pop\n      jump\t// out\n        /* \"#utility.yul\":11877:12243   */\n    tag_198:\n        /* \"#utility.yul\":12019:12022   */\n      0x00\n        /* \"#utility.yul\":12040:12107   */\n      tag_340\n        /* \"#utility.yul\":12104:12106   */\n      0x16\n        /* \"#utility.yul\":12099:12102   */\n      dup4\n        /* \"#utility.yul\":12040:12107   */\n      tag_186\n      jump\t// in\n    tag_340:\n        /* \"#utility.yul\":12033:12107   */\n      swap2\n      pop\n        /* \"#utility.yul\":12116:12209   */\n      tag_341\n        /* \"#utility.yul\":12205:12208   */\n      dup3\n        /* \"#utility.yul\":12116:12209   */\n      tag_197\n      jump\t// in\n    tag_341:\n        /* \"#utility.yul\":12234:12236   */\n      0x20\n        /* \"#utility.yul\":12229:12232   */\n      dup3\n        /* \"#utility.yul\":12225:12237   */\n      add\n        /* \"#utility.yul\":12218:12237   */\n      swap1\n      pop\n        /* \"#utility.yul\":11877:12243   */\n      swap2\n      swap1\n      pop\n      jump\t// out\n        /* \"#utility.yul\":12249:12668   */\n    tag_83:\n        /* \"#utility.yul\":12415:12419   */\n      0x00\n        /* \"#utility.yul\":12453:12455   */\n      0x20\n        /* \"#utility.yul\":12442:12451   */\n      dup3\n        /* \"#utility.yul\":12438:12456   */\n      add\n        /* \"#utility.yul\":12430:12456   */\n      swap1\n      pop\n        /* \"#utility.yul\":12502:12511   */\n      dup2\n        /* \"#utility.yul\":12496:12500   */\n      dup2\n        /* \"#utility.yul\":12492:12512   */\n      sub\n        /* \"#utility.yul\":12488:12489   */\n      0x00\n        /* \"#utility.yul\":12477:12486   */\n      dup4\n        /* \"#utility.yul\":12473:12490   */\n      add\n        /* \"#utility.yul\":12466:12513   */\n      mstore\n        /* \"#utility.yul\":12530:12661   */\n      tag_343\n        /* \"#utility.yul\":12656:12660   */\n      dup2\n        /* \"#utility.yul\":12530:12661   */\n      tag_198\n      jump\t// in\n    tag_343:\n        /* \"#utility.yul\":12522:12661   */\n      swap1\n      pop\n        /* \"#utility.yul\":12249:12668   */\n      swap2\n      swap1\n      pop\n      jump\t// out\n        /* \"#utility.yul\":12674:13006   */\n    tag_85:\n        /* \"#utility.yul\":12795:12799   */\n      0x00\n        /* \"#utility.yul\":12833:12835   */\n      0x40\n        /* \"#utility.yul\":12822:12831   */\n      dup3\n        /* \"#utility.yul\":12818:12836   */\n      add\n        /* \"#utility.yul\":12810:12836   */\n      swap1\n      pop\n        /* \"#utility.yul\":12846:12917   */\n      tag_345\n        /* \"#utility.yul\":12914:12915   */\n      0x00\n        /* \"#utility.yul\":12903:12912   */\n      dup4\n        /* \"#utility.yul\":12899:12916   */\n      add\n        /* \"#utility.yul\":12890:12896   */\n      dup6\n        /* \"#utility.yul\":12846:12917   */\n      tag_180\n      jump\t// in\n    tag_345:\n        /* \"#utility.yul\":12927:12999   */\n      tag_346\n        /* \"#utility.yul\":12995:12997   */\n      0x20\n        /* \"#utility.yul\":12984:12993   */\n      dup4\n        /* \"#utility.yul\":12980:12998   */\n      add\n        /* \"#utility.yul\":12971:12977   */\n      dup5\n        /* \"#utility.yul\":12927:12999   */\n      tag_185\n      jump\t// in\n    tag_346:\n        /* \"#utility.yul\":12674:13006   */\n      swap4\n      swap3\n      pop\n      pop\n      pop\n      jump\t// out\n        /* \"#utility.yul\":13012:13149   */\n    tag_199:\n        /* \"#utility.yul\":13066:13071   */\n      0x00\n        /* \"#utility.yul\":13097:13103   */\n      dup2\n        /* \"#utility.yul\":13091:13104   */\n      mload\n        /* \"#utility.yul\":13082:13104   */\n      swap1\n      pop\n        /* \"#utility.yul\":13113:13143   */\n      tag_348\n        /* \"#utility.yul\":13137:13142   */\n      dup2\n        /* \"#utility.yul\":13113:13143   */\n      tag_181\n      jump\t// in\n    tag_348:\n        /* \"#utility.yul\":13012:13149   */\n      swap3\n      swap2\n      pop\n      pop\n      jump\t// out\n        /* \"#utility.yul\":13155:13500   */\n    tag_89:\n        /* \"#utility.yul\":13222:13228   */\n      0x00\n        /* \"#utility.yul\":13271:13273   */\n      0x20\n        /* \"#utility.yul\":13259:13268   */\n      dup3\n        /* \"#utility.yul\":13250:13257   */\n      dup5\n        /* \"#utility.yul\":13246:13269   */\n      sub\n        /* \"#utility.yul\":13242:13274   */\n      slt\n        /* \"#utility.yul\":13239:13358   */\n      iszero\n      tag_350\n      jumpi\n        /* \"#utility.yul\":13277:13356   */\n      tag_351\n      tag_166\n      jump\t// in\n    tag_351:\n        /* \"#utility.yul\":13239:13358   */\n    tag_350:\n        /* \"#utility.yul\":13397:13398   */\n      0x00\n        /* \"#utility.yul\":13422:13483   */\n      tag_352\n        /* \"#utility.yul\":13475:13482   */\n      dup5\n        /* \"#utility.yul\":13466:13472   */\n      dup3\n        /* \"#utility.yul\":13455:13464   */\n      dup6\n        /* \"#utility.yul\":13451:13473   */\n      add\n        /* \"#utility.yul\":13422:13483   */\n      tag_199\n      jump\t// in\n    tag_352:\n        /* \"#utility.yul\":13412:13483   */\n      swap2\n      pop\n        /* \"#utility.yul\":13368:13493   */\n      pop\n        /* \"#utility.yul\":13155:13500   */\n      swap3\n      swap2\n      pop\n      pop\n      jump\t// out\n        /* \"#utility.yul\":13506:13678   */\n    tag_200:\n        /* \"#utility.yul\":13646:13670   */\n      0x46616c6861206e61207472616e73666572656e63696100000000000000000000\n        /* \"#utility.yul\":13642:13643   */\n      0x00\n        /* \"#utility.yul\":13634:13640   */\n      dup3\n        /* \"#utility.yul\":13630:13644   */\n      add\n        /* \"#utility.yul\":13623:13671   */\n      mstore\n        /* \"#utility.yul\":13506:13678   */\n      pop\n      jump\t// out\n        /* \"#utility.yul\":13684:14050   */\n    tag_201:\n        /* \"#utility.yul\":13826:13829   */\n      0x00\n        /* \"#utility.yul\":13847:13914   */\n      tag_355\n        /* \"#utility.yul\":13911:13913   */\n      0x16\n        /* \"#utility.yul\":13906:13909   */\n      dup4\n        /* \"#utility.yul\":13847:13914   */\n      tag_186\n      jump\t// in\n    tag_355:\n        /* \"#utility.yul\":13840:13914   */\n      swap2\n      pop\n        /* \"#utility.yul\":13923:14016   */\n      tag_356\n        /* \"#utility.yul\":14012:14015   */\n      dup3\n        /* \"#utility.yul\":13923:14016   */\n      tag_200\n      jump\t// in\n    tag_356:\n        /* \"#utility.yul\":14041:14043   */\n      0x20\n        /* \"#utility.yul\":14036:14039   */\n      dup3\n        /* \"#utility.yul\":14032:14044   */\n      add\n        /* \"#utility.yul\":14025:14044   */\n      swap1\n      pop\n        /* \"#utility.yul\":13684:14050   */\n      swap2\n      swap1\n      pop\n      jump\t// out\n        /* \"#utility.yul\":14056:14475   */\n    tag_92:\n        /* \"#utility.yul\":14222:14226   */\n      0x00\n        /* \"#utility.yul\":14260:14262   */\n      0x20\n        /* \"#utility.yul\":14249:14258   */\n      dup3\n        /* \"#utility.yul\":14245:14263   */\n      add\n        /* \"#utility.yul\":14237:14263   */\n      swap1\n      pop\n        /* \"#utility.yul\":14309:14318   */\n      dup2\n        /* \"#utility.yul\":14303:14307   */\n      dup2\n        /* \"#utility.yul\":14299:14319   */\n      sub\n        /* \"#utility.yul\":14295:14296   */\n      0x00\n        /* \"#utility.yul\":14284:14293   */\n      dup4\n        /* \"#utility.yul\":14280:14297   */\n      add\n        /* \"#utility.yul\":14273:14320   */\n      mstore\n        /* \"#utility.yul\":14337:14468   */\n      tag_358\n        /* \"#utility.yul\":14463:14467   */\n      dup2\n        /* \"#utility.yul\":14337:14468   */\n      tag_201\n      jump\t// in\n    tag_358:\n        /* \"#utility.yul\":14329:14468   */\n      swap1\n      pop\n        /* \"#utility.yul\":14056:14475   */\n      swap2\n      swap1\n      pop\n      jump\t// out\n        /* \"#utility.yul\":14481:14703   */\n    tag_94:\n        /* \"#utility.yul\":14574:14578   */\n      0x00\n        /* \"#utility.yul\":14612:14614   */\n      0x20\n        /* \"#utility.yul\":14601:14610   */\n      dup3\n        /* \"#utility.yul\":14597:14615   */\n      add\n        /* \"#utility.yul\":14589:14615   */\n      swap1\n      pop\n        /* \"#utility.yul\":14625:14696   */\n      tag_360\n        /* \"#utility.yul\":14693:14694   */\n      0x00\n        /* \"#utility.yul\":14682:14691   */\n      dup4\n        /* \"#utility.yul\":14678:14695   */\n      add\n        /* \"#utility.yul\":14669:14675   */\n      dup5\n        /* \"#utility.yul\":14625:14696   */\n      tag_185\n      jump\t// in\n    tag_360:\n        /* \"#utility.yul\":14481:14703   */\n      swap3\n      swap2\n      pop\n      pop\n      jump\t// out\n        /* \"#utility.yul\":14709:14878   */\n    tag_202:\n        /* \"#utility.yul\":14849:14870   */\n      0x4576656e746f206a61207265736f6c7669646f00000000000000000000000000\n        /* \"#utility.yul\":14845:14846   */\n      0x00\n        /* \"#utility.yul\":14837:14843   */\n      dup3\n        /* \"#utility.yul\":14833:14847   */\n      add\n        /* \"#utility.yul\":14826:14871   */\n      mstore\n        /* \"#utility.yul\":14709:14878   */\n      pop\n      jump\t// out\n        /* \"#utility.yul\":14884:15250   */\n    tag_203:\n        /* \"#utility.yul\":15026:15029   */\n      0x00\n        /* \"#utility.yul\":15047:15114   */\n      tag_363\n        /* \"#utility.yul\":15111:15113   */\n      0x13\n        /* \"#utility.yul\":15106:15109   */\n      dup4\n        /* \"#utility.yul\":15047:15114   */\n      tag_186\n      jump\t// in\n    tag_363:\n        /* \"#utility.yul\":15040:15114   */\n      swap2\n      pop\n        /* \"#utility.yul\":15123:15216   */\n      tag_364\n        /* \"#utility.yul\":15212:15215   */\n      dup3\n        /* \"#utility.yul\":15123:15216   */\n      tag_202\n      jump\t// in\n    tag_364:\n        /* \"#utility.yul\":15241:15243   */\n      0x20\n        /* \"#utility.yul\":15236:15239   */\n      dup3\n        /* \"#utility.yul\":15232:15244   */\n      add\n        /* \"#utility.yul\":15225:15244   */\n      swap1\n      pop\n        /* \"#utility.yul\":14884:15250   */\n      swap2\n      swap1\n      pop\n      jump\t// out\n        /* \"#utility.yul\":15256:15675   */\n    tag_109:\n        /* \"#utility.yul\":15422:15426   */\n      0x00\n        /* \"#utility.yul\":15460:15462   */\n      0x20\n        /* \"#utility.yul\":15449:15458   */\n      dup3\n        /* \"#utility.yul\":15445:15463   */\n      add\n        /* \"#utility.yul\":15437:15463   */\n      swap1\n      pop\n        /* \"#utility.yul\":15509:15518   */\n      dup2\n        /* \"#utility.yul\":15503:15507   */\n      dup2\n        /* \"#utility.yul\":15499:15519   */\n      sub\n        /* \"#utility.yul\":15495:15496   */\n      0x00\n        /* \"#utility.yul\":15484:15493   */\n      dup4\n        /* \"#utility.yul\":15480:15497   */\n      add\n        /* \"#utility.yul\":15473:15520   */\n      mstore\n        /* \"#utility.yul\":15537:15668   */\n      tag_366\n        /* \"#utility.yul\":15663:15667   */\n      dup2\n        /* \"#utility.yul\":15537:15668   */\n      tag_203\n      jump\t// in\n    tag_366:\n        /* \"#utility.yul\":15529:15668   */\n      swap1\n      pop\n        /* \"#utility.yul\":15256:15675   */\n      swap2\n      swap1\n      pop\n      jump\t// out\n        /* \"#utility.yul\":15681:15841   */\n    tag_204:\n        /* \"#utility.yul\":15821:15833   */\n      0x53656d2061706f73746100000000000000000000000000000000000000000000\n        /* \"#utility.yul\":15817:15818   */\n      0x00\n        /* \"#utility.yul\":15809:15815   */\n      dup3\n        /* \"#utility.yul\":15805:15819   */\n      add\n        /* \"#utility.yul\":15798:15834   */\n      mstore\n        /* \"#utility.yul\":15681:15841   */\n      pop\n      jump\t// out\n        /* \"#utility.yul\":15847:16213   */\n    tag_205:\n        /* \"#utility.yul\":15989:15992   */\n      0x00\n        /* \"#utility.yul\":16010:16077   */\n      tag_369\n        /* \"#utility.yul\":16074:16076   */\n      0x0a\n        /* \"#utility.yul\":16069:16072   */\n      dup4\n        /* \"#utility.yul\":16010:16077   */\n      tag_186\n      jump\t// in\n    tag_369:\n        /* \"#utility.yul\":16003:16077   */\n      swap2\n      pop\n        /* \"#utility.yul\":16086:16179   */\n      tag_370\n        /* \"#utility.yul\":16175:16178   */\n      dup3\n        /* \"#utility.yul\":16086:16179   */\n      tag_204\n      jump\t// in\n    tag_370:\n        /* \"#utility.yul\":16204:16206   */\n      0x20\n        /* \"#utility.yul\":16199:16202   */\n      dup3\n        /* \"#utility.yul\":16195:16207   */\n      add\n        /* \"#utility.yul\":16188:16207   */\n      swap1\n      pop\n        /* \"#utility.yul\":15847:16213   */\n      swap2\n      swap1\n      pop\n      jump\t// out\n        /* \"#utility.yul\":16219:16638   */\n    tag_116:\n        /* \"#utility.yul\":16385:16389   */\n      0x00\n        /* \"#utility.yul\":16423:16425   */\n      0x20\n        /* \"#utility.yul\":16412:16421   */\n      dup3\n        /* \"#utility.yul\":16408:16426   */\n      add\n        /* \"#utility.yul\":16400:16426   */\n      swap1\n      pop\n        /* \"#utility.yul\":16472:16481   */\n      dup2\n        /* \"#utility.yul\":16466:16470   */\n      dup2\n        /* \"#utility.yul\":16462:16482   */\n      sub\n        /* \"#utility.yul\":16458:16459   */\n      0x00\n        /* \"#utility.yul\":16447:16456   */\n      dup4\n        /* \"#utility.yul\":16443:16460   */\n      add\n        /* \"#utility.yul\":16436:16483   */\n      mstore\n        /* \"#utility.yul\":16500:16631   */\n      tag_372\n        /* \"#utility.yul\":16626:16630   */\n      dup2\n        /* \"#utility.yul\":16500:16631   */\n      tag_205\n      jump\t// in\n    tag_372:\n        /* \"#utility.yul\":16492:16631   */\n      swap1\n      pop\n        /* \"#utility.yul\":16219:16638   */\n      swap2\n      swap1\n      pop\n      jump\t// out\n        /* \"#utility.yul\":16644:16806   */\n    tag_206:\n        /* \"#utility.yul\":16784:16798   */\n      0x4a61207265736f6c766964610000000000000000000000000000000000000000\n        /* \"#utility.yul\":16780:16781   */\n      0x00\n        /* \"#utility.yul\":16772:16778   */\n      dup3\n        /* \"#utility.yul\":16768:16782   */\n      add\n        /* \"#utility.yul\":16761:16799   */\n      mstore\n        /* \"#utility.yul\":16644:16806   */\n      pop\n      jump\t// out\n        /* \"#utility.yul\":16812:17178   */\n    tag_207:\n        /* \"#utility.yul\":16954:16957   */\n      0x00\n        /* \"#utility.yul\":16975:17042   */\n      tag_375\n        /* \"#utility.yul\":17039:17041   */\n      0x0c\n        /* \"#utility.yul\":17034:17037   */\n      dup4\n        /* \"#utility.yul\":16975:17042   */\n      tag_186\n      jump\t// in\n    tag_375:\n        /* \"#utility.yul\":16968:17042   */\n      swap2\n      pop\n        /* \"#utility.yul\":17051:17144   */\n      tag_376\n        /* \"#utility.yul\":17140:17143   */\n      dup3\n        /* \"#utility.yul\":17051:17144   */\n      tag_206\n      jump\t// in\n    tag_376:\n        /* \"#utility.yul\":17169:17171   */\n      0x20\n        /* \"#utility.yul\":17164:17167   */\n      dup3\n        /* \"#utility.yul\":17160:17172   */\n      add\n        /* \"#utility.yul\":17153:17172   */\n      swap1\n      pop\n        /* \"#utility.yul\":16812:17178   */\n      swap2\n      swap1\n      pop\n      jump\t// out\n        /* \"#utility.yul\":17184:17603   */\n    tag_119:\n        /* \"#utility.yul\":17350:17354   */\n      0x00\n        /* \"#utility.yul\":17388:17390   */\n      0x20\n        /* \"#utility.yul\":17377:17386   */\n      dup3\n        /* \"#utility.yul\":17373:17391   */\n      add\n        /* \"#utility.yul\":17365:17391   */\n      swap1\n      pop\n        /* \"#utility.yul\":17437:17446   */\n      dup2\n        /* \"#utility.yul\":17431:17435   */\n      dup2\n        /* \"#utility.yul\":17427:17447   */\n      sub\n        /* \"#utility.yul\":17423:17424   */\n      0x00\n        /* \"#utility.yul\":17412:17421   */\n      dup4\n        /* \"#utility.yul\":17408:17425   */\n      add\n        /* \"#utility.yul\":17401:17448   */\n      mstore\n        /* \"#utility.yul\":17465:17596   */\n      tag_378\n        /* \"#utility.yul\":17591:17595   */\n      dup2\n        /* \"#utility.yul\":17465:17596   */\n      tag_207\n      jump\t// in\n    tag_378:\n        /* \"#utility.yul\":17457:17596   */\n      swap1\n      pop\n        /* \"#utility.yul\":17184:17603   */\n      swap2\n      swap1\n      pop\n      jump\t// out\n        /* \"#utility.yul\":17609:17773   */\n    tag_208:\n        /* \"#utility.yul\":17749:17765   */\n      0x56616c6f7220696e76616c69646f000000000000000000000000000000000000\n        /* \"#utility.yul\":17745:17746   */\n      0x00\n        /* \"#utility.yul\":17737:17743   */\n      dup3\n        /* \"#utility.yul\":17733:17747   */\n      add\n        /* \"#utility.yul\":17726:17766   */\n      mstore\n        /* \"#utility.yul\":17609:17773   */\n      pop\n      jump\t// out\n        /* \"#utility.yul\":17779:18145   */\n    tag_209:\n        /* \"#utility.yul\":17921:17924   */\n      0x00\n        /* \"#utility.yul\":17942:18009   */\n      tag_381\n        /* \"#utility.yul\":18006:18008   */\n      0x0e\n        /* \"#utility.yul\":18001:18004   */\n      dup4\n        /* \"#utility.yul\":17942:18009   */\n      tag_186\n      jump\t// in\n    tag_381:\n        /* \"#utility.yul\":17935:18009   */\n      swap2\n      pop\n        /* \"#utility.yul\":18018:18111   */\n      tag_382\n        /* \"#utility.yul\":18107:18110   */\n      dup3\n        /* \"#utility.yul\":18018:18111   */\n      tag_208\n      jump\t// in\n    tag_382:\n        /* \"#utility.yul\":18136:18138   */\n      0x20\n        /* \"#utility.yul\":18131:18134   */\n      dup3\n        /* \"#utility.yul\":18127:18139   */\n      add\n        /* \"#utility.yul\":18120:18139   */\n      swap1\n      pop\n        /* \"#utility.yul\":17779:18145   */\n      swap2\n      swap1\n      pop\n      jump\t// out\n        /* \"#utility.yul\":18151:18570   */\n    tag_125:\n        /* \"#utility.yul\":18317:18321   */\n      0x00\n        /* \"#utility.yul\":18355:18357   */\n      0x20\n        /* \"#utility.yul\":18344:18353   */\n      dup3\n        /* \"#utility.yul\":18340:18358   */\n      add\n        /* \"#utility.yul\":18332:18358   */\n      swap1\n      pop\n        /* \"#utility.yul\":18404:18413   */\n      dup2\n        /* \"#utility.yul\":18398:18402   */\n      dup2\n        /* \"#utility.yul\":18394:18414   */\n      sub\n        /* \"#utility.yul\":18390:18391   */\n      0x00\n        /* \"#utility.yul\":18379:18388   */\n      dup4\n        /* \"#utility.yul\":18375:18392   */\n      add\n        /* \"#utility.yul\":18368:18415   */\n      mstore\n        /* \"#utility.yul\":18432:18563   */\n      tag_384\n        /* \"#utility.yul\":18558:18562   */\n      dup2\n        /* \"#utility.yul\":18432:18563   */\n      tag_209\n      jump\t// in\n    tag_384:\n        /* \"#utility.yul\":18424:18563   */\n      swap1\n      pop\n        /* \"#utility.yul\":18151:18570   */\n      swap2\n      swap1\n      pop\n      jump\t// out\n        /* \"#utility.yul\":18576:18744   */\n    tag_210:\n        /* \"#utility.yul\":18716:18736   */\n      0x4f646473206d696e696d61733a20313030250000000000000000000000000000\n        /* \"#utility.yul\":18712:18713   */\n      0x00\n        /* \"#utility.yul\":18704:18710   */\n      dup3\n        /* \"#utility.yul\":18700:18714   */\n      add\n        /* \"#utility.yul\":18693:18737   */\n      mstore\n        /* \"#utility.yul\":18576:18744   */\n      pop\n      jump\t// out\n        /* \"#utility.yul\":18750:19116   */\n    tag_211:\n        /* \"#utility.yul\":18892:18895   */\n      0x00\n        /* \"#utility.yul\":18913:18980   */\n      tag_387\n        /* \"#utility.yul\":18977:18979   */\n      0x12\n        /* \"#utility.yul\":18972:18975   */\n      dup4\n        /* \"#utility.yul\":18913:18980   */\n      tag_186\n      jump\t// in\n    tag_387:\n        /* \"#utility.yul\":18906:18980   */\n      swap2\n      pop\n        /* \"#utility.yul\":18989:19082   */\n      tag_388\n        /* \"#utility.yul\":19078:19081   */\n      dup3\n        /* \"#utility.yul\":18989:19082   */\n      tag_210\n      jump\t// in\n    tag_388:\n        /* \"#utility.yul\":19107:19109   */\n      0x20\n        /* \"#utility.yul\":19102:19105   */\n      dup3\n        /* \"#utility.yul\":19098:19110   */\n      add\n        /* \"#utility.yul\":19091:19110   */\n      swap1\n      pop\n        /* \"#utility.yul\":18750:19116   */\n      swap2\n      swap1\n      pop\n      jump\t// out\n        /* \"#utility.yul\":19122:19541   */\n    tag_128:\n        /* \"#utility.yul\":19288:19292   */\n      0x00\n        /* \"#utility.yul\":19326:19328   */\n      0x20\n        /* \"#utility.yul\":19315:19324   */\n      dup3\n        /* \"#utility.yul\":19311:19329   */\n      add\n        /* \"#utility.yul\":19303:19329   */\n      swap1\n      pop\n        /* \"#utility.yul\":19375:19384   */\n      dup2\n        /* \"#utility.yul\":19369:19373   */\n      dup2\n        /* \"#utility.yul\":19365:19385   */\n      sub\n        /* \"#utility.yul\":19361:19362   */\n      0x00\n        /* \"#utility.yul\":19350:19359   */\n      dup4\n        /* \"#utility.yul\":19346:19363   */\n      add\n        /* \"#utility.yul\":19339:19386   */\n      mstore\n        /* \"#utility.yul\":19403:19534   */\n      tag_390\n        /* \"#utility.yul\":19529:19533   */\n      dup2\n        /* \"#utility.yul\":19403:19534   */\n      tag_211\n      jump\t// in\n    tag_390:\n        /* \"#utility.yul\":19395:19534   */\n      swap1\n      pop\n        /* \"#utility.yul\":19122:19541   */\n      swap2\n      swap1\n      pop\n      jump\t// out\n        /* \"#utility.yul\":19547:19707   */\n    tag_212:\n        /* \"#utility.yul\":19687:19699   */\n      0x4a612061706f73746f7500000000000000000000000000000000000000000000\n        /* \"#utility.yul\":19683:19684   */\n      0x00\n        /* \"#utility.yul\":19675:19681   */\n      dup3\n        /* \"#utility.yul\":19671:19685   */\n      add\n        /* \"#utility.yul\":19664:19700   */\n      mstore\n        /* \"#utility.yul\":19547:19707   */\n      pop\n      jump\t// out\n        /* \"#utility.yul\":19713:20079   */\n    tag_213:\n        /* \"#utility.yul\":19855:19858   */\n      0x00\n        /* \"#utility.yul\":19876:19943   */\n      tag_393\n        /* \"#utility.yul\":19940:19942   */\n      0x0a\n        /* \"#utility.yul\":19935:19938   */\n      dup4\n        /* \"#utility.yul\":19876:19943   */\n      tag_186\n      jump\t// in\n    tag_393:\n        /* \"#utility.yul\":19869:19943   */\n      swap2\n      pop\n        /* \"#utility.yul\":19952:20045   */\n      tag_394\n        /* \"#utility.yul\":20041:20044   */\n      dup3\n        /* \"#utility.yul\":19952:20045   */\n      tag_212\n      jump\t// in\n    tag_394:\n        /* \"#utility.yul\":20070:20072   */\n      0x20\n        /* \"#utility.yul\":20065:20068   */\n      dup3\n        /* \"#utility.yul\":20061:20073   */\n      add\n        /* \"#utility.yul\":20054:20073   */\n      swap1\n      pop\n        /* \"#utility.yul\":19713:20079   */\n      swap2\n      swap1\n      pop\n      jump\t// out\n        /* \"#utility.yul\":20085:20504   */\n    tag_131:\n        /* \"#utility.yul\":20251:20255   */\n      0x00\n        /* \"#utility.yul\":20289:20291   */\n      0x20\n        /* \"#utility.yul\":20278:20287   */\n      dup3\n        /* \"#utility.yul\":20274:20292   */\n      add\n        /* \"#utility.yul\":20266:20292   */\n      swap1\n      pop\n        /* \"#utility.yul\":20338:20347   */\n      dup2\n        /* \"#utility.yul\":20332:20336   */\n      dup2\n        /* \"#utility.yul\":20328:20348   */\n      sub\n        /* \"#utility.yul\":20324:20325   */\n      0x00\n        /* \"#utility.yul\":20313:20322   */\n      dup4\n        /* \"#utility.yul\":20309:20326   */\n      add\n        /* \"#utility.yul\":20302:20349   */\n      mstore\n        /* \"#utility.yul\":20366:20497   */\n      tag_396\n        /* \"#utility.yul\":20492:20496   */\n      dup2\n        /* \"#utility.yul\":20366:20497   */\n      tag_213\n      jump\t// in\n    tag_396:\n        /* \"#utility.yul\":20358:20497   */\n      swap1\n      pop\n        /* \"#utility.yul\":20085:20504   */\n      swap2\n      swap1\n      pop\n      jump\t// out\n        /* \"#utility.yul\":20510:20676   */\n    tag_214:\n        /* \"#utility.yul\":20650:20668   */\n      0x4576656e746f20656e6365727261646f00000000000000000000000000000000\n        /* \"#utility.yul\":20646:20647   */\n      0x00\n        /* \"#utility.yul\":20638:20644   */\n      dup3\n        /* \"#utility.yul\":20634:20648   */\n      add\n        /* \"#utility.yul\":20627:20669   */\n      mstore\n        /* \"#utility.yul\":20510:20676   */\n      pop\n      jump\t// out\n        /* \"#utility.yul\":20682:21048   */\n    tag_215:\n        /* \"#utility.yul\":20824:20827   */\n      0x00\n        /* \"#utility.yul\":20845:20912   */\n      tag_399\n        /* \"#utility.yul\":20909:20911   */\n      0x10\n        /* \"#utility.yul\":20904:20907   */\n      dup4\n        /* \"#utility.yul\":20845:20912   */\n      tag_186\n      jump\t// in\n    tag_399:\n        /* \"#utility.yul\":20838:20912   */\n      swap2\n      pop\n        /* \"#utility.yul\":20921:21014   */\n      tag_400\n        /* \"#utility.yul\":21010:21013   */\n      dup3\n        /* \"#utility.yul\":20921:21014   */\n      tag_214\n      jump\t// in\n    tag_400:\n        /* \"#utility.yul\":21039:21041   */\n      0x20\n        /* \"#utility.yul\":21034:21037   */\n      dup3\n        /* \"#utility.yul\":21030:21042   */\n      add\n        /* \"#utility.yul\":21023:21042   */\n      swap1\n      pop\n        /* \"#utility.yul\":20682:21048   */\n      swap2\n      swap1\n      pop\n      jump\t// out\n        /* \"#utility.yul\":21054:21473   */\n    tag_134:\n        /* \"#utility.yul\":21220:21224   */\n      0x00\n        /* \"#utility.yul\":21258:21260   */\n      0x20\n        /* \"#utility.yul\":21247:21256   */\n      dup3\n        /* \"#utility.yul\":21243:21261   */\n      add\n        /* \"#utility.yul\":21235:21261   */\n      swap1\n      pop\n        /* \"#utility.yul\":21307:21316   */\n      dup2\n        /* \"#utility.yul\":21301:21305   */\n      dup2\n        /* \"#utility.yul\":21297:21317   */\n      sub\n        /* \"#utility.yul\":21293:21294   */\n      0x00\n        /* \"#utility.yul\":21282:21291   */\n      dup4\n        /* \"#utility.yul\":21278:21295   */\n      add\n        /* \"#utility.yul\":21271:21318   */\n      mstore\n        /* \"#utility.yul\":21335:21466   */\n      tag_402\n        /* \"#utility.yul\":21461:21465   */\n      dup2\n        /* \"#utility.yul\":21335:21466   */\n      tag_215\n      jump\t// in\n    tag_402:\n        /* \"#utility.yul\":21327:21466   */\n      swap1\n      pop\n        /* \"#utility.yul\":21054:21473   */\n      swap2\n      swap1\n      pop\n      jump\t// out\n        /* \"#utility.yul\":21479:21921   */\n    tag_136:\n        /* \"#utility.yul\":21628:21632   */\n      0x00\n        /* \"#utility.yul\":21666:21668   */\n      0x60\n        /* \"#utility.yul\":21655:21664   */\n      dup3\n        /* \"#utility.yul\":21651:21669   */\n      add\n        /* \"#utility.yul\":21643:21669   */\n      swap1\n      pop\n        /* \"#utility.yul\":21679:21750   */\n      tag_404\n        /* \"#utility.yul\":21747:21748   */\n      0x00\n        /* \"#utility.yul\":21736:21745   */\n      dup4\n        /* \"#utility.yul\":21732:21749   */\n      add\n        /* \"#utility.yul\":21723:21729   */\n      dup7\n        /* \"#utility.yul\":21679:21750   */\n      tag_180\n      jump\t// in\n    tag_404:\n        /* \"#utility.yul\":21760:21832   */\n      tag_405\n        /* \"#utility.yul\":21828:21830   */\n      0x20\n        /* \"#utility.yul\":21817:21826   */\n      dup4\n        /* \"#utility.yul\":21813:21831   */\n      add\n        /* \"#utility.yul\":21804:21810   */\n      dup6\n        /* \"#utility.yul\":21760:21832   */\n      tag_180\n      jump\t// in\n    tag_405:\n        /* \"#utility.yul\":21842:21914   */\n      tag_406\n        /* \"#utility.yul\":21910:21912   */\n      0x40\n        /* \"#utility.yul\":21899:21908   */\n      dup4\n        /* \"#utility.yul\":21895:21913   */\n      add\n        /* \"#utility.yul\":21886:21892   */\n      dup5\n        /* \"#utility.yul\":21842:21914   */\n      tag_185\n      jump\t// in\n    tag_406:\n        /* \"#utility.yul\":21479:21921   */\n      swap5\n      swap4\n      pop\n      pop\n      pop\n      pop\n      jump\t// out\n        /* \"#utility.yul\":21927:22259   */\n    tag_143:\n        /* \"#utility.yul\":22048:22052   */\n      0x00\n        /* \"#utility.yul\":22086:22088   */\n      0x40\n        /* \"#utility.yul\":22075:22084   */\n      dup3\n        /* \"#utility.yul\":22071:22089   */\n      add\n        /* \"#utility.yul\":22063:22089   */\n      swap1\n      pop\n        /* \"#utility.yul\":22099:22170   */\n      tag_408\n        /* \"#utility.yul\":22167:22168   */\n      0x00\n        /* \"#utility.yul\":22156:22165   */\n      dup4\n        /* \"#utility.yul\":22152:22169   */\n      add\n        /* \"#utility.yul\":22143:22149   */\n      dup6\n        /* \"#utility.yul\":22099:22170   */\n      tag_185\n      jump\t// in\n    tag_408:\n        /* \"#utility.yul\":22180:22252   */\n      tag_409\n        /* \"#utility.yul\":22248:22250   */\n      0x20\n        /* \"#utility.yul\":22237:22246   */\n      dup4\n        /* \"#utility.yul\":22233:22251   */\n      add\n        /* \"#utility.yul\":22224:22230   */\n      dup5\n        /* \"#utility.yul\":22180:22252   */\n      tag_185\n      jump\t// in\n    tag_409:\n        /* \"#utility.yul\":21927:22259   */\n      swap4\n      swap3\n      pop\n      pop\n      pop\n      jump\t// out\n        /* \"#utility.yul\":22265:22446   */\n    tag_216:\n        /* \"#utility.yul\":22405:22438   */\n      0x5265656e7472616e637947756172643a207265656e7472616e742063616c6c00\n        /* \"#utility.yul\":22401:22402   */\n      0x00\n        /* \"#utility.yul\":22393:22399   */\n      dup3\n        /* \"#utility.yul\":22389:22403   */\n      add\n        /* \"#utility.yul\":22382:22439   */\n      mstore\n        /* \"#utility.yul\":22265:22446   */\n      pop\n      jump\t// out\n        /* \"#utility.yul\":22452:22818   */\n    tag_217:\n        /* \"#utility.yul\":22594:22597   */\n      0x00\n        /* \"#utility.yul\":22615:22682   */\n      tag_412\n        /* \"#utility.yul\":22679:22681   */\n      0x1f\n        /* \"#utility.yul\":22674:22677   */\n      dup4\n        /* \"#utility.yul\":22615:22682   */\n      tag_186\n      jump\t// in\n    tag_412:\n        /* \"#utility.yul\":22608:22682   */\n      swap2\n      pop\n        /* \"#utility.yul\":22691:22784   */\n      tag_413\n        /* \"#utility.yul\":22780:22783   */\n      dup3\n        /* \"#utility.yul\":22691:22784   */\n      tag_216\n      jump\t// in\n    tag_413:\n        /* \"#utility.yul\":22809:22811   */\n      0x20\n        /* \"#utility.yul\":22804:22807   */\n      dup3\n        /* \"#utility.yul\":22800:22812   */\n      add\n        /* \"#utility.yul\":22793:22812   */\n      swap1\n      pop\n        /* \"#utility.yul\":22452:22818   */\n      swap2\n      swap1\n      pop\n      jump\t// out\n        /* \"#utility.yul\":22824:23243   */\n    tag_154:\n        /* \"#utility.yul\":22990:22994   */\n      0x00\n        /* \"#utility.yul\":23028:23030   */\n      0x20\n        /* \"#utility.yul\":23017:23026   */\n      dup3\n        /* \"#utility.yul\":23013:23031   */\n      add\n        /* \"#utility.yul\":23005:23031   */\n      swap1\n      pop\n        /* \"#utility.yul\":23077:23086   */\n      dup2\n        /* \"#utility.yul\":23071:23075   */\n      dup2\n        /* \"#utility.yul\":23067:23087   */\n      sub\n        /* \"#utility.yul\":23063:23064   */\n      0x00\n        /* \"#utility.yul\":23052:23061   */\n      dup4\n        /* \"#utility.yul\":23048:23065   */\n      add\n        /* \"#utility.yul\":23041:23088   */\n      mstore\n        /* \"#utility.yul\":23105:23236   */\n      tag_415\n        /* \"#utility.yul\":23231:23235   */\n      dup2\n        /* \"#utility.yul\":23105:23236   */\n      tag_217\n      jump\t// in\n    tag_415:\n        /* \"#utility.yul\":23097:23236   */\n      swap1\n      pop\n        /* \"#utility.yul\":22824:23243   */\n      swap2\n      swap1\n      pop\n      jump\t// out\n\n    auxdata: 0xa26469706673582212206ee9c550865d1e1b5759dbb85c5970cece763c1174043075c96a645de82f219864736f6c63430008140033\n}\n",
				"bytecode": {
					"linkReferences": {},
					"object": "60a060405234801562000010575f80fd5b5060405162001da838038062001da8833981810160405281019062000036919062000296565b805f73ffffffffffffffffffffffffffffffffffffffff168173ffffffffffffffffffffffffffffffffffffffff1603620000aa575f6040517f1e4fbdf7000000000000000000000000000000000000000000000000000000008152600401620000a19190620002ec565b60405180910390fd5b620000bb816200017060201b60201c565b50600180819055505f73ffffffffffffffffffffffffffffffffffffffff168273ffffffffffffffffffffffffffffffffffffffff160362000134576040517f08c379a00000000000000000000000000000000000000000000000000000000081526004016200012b9062000365565b60405180910390fd5b8173ffffffffffffffffffffffffffffffffffffffff1660808173ffffffffffffffffffffffffffffffffffffffff1681525050505062000385565b5f805f9054906101000a900473ffffffffffffffffffffffffffffffffffffffff169050815f806101000a81548173ffffffffffffffffffffffffffffffffffffffff021916908373ffffffffffffffffffffffffffffffffffffffff1602179055508173ffffffffffffffffffffffffffffffffffffffff168173ffffffffffffffffffffffffffffffffffffffff167f8be0079c531659141344cd1fd0a4f28419497f9722a3daafe3b4186f6b6457e060405160405180910390a35050565b5f80fd5b5f73ffffffffffffffffffffffffffffffffffffffff82169050919050565b5f620002608262000235565b9050919050565b620002728162000254565b81146200027d575f80fd5b50565b5f81519050620002908162000267565b92915050565b5f8060408385031215620002af57620002ae62000231565b5b5f620002be8582860162000280565b9250506020620002d18582860162000280565b9150509250929050565b620002e68162000254565b82525050565b5f602082019050620003015f830184620002db565b92915050565b5f82825260208201905092915050565b7f546f6b656e20696e76616c69646f0000000000000000000000000000000000005f82015250565b5f6200034d600e8362000307565b91506200035a8262000317565b602082019050919050565b5f6020820190508181035f8301526200037e816200033f565b9050919050565b6080516119fc620003ac5f395f81816105450152818161067f0152610a9601526119fc5ff3fe608060405234801561000f575f80fd5b50600436106100a7575f3560e01c8063915439fb1161006f578063915439fb1461013d57806394cec7a7146101595780639f2efb4014610189578063e71c9697146101a5578063f2fde38b146101c1578063f644b3bb146101dd576100a7565b806314794702146100ab5780635b0fc6e8146100c7578063715018a6146100e5578063885735a5146100ef5780638da5cb5b1461011f575b5f80fd5b6100c560048036038101906100c09190610f49565b610210565b005b6100cf61067d565b6040516100dc9190610fee565b60405180910390f35b6100ed6106a1565b005b61010960048036038101906101049190610f49565b6106b4565b6040516101169190611021565b60405180910390f35b6101276106d1565b604051610134919061105a565b60405180910390f35b6101576004803603810190610152919061109d565b6106f8565b005b610173600480360381019061016e9190611105565b6107c2565b6040516101809190611021565b60405180910390f35b6101a3600480360381019061019e9190611143565b6107ec565b005b6101bf60048036038101906101ba9190611193565b610917565b005b6101db60048036038101906101d691906111e3565b610c97565b005b6101f760048036038101906101f29190611105565b610d1b565b604051610207949392919061121d565b60405180910390f35b610218610d6b565b5f60025f8381526020019081526020015f205f3373ffffffffffffffffffffffffffffffffffffffff1673ffffffffffffffffffffffffffffffffffffffff1681526020019081526020015f2090505f815f0154116102ac576040517f08c379a00000000000000000000000000000000000000000000000000000000081526004016102a3906112ba565b60405180910390fd5b806002015f9054906101000a900460ff166102fc576040517f08c379a00000000000000000000000000000000000000000000000000000000081526004016102f390611322565b60405180910390fd5b8060020160019054906101000a900460ff1661034d576040517f08c379a00000000000000000000000000000000000000000000000000000000081526004016103449061138a565b60405180910390fd5b60045f8381526020019081526020015f205f3373ffffffffffffffffffffffffffffffffffffffff1673ffffffffffffffffffffffffffffffffffffffff1681526020019081526020015f205f9054906101000a900460ff16156103e6576040517f08c379a00000000000000000000000000000000000000000000000000000000081526004016103dd906113f2565b60405180910390fd5b5f60648260010154835f01546103fc919061143d565b61040691906114ab565b90506103e8825f0154610419919061143d565b81111561045b576040517f08c379a000000000000000000000000000000000000000000000000000000000815260040161045290611525565b60405180910390fd5b600160045f8581526020019081526020015f205f3373ffffffffffffffffffffffffffffffffffffffff1673ffffffffffffffffffffffffffffffffffffffff1681526020019081526020015f205f6101000a81548160ff02191690831515021790555060025f8481526020019081526020015f205f3373ffffffffffffffffffffffffffffffffffffffff1673ffffffffffffffffffffffffffffffffffffffff1681526020019081526020015f205f8082015f9055600182015f9055600282015f6101000a81549060ff02191690556002820160016101000a81549060ff021916905550505f7f000000000000000000000000000000000000000000000000000000000000000073ffffffffffffffffffffffffffffffffffffffff1663a9059cbb33846040518363ffffffff1660e01b815260040161059e929190611543565b6020604051808303815f875af11580156105ba573d5f803e3d5ffd5b505050506040513d601f19601f820116820180604052508101906105de919061157e565b905080610620576040517f08c379a0000000000000000000000000000000000000000000000000000000008152600401610617906115f3565b60405180910390fd5b833373ffffffffffffffffffffffffffffffffffffffff167f64bd7c266edce1b240f0ed2697cdca2e2478fb1dbc18ec833f80cda28a34c029846040516106679190611611565b60405180910390a350505061067a610dba565b50565b7f000000000000000000000000000000000000000000000000000000000000000081565b6106a9610dc3565b6106b25f610e4a565b565b6003602052805f5260405f205f915054906101000a900460ff1681565b5f805f9054906101000a900473ffffffffffffffffffffffffffffffffffffffff16905090565b610700610dc3565b60035f8381526020019081526020015f205f9054906101000a900460ff161561075e576040517f08c379a000000000000000000000000000000000000000000000000000000000815260040161075590611674565b60405180910390fd5b8060035f8481526020019081526020015f205f6101000a81548160ff021916908315150217905550817f17124873aec4a4b1ba3660b40d20291d60e85c85f1f19c45b09715a01178133f826040516107b69190611021565b60405180910390a25050565b6004602052815f5260405f20602052805f5260405f205f915091509054906101000a900460ff1681565b6107f4610dc3565b5f60025f8481526020019081526020015f205f8573ffffffffffffffffffffffffffffffffffffffff1673ffffffffffffffffffffffffffffffffffffffff1681526020019081526020015f2090505f815f015411610888576040517f08c379a000000000000000000000000000000000000000000000000000000000815260040161087f906116dc565b60405180910390fd5b806002015f9054906101000a900460ff16156108d9576040517f08c379a00000000000000000000000000000000000000000000000000000000081526004016108d090611744565b60405180910390fd5b6001816002015f6101000a81548160ff021916908315150217905550818160020160016101000a81548160ff02191690831515021790555050505050565b61091f610d6b565b5f8211610961576040517f08c379a0000000000000000000000000000000000000000000000000000000008152600401610958906117ac565b60405180910390fd5b60648110156109a5576040517f08c379a000000000000000000000000000000000000000000000000000000000815260040161099c90611814565b60405180910390fd5b5f60025f8581526020019081526020015f205f3373ffffffffffffffffffffffffffffffffffffffff1673ffffffffffffffffffffffffffffffffffffffff1681526020019081526020015f205f015414610a35576040517f08c379a0000000000000000000000000000000000000000000000000000000008152600401610a2c9061187c565b60405180910390fd5b60035f8481526020019081526020015f205f9054906101000a900460ff1615610a93576040517f08c379a0000000000000000000000000000000000000000000000000000000008152600401610a8a906118e4565b60405180910390fd5b5f7f000000000000000000000000000000000000000000000000000000000000000073ffffffffffffffffffffffffffffffffffffffff166323b872dd3330866040518463ffffffff1660e01b8152600401610af193929190611902565b6020604051808303815f875af1158015610b0d573d5f803e3d5ffd5b505050506040513d601f19601f82011682018060405250810190610b31919061157e565b905080610b73576040517f08c379a0000000000000000000000000000000000000000000000000000000008152600401610b6a906115f3565b60405180910390fd5b60405180608001604052808481526020018381526020015f151581526020015f151581525060025f8681526020019081526020015f205f3373ffffffffffffffffffffffffffffffffffffffff1673ffffffffffffffffffffffffffffffffffffffff1681526020019081526020015f205f820151815f0155602082015181600101556040820151816002015f6101000a81548160ff02191690831515021790555060608201518160020160016101000a81548160ff021916908315150217905550905050833373ffffffffffffffffffffffffffffffffffffffff167f7363e6581df4db69463222156be4a09656528b9f1302890fa4c0b60819b69fc68585604051610c81929190611937565b60405180910390a350610c92610dba565b505050565b610c9f610dc3565b5f73ffffffffffffffffffffffffffffffffffffffff168173ffffffffffffffffffffffffffffffffffffffff1603610d0f575f6040517f1e4fbdf7000000000000000000000000000000000000000000000000000000008152600401610d06919061105a565b60405180910390fd5b610d1881610e4a565b50565b6002602052815f5260405f20602052805f5260405f205f9150915050805f015490806001015490806002015f9054906101000a900460ff16908060020160019054906101000a900460ff16905084565b600260015403610db0576040517f08c379a0000000000000000000000000000000000000000000000000000000008152600401610da7906119a8565b60405180910390fd5b6002600181905550565b60018081905550565b610dcb610f0b565b73ffffffffffffffffffffffffffffffffffffffff16610de96106d1565b73ffffffffffffffffffffffffffffffffffffffff1614610e4857610e0c610f0b565b6040517f118cdaa7000000000000000000000000000000000000000000000000000000008152600401610e3f919061105a565b60405180910390fd5b565b5f805f9054906101000a900473ffffffffffffffffffffffffffffffffffffffff169050815f806101000a81548173ffffffffffffffffffffffffffffffffffffffff021916908373ffffffffffffffffffffffffffffffffffffffff1602179055508173ffffffffffffffffffffffffffffffffffffffff168173ffffffffffffffffffffffffffffffffffffffff167f8be0079c531659141344cd1fd0a4f28419497f9722a3daafe3b4186f6b6457e060405160405180910390a35050565b5f33905090565b5f80fd5b5f819050919050565b610f2881610f16565b8114610f32575f80fd5b50565b5f81359050610f4381610f1f565b92915050565b5f60208284031215610f5e57610f5d610f12565b5b5f610f6b84828501610f35565b91505092915050565b5f73ffffffffffffffffffffffffffffffffffffffff82169050919050565b5f819050919050565b5f610fb6610fb1610fac84610f74565b610f93565b610f74565b9050919050565b5f610fc782610f9c565b9050919050565b5f610fd882610fbd565b9050919050565b610fe881610fce565b82525050565b5f6020820190506110015f830184610fdf565b92915050565b5f8115159050919050565b61101b81611007565b82525050565b5f6020820190506110345f830184611012565b92915050565b5f61104482610f74565b9050919050565b6110548161103a565b82525050565b5f60208201905061106d5f83018461104b565b92915050565b61107c81611007565b8114611086575f80fd5b50565b5f8135905061109781611073565b92915050565b5f80604083850312156110b3576110b2610f12565b5b5f6110c085828601610f35565b92505060206110d185828601611089565b9150509250929050565b6110e48161103a565b81146110ee575f80fd5b50565b5f813590506110ff816110db565b92915050565b5f806040838503121561111b5761111a610f12565b5b5f61112885828601610f35565b9250506020611139858286016110f1565b9150509250929050565b5f805f6060848603121561115a57611159610f12565b5b5f611167868287016110f1565b935050602061117886828701610f35565b925050604061118986828701611089565b9150509250925092565b5f805f606084860312156111aa576111a9610f12565b5b5f6111b786828701610f35565b93505060206111c886828701610f35565b92505060406111d986828701610f35565b9150509250925092565b5f602082840312156111f8576111f7610f12565b5b5f611205848285016110f1565b91505092915050565b61121781610f16565b82525050565b5f6080820190506112305f83018761120e565b61123d602083018661120e565b61124a6040830185611012565b6112576060830184611012565b95945050505050565b5f82825260208201905092915050565b7f4e656e68756d612061706f7374610000000000000000000000000000000000005f82015250565b5f6112a4600e83611260565b91506112af82611270565b602082019050919050565b5f6020820190508181035f8301526112d181611298565b9050919050565b7f41706f737461206e616f207265736f6c766964610000000000000000000000005f82015250565b5f61130c601483611260565b9150611317826112d8565b602082019050919050565b5f6020820190508181035f83015261133981611300565b9050919050565b7f41706f73746120706572646964610000000000000000000000000000000000005f82015250565b5f611374600e83611260565b915061137f82611340565b602082019050919050565b5f6020820190508181035f8301526113a181611368565b9050919050565b7f4a612073616361646f00000000000000000000000000000000000000000000005f82015250565b5f6113dc600983611260565b91506113e7826113a8565b602082019050919050565b5f6020820190508181035f830152611409816113d0565b9050919050565b7f4e487b71000000000000000000000000000000000000000000000000000000005f52601160045260245ffd5b5f61144782610f16565b915061145283610f16565b925082820261146081610f16565b9150828204841483151761147757611476611410565b5b5092915050565b7f4e487b71000000000000000000000000000000000000000000000000000000005f52601260045260245ffd5b5f6114b582610f16565b91506114c083610f16565b9250826114d0576114cf61147e565b5b828204905092915050565b7f5061796f7574206163696d6120646f206c696d697465000000000000000000005f82015250565b5f61150f601683611260565b915061151a826114db565b602082019050919050565b5f6020820190508181035f83015261153c81611503565b9050919050565b5f6040820190506115565f83018561104b565b611563602083018461120e565b9392505050565b5f8151905061157881611073565b92915050565b5f6020828403121561159357611592610f12565b5b5f6115a08482850161156a565b91505092915050565b7f46616c6861206e61207472616e73666572656e636961000000000000000000005f82015250565b5f6115dd601683611260565b91506115e8826115a9565b602082019050919050565b5f6020820190508181035f83015261160a816115d1565b9050919050565b5f6020820190506116245f83018461120e565b92915050565b7f4576656e746f206a61207265736f6c7669646f000000000000000000000000005f82015250565b5f61165e601383611260565b91506116698261162a565b602082019050919050565b5f6020820190508181035f83015261168b81611652565b9050919050565b7f53656d2061706f737461000000000000000000000000000000000000000000005f82015250565b5f6116c6600a83611260565b91506116d182611692565b602082019050919050565b5f6020820190508181035f8301526116f3816116ba565b9050919050565b7f4a61207265736f6c7669646100000000000000000000000000000000000000005f82015250565b5f61172e600c83611260565b9150611739826116fa565b602082019050919050565b5f6020820190508181035f83015261175b81611722565b9050919050565b7f56616c6f7220696e76616c69646f0000000000000000000000000000000000005f82015250565b5f611796600e83611260565b91506117a182611762565b602082019050919050565b5f6020820190508181035f8301526117c38161178a565b9050919050565b7f4f646473206d696e696d61733a203130302500000000000000000000000000005f82015250565b5f6117fe601283611260565b9150611809826117ca565b602082019050919050565b5f6020820190508181035f83015261182b816117f2565b9050919050565b7f4a612061706f73746f75000000000000000000000000000000000000000000005f82015250565b5f611866600a83611260565b915061187182611832565b602082019050919050565b5f6020820190508181035f8301526118938161185a565b9050919050565b7f4576656e746f20656e6365727261646f000000000000000000000000000000005f82015250565b5f6118ce601083611260565b91506118d98261189a565b602082019050919050565b5f6020820190508181035f8301526118fb816118c2565b9050919050565b5f6060820190506119155f83018661104b565b611922602083018561104b565b61192f604083018461120e565b949350505050565b5f60408201905061194a5f83018561120e565b611957602083018461120e565b9392505050565b7f5265656e7472616e637947756172643a207265656e7472616e742063616c6c005f82015250565b5f611992601f83611260565b915061199d8261195e565b602082019050919050565b5f6020820190508181035f8301526119bf81611986565b905091905056fea26469706673582212206ee9c550865d1e1b5759dbb85c5970cece763c1174043075c96a645de82f219864736f6c63430008140033",
					"opcodes": "PUSH1 0xA0 PUSH1 0x40 MSTORE CALLVALUE DUP1 ISZERO PUSH3 0x10 JUMPI PUSH0 DUP1 REVERT JUMPDEST POP PUSH1 0x40 MLOAD PUSH3 0x1DA8 CODESIZE SUB DUP1 PUSH3 0x1DA8 DUP4 CODECOPY DUP2 DUP2 ADD PUSH1 0x40 MSTORE DUP2 ADD SWAP1 PUSH3 0x36 SWAP2 SWAP1 PUSH3 0x296 JUMP JUMPDEST DUP1 PUSH0 PUSH20 0xFFFFFFFFFFFFFFFFFFFFFFFFFFFFFFFFFFFFFFFF AND DUP2 PUSH20 0xFFFFFFFFFFFFFFFFFFFFFFFFFFFFFFFFFFFFFFFF AND SUB PUSH3 0xAA JUMPI PUSH0 PUSH1 0x40 MLOAD PUSH32 0x1E4FBDF700000000000000000000000000000000000000000000000000000000 DUP2 MSTORE PUSH1 0x4 ADD PUSH3 0xA1 SWAP2 SWAP1 PUSH3 0x2EC JUMP JUMPDEST PUSH1 0x40 MLOAD DUP1 SWAP2 SUB SWAP1 REVERT JUMPDEST PUSH3 0xBB DUP2 PUSH3 0x170 PUSH1 0x20 SHL PUSH1 0x20 SHR JUMP JUMPDEST POP PUSH1 0x1 DUP1 DUP2 SWAP1 SSTORE POP PUSH0 PUSH20 0xFFFFFFFFFFFFFFFFFFFFFFFFFFFFFFFFFFFFFFFF AND DUP3 PUSH20 0xFFFFFFFFFFFFFFFFFFFFFFFFFFFFFFFFFFFFFFFF AND SUB PUSH3 0x134 JUMPI PUSH1 0x40 MLOAD PUSH32 0x8C379A000000000000000000000000000000000000000000000000000000000 DUP2 MSTORE PUSH1 0x4 ADD PUSH3 0x12B SWAP1 PUSH3 0x365 JUMP JUMPDEST PUSH1 0x40 MLOAD DUP1 SWAP2 SUB SWAP1 REVERT JUMPDEST DUP2 PUSH20 0xFFFFFFFFFFFFFFFFFFFFFFFFFFFFFFFFFFFFFFFF AND PUSH1 0x80 DUP2 PUSH20 0xFFFFFFFFFFFFFFFFFFFFFFFFFFFFFFFFFFFFFFFF AND DUP2 MSTORE POP POP POP POP PUSH3 0x385 JUMP JUMPDEST PUSH0 DUP1 PUSH0 SWAP1 SLOAD SWAP1 PUSH2 0x100 EXP SWAP1 DIV PUSH20 0xFFFFFFFFFFFFFFFFFFFFFFFFFFFFFFFFFFFFFFFF AND SWAP1 POP DUP2 PUSH0 DUP1 PUSH2 0x100 EXP DUP2 SLOAD DUP2 PUSH20 0xFFFFFFFFFFFFFFFFFFFFFFFFFFFFFFFFFFFFFFFF MUL NOT AND SWAP1 DUP4 PUSH20 0xFFFFFFFFFFFFFFFFFFFFFFFFFFFFFFFFFFFFFFFF AND MUL OR SWAP1 SSTORE POP DUP2 PUSH20 0xFFFFFFFFFFFFFFFFFFFFFFFFFFFFFFFFFFFFFFFF AND DUP2 PUSH20 0xFFFFFFFFFFFFFFFFFFFFFFFFFFFFFFFFFFFFFFFF AND PUSH32 0x8BE0079C531659141344CD1FD0A4F28419497F9722A3DAAFE3B4186F6B6457E0 PUSH1 0x40 MLOAD PUSH1 0x40 MLOAD DUP1 SWAP2 SUB SWAP1 LOG3 POP POP JUMP JUMPDEST PUSH0 DUP1 REVERT JUMPDEST PUSH0 PUSH20 0xFFFFFFFFFFFFFFFFFFFFFFFFFFFFFFFFFFFFFFFF DUP3 AND SWAP1 POP SWAP2 SWAP1 POP JUMP JUMPDEST PUSH0 PUSH3 0x260 DUP3 PUSH3 0x235 JUMP JUMPDEST SWAP1 POP SWAP2 SWAP1 POP JUMP JUMPDEST PUSH3 0x272 DUP2 PUSH3 0x254 JUMP JUMPDEST DUP2 EQ PUSH3 0x27D JUMPI PUSH0 DUP1 REVERT JUMPDEST POP JUMP JUMPDEST PUSH0 DUP2 MLOAD SWAP1 POP PUSH3 0x290 DUP2 PUSH3 0x267 JUMP JUMPDEST SWAP3 SWAP2 POP POP JUMP JUMPDEST PUSH0 DUP1 PUSH1 0x40 DUP4 DUP6 SUB SLT ISZERO PUSH3 0x2AF JUMPI PUSH3 0x2AE PUSH3 0x231 JUMP JUMPDEST JUMPDEST PUSH0 PUSH3 0x2BE DUP6 DUP3 DUP7 ADD PUSH3 0x280 JUMP JUMPDEST SWAP3 POP POP PUSH1 0x20 PUSH3 0x2D1 DUP6 DUP3 DUP7 ADD PUSH3 0x280 JUMP JUMPDEST SWAP2 POP POP SWAP3 POP SWAP3 SWAP1 POP JUMP JUMPDEST PUSH3 0x2E6 DUP2 PUSH3 0x254 JUMP JUMPDEST DUP3 MSTORE POP POP JUMP JUMPDEST PUSH0 PUSH1 0x20 DUP3 ADD SWAP1 POP PUSH3 0x301 PUSH0 DUP4 ADD DUP5 PUSH3 0x2DB JUMP JUMPDEST SWAP3 SWAP2 POP POP JUMP JUMPDEST PUSH0 DUP3 DUP3 MSTORE PUSH1 0x20 DUP3 ADD SWAP1 POP SWAP3 SWAP2 POP POP JUMP JUMPDEST PUSH32 0x546F6B656E20696E76616C69646F000000000000000000000000000000000000 PUSH0 DUP3 ADD MSTORE POP JUMP JUMPDEST PUSH0 PUSH3 0x34D PUSH1 0xE DUP4 PUSH3 0x307 JUMP JUMPDEST SWAP2 POP PUSH3 0x35A DUP3 PUSH3 0x317 JUMP JUMPDEST PUSH1 0x20 DUP3 ADD SWAP1 POP SWAP2 SWAP1 POP JUMP JUMPDEST PUSH0 PUSH1 0x20 DUP3 ADD SWAP1 POP DUP2 DUP2 SUB PUSH0 DUP4 ADD MSTORE PUSH3 0x37E DUP2 PUSH3 0x33F JUMP JUMPDEST SWAP1 POP SWAP2 SWAP1 POP JUMP JUMPDEST PUSH1 0x80 MLOAD PUSH2 0x19FC PUSH3 0x3AC PUSH0 CODECOPY PUSH0 DUP2 DUP2 PUSH2 0x545 ADD MSTORE DUP2 DUP2 PUSH2 0x67F ADD MSTORE PUSH2 0xA96 ADD MSTORE PUSH2 0x19FC PUSH0 RETURN INVALID PUSH1 0x80 PUSH1 0x40 MSTORE CALLVALUE DUP1 ISZERO PUSH2 0xF JUMPI PUSH0 DUP1 REVERT JUMPDEST POP PUSH1 0x4 CALLDATASIZE LT PUSH2 0xA7 JUMPI PUSH0 CALLDATALOAD PUSH1 0xE0 SHR DUP1 PUSH4 0x915439FB GT PUSH2 0x6F JUMPI DUP1 PUSH4 0x915439FB EQ PUSH2 0x13D JUMPI DUP1 PUSH4 0x94CEC7A7 EQ PUSH2 0x159 JUMPI DUP1 PUSH4 0x9F2EFB40 EQ PUSH2 0x189 JUMPI DUP1 PUSH4 0xE71C9697 EQ PUSH2 0x1A5 JUMPI DUP1 PUSH4 0xF2FDE38B EQ PUSH2 0x1C1 JUMPI DUP1 PUSH4 0xF644B3BB EQ PUSH2 0x1DD JUMPI PUSH2 0xA7 JUMP JUMPDEST DUP1 PUSH4 0x14794702 EQ PUSH2 0xAB JUMPI DUP1 PUSH4 0x5B0FC6E8 EQ PUSH2 0xC7 JUMPI DUP1 PUSH4 0x715018A6 EQ PUSH2 0xE5 JUMPI DUP1 PUSH4 0x885735A5 EQ PUSH2 0xEF JUMPI DUP1 PUSH4 0x8DA5CB5B EQ PUSH2 0x11F JUMPI JUMPDEST PUSH0 DUP1 REVERT JUMPDEST PUSH2 0xC5 PUSH1 0x4 DUP1 CALLDATASIZE SUB DUP2 ADD SWAP1 PUSH2 0xC0 SWAP2 SWAP1 PUSH2 0xF49 JUMP JUMPDEST PUSH2 0x210 JUMP JUMPDEST STOP JUMPDEST PUSH2 0xCF PUSH2 0x67D JUMP JUMPDEST PUSH1 0x40 MLOAD PUSH2 0xDC SWAP2 SWAP1 PUSH2 0xFEE JUMP JUMPDEST PUSH1 0x40 MLOAD DUP1 SWAP2 SUB SWAP1 RETURN JUMPDEST PUSH2 0xED PUSH2 0x6A1 JUMP JUMPDEST STOP JUMPDEST PUSH2 0x109 PUSH1 0x4 DUP1 CALLDATASIZE SUB DUP2 ADD SWAP1 PUSH2 0x104 SWAP2 SWAP1 PUSH2 0xF49 JUMP JUMPDEST PUSH2 0x6B4 JUMP JUMPDEST PUSH1 0x40 MLOAD PUSH2 0x116 SWAP2 SWAP1 PUSH2 0x1021 JUMP JUMPDEST PUSH1 0x40 MLOAD DUP1 SWAP2 SUB SWAP1 RETURN JUMPDEST PUSH2 0x127 PUSH2 0x6D1 JUMP JUMPDEST PUSH1 0x40 MLOAD PUSH2 0x134 SWAP2 SWAP1 PUSH2 0x105A JUMP JUMPDEST PUSH1 0x40 MLOAD DUP1 SWAP2 SUB SWAP1 RETURN JUMPDEST PUSH2 0x157 PUSH1 0x4 DUP1 CALLDATASIZE SUB DUP2 ADD SWAP1 PUSH2 0x152 SWAP2 SWAP1 PUSH2 0x109D JUMP JUMPDEST PUSH2 0x6F8 JUMP JUMPDEST STOP JUMPDEST PUSH2 0x173 PUSH1 0x4 DUP1 CALLDATASIZE SUB DUP2 ADD SWAP1 PUSH2 0x16E SWAP2 SWAP1 PUSH2 0x1105 JUMP JUMPDEST PUSH2 0x7C2 JUMP JUMPDEST PUSH1 0x40 MLOAD PUSH2 0x180 SWAP2 SWAP1 PUSH2 0x1021 JUMP JUMPDEST PUSH1 0x40 MLOAD DUP1 SWAP2 SUB SWAP1 RETURN JUMPDEST PUSH2 0x1A3 PUSH1 0x4 DUP1 CALLDATASIZE SUB DUP2 ADD SWAP1 PUSH2 0x19E SWAP2 SWAP1 PUSH2 0x1143 JUMP JUMPDEST PUSH2 0x7EC JUMP JUMPDEST STOP JUMPDEST PUSH2 0x1BF PUSH1 0x4 DUP1 CALLDATASIZE SUB DUP2 ADD SWAP1 PUSH2 0x1BA SWAP2 SWAP1 PUSH2 0x1193 JUMP JUMPDEST PUSH2 0x917 JUMP JUMPDEST STOP JUMPDEST PUSH2 0x1DB PUSH1 0x4 DUP1 CALLDATASIZE SUB DUP2 ADD SWAP1 PUSH2 0x1D6 SWAP2 SWAP1 PUSH2 0x11E3 JUMP JUMPDEST PUSH2 0xC97 JUMP JUMPDEST STOP JUMPDEST PUSH2 0x1F7 PUSH1 0x4 DUP1 CALLDATASIZE SUB DUP2 ADD SWAP1 PUSH2 0x1F2 SWAP2 SWAP1 PUSH2 0x1105 JUMP JUMPDEST PUSH2 0xD1B JUMP JUMPDEST PUSH1 0x40 MLOAD PUSH2 0x207 SWAP5 SWAP4 SWAP3 SWAP2 SWAP1 PUSH2 0x121D JUMP JUMPDEST PUSH1 0x40 MLOAD DUP1 SWAP2 SUB SWAP1 RETURN JUMPDEST PUSH2 0x218 PUSH2 0xD6B JUMP JUMPDEST PUSH0 PUSH1 0x2 PUSH0 DUP4 DUP2 MSTORE PUSH1 0x20 ADD SWAP1 DUP2 MSTORE PUSH1 0x20 ADD PUSH0 KECCAK256 PUSH0 CALLER PUSH20 0xFFFFFFFFFFFFFFFFFFFFFFFFFFFFFFFFFFFFFFFF AND PUSH20 0xFFFFFFFFFFFFFFFFFFFFFFFFFFFFFFFFFFFFFFFF AND DUP2 MSTORE PUSH1 0x20 ADD SWAP1 DUP2 MSTORE PUSH1 0x20 ADD PUSH0 KECCAK256 SWAP1 POP PUSH0 DUP2 PUSH0 ADD SLOAD GT PUSH2 0x2AC JUMPI PUSH1 0x40 MLOAD PUSH32 0x8C379A000000000000000000000000000000000000000000000000000000000 DUP2 MSTORE PUSH1 0x4 ADD PUSH2 0x2A3 SWAP1 PUSH2 0x12BA JUMP JUMPDEST PUSH1 0x40 MLOAD DUP1 SWAP2 SUB SWAP1 REVERT JUMPDEST DUP1 PUSH1 0x2 ADD PUSH0 SWAP1 SLOAD SWAP1 PUSH2 0x100 EXP SWAP1 DIV PUSH1 0xFF AND PUSH2 0x2FC JUMPI PUSH1 0x40 MLOAD PUSH32 0x8C379A000000000000000000000000000000000000000000000000000000000 DUP2 MSTORE PUSH1 0x4 ADD PUSH2 0x2F3 SWAP1 PUSH2 0x1322 JUMP JUMPDEST PUSH1 0x40 MLOAD DUP1 SWAP2 SUB SWAP1 REVERT JUMPDEST DUP1 PUSH1 0x2 ADD PUSH1 0x1 SWAP1 SLOAD SWAP1 PUSH2 0x100 EXP SWAP1 DIV PUSH1 0xFF AND PUSH2 0x34D JUMPI PUSH1 0x40 MLOAD PUSH32 0x8C379A000000000000000000000000000000000000000000000000000000000 DUP2 MSTORE PUSH1 0x4 ADD PUSH2 0x344 SWAP1 PUSH2 0x138A JUMP JUMPDEST PUSH1 0x40 MLOAD DUP1 SWAP2 SUB SWAP1 REVERT JUMPDEST PUSH1 0x4 PUSH0 DUP4 DUP2 MSTORE PUSH1 0x20 ADD SWAP1 DUP2 MSTORE PUSH1 0x20 ADD PUSH0 KECCAK256 PUSH0 CALLER PUSH20 0xFFFFFFFFFFFFFFFFFFFFFFFFFFFFFFFFFFFFFFFF AND PUSH20 0xFFFFFFFFFFFFFFFFFFFFFFFFFFFFFFFFFFFFFFFF AND DUP2 MSTORE PUSH1 0x20 ADD SWAP1 DUP2 MSTORE PUSH1 0x20 ADD PUSH0 KECCAK256 PUSH0 SWAP1 SLOAD SWAP1 PUSH2 0x100 EXP SWAP1 DIV PUSH1 0xFF AND ISZERO PUSH2 0x3E6 JUMPI PUSH1 0x40 MLOAD PUSH32 0x8C379A000000000000000000000000000000000000000000000000000000000 DUP2 MSTORE PUSH1 0x4 ADD PUSH2 0x3DD SWAP1 PUSH2 0x13F2 JUMP JUMPDEST PUSH1 0x40 MLOAD DUP1 SWAP2 SUB SWAP1 REVERT JUMPDEST PUSH0 PUSH1 0x64 DUP3 PUSH1 0x1 ADD SLOAD DUP4 PUSH0 ADD SLOAD PUSH2 0x3FC SWAP2 SWAP1 PUSH2 0x143D JUMP JUMPDEST PUSH2 0x406 SWAP2 SWAP1 PUSH2 0x14AB JUMP JUMPDEST SWAP1 POP PUSH2 0x3E8 DUP3 PUSH0 ADD SLOAD PUSH2 0x419 SWAP2 SWAP1 PUSH2 0x143D JUMP JUMPDEST DUP2 GT ISZERO PUSH2 0x45B JUMPI PUSH1 0x40 MLOAD PUSH32 0x8C379A000000000000000000000000000000000000000000000000000000000 DUP2 MSTORE PUSH1 0x4 ADD PUSH2 0x452 SWAP1 PUSH2 0x1525 JUMP JUMPDEST PUSH1 0x40 MLOAD DUP1 SWAP2 SUB SWAP1 REVERT JUMPDEST PUSH1 0x1 PUSH1 0x4 PUSH0 DUP6 DUP2 MSTORE PUSH1 0x20 ADD SWAP1 DUP2 MSTORE PUSH1 0x20 ADD PUSH0 KECCAK256 PUSH0 CALLER PUSH20 0xFFFFFFFFFFFFFFFFFFFFFFFFFFFFFFFFFFFFFFFF AND PUSH20 0xFFFFFFFFFFFFFFFFFFFFFFFFFFFFFFFFFFFFFFFF AND DUP2 MSTORE PUSH1 0x20 ADD SWAP1 DUP2 MSTORE PUSH1 0x20 ADD PUSH0 KECCAK256 PUSH0 PUSH2 0x100 EXP DUP2 SLOAD DUP2 PUSH1 0xFF MUL NOT AND SWAP1 DUP4 ISZERO ISZERO MUL OR SWAP1 SSTORE POP PUSH1 0x2 PUSH0 DUP5 DUP2 MSTORE PUSH1 0x20 ADD SWAP1 DUP2 MSTORE PUSH1 0x20 ADD PUSH0 KECCAK256 PUSH0 CALLER PUSH20 0xFFFFFFFFFFFFFFFFFFFFFFFFFFFFFFFFFFFFFFFF AND PUSH20 0xFFFFFFFFFFFFFFFFFFFFFFFFFFFFFFFFFFFFFFFF AND DUP2 MSTORE PUSH1 0x20 ADD SWAP1 DUP2 MSTORE PUSH1 0x20 ADD PUSH0 KECCAK256 PUSH0 DUP1 DUP3 ADD PUSH0 SWAP1 SSTORE PUSH1 0x1 DUP3 ADD PUSH0 SWAP1 SSTORE PUSH1 0x2 DUP3 ADD PUSH0 PUSH2 0x100 EXP DUP2 SLOAD SWAP1 PUSH1 0xFF MUL NOT AND SWAP1 SSTORE PUSH1 0x2 DUP3 ADD PUSH1 0x1 PUSH2 0x100 EXP DUP2 SLOAD SWAP1 PUSH1 0xFF MUL NOT AND SWAP1 SSTORE POP POP PUSH0 PUSH32 0x0 PUSH20 0xFFFFFFFFFFFFFFFFFFFFFFFFFFFFFFFFFFFFFFFF AND PUSH4 0xA9059CBB CALLER DUP5 PUSH1 0x40 MLOAD DUP4 PUSH4 0xFFFFFFFF AND PUSH1 0xE0 SHL DUP2 MSTORE PUSH1 0x4 ADD PUSH2 0x59E SWAP3 SWAP2 SWAP1 PUSH2 0x1543 JUMP JUMPDEST PUSH1 0x20 PUSH1 0x40 MLOAD DUP1 DUP4 SUB DUP2 PUSH0 DUP8 GAS CALL ISZERO DUP1 ISZERO PUSH2 0x5BA JUMPI RETURNDATASIZE PUSH0 DUP1 RETURNDATACOPY RETURNDATASIZE PUSH0 REVERT JUMPDEST POP POP POP POP PUSH1 0x40 MLOAD RETURNDATASIZE PUSH1 0x1F NOT PUSH1 0x1F DUP3 ADD AND DUP3 ADD DUP1 PUSH1 0x40 MSTORE POP DUP2 ADD SWAP1 PUSH2 0x5DE SWAP2 SWAP1 PUSH2 0x157E JUMP JUMPDEST SWAP1 POP DUP1 PUSH2 0x620 JUMPI PUSH1 0x40 MLOAD PUSH32 0x8C379A000000000000000000000000000000000000000000000000000000000 DUP2 MSTORE PUSH1 0x4 ADD PUSH2 0x617 SWAP1 PUSH2 0x15F3 JUMP JUMPDEST PUSH1 0x40 MLOAD DUP1 SWAP2 SUB SWAP1 REVERT JUMPDEST DUP4 CALLER PUSH20 0xFFFFFFFFFFFFFFFFFFFFFFFFFFFFFFFFFFFFFFFF AND PUSH32 0x64BD7C266EDCE1B240F0ED2697CDCA2E2478FB1DBC18EC833F80CDA28A34C029 DUP5 PUSH1 0x40 MLOAD PUSH2 0x667 SWAP2 SWAP1 PUSH2 0x1611 JUMP JUMPDEST PUSH1 0x40 MLOAD DUP1 SWAP2 SUB SWAP1 LOG3 POP POP POP PUSH2 0x67A PUSH2 0xDBA JUMP JUMPDEST POP JUMP JUMPDEST PUSH32 0x0 DUP2 JUMP JUMPDEST PUSH2 0x6A9 PUSH2 0xDC3 JUMP JUMPDEST PUSH2 0x6B2 PUSH0 PUSH2 0xE4A JUMP JUMPDEST JUMP JUMPDEST PUSH1 0x3 PUSH1 0x20 MSTORE DUP1 PUSH0 MSTORE PUSH1 0x40 PUSH0 KECCAK256 PUSH0 SWAP2 POP SLOAD SWAP1 PUSH2 0x100 EXP SWAP1 DIV PUSH1 0xFF AND DUP2 JUMP JUMPDEST PUSH0 DUP1 PUSH0 SWAP1 SLOAD SWAP1 PUSH2 0x100 EXP SWAP1 DIV PUSH20 0xFFFFFFFFFFFFFFFFFFFFFFFFFFFFFFFFFFFFFFFF AND SWAP1 POP SWAP1 JUMP JUMPDEST PUSH2 0x700 PUSH2 0xDC3 JUMP JUMPDEST PUSH1 0x3 PUSH0 DUP4 DUP2 MSTORE PUSH1 0x20 ADD SWAP1 DUP2 MSTORE PUSH1 0x20 ADD PUSH0 KECCAK256 PUSH0 SWAP1 SLOAD SWAP1 PUSH2 0x100 EXP SWAP1 DIV PUSH1 0xFF AND ISZERO PUSH2 0x75E JUMPI PUSH1 0x40 MLOAD PUSH32 0x8C379A000000000000000000000000000000000000000000000000000000000 DUP2 MSTORE PUSH1 0x4 ADD PUSH2 0x755 SWAP1 PUSH2 0x1674 JUMP JUMPDEST PUSH1 0x40 MLOAD DUP1 SWAP2 SUB SWAP1 REVERT JUMPDEST DUP1 PUSH1 0x3 PUSH0 DUP5 DUP2 MSTORE PUSH1 0x20 ADD SWAP1 DUP2 MSTORE PUSH1 0x20 ADD PUSH0 KECCAK256 PUSH0 PUSH2 0x100 EXP DUP2 SLOAD DUP2 PUSH1 0xFF MUL NOT AND SWAP1 DUP4 ISZERO ISZERO MUL OR SWAP1 SSTORE POP DUP2 PUSH32 0x17124873AEC4A4B1BA3660B40D20291D60E85C85F1F19C45B09715A01178133F DUP3 PUSH1 0x40 MLOAD PUSH2 0x7B6 SWAP2 SWAP1 PUSH2 0x1021 JUMP JUMPDEST PUSH1 0x40 MLOAD DUP1 SWAP2 SUB SWAP1 LOG2 POP POP JUMP JUMPDEST PUSH1 0x4 PUSH1 0x20 MSTORE DUP2 PUSH0 MSTORE PUSH1 0x40 PUSH0 KECCAK256 PUSH1 0x20 MSTORE DUP1 PUSH0 MSTORE PUSH1 0x40 PUSH0 KECCAK256 PUSH0 SWAP2 POP SWAP2 POP SWAP1 SLOAD SWAP1 PUSH2 0x100 EXP SWAP1 DIV PUSH1 0xFF AND DUP2 JUMP JUMPDEST PUSH2 0x7F4 PUSH2 0xDC3 JUMP JUMPDEST PUSH0 PUSH1 0x2 PUSH0 DUP5 DUP2 MSTORE PUSH1 0x20 ADD SWAP1 DUP2 MSTORE PUSH1 0x20 ADD PUSH0 KECCAK256 PUSH0 DUP6 PUSH20 0xFFFFFFFFFFFFFFFFFFFFFFFFFFFFFFFFFFFFFFFF AND PUSH20 0xFFFFFFFFFFFFFFFFFFFFFFFFFFFFFFFFFFFFFFFF AND DUP2 MSTORE PUSH1 0x20 ADD SWAP1 DUP2 MSTORE PUSH1 0x20 ADD PUSH0 KECCAK256 SWAP1 POP PUSH0 DUP2 PUSH0 ADD SLOAD GT PUSH2 0x888 JUMPI PUSH1 0x40 MLOAD PUSH32 0x8C379A000000000000000000000000000000000000000000000000000000000 DUP2 MSTORE PUSH1 0x4 ADD PUSH2 0x87F SWAP1 PUSH2 0x16DC JUMP JUMPDEST PUSH1 0x40 MLOAD DUP1 SWAP2 SUB SWAP1 REVERT JUMPDEST DUP1 PUSH1 0x2 ADD PUSH0 SWAP1 SLOAD SWAP1 PUSH2 0x100 EXP SWAP1 DIV PUSH1 0xFF AND ISZERO PUSH2 0x8D9 JUMPI PUSH1 0x40 MLOAD PUSH32 0x8C379A000000000000000000000000000000000000000000000000000000000 DUP2 MSTORE PUSH1 0x4 ADD PUSH2 0x8D0 SWAP1 PUSH2 0x1744 JUMP JUMPDEST PUSH1 0x40 MLOAD DUP1 SWAP2 SUB SWAP1 REVERT JUMPDEST PUSH1 0x1 DUP2 PUSH1 0x2 ADD PUSH0 PUSH2 0x100 EXP DUP2 SLOAD DUP2 PUSH1 0xFF MUL NOT AND SWAP1 DUP4 ISZERO ISZERO MUL OR SWAP1 SSTORE POP DUP2 DUP2 PUSH1 0x2 ADD PUSH1 0x1 PUSH2 0x100 EXP DUP2 SLOAD DUP2 PUSH1 0xFF MUL NOT AND SWAP1 DUP4 ISZERO ISZERO MUL OR SWAP1 SSTORE POP POP POP POP POP JUMP JUMPDEST PUSH2 0x91F PUSH2 0xD6B JUMP JUMPDEST PUSH0 DUP3 GT PUSH2 0x961 JUMPI PUSH1 0x40 MLOAD PUSH32 0x8C379A000000000000000000000000000000000000000000000000000000000 DUP2 MSTORE PUSH1 0x4 ADD PUSH2 0x958 SWAP1 PUSH2 0x17AC JUMP JUMPDEST PUSH1 0x40 MLOAD DUP1 SWAP2 SUB SWAP1 REVERT JUMPDEST PUSH1 0x64 DUP2 LT ISZERO PUSH2 0x9A5 JUMPI PUSH1 0x40 MLOAD PUSH32 0x8C379A000000000000000000000000000000000000000000000000000000000 DUP2 MSTORE PUSH1 0x4 ADD PUSH2 0x99C SWAP1 PUSH2 0x1814 JUMP JUMPDEST PUSH1 0x40 MLOAD DUP1 SWAP2 SUB SWAP1 REVERT JUMPDEST PUSH0 PUSH1 0x2 PUSH0 DUP6 DUP2 MSTORE PUSH1 0x20 ADD SWAP1 DUP2 MSTORE PUSH1 0x20 ADD PUSH0 KECCAK256 PUSH0 CALLER PUSH20 0xFFFFFFFFFFFFFFFFFFFFFFFFFFFFFFFFFFFFFFFF AND PUSH20 0xFFFFFFFFFFFFFFFFFFFFFFFFFFFFFFFFFFFFFFFF AND DUP2 MSTORE PUSH1 0x20 ADD SWAP1 DUP2 MSTORE PUSH1 0x20 ADD PUSH0 KECCAK256 PUSH0 ADD SLOAD EQ PUSH2 0xA35 JUMPI PUSH1 0x40 MLOAD PUSH32 0x8C379A000000000000000000000000000000000000000000000000000000000 DUP2 MSTORE PUSH1 0x4 ADD PUSH2 0xA2C SWAP1 PUSH2 0x187C JUMP JUMPDEST PUSH1 0x40 MLOAD DUP1 SWAP2 SUB SWAP1 REVERT JUMPDEST PUSH1 0x3 PUSH0 DUP5 DUP2 MSTORE PUSH1 0x20 ADD SWAP1 DUP2 MSTORE PUSH1 0x20 ADD PUSH0 KECCAK256 PUSH0 SWAP1 SLOAD SWAP1 PUSH2 0x100 EXP SWAP1 DIV PUSH1 0xFF AND ISZERO PUSH2 0xA93 JUMPI PUSH1 0x40 MLOAD PUSH32 0x8C379A000000000000000000000000000000000000000000000000000000000 DUP2 MSTORE PUSH1 0x4 ADD PUSH2 0xA8A SWAP1 PUSH2 0x18E4 JUMP JUMPDEST PUSH1 0x40 MLOAD DUP1 SWAP2 SUB SWAP1 REVERT JUMPDEST PUSH0 PUSH32 0x0 PUSH20 0xFFFFFFFFFFFFFFFFFFFFFFFFFFFFFFFFFFFFFFFF AND PUSH4 0x23B872DD CALLER ADDRESS DUP7 PUSH1 0x40 MLOAD DUP5 PUSH4 0xFFFFFFFF AND PUSH1 0xE0 SHL DUP2 MSTORE PUSH1 0x4 ADD PUSH2 0xAF1 SWAP4 SWAP3 SWAP2 SWAP1 PUSH2 0x1902 JUMP JUMPDEST PUSH1 0x20 PUSH1 0x40 MLOAD DUP1 DUP4 SUB DUP2 PUSH0 DUP8 GAS CALL ISZERO DUP1 ISZERO PUSH2 0xB0D JUMPI RETURNDATASIZE PUSH0 DUP1 RETURNDATACOPY RETURNDATASIZE PUSH0 REVERT JUMPDEST POP POP POP POP PUSH1 0x40 MLOAD RETURNDATASIZE PUSH1 0x1F NOT PUSH1 0x1F DUP3 ADD AND DUP3 ADD DUP1 PUSH1 0x40 MSTORE POP DUP2 ADD SWAP1 PUSH2 0xB31 SWAP2 SWAP1 PUSH2 0x157E JUMP JUMPDEST SWAP1 POP DUP1 PUSH2 0xB73 JUMPI PUSH1 0x40 MLOAD PUSH32 0x8C379A000000000000000000000000000000000000000000000000000000000 DUP2 MSTORE PUSH1 0x4 ADD PUSH2 0xB6A SWAP1 PUSH2 0x15F3 JUMP JUMPDEST PUSH1 0x40 MLOAD DUP1 SWAP2 SUB SWAP1 REVERT JUMPDEST PUSH1 0x40 MLOAD DUP1 PUSH1 0x80 ADD PUSH1 0x40 MSTORE DUP1 DUP5 DUP2 MSTORE PUSH1 0x20 ADD DUP4 DUP2 MSTORE PUSH1 0x20 ADD PUSH0 ISZERO ISZERO DUP2 MSTORE PUSH1 0x20 ADD PUSH0 ISZERO ISZERO DUP2 MSTORE POP PUSH1 0x2 PUSH0 DUP7 DUP2 MSTORE PUSH1 0x20 ADD SWAP1 DUP2 MSTORE PUSH1 0x20 ADD PUSH0 KECCAK256 PUSH0 CALLER PUSH20 0xFFFFFFFFFFFFFFFFFFFFFFFFFFFFFFFFFFFFFFFF AND PUSH20 0xFFFFFFFFFFFFFFFFFFFFFFFFFFFFFFFFFFFFFFFF AND DUP2 MSTORE PUSH1 0x20 ADD SWAP1 DUP2 MSTORE PUSH1 0x20 ADD PUSH0 KECCAK256 PUSH0 DUP3 ADD MLOAD DUP2 PUSH0 ADD SSTORE PUSH1 0x20 DUP3 ADD MLOAD DUP2 PUSH1 0x1 ADD SSTORE PUSH1 0x40 DUP3 ADD MLOAD DUP2 PUSH1 0x2 ADD PUSH0 PUSH2 0x100 EXP DUP2 SLOAD DUP2 PUSH1 0xFF MUL NOT AND SWAP1 DUP4 ISZERO ISZERO MUL OR SWAP1 SSTORE POP PUSH1 0x60 DUP3 ADD MLOAD DUP2 PUSH1 0x2 ADD PUSH1 0x1 PUSH2 0x100 EXP DUP2 SLOAD DUP2 PUSH1 0xFF MUL NOT AND SWAP1 DUP4 ISZERO ISZERO MUL OR SWAP1 SSTORE POP SWAP1 POP POP DUP4 CALLER PUSH20 0xFFFFFFFFFFFFFFFFFFFFFFFFFFFFFFFFFFFFFFFF AND PUSH32 0x7363E6581DF4DB69463222156BE4A09656528B9F1302890FA4C0B60819B69FC6 DUP6 DUP6 PUSH1 0x40 MLOAD PUSH2 0xC81 SWAP3 SWAP2 SWAP1 PUSH2 0x1937 JUMP JUMPDEST PUSH1 0x40 MLOAD DUP1 SWAP2 SUB SWAP1 LOG3 POP PUSH2 0xC92 PUSH2 0xDBA JUMP JUMPDEST POP POP POP JUMP JUMPDEST PUSH2 0xC9F PUSH2 0xDC3 JUMP JUMPDEST PUSH0 PUSH20 0xFFFFFFFFFFFFFFFFFFFFFFFFFFFFFFFFFFFFFFFF AND DUP2 PUSH20 0xFFFFFFFFFFFFFFFFFFFFFFFFFFFFFFFFFFFFFFFF AND SUB PUSH2 0xD0F JUMPI PUSH0 PUSH1 0x40 MLOAD PUSH32 0x1E4FBDF700000000000000000000000000000000000000000000000000000000 DUP2 MSTORE PUSH1 0x4 ADD PUSH2 0xD06 SWAP2 SWAP1 PUSH2 0x105A JUMP JUMPDEST PUSH1 0x40 MLOAD DUP1 SWAP2 SUB SWAP1 REVERT JUMPDEST PUSH2 0xD18 DUP2 PUSH2 0xE4A JUMP JUMPDEST POP JUMP JUMPDEST PUSH1 0x2 PUSH1 0x20 MSTORE DUP2 PUSH0 MSTORE PUSH1 0x40 PUSH0 KECCAK256 PUSH1 0x20 MSTORE DUP1 PUSH0 MSTORE PUSH1 0x40 PUSH0 KECCAK256 PUSH0 SWAP2 POP SWAP2 POP POP DUP1 PUSH0 ADD SLOAD SWAP1 DUP1 PUSH1 0x1 ADD SLOAD SWAP1 DUP1 PUSH1 0x2 ADD PUSH0 SWAP1 SLOAD SWAP1 PUSH2 0x100 EXP SWAP1 DIV PUSH1 0xFF AND SWAP1 DUP1 PUSH1 0x2 ADD PUSH1 0x1 SWAP1 SLOAD SWAP1 PUSH2 0x100 EXP SWAP1 DIV PUSH1 0xFF AND SWAP1 POP DUP5 JUMP JUMPDEST PUSH1 0x2 PUSH1 0x1 SLOAD SUB PUSH2 0xDB0 JUMPI PUSH1 0x40 MLOAD PUSH32 0x8C379A000000000000000000000000000000000000000000000000000000000 DUP2 MSTORE PUSH1 0x4 ADD PUSH2 0xDA7 SWAP1 PUSH2 0x19A8 JUMP JUMPDEST PUSH1 0x40 MLOAD DUP1 SWAP2 SUB SWAP1 REVERT JUMPDEST PUSH1 0x2 PUSH1 0x1 DUP2 SWAP1 SSTORE POP JUMP JUMPDEST PUSH1 0x1 DUP1 DUP2 SWAP1 SSTORE POP JUMP JUMPDEST PUSH2 0xDCB PUSH2 0xF0B JUMP JUMPDEST PUSH20 0xFFFFFFFFFFFFFFFFFFFFFFFFFFFFFFFFFFFFFFFF AND PUSH2 0xDE9 PUSH2 0x6D1 JUMP JUMPDEST PUSH20 0xFFFFFFFFFFFFFFFFFFFFFFFFFFFFFFFFFFFFFFFF AND EQ PUSH2 0xE48 JUMPI PUSH2 0xE0C PUSH2 0xF0B JUMP JUMPDEST PUSH1 0x40 MLOAD PUSH32 0x118CDAA700000000000000000000000000000000000000000000000000000000 DUP2 MSTORE PUSH1 0x4 ADD PUSH2 0xE3F SWAP2 SWAP1 PUSH2 0x105A JUMP JUMPDEST PUSH1 0x40 MLOAD DUP1 SWAP2 SUB SWAP1 REVERT JUMPDEST JUMP JUMPDEST PUSH0 DUP1 PUSH0 SWAP1 SLOAD SWAP1 PUSH2 0x100 EXP SWAP1 DIV PUSH20 0xFFFFFFFFFFFFFFFFFFFFFFFFFFFFFFFFFFFFFFFF AND SWAP1 POP DUP2 PUSH0 DUP1 PUSH2 0x100 EXP DUP2 SLOAD DUP2 PUSH20 0xFFFFFFFFFFFFFFFFFFFFFFFFFFFFFFFFFFFFFFFF MUL NOT AND SWAP1 DUP4 PUSH20 0xFFFFFFFFFFFFFFFFFFFFFFFFFFFFFFFFFFFFFFFF AND MUL OR SWAP1 SSTORE POP DUP2 PUSH20 0xFFFFFFFFFFFFFFFFFFFFFFFFFFFFFFFFFFFFFFFF AND DUP2 PUSH20 0xFFFFFFFFFFFFFFFFFFFFFFFFFFFFFFFFFFFFFFFF AND PUSH32 0x8BE0079C531659141344CD1FD0A4F28419497F9722A3DAAFE3B4186F6B6457E0 PUSH1 0x40 MLOAD PUSH1 0x40 MLOAD DUP1 SWAP2 SUB SWAP1 LOG3 POP POP JUMP JUMPDEST PUSH0 CALLER SWAP1 POP SWAP1 JUMP JUMPDEST PUSH0 DUP1 REVERT JUMPDEST PUSH0 DUP2 SWAP1 POP SWAP2 SWAP1 POP JUMP JUMPDEST PUSH2 0xF28 DUP2 PUSH2 0xF16 JUMP JUMPDEST DUP2 EQ PUSH2 0xF32 JUMPI PUSH0 DUP1 REVERT JUMPDEST POP JUMP JUMPDEST PUSH0 DUP2 CALLDATALOAD SWAP1 POP PUSH2 0xF43 DUP2 PUSH2 0xF1F JUMP JUMPDEST SWAP3 SWAP2 POP POP JUMP JUMPDEST PUSH0 PUSH1 0x20 DUP3 DUP5 SUB SLT ISZERO PUSH2 0xF5E JUMPI PUSH2 0xF5D PUSH2 0xF12 JUMP JUMPDEST JUMPDEST PUSH0 PUSH2 0xF6B DUP5 DUP3 DUP6 ADD PUSH2 0xF35 JUMP JUMPDEST SWAP2 POP POP SWAP3 SWAP2 POP POP JUMP JUMPDEST PUSH0 PUSH20 0xFFFFFFFFFFFFFFFFFFFFFFFFFFFFFFFFFFFFFFFF DUP3 AND SWAP1 POP SWAP2 SWAP1 POP JUMP JUMPDEST PUSH0 DUP2 SWAP1 POP SWAP2 SWAP1 POP JUMP JUMPDEST PUSH0 PUSH2 0xFB6 PUSH2 0xFB1 PUSH2 0xFAC DUP5 PUSH2 0xF74 JUMP JUMPDEST PUSH2 0xF93 JUMP JUMPDEST PUSH2 0xF74 JUMP JUMPDEST SWAP1 POP SWAP2 SWAP1 POP JUMP JUMPDEST PUSH0 PUSH2 0xFC7 DUP3 PUSH2 0xF9C JUMP JUMPDEST SWAP1 POP SWAP2 SWAP1 POP JUMP JUMPDEST PUSH0 PUSH2 0xFD8 DUP3 PUSH2 0xFBD JUMP JUMPDEST SWAP1 POP SWAP2 SWAP1 POP JUMP JUMPDEST PUSH2 0xFE8 DUP2 PUSH2 0xFCE JUMP JUMPDEST DUP3 MSTORE POP POP JUMP JUMPDEST PUSH0 PUSH1 0x20 DUP3 ADD SWAP1 POP PUSH2 0x1001 PUSH0 DUP4 ADD DUP5 PUSH2 0xFDF JUMP JUMPDEST SWAP3 SWAP2 POP POP JUMP JUMPDEST PUSH0 DUP2 ISZERO ISZERO SWAP1 POP SWAP2 SWAP1 POP JUMP JUMPDEST PUSH2 0x101B DUP2 PUSH2 0x1007 JUMP JUMPDEST DUP3 MSTORE POP POP JUMP JUMPDEST PUSH0 PUSH1 0x20 DUP3 ADD SWAP1 POP PUSH2 0x1034 PUSH0 DUP4 ADD DUP5 PUSH2 0x1012 JUMP JUMPDEST SWAP3 SWAP2 POP POP JUMP JUMPDEST PUSH0 PUSH2 0x1044 DUP3 PUSH2 0xF74 JUMP JUMPDEST SWAP1 POP SWAP2 SWAP1 POP JUMP JUMPDEST PUSH2 0x1054 DUP2 PUSH2 0x103A JUMP JUMPDEST DUP3 MSTORE POP POP JUMP JUMPDEST PUSH0 PUSH1 0x20 DUP3 ADD SWAP1 POP PUSH2 0x106D PUSH0 DUP4 ADD DUP5 PUSH2 0x104B JUMP JUMPDEST SWAP3 SWAP2 POP POP JUMP JUMPDEST PUSH2 0x107C DUP2 PUSH2 0x1007 JUMP JUMPDEST DUP2 EQ PUSH2 0x1086 JUMPI PUSH0 DUP1 REVERT JUMPDEST POP JUMP JUMPDEST PUSH0 DUP2 CALLDATALOAD SWAP1 POP PUSH2 0x1097 DUP2 PUSH2 0x1073 JUMP JUMPDEST SWAP3 SWAP2 POP POP JUMP JUMPDEST PUSH0 DUP1 PUSH1 0x40 DUP4 DUP6 SUB SLT ISZERO PUSH2 0x10B3 JUMPI PUSH2 0x10B2 PUSH2 0xF12 JUMP JUMPDEST JUMPDEST PUSH0 PUSH2 0x10C0 DUP6 DUP3 DUP7 ADD PUSH2 0xF35 JUMP JUMPDEST SWAP3 POP POP PUSH1 0x20 PUSH2 0x10D1 DUP6 DUP3 DUP7 ADD PUSH2 0x1089 JUMP JUMPDEST SWAP2 POP POP SWAP3 POP SWAP3 SWAP1 POP JUMP JUMPDEST PUSH2 0x10E4 DUP2 PUSH2 0x103A JUMP JUMPDEST DUP2 EQ PUSH2 0x10EE JUMPI PUSH0 DUP1 REVERT JUMPDEST POP JUMP JUMPDEST PUSH0 DUP2 CALLDATALOAD SWAP1 POP PUSH2 0x10FF DUP2 PUSH2 0x10DB JUMP JUMPDEST SWAP3 SWAP2 POP POP JUMP JUMPDEST PUSH0 DUP1 PUSH1 0x40 DUP4 DUP6 SUB SLT ISZERO PUSH2 0x111B JUMPI PUSH2 0x111A PUSH2 0xF12 JUMP JUMPDEST JUMPDEST PUSH0 PUSH2 0x1128 DUP6 DUP3 DUP7 ADD PUSH2 0xF35 JUMP JUMPDEST SWAP3 POP POP PUSH1 0x20 PUSH2 0x1139 DUP6 DUP3 DUP7 ADD PUSH2 0x10F1 JUMP JUMPDEST SWAP2 POP POP SWAP3 POP SWAP3 SWAP1 POP JUMP JUMPDEST PUSH0 DUP1 PUSH0 PUSH1 0x60 DUP5 DUP7 SUB SLT ISZERO PUSH2 0x115A JUMPI PUSH2 0x1159 PUSH2 0xF12 JUMP JUMPDEST JUMPDEST PUSH0 PUSH2 0x1167 DUP7 DUP3 DUP8 ADD PUSH2 0x10F1 JUMP JUMPDEST SWAP4 POP POP PUSH1 0x20 PUSH2 0x1178 DUP7 DUP3 DUP8 ADD PUSH2 0xF35 JUMP JUMPDEST SWAP3 POP POP PUSH1 0x40 PUSH2 0x1189 DUP7 DUP3 DUP8 ADD PUSH2 0x1089 JUMP JUMPDEST SWAP2 POP POP SWAP3 POP SWAP3 POP SWAP3 JUMP JUMPDEST PUSH0 DUP1 PUSH0 PUSH1 0x60 DUP5 DUP7 SUB SLT ISZERO PUSH2 0x11AA JUMPI PUSH2 0x11A9 PUSH2 0xF12 JUMP JUMPDEST JUMPDEST PUSH0 PUSH2 0x11B7 DUP7 DUP3 DUP8 ADD PUSH2 0xF35 JUMP JUMPDEST SWAP4 POP POP PUSH1 0x20 PUSH2 0x11C8 DUP7 DUP3 DUP8 ADD PUSH2 0xF35 JUMP JUMPDEST SWAP3 POP POP PUSH1 0x40 PUSH2 0x11D9 DUP7 DUP3 DUP8 ADD PUSH2 0xF35 JUMP JUMPDEST SWAP2 POP POP SWAP3 POP SWAP3 POP SWAP3 JUMP JUMPDEST PUSH0 PUSH1 0x20 DUP3 DUP5 SUB SLT ISZERO PUSH2 0x11F8 JUMPI PUSH2 0x11F7 PUSH2 0xF12 JUMP JUMPDEST JUMPDEST PUSH0 PUSH2 0x1205 DUP5 DUP3 DUP6 ADD PUSH2 0x10F1 JUMP JUMPDEST SWAP2 POP POP SWAP3 SWAP2 POP POP JUMP JUMPDEST PUSH2 0x1217 DUP2 PUSH2 0xF16 JUMP JUMPDEST DUP3 MSTORE POP POP JUMP JUMPDEST PUSH0 PUSH1 0x80 DUP3 ADD SWAP1 POP PUSH2 0x1230 PUSH0 DUP4 ADD DUP8 PUSH2 0x120E JUMP JUMPDEST PUSH2 0x123D PUSH1 0x20 DUP4 ADD DUP7 PUSH2 0x120E JUMP JUMPDEST PUSH2 0x124A PUSH1 0x40 DUP4 ADD DUP6 PUSH2 0x1012 JUMP JUMPDEST PUSH2 0x1257 PUSH1 0x60 DUP4 ADD DUP5 PUSH2 0x1012 JUMP JUMPDEST SWAP6 SWAP5 POP POP POP POP POP JUMP JUMPDEST PUSH0 DUP3 DUP3 MSTORE PUSH1 0x20 DUP3 ADD SWAP1 POP SWAP3 SWAP2 POP POP JUMP JUMPDEST PUSH32 0x4E656E68756D612061706F737461000000000000000000000000000000000000 PUSH0 DUP3 ADD MSTORE POP JUMP JUMPDEST PUSH0 PUSH2 0x12A4 PUSH1 0xE DUP4 PUSH2 0x1260 JUMP JUMPDEST SWAP2 POP PUSH2 0x12AF DUP3 PUSH2 0x1270 JUMP JUMPDEST PUSH1 0x20 DUP3 ADD SWAP1 POP SWAP2 SWAP1 POP JUMP JUMPDEST PUSH0 PUSH1 0x20 DUP3 ADD SWAP1 POP DUP2 DUP2 SUB PUSH0 DUP4 ADD MSTORE PUSH2 0x12D1 DUP2 PUSH2 0x1298 JUMP JUMPDEST SWAP1 POP SWAP2 SWAP1 POP JUMP JUMPDEST PUSH32 0x41706F737461206E616F207265736F6C76696461000000000000000000000000 PUSH0 DUP3 ADD MSTORE POP JUMP JUMPDEST PUSH0 PUSH2 0x130C PUSH1 0x14 DUP4 PUSH2 0x1260 JUMP JUMPDEST SWAP2 POP PUSH2 0x1317 DUP3 PUSH2 0x12D8 JUMP JUMPDEST PUSH1 0x20 DUP3 ADD SWAP1 POP SWAP2 SWAP1 POP JUMP JUMPDEST PUSH0 PUSH1 0x20 DUP3 ADD SWAP1 POP DUP2 DUP2 SUB PUSH0 DUP4 ADD MSTORE PUSH2 0x1339 DUP2 PUSH2 0x1300 JUMP JUMPDEST SWAP1 POP SWAP2 SWAP1 POP JUMP JUMPDEST PUSH32 0x41706F7374612070657264696461000000000000000000000000000000000000 PUSH0 DUP3 ADD MSTORE POP JUMP JUMPDEST PUSH0 PUSH2 0x1374 PUSH1 0xE DUP4 PUSH2 0x1260 JUMP JUMPDEST SWAP2 POP PUSH2 0x137F DUP3 PUSH2 0x1340 JUMP JUMPDEST PUSH1 0x20 DUP3 ADD SWAP1 POP SWAP2 SWAP1 POP JUMP JUMPDEST PUSH0 PUSH1 0x20 DUP3 ADD SWAP1 POP DUP2 DUP2 SUB PUSH0 DUP4 ADD MSTORE PUSH2 0x13A1 DUP2 PUSH2 0x1368 JUMP JUMPDEST SWAP1 POP SWAP2 SWAP1 POP JUMP JUMPDEST PUSH32 0x4A612073616361646F0000000000000000000000000000000000000000000000 PUSH0 DUP3 ADD MSTORE POP JUMP JUMPDEST PUSH0 PUSH2 0x13DC PUSH1 0x9 DUP4 PUSH2 0x1260 JUMP JUMPDEST SWAP2 POP PUSH2 0x13E7 DUP3 PUSH2 0x13A8 JUMP JUMPDEST PUSH1 0x20 DUP3 ADD SWAP1 POP SWAP2 SWAP1 POP JUMP JUMPDEST PUSH0 PUSH1 0x20 DUP3 ADD SWAP1 POP DUP2 DUP2 SUB PUSH0 DUP4 ADD MSTORE PUSH2 0x1409 DUP2 PUSH2 0x13D0 JUMP JUMPDEST SWAP1 POP SWAP2 SWAP1 POP JUMP JUMPDEST PUSH32 0x4E487B7100000000000000000000000000000000000000000000000000000000 PUSH0 MSTORE PUSH1 0x11 PUSH1 0x4 MSTORE PUSH1 0x24 PUSH0 REVERT JUMPDEST PUSH0 PUSH2 0x1447 DUP3 PUSH2 0xF16 JUMP JUMPDEST SWAP2 POP PUSH2 0x1452 DUP4 PUSH2 0xF16 JUMP JUMPDEST SWAP3 POP DUP3 DUP3 MUL PUSH2 0x1460 DUP2 PUSH2 0xF16 JUMP JUMPDEST SWAP2 POP DUP3 DUP3 DIV DUP5 EQ DUP4 ISZERO OR PUSH2 0x1477 JUMPI PUSH2 0x1476 PUSH2 0x1410 JUMP JUMPDEST JUMPDEST POP SWAP3 SWAP2 POP POP JUMP JUMPDEST PUSH32 0x4E487B7100000000000000000000000000000000000000000000000000000000 PUSH0 MSTORE PUSH1 0x12 PUSH1 0x4 MSTORE PUSH1 0x24 PUSH0 REVERT JUMPDEST PUSH0 PUSH2 0x14B5 DUP3 PUSH2 0xF16 JUMP JUMPDEST SWAP2 POP PUSH2 0x14C0 DUP4 PUSH2 0xF16 JUMP JUMPDEST SWAP3 POP DUP3 PUSH2 0x14D0 JUMPI PUSH2 0x14CF PUSH2 0x147E JUMP JUMPDEST JUMPDEST DUP3 DUP3 DIV SWAP1 POP SWAP3 SWAP2 POP POP JUMP JUMPDEST PUSH32 0x5061796F7574206163696D6120646F206C696D69746500000000000000000000 PUSH0 DUP3 ADD MSTORE POP JUMP JUMPDEST PUSH0 PUSH2 0x150F PUSH1 0x16 DUP4 PUSH2 0x1260 JUMP JUMPDEST SWAP2 POP PUSH2 0x151A DUP3 PUSH2 0x14DB JUMP JUMPDEST PUSH1 0x20 DUP3 ADD SWAP1 POP SWAP2 SWAP1 POP JUMP JUMPDEST PUSH0 PUSH1 0x20 DUP3 ADD SWAP1 POP DUP2 DUP2 SUB PUSH0 DUP4 ADD MSTORE PUSH2 0x153C DUP2 PUSH2 0x1503 JUMP JUMPDEST SWAP1 POP SWAP2 SWAP1 POP JUMP JUMPDEST PUSH0 PUSH1 0x40 DUP3 ADD SWAP1 POP PUSH2 0x1556 PUSH0 DUP4 ADD DUP6 PUSH2 0x104B JUMP JUMPDEST PUSH2 0x1563 PUSH1 0x20 DUP4 ADD DUP5 PUSH2 0x120E JUMP JUMPDEST SWAP4 SWAP3 POP POP POP JUMP JUMPDEST PUSH0 DUP2 MLOAD SWAP1 POP PUSH2 0x1578 DUP2 PUSH2 0x1073 JUMP JUMPDEST SWAP3 SWAP2 POP POP JUMP JUMPDEST PUSH0 PUSH1 0x20 DUP3 DUP5 SUB SLT ISZERO PUSH2 0x1593 JUMPI PUSH2 0x1592 PUSH2 0xF12 JUMP JUMPDEST JUMPDEST PUSH0 PUSH2 0x15A0 DUP5 DUP3 DUP6 ADD PUSH2 0x156A JUMP JUMPDEST SWAP2 POP POP SWAP3 SWAP2 POP POP JUMP JUMPDEST PUSH32 0x46616C6861206E61207472616E73666572656E63696100000000000000000000 PUSH0 DUP3 ADD MSTORE POP JUMP JUMPDEST PUSH0 PUSH2 0x15DD PUSH1 0x16 DUP4 PUSH2 0x1260 JUMP JUMPDEST SWAP2 POP PUSH2 0x15E8 DUP3 PUSH2 0x15A9 JUMP JUMPDEST PUSH1 0x20 DUP3 ADD SWAP1 POP SWAP2 SWAP1 POP JUMP JUMPDEST PUSH0 PUSH1 0x20 DUP3 ADD SWAP1 POP DUP2 DUP2 SUB PUSH0 DUP4 ADD MSTORE PUSH2 0x160A DUP2 PUSH2 0x15D1 JUMP JUMPDEST SWAP1 POP SWAP2 SWAP1 POP JUMP JUMPDEST PUSH0 PUSH1 0x20 DUP3 ADD SWAP1 POP PUSH2 0x1624 PUSH0 DUP4 ADD DUP5 PUSH2 0x120E JUMP JUMPDEST SWAP3 SWAP2 POP POP JUMP JUMPDEST PUSH32 0x4576656E746F206A61207265736F6C7669646F00000000000000000000000000 PUSH0 DUP3 ADD MSTORE POP JUMP JUMPDEST PUSH0 PUSH2 0x165E PUSH1 0x13 DUP4 PUSH2 0x1260 JUMP JUMPDEST SWAP2 POP PUSH2 0x1669 DUP3 PUSH2 0x162A JUMP JUMPDEST PUSH1 0x20 DUP3 ADD SWAP1 POP SWAP2 SWAP1 POP JUMP JUMPDEST PUSH0 PUSH1 0x20 DUP3 ADD SWAP1 POP DUP2 DUP2 SUB PUSH0 DUP4 ADD MSTORE PUSH2 0x168B DUP2 PUSH2 0x1652 JUMP JUMPDEST SWAP1 POP SWAP2 SWAP1 POP JUMP JUMPDEST PUSH32 0x53656D2061706F73746100000000000000000000000000000000000000000000 PUSH0 DUP3 ADD MSTORE POP JUMP JUMPDEST PUSH0 PUSH2 0x16C6 PUSH1 0xA DUP4 PUSH2 0x1260 JUMP JUMPDEST SWAP2 POP PUSH2 0x16D1 DUP3 PUSH2 0x1692 JUMP JUMPDEST PUSH1 0x20 DUP3 ADD SWAP1 POP SWAP2 SWAP1 POP JUMP JUMPDEST PUSH0 PUSH1 0x20 DUP3 ADD SWAP1 POP DUP2 DUP2 SUB PUSH0 DUP4 ADD MSTORE PUSH2 0x16F3 DUP2 PUSH2 0x16BA JUMP JUMPDEST SWAP1 POP SWAP2 SWAP1 POP JUMP JUMPDEST PUSH32 0x4A61207265736F6C766964610000000000000000000000000000000000000000 PUSH0 DUP3 ADD MSTORE POP JUMP JUMPDEST PUSH0 PUSH2 0x172E PUSH1 0xC DUP4 PUSH2 0x1260 JUMP JUMPDEST SWAP2 POP PUSH2 0x1739 DUP3 PUSH2 0x16FA JUMP JUMPDEST PUSH1 0x20 DUP3 ADD SWAP1 POP SWAP2 SWAP1 POP JUMP JUMPDEST PUSH0 PUSH1 0x20 DUP3 ADD SWAP1 POP DUP2 DUP2 SUB PUSH0 DUP4 ADD MSTORE PUSH2 0x175B DUP2 PUSH2 0x1722 JUMP JUMPDEST SWAP1 POP SWAP2 SWAP1 POP JUMP JUMPDEST PUSH32 0x56616C6F7220696E76616C69646F000000000000000000000000000000000000 PUSH0 DUP3 ADD MSTORE POP JUMP JUMPDEST PUSH0 PUSH2 0x1796 PUSH1 0xE DUP4 PUSH2 0x1260 JUMP JUMPDEST SWAP2 POP PUSH2 0x17A1 DUP3 PUSH2 0x1762 JUMP JUMPDEST PUSH1 0x20 DUP3 ADD SWAP1 POP SWAP2 SWAP1 POP JUMP JUMPDEST PUSH0 PUSH1 0x20 DUP3 ADD SWAP1 POP DUP2 DUP2 SUB PUSH0 DUP4 ADD MSTORE PUSH2 0x17C3 DUP2 PUSH2 0x178A JUMP JUMPDEST SWAP1 POP SWAP2 SWAP1 POP JUMP JUMPDEST PUSH32 0x4F646473206D696E696D61733A20313030250000000000000000000000000000 PUSH0 DUP3 ADD MSTORE POP JUMP JUMPDEST PUSH0 PUSH2 0x17FE PUSH1 0x12 DUP4 PUSH2 0x1260 JUMP JUMPDEST SWAP2 POP PUSH2 0x1809 DUP3 PUSH2 0x17CA JUMP JUMPDEST PUSH1 0x20 DUP3 ADD SWAP1 POP SWAP2 SWAP1 POP JUMP JUMPDEST PUSH0 PUSH1 0x20 DUP3 ADD SWAP1 POP DUP2 DUP2 SUB PUSH0 DUP4 ADD MSTORE PUSH2 0x182B DUP2 PUSH2 0x17F2 JUMP JUMPDEST SWAP1 POP SWAP2 SWAP1 POP JUMP JUMPDEST PUSH32 0x4A612061706F73746F7500000000000000000000000000000000000000000000 PUSH0 DUP3 ADD MSTORE POP JUMP JUMPDEST PUSH0 PUSH2 0x1866 PUSH1 0xA DUP4 PUSH2 0x1260 JUMP JUMPDEST SWAP2 POP PUSH2 0x1871 DUP3 PUSH2 0x1832 JUMP JUMPDEST PUSH1 0x20 DUP3 ADD SWAP1 POP SWAP2 SWAP1 POP JUMP JUMPDEST PUSH0 PUSH1 0x20 DUP3 ADD SWAP1 POP DUP2 DUP2 SUB PUSH0 DUP4 ADD MSTORE PUSH2 0x1893 DUP2 PUSH2 0x185A JUMP JUMPDEST SWAP1 POP SWAP2 SWAP1 POP JUMP JUMPDEST PUSH32 0x4576656E746F20656E6365727261646F00000000000000000000000000000000 PUSH0 DUP3 ADD MSTORE POP JUMP JUMPDEST PUSH0 PUSH2 0x18CE PUSH1 0x10 DUP4 PUSH2 0x1260 JUMP JUMPDEST SWAP2 POP PUSH2 0x18D9 DUP3 PUSH2 0x189A JUMP JUMPDEST PUSH1 0x20 DUP3 ADD SWAP1 POP SWAP2 SWAP1 POP JUMP JUMPDEST PUSH0 PUSH1 0x20 DUP3 ADD SWAP1 POP DUP2 DUP2 SUB PUSH0 DUP4 ADD MSTORE PUSH2 0x18FB DUP2 PUSH2 0x18C2 JUMP JUMPDEST SWAP1 POP SWAP2 SWAP1 POP JUMP JUMPDEST PUSH0 PUSH1 0x60 DUP3 ADD SWAP1 POP PUSH2 0x1915 PUSH0 DUP4 ADD DUP7 PUSH2 0x104B JUMP JUMPDEST PUSH2 0x1922 PUSH1 0x20 DUP4 ADD DUP6 PUSH2 0x104B JUMP JUMPDEST PUSH2 0x192F PUSH1 0x40 DUP4 ADD DUP5 PUSH2 0x120E JUMP JUMPDEST SWAP5 SWAP4 POP POP POP POP JUMP JUMPDEST PUSH0 PUSH1 0x40 DUP3 ADD SWAP1 POP PUSH2 0x194A PUSH0 DUP4 ADD DUP6 PUSH2 0x120E JUMP JUMPDEST PUSH2 0x1957 PUSH1 0x20 DUP4 ADD DUP5 PUSH2 0x120E JUMP JUMPDEST SWAP4 SWAP3 POP POP POP JUMP JUMPDEST PUSH32 0x5265656E7472616E637947756172643A207265656E7472616E742063616C6C00 PUSH0 DUP3 ADD MSTORE POP JUMP JUMPDEST PUSH0 PUSH2 0x1992 PUSH1 0x1F DUP4 PUSH2 0x1260 JUMP JUMPDEST SWAP2 POP PUSH2 0x199D DUP3 PUSH2 0x195E JUMP JUMPDEST PUSH1 0x20 DUP3 ADD SWAP1 POP SWAP2 SWAP1 POP JUMP JUMPDEST PUSH0 PUSH1 0x20 DUP3 ADD SWAP1 POP DUP2 DUP2 SUB PUSH0 DUP4 ADD MSTORE PUSH2 0x19BF DUP2 PUSH2 0x1986 JUMP JUMPDEST SWAP1 POP SWAP2 SWAP1 POP JUMP INVALID LOG2 PUSH5 0x6970667358 0x22 SLT KECCAK256 PUSH15 0xE9C550865D1E1B5759DBB85C5970CE 0xCE PUSH23 0x3C1174043075C96A645DE82F219864736F6C6343000814 STOP CALLER "
				},
				"gasEstimates": {
					"creation": {
						"codeDepositCost": "1330400",
						"executionCost": "infinite",
						"totalCost": "infinite"
					},
					"external": {
						"bets(uint256,address)": "infinite",
						"eventOutcome(uint256)": "2852",
						"hasWithdrawn(uint256,address)": "3093",
						"markResult(address,uint256,bool)": "infinite",
						"owner()": "2604",
						"placeBet(uint256,uint256,uint256)": "infinite",
						"pulseToken()": "infinite",
						"renounceOwnership()": "infinite",
						"resolveEvent(uint256,bool)": "infinite",
						"transferOwnership(address)": "infinite",
						"withdrawWinnings(uint256)": "infinite"
					}
				},
				"methodIdentifiers": {
					"bets(uint256,address)": "f644b3bb",
					"eventOutcome(uint256)": "885735a5",
					"hasWithdrawn(uint256,address)": "94cec7a7",
					"markResult(address,uint256,bool)": "9f2efb40",
					"owner()": "8da5cb5b",
					"placeBet(uint256,uint256,uint256)": "e71c9697",
					"pulseToken()": "5b0fc6e8",
					"renounceOwnership()": "715018a6",
					"resolveEvent(uint256,bool)": "915439fb",
					"transferOwnership(address)": "f2fde38b",
					"withdrawWinnings(uint256)": "14794702"
				}
			},
			"storageLayout": {
				"storage": [
					{
						"astId": 8,
						"contract": "BetPulse.sol:BetPulse",
						"label": "_owner",
						"offset": 0,
						"slot": "0",
						"type": "t_address"
					},
					{
						"astId": 158,
						"contract": "BetPulse.sol:BetPulse",
						"label": "_status",
						"offset": 0,
						"slot": "1",
						"type": "t_uint256"
					},
					{
						"astId": 348,
						"contract": "BetPulse.sol:BetPulse",
						"label": "bets",
						"offset": 0,
						"slot": "2",
						"type": "t_mapping(t_uint256,t_mapping(t_address,t_struct(Bet)341_storage))"
					},
					{
						"astId": 352,
						"contract": "BetPulse.sol:BetPulse",
						"label": "eventOutcome",
						"offset": 0,
						"slot": "3",
						"type": "t_mapping(t_uint256,t_bool)"
					},
					{
						"astId": 358,
						"contract": "BetPulse.sol:BetPulse",
						"label": "hasWithdrawn",
						"offset": 0,
						"slot": "4",
						"type": "t_mapping(t_uint256,t_mapping(t_address,t_bool))"
					}
				],
				"types": {
					"t_address": {
						"encoding": "inplace",
						"label": "address",
						"numberOfBytes": "20"
					},
					"t_bool": {
						"encoding": "inplace",
						"label": "bool",
						"numberOfBytes": "1"
					},
					"t_mapping(t_address,t_bool)": {
						"encoding": "mapping",
						"key": "t_address",
						"label": "mapping(address => bool)",
						"numberOfBytes": "32",
						"value": "t_bool"
					},
					"t_mapping(t_address,t_struct(Bet)341_storage)": {
						"encoding": "mapping",
						"key": "t_address",
						"label": "mapping(address => struct BetPulse.Bet)",
						"numberOfBytes": "32",
						"value": "t_struct(Bet)341_storage"
					},
					"t_mapping(t_uint256,t_bool)": {
						"encoding": "mapping",
						"key": "t_uint256",
						"label": "mapping(uint256 => bool)",
						"numberOfBytes": "32",
						"value": "t_bool"
					},
					"t_mapping(t_uint256,t_mapping(t_address,t_bool))": {
						"encoding": "mapping",
						"key": "t_uint256",
						"label": "mapping(uint256 => mapping(address => bool))",
						"numberOfBytes": "32",
						"value": "t_mapping(t_address,t_bool)"
					},
					"t_mapping(t_uint256,t_mapping(t_address,t_struct(Bet)341_storage))": {
						"encoding": "mapping",
						"key": "t_uint256",
						"label": "mapping(uint256 => mapping(address => struct BetPulse.Bet))",
						"numberOfBytes": "32",
						"value": "t_mapping(t_address,t_struct(Bet)341_storage)"
					},
					"t_struct(Bet)341_storage": {
						"encoding": "inplace",
						"label": "struct BetPulse.Bet",
						"members": [
							{
								"astId": 334,
								"contract": "BetPulse.sol:BetPulse",
								"label": "amount",
								"offset": 0,
								"slot": "0",
								"type": "t_uint256"
							},
							{
								"astId": 336,
								"contract": "BetPulse.sol:BetPulse",
								"label": "odds",
								"offset": 0,
								"slot": "1",
								"type": "t_uint256"
							},
							{
								"astId": 338,
								"contract": "BetPulse.sol:BetPulse",
								"label": "resolved",
								"offset": 0,
								"slot": "2",
								"type": "t_bool"
							},
							{
								"astId": 340,
								"contract": "BetPulse.sol:BetPulse",
								"label": "won",
								"offset": 1,
								"slot": "2",
								"type": "t_bool"
							}
						],
						"numberOfBytes": "96"
					},
					"t_uint256": {
						"encoding": "inplace",
						"label": "uint256",
						"numberOfBytes": "32"
					}
				}
			},
			"userdoc": {
				"kind": "user",
				"methods": {},
				"version": 1
			}
		}
	}
}