{
	"PulseToken.sol": {
		"BetPulse": {
			"abi": [
				{
					"inputs": [
						{
							"internalType": "address",
							"name": "_pulseToken",
							"type": "address"
						},
						{
							"internalType": "address",
							"name": "initialOwner",
							"type": "address"
						}
					],
					"stateMutability": "nonpayable",
					"type": "constructor"
				},
				{
					"inputs": [
						{
							"internalType": "address",
							"name": "owner",
							"type": "address"
						}
					],
					"name": "OwnableInvalidOwner",
					"type": "error"
				},
				{
					"inputs": [
						{
							"internalType": "address",
							"name": "account",
							"type": "address"
						}
					],
					"name": "OwnableUnauthorizedAccount",
					"type": "error"
				},
				{
					"anonymous": false,
					"inputs": [
						{
							"indexed": true,
							"internalType": "address",
							"name": "previousOwner",
							"type": "address"
						},
						{
							"indexed": true,
							"internalType": "address",
							"name": "newOwner",
							"type": "address"
						}
					],
					"name": "OwnershipTransferred",
					"type": "event"
				},
				{
					"inputs": [
						{
							"internalType": "address",
							"name": "",
							"type": "address"
						},
						{
							"internalType": "uint256",
							"name": "",
							"type": "uint256"
						}
					],
					"name": "bets",
					"outputs": [
						{
							"internalType": "uint256",
							"name": "amount",
							"type": "uint256"
						},
						{
							"internalType": "uint256",
							"name": "odds",
							"type": "uint256"
						},
						{
							"internalType": "bool",
							"name": "resolved",
							"type": "bool"
						},
						{
							"internalType": "bool",
							"name": "won",
							"type": "bool"
						}
					],
					"stateMutability": "view",
					"type": "function"
				},
				{
					"inputs": [],
					"name": "eventIdCounter",
					"outputs": [
						{
							"internalType": "uint256",
							"name": "",
							"type": "uint256"
						}
					],
					"stateMutability": "view",
					"type": "function"
				},
				{
					"inputs": [
						{
							"internalType": "uint256",
							"name": "",
							"type": "uint256"
						}
					],
					"name": "eventOutcomes",
					"outputs": [
						{
							"internalType": "bool",
							"name": "",
							"type": "bool"
						}
					],
					"stateMutability": "view",
					"type": "function"
				},
				{
					"inputs": [
						{
							"internalType": "uint256",
							"name": "",
							"type": "uint256"
						},
						{
							"internalType": "address",
							"name": "",
							"type": "address"
						}
					],
					"name": "hasWithdrawn",
					"outputs": [
						{
							"internalType": "bool",
							"name": "",
							"type": "bool"
						}
					],
					"stateMutability": "view",
					"type": "function"
				},
				{
					"inputs": [],
					"name": "owner",
					"outputs": [
						{
							"internalType": "address",
							"name": "",
							"type": "address"
						}
					],
					"stateMutability": "view",
					"type": "function"
				},
				{
					"inputs": [
						{
							"internalType": "uint256",
							"name": "eventId",
							"type": "uint256"
						},
						{
							"internalType": "uint256",
							"name": "amount",
							"type": "uint256"
						},
						{
							"internalType": "uint256",
							"name": "odds",
							"type": "uint256"
						}
					],
					"name": "placeBet",
					"outputs": [],
					"stateMutability": "nonpayable",
					"type": "function"
				},
				{
					"inputs": [],
					"name": "pulseToken",
					"outputs": [
						{
							"internalType": "contract IERC20",
							"name": "",
							"type": "address"
						}
					],
					"stateMutability": "view",
					"type": "function"
				},
				{
					"inputs": [],
					"name": "renounceOwnership",
					"outputs": [],
					"stateMutability": "nonpayable",
					"type": "function"
				},
				{
					"inputs": [
						{
							"internalType": "uint256",
							"name": "eventId",
							"type": "uint256"
						},
						{
							"internalType": "bool",
							"name": "outcome",
							"type": "bool"
						}
					],
					"name": "resolveEvent",
					"outputs": [],
					"stateMutability": "nonpayable",
					"type": "function"
				},
				{
					"inputs": [
						{
							"internalType": "address",
							"name": "newOwner",
							"type": "address"
						}
					],
					"name": "transferOwnership",
					"outputs": [],
					"stateMutability": "nonpayable",
					"type": "function"
				},
				{
					"inputs": [
						{
							"internalType": "uint256",
							"name": "eventId",
							"type": "uint256"
						}
					],
					"name": "withdrawWinnings",
					"outputs": [],
					"stateMutability": "nonpayable",
					"type": "function"
				}
			],
			"devdoc": {
				"errors": {
					"OwnableInvalidOwner(address)": [
						{
							"details": "The owner is not a valid owner account. (eg. `address(0)`)"
						}
					],
					"OwnableUnauthorizedAccount(address)": [
						{
							"details": "The caller account is not authorized to perform an operation."
						}
					]
				},
				"kind": "dev",
				"methods": {
					"owner()": {
						"details": "Returns the address of the current owner."
					},
					"renounceOwnership()": {
						"details": "Leaves the contract without owner. It will not be possible to call `onlyOwner` functions. Can only be called by the current owner. NOTE: Renouncing ownership will leave the contract without an owner, thereby disabling any functionality that is only available to the owner."
					},
					"transferOwnership(address)": {
						"details": "Transfers ownership of the contract to a new account (`newOwner`). Can only be called by the current owner."
					}
				},
				"version": 1
			},
			"evm": {
				"assembly": "    /* \"PulseToken.sol\":232:2832  contract BetPulse is Ownable, ReentrancyGuard {... */\n  mstore(0x40, 0x80)\n    /* \"PulseToken.sol\":893:1019  constructor(address _pulseToken, address initialOwner) Ownable(initialOwner) {... */\n  callvalue\n  dup1\n  iszero\n  tag_1\n  jumpi\n  0x00\n  dup1\n  revert\ntag_1:\n  pop\n  mload(0x40)\n  sub(codesize, bytecodeSize)\n  dup1\n  bytecodeSize\n  dup4\n  codecopy\n  dup2\n  dup2\n  add\n  0x40\n  mstore\n  dup2\n  add\n  swap1\n  tag_2\n  swap2\n  swap1\n  tag_3\n  jump\t// in\ntag_2:\n    /* \"PulseToken.sol\":956:968  initialOwner */\n  dup1\n    /* \"@openzeppelin/contracts/access/Ownable.sol\":1297:1298  0 */\n  0x00\n    /* \"@openzeppelin/contracts/access/Ownable.sol\":1273:1299  initialOwner == address(0) */\n  0xffffffffffffffffffffffffffffffffffffffff\n  and\n    /* \"@openzeppelin/contracts/access/Ownable.sol\":1273:1285  initialOwner */\n  dup2\n    /* \"@openzeppelin/contracts/access/Ownable.sol\":1273:1299  initialOwner == address(0) */\n  0xffffffffffffffffffffffffffffffffffffffff\n  and\n  sub\n    /* \"@openzeppelin/contracts/access/Ownable.sol\":1269:1364  if (initialOwner == address(0)) {... */\n  tag_8\n  jumpi\n    /* \"@openzeppelin/contracts/access/Ownable.sol\":1350:1351  0 */\n  0x00\n    /* \"@openzeppelin/contracts/access/Ownable.sol\":1322:1353  OwnableInvalidOwner(address(0)) */\n  mload(0x40)\n  0x1e4fbdf700000000000000000000000000000000000000000000000000000000\n  dup2\n  mstore\n  0x04\n  add\n  tag_9\n  swap2\n  swap1\n  tag_10\n  jump\t// in\ntag_9:\n  mload(0x40)\n  dup1\n  swap2\n  sub\n  swap1\n  revert\n    /* \"@openzeppelin/contracts/access/Ownable.sol\":1269:1364  if (initialOwner == address(0)) {... */\ntag_8:\n    /* \"@openzeppelin/contracts/access/Ownable.sol\":1373:1405  _transferOwnership(initialOwner) */\n  tag_11\n    /* \"@openzeppelin/contracts/access/Ownable.sol\":1392:1404  initialOwner */\n  dup2\n    /* \"@openzeppelin/contracts/access/Ownable.sol\":1373:1391  _transferOwnership */\n  shl(0x20, tag_12)\n    /* \"@openzeppelin/contracts/access/Ownable.sol\":1373:1405  _transferOwnership(initialOwner) */\n  0x20\n  shr\n  jump\t// in\ntag_11:\n    /* \"@openzeppelin/contracts/access/Ownable.sol\":1225:1412  constructor(address initialOwner) {... */\n  pop\n    /* \"@openzeppelin/contracts/security/ReentrancyGuard.sol\":1716:1717  1 */\n  0x01\n    /* \"@openzeppelin/contracts/security/ReentrancyGuard.sol\":1821:1828  _status */\n  dup1\n    /* \"@openzeppelin/contracts/security/ReentrancyGuard.sol\":1821:1843  _status = _NOT_ENTERED */\n  dup2\n  swap1\n  sstore\n  pop\n    /* \"PulseToken.sol\":1000:1011  _pulseToken */\n  dup2\n    /* \"PulseToken.sol\":980:990  pulseToken */\n  0x02\n  0x00\n    /* \"PulseToken.sol\":980:1012  pulseToken = IERC20(_pulseToken) */\n  0x0100\n  exp\n  dup2\n  sload\n  dup2\n  0xffffffffffffffffffffffffffffffffffffffff\n  mul\n  not\n  and\n  swap1\n  dup4\n  0xffffffffffffffffffffffffffffffffffffffff\n  and\n  mul\n  or\n  swap1\n  sstore\n  pop\n    /* \"PulseToken.sol\":893:1019  constructor(address _pulseToken, address initialOwner) Ownable(initialOwner) {... */\n  pop\n  pop\n    /* \"PulseToken.sol\":232:2832  contract BetPulse is Ownable, ReentrancyGuard {... */\n  jump(tag_15)\n    /* \"@openzeppelin/contracts/access/Ownable.sol\":2912:3099  function _transferOwnership(address newOwner) internal virtual {... */\ntag_12:\n    /* \"@openzeppelin/contracts/access/Ownable.sol\":2985:3001  address oldOwner */\n  0x00\n    /* \"@openzeppelin/contracts/access/Ownable.sol\":3004:3010  _owner */\n  dup1\n  0x00\n  swap1\n  sload\n  swap1\n  0x0100\n  exp\n  swap1\n  div\n  0xffffffffffffffffffffffffffffffffffffffff\n  and\n    /* \"@openzeppelin/contracts/access/Ownable.sol\":2985:3010  address oldOwner = _owner */\n  swap1\n  pop\n    /* \"@openzeppelin/contracts/access/Ownable.sol\":3029:3037  newOwner */\n  dup2\n    /* \"@openzeppelin/contracts/access/Ownable.sol\":3020:3026  _owner */\n  0x00\n  dup1\n    /* \"@openzeppelin/contracts/access/Ownable.sol\":3020:3037  _owner = newOwner */\n  0x0100\n  exp\n  dup2\n  sload\n  dup2\n  0xffffffffffffffffffffffffffffffffffffffff\n  mul\n  not\n  and\n  swap1\n  dup4\n  0xffffffffffffffffffffffffffffffffffffffff\n  and\n  mul\n  or\n  swap1\n  sstore\n  pop\n    /* \"@openzeppelin/contracts/access/Ownable.sol\":3083:3091  newOwner */\n  dup2\n    /* \"@openzeppelin/contracts/access/Ownable.sol\":3052:3092  OwnershipTransferred(oldOwner, newOwner) */\n  0xffffffffffffffffffffffffffffffffffffffff\n  and\n    /* \"@openzeppelin/contracts/access/Ownable.sol\":3073:3081  oldOwner */\n  dup2\n    /* \"@openzeppelin/contracts/access/Ownable.sol\":3052:3092  OwnershipTransferred(oldOwner, newOwner) */\n  0xffffffffffffffffffffffffffffffffffffffff\n  and\n  0x8be0079c531659141344cd1fd0a4f28419497f9722a3daafe3b4186f6b6457e0\n  mload(0x40)\n  mload(0x40)\n  dup1\n  swap2\n  sub\n  swap1\n  log3\n    /* \"@openzeppelin/contracts/access/Ownable.sol\":2975:3099  {... */\n  pop\n    /* \"@openzeppelin/contracts/access/Ownable.sol\":2912:3099  function _transferOwnership(address newOwner) internal virtual {... */\n  pop\n  jump\t// out\n    /* \"#utility.yul\":88:205   */\ntag_18:\n    /* \"#utility.yul\":197:198   */\n  0x00\n    /* \"#utility.yul\":194:195   */\n  dup1\n    /* \"#utility.yul\":187:199   */\n  revert\n    /* \"#utility.yul\":334:460   */\ntag_20:\n    /* \"#utility.yul\":371:378   */\n  0x00\n    /* \"#utility.yul\":411:453   */\n  0xffffffffffffffffffffffffffffffffffffffff\n    /* \"#utility.yul\":404:409   */\n  dup3\n    /* \"#utility.yul\":400:454   */\n  and\n    /* \"#utility.yul\":389:454   */\n  swap1\n  pop\n    /* \"#utility.yul\":334:460   */\n  swap2\n  swap1\n  pop\n  jump\t// out\n    /* \"#utility.yul\":466:562   */\ntag_21:\n    /* \"#utility.yul\":503:510   */\n  0x00\n    /* \"#utility.yul\":532:556   */\n  tag_31\n    /* \"#utility.yul\":550:555   */\n  dup3\n    /* \"#utility.yul\":532:556   */\n  tag_20\n  jump\t// in\ntag_31:\n    /* \"#utility.yul\":521:556   */\n  swap1\n  pop\n    /* \"#utility.yul\":466:562   */\n  swap2\n  swap1\n  pop\n  jump\t// out\n    /* \"#utility.yul\":568:690   */\ntag_22:\n    /* \"#utility.yul\":641:665   */\n  tag_33\n    /* \"#utility.yul\":659:664   */\n  dup2\n    /* \"#utility.yul\":641:665   */\n  tag_21\n  jump\t// in\ntag_33:\n    /* \"#utility.yul\":634:639   */\n  dup2\n    /* \"#utility.yul\":631:666   */\n  eq\n    /* \"#utility.yul\":621:684   */\n  tag_34\n  jumpi\n    /* \"#utility.yul\":680:681   */\n  0x00\n    /* \"#utility.yul\":677:678   */\n  dup1\n    /* \"#utility.yul\":670:682   */\n  revert\n    /* \"#utility.yul\":621:684   */\ntag_34:\n    /* \"#utility.yul\":568:690   */\n  pop\n  jump\t// out\n    /* \"#utility.yul\":696:839   */\ntag_23:\n    /* \"#utility.yul\":753:758   */\n  0x00\n    /* \"#utility.yul\":784:790   */\n  dup2\n    /* \"#utility.yul\":778:791   */\n  mload\n    /* \"#utility.yul\":769:791   */\n  swap1\n  pop\n    /* \"#utility.yul\":800:833   */\n  tag_36\n    /* \"#utility.yul\":827:832   */\n  dup2\n    /* \"#utility.yul\":800:833   */\n  tag_22\n  jump\t// in\ntag_36:\n    /* \"#utility.yul\":696:839   */\n  swap3\n  swap2\n  pop\n  pop\n  jump\t// out\n    /* \"#utility.yul\":845:1352   */\ntag_3:\n    /* \"#utility.yul\":924:930   */\n  0x00\n    /* \"#utility.yul\":932:938   */\n  dup1\n    /* \"#utility.yul\":981:983   */\n  0x40\n    /* \"#utility.yul\":969:978   */\n  dup4\n    /* \"#utility.yul\":960:967   */\n  dup6\n    /* \"#utility.yul\":956:979   */\n  sub\n    /* \"#utility.yul\":952:984   */\n  slt\n    /* \"#utility.yul\":949:1068   */\n  iszero\n  tag_38\n  jumpi\n    /* \"#utility.yul\":987:1066   */\n  tag_39\n  tag_18\n  jump\t// in\ntag_39:\n    /* \"#utility.yul\":949:1068   */\ntag_38:\n    /* \"#utility.yul\":1107:1108   */\n  0x00\n    /* \"#utility.yul\":1132:1196   */\n  tag_40\n    /* \"#utility.yul\":1188:1195   */\n  dup6\n    /* \"#utility.yul\":1179:1185   */\n  dup3\n    /* \"#utility.yul\":1168:1177   */\n  dup7\n    /* \"#utility.yul\":1164:1186   */\n  add\n    /* \"#utility.yul\":1132:1196   */\n  tag_23\n  jump\t// in\ntag_40:\n    /* \"#utility.yul\":1122:1196   */\n  swap3\n  pop\n    /* \"#utility.yul\":1078:1206   */\n  pop\n    /* \"#utility.yul\":1245:1247   */\n  0x20\n    /* \"#utility.yul\":1271:1335   */\n  tag_41\n    /* \"#utility.yul\":1327:1334   */\n  dup6\n    /* \"#utility.yul\":1318:1324   */\n  dup3\n    /* \"#utility.yul\":1307:1316   */\n  dup7\n    /* \"#utility.yul\":1303:1325   */\n  add\n    /* \"#utility.yul\":1271:1335   */\n  tag_23\n  jump\t// in\ntag_41:\n    /* \"#utility.yul\":1261:1335   */\n  swap2\n  pop\n    /* \"#utility.yul\":1216:1345   */\n  pop\n    /* \"#utility.yul\":845:1352   */\n  swap3\n  pop\n  swap3\n  swap1\n  pop\n  jump\t// out\n    /* \"#utility.yul\":1358:1476   */\ntag_24:\n    /* \"#utility.yul\":1445:1469   */\n  tag_43\n    /* \"#utility.yul\":1463:1468   */\n  dup2\n    /* \"#utility.yul\":1445:1469   */\n  tag_21\n  jump\t// in\ntag_43:\n    /* \"#utility.yul\":1440:1443   */\n  dup3\n    /* \"#utility.yul\":1433:1470   */\n  mstore\n    /* \"#utility.yul\":1358:1476   */\n  pop\n  pop\n  jump\t// out\n    /* \"#utility.yul\":1482:1704   */\ntag_10:\n    /* \"#utility.yul\":1575:1579   */\n  0x00\n    /* \"#utility.yul\":1613:1615   */\n  0x20\n    /* \"#utility.yul\":1602:1611   */\n  dup3\n    /* \"#utility.yul\":1598:1616   */\n  add\n    /* \"#utility.yul\":1590:1616   */\n  swap1\n  pop\n    /* \"#utility.yul\":1626:1697   */\n  tag_45\n    /* \"#utility.yul\":1694:1695   */\n  0x00\n    /* \"#utility.yul\":1683:1692   */\n  dup4\n    /* \"#utility.yul\":1679:1696   */\n  add\n    /* \"#utility.yul\":1670:1676   */\n  dup5\n    /* \"#utility.yul\":1626:1697   */\n  tag_24\n  jump\t// in\ntag_45:\n    /* \"#utility.yul\":1482:1704   */\n  swap3\n  swap2\n  pop\n  pop\n  jump\t// out\n    /* \"PulseToken.sol\":232:2832  contract BetPulse is Ownable, ReentrancyGuard {... */\ntag_15:\n  dataSize(sub_0)\n  dup1\n  dataOffset(sub_0)\n  0x00\n  codecopy\n  0x00\n  return\nstop\n\nsub_0: assembly {\n        /* \"PulseToken.sol\":232:2832  contract BetPulse is Ownable, ReentrancyGuard {... */\n      mstore(0x40, 0x80)\n      callvalue\n      dup1\n      iszero\n      tag_1\n      jumpi\n      0x00\n      dup1\n      revert\n    tag_1:\n      pop\n      jumpi(tag_2, lt(calldatasize, 0x04))\n      shr(0xe0, calldataload(0x00))\n      dup1\n      0x8da5cb5b\n      gt\n      tag_14\n      jumpi\n      dup1\n      0x8da5cb5b\n      eq\n      tag_8\n      jumpi\n      dup1\n      0x915439fb\n      eq\n      tag_9\n      jumpi\n      dup1\n      0x94cec7a7\n      eq\n      tag_10\n      jumpi\n      dup1\n      0xe01a0ebe\n      eq\n      tag_11\n      jumpi\n      dup1\n      0xe71c9697\n      eq\n      tag_12\n      jumpi\n      dup1\n      0xf2fde38b\n      eq\n      tag_13\n      jumpi\n      jump(tag_2)\n    tag_14:\n      dup1\n      0x14794702\n      eq\n      tag_3\n      jumpi\n      dup1\n      0x4a39ec90\n      eq\n      tag_4\n      jumpi\n      dup1\n      0x5b0fc6e8\n      eq\n      tag_5\n      jumpi\n      dup1\n      0x69fb0664\n      eq\n      tag_6\n      jumpi\n      dup1\n      0x715018a6\n      eq\n      tag_7\n      jumpi\n    tag_2:\n      0x00\n      dup1\n      revert\n        /* \"PulseToken.sol\":2098:2830  function withdrawWinnings(uint256 eventId) external nonReentrant {... */\n    tag_3:\n      tag_15\n      0x04\n      dup1\n      calldatasize\n      sub\n      dup2\n      add\n      swap1\n      tag_16\n      swap2\n      swap1\n      tag_17\n      jump\t// in\n    tag_16:\n      tag_18\n      jump\t// in\n    tag_15:\n      stop\n        /* \"PulseToken.sol\":563:618  mapping(address => mapping(uint256 => Bet)) public bets */\n    tag_4:\n      tag_19\n      0x04\n      dup1\n      calldatasize\n      sub\n      dup2\n      add\n      swap1\n      tag_20\n      swap2\n      swap1\n      tag_21\n      jump\t// in\n    tag_20:\n      tag_22\n      jump\t// in\n    tag_19:\n      mload(0x40)\n      tag_23\n      swap5\n      swap4\n      swap3\n      swap2\n      swap1\n      tag_24\n      jump\t// in\n    tag_23:\n      mload(0x40)\n      dup1\n      swap2\n      sub\n      swap1\n      return\n        /* \"PulseToken.sol\":284:308  IERC20 public pulseToken */\n    tag_5:\n      tag_25\n      tag_26\n      jump\t// in\n    tag_25:\n      mload(0x40)\n      tag_27\n      swap2\n      swap1\n      tag_28\n      jump\t// in\n    tag_27:\n      mload(0x40)\n      dup1\n      swap2\n      sub\n      swap1\n      return\n        /* \"PulseToken.sol\":669:714  mapping(uint256 => bool) public eventOutcomes */\n    tag_6:\n      tag_29\n      0x04\n      dup1\n      calldatasize\n      sub\n      dup2\n      add\n      swap1\n      tag_30\n      swap2\n      swap1\n      tag_17\n      jump\t// in\n    tag_30:\n      tag_31\n      jump\t// in\n    tag_29:\n      mload(0x40)\n      tag_32\n      swap2\n      swap1\n      tag_33\n      jump\t// in\n    tag_32:\n      mload(0x40)\n      dup1\n      swap2\n      sub\n      swap1\n      return\n        /* \"@openzeppelin/contracts/access/Ownable.sol\":2293:2394  function renounceOwnership() public virtual onlyOwner {... */\n    tag_7:\n      tag_34\n      tag_35\n      jump\t// in\n    tag_34:\n      stop\n        /* \"@openzeppelin/contracts/access/Ownable.sol\":1638:1723  function owner() public view virtual returns (address) {... */\n    tag_8:\n      tag_36\n      tag_37\n      jump\t// in\n    tag_36:\n      mload(0x40)\n      tag_38\n      swap2\n      swap1\n      tag_39\n      jump\t// in\n    tag_38:\n      mload(0x40)\n      dup1\n      swap2\n      sub\n      swap1\n      return\n        /* \"PulseToken.sol\":1511:2058  function resolveEvent(uint256 eventId, bool outcome) external onlyOwner {... */\n    tag_9:\n      tag_40\n      0x04\n      dup1\n      calldatasize\n      sub\n      dup2\n      add\n      swap1\n      tag_41\n      swap2\n      swap1\n      tag_42\n      jump\t// in\n    tag_41:\n      tag_43\n      jump\t// in\n    tag_40:\n      stop\n        /* \"PulseToken.sol\":746:810  mapping(uint256 => mapping(address => bool)) public hasWithdrawn */\n    tag_10:\n      tag_44\n      0x04\n      dup1\n      calldatasize\n      sub\n      dup2\n      add\n      swap1\n      tag_45\n      swap2\n      swap1\n      tag_46\n      jump\t// in\n    tag_45:\n      tag_47\n      jump\t// in\n    tag_44:\n      mload(0x40)\n      tag_48\n      swap2\n      swap1\n      tag_33\n      jump\t// in\n    tag_48:\n      mload(0x40)\n      dup1\n      swap2\n      sub\n      swap1\n      return\n        /* \"PulseToken.sol\":857:886  uint256 public eventIdCounter */\n    tag_11:\n      tag_49\n      tag_50\n      jump\t// in\n    tag_49:\n      mload(0x40)\n      tag_51\n      swap2\n      swap1\n      tag_52\n      jump\t// in\n    tag_51:\n      mload(0x40)\n      dup1\n      swap2\n      sub\n      swap1\n      return\n        /* \"PulseToken.sol\":1061:1454  function placeBet(uint256 eventId, uint256 amount, uint256 odds) external nonReentrant {... */\n    tag_12:\n      tag_53\n      0x04\n      dup1\n      calldatasize\n      sub\n      dup2\n      add\n      swap1\n      tag_54\n      swap2\n      swap1\n      tag_55\n      jump\t// in\n    tag_54:\n      tag_56\n      jump\t// in\n    tag_53:\n      stop\n        /* \"@openzeppelin/contracts/access/Ownable.sol\":2543:2758  function transferOwnership(address newOwner) public virtual onlyOwner {... */\n    tag_13:\n      tag_57\n      0x04\n      dup1\n      calldatasize\n      sub\n      dup2\n      add\n      swap1\n      tag_58\n      swap2\n      swap1\n      tag_59\n      jump\t// in\n    tag_58:\n      tag_60\n      jump\t// in\n    tag_57:\n      stop\n        /* \"PulseToken.sol\":2098:2830  function withdrawWinnings(uint256 eventId) external nonReentrant {... */\n    tag_18:\n        /* \"@openzeppelin/contracts/security/ReentrancyGuard.sol\":2261:2282  _nonReentrantBefore() */\n      tag_62\n        /* \"@openzeppelin/contracts/security/ReentrancyGuard.sol\":2261:2280  _nonReentrantBefore */\n      tag_63\n        /* \"@openzeppelin/contracts/security/ReentrancyGuard.sol\":2261:2282  _nonReentrantBefore() */\n      jump\t// in\n    tag_62:\n        /* \"PulseToken.sol\":2173:2188  Bet storage bet */\n      0x00\n        /* \"PulseToken.sol\":2191:2195  bets */\n      0x03\n        /* \"PulseToken.sol\":2191:2207  bets[msg.sender] */\n      0x00\n        /* \"PulseToken.sol\":2196:2206  msg.sender */\n      caller\n        /* \"PulseToken.sol\":2191:2207  bets[msg.sender] */\n      0xffffffffffffffffffffffffffffffffffffffff\n      and\n      0xffffffffffffffffffffffffffffffffffffffff\n      and\n      dup2\n      mstore\n      0x20\n      add\n      swap1\n      dup2\n      mstore\n      0x20\n      add\n      0x00\n      keccak256\n        /* \"PulseToken.sol\":2191:2216  bets[msg.sender][eventId] */\n      0x00\n        /* \"PulseToken.sol\":2208:2215  eventId */\n      dup4\n        /* \"PulseToken.sol\":2191:2216  bets[msg.sender][eventId] */\n      dup2\n      mstore\n      0x20\n      add\n      swap1\n      dup2\n      mstore\n      0x20\n      add\n      0x00\n      keccak256\n        /* \"PulseToken.sol\":2173:2216  Bet storage bet = bets[msg.sender][eventId] */\n      swap1\n      pop\n        /* \"PulseToken.sol\":2234:2247  eventOutcomes */\n      0x04\n        /* \"PulseToken.sol\":2234:2256  eventOutcomes[eventId] */\n      0x00\n        /* \"PulseToken.sol\":2248:2255  eventId */\n      dup4\n        /* \"PulseToken.sol\":2234:2256  eventOutcomes[eventId] */\n      dup2\n      mstore\n      0x20\n      add\n      swap1\n      dup2\n      mstore\n      0x20\n      add\n      0x00\n      keccak256\n      0x00\n      swap1\n      sload\n      swap1\n      0x0100\n      exp\n      swap1\n      div\n      0xff\n      and\n        /* \"PulseToken.sol\":2226:2281  require(eventOutcomes[eventId], \"Evento nao resolvido\") */\n      tag_65\n      jumpi\n      mload(0x40)\n      0x08c379a000000000000000000000000000000000000000000000000000000000\n      dup2\n      mstore\n      0x04\n      add\n      tag_66\n      swap1\n      tag_67\n      jump\t// in\n    tag_66:\n      mload(0x40)\n      dup1\n      swap2\n      sub\n      swap1\n      revert\n    tag_65:\n        /* \"PulseToken.sol\":2331:2334  bet */\n      dup1\n        /* \"PulseToken.sol\":2331:2343  bet.resolved */\n      0x02\n      add\n      0x00\n      swap1\n      sload\n      swap1\n      0x0100\n      exp\n      swap1\n      div\n      0xff\n      and\n        /* \"PulseToken.sol\":2323:2368  require(bet.resolved, \"Aposta nao resolvida\") */\n      tag_68\n      jumpi\n      mload(0x40)\n      0x08c379a000000000000000000000000000000000000000000000000000000000\n      dup2\n      mstore\n      0x04\n      add\n      tag_69\n      swap1\n      tag_70\n      jump\t// in\n    tag_69:\n      mload(0x40)\n      dup1\n      swap2\n      sub\n      swap1\n      revert\n    tag_68:\n        /* \"PulseToken.sol\":2386:2389  bet */\n      dup1\n        /* \"PulseToken.sol\":2386:2393  bet.won */\n      0x02\n      add\n      0x01\n      swap1\n      sload\n      swap1\n      0x0100\n      exp\n      swap1\n      div\n      0xff\n      and\n        /* \"PulseToken.sol\":2378:2418  require(bet.won, \"Aposta nao vencedora\") */\n      tag_71\n      jumpi\n      mload(0x40)\n      0x08c379a000000000000000000000000000000000000000000000000000000000\n      dup2\n      mstore\n      0x04\n      add\n      tag_72\n      swap1\n      tag_73\n      jump\t// in\n    tag_72:\n      mload(0x40)\n      dup1\n      swap2\n      sub\n      swap1\n      revert\n    tag_71:\n        /* \"PulseToken.sol\":2437:2449  hasWithdrawn */\n      0x05\n        /* \"PulseToken.sol\":2437:2458  hasWithdrawn[eventId] */\n      0x00\n        /* \"PulseToken.sol\":2450:2457  eventId */\n      dup4\n        /* \"PulseToken.sol\":2437:2458  hasWithdrawn[eventId] */\n      dup2\n      mstore\n      0x20\n      add\n      swap1\n      dup2\n      mstore\n      0x20\n      add\n      0x00\n      keccak256\n        /* \"PulseToken.sol\":2437:2470  hasWithdrawn[eventId][msg.sender] */\n      0x00\n        /* \"PulseToken.sol\":2459:2469  msg.sender */\n      caller\n        /* \"PulseToken.sol\":2437:2470  hasWithdrawn[eventId][msg.sender] */\n      0xffffffffffffffffffffffffffffffffffffffff\n      and\n      0xffffffffffffffffffffffffffffffffffffffff\n      and\n      dup2\n      mstore\n      0x20\n      add\n      swap1\n      dup2\n      mstore\n      0x20\n      add\n      0x00\n      keccak256\n      0x00\n      swap1\n      sload\n      swap1\n      0x0100\n      exp\n      swap1\n      div\n      0xff\n      and\n        /* \"PulseToken.sol\":2436:2470  !hasWithdrawn[eventId][msg.sender] */\n      iszero\n        /* \"PulseToken.sol\":2428:2492  require(!hasWithdrawn[eventId][msg.sender], \"Ganhos ja sacados\") */\n      tag_74\n      jumpi\n      mload(0x40)\n      0x08c379a000000000000000000000000000000000000000000000000000000000\n      dup2\n      mstore\n      0x04\n      add\n      tag_75\n      swap1\n      tag_76\n      jump\t// in\n    tag_75:\n      mload(0x40)\n      dup1\n      swap2\n      sub\n      swap1\n      revert\n    tag_74:\n        /* \"PulseToken.sol\":2502:2516  uint256 payout */\n      0x00\n        /* \"PulseToken.sol\":2543:2546  100 */\n      0x64\n        /* \"PulseToken.sol\":2532:2535  bet */\n      dup3\n        /* \"PulseToken.sol\":2532:2540  bet.odds */\n      0x01\n      add\n      sload\n        /* \"PulseToken.sol\":2519:2522  bet */\n      dup4\n        /* \"PulseToken.sol\":2519:2529  bet.amount */\n      0x00\n      add\n      sload\n        /* \"PulseToken.sol\":2519:2540  bet.amount * bet.odds */\n      tag_77\n      swap2\n      swap1\n      tag_78\n      jump\t// in\n    tag_77:\n        /* \"PulseToken.sol\":2519:2546  bet.amount * bet.odds / 100 */\n      tag_79\n      swap2\n      swap1\n      tag_80\n      jump\t// in\n    tag_79:\n        /* \"PulseToken.sol\":2502:2546  uint256 payout = bet.amount * bet.odds / 100 */\n      swap1\n      pop\n        /* \"PulseToken.sol\":2587:2591  1000 */\n      0x03e8\n        /* \"PulseToken.sol\":2574:2577  bet */\n      dup3\n        /* \"PulseToken.sol\":2574:2584  bet.amount */\n      0x00\n      add\n      sload\n        /* \"PulseToken.sol\":2574:2591  bet.amount * 1000 */\n      tag_81\n      swap2\n      swap1\n      tag_78\n      jump\t// in\n    tag_81:\n        /* \"PulseToken.sol\":2564:2570  payout */\n      dup2\n        /* \"PulseToken.sol\":2564:2591  payout <= bet.amount * 1000 */\n      gt\n      iszero\n        /* \"PulseToken.sol\":2556:2612  require(payout <= bet.amount * 1000, \"Payout excessivo\") */\n      tag_82\n      jumpi\n      mload(0x40)\n      0x08c379a000000000000000000000000000000000000000000000000000000000\n      dup2\n      mstore\n      0x04\n      add\n      tag_83\n      swap1\n      tag_84\n      jump\t// in\n    tag_83:\n      mload(0x40)\n      dup1\n      swap2\n      sub\n      swap1\n      revert\n    tag_82:\n        /* \"PulseToken.sol\":2665:2675  pulseToken */\n      0x02\n      0x00\n      swap1\n      sload\n      swap1\n      0x0100\n      exp\n      swap1\n      div\n      0xffffffffffffffffffffffffffffffffffffffff\n      and\n        /* \"PulseToken.sol\":2665:2684  pulseToken.transfer */\n      0xffffffffffffffffffffffffffffffffffffffff\n      and\n      0xa9059cbb\n        /* \"PulseToken.sol\":2685:2695  msg.sender */\n      caller\n        /* \"PulseToken.sol\":2697:2703  payout */\n      dup4\n        /* \"PulseToken.sol\":2665:2704  pulseToken.transfer(msg.sender, payout) */\n      mload(0x40)\n      dup4\n      0xffffffff\n      and\n      0xe0\n      shl\n      dup2\n      mstore\n      0x04\n      add\n      tag_85\n      swap3\n      swap2\n      swap1\n      tag_86\n      jump\t// in\n    tag_85:\n      0x20\n      mload(0x40)\n      dup1\n      dup4\n      sub\n      dup2\n      0x00\n      dup8\n      gas\n      call\n      iszero\n      dup1\n      iszero\n      tag_88\n      jumpi\n      returndatasize\n      0x00\n      dup1\n      returndatacopy\n      revert(0x00, returndatasize)\n    tag_88:\n      pop\n      pop\n      pop\n      pop\n      mload(0x40)\n      returndatasize\n      not(0x1f)\n      0x1f\n      dup3\n      add\n      and\n      dup3\n      add\n      dup1\n      0x40\n      mstore\n      pop\n      dup2\n      add\n      swap1\n      tag_89\n      swap2\n      swap1\n      tag_90\n      jump\t// in\n    tag_89:\n        /* \"PulseToken.sol\":2657:2731  require(pulseToken.transfer(msg.sender, payout), \"Falha na transferencia\") */\n      tag_91\n      jumpi\n      mload(0x40)\n      0x08c379a000000000000000000000000000000000000000000000000000000000\n      dup2\n      mstore\n      0x04\n      add\n      tag_92\n      swap1\n      tag_93\n      jump\t// in\n    tag_92:\n      mload(0x40)\n      dup1\n      swap2\n      sub\n      swap1\n      revert\n    tag_91:\n        /* \"PulseToken.sol\":2777:2781  true */\n      0x01\n        /* \"PulseToken.sol\":2741:2753  hasWithdrawn */\n      0x05\n        /* \"PulseToken.sol\":2741:2762  hasWithdrawn[eventId] */\n      0x00\n        /* \"PulseToken.sol\":2754:2761  eventId */\n      dup6\n        /* \"PulseToken.sol\":2741:2762  hasWithdrawn[eventId] */\n      dup2\n      mstore\n      0x20\n      add\n      swap1\n      dup2\n      mstore\n      0x20\n      add\n      0x00\n      keccak256\n        /* \"PulseToken.sol\":2741:2774  hasWithdrawn[eventId][msg.sender] */\n      0x00\n        /* \"PulseToken.sol\":2763:2773  msg.sender */\n      caller\n        /* \"PulseToken.sol\":2741:2774  hasWithdrawn[eventId][msg.sender] */\n      0xffffffffffffffffffffffffffffffffffffffff\n      and\n      0xffffffffffffffffffffffffffffffffffffffff\n      and\n      dup2\n      mstore\n      0x20\n      add\n      swap1\n      dup2\n      mstore\n      0x20\n      add\n      0x00\n      keccak256\n      0x00\n        /* \"PulseToken.sol\":2741:2781  hasWithdrawn[eventId][msg.sender] = true */\n      0x0100\n      exp\n      dup2\n      sload\n      dup2\n      0xff\n      mul\n      not\n      and\n      swap1\n      dup4\n      iszero\n      iszero\n      mul\n      or\n      swap1\n      sstore\n      pop\n        /* \"PulseToken.sol\":2798:2802  bets */\n      0x03\n        /* \"PulseToken.sol\":2798:2814  bets[msg.sender] */\n      0x00\n        /* \"PulseToken.sol\":2803:2813  msg.sender */\n      caller\n        /* \"PulseToken.sol\":2798:2814  bets[msg.sender] */\n      0xffffffffffffffffffffffffffffffffffffffff\n      and\n      0xffffffffffffffffffffffffffffffffffffffff\n      and\n      dup2\n      mstore\n      0x20\n      add\n      swap1\n      dup2\n      mstore\n      0x20\n      add\n      0x00\n      keccak256\n        /* \"PulseToken.sol\":2798:2823  bets[msg.sender][eventId] */\n      0x00\n        /* \"PulseToken.sol\":2815:2822  eventId */\n      dup5\n        /* \"PulseToken.sol\":2798:2823  bets[msg.sender][eventId] */\n      dup2\n      mstore\n      0x20\n      add\n      swap1\n      dup2\n      mstore\n      0x20\n      add\n      0x00\n      keccak256\n      0x00\n        /* \"PulseToken.sol\":2791:2823  delete bets[msg.sender][eventId] */\n      dup1\n      dup3\n      add\n      0x00\n      swap1\n      sstore\n      0x01\n      dup3\n      add\n      0x00\n      swap1\n      sstore\n      0x02\n      dup3\n      add\n      exp(0x0100, 0x00)\n      dup2\n      sload\n      swap1\n      0xff\n      mul\n      not\n      and\n      swap1\n      sstore\n      0x02\n      dup3\n      add\n      exp(0x0100, 0x01)\n      dup2\n      sload\n      swap1\n      0xff\n      mul\n      not\n      and\n      swap1\n      sstore\n      pop\n      pop\n        /* \"PulseToken.sol\":2163:2830  {... */\n      pop\n      pop\n        /* \"@openzeppelin/contracts/security/ReentrancyGuard.sol\":2303:2323  _nonReentrantAfter() */\n      tag_94\n        /* \"@openzeppelin/contracts/security/ReentrancyGuard.sol\":2303:2321  _nonReentrantAfter */\n      tag_95\n        /* \"@openzeppelin/contracts/security/ReentrancyGuard.sol\":2303:2323  _nonReentrantAfter() */\n      jump\t// in\n    tag_94:\n        /* \"PulseToken.sol\":2098:2830  function withdrawWinnings(uint256 eventId) external nonReentrant {... */\n      pop\n      jump\t// out\n        /* \"PulseToken.sol\":563:618  mapping(address => mapping(uint256 => Bet)) public bets */\n    tag_22:\n      mstore(0x20, 0x03)\n      dup2\n      0x00\n      mstore\n      mstore(0x20, keccak256(0x00, 0x40))\n      dup1\n      0x00\n      mstore\n      keccak256(0x00, 0x40)\n      0x00\n      swap2\n      pop\n      swap2\n      pop\n      pop\n      dup1\n      0x00\n      add\n      sload\n      swap1\n      dup1\n      0x01\n      add\n      sload\n      swap1\n      dup1\n      0x02\n      add\n      0x00\n      swap1\n      sload\n      swap1\n      0x0100\n      exp\n      swap1\n      div\n      0xff\n      and\n      swap1\n      dup1\n      0x02\n      add\n      0x01\n      swap1\n      sload\n      swap1\n      0x0100\n      exp\n      swap1\n      div\n      0xff\n      and\n      swap1\n      pop\n      dup5\n      jump\t// out\n        /* \"PulseToken.sol\":284:308  IERC20 public pulseToken */\n    tag_26:\n      0x02\n      0x00\n      swap1\n      sload\n      swap1\n      0x0100\n      exp\n      swap1\n      div\n      0xffffffffffffffffffffffffffffffffffffffff\n      and\n      dup2\n      jump\t// out\n        /* \"PulseToken.sol\":669:714  mapping(uint256 => bool) public eventOutcomes */\n    tag_31:\n      mstore(0x20, 0x04)\n      dup1\n      0x00\n      mstore\n      keccak256(0x00, 0x40)\n      0x00\n      swap2\n      pop\n      sload\n      swap1\n      0x0100\n      exp\n      swap1\n      div\n      0xff\n      and\n      dup2\n      jump\t// out\n        /* \"@openzeppelin/contracts/access/Ownable.sol\":2293:2394  function renounceOwnership() public virtual onlyOwner {... */\n    tag_35:\n        /* \"@openzeppelin/contracts/access/Ownable.sol\":1531:1544  _checkOwner() */\n      tag_97\n        /* \"@openzeppelin/contracts/access/Ownable.sol\":1531:1542  _checkOwner */\n      tag_98\n        /* \"@openzeppelin/contracts/access/Ownable.sol\":1531:1544  _checkOwner() */\n      jump\t// in\n    tag_97:\n        /* \"@openzeppelin/contracts/access/Ownable.sol\":2357:2387  _transferOwnership(address(0)) */\n      tag_100\n        /* \"@openzeppelin/contracts/access/Ownable.sol\":2384:2385  0 */\n      0x00\n        /* \"@openzeppelin/contracts/access/Ownable.sol\":2357:2375  _transferOwnership */\n      tag_101\n        /* \"@openzeppelin/contracts/access/Ownable.sol\":2357:2387  _transferOwnership(address(0)) */\n      jump\t// in\n    tag_100:\n        /* \"@openzeppelin/contracts/access/Ownable.sol\":2293:2394  function renounceOwnership() public virtual onlyOwner {... */\n      jump\t// out\n        /* \"@openzeppelin/contracts/access/Ownable.sol\":1638:1723  function owner() public view virtual returns (address) {... */\n    tag_37:\n        /* \"@openzeppelin/contracts/access/Ownable.sol\":1684:1691  address */\n      0x00\n        /* \"@openzeppelin/contracts/access/Ownable.sol\":1710:1716  _owner */\n      dup1\n      0x00\n      swap1\n      sload\n      swap1\n      0x0100\n      exp\n      swap1\n      div\n      0xffffffffffffffffffffffffffffffffffffffff\n      and\n        /* \"@openzeppelin/contracts/access/Ownable.sol\":1703:1716  return _owner */\n      swap1\n      pop\n        /* \"@openzeppelin/contracts/access/Ownable.sol\":1638:1723  function owner() public view virtual returns (address) {... */\n      swap1\n      jump\t// out\n        /* \"PulseToken.sol\":1511:2058  function resolveEvent(uint256 eventId, bool outcome) external onlyOwner {... */\n    tag_43:\n        /* \"@openzeppelin/contracts/access/Ownable.sol\":1531:1544  _checkOwner() */\n      tag_104\n        /* \"@openzeppelin/contracts/access/Ownable.sol\":1531:1542  _checkOwner */\n      tag_98\n        /* \"@openzeppelin/contracts/access/Ownable.sol\":1531:1544  _checkOwner() */\n      jump\t// in\n    tag_104:\n        /* \"PulseToken.sol\":1602:1615  eventOutcomes */\n      0x04\n        /* \"PulseToken.sol\":1602:1624  eventOutcomes[eventId] */\n      0x00\n        /* \"PulseToken.sol\":1616:1623  eventId */\n      dup4\n        /* \"PulseToken.sol\":1602:1624  eventOutcomes[eventId] */\n      dup2\n      mstore\n      0x20\n      add\n      swap1\n      dup2\n      mstore\n      0x20\n      add\n      0x00\n      keccak256\n      0x00\n      swap1\n      sload\n      swap1\n      0x0100\n      exp\n      swap1\n      div\n      0xff\n      and\n        /* \"PulseToken.sol\":1601:1624  !eventOutcomes[eventId] */\n      iszero\n        /* \"PulseToken.sol\":1593:1648  require(!eventOutcomes[eventId], \"Evento ja resolvido\") */\n      tag_106\n      jumpi\n      mload(0x40)\n      0x08c379a000000000000000000000000000000000000000000000000000000000\n      dup2\n      mstore\n      0x04\n      add\n      tag_107\n      swap1\n      tag_108\n      jump\t// in\n    tag_107:\n      mload(0x40)\n      dup1\n      swap2\n      sub\n      swap1\n      revert\n    tag_106:\n        /* \"PulseToken.sol\":1683:1687  true */\n      0x01\n        /* \"PulseToken.sol\":1658:1671  eventOutcomes */\n      0x04\n        /* \"PulseToken.sol\":1658:1680  eventOutcomes[eventId] */\n      0x00\n        /* \"PulseToken.sol\":1672:1679  eventId */\n      dup5\n        /* \"PulseToken.sol\":1658:1680  eventOutcomes[eventId] */\n      dup2\n      mstore\n      0x20\n      add\n      swap1\n      dup2\n      mstore\n      0x20\n      add\n      0x00\n      keccak256\n      0x00\n        /* \"PulseToken.sol\":1658:1687  eventOutcomes[eventId] = true */\n      0x0100\n      exp\n      dup2\n      sload\n      dup2\n      0xff\n      mul\n      not\n      and\n      swap1\n      dup4\n      iszero\n      iszero\n      mul\n      or\n      swap1\n      sstore\n      pop\n        /* \"PulseToken.sol\":1781:1790  uint256 i */\n      0x00\n        /* \"PulseToken.sol\":1776:2052  for (uint256 i = 0; i <= eventIdCounter; i++) {... */\n    tag_109:\n        /* \"PulseToken.sol\":1801:1815  eventIdCounter */\n      sload(0x06)\n        /* \"PulseToken.sol\":1796:1797  i */\n      dup2\n        /* \"PulseToken.sol\":1796:1815  i <= eventIdCounter */\n      gt\n        /* \"PulseToken.sol\":1776:2052  for (uint256 i = 0; i <= eventIdCounter; i++) {... */\n      tag_110\n      jumpi\n        /* \"PulseToken.sol\":1869:1870  0 */\n      0x00\n        /* \"PulseToken.sol\":1840:1844  bets */\n      0x03\n        /* \"PulseToken.sol\":1840:1856  bets[msg.sender] */\n      0x00\n        /* \"PulseToken.sol\":1845:1855  msg.sender */\n      caller\n        /* \"PulseToken.sol\":1840:1856  bets[msg.sender] */\n      0xffffffffffffffffffffffffffffffffffffffff\n      and\n      0xffffffffffffffffffffffffffffffffffffffff\n      and\n      dup2\n      mstore\n      0x20\n      add\n      swap1\n      dup2\n      mstore\n      0x20\n      add\n      0x00\n      keccak256\n        /* \"PulseToken.sol\":1840:1859  bets[msg.sender][i] */\n      0x00\n        /* \"PulseToken.sol\":1857:1858  i */\n      dup4\n        /* \"PulseToken.sol\":1840:1859  bets[msg.sender][i] */\n      dup2\n      mstore\n      0x20\n      add\n      swap1\n      dup2\n      mstore\n      0x20\n      add\n      0x00\n      keccak256\n        /* \"PulseToken.sol\":1840:1866  bets[msg.sender][i].amount */\n      0x00\n      add\n      sload\n        /* \"PulseToken.sol\":1840:1870  bets[msg.sender][i].amount > 0 */\n      gt\n        /* \"PulseToken.sol\":1840:1903  bets[msg.sender][i].amount > 0 && !bets[msg.sender][i].resolved */\n      dup1\n      iszero\n      tag_112\n      jumpi\n      pop\n        /* \"PulseToken.sol\":1875:1879  bets */\n      0x03\n        /* \"PulseToken.sol\":1875:1891  bets[msg.sender] */\n      0x00\n        /* \"PulseToken.sol\":1880:1890  msg.sender */\n      caller\n        /* \"PulseToken.sol\":1875:1891  bets[msg.sender] */\n      0xffffffffffffffffffffffffffffffffffffffff\n      and\n      0xffffffffffffffffffffffffffffffffffffffff\n      and\n      dup2\n      mstore\n      0x20\n      add\n      swap1\n      dup2\n      mstore\n      0x20\n      add\n      0x00\n      keccak256\n        /* \"PulseToken.sol\":1875:1894  bets[msg.sender][i] */\n      0x00\n        /* \"PulseToken.sol\":1892:1893  i */\n      dup3\n        /* \"PulseToken.sol\":1875:1894  bets[msg.sender][i] */\n      dup2\n      mstore\n      0x20\n      add\n      swap1\n      dup2\n      mstore\n      0x20\n      add\n      0x00\n      keccak256\n        /* \"PulseToken.sol\":1875:1903  bets[msg.sender][i].resolved */\n      0x02\n      add\n      0x00\n      swap1\n      sload\n      swap1\n      0x0100\n      exp\n      swap1\n      div\n      0xff\n      and\n        /* \"PulseToken.sol\":1874:1903  !bets[msg.sender][i].resolved */\n      iszero\n        /* \"PulseToken.sol\":1840:1903  bets[msg.sender][i].amount > 0 && !bets[msg.sender][i].resolved */\n    tag_112:\n        /* \"PulseToken.sol\":1836:2042  if (bets[msg.sender][i].amount > 0 && !bets[msg.sender][i].resolved) {... */\n      iszero\n      tag_113\n      jumpi\n        /* \"PulseToken.sol\":1954:1958  true */\n      0x01\n        /* \"PulseToken.sol\":1923:1927  bets */\n      0x03\n        /* \"PulseToken.sol\":1923:1939  bets[msg.sender] */\n      0x00\n        /* \"PulseToken.sol\":1928:1938  msg.sender */\n      caller\n        /* \"PulseToken.sol\":1923:1939  bets[msg.sender] */\n      0xffffffffffffffffffffffffffffffffffffffff\n      and\n      0xffffffffffffffffffffffffffffffffffffffff\n      and\n      dup2\n      mstore\n      0x20\n      add\n      swap1\n      dup2\n      mstore\n      0x20\n      add\n      0x00\n      keccak256\n        /* \"PulseToken.sol\":1923:1942  bets[msg.sender][i] */\n      0x00\n        /* \"PulseToken.sol\":1940:1941  i */\n      dup4\n        /* \"PulseToken.sol\":1923:1942  bets[msg.sender][i] */\n      dup2\n      mstore\n      0x20\n      add\n      swap1\n      dup2\n      mstore\n      0x20\n      add\n      0x00\n      keccak256\n        /* \"PulseToken.sol\":1923:1951  bets[msg.sender][i].resolved */\n      0x02\n      add\n      0x00\n        /* \"PulseToken.sol\":1923:1958  bets[msg.sender][i].resolved = true */\n      0x0100\n      exp\n      dup2\n      sload\n      dup2\n      0xff\n      mul\n      not\n      and\n      swap1\n      dup4\n      iszero\n      iszero\n      mul\n      or\n      swap1\n      sstore\n      pop\n        /* \"PulseToken.sol\":2008:2015  eventId */\n      dup3\n        /* \"PulseToken.sol\":2003:2004  i */\n      dup2\n        /* \"PulseToken.sol\":2003:2015  i == eventId */\n      eq\n        /* \"PulseToken.sol\":2003:2026  i == eventId && outcome */\n      dup1\n      iszero\n      tag_114\n      jumpi\n      pop\n        /* \"PulseToken.sol\":2019:2026  outcome */\n      dup2\n        /* \"PulseToken.sol\":2003:2026  i == eventId && outcome */\n    tag_114:\n        /* \"PulseToken.sol\":1976:1980  bets */\n      0x03\n        /* \"PulseToken.sol\":1976:1992  bets[msg.sender] */\n      0x00\n        /* \"PulseToken.sol\":1981:1991  msg.sender */\n      caller\n        /* \"PulseToken.sol\":1976:1992  bets[msg.sender] */\n      0xffffffffffffffffffffffffffffffffffffffff\n      and\n      0xffffffffffffffffffffffffffffffffffffffff\n      and\n      dup2\n      mstore\n      0x20\n      add\n      swap1\n      dup2\n      mstore\n      0x20\n      add\n      0x00\n      keccak256\n        /* \"PulseToken.sol\":1976:1995  bets[msg.sender][i] */\n      0x00\n        /* \"PulseToken.sol\":1993:1994  i */\n      dup4\n        /* \"PulseToken.sol\":1976:1995  bets[msg.sender][i] */\n      dup2\n      mstore\n      0x20\n      add\n      swap1\n      dup2\n      mstore\n      0x20\n      add\n      0x00\n      keccak256\n        /* \"PulseToken.sol\":1976:1999  bets[msg.sender][i].won */\n      0x02\n      add\n      0x01\n        /* \"PulseToken.sol\":1976:2027  bets[msg.sender][i].won = (i == eventId && outcome) */\n      0x0100\n      exp\n      dup2\n      sload\n      dup2\n      0xff\n      mul\n      not\n      and\n      swap1\n      dup4\n      iszero\n      iszero\n      mul\n      or\n      swap1\n      sstore\n      pop\n        /* \"PulseToken.sol\":1836:2042  if (bets[msg.sender][i].amount > 0 && !bets[msg.sender][i].resolved) {... */\n    tag_113:\n        /* \"PulseToken.sol\":1817:1820  i++ */\n      dup1\n      dup1\n      tag_115\n      swap1\n      tag_116\n      jump\t// in\n    tag_115:\n      swap2\n      pop\n      pop\n        /* \"PulseToken.sol\":1776:2052  for (uint256 i = 0; i <= eventIdCounter; i++) {... */\n      jump(tag_109)\n    tag_110:\n      pop\n        /* \"PulseToken.sol\":1511:2058  function resolveEvent(uint256 eventId, bool outcome) external onlyOwner {... */\n      pop\n      pop\n      jump\t// out\n        /* \"PulseToken.sol\":746:810  mapping(uint256 => mapping(address => bool)) public hasWithdrawn */\n    tag_47:\n      mstore(0x20, 0x05)\n      dup2\n      0x00\n      mstore\n      mstore(0x20, keccak256(0x00, 0x40))\n      dup1\n      0x00\n      mstore\n      keccak256(0x00, 0x40)\n      0x00\n      swap2\n      pop\n      swap2\n      pop\n      swap1\n      sload\n      swap1\n      0x0100\n      exp\n      swap1\n      div\n      0xff\n      and\n      dup2\n      jump\t// out\n        /* \"PulseToken.sol\":857:886  uint256 public eventIdCounter */\n    tag_50:\n      sload(0x06)\n      dup2\n      jump\t// out\n        /* \"PulseToken.sol\":1061:1454  function placeBet(uint256 eventId, uint256 amount, uint256 odds) external nonReentrant {... */\n    tag_56:\n        /* \"@openzeppelin/contracts/security/ReentrancyGuard.sol\":2261:2282  _nonReentrantBefore() */\n      tag_118\n        /* \"@openzeppelin/contracts/security/ReentrancyGuard.sol\":2261:2280  _nonReentrantBefore */\n      tag_63\n        /* \"@openzeppelin/contracts/security/ReentrancyGuard.sol\":2261:2282  _nonReentrantBefore() */\n      jump\t// in\n    tag_118:\n        /* \"PulseToken.sol\":1167:1180  eventOutcomes */\n      0x04\n        /* \"PulseToken.sol\":1167:1189  eventOutcomes[eventId] */\n      0x00\n        /* \"PulseToken.sol\":1181:1188  eventId */\n      dup5\n        /* \"PulseToken.sol\":1167:1189  eventOutcomes[eventId] */\n      dup2\n      mstore\n      0x20\n      add\n      swap1\n      dup2\n      mstore\n      0x20\n      add\n      0x00\n      keccak256\n      0x00\n      swap1\n      sload\n      swap1\n      0x0100\n      exp\n      swap1\n      div\n      0xff\n      and\n        /* \"PulseToken.sol\":1166:1189  !eventOutcomes[eventId] */\n      iszero\n        /* \"PulseToken.sol\":1158:1213  require(!eventOutcomes[eventId], \"Evento ja resolvido\") */\n      tag_120\n      jumpi\n      mload(0x40)\n      0x08c379a000000000000000000000000000000000000000000000000000000000\n      dup2\n      mstore\n      0x04\n      add\n      tag_121\n      swap1\n      tag_108\n      jump\t// in\n    tag_121:\n      mload(0x40)\n      dup1\n      swap2\n      sub\n      swap1\n      revert\n    tag_120:\n        /* \"PulseToken.sol\":1240:1241  0 */\n      0x00\n        /* \"PulseToken.sol\":1231:1237  amount */\n      dup3\n        /* \"PulseToken.sol\":1231:1241  amount > 0 */\n      gt\n        /* \"PulseToken.sol\":1231:1253  amount > 0 && odds > 0 */\n      dup1\n      iszero\n      tag_122\n      jumpi\n      pop\n        /* \"PulseToken.sol\":1252:1253  0 */\n      0x00\n        /* \"PulseToken.sol\":1245:1249  odds */\n      dup2\n        /* \"PulseToken.sol\":1245:1253  odds > 0 */\n      gt\n        /* \"PulseToken.sol\":1231:1253  amount > 0 && odds > 0 */\n    tag_122:\n        /* \"PulseToken.sol\":1223:1275  require(amount > 0 && odds > 0, \"Valores invalidos\") */\n      tag_123\n      jumpi\n      mload(0x40)\n      0x08c379a000000000000000000000000000000000000000000000000000000000\n      dup2\n      mstore\n      0x04\n      add\n      tag_124\n      swap1\n      tag_125\n      jump\t// in\n    tag_124:\n      mload(0x40)\n      dup1\n      swap2\n      sub\n      swap1\n      revert\n    tag_123:\n        /* \"PulseToken.sol\":1293:1303  pulseToken */\n      0x02\n      0x00\n      swap1\n      sload\n      swap1\n      0x0100\n      exp\n      swap1\n      div\n      0xffffffffffffffffffffffffffffffffffffffff\n      and\n        /* \"PulseToken.sol\":1293:1316  pulseToken.transferFrom */\n      0xffffffffffffffffffffffffffffffffffffffff\n      and\n      0x23b872dd\n        /* \"PulseToken.sol\":1317:1327  msg.sender */\n      caller\n        /* \"PulseToken.sol\":1337:1341  this */\n      address\n        /* \"PulseToken.sol\":1344:1350  amount */\n      dup6\n        /* \"PulseToken.sol\":1293:1351  pulseToken.transferFrom(msg.sender, address(this), amount) */\n      mload(0x40)\n      dup5\n      0xffffffff\n      and\n      0xe0\n      shl\n      dup2\n      mstore\n      0x04\n      add\n      tag_126\n      swap4\n      swap3\n      swap2\n      swap1\n      tag_127\n      jump\t// in\n    tag_126:\n      0x20\n      mload(0x40)\n      dup1\n      dup4\n      sub\n      dup2\n      0x00\n      dup8\n      gas\n      call\n      iszero\n      dup1\n      iszero\n      tag_129\n      jumpi\n      returndatasize\n      0x00\n      dup1\n      returndatacopy\n      revert(0x00, returndatasize)\n    tag_129:\n      pop\n      pop\n      pop\n      pop\n      mload(0x40)\n      returndatasize\n      not(0x1f)\n      0x1f\n      dup3\n      add\n      and\n      dup3\n      add\n      dup1\n      0x40\n      mstore\n      pop\n      dup2\n      add\n      swap1\n      tag_130\n      swap2\n      swap1\n      tag_90\n      jump\t// in\n    tag_130:\n        /* \"PulseToken.sol\":1285:1378  require(pulseToken.transferFrom(msg.sender, address(this), amount), \"Falha na transferencia\") */\n      tag_131\n      jumpi\n      mload(0x40)\n      0x08c379a000000000000000000000000000000000000000000000000000000000\n      dup2\n      mstore\n      0x04\n      add\n      tag_132\n      swap1\n      tag_93\n      jump\t// in\n    tag_132:\n      mload(0x40)\n      dup1\n      swap2\n      sub\n      swap1\n      revert\n    tag_131:\n        /* \"PulseToken.sol\":1416:1447  Bet(amount, odds, false, false) */\n      mload(0x40)\n      dup1\n      0x80\n      add\n      0x40\n      mstore\n      dup1\n        /* \"PulseToken.sol\":1420:1426  amount */\n      dup4\n        /* \"PulseToken.sol\":1416:1447  Bet(amount, odds, false, false) */\n      dup2\n      mstore\n      0x20\n      add\n        /* \"PulseToken.sol\":1428:1432  odds */\n      dup3\n        /* \"PulseToken.sol\":1416:1447  Bet(amount, odds, false, false) */\n      dup2\n      mstore\n      0x20\n      add\n        /* \"PulseToken.sol\":1434:1439  false */\n      0x00\n        /* \"PulseToken.sol\":1416:1447  Bet(amount, odds, false, false) */\n      iszero\n      iszero\n      dup2\n      mstore\n      0x20\n      add\n        /* \"PulseToken.sol\":1441:1446  false */\n      0x00\n        /* \"PulseToken.sol\":1416:1447  Bet(amount, odds, false, false) */\n      iszero\n      iszero\n      dup2\n      mstore\n      pop\n        /* \"PulseToken.sol\":1388:1392  bets */\n      0x03\n        /* \"PulseToken.sol\":1388:1404  bets[msg.sender] */\n      0x00\n        /* \"PulseToken.sol\":1393:1403  msg.sender */\n      caller\n        /* \"PulseToken.sol\":1388:1404  bets[msg.sender] */\n      0xffffffffffffffffffffffffffffffffffffffff\n      and\n      0xffffffffffffffffffffffffffffffffffffffff\n      and\n      dup2\n      mstore\n      0x20\n      add\n      swap1\n      dup2\n      mstore\n      0x20\n      add\n      0x00\n      keccak256\n        /* \"PulseToken.sol\":1388:1413  bets[msg.sender][eventId] */\n      0x00\n        /* \"PulseToken.sol\":1405:1412  eventId */\n      dup6\n        /* \"PulseToken.sol\":1388:1413  bets[msg.sender][eventId] */\n      dup2\n      mstore\n      0x20\n      add\n      swap1\n      dup2\n      mstore\n      0x20\n      add\n      0x00\n      keccak256\n        /* \"PulseToken.sol\":1388:1447  bets[msg.sender][eventId] = Bet(amount, odds, false, false) */\n      0x00\n      dup3\n      add\n      mload\n      dup2\n      0x00\n      add\n      sstore\n      0x20\n      dup3\n      add\n      mload\n      dup2\n      0x01\n      add\n      sstore\n      0x40\n      dup3\n      add\n      mload\n      dup2\n      0x02\n      add\n      exp(0x0100, 0x00)\n      dup2\n      sload\n      dup2\n      0xff\n      mul\n      not\n      and\n      swap1\n      dup4\n      iszero\n      iszero\n      mul\n      or\n      swap1\n      sstore\n      pop\n      0x60\n      dup3\n      add\n      mload\n      dup2\n      0x02\n      add\n      exp(0x0100, 0x01)\n      dup2\n      sload\n      dup2\n      0xff\n      mul\n      not\n      and\n      swap1\n      dup4\n      iszero\n      iszero\n      mul\n      or\n      swap1\n      sstore\n      pop\n      swap1\n      pop\n      pop\n        /* \"@openzeppelin/contracts/security/ReentrancyGuard.sol\":2303:2323  _nonReentrantAfter() */\n      tag_133\n        /* \"@openzeppelin/contracts/security/ReentrancyGuard.sol\":2303:2321  _nonReentrantAfter */\n      tag_95\n        /* \"@openzeppelin/contracts/security/ReentrancyGuard.sol\":2303:2323  _nonReentrantAfter() */\n      jump\t// in\n    tag_133:\n        /* \"PulseToken.sol\":1061:1454  function placeBet(uint256 eventId, uint256 amount, uint256 odds) external nonReentrant {... */\n      pop\n      pop\n      pop\n      jump\t// out\n        /* \"@openzeppelin/contracts/access/Ownable.sol\":2543:2758  function transferOwnership(address newOwner) public virtual onlyOwner {... */\n    tag_60:\n        /* \"@openzeppelin/contracts/access/Ownable.sol\":1531:1544  _checkOwner() */\n      tag_135\n        /* \"@openzeppelin/contracts/access/Ownable.sol\":1531:1542  _checkOwner */\n      tag_98\n        /* \"@openzeppelin/contracts/access/Ownable.sol\":1531:1544  _checkOwner() */\n      jump\t// in\n    tag_135:\n        /* \"@openzeppelin/contracts/access/Ownable.sol\":2647:2648  0 */\n      0x00\n        /* \"@openzeppelin/contracts/access/Ownable.sol\":2627:2649  newOwner == address(0) */\n      0xffffffffffffffffffffffffffffffffffffffff\n      and\n        /* \"@openzeppelin/contracts/access/Ownable.sol\":2627:2635  newOwner */\n      dup2\n        /* \"@openzeppelin/contracts/access/Ownable.sol\":2627:2649  newOwner == address(0) */\n      0xffffffffffffffffffffffffffffffffffffffff\n      and\n      sub\n        /* \"@openzeppelin/contracts/access/Ownable.sol\":2623:2714  if (newOwner == address(0)) {... */\n      tag_137\n      jumpi\n        /* \"@openzeppelin/contracts/access/Ownable.sol\":2700:2701  0 */\n      0x00\n        /* \"@openzeppelin/contracts/access/Ownable.sol\":2672:2703  OwnableInvalidOwner(address(0)) */\n      mload(0x40)\n      0x1e4fbdf700000000000000000000000000000000000000000000000000000000\n      dup2\n      mstore\n      0x04\n      add\n      tag_138\n      swap2\n      swap1\n      tag_39\n      jump\t// in\n    tag_138:\n      mload(0x40)\n      dup1\n      swap2\n      sub\n      swap1\n      revert\n        /* \"@openzeppelin/contracts/access/Ownable.sol\":2623:2714  if (newOwner == address(0)) {... */\n    tag_137:\n        /* \"@openzeppelin/contracts/access/Ownable.sol\":2723:2751  _transferOwnership(newOwner) */\n      tag_139\n        /* \"@openzeppelin/contracts/access/Ownable.sol\":2742:2750  newOwner */\n      dup2\n        /* \"@openzeppelin/contracts/access/Ownable.sol\":2723:2741  _transferOwnership */\n      tag_101\n        /* \"@openzeppelin/contracts/access/Ownable.sol\":2723:2751  _transferOwnership(newOwner) */\n      jump\t// in\n    tag_139:\n        /* \"@openzeppelin/contracts/access/Ownable.sol\":2543:2758  function transferOwnership(address newOwner) public virtual onlyOwner {... */\n      pop\n      jump\t// out\n        /* \"@openzeppelin/contracts/security/ReentrancyGuard.sol\":2336:2623  function _nonReentrantBefore() private {... */\n    tag_63:\n        /* \"@openzeppelin/contracts/security/ReentrancyGuard.sol\":1759:1760  2 */\n      0x02\n        /* \"@openzeppelin/contracts/security/ReentrancyGuard.sol\":2468:2475  _status */\n      sload(0x01)\n        /* \"@openzeppelin/contracts/security/ReentrancyGuard.sol\":2468:2487  _status != _ENTERED */\n      sub\n        /* \"@openzeppelin/contracts/security/ReentrancyGuard.sol\":2460:2523  require(_status != _ENTERED, \"ReentrancyGuard: reentrant call\") */\n      tag_141\n      jumpi\n      mload(0x40)\n      0x08c379a000000000000000000000000000000000000000000000000000000000\n      dup2\n      mstore\n      0x04\n      add\n      tag_142\n      swap1\n      tag_143\n      jump\t// in\n    tag_142:\n      mload(0x40)\n      dup1\n      swap2\n      sub\n      swap1\n      revert\n    tag_141:\n        /* \"@openzeppelin/contracts/security/ReentrancyGuard.sol\":1759:1760  2 */\n      0x02\n        /* \"@openzeppelin/contracts/security/ReentrancyGuard.sol\":2598:2605  _status */\n      0x01\n        /* \"@openzeppelin/contracts/security/ReentrancyGuard.sol\":2598:2616  _status = _ENTERED */\n      dup2\n      swap1\n      sstore\n      pop\n        /* \"@openzeppelin/contracts/security/ReentrancyGuard.sol\":2336:2623  function _nonReentrantBefore() private {... */\n      jump\t// out\n        /* \"@openzeppelin/contracts/security/ReentrancyGuard.sol\":2629:2838  function _nonReentrantAfter() private {... */\n    tag_95:\n        /* \"@openzeppelin/contracts/security/ReentrancyGuard.sol\":1716:1717  1 */\n      0x01\n        /* \"@openzeppelin/contracts/security/ReentrancyGuard.sol\":2809:2816  _status */\n      dup1\n        /* \"@openzeppelin/contracts/security/ReentrancyGuard.sol\":2809:2831  _status = _NOT_ENTERED */\n      dup2\n      swap1\n      sstore\n      pop\n        /* \"@openzeppelin/contracts/security/ReentrancyGuard.sol\":2629:2838  function _nonReentrantAfter() private {... */\n      jump\t// out\n        /* \"@openzeppelin/contracts/access/Ownable.sol\":1796:1958  function _checkOwner() internal view virtual {... */\n    tag_98:\n        /* \"@openzeppelin/contracts/access/Ownable.sol\":1866:1878  _msgSender() */\n      tag_146\n        /* \"@openzeppelin/contracts/access/Ownable.sol\":1866:1876  _msgSender */\n      tag_147\n        /* \"@openzeppelin/contracts/access/Ownable.sol\":1866:1878  _msgSender() */\n      jump\t// in\n    tag_146:\n        /* \"@openzeppelin/contracts/access/Ownable.sol\":1855:1878  owner() != _msgSender() */\n      0xffffffffffffffffffffffffffffffffffffffff\n      and\n        /* \"@openzeppelin/contracts/access/Ownable.sol\":1855:1862  owner() */\n      tag_148\n        /* \"@openzeppelin/contracts/access/Ownable.sol\":1855:1860  owner */\n      tag_37\n        /* \"@openzeppelin/contracts/access/Ownable.sol\":1855:1862  owner() */\n      jump\t// in\n    tag_148:\n        /* \"@openzeppelin/contracts/access/Ownable.sol\":1855:1878  owner() != _msgSender() */\n      0xffffffffffffffffffffffffffffffffffffffff\n      and\n      eq\n        /* \"@openzeppelin/contracts/access/Ownable.sol\":1851:1952  if (owner() != _msgSender()) {... */\n      tag_149\n      jumpi\n        /* \"@openzeppelin/contracts/access/Ownable.sol\":1928:1940  _msgSender() */\n      tag_150\n        /* \"@openzeppelin/contracts/access/Ownable.sol\":1928:1938  _msgSender */\n      tag_147\n        /* \"@openzeppelin/contracts/access/Ownable.sol\":1928:1940  _msgSender() */\n      jump\t// in\n    tag_150:\n        /* \"@openzeppelin/contracts/access/Ownable.sol\":1901:1941  OwnableUnauthorizedAccount(_msgSender()) */\n      mload(0x40)\n      0x118cdaa700000000000000000000000000000000000000000000000000000000\n      dup2\n      mstore\n      0x04\n      add\n      tag_151\n      swap2\n      swap1\n      tag_39\n      jump\t// in\n    tag_151:\n      mload(0x40)\n      dup1\n      swap2\n      sub\n      swap1\n      revert\n        /* \"@openzeppelin/contracts/access/Ownable.sol\":1851:1952  if (owner() != _msgSender()) {... */\n    tag_149:\n        /* \"@openzeppelin/contracts/access/Ownable.sol\":1796:1958  function _checkOwner() internal view virtual {... */\n      jump\t// out\n        /* \"@openzeppelin/contracts/access/Ownable.sol\":2912:3099  function _transferOwnership(address newOwner) internal virtual {... */\n    tag_101:\n        /* \"@openzeppelin/contracts/access/Ownable.sol\":2985:3001  address oldOwner */\n      0x00\n        /* \"@openzeppelin/contracts/access/Ownable.sol\":3004:3010  _owner */\n      dup1\n      0x00\n      swap1\n      sload\n      swap1\n      0x0100\n      exp\n      swap1\n      div\n      0xffffffffffffffffffffffffffffffffffffffff\n      and\n        /* \"@openzeppelin/contracts/access/Ownable.sol\":2985:3010  address oldOwner = _owner */\n      swap1\n      pop\n        /* \"@openzeppelin/contracts/access/Ownable.sol\":3029:3037  newOwner */\n      dup2\n        /* \"@openzeppelin/contracts/access/Ownable.sol\":3020:3026  _owner */\n      0x00\n      dup1\n        /* \"@openzeppelin/contracts/access/Ownable.sol\":3020:3037  _owner = newOwner */\n      0x0100\n      exp\n      dup2\n      sload\n      dup2\n      0xffffffffffffffffffffffffffffffffffffffff\n      mul\n      not\n      and\n      swap1\n      dup4\n      0xffffffffffffffffffffffffffffffffffffffff\n      and\n      mul\n      or\n      swap1\n      sstore\n      pop\n        /* \"@openzeppelin/contracts/access/Ownable.sol\":3083:3091  newOwner */\n      dup2\n        /* \"@openzeppelin/contracts/access/Ownable.sol\":3052:3092  OwnershipTransferred(oldOwner, newOwner) */\n      0xffffffffffffffffffffffffffffffffffffffff\n      and\n        /* \"@openzeppelin/contracts/access/Ownable.sol\":3073:3081  oldOwner */\n      dup2\n        /* \"@openzeppelin/contracts/access/Ownable.sol\":3052:3092  OwnershipTransferred(oldOwner, newOwner) */\n      0xffffffffffffffffffffffffffffffffffffffff\n      and\n      0x8be0079c531659141344cd1fd0a4f28419497f9722a3daafe3b4186f6b6457e0\n      mload(0x40)\n      mload(0x40)\n      dup1\n      swap2\n      sub\n      swap1\n      log3\n        /* \"@openzeppelin/contracts/access/Ownable.sol\":2975:3099  {... */\n      pop\n        /* \"@openzeppelin/contracts/access/Ownable.sol\":2912:3099  function _transferOwnership(address newOwner) internal virtual {... */\n      pop\n      jump\t// out\n        /* \"@openzeppelin/contracts/utils/Context.sol\":656:752  function _msgSender() internal view virtual returns (address) {... */\n    tag_147:\n        /* \"@openzeppelin/contracts/utils/Context.sol\":709:716  address */\n      0x00\n        /* \"@openzeppelin/contracts/utils/Context.sol\":735:745  msg.sender */\n      caller\n        /* \"@openzeppelin/contracts/utils/Context.sol\":728:745  return msg.sender */\n      swap1\n      pop\n        /* \"@openzeppelin/contracts/utils/Context.sol\":656:752  function _msgSender() internal view virtual returns (address) {... */\n      swap1\n      jump\t// out\n        /* \"#utility.yul\":88:205   */\n    tag_155:\n        /* \"#utility.yul\":197:198   */\n      0x00\n        /* \"#utility.yul\":194:195   */\n      dup1\n        /* \"#utility.yul\":187:199   */\n      revert\n        /* \"#utility.yul\":334:411   */\n    tag_157:\n        /* \"#utility.yul\":371:378   */\n      0x00\n        /* \"#utility.yul\":400:405   */\n      dup2\n        /* \"#utility.yul\":389:405   */\n      swap1\n      pop\n        /* \"#utility.yul\":334:411   */\n      swap2\n      swap1\n      pop\n      jump\t// out\n        /* \"#utility.yul\":417:539   */\n    tag_158:\n        /* \"#utility.yul\":490:514   */\n      tag_203\n        /* \"#utility.yul\":508:513   */\n      dup2\n        /* \"#utility.yul\":490:514   */\n      tag_157\n      jump\t// in\n    tag_203:\n        /* \"#utility.yul\":483:488   */\n      dup2\n        /* \"#utility.yul\":480:515   */\n      eq\n        /* \"#utility.yul\":470:533   */\n      tag_204\n      jumpi\n        /* \"#utility.yul\":529:530   */\n      0x00\n        /* \"#utility.yul\":526:527   */\n      dup1\n        /* \"#utility.yul\":519:531   */\n      revert\n        /* \"#utility.yul\":470:533   */\n    tag_204:\n        /* \"#utility.yul\":417:539   */\n      pop\n      jump\t// out\n        /* \"#utility.yul\":545:684   */\n    tag_159:\n        /* \"#utility.yul\":591:596   */\n      0x00\n        /* \"#utility.yul\":629:635   */\n      dup2\n        /* \"#utility.yul\":616:636   */\n      calldataload\n        /* \"#utility.yul\":607:636   */\n      swap1\n      pop\n        /* \"#utility.yul\":645:678   */\n      tag_206\n        /* \"#utility.yul\":672:677   */\n      dup2\n        /* \"#utility.yul\":645:678   */\n      tag_158\n      jump\t// in\n    tag_206:\n        /* \"#utility.yul\":545:684   */\n      swap3\n      swap2\n      pop\n      pop\n      jump\t// out\n        /* \"#utility.yul\":690:1019   */\n    tag_17:\n        /* \"#utility.yul\":749:755   */\n      0x00\n        /* \"#utility.yul\":798:800   */\n      0x20\n        /* \"#utility.yul\":786:795   */\n      dup3\n        /* \"#utility.yul\":777:784   */\n      dup5\n        /* \"#utility.yul\":773:796   */\n      sub\n        /* \"#utility.yul\":769:801   */\n      slt\n        /* \"#utility.yul\":766:885   */\n      iszero\n      tag_208\n      jumpi\n        /* \"#utility.yul\":804:883   */\n      tag_209\n      tag_155\n      jump\t// in\n    tag_209:\n        /* \"#utility.yul\":766:885   */\n    tag_208:\n        /* \"#utility.yul\":924:925   */\n      0x00\n        /* \"#utility.yul\":949:1002   */\n      tag_210\n        /* \"#utility.yul\":994:1001   */\n      dup5\n        /* \"#utility.yul\":985:991   */\n      dup3\n        /* \"#utility.yul\":974:983   */\n      dup6\n        /* \"#utility.yul\":970:992   */\n      add\n        /* \"#utility.yul\":949:1002   */\n      tag_159\n      jump\t// in\n    tag_210:\n        /* \"#utility.yul\":939:1002   */\n      swap2\n      pop\n        /* \"#utility.yul\":895:1012   */\n      pop\n        /* \"#utility.yul\":690:1019   */\n      swap3\n      swap2\n      pop\n      pop\n      jump\t// out\n        /* \"#utility.yul\":1025:1151   */\n    tag_160:\n        /* \"#utility.yul\":1062:1069   */\n      0x00\n        /* \"#utility.yul\":1102:1144   */\n      0xffffffffffffffffffffffffffffffffffffffff\n        /* \"#utility.yul\":1095:1100   */\n      dup3\n        /* \"#utility.yul\":1091:1145   */\n      and\n        /* \"#utility.yul\":1080:1145   */\n      swap1\n      pop\n        /* \"#utility.yul\":1025:1151   */\n      swap2\n      swap1\n      pop\n      jump\t// out\n        /* \"#utility.yul\":1157:1253   */\n    tag_161:\n        /* \"#utility.yul\":1194:1201   */\n      0x00\n        /* \"#utility.yul\":1223:1247   */\n      tag_213\n        /* \"#utility.yul\":1241:1246   */\n      dup3\n        /* \"#utility.yul\":1223:1247   */\n      tag_160\n      jump\t// in\n    tag_213:\n        /* \"#utility.yul\":1212:1247   */\n      swap1\n      pop\n        /* \"#utility.yul\":1157:1253   */\n      swap2\n      swap1\n      pop\n      jump\t// out\n        /* \"#utility.yul\":1259:1381   */\n    tag_162:\n        /* \"#utility.yul\":1332:1356   */\n      tag_215\n        /* \"#utility.yul\":1350:1355   */\n      dup2\n        /* \"#utility.yul\":1332:1356   */\n      tag_161\n      jump\t// in\n    tag_215:\n        /* \"#utility.yul\":1325:1330   */\n      dup2\n        /* \"#utility.yul\":1322:1357   */\n      eq\n        /* \"#utility.yul\":1312:1375   */\n      tag_216\n      jumpi\n        /* \"#utility.yul\":1371:1372   */\n      0x00\n        /* \"#utility.yul\":1368:1369   */\n      dup1\n        /* \"#utility.yul\":1361:1373   */\n      revert\n        /* \"#utility.yul\":1312:1375   */\n    tag_216:\n        /* \"#utility.yul\":1259:1381   */\n      pop\n      jump\t// out\n        /* \"#utility.yul\":1387:1526   */\n    tag_163:\n        /* \"#utility.yul\":1433:1438   */\n      0x00\n        /* \"#utility.yul\":1471:1477   */\n      dup2\n        /* \"#utility.yul\":1458:1478   */\n      calldataload\n        /* \"#utility.yul\":1449:1478   */\n      swap1\n      pop\n        /* \"#utility.yul\":1487:1520   */\n      tag_218\n        /* \"#utility.yul\":1514:1519   */\n      dup2\n        /* \"#utility.yul\":1487:1520   */\n      tag_162\n      jump\t// in\n    tag_218:\n        /* \"#utility.yul\":1387:1526   */\n      swap3\n      swap2\n      pop\n      pop\n      jump\t// out\n        /* \"#utility.yul\":1532:2006   */\n    tag_21:\n        /* \"#utility.yul\":1600:1606   */\n      0x00\n        /* \"#utility.yul\":1608:1614   */\n      dup1\n        /* \"#utility.yul\":1657:1659   */\n      0x40\n        /* \"#utility.yul\":1645:1654   */\n      dup4\n        /* \"#utility.yul\":1636:1643   */\n      dup6\n        /* \"#utility.yul\":1632:1655   */\n      sub\n        /* \"#utility.yul\":1628:1660   */\n      slt\n        /* \"#utility.yul\":1625:1744   */\n      iszero\n      tag_220\n      jumpi\n        /* \"#utility.yul\":1663:1742   */\n      tag_221\n      tag_155\n      jump\t// in\n    tag_221:\n        /* \"#utility.yul\":1625:1744   */\n    tag_220:\n        /* \"#utility.yul\":1783:1784   */\n      0x00\n        /* \"#utility.yul\":1808:1861   */\n      tag_222\n        /* \"#utility.yul\":1853:1860   */\n      dup6\n        /* \"#utility.yul\":1844:1850   */\n      dup3\n        /* \"#utility.yul\":1833:1842   */\n      dup7\n        /* \"#utility.yul\":1829:1851   */\n      add\n        /* \"#utility.yul\":1808:1861   */\n      tag_163\n      jump\t// in\n    tag_222:\n        /* \"#utility.yul\":1798:1861   */\n      swap3\n      pop\n        /* \"#utility.yul\":1754:1871   */\n      pop\n        /* \"#utility.yul\":1910:1912   */\n      0x20\n        /* \"#utility.yul\":1936:1989   */\n      tag_223\n        /* \"#utility.yul\":1981:1988   */\n      dup6\n        /* \"#utility.yul\":1972:1978   */\n      dup3\n        /* \"#utility.yul\":1961:1970   */\n      dup7\n        /* \"#utility.yul\":1957:1979   */\n      add\n        /* \"#utility.yul\":1936:1989   */\n      tag_159\n      jump\t// in\n    tag_223:\n        /* \"#utility.yul\":1926:1989   */\n      swap2\n      pop\n        /* \"#utility.yul\":1881:1999   */\n      pop\n        /* \"#utility.yul\":1532:2006   */\n      swap3\n      pop\n      swap3\n      swap1\n      pop\n      jump\t// out\n        /* \"#utility.yul\":2012:2130   */\n    tag_164:\n        /* \"#utility.yul\":2099:2123   */\n      tag_225\n        /* \"#utility.yul\":2117:2122   */\n      dup2\n        /* \"#utility.yul\":2099:2123   */\n      tag_157\n      jump\t// in\n    tag_225:\n        /* \"#utility.yul\":2094:2097   */\n      dup3\n        /* \"#utility.yul\":2087:2124   */\n      mstore\n        /* \"#utility.yul\":2012:2130   */\n      pop\n      pop\n      jump\t// out\n        /* \"#utility.yul\":2136:2226   */\n    tag_165:\n        /* \"#utility.yul\":2170:2177   */\n      0x00\n        /* \"#utility.yul\":2213:2218   */\n      dup2\n        /* \"#utility.yul\":2206:2219   */\n      iszero\n        /* \"#utility.yul\":2199:2220   */\n      iszero\n        /* \"#utility.yul\":2188:2220   */\n      swap1\n      pop\n        /* \"#utility.yul\":2136:2226   */\n      swap2\n      swap1\n      pop\n      jump\t// out\n        /* \"#utility.yul\":2232:2341   */\n    tag_166:\n        /* \"#utility.yul\":2313:2334   */\n      tag_228\n        /* \"#utility.yul\":2328:2333   */\n      dup2\n        /* \"#utility.yul\":2313:2334   */\n      tag_165\n      jump\t// in\n    tag_228:\n        /* \"#utility.yul\":2308:2311   */\n      dup3\n        /* \"#utility.yul\":2301:2335   */\n      mstore\n        /* \"#utility.yul\":2232:2341   */\n      pop\n      pop\n      jump\t// out\n        /* \"#utility.yul\":2347:2876   */\n    tag_24:\n        /* \"#utility.yul\":2512:2516   */\n      0x00\n        /* \"#utility.yul\":2550:2553   */\n      0x80\n        /* \"#utility.yul\":2539:2548   */\n      dup3\n        /* \"#utility.yul\":2535:2554   */\n      add\n        /* \"#utility.yul\":2527:2554   */\n      swap1\n      pop\n        /* \"#utility.yul\":2564:2635   */\n      tag_230\n        /* \"#utility.yul\":2632:2633   */\n      0x00\n        /* \"#utility.yul\":2621:2630   */\n      dup4\n        /* \"#utility.yul\":2617:2634   */\n      add\n        /* \"#utility.yul\":2608:2614   */\n      dup8\n        /* \"#utility.yul\":2564:2635   */\n      tag_164\n      jump\t// in\n    tag_230:\n        /* \"#utility.yul\":2645:2717   */\n      tag_231\n        /* \"#utility.yul\":2713:2715   */\n      0x20\n        /* \"#utility.yul\":2702:2711   */\n      dup4\n        /* \"#utility.yul\":2698:2716   */\n      add\n        /* \"#utility.yul\":2689:2695   */\n      dup7\n        /* \"#utility.yul\":2645:2717   */\n      tag_164\n      jump\t// in\n    tag_231:\n        /* \"#utility.yul\":2727:2793   */\n      tag_232\n        /* \"#utility.yul\":2789:2791   */\n      0x40\n        /* \"#utility.yul\":2778:2787   */\n      dup4\n        /* \"#utility.yul\":2774:2792   */\n      add\n        /* \"#utility.yul\":2765:2771   */\n      dup6\n        /* \"#utility.yul\":2727:2793   */\n      tag_166\n      jump\t// in\n    tag_232:\n        /* \"#utility.yul\":2803:2869   */\n      tag_233\n        /* \"#utility.yul\":2865:2867   */\n      0x60\n        /* \"#utility.yul\":2854:2863   */\n      dup4\n        /* \"#utility.yul\":2850:2868   */\n      add\n        /* \"#utility.yul\":2841:2847   */\n      dup5\n        /* \"#utility.yul\":2803:2869   */\n      tag_166\n      jump\t// in\n    tag_233:\n        /* \"#utility.yul\":2347:2876   */\n      swap6\n      swap5\n      pop\n      pop\n      pop\n      pop\n      pop\n      jump\t// out\n        /* \"#utility.yul\":2882:2942   */\n    tag_167:\n        /* \"#utility.yul\":2910:2913   */\n      0x00\n        /* \"#utility.yul\":2931:2936   */\n      dup2\n        /* \"#utility.yul\":2924:2936   */\n      swap1\n      pop\n        /* \"#utility.yul\":2882:2942   */\n      swap2\n      swap1\n      pop\n      jump\t// out\n        /* \"#utility.yul\":2948:3090   */\n    tag_168:\n        /* \"#utility.yul\":2998:3007   */\n      0x00\n        /* \"#utility.yul\":3031:3084   */\n      tag_236\n        /* \"#utility.yul\":3049:3083   */\n      tag_237\n        /* \"#utility.yul\":3058:3082   */\n      tag_238\n        /* \"#utility.yul\":3076:3081   */\n      dup5\n        /* \"#utility.yul\":3058:3082   */\n      tag_160\n      jump\t// in\n    tag_238:\n        /* \"#utility.yul\":3049:3083   */\n      tag_167\n      jump\t// in\n    tag_237:\n        /* \"#utility.yul\":3031:3084   */\n      tag_160\n      jump\t// in\n    tag_236:\n        /* \"#utility.yul\":3018:3084   */\n      swap1\n      pop\n        /* \"#utility.yul\":2948:3090   */\n      swap2\n      swap1\n      pop\n      jump\t// out\n        /* \"#utility.yul\":3096:3222   */\n    tag_169:\n        /* \"#utility.yul\":3146:3155   */\n      0x00\n        /* \"#utility.yul\":3179:3216   */\n      tag_240\n        /* \"#utility.yul\":3210:3215   */\n      dup3\n        /* \"#utility.yul\":3179:3216   */\n      tag_168\n      jump\t// in\n    tag_240:\n        /* \"#utility.yul\":3166:3216   */\n      swap1\n      pop\n        /* \"#utility.yul\":3096:3222   */\n      swap2\n      swap1\n      pop\n      jump\t// out\n        /* \"#utility.yul\":3228:3368   */\n    tag_170:\n        /* \"#utility.yul\":3292:3301   */\n      0x00\n        /* \"#utility.yul\":3325:3362   */\n      tag_242\n        /* \"#utility.yul\":3356:3361   */\n      dup3\n        /* \"#utility.yul\":3325:3362   */\n      tag_169\n      jump\t// in\n    tag_242:\n        /* \"#utility.yul\":3312:3362   */\n      swap1\n      pop\n        /* \"#utility.yul\":3228:3368   */\n      swap2\n      swap1\n      pop\n      jump\t// out\n        /* \"#utility.yul\":3374:3533   */\n    tag_171:\n        /* \"#utility.yul\":3475:3526   */\n      tag_244\n        /* \"#utility.yul\":3520:3525   */\n      dup2\n        /* \"#utility.yul\":3475:3526   */\n      tag_170\n      jump\t// in\n    tag_244:\n        /* \"#utility.yul\":3470:3473   */\n      dup3\n        /* \"#utility.yul\":3463:3527   */\n      mstore\n        /* \"#utility.yul\":3374:3533   */\n      pop\n      pop\n      jump\t// out\n        /* \"#utility.yul\":3539:3789   */\n    tag_28:\n        /* \"#utility.yul\":3646:3650   */\n      0x00\n        /* \"#utility.yul\":3684:3686   */\n      0x20\n        /* \"#utility.yul\":3673:3682   */\n      dup3\n        /* \"#utility.yul\":3669:3687   */\n      add\n        /* \"#utility.yul\":3661:3687   */\n      swap1\n      pop\n        /* \"#utility.yul\":3697:3782   */\n      tag_246\n        /* \"#utility.yul\":3779:3780   */\n      0x00\n        /* \"#utility.yul\":3768:3777   */\n      dup4\n        /* \"#utility.yul\":3764:3781   */\n      add\n        /* \"#utility.yul\":3755:3761   */\n      dup5\n        /* \"#utility.yul\":3697:3782   */\n      tag_171\n      jump\t// in\n    tag_246:\n        /* \"#utility.yul\":3539:3789   */\n      swap3\n      swap2\n      pop\n      pop\n      jump\t// out\n        /* \"#utility.yul\":3795:4005   */\n    tag_33:\n        /* \"#utility.yul\":3882:3886   */\n      0x00\n        /* \"#utility.yul\":3920:3922   */\n      0x20\n        /* \"#utility.yul\":3909:3918   */\n      dup3\n        /* \"#utility.yul\":3905:3923   */\n      add\n        /* \"#utility.yul\":3897:3923   */\n      swap1\n      pop\n        /* \"#utility.yul\":3933:3998   */\n      tag_248\n        /* \"#utility.yul\":3995:3996   */\n      0x00\n        /* \"#utility.yul\":3984:3993   */\n      dup4\n        /* \"#utility.yul\":3980:3997   */\n      add\n        /* \"#utility.yul\":3971:3977   */\n      dup5\n        /* \"#utility.yul\":3933:3998   */\n      tag_166\n      jump\t// in\n    tag_248:\n        /* \"#utility.yul\":3795:4005   */\n      swap3\n      swap2\n      pop\n      pop\n      jump\t// out\n        /* \"#utility.yul\":4011:4129   */\n    tag_172:\n        /* \"#utility.yul\":4098:4122   */\n      tag_250\n        /* \"#utility.yul\":4116:4121   */\n      dup2\n        /* \"#utility.yul\":4098:4122   */\n      tag_161\n      jump\t// in\n    tag_250:\n        /* \"#utility.yul\":4093:4096   */\n      dup3\n        /* \"#utility.yul\":4086:4123   */\n      mstore\n        /* \"#utility.yul\":4011:4129   */\n      pop\n      pop\n      jump\t// out\n        /* \"#utility.yul\":4135:4357   */\n    tag_39:\n        /* \"#utility.yul\":4228:4232   */\n      0x00\n        /* \"#utility.yul\":4266:4268   */\n      0x20\n        /* \"#utility.yul\":4255:4264   */\n      dup3\n        /* \"#utility.yul\":4251:4269   */\n      add\n        /* \"#utility.yul\":4243:4269   */\n      swap1\n      pop\n        /* \"#utility.yul\":4279:4350   */\n      tag_252\n        /* \"#utility.yul\":4347:4348   */\n      0x00\n        /* \"#utility.yul\":4336:4345   */\n      dup4\n        /* \"#utility.yul\":4332:4349   */\n      add\n        /* \"#utility.yul\":4323:4329   */\n      dup5\n        /* \"#utility.yul\":4279:4350   */\n      tag_172\n      jump\t// in\n    tag_252:\n        /* \"#utility.yul\":4135:4357   */\n      swap3\n      swap2\n      pop\n      pop\n      jump\t// out\n        /* \"#utility.yul\":4363:4479   */\n    tag_173:\n        /* \"#utility.yul\":4433:4454   */\n      tag_254\n        /* \"#utility.yul\":4448:4453   */\n      dup2\n        /* \"#utility.yul\":4433:4454   */\n      tag_165\n      jump\t// in\n    tag_254:\n        /* \"#utility.yul\":4426:4431   */\n      dup2\n        /* \"#utility.yul\":4423:4455   */\n      eq\n        /* \"#utility.yul\":4413:4473   */\n      tag_255\n      jumpi\n        /* \"#utility.yul\":4469:4470   */\n      0x00\n        /* \"#utility.yul\":4466:4467   */\n      dup1\n        /* \"#utility.yul\":4459:4471   */\n      revert\n        /* \"#utility.yul\":4413:4473   */\n    tag_255:\n        /* \"#utility.yul\":4363:4479   */\n      pop\n      jump\t// out\n        /* \"#utility.yul\":4485:4618   */\n    tag_174:\n        /* \"#utility.yul\":4528:4533   */\n      0x00\n        /* \"#utility.yul\":4566:4572   */\n      dup2\n        /* \"#utility.yul\":4553:4573   */\n      calldataload\n        /* \"#utility.yul\":4544:4573   */\n      swap1\n      pop\n        /* \"#utility.yul\":4582:4612   */\n      tag_257\n        /* \"#utility.yul\":4606:4611   */\n      dup2\n        /* \"#utility.yul\":4582:4612   */\n      tag_173\n      jump\t// in\n    tag_257:\n        /* \"#utility.yul\":4485:4618   */\n      swap3\n      swap2\n      pop\n      pop\n      jump\t// out\n        /* \"#utility.yul\":4624:5092   */\n    tag_42:\n        /* \"#utility.yul\":4689:4695   */\n      0x00\n        /* \"#utility.yul\":4697:4703   */\n      dup1\n        /* \"#utility.yul\":4746:4748   */\n      0x40\n        /* \"#utility.yul\":4734:4743   */\n      dup4\n        /* \"#utility.yul\":4725:4732   */\n      dup6\n        /* \"#utility.yul\":4721:4744   */\n      sub\n        /* \"#utility.yul\":4717:4749   */\n      slt\n        /* \"#utility.yul\":4714:4833   */\n      iszero\n      tag_259\n      jumpi\n        /* \"#utility.yul\":4752:4831   */\n      tag_260\n      tag_155\n      jump\t// in\n    tag_260:\n        /* \"#utility.yul\":4714:4833   */\n    tag_259:\n        /* \"#utility.yul\":4872:4873   */\n      0x00\n        /* \"#utility.yul\":4897:4950   */\n      tag_261\n        /* \"#utility.yul\":4942:4949   */\n      dup6\n        /* \"#utility.yul\":4933:4939   */\n      dup3\n        /* \"#utility.yul\":4922:4931   */\n      dup7\n        /* \"#utility.yul\":4918:4940   */\n      add\n        /* \"#utility.yul\":4897:4950   */\n      tag_159\n      jump\t// in\n    tag_261:\n        /* \"#utility.yul\":4887:4950   */\n      swap3\n      pop\n        /* \"#utility.yul\":4843:4960   */\n      pop\n        /* \"#utility.yul\":4999:5001   */\n      0x20\n        /* \"#utility.yul\":5025:5075   */\n      tag_262\n        /* \"#utility.yul\":5067:5074   */\n      dup6\n        /* \"#utility.yul\":5058:5064   */\n      dup3\n        /* \"#utility.yul\":5047:5056   */\n      dup7\n        /* \"#utility.yul\":5043:5065   */\n      add\n        /* \"#utility.yul\":5025:5075   */\n      tag_174\n      jump\t// in\n    tag_262:\n        /* \"#utility.yul\":5015:5075   */\n      swap2\n      pop\n        /* \"#utility.yul\":4970:5085   */\n      pop\n        /* \"#utility.yul\":4624:5092   */\n      swap3\n      pop\n      swap3\n      swap1\n      pop\n      jump\t// out\n        /* \"#utility.yul\":5098:5572   */\n    tag_46:\n        /* \"#utility.yul\":5166:5172   */\n      0x00\n        /* \"#utility.yul\":5174:5180   */\n      dup1\n        /* \"#utility.yul\":5223:5225   */\n      0x40\n        /* \"#utility.yul\":5211:5220   */\n      dup4\n        /* \"#utility.yul\":5202:5209   */\n      dup6\n        /* \"#utility.yul\":5198:5221   */\n      sub\n        /* \"#utility.yul\":5194:5226   */\n      slt\n        /* \"#utility.yul\":5191:5310   */\n      iszero\n      tag_264\n      jumpi\n        /* \"#utility.yul\":5229:5308   */\n      tag_265\n      tag_155\n      jump\t// in\n    tag_265:\n        /* \"#utility.yul\":5191:5310   */\n    tag_264:\n        /* \"#utility.yul\":5349:5350   */\n      0x00\n        /* \"#utility.yul\":5374:5427   */\n      tag_266\n        /* \"#utility.yul\":5419:5426   */\n      dup6\n        /* \"#utility.yul\":5410:5416   */\n      dup3\n        /* \"#utility.yul\":5399:5408   */\n      dup7\n        /* \"#utility.yul\":5395:5417   */\n      add\n        /* \"#utility.yul\":5374:5427   */\n      tag_159\n      jump\t// in\n    tag_266:\n        /* \"#utility.yul\":5364:5427   */\n      swap3\n      pop\n        /* \"#utility.yul\":5320:5437   */\n      pop\n        /* \"#utility.yul\":5476:5478   */\n      0x20\n        /* \"#utility.yul\":5502:5555   */\n      tag_267\n        /* \"#utility.yul\":5547:5554   */\n      dup6\n        /* \"#utility.yul\":5538:5544   */\n      dup3\n        /* \"#utility.yul\":5527:5536   */\n      dup7\n        /* \"#utility.yul\":5523:5545   */\n      add\n        /* \"#utility.yul\":5502:5555   */\n      tag_163\n      jump\t// in\n    tag_267:\n        /* \"#utility.yul\":5492:5555   */\n      swap2\n      pop\n        /* \"#utility.yul\":5447:5565   */\n      pop\n        /* \"#utility.yul\":5098:5572   */\n      swap3\n      pop\n      swap3\n      swap1\n      pop\n      jump\t// out\n        /* \"#utility.yul\":5578:5800   */\n    tag_52:\n        /* \"#utility.yul\":5671:5675   */\n      0x00\n        /* \"#utility.yul\":5709:5711   */\n      0x20\n        /* \"#utility.yul\":5698:5707   */\n      dup3\n        /* \"#utility.yul\":5694:5712   */\n      add\n        /* \"#utility.yul\":5686:5712   */\n      swap1\n      pop\n        /* \"#utility.yul\":5722:5793   */\n      tag_269\n        /* \"#utility.yul\":5790:5791   */\n      0x00\n        /* \"#utility.yul\":5779:5788   */\n      dup4\n        /* \"#utility.yul\":5775:5792   */\n      add\n        /* \"#utility.yul\":5766:5772   */\n      dup5\n        /* \"#utility.yul\":5722:5793   */\n      tag_164\n      jump\t// in\n    tag_269:\n        /* \"#utility.yul\":5578:5800   */\n      swap3\n      swap2\n      pop\n      pop\n      jump\t// out\n        /* \"#utility.yul\":5806:6425   */\n    tag_55:\n        /* \"#utility.yul\":5883:5889   */\n      0x00\n        /* \"#utility.yul\":5891:5897   */\n      dup1\n        /* \"#utility.yul\":5899:5905   */\n      0x00\n        /* \"#utility.yul\":5948:5950   */\n      0x60\n        /* \"#utility.yul\":5936:5945   */\n      dup5\n        /* \"#utility.yul\":5927:5934   */\n      dup7\n        /* \"#utility.yul\":5923:5946   */\n      sub\n        /* \"#utility.yul\":5919:5951   */\n      slt\n        /* \"#utility.yul\":5916:6035   */\n      iszero\n      tag_271\n      jumpi\n        /* \"#utility.yul\":5954:6033   */\n      tag_272\n      tag_155\n      jump\t// in\n    tag_272:\n        /* \"#utility.yul\":5916:6035   */\n    tag_271:\n        /* \"#utility.yul\":6074:6075   */\n      0x00\n        /* \"#utility.yul\":6099:6152   */\n      tag_273\n        /* \"#utility.yul\":6144:6151   */\n      dup7\n        /* \"#utility.yul\":6135:6141   */\n      dup3\n        /* \"#utility.yul\":6124:6133   */\n      dup8\n        /* \"#utility.yul\":6120:6142   */\n      add\n        /* \"#utility.yul\":6099:6152   */\n      tag_159\n      jump\t// in\n    tag_273:\n        /* \"#utility.yul\":6089:6152   */\n      swap4\n      pop\n        /* \"#utility.yul\":6045:6162   */\n      pop\n        /* \"#utility.yul\":6201:6203   */\n      0x20\n        /* \"#utility.yul\":6227:6280   */\n      tag_274\n        /* \"#utility.yul\":6272:6279   */\n      dup7\n        /* \"#utility.yul\":6263:6269   */\n      dup3\n        /* \"#utility.yul\":6252:6261   */\n      dup8\n        /* \"#utility.yul\":6248:6270   */\n      add\n        /* \"#utility.yul\":6227:6280   */\n      tag_159\n      jump\t// in\n    tag_274:\n        /* \"#utility.yul\":6217:6280   */\n      swap3\n      pop\n        /* \"#utility.yul\":6172:6290   */\n      pop\n        /* \"#utility.yul\":6329:6331   */\n      0x40\n        /* \"#utility.yul\":6355:6408   */\n      tag_275\n        /* \"#utility.yul\":6400:6407   */\n      dup7\n        /* \"#utility.yul\":6391:6397   */\n      dup3\n        /* \"#utility.yul\":6380:6389   */\n      dup8\n        /* \"#utility.yul\":6376:6398   */\n      add\n        /* \"#utility.yul\":6355:6408   */\n      tag_159\n      jump\t// in\n    tag_275:\n        /* \"#utility.yul\":6345:6408   */\n      swap2\n      pop\n        /* \"#utility.yul\":6300:6418   */\n      pop\n        /* \"#utility.yul\":5806:6425   */\n      swap3\n      pop\n      swap3\n      pop\n      swap3\n      jump\t// out\n        /* \"#utility.yul\":6431:6760   */\n    tag_59:\n        /* \"#utility.yul\":6490:6496   */\n      0x00\n        /* \"#utility.yul\":6539:6541   */\n      0x20\n        /* \"#utility.yul\":6527:6536   */\n      dup3\n        /* \"#utility.yul\":6518:6525   */\n      dup5\n        /* \"#utility.yul\":6514:6537   */\n      sub\n        /* \"#utility.yul\":6510:6542   */\n      slt\n        /* \"#utility.yul\":6507:6626   */\n      iszero\n      tag_277\n      jumpi\n        /* \"#utility.yul\":6545:6624   */\n      tag_278\n      tag_155\n      jump\t// in\n    tag_278:\n        /* \"#utility.yul\":6507:6626   */\n    tag_277:\n        /* \"#utility.yul\":6665:6666   */\n      0x00\n        /* \"#utility.yul\":6690:6743   */\n      tag_279\n        /* \"#utility.yul\":6735:6742   */\n      dup5\n        /* \"#utility.yul\":6726:6732   */\n      dup3\n        /* \"#utility.yul\":6715:6724   */\n      dup6\n        /* \"#utility.yul\":6711:6733   */\n      add\n        /* \"#utility.yul\":6690:6743   */\n      tag_163\n      jump\t// in\n    tag_279:\n        /* \"#utility.yul\":6680:6743   */\n      swap2\n      pop\n        /* \"#utility.yul\":6636:6753   */\n      pop\n        /* \"#utility.yul\":6431:6760   */\n      swap3\n      swap2\n      pop\n      pop\n      jump\t// out\n        /* \"#utility.yul\":6766:6935   */\n    tag_175:\n        /* \"#utility.yul\":6850:6861   */\n      0x00\n        /* \"#utility.yul\":6884:6890   */\n      dup3\n        /* \"#utility.yul\":6879:6882   */\n      dup3\n        /* \"#utility.yul\":6872:6891   */\n      mstore\n        /* \"#utility.yul\":6924:6928   */\n      0x20\n        /* \"#utility.yul\":6919:6922   */\n      dup3\n        /* \"#utility.yul\":6915:6929   */\n      add\n        /* \"#utility.yul\":6900:6929   */\n      swap1\n      pop\n        /* \"#utility.yul\":6766:6935   */\n      swap3\n      swap2\n      pop\n      pop\n      jump\t// out\n        /* \"#utility.yul\":6941:7111   */\n    tag_176:\n        /* \"#utility.yul\":7081:7103   */\n      0x4576656e746f206e616f207265736f6c7669646f000000000000000000000000\n        /* \"#utility.yul\":7077:7078   */\n      0x00\n        /* \"#utility.yul\":7069:7075   */\n      dup3\n        /* \"#utility.yul\":7065:7079   */\n      add\n        /* \"#utility.yul\":7058:7104   */\n      mstore\n        /* \"#utility.yul\":6941:7111   */\n      pop\n      jump\t// out\n        /* \"#utility.yul\":7117:7483   */\n    tag_177:\n        /* \"#utility.yul\":7259:7262   */\n      0x00\n        /* \"#utility.yul\":7280:7347   */\n      tag_283\n        /* \"#utility.yul\":7344:7346   */\n      0x14\n        /* \"#utility.yul\":7339:7342   */\n      dup4\n        /* \"#utility.yul\":7280:7347   */\n      tag_175\n      jump\t// in\n    tag_283:\n        /* \"#utility.yul\":7273:7347   */\n      swap2\n      pop\n        /* \"#utility.yul\":7356:7449   */\n      tag_284\n        /* \"#utility.yul\":7445:7448   */\n      dup3\n        /* \"#utility.yul\":7356:7449   */\n      tag_176\n      jump\t// in\n    tag_284:\n        /* \"#utility.yul\":7474:7476   */\n      0x20\n        /* \"#utility.yul\":7469:7472   */\n      dup3\n        /* \"#utility.yul\":7465:7477   */\n      add\n        /* \"#utility.yul\":7458:7477   */\n      swap1\n      pop\n        /* \"#utility.yul\":7117:7483   */\n      swap2\n      swap1\n      pop\n      jump\t// out\n        /* \"#utility.yul\":7489:7908   */\n    tag_67:\n        /* \"#utility.yul\":7655:7659   */\n      0x00\n        /* \"#utility.yul\":7693:7695   */\n      0x20\n        /* \"#utility.yul\":7682:7691   */\n      dup3\n        /* \"#utility.yul\":7678:7696   */\n      add\n        /* \"#utility.yul\":7670:7696   */\n      swap1\n      pop\n        /* \"#utility.yul\":7742:7751   */\n      dup2\n        /* \"#utility.yul\":7736:7740   */\n      dup2\n        /* \"#utility.yul\":7732:7752   */\n      sub\n        /* \"#utility.yul\":7728:7729   */\n      0x00\n        /* \"#utility.yul\":7717:7726   */\n      dup4\n        /* \"#utility.yul\":7713:7730   */\n      add\n        /* \"#utility.yul\":7706:7753   */\n      mstore\n        /* \"#utility.yul\":7770:7901   */\n      tag_286\n        /* \"#utility.yul\":7896:7900   */\n      dup2\n        /* \"#utility.yul\":7770:7901   */\n      tag_177\n      jump\t// in\n    tag_286:\n        /* \"#utility.yul\":7762:7901   */\n      swap1\n      pop\n        /* \"#utility.yul\":7489:7908   */\n      swap2\n      swap1\n      pop\n      jump\t// out\n        /* \"#utility.yul\":7914:8084   */\n    tag_178:\n        /* \"#utility.yul\":8054:8076   */\n      0x41706f737461206e616f207265736f6c76696461000000000000000000000000\n        /* \"#utility.yul\":8050:8051   */\n      0x00\n        /* \"#utility.yul\":8042:8048   */\n      dup3\n        /* \"#utility.yul\":8038:8052   */\n      add\n        /* \"#utility.yul\":8031:8077   */\n      mstore\n        /* \"#utility.yul\":7914:8084   */\n      pop\n      jump\t// out\n        /* \"#utility.yul\":8090:8456   */\n    tag_179:\n        /* \"#utility.yul\":8232:8235   */\n      0x00\n        /* \"#utility.yul\":8253:8320   */\n      tag_289\n        /* \"#utility.yul\":8317:8319   */\n      0x14\n        /* \"#utility.yul\":8312:8315   */\n      dup4\n        /* \"#utility.yul\":8253:8320   */\n      tag_175\n      jump\t// in\n    tag_289:\n        /* \"#utility.yul\":8246:8320   */\n      swap2\n      pop\n        /* \"#utility.yul\":8329:8422   */\n      tag_290\n        /* \"#utility.yul\":8418:8421   */\n      dup3\n        /* \"#utility.yul\":8329:8422   */\n      tag_178\n      jump\t// in\n    tag_290:\n        /* \"#utility.yul\":8447:8449   */\n      0x20\n        /* \"#utility.yul\":8442:8445   */\n      dup3\n        /* \"#utility.yul\":8438:8450   */\n      add\n        /* \"#utility.yul\":8431:8450   */\n      swap1\n      pop\n        /* \"#utility.yul\":8090:8456   */\n      swap2\n      swap1\n      pop\n      jump\t// out\n        /* \"#utility.yul\":8462:8881   */\n    tag_70:\n        /* \"#utility.yul\":8628:8632   */\n      0x00\n        /* \"#utility.yul\":8666:8668   */\n      0x20\n        /* \"#utility.yul\":8655:8664   */\n      dup3\n        /* \"#utility.yul\":8651:8669   */\n      add\n        /* \"#utility.yul\":8643:8669   */\n      swap1\n      pop\n        /* \"#utility.yul\":8715:8724   */\n      dup2\n        /* \"#utility.yul\":8709:8713   */\n      dup2\n        /* \"#utility.yul\":8705:8725   */\n      sub\n        /* \"#utility.yul\":8701:8702   */\n      0x00\n        /* \"#utility.yul\":8690:8699   */\n      dup4\n        /* \"#utility.yul\":8686:8703   */\n      add\n        /* \"#utility.yul\":8679:8726   */\n      mstore\n        /* \"#utility.yul\":8743:8874   */\n      tag_292\n        /* \"#utility.yul\":8869:8873   */\n      dup2\n        /* \"#utility.yul\":8743:8874   */\n      tag_179\n      jump\t// in\n    tag_292:\n        /* \"#utility.yul\":8735:8874   */\n      swap1\n      pop\n        /* \"#utility.yul\":8462:8881   */\n      swap2\n      swap1\n      pop\n      jump\t// out\n        /* \"#utility.yul\":8887:9057   */\n    tag_180:\n        /* \"#utility.yul\":9027:9049   */\n      0x41706f737461206e616f2076656e6365646f7261000000000000000000000000\n        /* \"#utility.yul\":9023:9024   */\n      0x00\n        /* \"#utility.yul\":9015:9021   */\n      dup3\n        /* \"#utility.yul\":9011:9025   */\n      add\n        /* \"#utility.yul\":9004:9050   */\n      mstore\n        /* \"#utility.yul\":8887:9057   */\n      pop\n      jump\t// out\n        /* \"#utility.yul\":9063:9429   */\n    tag_181:\n        /* \"#utility.yul\":9205:9208   */\n      0x00\n        /* \"#utility.yul\":9226:9293   */\n      tag_295\n        /* \"#utility.yul\":9290:9292   */\n      0x14\n        /* \"#utility.yul\":9285:9288   */\n      dup4\n        /* \"#utility.yul\":9226:9293   */\n      tag_175\n      jump\t// in\n    tag_295:\n        /* \"#utility.yul\":9219:9293   */\n      swap2\n      pop\n        /* \"#utility.yul\":9302:9395   */\n      tag_296\n        /* \"#utility.yul\":9391:9394   */\n      dup3\n        /* \"#utility.yul\":9302:9395   */\n      tag_180\n      jump\t// in\n    tag_296:\n        /* \"#utility.yul\":9420:9422   */\n      0x20\n        /* \"#utility.yul\":9415:9418   */\n      dup3\n        /* \"#utility.yul\":9411:9423   */\n      add\n        /* \"#utility.yul\":9404:9423   */\n      swap1\n      pop\n        /* \"#utility.yul\":9063:9429   */\n      swap2\n      swap1\n      pop\n      jump\t// out\n        /* \"#utility.yul\":9435:9854   */\n    tag_73:\n        /* \"#utility.yul\":9601:9605   */\n      0x00\n        /* \"#utility.yul\":9639:9641   */\n      0x20\n        /* \"#utility.yul\":9628:9637   */\n      dup3\n        /* \"#utility.yul\":9624:9642   */\n      add\n        /* \"#utility.yul\":9616:9642   */\n      swap1\n      pop\n        /* \"#utility.yul\":9688:9697   */\n      dup2\n        /* \"#utility.yul\":9682:9686   */\n      dup2\n        /* \"#utility.yul\":9678:9698   */\n      sub\n        /* \"#utility.yul\":9674:9675   */\n      0x00\n        /* \"#utility.yul\":9663:9672   */\n      dup4\n        /* \"#utility.yul\":9659:9676   */\n      add\n        /* \"#utility.yul\":9652:9699   */\n      mstore\n        /* \"#utility.yul\":9716:9847   */\n      tag_298\n        /* \"#utility.yul\":9842:9846   */\n      dup2\n        /* \"#utility.yul\":9716:9847   */\n      tag_181\n      jump\t// in\n    tag_298:\n        /* \"#utility.yul\":9708:9847   */\n      swap1\n      pop\n        /* \"#utility.yul\":9435:9854   */\n      swap2\n      swap1\n      pop\n      jump\t// out\n        /* \"#utility.yul\":9860:10027   */\n    tag_182:\n        /* \"#utility.yul\":10000:10019   */\n      0x47616e686f73206a612073616361646f73000000000000000000000000000000\n        /* \"#utility.yul\":9996:9997   */\n      0x00\n        /* \"#utility.yul\":9988:9994   */\n      dup3\n        /* \"#utility.yul\":9984:9998   */\n      add\n        /* \"#utility.yul\":9977:10020   */\n      mstore\n        /* \"#utility.yul\":9860:10027   */\n      pop\n      jump\t// out\n        /* \"#utility.yul\":10033:10399   */\n    tag_183:\n        /* \"#utility.yul\":10175:10178   */\n      0x00\n        /* \"#utility.yul\":10196:10263   */\n      tag_301\n        /* \"#utility.yul\":10260:10262   */\n      0x11\n        /* \"#utility.yul\":10255:10258   */\n      dup4\n        /* \"#utility.yul\":10196:10263   */\n      tag_175\n      jump\t// in\n    tag_301:\n        /* \"#utility.yul\":10189:10263   */\n      swap2\n      pop\n        /* \"#utility.yul\":10272:10365   */\n      tag_302\n        /* \"#utility.yul\":10361:10364   */\n      dup3\n        /* \"#utility.yul\":10272:10365   */\n      tag_182\n      jump\t// in\n    tag_302:\n        /* \"#utility.yul\":10390:10392   */\n      0x20\n        /* \"#utility.yul\":10385:10388   */\n      dup3\n        /* \"#utility.yul\":10381:10393   */\n      add\n        /* \"#utility.yul\":10374:10393   */\n      swap1\n      pop\n        /* \"#utility.yul\":10033:10399   */\n      swap2\n      swap1\n      pop\n      jump\t// out\n        /* \"#utility.yul\":10405:10824   */\n    tag_76:\n        /* \"#utility.yul\":10571:10575   */\n      0x00\n        /* \"#utility.yul\":10609:10611   */\n      0x20\n        /* \"#utility.yul\":10598:10607   */\n      dup3\n        /* \"#utility.yul\":10594:10612   */\n      add\n        /* \"#utility.yul\":10586:10612   */\n      swap1\n      pop\n        /* \"#utility.yul\":10658:10667   */\n      dup2\n        /* \"#utility.yul\":10652:10656   */\n      dup2\n        /* \"#utility.yul\":10648:10668   */\n      sub\n        /* \"#utility.yul\":10644:10645   */\n      0x00\n        /* \"#utility.yul\":10633:10642   */\n      dup4\n        /* \"#utility.yul\":10629:10646   */\n      add\n        /* \"#utility.yul\":10622:10669   */\n      mstore\n        /* \"#utility.yul\":10686:10817   */\n      tag_304\n        /* \"#utility.yul\":10812:10816   */\n      dup2\n        /* \"#utility.yul\":10686:10817   */\n      tag_183\n      jump\t// in\n    tag_304:\n        /* \"#utility.yul\":10678:10817   */\n      swap1\n      pop\n        /* \"#utility.yul\":10405:10824   */\n      swap2\n      swap1\n      pop\n      jump\t// out\n        /* \"#utility.yul\":10830:11010   */\n    tag_184:\n        /* \"#utility.yul\":10878:10955   */\n      0x4e487b7100000000000000000000000000000000000000000000000000000000\n        /* \"#utility.yul\":10875:10876   */\n      0x00\n        /* \"#utility.yul\":10868:10956   */\n      mstore\n        /* \"#utility.yul\":10975:10979   */\n      0x11\n        /* \"#utility.yul\":10972:10973   */\n      0x04\n        /* \"#utility.yul\":10965:10980   */\n      mstore\n        /* \"#utility.yul\":10999:11003   */\n      0x24\n        /* \"#utility.yul\":10996:10997   */\n      0x00\n        /* \"#utility.yul\":10989:11004   */\n      revert\n        /* \"#utility.yul\":11016:11426   */\n    tag_78:\n        /* \"#utility.yul\":11056:11063   */\n      0x00\n        /* \"#utility.yul\":11079:11099   */\n      tag_307\n        /* \"#utility.yul\":11097:11098   */\n      dup3\n        /* \"#utility.yul\":11079:11099   */\n      tag_157\n      jump\t// in\n    tag_307:\n        /* \"#utility.yul\":11074:11099   */\n      swap2\n      pop\n        /* \"#utility.yul\":11113:11133   */\n      tag_308\n        /* \"#utility.yul\":11131:11132   */\n      dup4\n        /* \"#utility.yul\":11113:11133   */\n      tag_157\n      jump\t// in\n    tag_308:\n        /* \"#utility.yul\":11108:11133   */\n      swap3\n      pop\n        /* \"#utility.yul\":11168:11169   */\n      dup3\n        /* \"#utility.yul\":11165:11166   */\n      dup3\n        /* \"#utility.yul\":11161:11170   */\n      mul\n        /* \"#utility.yul\":11190:11220   */\n      tag_309\n        /* \"#utility.yul\":11208:11219   */\n      dup2\n        /* \"#utility.yul\":11190:11220   */\n      tag_157\n      jump\t// in\n    tag_309:\n        /* \"#utility.yul\":11179:11220   */\n      swap2\n      pop\n        /* \"#utility.yul\":11369:11370   */\n      dup3\n        /* \"#utility.yul\":11360:11367   */\n      dup3\n        /* \"#utility.yul\":11356:11371   */\n      div\n        /* \"#utility.yul\":11353:11354   */\n      dup5\n        /* \"#utility.yul\":11350:11372   */\n      eq\n        /* \"#utility.yul\":11330:11331   */\n      dup4\n        /* \"#utility.yul\":11323:11332   */\n      iszero\n        /* \"#utility.yul\":11303:11386   */\n      or\n        /* \"#utility.yul\":11280:11419   */\n      tag_310\n      jumpi\n        /* \"#utility.yul\":11399:11417   */\n      tag_311\n      tag_184\n      jump\t// in\n    tag_311:\n        /* \"#utility.yul\":11280:11419   */\n    tag_310:\n        /* \"#utility.yul\":11064:11426   */\n      pop\n        /* \"#utility.yul\":11016:11426   */\n      swap3\n      swap2\n      pop\n      pop\n      jump\t// out\n        /* \"#utility.yul\":11432:11612   */\n    tag_185:\n        /* \"#utility.yul\":11480:11557   */\n      0x4e487b7100000000000000000000000000000000000000000000000000000000\n        /* \"#utility.yul\":11477:11478   */\n      0x00\n        /* \"#utility.yul\":11470:11558   */\n      mstore\n        /* \"#utility.yul\":11577:11581   */\n      0x12\n        /* \"#utility.yul\":11574:11575   */\n      0x04\n        /* \"#utility.yul\":11567:11582   */\n      mstore\n        /* \"#utility.yul\":11601:11605   */\n      0x24\n        /* \"#utility.yul\":11598:11599   */\n      0x00\n        /* \"#utility.yul\":11591:11606   */\n      revert\n        /* \"#utility.yul\":11618:11803   */\n    tag_80:\n        /* \"#utility.yul\":11658:11659   */\n      0x00\n        /* \"#utility.yul\":11675:11695   */\n      tag_314\n        /* \"#utility.yul\":11693:11694   */\n      dup3\n        /* \"#utility.yul\":11675:11695   */\n      tag_157\n      jump\t// in\n    tag_314:\n        /* \"#utility.yul\":11670:11695   */\n      swap2\n      pop\n        /* \"#utility.yul\":11709:11729   */\n      tag_315\n        /* \"#utility.yul\":11727:11728   */\n      dup4\n        /* \"#utility.yul\":11709:11729   */\n      tag_157\n      jump\t// in\n    tag_315:\n        /* \"#utility.yul\":11704:11729   */\n      swap3\n      pop\n        /* \"#utility.yul\":11748:11749   */\n      dup3\n        /* \"#utility.yul\":11738:11773   */\n      tag_316\n      jumpi\n        /* \"#utility.yul\":11753:11771   */\n      tag_317\n      tag_185\n      jump\t// in\n    tag_317:\n        /* \"#utility.yul\":11738:11773   */\n    tag_316:\n        /* \"#utility.yul\":11795:11796   */\n      dup3\n        /* \"#utility.yul\":11792:11793   */\n      dup3\n        /* \"#utility.yul\":11788:11797   */\n      div\n        /* \"#utility.yul\":11783:11797   */\n      swap1\n      pop\n        /* \"#utility.yul\":11618:11803   */\n      swap3\n      swap2\n      pop\n      pop\n      jump\t// out\n        /* \"#utility.yul\":11809:11975   */\n    tag_186:\n        /* \"#utility.yul\":11949:11967   */\n      0x5061796f75742065786365737369766f00000000000000000000000000000000\n        /* \"#utility.yul\":11945:11946   */\n      0x00\n        /* \"#utility.yul\":11937:11943   */\n      dup3\n        /* \"#utility.yul\":11933:11947   */\n      add\n        /* \"#utility.yul\":11926:11968   */\n      mstore\n        /* \"#utility.yul\":11809:11975   */\n      pop\n      jump\t// out\n        /* \"#utility.yul\":11981:12347   */\n    tag_187:\n        /* \"#utility.yul\":12123:12126   */\n      0x00\n        /* \"#utility.yul\":12144:12211   */\n      tag_320\n        /* \"#utility.yul\":12208:12210   */\n      0x10\n        /* \"#utility.yul\":12203:12206   */\n      dup4\n        /* \"#utility.yul\":12144:12211   */\n      tag_175\n      jump\t// in\n    tag_320:\n        /* \"#utility.yul\":12137:12211   */\n      swap2\n      pop\n        /* \"#utility.yul\":12220:12313   */\n      tag_321\n        /* \"#utility.yul\":12309:12312   */\n      dup3\n        /* \"#utility.yul\":12220:12313   */\n      tag_186\n      jump\t// in\n    tag_321:\n        /* \"#utility.yul\":12338:12340   */\n      0x20\n        /* \"#utility.yul\":12333:12336   */\n      dup3\n        /* \"#utility.yul\":12329:12341   */\n      add\n        /* \"#utility.yul\":12322:12341   */\n      swap1\n      pop\n        /* \"#utility.yul\":11981:12347   */\n      swap2\n      swap1\n      pop\n      jump\t// out\n        /* \"#utility.yul\":12353:12772   */\n    tag_84:\n        /* \"#utility.yul\":12519:12523   */\n      0x00\n        /* \"#utility.yul\":12557:12559   */\n      0x20\n        /* \"#utility.yul\":12546:12555   */\n      dup3\n        /* \"#utility.yul\":12542:12560   */\n      add\n        /* \"#utility.yul\":12534:12560   */\n      swap1\n      pop\n        /* \"#utility.yul\":12606:12615   */\n      dup2\n        /* \"#utility.yul\":12600:12604   */\n      dup2\n        /* \"#utility.yul\":12596:12616   */\n      sub\n        /* \"#utility.yul\":12592:12593   */\n      0x00\n        /* \"#utility.yul\":12581:12590   */\n      dup4\n        /* \"#utility.yul\":12577:12594   */\n      add\n        /* \"#utility.yul\":12570:12617   */\n      mstore\n        /* \"#utility.yul\":12634:12765   */\n      tag_323\n        /* \"#utility.yul\":12760:12764   */\n      dup2\n        /* \"#utility.yul\":12634:12765   */\n      tag_187\n      jump\t// in\n    tag_323:\n        /* \"#utility.yul\":12626:12765   */\n      swap1\n      pop\n        /* \"#utility.yul\":12353:12772   */\n      swap2\n      swap1\n      pop\n      jump\t// out\n        /* \"#utility.yul\":12778:13110   */\n    tag_86:\n        /* \"#utility.yul\":12899:12903   */\n      0x00\n        /* \"#utility.yul\":12937:12939   */\n      0x40\n        /* \"#utility.yul\":12926:12935   */\n      dup3\n        /* \"#utility.yul\":12922:12940   */\n      add\n        /* \"#utility.yul\":12914:12940   */\n      swap1\n      pop\n        /* \"#utility.yul\":12950:13021   */\n      tag_325\n        /* \"#utility.yul\":13018:13019   */\n      0x00\n        /* \"#utility.yul\":13007:13016   */\n      dup4\n        /* \"#utility.yul\":13003:13020   */\n      add\n        /* \"#utility.yul\":12994:13000   */\n      dup6\n        /* \"#utility.yul\":12950:13021   */\n      tag_172\n      jump\t// in\n    tag_325:\n        /* \"#utility.yul\":13031:13103   */\n      tag_326\n        /* \"#utility.yul\":13099:13101   */\n      0x20\n        /* \"#utility.yul\":13088:13097   */\n      dup4\n        /* \"#utility.yul\":13084:13102   */\n      add\n        /* \"#utility.yul\":13075:13081   */\n      dup5\n        /* \"#utility.yul\":13031:13103   */\n      tag_164\n      jump\t// in\n    tag_326:\n        /* \"#utility.yul\":12778:13110   */\n      swap4\n      swap3\n      pop\n      pop\n      pop\n      jump\t// out\n        /* \"#utility.yul\":13116:13253   */\n    tag_188:\n        /* \"#utility.yul\":13170:13175   */\n      0x00\n        /* \"#utility.yul\":13201:13207   */\n      dup2\n        /* \"#utility.yul\":13195:13208   */\n      mload\n        /* \"#utility.yul\":13186:13208   */\n      swap1\n      pop\n        /* \"#utility.yul\":13217:13247   */\n      tag_328\n        /* \"#utility.yul\":13241:13246   */\n      dup2\n        /* \"#utility.yul\":13217:13247   */\n      tag_173\n      jump\t// in\n    tag_328:\n        /* \"#utility.yul\":13116:13253   */\n      swap3\n      swap2\n      pop\n      pop\n      jump\t// out\n        /* \"#utility.yul\":13259:13604   */\n    tag_90:\n        /* \"#utility.yul\":13326:13332   */\n      0x00\n        /* \"#utility.yul\":13375:13377   */\n      0x20\n        /* \"#utility.yul\":13363:13372   */\n      dup3\n        /* \"#utility.yul\":13354:13361   */\n      dup5\n        /* \"#utility.yul\":13350:13373   */\n      sub\n        /* \"#utility.yul\":13346:13378   */\n      slt\n        /* \"#utility.yul\":13343:13462   */\n      iszero\n      tag_330\n      jumpi\n        /* \"#utility.yul\":13381:13460   */\n      tag_331\n      tag_155\n      jump\t// in\n    tag_331:\n        /* \"#utility.yul\":13343:13462   */\n    tag_330:\n        /* \"#utility.yul\":13501:13502   */\n      0x00\n        /* \"#utility.yul\":13526:13587   */\n      tag_332\n        /* \"#utility.yul\":13579:13586   */\n      dup5\n        /* \"#utility.yul\":13570:13576   */\n      dup3\n        /* \"#utility.yul\":13559:13568   */\n      dup6\n        /* \"#utility.yul\":13555:13577   */\n      add\n        /* \"#utility.yul\":13526:13587   */\n      tag_188\n      jump\t// in\n    tag_332:\n        /* \"#utility.yul\":13516:13587   */\n      swap2\n      pop\n        /* \"#utility.yul\":13472:13597   */\n      pop\n        /* \"#utility.yul\":13259:13604   */\n      swap3\n      swap2\n      pop\n      pop\n      jump\t// out\n        /* \"#utility.yul\":13610:13782   */\n    tag_189:\n        /* \"#utility.yul\":13750:13774   */\n      0x46616c6861206e61207472616e73666572656e63696100000000000000000000\n        /* \"#utility.yul\":13746:13747   */\n      0x00\n        /* \"#utility.yul\":13738:13744   */\n      dup3\n        /* \"#utility.yul\":13734:13748   */\n      add\n        /* \"#utility.yul\":13727:13775   */\n      mstore\n        /* \"#utility.yul\":13610:13782   */\n      pop\n      jump\t// out\n        /* \"#utility.yul\":13788:14154   */\n    tag_190:\n        /* \"#utility.yul\":13930:13933   */\n      0x00\n        /* \"#utility.yul\":13951:14018   */\n      tag_335\n        /* \"#utility.yul\":14015:14017   */\n      0x16\n        /* \"#utility.yul\":14010:14013   */\n      dup4\n        /* \"#utility.yul\":13951:14018   */\n      tag_175\n      jump\t// in\n    tag_335:\n        /* \"#utility.yul\":13944:14018   */\n      swap2\n      pop\n        /* \"#utility.yul\":14027:14120   */\n      tag_336\n        /* \"#utility.yul\":14116:14119   */\n      dup3\n        /* \"#utility.yul\":14027:14120   */\n      tag_189\n      jump\t// in\n    tag_336:\n        /* \"#utility.yul\":14145:14147   */\n      0x20\n        /* \"#utility.yul\":14140:14143   */\n      dup3\n        /* \"#utility.yul\":14136:14148   */\n      add\n        /* \"#utility.yul\":14129:14148   */\n      swap1\n      pop\n        /* \"#utility.yul\":13788:14154   */\n      swap2\n      swap1\n      pop\n      jump\t// out\n        /* \"#utility.yul\":14160:14579   */\n    tag_93:\n        /* \"#utility.yul\":14326:14330   */\n      0x00\n        /* \"#utility.yul\":14364:14366   */\n      0x20\n        /* \"#utility.yul\":14353:14362   */\n      dup3\n        /* \"#utility.yul\":14349:14367   */\n      add\n        /* \"#utility.yul\":14341:14367   */\n      swap1\n      pop\n        /* \"#utility.yul\":14413:14422   */\n      dup2\n        /* \"#utility.yul\":14407:14411   */\n      dup2\n        /* \"#utility.yul\":14403:14423   */\n      sub\n        /* \"#utility.yul\":14399:14400   */\n      0x00\n        /* \"#utility.yul\":14388:14397   */\n      dup4\n        /* \"#utility.yul\":14384:14401   */\n      add\n        /* \"#utility.yul\":14377:14424   */\n      mstore\n        /* \"#utility.yul\":14441:14572   */\n      tag_338\n        /* \"#utility.yul\":14567:14571   */\n      dup2\n        /* \"#utility.yul\":14441:14572   */\n      tag_190\n      jump\t// in\n    tag_338:\n        /* \"#utility.yul\":14433:14572   */\n      swap1\n      pop\n        /* \"#utility.yul\":14160:14579   */\n      swap2\n      swap1\n      pop\n      jump\t// out\n        /* \"#utility.yul\":14585:14754   */\n    tag_191:\n        /* \"#utility.yul\":14725:14746   */\n      0x4576656e746f206a61207265736f6c7669646f00000000000000000000000000\n        /* \"#utility.yul\":14721:14722   */\n      0x00\n        /* \"#utility.yul\":14713:14719   */\n      dup3\n        /* \"#utility.yul\":14709:14723   */\n      add\n        /* \"#utility.yul\":14702:14747   */\n      mstore\n        /* \"#utility.yul\":14585:14754   */\n      pop\n      jump\t// out\n        /* \"#utility.yul\":14760:15126   */\n    tag_192:\n        /* \"#utility.yul\":14902:14905   */\n      0x00\n        /* \"#utility.yul\":14923:14990   */\n      tag_341\n        /* \"#utility.yul\":14987:14989   */\n      0x13\n        /* \"#utility.yul\":14982:14985   */\n      dup4\n        /* \"#utility.yul\":14923:14990   */\n      tag_175\n      jump\t// in\n    tag_341:\n        /* \"#utility.yul\":14916:14990   */\n      swap2\n      pop\n        /* \"#utility.yul\":14999:15092   */\n      tag_342\n        /* \"#utility.yul\":15088:15091   */\n      dup3\n        /* \"#utility.yul\":14999:15092   */\n      tag_191\n      jump\t// in\n    tag_342:\n        /* \"#utility.yul\":15117:15119   */\n      0x20\n        /* \"#utility.yul\":15112:15115   */\n      dup3\n        /* \"#utility.yul\":15108:15120   */\n      add\n        /* \"#utility.yul\":15101:15120   */\n      swap1\n      pop\n        /* \"#utility.yul\":14760:15126   */\n      swap2\n      swap1\n      pop\n      jump\t// out\n        /* \"#utility.yul\":15132:15551   */\n    tag_108:\n        /* \"#utility.yul\":15298:15302   */\n      0x00\n        /* \"#utility.yul\":15336:15338   */\n      0x20\n        /* \"#utility.yul\":15325:15334   */\n      dup3\n        /* \"#utility.yul\":15321:15339   */\n      add\n        /* \"#utility.yul\":15313:15339   */\n      swap1\n      pop\n        /* \"#utility.yul\":15385:15394   */\n      dup2\n        /* \"#utility.yul\":15379:15383   */\n      dup2\n        /* \"#utility.yul\":15375:15395   */\n      sub\n        /* \"#utility.yul\":15371:15372   */\n      0x00\n        /* \"#utility.yul\":15360:15369   */\n      dup4\n        /* \"#utility.yul\":15356:15373   */\n      add\n        /* \"#utility.yul\":15349:15396   */\n      mstore\n        /* \"#utility.yul\":15413:15544   */\n      tag_344\n        /* \"#utility.yul\":15539:15543   */\n      dup2\n        /* \"#utility.yul\":15413:15544   */\n      tag_192\n      jump\t// in\n    tag_344:\n        /* \"#utility.yul\":15405:15544   */\n      swap1\n      pop\n        /* \"#utility.yul\":15132:15551   */\n      swap2\n      swap1\n      pop\n      jump\t// out\n        /* \"#utility.yul\":15557:15790   */\n    tag_116:\n        /* \"#utility.yul\":15596:15599   */\n      0x00\n        /* \"#utility.yul\":15619:15643   */\n      tag_346\n        /* \"#utility.yul\":15637:15642   */\n      dup3\n        /* \"#utility.yul\":15619:15643   */\n      tag_157\n      jump\t// in\n    tag_346:\n        /* \"#utility.yul\":15610:15643   */\n      swap2\n      pop\n        /* \"#utility.yul\":15665:15731   */\n      0xffffffffffffffffffffffffffffffffffffffffffffffffffffffffffffffff\n        /* \"#utility.yul\":15658:15663   */\n      dup3\n        /* \"#utility.yul\":15655:15732   */\n      sub\n        /* \"#utility.yul\":15652:15755   */\n      tag_347\n      jumpi\n        /* \"#utility.yul\":15735:15753   */\n      tag_348\n      tag_184\n      jump\t// in\n    tag_348:\n        /* \"#utility.yul\":15652:15755   */\n    tag_347:\n        /* \"#utility.yul\":15782:15783   */\n      0x01\n        /* \"#utility.yul\":15775:15780   */\n      dup3\n        /* \"#utility.yul\":15771:15784   */\n      add\n        /* \"#utility.yul\":15764:15784   */\n      swap1\n      pop\n        /* \"#utility.yul\":15557:15790   */\n      swap2\n      swap1\n      pop\n      jump\t// out\n        /* \"#utility.yul\":15796:15963   */\n    tag_193:\n        /* \"#utility.yul\":15936:15955   */\n      0x56616c6f72657320696e76616c69646f73000000000000000000000000000000\n        /* \"#utility.yul\":15932:15933   */\n      0x00\n        /* \"#utility.yul\":15924:15930   */\n      dup3\n        /* \"#utility.yul\":15920:15934   */\n      add\n        /* \"#utility.yul\":15913:15956   */\n      mstore\n        /* \"#utility.yul\":15796:15963   */\n      pop\n      jump\t// out\n        /* \"#utility.yul\":15969:16335   */\n    tag_194:\n        /* \"#utility.yul\":16111:16114   */\n      0x00\n        /* \"#utility.yul\":16132:16199   */\n      tag_351\n        /* \"#utility.yul\":16196:16198   */\n      0x11\n        /* \"#utility.yul\":16191:16194   */\n      dup4\n        /* \"#utility.yul\":16132:16199   */\n      tag_175\n      jump\t// in\n    tag_351:\n        /* \"#utility.yul\":16125:16199   */\n      swap2\n      pop\n        /* \"#utility.yul\":16208:16301   */\n      tag_352\n        /* \"#utility.yul\":16297:16300   */\n      dup3\n        /* \"#utility.yul\":16208:16301   */\n      tag_193\n      jump\t// in\n    tag_352:\n        /* \"#utility.yul\":16326:16328   */\n      0x20\n        /* \"#utility.yul\":16321:16324   */\n      dup3\n        /* \"#utility.yul\":16317:16329   */\n      add\n        /* \"#utility.yul\":16310:16329   */\n      swap1\n      pop\n        /* \"#utility.yul\":15969:16335   */\n      swap2\n      swap1\n      pop\n      jump\t// out\n        /* \"#utility.yul\":16341:16760   */\n    tag_125:\n        /* \"#utility.yul\":16507:16511   */\n      0x00\n        /* \"#utility.yul\":16545:16547   */\n      0x20\n        /* \"#utility.yul\":16534:16543   */\n      dup3\n        /* \"#utility.yul\":16530:16548   */\n      add\n        /* \"#utility.yul\":16522:16548   */\n      swap1\n      pop\n        /* \"#utility.yul\":16594:16603   */\n      dup2\n        /* \"#utility.yul\":16588:16592   */\n      dup2\n        /* \"#utility.yul\":16584:16604   */\n      sub\n        /* \"#utility.yul\":16580:16581   */\n      0x00\n        /* \"#utility.yul\":16569:16578   */\n      dup4\n        /* \"#utility.yul\":16565:16582   */\n      add\n        /* \"#utility.yul\":16558:16605   */\n      mstore\n        /* \"#utility.yul\":16622:16753   */\n      tag_354\n        /* \"#utility.yul\":16748:16752   */\n      dup2\n        /* \"#utility.yul\":16622:16753   */\n      tag_194\n      jump\t// in\n    tag_354:\n        /* \"#utility.yul\":16614:16753   */\n      swap1\n      pop\n        /* \"#utility.yul\":16341:16760   */\n      swap2\n      swap1\n      pop\n      jump\t// out\n        /* \"#utility.yul\":16766:17208   */\n    tag_127:\n        /* \"#utility.yul\":16915:16919   */\n      0x00\n        /* \"#utility.yul\":16953:16955   */\n      0x60\n        /* \"#utility.yul\":16942:16951   */\n      dup3\n        /* \"#utility.yul\":16938:16956   */\n      add\n        /* \"#utility.yul\":16930:16956   */\n      swap1\n      pop\n        /* \"#utility.yul\":16966:17037   */\n      tag_356\n        /* \"#utility.yul\":17034:17035   */\n      0x00\n        /* \"#utility.yul\":17023:17032   */\n      dup4\n        /* \"#utility.yul\":17019:17036   */\n      add\n        /* \"#utility.yul\":17010:17016   */\n      dup7\n        /* \"#utility.yul\":16966:17037   */\n      tag_172\n      jump\t// in\n    tag_356:\n        /* \"#utility.yul\":17047:17119   */\n      tag_357\n        /* \"#utility.yul\":17115:17117   */\n      0x20\n        /* \"#utility.yul\":17104:17113   */\n      dup4\n        /* \"#utility.yul\":17100:17118   */\n      add\n        /* \"#utility.yul\":17091:17097   */\n      dup6\n        /* \"#utility.yul\":17047:17119   */\n      tag_172\n      jump\t// in\n    tag_357:\n        /* \"#utility.yul\":17129:17201   */\n      tag_358\n        /* \"#utility.yul\":17197:17199   */\n      0x40\n        /* \"#utility.yul\":17186:17195   */\n      dup4\n        /* \"#utility.yul\":17182:17200   */\n      add\n        /* \"#utility.yul\":17173:17179   */\n      dup5\n        /* \"#utility.yul\":17129:17201   */\n      tag_164\n      jump\t// in\n    tag_358:\n        /* \"#utility.yul\":16766:17208   */\n      swap5\n      swap4\n      pop\n      pop\n      pop\n      pop\n      jump\t// out\n        /* \"#utility.yul\":17214:17395   */\n    tag_195:\n        /* \"#utility.yul\":17354:17387   */\n      0x5265656e7472616e637947756172643a207265656e7472616e742063616c6c00\n        /* \"#utility.yul\":17350:17351   */\n      0x00\n        /* \"#utility.yul\":17342:17348   */\n      dup3\n        /* \"#utility.yul\":17338:17352   */\n      add\n        /* \"#utility.yul\":17331:17388   */\n      mstore\n        /* \"#utility.yul\":17214:17395   */\n      pop\n      jump\t// out\n        /* \"#utility.yul\":17401:17767   */\n    tag_196:\n        /* \"#utility.yul\":17543:17546   */\n      0x00\n        /* \"#utility.yul\":17564:17631   */\n      tag_361\n        /* \"#utility.yul\":17628:17630   */\n      0x1f\n        /* \"#utility.yul\":17623:17626   */\n      dup4\n        /* \"#utility.yul\":17564:17631   */\n      tag_175\n      jump\t// in\n    tag_361:\n        /* \"#utility.yul\":17557:17631   */\n      swap2\n      pop\n        /* \"#utility.yul\":17640:17733   */\n      tag_362\n        /* \"#utility.yul\":17729:17732   */\n      dup3\n        /* \"#utility.yul\":17640:17733   */\n      tag_195\n      jump\t// in\n    tag_362:\n        /* \"#utility.yul\":17758:17760   */\n      0x20\n        /* \"#utility.yul\":17753:17756   */\n      dup3\n        /* \"#utility.yul\":17749:17761   */\n      add\n        /* \"#utility.yul\":17742:17761   */\n      swap1\n      pop\n        /* \"#utility.yul\":17401:17767   */\n      swap2\n      swap1\n      pop\n      jump\t// out\n        /* \"#utility.yul\":17773:18192   */\n    tag_143:\n        /* \"#utility.yul\":17939:17943   */\n      0x00\n        /* \"#utility.yul\":17977:17979   */\n      0x20\n        /* \"#utility.yul\":17966:17975   */\n      dup3\n        /* \"#utility.yul\":17962:17980   */\n      add\n        /* \"#utility.yul\":17954:17980   */\n      swap1\n      pop\n        /* \"#utility.yul\":18026:18035   */\n      dup2\n        /* \"#utility.yul\":18020:18024   */\n      dup2\n        /* \"#utility.yul\":18016:18036   */\n      sub\n        /* \"#utility.yul\":18012:18013   */\n      0x00\n        /* \"#utility.yul\":18001:18010   */\n      dup4\n        /* \"#utility.yul\":17997:18014   */\n      add\n        /* \"#utility.yul\":17990:18037   */\n      mstore\n        /* \"#utility.yul\":18054:18185   */\n      tag_364\n        /* \"#utility.yul\":18180:18184   */\n      dup2\n        /* \"#utility.yul\":18054:18185   */\n      tag_196\n      jump\t// in\n    tag_364:\n        /* \"#utility.yul\":18046:18185   */\n      swap1\n      pop\n        /* \"#utility.yul\":17773:18192   */\n      swap2\n      swap1\n      pop\n      jump\t// out\n\n    auxdata: 0xa264697066735822122065decfa9f3d4dd9e1e0efdbd25aaedf5684cdf7ca422313e825232f2404347a464736f6c63430008140033\n}\n",
				"bytecode": {
					"linkReferences": {},
					"object": "608060405234801562000010575f80fd5b50604051620019b4380380620019b4833981810160405281019062000036919062000231565b805f73ffffffffffffffffffffffffffffffffffffffff168173ffffffffffffffffffffffffffffffffffffffff1603620000aa575f6040517f1e4fbdf7000000000000000000000000000000000000000000000000000000008152600401620000a1919062000287565b60405180910390fd5b620000bb816200010b60201b60201c565b50600180819055508160025f6101000a81548173ffffffffffffffffffffffffffffffffffffffff021916908373ffffffffffffffffffffffffffffffffffffffff1602179055505050620002a2565b5f805f9054906101000a900473ffffffffffffffffffffffffffffffffffffffff169050815f806101000a81548173ffffffffffffffffffffffffffffffffffffffff021916908373ffffffffffffffffffffffffffffffffffffffff1602179055508173ffffffffffffffffffffffffffffffffffffffff168173ffffffffffffffffffffffffffffffffffffffff167f8be0079c531659141344cd1fd0a4f28419497f9722a3daafe3b4186f6b6457e060405160405180910390a35050565b5f80fd5b5f73ffffffffffffffffffffffffffffffffffffffff82169050919050565b5f620001fb82620001d0565b9050919050565b6200020d81620001ef565b811462000218575f80fd5b50565b5f815190506200022b8162000202565b92915050565b5f80604083850312156200024a5762000249620001cc565b5b5f62000259858286016200021b565b92505060206200026c858286016200021b565b9150509250929050565b6200028181620001ef565b82525050565b5f6020820190506200029c5f83018462000276565b92915050565b61170480620002b05f395ff3fe608060405234801561000f575f80fd5b50600436106100a7575f3560e01c80638da5cb5b1161006f5780638da5cb5b14610152578063915439fb1461017057806394cec7a71461018c578063e01a0ebe146101bc578063e71c9697146101da578063f2fde38b146101f6576100a7565b806314794702146100ab5780634a39ec90146100c75780635b0fc6e8146100fa57806369fb066414610118578063715018a614610148575b5f80fd5b6100c560048036038101906100c09190610e4b565b610212565b005b6100e160048036038101906100dc9190610ed0565b610644565b6040516100f19493929190610f37565b60405180910390f35b610102610694565b60405161010f9190610fd5565b60405180910390f35b610132600480360381019061012d9190610e4b565b6106b9565b60405161013f9190610fee565b60405180910390f35b6101506106d6565b005b61015a6106e9565b6040516101679190611016565b60405180910390f35b61018a60048036038101906101859190611059565b610710565b005b6101a660048036038101906101a19190611097565b610957565b6040516101b39190610fee565b60405180910390f35b6101c4610981565b6040516101d191906110d5565b60405180910390f35b6101f460048036038101906101ef91906110ee565b610987565b005b610210600480360381019061020b919061113e565b610be9565b005b61021a610c6d565b5f60035f3373ffffffffffffffffffffffffffffffffffffffff1673ffffffffffffffffffffffffffffffffffffffff1681526020019081526020015f205f8381526020019081526020015f20905060045f8381526020019081526020015f205f9054906101000a900460ff166102c6576040517f08c379a00000000000000000000000000000000000000000000000000000000081526004016102bd906111c3565b60405180910390fd5b806002015f9054906101000a900460ff16610316576040517f08c379a000000000000000000000000000000000000000000000000000000000815260040161030d9061122b565b60405180910390fd5b8060020160019054906101000a900460ff16610367576040517f08c379a000000000000000000000000000000000000000000000000000000000815260040161035e90611293565b60405180910390fd5b60055f8381526020019081526020015f205f3373ffffffffffffffffffffffffffffffffffffffff1673ffffffffffffffffffffffffffffffffffffffff1681526020019081526020015f205f9054906101000a900460ff1615610400576040517f08c379a00000000000000000000000000000000000000000000000000000000081526004016103f7906112fb565b60405180910390fd5b5f60648260010154835f01546104169190611346565b61042091906113b4565b90506103e8825f01546104339190611346565b811115610475576040517f08c379a000000000000000000000000000000000000000000000000000000000815260040161046c9061142e565b60405180910390fd5b60025f9054906101000a900473ffffffffffffffffffffffffffffffffffffffff1673ffffffffffffffffffffffffffffffffffffffff1663a9059cbb33836040518363ffffffff1660e01b81526004016104d192919061144c565b6020604051808303815f875af11580156104ed573d5f803e3d5ffd5b505050506040513d601f19601f820116820180604052508101906105119190611487565b610550576040517f08c379a0000000000000000000000000000000000000000000000000000000008152600401610547906114fc565b60405180910390fd5b600160055f8581526020019081526020015f205f3373ffffffffffffffffffffffffffffffffffffffff1673ffffffffffffffffffffffffffffffffffffffff1681526020019081526020015f205f6101000a81548160ff02191690831515021790555060035f3373ffffffffffffffffffffffffffffffffffffffff1673ffffffffffffffffffffffffffffffffffffffff1681526020019081526020015f205f8481526020019081526020015f205f8082015f9055600182015f9055600282015f6101000a81549060ff02191690556002820160016101000a81549060ff021916905550505050610641610cbc565b50565b6003602052815f5260405f20602052805f5260405f205f9150915050805f015490806001015490806002015f9054906101000a900460ff16908060020160019054906101000a900460ff16905084565b60025f9054906101000a900473ffffffffffffffffffffffffffffffffffffffff1681565b6004602052805f5260405f205f915054906101000a900460ff1681565b6106de610cc5565b6106e75f610d4c565b565b5f805f9054906101000a900473ffffffffffffffffffffffffffffffffffffffff16905090565b610718610cc5565b60045f8381526020019081526020015f205f9054906101000a900460ff1615610776576040517f08c379a000000000000000000000000000000000000000000000000000000000815260040161076d90611564565b60405180910390fd5b600160045f8481526020019081526020015f205f6101000a81548160ff0219169083151502179055505f5b6006548111610952575f60035f3373ffffffffffffffffffffffffffffffffffffffff1673ffffffffffffffffffffffffffffffffffffffff1681526020019081526020015f205f8381526020019081526020015f205f0154118015610860575060035f3373ffffffffffffffffffffffffffffffffffffffff1673ffffffffffffffffffffffffffffffffffffffff1681526020019081526020015f205f8281526020019081526020015f206002015f9054906101000a900460ff16155b1561093f57600160035f3373ffffffffffffffffffffffffffffffffffffffff1673ffffffffffffffffffffffffffffffffffffffff1681526020019081526020015f205f8381526020019081526020015f206002015f6101000a81548160ff02191690831515021790555082811480156108d85750815b60035f3373ffffffffffffffffffffffffffffffffffffffff1673ffffffffffffffffffffffffffffffffffffffff1681526020019081526020015f205f8381526020019081526020015f2060020160016101000a81548160ff0219169083151502179055505b808061094a90611582565b9150506107a1565b505050565b6005602052815f5260405f20602052805f5260405f205f915091509054906101000a900460ff1681565b60065481565b61098f610c6d565b60045f8481526020019081526020015f205f9054906101000a900460ff16156109ed576040517f08c379a00000000000000000000000000000000000000000000000000000000081526004016109e490611564565b60405180910390fd5b5f821180156109fb57505f81115b610a3a576040517f08c379a0000000000000000000000000000000000000000000000000000000008152600401610a3190611613565b60405180910390fd5b60025f9054906101000a900473ffffffffffffffffffffffffffffffffffffffff1673ffffffffffffffffffffffffffffffffffffffff166323b872dd3330856040518463ffffffff1660e01b8152600401610a9893929190611631565b6020604051808303815f875af1158015610ab4573d5f803e3d5ffd5b505050506040513d601f19601f82011682018060405250810190610ad89190611487565b610b17576040517f08c379a0000000000000000000000000000000000000000000000000000000008152600401610b0e906114fc565b60405180910390fd5b60405180608001604052808381526020018281526020015f151581526020015f151581525060035f3373ffffffffffffffffffffffffffffffffffffffff1673ffffffffffffffffffffffffffffffffffffffff1681526020019081526020015f205f8581526020019081526020015f205f820151815f0155602082015181600101556040820151816002015f6101000a81548160ff02191690831515021790555060608201518160020160016101000a81548160ff021916908315150217905550905050610be4610cbc565b505050565b610bf1610cc5565b5f73ffffffffffffffffffffffffffffffffffffffff168173ffffffffffffffffffffffffffffffffffffffff1603610c61575f6040517f1e4fbdf7000000000000000000000000000000000000000000000000000000008152600401610c589190611016565b60405180910390fd5b610c6a81610d4c565b50565b600260015403610cb2576040517f08c379a0000000000000000000000000000000000000000000000000000000008152600401610ca9906116b0565b60405180910390fd5b6002600181905550565b60018081905550565b610ccd610e0d565b73ffffffffffffffffffffffffffffffffffffffff16610ceb6106e9565b73ffffffffffffffffffffffffffffffffffffffff1614610d4a57610d0e610e0d565b6040517f118cdaa7000000000000000000000000000000000000000000000000000000008152600401610d419190611016565b60405180910390fd5b565b5f805f9054906101000a900473ffffffffffffffffffffffffffffffffffffffff169050815f806101000a81548173ffffffffffffffffffffffffffffffffffffffff021916908373ffffffffffffffffffffffffffffffffffffffff1602179055508173ffffffffffffffffffffffffffffffffffffffff168173ffffffffffffffffffffffffffffffffffffffff167f8be0079c531659141344cd1fd0a4f28419497f9722a3daafe3b4186f6b6457e060405160405180910390a35050565b5f33905090565b5f80fd5b5f819050919050565b610e2a81610e18565b8114610e34575f80fd5b50565b5f81359050610e4581610e21565b92915050565b5f60208284031215610e6057610e5f610e14565b5b5f610e6d84828501610e37565b91505092915050565b5f73ffffffffffffffffffffffffffffffffffffffff82169050919050565b5f610e9f82610e76565b9050919050565b610eaf81610e95565b8114610eb9575f80fd5b50565b5f81359050610eca81610ea6565b92915050565b5f8060408385031215610ee657610ee5610e14565b5b5f610ef385828601610ebc565b9250506020610f0485828601610e37565b9150509250929050565b610f1781610e18565b82525050565b5f8115159050919050565b610f3181610f1d565b82525050565b5f608082019050610f4a5f830187610f0e565b610f576020830186610f0e565b610f646040830185610f28565b610f716060830184610f28565b95945050505050565b5f819050919050565b5f610f9d610f98610f9384610e76565b610f7a565b610e76565b9050919050565b5f610fae82610f83565b9050919050565b5f610fbf82610fa4565b9050919050565b610fcf81610fb5565b82525050565b5f602082019050610fe85f830184610fc6565b92915050565b5f6020820190506110015f830184610f28565b92915050565b61101081610e95565b82525050565b5f6020820190506110295f830184611007565b92915050565b61103881610f1d565b8114611042575f80fd5b50565b5f813590506110538161102f565b92915050565b5f806040838503121561106f5761106e610e14565b5b5f61107c85828601610e37565b925050602061108d85828601611045565b9150509250929050565b5f80604083850312156110ad576110ac610e14565b5b5f6110ba85828601610e37565b92505060206110cb85828601610ebc565b9150509250929050565b5f6020820190506110e85f830184610f0e565b92915050565b5f805f6060848603121561110557611104610e14565b5b5f61111286828701610e37565b935050602061112386828701610e37565b925050604061113486828701610e37565b9150509250925092565b5f6020828403121561115357611152610e14565b5b5f61116084828501610ebc565b91505092915050565b5f82825260208201905092915050565b7f4576656e746f206e616f207265736f6c7669646f0000000000000000000000005f82015250565b5f6111ad601483611169565b91506111b882611179565b602082019050919050565b5f6020820190508181035f8301526111da816111a1565b9050919050565b7f41706f737461206e616f207265736f6c766964610000000000000000000000005f82015250565b5f611215601483611169565b9150611220826111e1565b602082019050919050565b5f6020820190508181035f83015261124281611209565b9050919050565b7f41706f737461206e616f2076656e6365646f72610000000000000000000000005f82015250565b5f61127d601483611169565b915061128882611249565b602082019050919050565b5f6020820190508181035f8301526112aa81611271565b9050919050565b7f47616e686f73206a612073616361646f730000000000000000000000000000005f82015250565b5f6112e5601183611169565b91506112f0826112b1565b602082019050919050565b5f6020820190508181035f830152611312816112d9565b9050919050565b7f4e487b71000000000000000000000000000000000000000000000000000000005f52601160045260245ffd5b5f61135082610e18565b915061135b83610e18565b925082820261136981610e18565b915082820484148315176113805761137f611319565b5b5092915050565b7f4e487b71000000000000000000000000000000000000000000000000000000005f52601260045260245ffd5b5f6113be82610e18565b91506113c983610e18565b9250826113d9576113d8611387565b5b828204905092915050565b7f5061796f75742065786365737369766f000000000000000000000000000000005f82015250565b5f611418601083611169565b9150611423826113e4565b602082019050919050565b5f6020820190508181035f8301526114458161140c565b9050919050565b5f60408201905061145f5f830185611007565b61146c6020830184610f0e565b9392505050565b5f815190506114818161102f565b92915050565b5f6020828403121561149c5761149b610e14565b5b5f6114a984828501611473565b91505092915050565b7f46616c6861206e61207472616e73666572656e636961000000000000000000005f82015250565b5f6114e6601683611169565b91506114f1826114b2565b602082019050919050565b5f6020820190508181035f830152611513816114da565b9050919050565b7f4576656e746f206a61207265736f6c7669646f000000000000000000000000005f82015250565b5f61154e601383611169565b91506115598261151a565b602082019050919050565b5f6020820190508181035f83015261157b81611542565b9050919050565b5f61158c82610e18565b91507fffffffffffffffffffffffffffffffffffffffffffffffffffffffffffffffff82036115be576115bd611319565b5b600182019050919050565b7f56616c6f72657320696e76616c69646f730000000000000000000000000000005f82015250565b5f6115fd601183611169565b9150611608826115c9565b602082019050919050565b5f6020820190508181035f83015261162a816115f1565b9050919050565b5f6060820190506116445f830186611007565b6116516020830185611007565b61165e6040830184610f0e565b949350505050565b7f5265656e7472616e637947756172643a207265656e7472616e742063616c6c005f82015250565b5f61169a601f83611169565b91506116a582611666565b602082019050919050565b5f6020820190508181035f8301526116c78161168e565b905091905056fea264697066735822122065decfa9f3d4dd9e1e0efdbd25aaedf5684cdf7ca422313e825232f2404347a464736f6c63430008140033",
					"opcodes": "PUSH1 0x80 PUSH1 0x40 MSTORE CALLVALUE DUP1 ISZERO PUSH3 0x10 JUMPI PUSH0 DUP1 REVERT JUMPDEST POP PUSH1 0x40 MLOAD PUSH3 0x19B4 CODESIZE SUB DUP1 PUSH3 0x19B4 DUP4 CODECOPY DUP2 DUP2 ADD PUSH1 0x40 MSTORE DUP2 ADD SWAP1 PUSH3 0x36 SWAP2 SWAP1 PUSH3 0x231 JUMP JUMPDEST DUP1 PUSH0 PUSH20 0xFFFFFFFFFFFFFFFFFFFFFFFFFFFFFFFFFFFFFFFF AND DUP2 PUSH20 0xFFFFFFFFFFFFFFFFFFFFFFFFFFFFFFFFFFFFFFFF AND SUB PUSH3 0xAA JUMPI PUSH0 PUSH1 0x40 MLOAD PUSH32 0x1E4FBDF700000000000000000000000000000000000000000000000000000000 DUP2 MSTORE PUSH1 0x4 ADD PUSH3 0xA1 SWAP2 SWAP1 PUSH3 0x287 JUMP JUMPDEST PUSH1 0x40 MLOAD DUP1 SWAP2 SUB SWAP1 REVERT JUMPDEST PUSH3 0xBB DUP2 PUSH3 0x10B PUSH1 0x20 SHL PUSH1 0x20 SHR JUMP JUMPDEST POP PUSH1 0x1 DUP1 DUP2 SWAP1 SSTORE POP DUP2 PUSH1 0x2 PUSH0 PUSH2 0x100 EXP DUP2 SLOAD DUP2 PUSH20 0xFFFFFFFFFFFFFFFFFFFFFFFFFFFFFFFFFFFFFFFF MUL NOT AND SWAP1 DUP4 PUSH20 0xFFFFFFFFFFFFFFFFFFFFFFFFFFFFFFFFFFFFFFFF AND MUL OR SWAP1 SSTORE POP POP POP PUSH3 0x2A2 JUMP JUMPDEST PUSH0 DUP1 PUSH0 SWAP1 SLOAD SWAP1 PUSH2 0x100 EXP SWAP1 DIV PUSH20 0xFFFFFFFFFFFFFFFFFFFFFFFFFFFFFFFFFFFFFFFF AND SWAP1 POP DUP2 PUSH0 DUP1 PUSH2 0x100 EXP DUP2 SLOAD DUP2 PUSH20 0xFFFFFFFFFFFFFFFFFFFFFFFFFFFFFFFFFFFFFFFF MUL NOT AND SWAP1 DUP4 PUSH20 0xFFFFFFFFFFFFFFFFFFFFFFFFFFFFFFFFFFFFFFFF AND MUL OR SWAP1 SSTORE POP DUP2 PUSH20 0xFFFFFFFFFFFFFFFFFFFFFFFFFFFFFFFFFFFFFFFF AND DUP2 PUSH20 0xFFFFFFFFFFFFFFFFFFFFFFFFFFFFFFFFFFFFFFFF AND PUSH32 0x8BE0079C531659141344CD1FD0A4F28419497F9722A3DAAFE3B4186F6B6457E0 PUSH1 0x40 MLOAD PUSH1 0x40 MLOAD DUP1 SWAP2 SUB SWAP1 LOG3 POP POP JUMP JUMPDEST PUSH0 DUP1 REVERT JUMPDEST PUSH0 PUSH20 0xFFFFFFFFFFFFFFFFFFFFFFFFFFFFFFFFFFFFFFFF DUP3 AND SWAP1 POP SWAP2 SWAP1 POP JUMP JUMPDEST PUSH0 PUSH3 0x1FB DUP3 PUSH3 0x1D0 JUMP JUMPDEST SWAP1 POP SWAP2 SWAP1 POP JUMP JUMPDEST PUSH3 0x20D DUP2 PUSH3 0x1EF JUMP JUMPDEST DUP2 EQ PUSH3 0x218 JUMPI PUSH0 DUP1 REVERT JUMPDEST POP JUMP JUMPDEST PUSH0 DUP2 MLOAD SWAP1 POP PUSH3 0x22B DUP2 PUSH3 0x202 JUMP JUMPDEST SWAP3 SWAP2 POP POP JUMP JUMPDEST PUSH0 DUP1 PUSH1 0x40 DUP4 DUP6 SUB SLT ISZERO PUSH3 0x24A JUMPI PUSH3 0x249 PUSH3 0x1CC JUMP JUMPDEST JUMPDEST PUSH0 PUSH3 0x259 DUP6 DUP3 DUP7 ADD PUSH3 0x21B JUMP JUMPDEST SWAP3 POP POP PUSH1 0x20 PUSH3 0x26C DUP6 DUP3 DUP7 ADD PUSH3 0x21B JUMP JUMPDEST SWAP2 POP POP SWAP3 POP SWAP3 SWAP1 POP JUMP JUMPDEST PUSH3 0x281 DUP2 PUSH3 0x1EF JUMP JUMPDEST DUP3 MSTORE POP POP JUMP JUMPDEST PUSH0 PUSH1 0x20 DUP3 ADD SWAP1 POP PUSH3 0x29C PUSH0 DUP4 ADD DUP5 PUSH3 0x276 JUMP JUMPDEST SWAP3 SWAP2 POP POP JUMP JUMPDEST PUSH2 0x1704 DUP1 PUSH3 0x2B0 PUSH0 CODECOPY PUSH0 RETURN INVALID PUSH1 0x80 PUSH1 0x40 MSTORE CALLVALUE DUP1 ISZERO PUSH2 0xF JUMPI PUSH0 DUP1 REVERT JUMPDEST POP PUSH1 0x4 CALLDATASIZE LT PUSH2 0xA7 JUMPI PUSH0 CALLDATALOAD PUSH1 0xE0 SHR DUP1 PUSH4 0x8DA5CB5B GT PUSH2 0x6F JUMPI DUP1 PUSH4 0x8DA5CB5B EQ PUSH2 0x152 JUMPI DUP1 PUSH4 0x915439FB EQ PUSH2 0x170 JUMPI DUP1 PUSH4 0x94CEC7A7 EQ PUSH2 0x18C JUMPI DUP1 PUSH4 0xE01A0EBE EQ PUSH2 0x1BC JUMPI DUP1 PUSH4 0xE71C9697 EQ PUSH2 0x1DA JUMPI DUP1 PUSH4 0xF2FDE38B EQ PUSH2 0x1F6 JUMPI PUSH2 0xA7 JUMP JUMPDEST DUP1 PUSH4 0x14794702 EQ PUSH2 0xAB JUMPI DUP1 PUSH4 0x4A39EC90 EQ PUSH2 0xC7 JUMPI DUP1 PUSH4 0x5B0FC6E8 EQ PUSH2 0xFA JUMPI DUP1 PUSH4 0x69FB0664 EQ PUSH2 0x118 JUMPI DUP1 PUSH4 0x715018A6 EQ PUSH2 0x148 JUMPI JUMPDEST PUSH0 DUP1 REVERT JUMPDEST PUSH2 0xC5 PUSH1 0x4 DUP1 CALLDATASIZE SUB DUP2 ADD SWAP1 PUSH2 0xC0 SWAP2 SWAP1 PUSH2 0xE4B JUMP JUMPDEST PUSH2 0x212 JUMP JUMPDEST STOP JUMPDEST PUSH2 0xE1 PUSH1 0x4 DUP1 CALLDATASIZE SUB DUP2 ADD SWAP1 PUSH2 0xDC SWAP2 SWAP1 PUSH2 0xED0 JUMP JUMPDEST PUSH2 0x644 JUMP JUMPDEST PUSH1 0x40 MLOAD PUSH2 0xF1 SWAP5 SWAP4 SWAP3 SWAP2 SWAP1 PUSH2 0xF37 JUMP JUMPDEST PUSH1 0x40 MLOAD DUP1 SWAP2 SUB SWAP1 RETURN JUMPDEST PUSH2 0x102 PUSH2 0x694 JUMP JUMPDEST PUSH1 0x40 MLOAD PUSH2 0x10F SWAP2 SWAP1 PUSH2 0xFD5 JUMP JUMPDEST PUSH1 0x40 MLOAD DUP1 SWAP2 SUB SWAP1 RETURN JUMPDEST PUSH2 0x132 PUSH1 0x4 DUP1 CALLDATASIZE SUB DUP2 ADD SWAP1 PUSH2 0x12D SWAP2 SWAP1 PUSH2 0xE4B JUMP JUMPDEST PUSH2 0x6B9 JUMP JUMPDEST PUSH1 0x40 MLOAD PUSH2 0x13F SWAP2 SWAP1 PUSH2 0xFEE JUMP JUMPDEST PUSH1 0x40 MLOAD DUP1 SWAP2 SUB SWAP1 RETURN JUMPDEST PUSH2 0x150 PUSH2 0x6D6 JUMP JUMPDEST STOP JUMPDEST PUSH2 0x15A PUSH2 0x6E9 JUMP JUMPDEST PUSH1 0x40 MLOAD PUSH2 0x167 SWAP2 SWAP1 PUSH2 0x1016 JUMP JUMPDEST PUSH1 0x40 MLOAD DUP1 SWAP2 SUB SWAP1 RETURN JUMPDEST PUSH2 0x18A PUSH1 0x4 DUP1 CALLDATASIZE SUB DUP2 ADD SWAP1 PUSH2 0x185 SWAP2 SWAP1 PUSH2 0x1059 JUMP JUMPDEST PUSH2 0x710 JUMP JUMPDEST STOP JUMPDEST PUSH2 0x1A6 PUSH1 0x4 DUP1 CALLDATASIZE SUB DUP2 ADD SWAP1 PUSH2 0x1A1 SWAP2 SWAP1 PUSH2 0x1097 JUMP JUMPDEST PUSH2 0x957 JUMP JUMPDEST PUSH1 0x40 MLOAD PUSH2 0x1B3 SWAP2 SWAP1 PUSH2 0xFEE JUMP JUMPDEST PUSH1 0x40 MLOAD DUP1 SWAP2 SUB SWAP1 RETURN JUMPDEST PUSH2 0x1C4 PUSH2 0x981 JUMP JUMPDEST PUSH1 0x40 MLOAD PUSH2 0x1D1 SWAP2 SWAP1 PUSH2 0x10D5 JUMP JUMPDEST PUSH1 0x40 MLOAD DUP1 SWAP2 SUB SWAP1 RETURN JUMPDEST PUSH2 0x1F4 PUSH1 0x4 DUP1 CALLDATASIZE SUB DUP2 ADD SWAP1 PUSH2 0x1EF SWAP2 SWAP1 PUSH2 0x10EE JUMP JUMPDEST PUSH2 0x987 JUMP JUMPDEST STOP JUMPDEST PUSH2 0x210 PUSH1 0x4 DUP1 CALLDATASIZE SUB DUP2 ADD SWAP1 PUSH2 0x20B SWAP2 SWAP1 PUSH2 0x113E JUMP JUMPDEST PUSH2 0xBE9 JUMP JUMPDEST STOP JUMPDEST PUSH2 0x21A PUSH2 0xC6D JUMP JUMPDEST PUSH0 PUSH1 0x3 PUSH0 CALLER PUSH20 0xFFFFFFFFFFFFFFFFFFFFFFFFFFFFFFFFFFFFFFFF AND PUSH20 0xFFFFFFFFFFFFFFFFFFFFFFFFFFFFFFFFFFFFFFFF AND DUP2 MSTORE PUSH1 0x20 ADD SWAP1 DUP2 MSTORE PUSH1 0x20 ADD PUSH0 KECCAK256 PUSH0 DUP4 DUP2 MSTORE PUSH1 0x20 ADD SWAP1 DUP2 MSTORE PUSH1 0x20 ADD PUSH0 KECCAK256 SWAP1 POP PUSH1 0x4 PUSH0 DUP4 DUP2 MSTORE PUSH1 0x20 ADD SWAP1 DUP2 MSTORE PUSH1 0x20 ADD PUSH0 KECCAK256 PUSH0 SWAP1 SLOAD SWAP1 PUSH2 0x100 EXP SWAP1 DIV PUSH1 0xFF AND PUSH2 0x2C6 JUMPI PUSH1 0x40 MLOAD PUSH32 0x8C379A000000000000000000000000000000000000000000000000000000000 DUP2 MSTORE PUSH1 0x4 ADD PUSH2 0x2BD SWAP1 PUSH2 0x11C3 JUMP JUMPDEST PUSH1 0x40 MLOAD DUP1 SWAP2 SUB SWAP1 REVERT JUMPDEST DUP1 PUSH1 0x2 ADD PUSH0 SWAP1 SLOAD SWAP1 PUSH2 0x100 EXP SWAP1 DIV PUSH1 0xFF AND PUSH2 0x316 JUMPI PUSH1 0x40 MLOAD PUSH32 0x8C379A000000000000000000000000000000000000000000000000000000000 DUP2 MSTORE PUSH1 0x4 ADD PUSH2 0x30D SWAP1 PUSH2 0x122B JUMP JUMPDEST PUSH1 0x40 MLOAD DUP1 SWAP2 SUB SWAP1 REVERT JUMPDEST DUP1 PUSH1 0x2 ADD PUSH1 0x1 SWAP1 SLOAD SWAP1 PUSH2 0x100 EXP SWAP1 DIV PUSH1 0xFF AND PUSH2 0x367 JUMPI PUSH1 0x40 MLOAD PUSH32 0x8C379A000000000000000000000000000000000000000000000000000000000 DUP2 MSTORE PUSH1 0x4 ADD PUSH2 0x35E SWAP1 PUSH2 0x1293 JUMP JUMPDEST PUSH1 0x40 MLOAD DUP1 SWAP2 SUB SWAP1 REVERT JUMPDEST PUSH1 0x5 PUSH0 DUP4 DUP2 MSTORE PUSH1 0x20 ADD SWAP1 DUP2 MSTORE PUSH1 0x20 ADD PUSH0 KECCAK256 PUSH0 CALLER PUSH20 0xFFFFFFFFFFFFFFFFFFFFFFFFFFFFFFFFFFFFFFFF AND PUSH20 0xFFFFFFFFFFFFFFFFFFFFFFFFFFFFFFFFFFFFFFFF AND DUP2 MSTORE PUSH1 0x20 ADD SWAP1 DUP2 MSTORE PUSH1 0x20 ADD PUSH0 KECCAK256 PUSH0 SWAP1 SLOAD SWAP1 PUSH2 0x100 EXP SWAP1 DIV PUSH1 0xFF AND ISZERO PUSH2 0x400 JUMPI PUSH1 0x40 MLOAD PUSH32 0x8C379A000000000000000000000000000000000000000000000000000000000 DUP2 MSTORE PUSH1 0x4 ADD PUSH2 0x3F7 SWAP1 PUSH2 0x12FB JUMP JUMPDEST PUSH1 0x40 MLOAD DUP1 SWAP2 SUB SWAP1 REVERT JUMPDEST PUSH0 PUSH1 0x64 DUP3 PUSH1 0x1 ADD SLOAD DUP4 PUSH0 ADD SLOAD PUSH2 0x416 SWAP2 SWAP1 PUSH2 0x1346 JUMP JUMPDEST PUSH2 0x420 SWAP2 SWAP1 PUSH2 0x13B4 JUMP JUMPDEST SWAP1 POP PUSH2 0x3E8 DUP3 PUSH0 ADD SLOAD PUSH2 0x433 SWAP2 SWAP1 PUSH2 0x1346 JUMP JUMPDEST DUP2 GT ISZERO PUSH2 0x475 JUMPI PUSH1 0x40 MLOAD PUSH32 0x8C379A000000000000000000000000000000000000000000000000000000000 DUP2 MSTORE PUSH1 0x4 ADD PUSH2 0x46C SWAP1 PUSH2 0x142E JUMP JUMPDEST PUSH1 0x40 MLOAD DUP1 SWAP2 SUB SWAP1 REVERT JUMPDEST PUSH1 0x2 PUSH0 SWAP1 SLOAD SWAP1 PUSH2 0x100 EXP SWAP1 DIV PUSH20 0xFFFFFFFFFFFFFFFFFFFFFFFFFFFFFFFFFFFFFFFF AND PUSH20 0xFFFFFFFFFFFFFFFFFFFFFFFFFFFFFFFFFFFFFFFF AND PUSH4 0xA9059CBB CALLER DUP4 PUSH1 0x40 MLOAD DUP4 PUSH4 0xFFFFFFFF AND PUSH1 0xE0 SHL DUP2 MSTORE PUSH1 0x4 ADD PUSH2 0x4D1 SWAP3 SWAP2 SWAP1 PUSH2 0x144C JUMP JUMPDEST PUSH1 0x20 PUSH1 0x40 MLOAD DUP1 DUP4 SUB DUP2 PUSH0 DUP8 GAS CALL ISZERO DUP1 ISZERO PUSH2 0x4ED JUMPI RETURNDATASIZE PUSH0 DUP1 RETURNDATACOPY RETURNDATASIZE PUSH0 REVERT JUMPDEST POP POP POP POP PUSH1 0x40 MLOAD RETURNDATASIZE PUSH1 0x1F NOT PUSH1 0x1F DUP3 ADD AND DUP3 ADD DUP1 PUSH1 0x40 MSTORE POP DUP2 ADD SWAP1 PUSH2 0x511 SWAP2 SWAP1 PUSH2 0x1487 JUMP JUMPDEST PUSH2 0x550 JUMPI PUSH1 0x40 MLOAD PUSH32 0x8C379A000000000000000000000000000000000000000000000000000000000 DUP2 MSTORE PUSH1 0x4 ADD PUSH2 0x547 SWAP1 PUSH2 0x14FC JUMP JUMPDEST PUSH1 0x40 MLOAD DUP1 SWAP2 SUB SWAP1 REVERT JUMPDEST PUSH1 0x1 PUSH1 0x5 PUSH0 DUP6 DUP2 MSTORE PUSH1 0x20 ADD SWAP1 DUP2 MSTORE PUSH1 0x20 ADD PUSH0 KECCAK256 PUSH0 CALLER PUSH20 0xFFFFFFFFFFFFFFFFFFFFFFFFFFFFFFFFFFFFFFFF AND PUSH20 0xFFFFFFFFFFFFFFFFFFFFFFFFFFFFFFFFFFFFFFFF AND DUP2 MSTORE PUSH1 0x20 ADD SWAP1 DUP2 MSTORE PUSH1 0x20 ADD PUSH0 KECCAK256 PUSH0 PUSH2 0x100 EXP DUP2 SLOAD DUP2 PUSH1 0xFF MUL NOT AND SWAP1 DUP4 ISZERO ISZERO MUL OR SWAP1 SSTORE POP PUSH1 0x3 PUSH0 CALLER PUSH20 0xFFFFFFFFFFFFFFFFFFFFFFFFFFFFFFFFFFFFFFFF AND PUSH20 0xFFFFFFFFFFFFFFFFFFFFFFFFFFFFFFFFFFFFFFFF AND DUP2 MSTORE PUSH1 0x20 ADD SWAP1 DUP2 MSTORE PUSH1 0x20 ADD PUSH0 KECCAK256 PUSH0 DUP5 DUP2 MSTORE PUSH1 0x20 ADD SWAP1 DUP2 MSTORE PUSH1 0x20 ADD PUSH0 KECCAK256 PUSH0 DUP1 DUP3 ADD PUSH0 SWAP1 SSTORE PUSH1 0x1 DUP3 ADD PUSH0 SWAP1 SSTORE PUSH1 0x2 DUP3 ADD PUSH0 PUSH2 0x100 EXP DUP2 SLOAD SWAP1 PUSH1 0xFF MUL NOT AND SWAP1 SSTORE PUSH1 0x2 DUP3 ADD PUSH1 0x1 PUSH2 0x100 EXP DUP2 SLOAD SWAP1 PUSH1 0xFF MUL NOT AND SWAP1 SSTORE POP POP POP POP PUSH2 0x641 PUSH2 0xCBC JUMP JUMPDEST POP JUMP JUMPDEST PUSH1 0x3 PUSH1 0x20 MSTORE DUP2 PUSH0 MSTORE PUSH1 0x40 PUSH0 KECCAK256 PUSH1 0x20 MSTORE DUP1 PUSH0 MSTORE PUSH1 0x40 PUSH0 KECCAK256 PUSH0 SWAP2 POP SWAP2 POP POP DUP1 PUSH0 ADD SLOAD SWAP1 DUP1 PUSH1 0x1 ADD SLOAD SWAP1 DUP1 PUSH1 0x2 ADD PUSH0 SWAP1 SLOAD SWAP1 PUSH2 0x100 EXP SWAP1 DIV PUSH1 0xFF AND SWAP1 DUP1 PUSH1 0x2 ADD PUSH1 0x1 SWAP1 SLOAD SWAP1 PUSH2 0x100 EXP SWAP1 DIV PUSH1 0xFF AND SWAP1 POP DUP5 JUMP JUMPDEST PUSH1 0x2 PUSH0 SWAP1 SLOAD SWAP1 PUSH2 0x100 EXP SWAP1 DIV PUSH20 0xFFFFFFFFFFFFFFFFFFFFFFFFFFFFFFFFFFFFFFFF AND DUP2 JUMP JUMPDEST PUSH1 0x4 PUSH1 0x20 MSTORE DUP1 PUSH0 MSTORE PUSH1 0x40 PUSH0 KECCAK256 PUSH0 SWAP2 POP SLOAD SWAP1 PUSH2 0x100 EXP SWAP1 DIV PUSH1 0xFF AND DUP2 JUMP JUMPDEST PUSH2 0x6DE PUSH2 0xCC5 JUMP JUMPDEST PUSH2 0x6E7 PUSH0 PUSH2 0xD4C JUMP JUMPDEST JUMP JUMPDEST PUSH0 DUP1 PUSH0 SWAP1 SLOAD SWAP1 PUSH2 0x100 EXP SWAP1 DIV PUSH20 0xFFFFFFFFFFFFFFFFFFFFFFFFFFFFFFFFFFFFFFFF AND SWAP1 POP SWAP1 JUMP JUMPDEST PUSH2 0x718 PUSH2 0xCC5 JUMP JUMPDEST PUSH1 0x4 PUSH0 DUP4 DUP2 MSTORE PUSH1 0x20 ADD SWAP1 DUP2 MSTORE PUSH1 0x20 ADD PUSH0 KECCAK256 PUSH0 SWAP1 SLOAD SWAP1 PUSH2 0x100 EXP SWAP1 DIV PUSH1 0xFF AND ISZERO PUSH2 0x776 JUMPI PUSH1 0x40 MLOAD PUSH32 0x8C379A000000000000000000000000000000000000000000000000000000000 DUP2 MSTORE PUSH1 0x4 ADD PUSH2 0x76D SWAP1 PUSH2 0x1564 JUMP JUMPDEST PUSH1 0x40 MLOAD DUP1 SWAP2 SUB SWAP1 REVERT JUMPDEST PUSH1 0x1 PUSH1 0x4 PUSH0 DUP5 DUP2 MSTORE PUSH1 0x20 ADD SWAP1 DUP2 MSTORE PUSH1 0x20 ADD PUSH0 KECCAK256 PUSH0 PUSH2 0x100 EXP DUP2 SLOAD DUP2 PUSH1 0xFF MUL NOT AND SWAP1 DUP4 ISZERO ISZERO MUL OR SWAP1 SSTORE POP PUSH0 JUMPDEST PUSH1 0x6 SLOAD DUP2 GT PUSH2 0x952 JUMPI PUSH0 PUSH1 0x3 PUSH0 CALLER PUSH20 0xFFFFFFFFFFFFFFFFFFFFFFFFFFFFFFFFFFFFFFFF AND PUSH20 0xFFFFFFFFFFFFFFFFFFFFFFFFFFFFFFFFFFFFFFFF AND DUP2 MSTORE PUSH1 0x20 ADD SWAP1 DUP2 MSTORE PUSH1 0x20 ADD PUSH0 KECCAK256 PUSH0 DUP4 DUP2 MSTORE PUSH1 0x20 ADD SWAP1 DUP2 MSTORE PUSH1 0x20 ADD PUSH0 KECCAK256 PUSH0 ADD SLOAD GT DUP1 ISZERO PUSH2 0x860 JUMPI POP PUSH1 0x3 PUSH0 CALLER PUSH20 0xFFFFFFFFFFFFFFFFFFFFFFFFFFFFFFFFFFFFFFFF AND PUSH20 0xFFFFFFFFFFFFFFFFFFFFFFFFFFFFFFFFFFFFFFFF AND DUP2 MSTORE PUSH1 0x20 ADD SWAP1 DUP2 MSTORE PUSH1 0x20 ADD PUSH0 KECCAK256 PUSH0 DUP3 DUP2 MSTORE PUSH1 0x20 ADD SWAP1 DUP2 MSTORE PUSH1 0x20 ADD PUSH0 KECCAK256 PUSH1 0x2 ADD PUSH0 SWAP1 SLOAD SWAP1 PUSH2 0x100 EXP SWAP1 DIV PUSH1 0xFF AND ISZERO JUMPDEST ISZERO PUSH2 0x93F JUMPI PUSH1 0x1 PUSH1 0x3 PUSH0 CALLER PUSH20 0xFFFFFFFFFFFFFFFFFFFFFFFFFFFFFFFFFFFFFFFF AND PUSH20 0xFFFFFFFFFFFFFFFFFFFFFFFFFFFFFFFFFFFFFFFF AND DUP2 MSTORE PUSH1 0x20 ADD SWAP1 DUP2 MSTORE PUSH1 0x20 ADD PUSH0 KECCAK256 PUSH0 DUP4 DUP2 MSTORE PUSH1 0x20 ADD SWAP1 DUP2 MSTORE PUSH1 0x20 ADD PUSH0 KECCAK256 PUSH1 0x2 ADD PUSH0 PUSH2 0x100 EXP DUP2 SLOAD DUP2 PUSH1 0xFF MUL NOT AND SWAP1 DUP4 ISZERO ISZERO MUL OR SWAP1 SSTORE POP DUP3 DUP2 EQ DUP1 ISZERO PUSH2 0x8D8 JUMPI POP DUP2 JUMPDEST PUSH1 0x3 PUSH0 CALLER PUSH20 0xFFFFFFFFFFFFFFFFFFFFFFFFFFFFFFFFFFFFFFFF AND PUSH20 0xFFFFFFFFFFFFFFFFFFFFFFFFFFFFFFFFFFFFFFFF AND DUP2 MSTORE PUSH1 0x20 ADD SWAP1 DUP2 MSTORE PUSH1 0x20 ADD PUSH0 KECCAK256 PUSH0 DUP4 DUP2 MSTORE PUSH1 0x20 ADD SWAP1 DUP2 MSTORE PUSH1 0x20 ADD PUSH0 KECCAK256 PUSH1 0x2 ADD PUSH1 0x1 PUSH2 0x100 EXP DUP2 SLOAD DUP2 PUSH1 0xFF MUL NOT AND SWAP1 DUP4 ISZERO ISZERO MUL OR SWAP1 SSTORE POP JUMPDEST DUP1 DUP1 PUSH2 0x94A SWAP1 PUSH2 0x1582 JUMP JUMPDEST SWAP2 POP POP PUSH2 0x7A1 JUMP JUMPDEST POP POP POP JUMP JUMPDEST PUSH1 0x5 PUSH1 0x20 MSTORE DUP2 PUSH0 MSTORE PUSH1 0x40 PUSH0 KECCAK256 PUSH1 0x20 MSTORE DUP1 PUSH0 MSTORE PUSH1 0x40 PUSH0 KECCAK256 PUSH0 SWAP2 POP SWAP2 POP SWAP1 SLOAD SWAP1 PUSH2 0x100 EXP SWAP1 DIV PUSH1 0xFF AND DUP2 JUMP JUMPDEST PUSH1 0x6 SLOAD DUP2 JUMP JUMPDEST PUSH2 0x98F PUSH2 0xC6D JUMP JUMPDEST PUSH1 0x4 PUSH0 DUP5 DUP2 MSTORE PUSH1 0x20 ADD SWAP1 DUP2 MSTORE PUSH1 0x20 ADD PUSH0 KECCAK256 PUSH0 SWAP1 SLOAD SWAP1 PUSH2 0x100 EXP SWAP1 DIV PUSH1 0xFF AND ISZERO PUSH2 0x9ED JUMPI PUSH1 0x40 MLOAD PUSH32 0x8C379A000000000000000000000000000000000000000000000000000000000 DUP2 MSTORE PUSH1 0x4 ADD PUSH2 0x9E4 SWAP1 PUSH2 0x1564 JUMP JUMPDEST PUSH1 0x40 MLOAD DUP1 SWAP2 SUB SWAP1 REVERT JUMPDEST PUSH0 DUP3 GT DUP1 ISZERO PUSH2 0x9FB JUMPI POP PUSH0 DUP2 GT JUMPDEST PUSH2 0xA3A JUMPI PUSH1 0x40 MLOAD PUSH32 0x8C379A000000000000000000000000000000000000000000000000000000000 DUP2 MSTORE PUSH1 0x4 ADD PUSH2 0xA31 SWAP1 PUSH2 0x1613 JUMP JUMPDEST PUSH1 0x40 MLOAD DUP1 SWAP2 SUB SWAP1 REVERT JUMPDEST PUSH1 0x2 PUSH0 SWAP1 SLOAD SWAP1 PUSH2 0x100 EXP SWAP1 DIV PUSH20 0xFFFFFFFFFFFFFFFFFFFFFFFFFFFFFFFFFFFFFFFF AND PUSH20 0xFFFFFFFFFFFFFFFFFFFFFFFFFFFFFFFFFFFFFFFF AND PUSH4 0x23B872DD CALLER ADDRESS DUP6 PUSH1 0x40 MLOAD DUP5 PUSH4 0xFFFFFFFF AND PUSH1 0xE0 SHL DUP2 MSTORE PUSH1 0x4 ADD PUSH2 0xA98 SWAP4 SWAP3 SWAP2 SWAP1 PUSH2 0x1631 JUMP JUMPDEST PUSH1 0x20 PUSH1 0x40 MLOAD DUP1 DUP4 SUB DUP2 PUSH0 DUP8 GAS CALL ISZERO DUP1 ISZERO PUSH2 0xAB4 JUMPI RETURNDATASIZE PUSH0 DUP1 RETURNDATACOPY RETURNDATASIZE PUSH0 REVERT JUMPDEST POP POP POP POP PUSH1 0x40 MLOAD RETURNDATASIZE PUSH1 0x1F NOT PUSH1 0x1F DUP3 ADD AND DUP3 ADD DUP1 PUSH1 0x40 MSTORE POP DUP2 ADD SWAP1 PUSH2 0xAD8 SWAP2 SWAP1 PUSH2 0x1487 JUMP JUMPDEST PUSH2 0xB17 JUMPI PUSH1 0x40 MLOAD PUSH32 0x8C379A000000000000000000000000000000000000000000000000000000000 DUP2 MSTORE PUSH1 0x4 ADD PUSH2 0xB0E SWAP1 PUSH2 0x14FC JUMP JUMPDEST PUSH1 0x40 MLOAD DUP1 SWAP2 SUB SWAP1 REVERT JUMPDEST PUSH1 0x40 MLOAD DUP1 PUSH1 0x80 ADD PUSH1 0x40 MSTORE DUP1 DUP4 DUP2 MSTORE PUSH1 0x20 ADD DUP3 DUP2 MSTORE PUSH1 0x20 ADD PUSH0 ISZERO ISZERO DUP2 MSTORE PUSH1 0x20 ADD PUSH0 ISZERO ISZERO DUP2 MSTORE POP PUSH1 0x3 PUSH0 CALLER PUSH20 0xFFFFFFFFFFFFFFFFFFFFFFFFFFFFFFFFFFFFFFFF AND PUSH20 0xFFFFFFFFFFFFFFFFFFFFFFFFFFFFFFFFFFFFFFFF AND DUP2 MSTORE PUSH1 0x20 ADD SWAP1 DUP2 MSTORE PUSH1 0x20 ADD PUSH0 KECCAK256 PUSH0 DUP6 DUP2 MSTORE PUSH1 0x20 ADD SWAP1 DUP2 MSTORE PUSH1 0x20 ADD PUSH0 KECCAK256 PUSH0 DUP3 ADD MLOAD DUP2 PUSH0 ADD SSTORE PUSH1 0x20 DUP3 ADD MLOAD DUP2 PUSH1 0x1 ADD SSTORE PUSH1 0x40 DUP3 ADD MLOAD DUP2 PUSH1 0x2 ADD PUSH0 PUSH2 0x100 EXP DUP2 SLOAD DUP2 PUSH1 0xFF MUL NOT AND SWAP1 DUP4 ISZERO ISZERO MUL OR SWAP1 SSTORE POP PUSH1 0x60 DUP3 ADD MLOAD DUP2 PUSH1 0x2 ADD PUSH1 0x1 PUSH2 0x100 EXP DUP2 SLOAD DUP2 PUSH1 0xFF MUL NOT AND SWAP1 DUP4 ISZERO ISZERO MUL OR SWAP1 SSTORE POP SWAP1 POP POP PUSH2 0xBE4 PUSH2 0xCBC JUMP JUMPDEST POP POP POP JUMP JUMPDEST PUSH2 0xBF1 PUSH2 0xCC5 JUMP JUMPDEST PUSH0 PUSH20 0xFFFFFFFFFFFFFFFFFFFFFFFFFFFFFFFFFFFFFFFF AND DUP2 PUSH20 0xFFFFFFFFFFFFFFFFFFFFFFFFFFFFFFFFFFFFFFFF AND SUB PUSH2 0xC61 JUMPI PUSH0 PUSH1 0x40 MLOAD PUSH32 0x1E4FBDF700000000000000000000000000000000000000000000000000000000 DUP2 MSTORE PUSH1 0x4 ADD PUSH2 0xC58 SWAP2 SWAP1 PUSH2 0x1016 JUMP JUMPDEST PUSH1 0x40 MLOAD DUP1 SWAP2 SUB SWAP1 REVERT JUMPDEST PUSH2 0xC6A DUP2 PUSH2 0xD4C JUMP JUMPDEST POP JUMP JUMPDEST PUSH1 0x2 PUSH1 0x1 SLOAD SUB PUSH2 0xCB2 JUMPI PUSH1 0x40 MLOAD PUSH32 0x8C379A000000000000000000000000000000000000000000000000000000000 DUP2 MSTORE PUSH1 0x4 ADD PUSH2 0xCA9 SWAP1 PUSH2 0x16B0 JUMP JUMPDEST PUSH1 0x40 MLOAD DUP1 SWAP2 SUB SWAP1 REVERT JUMPDEST PUSH1 0x2 PUSH1 0x1 DUP2 SWAP1 SSTORE POP JUMP JUMPDEST PUSH1 0x1 DUP1 DUP2 SWAP1 SSTORE POP JUMP JUMPDEST PUSH2 0xCCD PUSH2 0xE0D JUMP JUMPDEST PUSH20 0xFFFFFFFFFFFFFFFFFFFFFFFFFFFFFFFFFFFFFFFF AND PUSH2 0xCEB PUSH2 0x6E9 JUMP JUMPDEST PUSH20 0xFFFFFFFFFFFFFFFFFFFFFFFFFFFFFFFFFFFFFFFF AND EQ PUSH2 0xD4A JUMPI PUSH2 0xD0E PUSH2 0xE0D JUMP JUMPDEST PUSH1 0x40 MLOAD PUSH32 0x118CDAA700000000000000000000000000000000000000000000000000000000 DUP2 MSTORE PUSH1 0x4 ADD PUSH2 0xD41 SWAP2 SWAP1 PUSH2 0x1016 JUMP JUMPDEST PUSH1 0x40 MLOAD DUP1 SWAP2 SUB SWAP1 REVERT JUMPDEST JUMP JUMPDEST PUSH0 DUP1 PUSH0 SWAP1 SLOAD SWAP1 PUSH2 0x100 EXP SWAP1 DIV PUSH20 0xFFFFFFFFFFFFFFFFFFFFFFFFFFFFFFFFFFFFFFFF AND SWAP1 POP DUP2 PUSH0 DUP1 PUSH2 0x100 EXP DUP2 SLOAD DUP2 PUSH20 0xFFFFFFFFFFFFFFFFFFFFFFFFFFFFFFFFFFFFFFFF MUL NOT AND SWAP1 DUP4 PUSH20 0xFFFFFFFFFFFFFFFFFFFFFFFFFFFFFFFFFFFFFFFF AND MUL OR SWAP1 SSTORE POP DUP2 PUSH20 0xFFFFFFFFFFFFFFFFFFFFFFFFFFFFFFFFFFFFFFFF AND DUP2 PUSH20 0xFFFFFFFFFFFFFFFFFFFFFFFFFFFFFFFFFFFFFFFF AND PUSH32 0x8BE0079C531659141344CD1FD0A4F28419497F9722A3DAAFE3B4186F6B6457E0 PUSH1 0x40 MLOAD PUSH1 0x40 MLOAD DUP1 SWAP2 SUB SWAP1 LOG3 POP POP JUMP JUMPDEST PUSH0 CALLER SWAP1 POP SWAP1 JUMP JUMPDEST PUSH0 DUP1 REVERT JUMPDEST PUSH0 DUP2 SWAP1 POP SWAP2 SWAP1 POP JUMP JUMPDEST PUSH2 0xE2A DUP2 PUSH2 0xE18 JUMP JUMPDEST DUP2 EQ PUSH2 0xE34 JUMPI PUSH0 DUP1 REVERT JUMPDEST POP JUMP JUMPDEST PUSH0 DUP2 CALLDATALOAD SWAP1 POP PUSH2 0xE45 DUP2 PUSH2 0xE21 JUMP JUMPDEST SWAP3 SWAP2 POP POP JUMP JUMPDEST PUSH0 PUSH1 0x20 DUP3 DUP5 SUB SLT ISZERO PUSH2 0xE60 JUMPI PUSH2 0xE5F PUSH2 0xE14 JUMP JUMPDEST JUMPDEST PUSH0 PUSH2 0xE6D DUP5 DUP3 DUP6 ADD PUSH2 0xE37 JUMP JUMPDEST SWAP2 POP POP SWAP3 SWAP2 POP POP JUMP JUMPDEST PUSH0 PUSH20 0xFFFFFFFFFFFFFFFFFFFFFFFFFFFFFFFFFFFFFFFF DUP3 AND SWAP1 POP SWAP2 SWAP1 POP JUMP JUMPDEST PUSH0 PUSH2 0xE9F DUP3 PUSH2 0xE76 JUMP JUMPDEST SWAP1 POP SWAP2 SWAP1 POP JUMP JUMPDEST PUSH2 0xEAF DUP2 PUSH2 0xE95 JUMP JUMPDEST DUP2 EQ PUSH2 0xEB9 JUMPI PUSH0 DUP1 REVERT JUMPDEST POP JUMP JUMPDEST PUSH0 DUP2 CALLDATALOAD SWAP1 POP PUSH2 0xECA DUP2 PUSH2 0xEA6 JUMP JUMPDEST SWAP3 SWAP2 POP POP JUMP JUMPDEST PUSH0 DUP1 PUSH1 0x40 DUP4 DUP6 SUB SLT ISZERO PUSH2 0xEE6 JUMPI PUSH2 0xEE5 PUSH2 0xE14 JUMP JUMPDEST JUMPDEST PUSH0 PUSH2 0xEF3 DUP6 DUP3 DUP7 ADD PUSH2 0xEBC JUMP JUMPDEST SWAP3 POP POP PUSH1 0x20 PUSH2 0xF04 DUP6 DUP3 DUP7 ADD PUSH2 0xE37 JUMP JUMPDEST SWAP2 POP POP SWAP3 POP SWAP3 SWAP1 POP JUMP JUMPDEST PUSH2 0xF17 DUP2 PUSH2 0xE18 JUMP JUMPDEST DUP3 MSTORE POP POP JUMP JUMPDEST PUSH0 DUP2 ISZERO ISZERO SWAP1 POP SWAP2 SWAP1 POP JUMP JUMPDEST PUSH2 0xF31 DUP2 PUSH2 0xF1D JUMP JUMPDEST DUP3 MSTORE POP POP JUMP JUMPDEST PUSH0 PUSH1 0x80 DUP3 ADD SWAP1 POP PUSH2 0xF4A PUSH0 DUP4 ADD DUP8 PUSH2 0xF0E JUMP JUMPDEST PUSH2 0xF57 PUSH1 0x20 DUP4 ADD DUP7 PUSH2 0xF0E JUMP JUMPDEST PUSH2 0xF64 PUSH1 0x40 DUP4 ADD DUP6 PUSH2 0xF28 JUMP JUMPDEST PUSH2 0xF71 PUSH1 0x60 DUP4 ADD DUP5 PUSH2 0xF28 JUMP JUMPDEST SWAP6 SWAP5 POP POP POP POP POP JUMP JUMPDEST PUSH0 DUP2 SWAP1 POP SWAP2 SWAP1 POP JUMP JUMPDEST PUSH0 PUSH2 0xF9D PUSH2 0xF98 PUSH2 0xF93 DUP5 PUSH2 0xE76 JUMP JUMPDEST PUSH2 0xF7A JUMP JUMPDEST PUSH2 0xE76 JUMP JUMPDEST SWAP1 POP SWAP2 SWAP1 POP JUMP JUMPDEST PUSH0 PUSH2 0xFAE DUP3 PUSH2 0xF83 JUMP JUMPDEST SWAP1 POP SWAP2 SWAP1 POP JUMP JUMPDEST PUSH0 PUSH2 0xFBF DUP3 PUSH2 0xFA4 JUMP JUMPDEST SWAP1 POP SWAP2 SWAP1 POP JUMP JUMPDEST PUSH2 0xFCF DUP2 PUSH2 0xFB5 JUMP JUMPDEST DUP3 MSTORE POP POP JUMP JUMPDEST PUSH0 PUSH1 0x20 DUP3 ADD SWAP1 POP PUSH2 0xFE8 PUSH0 DUP4 ADD DUP5 PUSH2 0xFC6 JUMP JUMPDEST SWAP3 SWAP2 POP POP JUMP JUMPDEST PUSH0 PUSH1 0x20 DUP3 ADD SWAP1 POP PUSH2 0x1001 PUSH0 DUP4 ADD DUP5 PUSH2 0xF28 JUMP JUMPDEST SWAP3 SWAP2 POP POP JUMP JUMPDEST PUSH2 0x1010 DUP2 PUSH2 0xE95 JUMP JUMPDEST DUP3 MSTORE POP POP JUMP JUMPDEST PUSH0 PUSH1 0x20 DUP3 ADD SWAP1 POP PUSH2 0x1029 PUSH0 DUP4 ADD DUP5 PUSH2 0x1007 JUMP JUMPDEST SWAP3 SWAP2 POP POP JUMP JUMPDEST PUSH2 0x1038 DUP2 PUSH2 0xF1D JUMP JUMPDEST DUP2 EQ PUSH2 0x1042 JUMPI PUSH0 DUP1 REVERT JUMPDEST POP JUMP JUMPDEST PUSH0 DUP2 CALLDATALOAD SWAP1 POP PUSH2 0x1053 DUP2 PUSH2 0x102F JUMP JUMPDEST SWAP3 SWAP2 POP POP JUMP JUMPDEST PUSH0 DUP1 PUSH1 0x40 DUP4 DUP6 SUB SLT ISZERO PUSH2 0x106F JUMPI PUSH2 0x106E PUSH2 0xE14 JUMP JUMPDEST JUMPDEST PUSH0 PUSH2 0x107C DUP6 DUP3 DUP7 ADD PUSH2 0xE37 JUMP JUMPDEST SWAP3 POP POP PUSH1 0x20 PUSH2 0x108D DUP6 DUP3 DUP7 ADD PUSH2 0x1045 JUMP JUMPDEST SWAP2 POP POP SWAP3 POP SWAP3 SWAP1 POP JUMP JUMPDEST PUSH0 DUP1 PUSH1 0x40 DUP4 DUP6 SUB SLT ISZERO PUSH2 0x10AD JUMPI PUSH2 0x10AC PUSH2 0xE14 JUMP JUMPDEST JUMPDEST PUSH0 PUSH2 0x10BA DUP6 DUP3 DUP7 ADD PUSH2 0xE37 JUMP JUMPDEST SWAP3 POP POP PUSH1 0x20 PUSH2 0x10CB DUP6 DUP3 DUP7 ADD PUSH2 0xEBC JUMP JUMPDEST SWAP2 POP POP SWAP3 POP SWAP3 SWAP1 POP JUMP JUMPDEST PUSH0 PUSH1 0x20 DUP3 ADD SWAP1 POP PUSH2 0x10E8 PUSH0 DUP4 ADD DUP5 PUSH2 0xF0E JUMP JUMPDEST SWAP3 SWAP2 POP POP JUMP JUMPDEST PUSH0 DUP1 PUSH0 PUSH1 0x60 DUP5 DUP7 SUB SLT ISZERO PUSH2 0x1105 JUMPI PUSH2 0x1104 PUSH2 0xE14 JUMP JUMPDEST JUMPDEST PUSH0 PUSH2 0x1112 DUP7 DUP3 DUP8 ADD PUSH2 0xE37 JUMP JUMPDEST SWAP4 POP POP PUSH1 0x20 PUSH2 0x1123 DUP7 DUP3 DUP8 ADD PUSH2 0xE37 JUMP JUMPDEST SWAP3 POP POP PUSH1 0x40 PUSH2 0x1134 DUP7 DUP3 DUP8 ADD PUSH2 0xE37 JUMP JUMPDEST SWAP2 POP POP SWAP3 POP SWAP3 POP SWAP3 JUMP JUMPDEST PUSH0 PUSH1 0x20 DUP3 DUP5 SUB SLT ISZERO PUSH2 0x1153 JUMPI PUSH2 0x1152 PUSH2 0xE14 JUMP JUMPDEST JUMPDEST PUSH0 PUSH2 0x1160 DUP5 DUP3 DUP6 ADD PUSH2 0xEBC JUMP JUMPDEST SWAP2 POP POP SWAP3 SWAP2 POP POP JUMP JUMPDEST PUSH0 DUP3 DUP3 MSTORE PUSH1 0x20 DUP3 ADD SWAP1 POP SWAP3 SWAP2 POP POP JUMP JUMPDEST PUSH32 0x4576656E746F206E616F207265736F6C7669646F000000000000000000000000 PUSH0 DUP3 ADD MSTORE POP JUMP JUMPDEST PUSH0 PUSH2 0x11AD PUSH1 0x14 DUP4 PUSH2 0x1169 JUMP JUMPDEST SWAP2 POP PUSH2 0x11B8 DUP3 PUSH2 0x1179 JUMP JUMPDEST PUSH1 0x20 DUP3 ADD SWAP1 POP SWAP2 SWAP1 POP JUMP JUMPDEST PUSH0 PUSH1 0x20 DUP3 ADD SWAP1 POP DUP2 DUP2 SUB PUSH0 DUP4 ADD MSTORE PUSH2 0x11DA DUP2 PUSH2 0x11A1 JUMP JUMPDEST SWAP1 POP SWAP2 SWAP1 POP JUMP JUMPDEST PUSH32 0x41706F737461206E616F207265736F6C76696461000000000000000000000000 PUSH0 DUP3 ADD MSTORE POP JUMP JUMPDEST PUSH0 PUSH2 0x1215 PUSH1 0x14 DUP4 PUSH2 0x1169 JUMP JUMPDEST SWAP2 POP PUSH2 0x1220 DUP3 PUSH2 0x11E1 JUMP JUMPDEST PUSH1 0x20 DUP3 ADD SWAP1 POP SWAP2 SWAP1 POP JUMP JUMPDEST PUSH0 PUSH1 0x20 DUP3 ADD SWAP1 POP DUP2 DUP2 SUB PUSH0 DUP4 ADD MSTORE PUSH2 0x1242 DUP2 PUSH2 0x1209 JUMP JUMPDEST SWAP1 POP SWAP2 SWAP1 POP JUMP JUMPDEST PUSH32 0x41706F737461206E616F2076656E6365646F7261000000000000000000000000 PUSH0 DUP3 ADD MSTORE POP JUMP JUMPDEST PUSH0 PUSH2 0x127D PUSH1 0x14 DUP4 PUSH2 0x1169 JUMP JUMPDEST SWAP2 POP PUSH2 0x1288 DUP3 PUSH2 0x1249 JUMP JUMPDEST PUSH1 0x20 DUP3 ADD SWAP1 POP SWAP2 SWAP1 POP JUMP JUMPDEST PUSH0 PUSH1 0x20 DUP3 ADD SWAP1 POP DUP2 DUP2 SUB PUSH0 DUP4 ADD MSTORE PUSH2 0x12AA DUP2 PUSH2 0x1271 JUMP JUMPDEST SWAP1 POP SWAP2 SWAP1 POP JUMP JUMPDEST PUSH32 0x47616E686F73206A612073616361646F73000000000000000000000000000000 PUSH0 DUP3 ADD MSTORE POP JUMP JUMPDEST PUSH0 PUSH2 0x12E5 PUSH1 0x11 DUP4 PUSH2 0x1169 JUMP JUMPDEST SWAP2 POP PUSH2 0x12F0 DUP3 PUSH2 0x12B1 JUMP JUMPDEST PUSH1 0x20 DUP3 ADD SWAP1 POP SWAP2 SWAP1 POP JUMP JUMPDEST PUSH0 PUSH1 0x20 DUP3 ADD SWAP1 POP DUP2 DUP2 SUB PUSH0 DUP4 ADD MSTORE PUSH2 0x1312 DUP2 PUSH2 0x12D9 JUMP JUMPDEST SWAP1 POP SWAP2 SWAP1 POP JUMP JUMPDEST PUSH32 0x4E487B7100000000000000000000000000000000000000000000000000000000 PUSH0 MSTORE PUSH1 0x11 PUSH1 0x4 MSTORE PUSH1 0x24 PUSH0 REVERT JUMPDEST PUSH0 PUSH2 0x1350 DUP3 PUSH2 0xE18 JUMP JUMPDEST SWAP2 POP PUSH2 0x135B DUP4 PUSH2 0xE18 JUMP JUMPDEST SWAP3 POP DUP3 DUP3 MUL PUSH2 0x1369 DUP2 PUSH2 0xE18 JUMP JUMPDEST SWAP2 POP DUP3 DUP3 DIV DUP5 EQ DUP4 ISZERO OR PUSH2 0x1380 JUMPI PUSH2 0x137F PUSH2 0x1319 JUMP JUMPDEST JUMPDEST POP SWAP3 SWAP2 POP POP JUMP JUMPDEST PUSH32 0x4E487B7100000000000000000000000000000000000000000000000000000000 PUSH0 MSTORE PUSH1 0x12 PUSH1 0x4 MSTORE PUSH1 0x24 PUSH0 REVERT JUMPDEST PUSH0 PUSH2 0x13BE DUP3 PUSH2 0xE18 JUMP JUMPDEST SWAP2 POP PUSH2 0x13C9 DUP4 PUSH2 0xE18 JUMP JUMPDEST SWAP3 POP DUP3 PUSH2 0x13D9 JUMPI PUSH2 0x13D8 PUSH2 0x1387 JUMP JUMPDEST JUMPDEST DUP3 DUP3 DIV SWAP1 POP SWAP3 SWAP2 POP POP JUMP JUMPDEST PUSH32 0x5061796F75742065786365737369766F00000000000000000000000000000000 PUSH0 DUP3 ADD MSTORE POP JUMP JUMPDEST PUSH0 PUSH2 0x1418 PUSH1 0x10 DUP4 PUSH2 0x1169 JUMP JUMPDEST SWAP2 POP PUSH2 0x1423 DUP3 PUSH2 0x13E4 JUMP JUMPDEST PUSH1 0x20 DUP3 ADD SWAP1 POP SWAP2 SWAP1 POP JUMP JUMPDEST PUSH0 PUSH1 0x20 DUP3 ADD SWAP1 POP DUP2 DUP2 SUB PUSH0 DUP4 ADD MSTORE PUSH2 0x1445 DUP2 PUSH2 0x140C JUMP JUMPDEST SWAP1 POP SWAP2 SWAP1 POP JUMP JUMPDEST PUSH0 PUSH1 0x40 DUP3 ADD SWAP1 POP PUSH2 0x145F PUSH0 DUP4 ADD DUP6 PUSH2 0x1007 JUMP JUMPDEST PUSH2 0x146C PUSH1 0x20 DUP4 ADD DUP5 PUSH2 0xF0E JUMP JUMPDEST SWAP4 SWAP3 POP POP POP JUMP JUMPDEST PUSH0 DUP2 MLOAD SWAP1 POP PUSH2 0x1481 DUP2 PUSH2 0x102F JUMP JUMPDEST SWAP3 SWAP2 POP POP JUMP JUMPDEST PUSH0 PUSH1 0x20 DUP3 DUP5 SUB SLT ISZERO PUSH2 0x149C JUMPI PUSH2 0x149B PUSH2 0xE14 JUMP JUMPDEST JUMPDEST PUSH0 PUSH2 0x14A9 DUP5 DUP3 DUP6 ADD PUSH2 0x1473 JUMP JUMPDEST SWAP2 POP POP SWAP3 SWAP2 POP POP JUMP JUMPDEST PUSH32 0x46616C6861206E61207472616E73666572656E63696100000000000000000000 PUSH0 DUP3 ADD MSTORE POP JUMP JUMPDEST PUSH0 PUSH2 0x14E6 PUSH1 0x16 DUP4 PUSH2 0x1169 JUMP JUMPDEST SWAP2 POP PUSH2 0x14F1 DUP3 PUSH2 0x14B2 JUMP JUMPDEST PUSH1 0x20 DUP3 ADD SWAP1 POP SWAP2 SWAP1 POP JUMP JUMPDEST PUSH0 PUSH1 0x20 DUP3 ADD SWAP1 POP DUP2 DUP2 SUB PUSH0 DUP4 ADD MSTORE PUSH2 0x1513 DUP2 PUSH2 0x14DA JUMP JUMPDEST SWAP1 POP SWAP2 SWAP1 POP JUMP JUMPDEST PUSH32 0x4576656E746F206A61207265736F6C7669646F00000000000000000000000000 PUSH0 DUP3 ADD MSTORE POP JUMP JUMPDEST PUSH0 PUSH2 0x154E PUSH1 0x13 DUP4 PUSH2 0x1169 JUMP JUMPDEST SWAP2 POP PUSH2 0x1559 DUP3 PUSH2 0x151A JUMP JUMPDEST PUSH1 0x20 DUP3 ADD SWAP1 POP SWAP2 SWAP1 POP JUMP JUMPDEST PUSH0 PUSH1 0x20 DUP3 ADD SWAP1 POP DUP2 DUP2 SUB PUSH0 DUP4 ADD MSTORE PUSH2 0x157B DUP2 PUSH2 0x1542 JUMP JUMPDEST SWAP1 POP SWAP2 SWAP1 POP JUMP JUMPDEST PUSH0 PUSH2 0x158C DUP3 PUSH2 0xE18 JUMP JUMPDEST SWAP2 POP PUSH32 0xFFFFFFFFFFFFFFFFFFFFFFFFFFFFFFFFFFFFFFFFFFFFFFFFFFFFFFFFFFFFFFFF DUP3 SUB PUSH2 0x15BE JUMPI PUSH2 0x15BD PUSH2 0x1319 JUMP JUMPDEST JUMPDEST PUSH1 0x1 DUP3 ADD SWAP1 POP SWAP2 SWAP1 POP JUMP JUMPDEST PUSH32 0x56616C6F72657320696E76616C69646F73000000000000000000000000000000 PUSH0 DUP3 ADD MSTORE POP JUMP JUMPDEST PUSH0 PUSH2 0x15FD PUSH1 0x11 DUP4 PUSH2 0x1169 JUMP JUMPDEST SWAP2 POP PUSH2 0x1608 DUP3 PUSH2 0x15C9 JUMP JUMPDEST PUSH1 0x20 DUP3 ADD SWAP1 POP SWAP2 SWAP1 POP JUMP JUMPDEST PUSH0 PUSH1 0x20 DUP3 ADD SWAP1 POP DUP2 DUP2 SUB PUSH0 DUP4 ADD MSTORE PUSH2 0x162A DUP2 PUSH2 0x15F1 JUMP JUMPDEST SWAP1 POP SWAP2 SWAP1 POP JUMP JUMPDEST PUSH0 PUSH1 0x60 DUP3 ADD SWAP1 POP PUSH2 0x1644 PUSH0 DUP4 ADD DUP7 PUSH2 0x1007 JUMP JUMPDEST PUSH2 0x1651 PUSH1 0x20 DUP4 ADD DUP6 PUSH2 0x1007 JUMP JUMPDEST PUSH2 0x165E PUSH1 0x40 DUP4 ADD DUP5 PUSH2 0xF0E JUMP JUMPDEST SWAP5 SWAP4 POP POP POP POP JUMP JUMPDEST PUSH32 0x5265656E7472616E637947756172643A207265656E7472616E742063616C6C00 PUSH0 DUP3 ADD MSTORE POP JUMP JUMPDEST PUSH0 PUSH2 0x169A PUSH1 0x1F DUP4 PUSH2 0x1169 JUMP JUMPDEST SWAP2 POP PUSH2 0x16A5 DUP3 PUSH2 0x1666 JUMP JUMPDEST PUSH1 0x20 DUP3 ADD SWAP1 POP SWAP2 SWAP1 POP JUMP JUMPDEST PUSH0 PUSH1 0x20 DUP3 ADD SWAP1 POP DUP2 DUP2 SUB PUSH0 DUP4 ADD MSTORE PUSH2 0x16C7 DUP2 PUSH2 0x168E JUMP JUMPDEST SWAP1 POP SWAP2 SWAP1 POP JUMP INVALID LOG2 PUSH5 0x6970667358 0x22 SLT KECCAK256 PUSH6 0xDECFA9F3D4DD SWAP15 0x1E 0xE REVERT 0xBD 0x25 0xAA 0xED CREATE2 PUSH9 0x4CDF7CA422313E8252 ORIGIN CALLCODE BLOCKHASH NUMBER SELFBALANCE LOG4 PUSH5 0x736F6C6343 STOP ADDMOD EQ STOP CALLER "
				},
				"gasEstimates": {
					"creation": {
						"codeDepositCost": "1178400",
						"executionCost": "infinite",
						"totalCost": "infinite"
					},
					"external": {
						"bets(address,uint256)": "infinite",
						"eventIdCounter()": "2491",
						"eventOutcomes(uint256)": "2852",
						"hasWithdrawn(uint256,address)": "3115",
						"owner()": "2515",
						"placeBet(uint256,uint256,uint256)": "infinite",
						"pulseToken()": "infinite",
						"renounceOwnership()": "infinite",
						"resolveEvent(uint256,bool)": "infinite",
						"transferOwnership(address)": "infinite",
						"withdrawWinnings(uint256)": "infinite"
					}
				},
				"methodIdentifiers": {
					"bets(address,uint256)": "4a39ec90",
					"eventIdCounter()": "e01a0ebe",
					"eventOutcomes(uint256)": "69fb0664",
					"hasWithdrawn(uint256,address)": "94cec7a7",
					"owner()": "8da5cb5b",
					"placeBet(uint256,uint256,uint256)": "e71c9697",
					"pulseToken()": "5b0fc6e8",
					"renounceOwnership()": "715018a6",
					"resolveEvent(uint256,bool)": "915439fb",
					"transferOwnership(address)": "f2fde38b",
					"withdrawWinnings(uint256)": "14794702"
				}
			},
			"storageLayout": {
				"storage": [
					{
						"astId": 8,
						"contract": "PulseToken.sol:BetPulse",
						"label": "_owner",
						"offset": 0,
						"slot": "0",
						"type": "t_address"
					},
					{
						"astId": 158,
						"contract": "PulseToken.sol:BetPulse",
						"label": "_status",
						"offset": 0,
						"slot": "1",
						"type": "t_uint256"
					},
					{
						"astId": 332,
						"contract": "PulseToken.sol:BetPulse",
						"label": "pulseToken",
						"offset": 0,
						"slot": "2",
						"type": "t_contract(IERC20)290"
					},
					{
						"astId": 348,
						"contract": "PulseToken.sol:BetPulse",
						"label": "bets",
						"offset": 0,
						"slot": "3",
						"type": "t_mapping(t_address,t_mapping(t_uint256,t_struct(Bet)341_storage))"
					},
					{
						"astId": 352,
						"contract": "PulseToken.sol:BetPulse",
						"label": "eventOutcomes",
						"offset": 0,
						"slot": "4",
						"type": "t_mapping(t_uint256,t_bool)"
					},
					{
						"astId": 358,
						"contract": "PulseToken.sol:BetPulse",
						"label": "hasWithdrawn",
						"offset": 0,
						"slot": "5",
						"type": "t_mapping(t_uint256,t_mapping(t_address,t_bool))"
					},
					{
						"astId": 360,
						"contract": "PulseToken.sol:BetPulse",
						"label": "eventIdCounter",
						"offset": 0,
						"slot": "6",
						"type": "t_uint256"
					}
				],
				"types": {
					"t_address": {
						"encoding": "inplace",
						"label": "address",
						"numberOfBytes": "20"
					},
					"t_bool": {
						"encoding": "inplace",
						"label": "bool",
						"numberOfBytes": "1"
					},
					"t_contract(IERC20)290": {
						"encoding": "inplace",
						"label": "contract IERC20",
						"numberOfBytes": "20"
					},
					"t_mapping(t_address,t_bool)": {
						"encoding": "mapping",
						"key": "t_address",
						"label": "mapping(address => bool)",
						"numberOfBytes": "32",
						"value": "t_bool"
					},
					"t_mapping(t_address,t_mapping(t_uint256,t_struct(Bet)341_storage))": {
						"encoding": "mapping",
						"key": "t_address",
						"label": "mapping(address => mapping(uint256 => struct BetPulse.Bet))",
						"numberOfBytes": "32",
						"value": "t_mapping(t_uint256,t_struct(Bet)341_storage)"
					},
					"t_mapping(t_uint256,t_bool)": {
						"encoding": "mapping",
						"key": "t_uint256",
						"label": "mapping(uint256 => bool)",
						"numberOfBytes": "32",
						"value": "t_bool"
					},
					"t_mapping(t_uint256,t_mapping(t_address,t_bool))": {
						"encoding": "mapping",
						"key": "t_uint256",
						"label": "mapping(uint256 => mapping(address => bool))",
						"numberOfBytes": "32",
						"value": "t_mapping(t_address,t_bool)"
					},
					"t_mapping(t_uint256,t_struct(Bet)341_storage)": {
						"encoding": "mapping",
						"key": "t_uint256",
						"label": "mapping(uint256 => struct BetPulse.Bet)",
						"numberOfBytes": "32",
						"value": "t_struct(Bet)341_storage"
					},
					"t_struct(Bet)341_storage": {
						"encoding": "inplace",
						"label": "struct BetPulse.Bet",
						"members": [
							{
								"astId": 334,
								"contract": "PulseToken.sol:BetPulse",
								"label": "amount",
								"offset": 0,
								"slot": "0",
								"type": "t_uint256"
							},
							{
								"astId": 336,
								"contract": "PulseToken.sol:BetPulse",
								"label": "odds",
								"offset": 0,
								"slot": "1",
								"type": "t_uint256"
							},
							{
								"astId": 338,
								"contract": "PulseToken.sol:BetPulse",
								"label": "resolved",
								"offset": 0,
								"slot": "2",
								"type": "t_bool"
							},
							{
								"astId": 340,
								"contract": "PulseToken.sol:BetPulse",
								"label": "won",
								"offset": 1,
								"slot": "2",
								"type": "t_bool"
							}
						],
						"numberOfBytes": "96"
					},
					"t_uint256": {
						"encoding": "inplace",
						"label": "uint256",
						"numberOfBytes": "32"
					}
				}
			},
			"userdoc": {
				"kind": "user",
				"methods": {},
				"version": 1
			}
		}
	}
}