{
	"PulseToken.sol": {
		"PulseToken": {
			"abi": [
				{
					"inputs": [
						{
							"internalType": "address",
							"name": "initialOwner",
							"type": "address"
						}
					],
					"stateMutability": "nonpayable",
					"type": "constructor"
				},
				{
					"inputs": [
						{
							"internalType": "uint256",
							"name": "increasedSupply",
							"type": "uint256"
						},
						{
							"internalType": "uint256",
							"name": "cap",
							"type": "uint256"
						}
					],
					"name": "ERC20ExceededCap",
					"type": "error"
				},
				{
					"inputs": [
						{
							"internalType": "address",
							"name": "spender",
							"type": "address"
						},
						{
							"internalType": "uint256",
							"name": "allowance",
							"type": "uint256"
						},
						{
							"internalType": "uint256",
							"name": "needed",
							"type": "uint256"
						}
					],
					"name": "ERC20InsufficientAllowance",
					"type": "error"
				},
				{
					"inputs": [
						{
							"internalType": "address",
							"name": "sender",
							"type": "address"
						},
						{
							"internalType": "uint256",
							"name": "balance",
							"type": "uint256"
						},
						{
							"internalType": "uint256",
							"name": "needed",
							"type": "uint256"
						}
					],
					"name": "ERC20InsufficientBalance",
					"type": "error"
				},
				{
					"inputs": [
						{
							"internalType": "address",
							"name": "approver",
							"type": "address"
						}
					],
					"name": "ERC20InvalidApprover",
					"type": "error"
				},
				{
					"inputs": [
						{
							"internalType": "uint256",
							"name": "cap",
							"type": "uint256"
						}
					],
					"name": "ERC20InvalidCap",
					"type": "error"
				},
				{
					"inputs": [
						{
							"internalType": "address",
							"name": "receiver",
							"type": "address"
						}
					],
					"name": "ERC20InvalidReceiver",
					"type": "error"
				},
				{
					"inputs": [
						{
							"internalType": "address",
							"name": "sender",
							"type": "address"
						}
					],
					"name": "ERC20InvalidSender",
					"type": "error"
				},
				{
					"inputs": [
						{
							"internalType": "address",
							"name": "spender",
							"type": "address"
						}
					],
					"name": "ERC20InvalidSpender",
					"type": "error"
				},
				{
					"inputs": [
						{
							"internalType": "address",
							"name": "owner",
							"type": "address"
						}
					],
					"name": "OwnableInvalidOwner",
					"type": "error"
				},
				{
					"inputs": [
						{
							"internalType": "address",
							"name": "account",
							"type": "address"
						}
					],
					"name": "OwnableUnauthorizedAccount",
					"type": "error"
				},
				{
					"anonymous": false,
					"inputs": [
						{
							"indexed": true,
							"internalType": "address",
							"name": "owner",
							"type": "address"
						},
						{
							"indexed": true,
							"internalType": "address",
							"name": "spender",
							"type": "address"
						},
						{
							"indexed": false,
							"internalType": "uint256",
							"name": "value",
							"type": "uint256"
						}
					],
					"name": "Approval",
					"type": "event"
				},
				{
					"anonymous": false,
					"inputs": [
						{
							"indexed": true,
							"internalType": "address",
							"name": "previousOwner",
							"type": "address"
						},
						{
							"indexed": true,
							"internalType": "address",
							"name": "newOwner",
							"type": "address"
						}
					],
					"name": "OwnershipTransferred",
					"type": "event"
				},
				{
					"anonymous": false,
					"inputs": [
						{
							"indexed": false,
							"internalType": "address",
							"name": "account",
							"type": "address"
						}
					],
					"name": "Paused",
					"type": "event"
				},
				{
					"anonymous": false,
					"inputs": [
						{
							"indexed": true,
							"internalType": "address",
							"name": "from",
							"type": "address"
						},
						{
							"indexed": true,
							"internalType": "address",
							"name": "to",
							"type": "address"
						},
						{
							"indexed": false,
							"internalType": "uint256",
							"name": "value",
							"type": "uint256"
						}
					],
					"name": "Transfer",
					"type": "event"
				},
				{
					"anonymous": false,
					"inputs": [
						{
							"indexed": false,
							"internalType": "address",
							"name": "account",
							"type": "address"
						}
					],
					"name": "Unpaused",
					"type": "event"
				},
				{
					"inputs": [
						{
							"internalType": "address",
							"name": "owner",
							"type": "address"
						},
						{
							"internalType": "address",
							"name": "spender",
							"type": "address"
						}
					],
					"name": "allowance",
					"outputs": [
						{
							"internalType": "uint256",
							"name": "",
							"type": "uint256"
						}
					],
					"stateMutability": "view",
					"type": "function"
				},
				{
					"inputs": [
						{
							"internalType": "address",
							"name": "spender",
							"type": "address"
						},
						{
							"internalType": "uint256",
							"name": "value",
							"type": "uint256"
						}
					],
					"name": "approve",
					"outputs": [
						{
							"internalType": "bool",
							"name": "",
							"type": "bool"
						}
					],
					"stateMutability": "nonpayable",
					"type": "function"
				},
				{
					"inputs": [
						{
							"internalType": "address",
							"name": "account",
							"type": "address"
						}
					],
					"name": "balanceOf",
					"outputs": [
						{
							"internalType": "uint256",
							"name": "",
							"type": "uint256"
						}
					],
					"stateMutability": "view",
					"type": "function"
				},
				{
					"inputs": [],
					"name": "cap",
					"outputs": [
						{
							"internalType": "uint256",
							"name": "",
							"type": "uint256"
						}
					],
					"stateMutability": "view",
					"type": "function"
				},
				{
					"inputs": [],
					"name": "decimals",
					"outputs": [
						{
							"internalType": "uint8",
							"name": "",
							"type": "uint8"
						}
					],
					"stateMutability": "view",
					"type": "function"
				},
				{
					"inputs": [],
					"name": "name",
					"outputs": [
						{
							"internalType": "string",
							"name": "",
							"type": "string"
						}
					],
					"stateMutability": "view",
					"type": "function"
				},
				{
					"inputs": [],
					"name": "owner",
					"outputs": [
						{
							"internalType": "address",
							"name": "",
							"type": "address"
						}
					],
					"stateMutability": "view",
					"type": "function"
				},
				{
					"inputs": [],
					"name": "pause",
					"outputs": [],
					"stateMutability": "nonpayable",
					"type": "function"
				},
				{
					"inputs": [],
					"name": "paused",
					"outputs": [
						{
							"internalType": "bool",
							"name": "",
							"type": "bool"
						}
					],
					"stateMutability": "view",
					"type": "function"
				},
				{
					"inputs": [],
					"name": "renounceOwnership",
					"outputs": [],
					"stateMutability": "nonpayable",
					"type": "function"
				},
				{
					"inputs": [],
					"name": "symbol",
					"outputs": [
						{
							"internalType": "string",
							"name": "",
							"type": "string"
						}
					],
					"stateMutability": "view",
					"type": "function"
				},
				{
					"inputs": [],
					"name": "totalSupply",
					"outputs": [
						{
							"internalType": "uint256",
							"name": "",
							"type": "uint256"
						}
					],
					"stateMutability": "view",
					"type": "function"
				},
				{
					"inputs": [
						{
							"internalType": "address",
							"name": "to",
							"type": "address"
						},
						{
							"internalType": "uint256",
							"name": "value",
							"type": "uint256"
						}
					],
					"name": "transfer",
					"outputs": [
						{
							"internalType": "bool",
							"name": "",
							"type": "bool"
						}
					],
					"stateMutability": "nonpayable",
					"type": "function"
				},
				{
					"inputs": [
						{
							"internalType": "address",
							"name": "from",
							"type": "address"
						},
						{
							"internalType": "address",
							"name": "to",
							"type": "address"
						},
						{
							"internalType": "uint256",
							"name": "value",
							"type": "uint256"
						}
					],
					"name": "transferFrom",
					"outputs": [
						{
							"internalType": "bool",
							"name": "",
							"type": "bool"
						}
					],
					"stateMutability": "nonpayable",
					"type": "function"
				},
				{
					"inputs": [
						{
							"internalType": "address",
							"name": "newOwner",
							"type": "address"
						}
					],
					"name": "transferOwnership",
					"outputs": [],
					"stateMutability": "nonpayable",
					"type": "function"
				},
				{
					"inputs": [],
					"name": "unpause",
					"outputs": [],
					"stateMutability": "nonpayable",
					"type": "function"
				}
			],
			"devdoc": {
				"errors": {
					"ERC20ExceededCap(uint256,uint256)": [
						{
							"details": "Total supply cap has been exceeded."
						}
					],
					"ERC20InsufficientAllowance(address,uint256,uint256)": [
						{
							"details": "Indicates a failure with the `spender`’s `allowance`. Used in transfers.",
							"params": {
								"allowance": "Amount of tokens a `spender` is allowed to operate with.",
								"needed": "Minimum amount required to perform a transfer.",
								"spender": "Address that may be allowed to operate on tokens without being their owner."
							}
						}
					],
					"ERC20InsufficientBalance(address,uint256,uint256)": [
						{
							"details": "Indicates an error related to the current `balance` of a `sender`. Used in transfers.",
							"params": {
								"balance": "Current balance for the interacting account.",
								"needed": "Minimum amount required to perform a transfer.",
								"sender": "Address whose tokens are being transferred."
							}
						}
					],
					"ERC20InvalidApprover(address)": [
						{
							"details": "Indicates a failure with the `approver` of a token to be approved. Used in approvals.",
							"params": {
								"approver": "Address initiating an approval operation."
							}
						}
					],
					"ERC20InvalidCap(uint256)": [
						{
							"details": "The supplied cap is not a valid cap."
						}
					],
					"ERC20InvalidReceiver(address)": [
						{
							"details": "Indicates a failure with the token `receiver`. Used in transfers.",
							"params": {
								"receiver": "Address to which tokens are being transferred."
							}
						}
					],
					"ERC20InvalidSender(address)": [
						{
							"details": "Indicates a failure with the token `sender`. Used in transfers.",
							"params": {
								"sender": "Address whose tokens are being transferred."
							}
						}
					],
					"ERC20InvalidSpender(address)": [
						{
							"details": "Indicates a failure with the `spender` to be approved. Used in approvals.",
							"params": {
								"spender": "Address that may be allowed to operate on tokens without being their owner."
							}
						}
					],
					"OwnableInvalidOwner(address)": [
						{
							"details": "The owner is not a valid owner account. (eg. `address(0)`)"
						}
					],
					"OwnableUnauthorizedAccount(address)": [
						{
							"details": "The caller account is not authorized to perform an operation."
						}
					]
				},
				"events": {
					"Approval(address,address,uint256)": {
						"details": "Emitted when the allowance of a `spender` for an `owner` is set by a call to {approve}. `value` is the new allowance."
					},
					"Paused(address)": {
						"details": "Emitted when the pause is triggered by `account`."
					},
					"Transfer(address,address,uint256)": {
						"details": "Emitted when `value` tokens are moved from one account (`from`) to another (`to`). Note that `value` may be zero."
					},
					"Unpaused(address)": {
						"details": "Emitted when the pause is lifted by `account`."
					}
				},
				"kind": "dev",
				"methods": {
					"allowance(address,address)": {
						"details": "See {IERC20-allowance}."
					},
					"approve(address,uint256)": {
						"details": "See {IERC20-approve}. NOTE: If `value` is the maximum `uint256`, the allowance is not updated on `transferFrom`. This is semantically equivalent to an infinite approval. Requirements: - `spender` cannot be the zero address."
					},
					"balanceOf(address)": {
						"details": "See {IERC20-balanceOf}."
					},
					"cap()": {
						"details": "Returns the cap on the token's total supply."
					},
					"decimals()": {
						"details": "Returns the number of decimals used to get its user representation. For example, if `decimals` equals `2`, a balance of `505` tokens should be displayed to a user as `5.05` (`505 / 10 ** 2`). Tokens usually opt for a value of 18, imitating the relationship between Ether and Wei. This is the default value returned by this function, unless it's overridden. NOTE: This information is only used for _display_ purposes: it in no way affects any of the arithmetic of the contract, including {IERC20-balanceOf} and {IERC20-transfer}."
					},
					"name()": {
						"details": "Returns the name of the token."
					},
					"owner()": {
						"details": "Returns the address of the current owner."
					},
					"paused()": {
						"details": "Returns true if the contract is paused, and false otherwise."
					},
					"renounceOwnership()": {
						"details": "Leaves the contract without owner. It will not be possible to call `onlyOwner` functions. Can only be called by the current owner. NOTE: Renouncing ownership will leave the contract without an owner, thereby disabling any functionality that is only available to the owner."
					},
					"symbol()": {
						"details": "Returns the symbol of the token, usually a shorter version of the name."
					},
					"totalSupply()": {
						"details": "See {IERC20-totalSupply}."
					},
					"transfer(address,uint256)": {
						"details": "See {IERC20-transfer}. Requirements: - `to` cannot be the zero address. - the caller must have a balance of at least `value`."
					},
					"transferFrom(address,address,uint256)": {
						"details": "See {IERC20-transferFrom}. Skips emitting an {Approval} event indicating an allowance update. This is not required by the ERC. See {xref-ERC20-_approve-address-address-uint256-bool-}[_approve]. NOTE: Does not update the allowance if the current allowance is the maximum `uint256`. Requirements: - `from` and `to` cannot be the zero address. - `from` must have a balance of at least `value`. - the caller must have allowance for ``from``'s tokens of at least `value`."
					},
					"transferOwnership(address)": {
						"details": "Transfers ownership of the contract to a new account (`newOwner`). Can only be called by the current owner."
					}
				},
				"version": 1
			},
			"evm": {
				"assembly": "    /* \"PulseToken.sol\":297:993  contract PulseToken is ERC20, ERC20Capped, Pausable, Ownable {... */\n  mstore(0x40, 0xa0)\n    /* \"PulseToken.sol\":364:627  constructor(address initialOwner)... */\n  callvalue\n  dup1\n  iszero\n  tag_1\n  jumpi\n  0x00\n  dup1\n  revert\ntag_1:\n  pop\n  mload(0x40)\n  sub(codesize, bytecodeSize)\n  dup1\n  bytecodeSize\n  dup4\n  codecopy\n  dup2\n  dup2\n  add\n  0x40\n  mstore\n  dup2\n  add\n  swap1\n  tag_2\n  swap2\n  swap1\n  tag_3\n  jump\t// in\ntag_2:\n    /* \"PulseToken.sol\":520:532  initialOwner */\n  dup1\n    /* \"PulseToken.sol\":470:480  decimals() */\n  tag_7\n    /* \"PulseToken.sol\":470:478  decimals */\n  shl(0x20, tag_8)\n    /* \"PulseToken.sol\":470:480  decimals() */\n  0x20\n  shr\n  jump\t// in\ntag_7:\n    /* \"PulseToken.sol\":464:466  10 */\n  0x0a\n    /* \"PulseToken.sol\":464:480  10 ** decimals() */\n  tag_9\n  swap2\n  swap1\n  tag_10\n  jump\t// in\ntag_9:\n    /* \"PulseToken.sol\":453:461  21000000 */\n  0x01406f40\n    /* \"PulseToken.sol\":453:480  21000000 * 10 ** decimals() */\n  tag_11\n  swap2\n  swap1\n  tag_12\n  jump\t// in\ntag_11:\n    /* \"@openzeppelin/contracts/token/ERC20/ERC20.sol\":1582:1695  constructor(string memory name_, string memory symbol_) {... */\n  mload(0x40)\n  dup1\n  0x40\n  add\n  0x40\n  mstore\n  dup1\n  0x0a\n  dup2\n  mstore\n  0x20\n  add\n  0x50756c7365546f6b656e00000000000000000000000000000000000000000000\n  dup2\n  mstore\n  pop\n  mload(0x40)\n  dup1\n  0x40\n  add\n  0x40\n  mstore\n  dup1\n  0x03\n  dup2\n  mstore\n  0x20\n  add\n  0x504c530000000000000000000000000000000000000000000000000000000000\n  dup2\n  mstore\n  pop\n    /* \"@openzeppelin/contracts/token/ERC20/ERC20.sol\":1656:1661  name_ */\n  dup2\n    /* \"@openzeppelin/contracts/token/ERC20/ERC20.sol\":1648:1653  _name */\n  0x03\n    /* \"@openzeppelin/contracts/token/ERC20/ERC20.sol\":1648:1661  _name = name_ */\n  swap1\n  dup2\n  tag_16\n  swap2\n  swap1\n  tag_17\n  jump\t// in\ntag_16:\n  pop\n    /* \"@openzeppelin/contracts/token/ERC20/ERC20.sol\":1681:1688  symbol_ */\n  dup1\n    /* \"@openzeppelin/contracts/token/ERC20/ERC20.sol\":1671:1678  _symbol */\n  0x04\n    /* \"@openzeppelin/contracts/token/ERC20/ERC20.sol\":1671:1688  _symbol = symbol_ */\n  swap1\n  dup2\n  tag_18\n  swap2\n  swap1\n  tag_17\n  jump\t// in\ntag_18:\n  pop\n    /* \"@openzeppelin/contracts/token/ERC20/ERC20.sol\":1582:1695  constructor(string memory name_, string memory symbol_) {... */\n  pop\n  pop\n    /* \"@openzeppelin/contracts/token/ERC20/extensions/ERC20Capped.sol\":764:765  0 */\n  0x00\n    /* \"@openzeppelin/contracts/token/ERC20/extensions/ERC20Capped.sol\":756:760  cap_ */\n  dup2\n    /* \"@openzeppelin/contracts/token/ERC20/extensions/ERC20Capped.sol\":756:765  cap_ == 0 */\n  sub\n    /* \"@openzeppelin/contracts/token/ERC20/extensions/ERC20Capped.sol\":752:817  if (cap_ == 0) {... */\n  tag_20\n  jumpi\n    /* \"@openzeppelin/contracts/token/ERC20/extensions/ERC20Capped.sol\":804:805  0 */\n  0x00\n    /* \"@openzeppelin/contracts/token/ERC20/extensions/ERC20Capped.sol\":788:806  ERC20InvalidCap(0) */\n  mload(0x40)\n  0x392e1e2700000000000000000000000000000000000000000000000000000000\n  dup2\n  mstore\n  0x04\n  add\n  tag_21\n  swap2\n  swap1\n  tag_22\n  jump\t// in\ntag_21:\n  mload(0x40)\n  dup1\n  swap2\n  sub\n  swap1\n  revert\n    /* \"@openzeppelin/contracts/token/ERC20/extensions/ERC20Capped.sol\":752:817  if (cap_ == 0) {... */\ntag_20:\n    /* \"@openzeppelin/contracts/token/ERC20/extensions/ERC20Capped.sol\":833:837  cap_ */\n  dup1\n    /* \"@openzeppelin/contracts/token/ERC20/extensions/ERC20Capped.sol\":826:837  _cap = cap_ */\n  0x80\n  dup2\n  dup2\n  mstore\n  pop\n  pop\n    /* \"@openzeppelin/contracts/token/ERC20/extensions/ERC20Capped.sol\":716:844  constructor(uint256 cap_) {... */\n  pop\n    /* \"@openzeppelin/contracts/security/Pausable.sol\":1006:1011  false */\n  0x00\n    /* \"@openzeppelin/contracts/security/Pausable.sol\":996:1003  _paused */\n  0x05\n  0x00\n    /* \"@openzeppelin/contracts/security/Pausable.sol\":996:1011  _paused = false */\n  0x0100\n  exp\n  dup2\n  sload\n  dup2\n  0xff\n  mul\n  not\n  and\n  swap1\n  dup4\n  iszero\n  iszero\n  mul\n  or\n  swap1\n  sstore\n  pop\n    /* \"@openzeppelin/contracts/access/Ownable.sol\":1297:1298  0 */\n  0x00\n    /* \"@openzeppelin/contracts/access/Ownable.sol\":1273:1299  initialOwner == address(0) */\n  0xffffffffffffffffffffffffffffffffffffffff\n  and\n    /* \"@openzeppelin/contracts/access/Ownable.sol\":1273:1285  initialOwner */\n  dup2\n    /* \"@openzeppelin/contracts/access/Ownable.sol\":1273:1299  initialOwner == address(0) */\n  0xffffffffffffffffffffffffffffffffffffffff\n  and\n  sub\n    /* \"@openzeppelin/contracts/access/Ownable.sol\":1269:1364  if (initialOwner == address(0)) {... */\n  tag_25\n  jumpi\n    /* \"@openzeppelin/contracts/access/Ownable.sol\":1350:1351  0 */\n  0x00\n    /* \"@openzeppelin/contracts/access/Ownable.sol\":1322:1353  OwnableInvalidOwner(address(0)) */\n  mload(0x40)\n  0x1e4fbdf700000000000000000000000000000000000000000000000000000000\n  dup2\n  mstore\n  0x04\n  add\n  tag_26\n  swap2\n  swap1\n  tag_27\n  jump\t// in\ntag_26:\n  mload(0x40)\n  dup1\n  swap2\n  sub\n  swap1\n  revert\n    /* \"@openzeppelin/contracts/access/Ownable.sol\":1269:1364  if (initialOwner == address(0)) {... */\ntag_25:\n    /* \"@openzeppelin/contracts/access/Ownable.sol\":1373:1405  _transferOwnership(initialOwner) */\n  tag_28\n    /* \"@openzeppelin/contracts/access/Ownable.sol\":1392:1404  initialOwner */\n  dup2\n    /* \"@openzeppelin/contracts/access/Ownable.sol\":1373:1391  _transferOwnership */\n  shl(0x20, tag_29)\n    /* \"@openzeppelin/contracts/access/Ownable.sol\":1373:1405  _transferOwnership(initialOwner) */\n  0x20\n  shr\n  jump\t// in\ntag_28:\n    /* \"@openzeppelin/contracts/access/Ownable.sol\":1225:1412  constructor(address initialOwner) {... */\n  pop\n    /* \"PulseToken.sol\":548:595  _mint(initialOwner, 1000000 * 10 ** decimals()) */\n  tag_31\n    /* \"PulseToken.sol\":554:566  initialOwner */\n  dup2\n    /* \"PulseToken.sol\":584:594  decimals() */\n  tag_32\n    /* \"PulseToken.sol\":584:592  decimals */\n  shl(0x20, tag_8)\n    /* \"PulseToken.sol\":584:594  decimals() */\n  0x20\n  shr\n  jump\t// in\ntag_32:\n    /* \"PulseToken.sol\":578:580  10 */\n  0x0a\n    /* \"PulseToken.sol\":578:594  10 ** decimals() */\n  tag_33\n  swap2\n  swap1\n  tag_10\n  jump\t// in\ntag_33:\n    /* \"PulseToken.sol\":568:575  1000000 */\n  0x0f4240\n    /* \"PulseToken.sol\":568:594  1000000 * 10 ** decimals() */\n  tag_34\n  swap2\n  swap1\n  tag_12\n  jump\t// in\ntag_34:\n    /* \"PulseToken.sol\":548:553  _mint */\n  shl(0x20, tag_35)\n    /* \"PulseToken.sol\":548:595  _mint(initialOwner, 1000000 * 10 ** decimals()) */\n  0x20\n  shr\n  jump\t// in\ntag_31:\n    /* \"PulseToken.sol\":364:627  constructor(address initialOwner)... */\n  pop\n    /* \"PulseToken.sol\":297:993  contract PulseToken is ERC20, ERC20Capped, Pausable, Ownable {... */\n  jump(tag_36)\n    /* \"@openzeppelin/contracts/token/ERC20/ERC20.sol\":2688:2770  function decimals() public view virtual returns (uint8) {... */\ntag_8:\n    /* \"@openzeppelin/contracts/token/ERC20/ERC20.sol\":2737:2742  uint8 */\n  0x00\n    /* \"@openzeppelin/contracts/token/ERC20/ERC20.sol\":2761:2763  18 */\n  0x12\n    /* \"@openzeppelin/contracts/token/ERC20/ERC20.sol\":2754:2763  return 18 */\n  swap1\n  pop\n    /* \"@openzeppelin/contracts/token/ERC20/ERC20.sol\":2688:2770  function decimals() public view virtual returns (uint8) {... */\n  swap1\n  jump\t// out\n    /* \"@openzeppelin/contracts/access/Ownable.sol\":2912:3099  function _transferOwnership(address newOwner) internal virtual {... */\ntag_29:\n    /* \"@openzeppelin/contracts/access/Ownable.sol\":2985:3001  address oldOwner */\n  0x00\n    /* \"@openzeppelin/contracts/access/Ownable.sol\":3004:3010  _owner */\n  0x05\n  0x01\n  swap1\n  sload\n  swap1\n  0x0100\n  exp\n  swap1\n  div\n  0xffffffffffffffffffffffffffffffffffffffff\n  and\n    /* \"@openzeppelin/contracts/access/Ownable.sol\":2985:3010  address oldOwner = _owner */\n  swap1\n  pop\n    /* \"@openzeppelin/contracts/access/Ownable.sol\":3029:3037  newOwner */\n  dup2\n    /* \"@openzeppelin/contracts/access/Ownable.sol\":3020:3026  _owner */\n  0x05\n  0x01\n    /* \"@openzeppelin/contracts/access/Ownable.sol\":3020:3037  _owner = newOwner */\n  0x0100\n  exp\n  dup2\n  sload\n  dup2\n  0xffffffffffffffffffffffffffffffffffffffff\n  mul\n  not\n  and\n  swap1\n  dup4\n  0xffffffffffffffffffffffffffffffffffffffff\n  and\n  mul\n  or\n  swap1\n  sstore\n  pop\n    /* \"@openzeppelin/contracts/access/Ownable.sol\":3083:3091  newOwner */\n  dup2\n    /* \"@openzeppelin/contracts/access/Ownable.sol\":3052:3092  OwnershipTransferred(oldOwner, newOwner) */\n  0xffffffffffffffffffffffffffffffffffffffff\n  and\n    /* \"@openzeppelin/contracts/access/Ownable.sol\":3073:3081  oldOwner */\n  dup2\n    /* \"@openzeppelin/contracts/access/Ownable.sol\":3052:3092  OwnershipTransferred(oldOwner, newOwner) */\n  0xffffffffffffffffffffffffffffffffffffffff\n  and\n  0x8be0079c531659141344cd1fd0a4f28419497f9722a3daafe3b4186f6b6457e0\n  mload(0x40)\n  mload(0x40)\n  dup1\n  swap2\n  sub\n  swap1\n  log3\n    /* \"@openzeppelin/contracts/access/Ownable.sol\":2975:3099  {... */\n  pop\n    /* \"@openzeppelin/contracts/access/Ownable.sol\":2912:3099  function _transferOwnership(address newOwner) internal virtual {... */\n  pop\n  jump\t// out\n    /* \"@openzeppelin/contracts/token/ERC20/ERC20.sol\":7439:7647  function _mint(address account, uint256 value) internal {... */\ntag_35:\n    /* \"@openzeppelin/contracts/token/ERC20/ERC20.sol\":7528:7529  0 */\n  0x00\n    /* \"@openzeppelin/contracts/token/ERC20/ERC20.sol\":7509:7530  account == address(0) */\n  0xffffffffffffffffffffffffffffffffffffffff\n  and\n    /* \"@openzeppelin/contracts/token/ERC20/ERC20.sol\":7509:7516  account */\n  dup3\n    /* \"@openzeppelin/contracts/token/ERC20/ERC20.sol\":7509:7530  account == address(0) */\n  0xffffffffffffffffffffffffffffffffffffffff\n  and\n  sub\n    /* \"@openzeppelin/contracts/token/ERC20/ERC20.sol\":7505:7596  if (account == address(0)) {... */\n  tag_40\n  jumpi\n    /* \"@openzeppelin/contracts/token/ERC20/ERC20.sol\":7582:7583  0 */\n  0x00\n    /* \"@openzeppelin/contracts/token/ERC20/ERC20.sol\":7553:7585  ERC20InvalidReceiver(address(0)) */\n  mload(0x40)\n  0xec442f0500000000000000000000000000000000000000000000000000000000\n  dup2\n  mstore\n  0x04\n  add\n  tag_41\n  swap2\n  swap1\n  tag_27\n  jump\t// in\ntag_41:\n  mload(0x40)\n  dup1\n  swap2\n  sub\n  swap1\n  revert\n    /* \"@openzeppelin/contracts/token/ERC20/ERC20.sol\":7505:7596  if (account == address(0)) {... */\ntag_40:\n    /* \"@openzeppelin/contracts/token/ERC20/ERC20.sol\":7605:7640  _update(address(0), account, value) */\n  tag_42\n    /* \"@openzeppelin/contracts/token/ERC20/ERC20.sol\":7621:7622  0 */\n  0x00\n    /* \"@openzeppelin/contracts/token/ERC20/ERC20.sol\":7625:7632  account */\n  dup4\n    /* \"@openzeppelin/contracts/token/ERC20/ERC20.sol\":7634:7639  value */\n  dup4\n    /* \"@openzeppelin/contracts/token/ERC20/ERC20.sol\":7605:7612  _update */\n  shl(0x20, tag_43)\n    /* \"@openzeppelin/contracts/token/ERC20/ERC20.sol\":7605:7640  _update(address(0), account, value) */\n  0x20\n  shr\n  jump\t// in\ntag_42:\n    /* \"@openzeppelin/contracts/token/ERC20/ERC20.sol\":7439:7647  function _mint(address account, uint256 value) internal {... */\n  pop\n  pop\n  jump\t// out\n    /* \"PulseToken.sol\":771:991  function _update(address from, address to, uint256 amount)... */\ntag_43:\n    /* \"PulseToken.sol\":907:915  paused() */\n  tag_45\n    /* \"PulseToken.sol\":907:913  paused */\n  shl(0x20, tag_46)\n    /* \"PulseToken.sol\":907:915  paused() */\n  0x20\n  shr\n  jump\t// in\ntag_45:\n    /* \"PulseToken.sol\":906:915  !paused() */\n  iszero\n    /* \"PulseToken.sol\":898:943  require(!paused(), \"Transferencias pausadas\") */\n  tag_47\n  jumpi\n  mload(0x40)\n  0x08c379a000000000000000000000000000000000000000000000000000000000\n  dup2\n  mstore\n  0x04\n  add\n  tag_48\n  swap1\n  tag_49\n  jump\t// in\ntag_48:\n  mload(0x40)\n  dup1\n  swap2\n  sub\n  swap1\n  revert\ntag_47:\n    /* \"PulseToken.sol\":953:984  super._update(from, to, amount) */\n  tag_50\n    /* \"PulseToken.sol\":967:971  from */\n  dup4\n    /* \"PulseToken.sol\":973:975  to */\n  dup4\n    /* \"PulseToken.sol\":977:983  amount */\n  dup4\n    /* \"PulseToken.sol\":953:966  super._update */\n  shl(0x20, tag_51)\n    /* \"PulseToken.sol\":953:984  super._update(from, to, amount) */\n  0x20\n  shr\n  jump\t// in\ntag_50:\n    /* \"PulseToken.sol\":771:991  function _update(address from, address to, uint256 amount)... */\n  pop\n  pop\n  pop\n  jump\t// out\n    /* \"@openzeppelin/contracts/security/Pausable.sol\":1615:1699  function paused() public view virtual returns (bool) {... */\ntag_46:\n    /* \"@openzeppelin/contracts/security/Pausable.sol\":1662:1666  bool */\n  0x00\n    /* \"@openzeppelin/contracts/security/Pausable.sol\":1685:1692  _paused */\n  0x05\n  0x00\n  swap1\n  sload\n  swap1\n  0x0100\n  exp\n  swap1\n  div\n  0xff\n  and\n    /* \"@openzeppelin/contracts/security/Pausable.sol\":1678:1692  return _paused */\n  swap1\n  pop\n    /* \"@openzeppelin/contracts/security/Pausable.sol\":1615:1699  function paused() public view virtual returns (bool) {... */\n  swap1\n  jump\t// out\n    /* \"@openzeppelin/contracts/token/ERC20/extensions/ERC20Capped.sol\":1059:1430  function _update(address from, address to, uint256 value) internal virtual override {... */\ntag_51:\n    /* \"@openzeppelin/contracts/token/ERC20/extensions/ERC20Capped.sol\":1153:1183  super._update(from, to, value) */\n  tag_54\n    /* \"@openzeppelin/contracts/token/ERC20/extensions/ERC20Capped.sol\":1167:1171  from */\n  dup4\n    /* \"@openzeppelin/contracts/token/ERC20/extensions/ERC20Capped.sol\":1173:1175  to */\n  dup4\n    /* \"@openzeppelin/contracts/token/ERC20/extensions/ERC20Capped.sol\":1177:1182  value */\n  dup4\n    /* \"@openzeppelin/contracts/token/ERC20/extensions/ERC20Capped.sol\":1153:1166  super._update */\n  shl(0x20, tag_55)\n    /* \"@openzeppelin/contracts/token/ERC20/extensions/ERC20Capped.sol\":1153:1183  super._update(from, to, value) */\n  0x20\n  shr\n  jump\t// in\ntag_54:\n    /* \"@openzeppelin/contracts/token/ERC20/extensions/ERC20Capped.sol\":1214:1215  0 */\n  0x00\n    /* \"@openzeppelin/contracts/token/ERC20/extensions/ERC20Capped.sol\":1198:1216  from == address(0) */\n  0xffffffffffffffffffffffffffffffffffffffff\n  and\n    /* \"@openzeppelin/contracts/token/ERC20/extensions/ERC20Capped.sol\":1198:1202  from */\n  dup4\n    /* \"@openzeppelin/contracts/token/ERC20/extensions/ERC20Capped.sol\":1198:1216  from == address(0) */\n  0xffffffffffffffffffffffffffffffffffffffff\n  and\n  sub\n    /* \"@openzeppelin/contracts/token/ERC20/extensions/ERC20Capped.sol\":1194:1424  if (from == address(0)) {... */\n  tag_56\n  jumpi\n    /* \"@openzeppelin/contracts/token/ERC20/extensions/ERC20Capped.sol\":1232:1249  uint256 maxSupply */\n  0x00\n    /* \"@openzeppelin/contracts/token/ERC20/extensions/ERC20Capped.sol\":1252:1257  cap() */\n  tag_57\n    /* \"@openzeppelin/contracts/token/ERC20/extensions/ERC20Capped.sol\":1252:1255  cap */\n  shl(0x20, tag_58)\n    /* \"@openzeppelin/contracts/token/ERC20/extensions/ERC20Capped.sol\":1252:1257  cap() */\n  0x20\n  shr\n  jump\t// in\ntag_57:\n    /* \"@openzeppelin/contracts/token/ERC20/extensions/ERC20Capped.sol\":1232:1257  uint256 maxSupply = cap() */\n  swap1\n  pop\n    /* \"@openzeppelin/contracts/token/ERC20/extensions/ERC20Capped.sol\":1271:1285  uint256 supply */\n  0x00\n    /* \"@openzeppelin/contracts/token/ERC20/extensions/ERC20Capped.sol\":1288:1301  totalSupply() */\n  tag_59\n    /* \"@openzeppelin/contracts/token/ERC20/extensions/ERC20Capped.sol\":1288:1299  totalSupply */\n  shl(0x20, tag_60)\n    /* \"@openzeppelin/contracts/token/ERC20/extensions/ERC20Capped.sol\":1288:1301  totalSupply() */\n  0x20\n  shr\n  jump\t// in\ntag_59:\n    /* \"@openzeppelin/contracts/token/ERC20/extensions/ERC20Capped.sol\":1271:1301  uint256 supply = totalSupply() */\n  swap1\n  pop\n    /* \"@openzeppelin/contracts/token/ERC20/extensions/ERC20Capped.sol\":1328:1337  maxSupply */\n  dup2\n    /* \"@openzeppelin/contracts/token/ERC20/extensions/ERC20Capped.sol\":1319:1325  supply */\n  dup2\n    /* \"@openzeppelin/contracts/token/ERC20/extensions/ERC20Capped.sol\":1319:1337  supply > maxSupply */\n  gt\n    /* \"@openzeppelin/contracts/token/ERC20/extensions/ERC20Capped.sol\":1315:1414  if (supply > maxSupply) {... */\n  iszero\n  tag_61\n  jumpi\n    /* \"@openzeppelin/contracts/token/ERC20/extensions/ERC20Capped.sol\":1381:1387  supply */\n  dup1\n    /* \"@openzeppelin/contracts/token/ERC20/extensions/ERC20Capped.sol\":1389:1398  maxSupply */\n  dup3\n    /* \"@openzeppelin/contracts/token/ERC20/extensions/ERC20Capped.sol\":1364:1399  ERC20ExceededCap(supply, maxSupply) */\n  mload(0x40)\n  0x9e79f85400000000000000000000000000000000000000000000000000000000\n  dup2\n  mstore\n  0x04\n  add\n  tag_62\n  swap3\n  swap2\n  swap1\n  tag_63\n  jump\t// in\ntag_62:\n  mload(0x40)\n  dup1\n  swap2\n  sub\n  swap1\n  revert\n    /* \"@openzeppelin/contracts/token/ERC20/extensions/ERC20Capped.sol\":1315:1414  if (supply > maxSupply) {... */\ntag_61:\n    /* \"@openzeppelin/contracts/token/ERC20/extensions/ERC20Capped.sol\":1218:1424  {... */\n  pop\n  pop\n    /* \"@openzeppelin/contracts/token/ERC20/extensions/ERC20Capped.sol\":1194:1424  if (from == address(0)) {... */\ntag_56:\n    /* \"@openzeppelin/contracts/token/ERC20/extensions/ERC20Capped.sol\":1059:1430  function _update(address from, address to, uint256 value) internal virtual override {... */\n  pop\n  pop\n  pop\n  jump\t// out\n    /* \"@openzeppelin/contracts/token/ERC20/ERC20.sol\":5989:7096  function _update(address from, address to, uint256 value) internal virtual {... */\ntag_55:\n    /* \"@openzeppelin/contracts/token/ERC20/ERC20.sol\":6094:6095  0 */\n  0x00\n    /* \"@openzeppelin/contracts/token/ERC20/ERC20.sol\":6078:6096  from == address(0) */\n  0xffffffffffffffffffffffffffffffffffffffff\n  and\n    /* \"@openzeppelin/contracts/token/ERC20/ERC20.sol\":6078:6082  from */\n  dup4\n    /* \"@openzeppelin/contracts/token/ERC20/ERC20.sol\":6078:6096  from == address(0) */\n  0xffffffffffffffffffffffffffffffffffffffff\n  and\n  sub\n    /* \"@openzeppelin/contracts/token/ERC20/ERC20.sol\":6074:6614  if (from == address(0)) {... */\n  tag_65\n  jumpi\n    /* \"@openzeppelin/contracts/token/ERC20/ERC20.sol\":6230:6235  value */\n  dup1\n    /* \"@openzeppelin/contracts/token/ERC20/ERC20.sol\":6214:6226  _totalSupply */\n  0x02\n  0x00\n    /* \"@openzeppelin/contracts/token/ERC20/ERC20.sol\":6214:6235  _totalSupply += value */\n  dup3\n  dup3\n  sload\n  tag_66\n  swap2\n  swap1\n  tag_67\n  jump\t// in\ntag_66:\n  swap3\n  pop\n  pop\n  dup2\n  swap1\n  sstore\n  pop\n    /* \"@openzeppelin/contracts/token/ERC20/ERC20.sol\":6074:6614  if (from == address(0)) {... */\n  jump(tag_68)\ntag_65:\n    /* \"@openzeppelin/contracts/token/ERC20/ERC20.sol\":6266:6285  uint256 fromBalance */\n  0x00\n    /* \"@openzeppelin/contracts/token/ERC20/ERC20.sol\":6288:6297  _balances */\n  dup1\n    /* \"@openzeppelin/contracts/token/ERC20/ERC20.sol\":6288:6303  _balances[from] */\n  0x00\n    /* \"@openzeppelin/contracts/token/ERC20/ERC20.sol\":6298:6302  from */\n  dup6\n    /* \"@openzeppelin/contracts/token/ERC20/ERC20.sol\":6288:6303  _balances[from] */\n  0xffffffffffffffffffffffffffffffffffffffff\n  and\n  0xffffffffffffffffffffffffffffffffffffffff\n  and\n  dup2\n  mstore\n  0x20\n  add\n  swap1\n  dup2\n  mstore\n  0x20\n  add\n  0x00\n  keccak256\n  sload\n    /* \"@openzeppelin/contracts/token/ERC20/ERC20.sol\":6266:6303  uint256 fromBalance = _balances[from] */\n  swap1\n  pop\n    /* \"@openzeppelin/contracts/token/ERC20/ERC20.sol\":6335:6340  value */\n  dup2\n    /* \"@openzeppelin/contracts/token/ERC20/ERC20.sol\":6321:6332  fromBalance */\n  dup2\n    /* \"@openzeppelin/contracts/token/ERC20/ERC20.sol\":6321:6340  fromBalance < value */\n  lt\n    /* \"@openzeppelin/contracts/token/ERC20/ERC20.sol\":6317:6432  if (fromBalance < value) {... */\n  iszero\n  tag_69\n  jumpi\n    /* \"@openzeppelin/contracts/token/ERC20/ERC20.sol\":6392:6396  from */\n  dup4\n    /* \"@openzeppelin/contracts/token/ERC20/ERC20.sol\":6398:6409  fromBalance */\n  dup2\n    /* \"@openzeppelin/contracts/token/ERC20/ERC20.sol\":6411:6416  value */\n  dup4\n    /* \"@openzeppelin/contracts/token/ERC20/ERC20.sol\":6367:6417  ERC20InsufficientBalance(from, fromBalance, value) */\n  mload(0x40)\n  0xe450d38c00000000000000000000000000000000000000000000000000000000\n  dup2\n  mstore\n  0x04\n  add\n  tag_70\n  swap4\n  swap3\n  swap2\n  swap1\n  tag_71\n  jump\t// in\ntag_70:\n  mload(0x40)\n  dup1\n  swap2\n  sub\n  swap1\n  revert\n    /* \"@openzeppelin/contracts/token/ERC20/ERC20.sol\":6317:6432  if (fromBalance < value) {... */\ntag_69:\n    /* \"@openzeppelin/contracts/token/ERC20/ERC20.sol\":6584:6589  value */\n  dup2\n    /* \"@openzeppelin/contracts/token/ERC20/ERC20.sol\":6570:6581  fromBalance */\n  dup2\n    /* \"@openzeppelin/contracts/token/ERC20/ERC20.sol\":6570:6589  fromBalance - value */\n  sub\n    /* \"@openzeppelin/contracts/token/ERC20/ERC20.sol\":6552:6561  _balances */\n  0x00\n    /* \"@openzeppelin/contracts/token/ERC20/ERC20.sol\":6552:6567  _balances[from] */\n  dup1\n    /* \"@openzeppelin/contracts/token/ERC20/ERC20.sol\":6562:6566  from */\n  dup7\n    /* \"@openzeppelin/contracts/token/ERC20/ERC20.sol\":6552:6567  _balances[from] */\n  0xffffffffffffffffffffffffffffffffffffffff\n  and\n  0xffffffffffffffffffffffffffffffffffffffff\n  and\n  dup2\n  mstore\n  0x20\n  add\n  swap1\n  dup2\n  mstore\n  0x20\n  add\n  0x00\n  keccak256\n    /* \"@openzeppelin/contracts/token/ERC20/ERC20.sol\":6552:6589  _balances[from] = fromBalance - value */\n  dup2\n  swap1\n  sstore\n  pop\n    /* \"@openzeppelin/contracts/token/ERC20/ERC20.sol\":6252:6614  {... */\n  pop\n    /* \"@openzeppelin/contracts/token/ERC20/ERC20.sol\":6074:6614  if (from == address(0)) {... */\ntag_68:\n    /* \"@openzeppelin/contracts/token/ERC20/ERC20.sol\":6642:6643  0 */\n  0x00\n    /* \"@openzeppelin/contracts/token/ERC20/ERC20.sol\":6628:6644  to == address(0) */\n  0xffffffffffffffffffffffffffffffffffffffff\n  and\n    /* \"@openzeppelin/contracts/token/ERC20/ERC20.sol\":6628:6630  to */\n  dup3\n    /* \"@openzeppelin/contracts/token/ERC20/ERC20.sol\":6628:6644  to == address(0) */\n  0xffffffffffffffffffffffffffffffffffffffff\n  and\n  sub\n    /* \"@openzeppelin/contracts/token/ERC20/ERC20.sol\":6624:7049  if (to == address(0)) {... */\n  tag_72\n  jumpi\n    /* \"@openzeppelin/contracts/token/ERC20/ERC20.sol\":6807:6812  value */\n  dup1\n    /* \"@openzeppelin/contracts/token/ERC20/ERC20.sol\":6791:6803  _totalSupply */\n  0x02\n  0x00\n    /* \"@openzeppelin/contracts/token/ERC20/ERC20.sol\":6791:6812  _totalSupply -= value */\n  dup3\n  dup3\n  sload\n  sub\n  swap3\n  pop\n  pop\n  dup2\n  swap1\n  sstore\n  pop\n    /* \"@openzeppelin/contracts/token/ERC20/ERC20.sol\":6624:7049  if (to == address(0)) {... */\n  jump(tag_73)\ntag_72:\n    /* \"@openzeppelin/contracts/token/ERC20/ERC20.sol\":7019:7024  value */\n  dup1\n    /* \"@openzeppelin/contracts/token/ERC20/ERC20.sol\":7002:7011  _balances */\n  0x00\n    /* \"@openzeppelin/contracts/token/ERC20/ERC20.sol\":7002:7015  _balances[to] */\n  dup1\n    /* \"@openzeppelin/contracts/token/ERC20/ERC20.sol\":7012:7014  to */\n  dup5\n    /* \"@openzeppelin/contracts/token/ERC20/ERC20.sol\":7002:7015  _balances[to] */\n  0xffffffffffffffffffffffffffffffffffffffff\n  and\n  0xffffffffffffffffffffffffffffffffffffffff\n  and\n  dup2\n  mstore\n  0x20\n  add\n  swap1\n  dup2\n  mstore\n  0x20\n  add\n  0x00\n  keccak256\n  0x00\n    /* \"@openzeppelin/contracts/token/ERC20/ERC20.sol\":7002:7024  _balances[to] += value */\n  dup3\n  dup3\n  sload\n  add\n  swap3\n  pop\n  pop\n  dup2\n  swap1\n  sstore\n  pop\n    /* \"@openzeppelin/contracts/token/ERC20/ERC20.sol\":6624:7049  if (to == address(0)) {... */\ntag_73:\n    /* \"@openzeppelin/contracts/token/ERC20/ERC20.sol\":7079:7081  to */\n  dup2\n    /* \"@openzeppelin/contracts/token/ERC20/ERC20.sol\":7064:7089  Transfer(from, to, value) */\n  0xffffffffffffffffffffffffffffffffffffffff\n  and\n    /* \"@openzeppelin/contracts/token/ERC20/ERC20.sol\":7073:7077  from */\n  dup4\n    /* \"@openzeppelin/contracts/token/ERC20/ERC20.sol\":7064:7089  Transfer(from, to, value) */\n  0xffffffffffffffffffffffffffffffffffffffff\n  and\n  0xddf252ad1be2c89b69c2b068fc378daa952ba7f163c4a11628f55a4df523b3ef\n    /* \"@openzeppelin/contracts/token/ERC20/ERC20.sol\":7083:7088  value */\n  dup4\n    /* \"@openzeppelin/contracts/token/ERC20/ERC20.sol\":7064:7089  Transfer(from, to, value) */\n  mload(0x40)\n  tag_74\n  swap2\n  swap1\n  tag_75\n  jump\t// in\ntag_74:\n  mload(0x40)\n  dup1\n  swap2\n  sub\n  swap1\n  log3\n    /* \"@openzeppelin/contracts/token/ERC20/ERC20.sol\":5989:7096  function _update(address from, address to, uint256 value) internal virtual {... */\n  pop\n  pop\n  pop\n  jump\t// out\n    /* \"@openzeppelin/contracts/token/ERC20/extensions/ERC20Capped.sol\":923:1004  function cap() public view virtual returns (uint256) {... */\ntag_58:\n    /* \"@openzeppelin/contracts/token/ERC20/extensions/ERC20Capped.sol\":967:974  uint256 */\n  0x00\n    /* \"@openzeppelin/contracts/token/ERC20/extensions/ERC20Capped.sol\":993:997  _cap */\n  mload(0x80)\n    /* \"@openzeppelin/contracts/token/ERC20/extensions/ERC20Capped.sol\":986:997  return _cap */\n  swap1\n  pop\n    /* \"@openzeppelin/contracts/token/ERC20/extensions/ERC20Capped.sol\":923:1004  function cap() public view virtual returns (uint256) {... */\n  swap1\n  jump\t// out\n    /* \"@openzeppelin/contracts/token/ERC20/ERC20.sol\":2830:2927  function totalSupply() public view virtual returns (uint256) {... */\ntag_60:\n    /* \"@openzeppelin/contracts/token/ERC20/ERC20.sol\":2882:2889  uint256 */\n  0x00\n    /* \"@openzeppelin/contracts/token/ERC20/ERC20.sol\":2908:2920  _totalSupply */\n  sload(0x02)\n    /* \"@openzeppelin/contracts/token/ERC20/ERC20.sol\":2901:2920  return _totalSupply */\n  swap1\n  pop\n    /* \"@openzeppelin/contracts/token/ERC20/ERC20.sol\":2830:2927  function totalSupply() public view virtual returns (uint256) {... */\n  swap1\n  jump\t// out\n    /* \"#utility.yul\":88:205   */\ntag_79:\n    /* \"#utility.yul\":197:198   */\n  0x00\n    /* \"#utility.yul\":194:195   */\n  dup1\n    /* \"#utility.yul\":187:199   */\n  revert\n    /* \"#utility.yul\":334:460   */\ntag_81:\n    /* \"#utility.yul\":371:378   */\n  0x00\n    /* \"#utility.yul\":411:453   */\n  0xffffffffffffffffffffffffffffffffffffffff\n    /* \"#utility.yul\":404:409   */\n  dup3\n    /* \"#utility.yul\":400:454   */\n  and\n    /* \"#utility.yul\":389:454   */\n  swap1\n  pop\n    /* \"#utility.yul\":334:460   */\n  swap2\n  swap1\n  pop\n  jump\t// out\n    /* \"#utility.yul\":466:562   */\ntag_82:\n    /* \"#utility.yul\":503:510   */\n  0x00\n    /* \"#utility.yul\":532:556   */\n  tag_124\n    /* \"#utility.yul\":550:555   */\n  dup3\n    /* \"#utility.yul\":532:556   */\n  tag_81\n  jump\t// in\ntag_124:\n    /* \"#utility.yul\":521:556   */\n  swap1\n  pop\n    /* \"#utility.yul\":466:562   */\n  swap2\n  swap1\n  pop\n  jump\t// out\n    /* \"#utility.yul\":568:690   */\ntag_83:\n    /* \"#utility.yul\":641:665   */\n  tag_126\n    /* \"#utility.yul\":659:664   */\n  dup2\n    /* \"#utility.yul\":641:665   */\n  tag_82\n  jump\t// in\ntag_126:\n    /* \"#utility.yul\":634:639   */\n  dup2\n    /* \"#utility.yul\":631:666   */\n  eq\n    /* \"#utility.yul\":621:684   */\n  tag_127\n  jumpi\n    /* \"#utility.yul\":680:681   */\n  0x00\n    /* \"#utility.yul\":677:678   */\n  dup1\n    /* \"#utility.yul\":670:682   */\n  revert\n    /* \"#utility.yul\":621:684   */\ntag_127:\n    /* \"#utility.yul\":568:690   */\n  pop\n  jump\t// out\n    /* \"#utility.yul\":696:839   */\ntag_84:\n    /* \"#utility.yul\":753:758   */\n  0x00\n    /* \"#utility.yul\":784:790   */\n  dup2\n    /* \"#utility.yul\":778:791   */\n  mload\n    /* \"#utility.yul\":769:791   */\n  swap1\n  pop\n    /* \"#utility.yul\":800:833   */\n  tag_129\n    /* \"#utility.yul\":827:832   */\n  dup2\n    /* \"#utility.yul\":800:833   */\n  tag_83\n  jump\t// in\ntag_129:\n    /* \"#utility.yul\":696:839   */\n  swap3\n  swap2\n  pop\n  pop\n  jump\t// out\n    /* \"#utility.yul\":845:1196   */\ntag_3:\n    /* \"#utility.yul\":915:921   */\n  0x00\n    /* \"#utility.yul\":964:966   */\n  0x20\n    /* \"#utility.yul\":952:961   */\n  dup3\n    /* \"#utility.yul\":943:950   */\n  dup5\n    /* \"#utility.yul\":939:962   */\n  sub\n    /* \"#utility.yul\":935:967   */\n  slt\n    /* \"#utility.yul\":932:1051   */\n  iszero\n  tag_131\n  jumpi\n    /* \"#utility.yul\":970:1049   */\n  tag_132\n  tag_79\n  jump\t// in\ntag_132:\n    /* \"#utility.yul\":932:1051   */\ntag_131:\n    /* \"#utility.yul\":1090:1091   */\n  0x00\n    /* \"#utility.yul\":1115:1179   */\n  tag_133\n    /* \"#utility.yul\":1171:1178   */\n  dup5\n    /* \"#utility.yul\":1162:1168   */\n  dup3\n    /* \"#utility.yul\":1151:1160   */\n  dup6\n    /* \"#utility.yul\":1147:1169   */\n  add\n    /* \"#utility.yul\":1115:1179   */\n  tag_84\n  jump\t// in\ntag_133:\n    /* \"#utility.yul\":1105:1179   */\n  swap2\n  pop\n    /* \"#utility.yul\":1061:1189   */\n  pop\n    /* \"#utility.yul\":845:1196   */\n  swap3\n  swap2\n  pop\n  pop\n  jump\t// out\n    /* \"#utility.yul\":1202:1382   */\ntag_85:\n    /* \"#utility.yul\":1250:1327   */\n  0x4e487b7100000000000000000000000000000000000000000000000000000000\n    /* \"#utility.yul\":1247:1248   */\n  0x00\n    /* \"#utility.yul\":1240:1328   */\n  mstore\n    /* \"#utility.yul\":1347:1351   */\n  0x11\n    /* \"#utility.yul\":1344:1345   */\n  0x04\n    /* \"#utility.yul\":1337:1352   */\n  mstore\n    /* \"#utility.yul\":1371:1375   */\n  0x24\n    /* \"#utility.yul\":1368:1369   */\n  0x00\n    /* \"#utility.yul\":1361:1376   */\n  revert\n    /* \"#utility.yul\":1388:1490   */\ntag_86:\n    /* \"#utility.yul\":1430:1438   */\n  0x00\n    /* \"#utility.yul\":1477:1482   */\n  dup2\n    /* \"#utility.yul\":1474:1475   */\n  0x01\n    /* \"#utility.yul\":1470:1483   */\n  shr\n    /* \"#utility.yul\":1449:1483   */\n  swap1\n  pop\n    /* \"#utility.yul\":1388:1490   */\n  swap2\n  swap1\n  pop\n  jump\t// out\n    /* \"#utility.yul\":1496:2344   */\ntag_87:\n    /* \"#utility.yul\":1557:1562   */\n  0x00\n    /* \"#utility.yul\":1564:1568   */\n  dup1\n    /* \"#utility.yul\":1588:1594   */\n  dup3\n    /* \"#utility.yul\":1579:1594   */\n  swap2\n  pop\n    /* \"#utility.yul\":1612:1617   */\n  dup4\n    /* \"#utility.yul\":1603:1617   */\n  swap1\n  pop\n    /* \"#utility.yul\":1626:2338   */\ntag_137:\n    /* \"#utility.yul\":1647:1648   */\n  0x01\n    /* \"#utility.yul\":1637:1645   */\n  dup6\n    /* \"#utility.yul\":1634:1649   */\n  gt\n    /* \"#utility.yul\":1626:2338   */\n  iszero\n  tag_139\n  jumpi\n    /* \"#utility.yul\":1742:1746   */\n  dup1\n    /* \"#utility.yul\":1737:1740   */\n  dup7\n    /* \"#utility.yul\":1733:1747   */\n  div\n    /* \"#utility.yul\":1727:1731   */\n  dup2\n    /* \"#utility.yul\":1724:1748   */\n  gt\n    /* \"#utility.yul\":1721:1771   */\n  iszero\n  tag_140\n  jumpi\n    /* \"#utility.yul\":1751:1769   */\n  tag_141\n  tag_85\n  jump\t// in\ntag_141:\n    /* \"#utility.yul\":1721:1771   */\ntag_140:\n    /* \"#utility.yul\":1801:1802   */\n  0x01\n    /* \"#utility.yul\":1791:1799   */\n  dup6\n    /* \"#utility.yul\":1787:1803   */\n  and\n    /* \"#utility.yul\":1784:2235   */\n  iszero\n  tag_142\n  jumpi\n    /* \"#utility.yul\":2216:2220   */\n  dup1\n    /* \"#utility.yul\":2209:2214   */\n  dup3\n    /* \"#utility.yul\":2205:2221   */\n  mul\n    /* \"#utility.yul\":2196:2221   */\n  swap2\n  pop\n    /* \"#utility.yul\":1784:2235   */\ntag_142:\n    /* \"#utility.yul\":2266:2270   */\n  dup1\n    /* \"#utility.yul\":2260:2264   */\n  dup2\n    /* \"#utility.yul\":2256:2271   */\n  mul\n    /* \"#utility.yul\":2248:2271   */\n  swap1\n  pop\n    /* \"#utility.yul\":2296:2328   */\n  tag_143\n    /* \"#utility.yul\":2319:2327   */\n  dup6\n    /* \"#utility.yul\":2296:2328   */\n  tag_86\n  jump\t// in\ntag_143:\n    /* \"#utility.yul\":2284:2328   */\n  swap5\n  pop\n    /* \"#utility.yul\":1626:2338   */\n  jump(tag_137)\ntag_139:\n    /* \"#utility.yul\":1496:2344   */\n  swap5\n  pop\n  swap5\n  swap3\n  pop\n  pop\n  pop\n  jump\t// out\n    /* \"#utility.yul\":2350:3423   */\ntag_88:\n    /* \"#utility.yul\":2404:2409   */\n  0x00\n    /* \"#utility.yul\":2595:2603   */\n  dup3\n    /* \"#utility.yul\":2585:2625   */\n  tag_145\n  jumpi\n    /* \"#utility.yul\":2616:2617   */\n  0x01\n    /* \"#utility.yul\":2607:2617   */\n  swap1\n  pop\n    /* \"#utility.yul\":2618:2623   */\n  jump(tag_144)\n    /* \"#utility.yul\":2585:2625   */\ntag_145:\n    /* \"#utility.yul\":2644:2648   */\n  dup2\n    /* \"#utility.yul\":2634:2670   */\n  tag_146\n  jumpi\n    /* \"#utility.yul\":2661:2662   */\n  0x00\n    /* \"#utility.yul\":2652:2662   */\n  swap1\n  pop\n    /* \"#utility.yul\":2663:2668   */\n  jump(tag_144)\n    /* \"#utility.yul\":2634:2670   */\ntag_146:\n    /* \"#utility.yul\":2730:2734   */\n  dup2\n    /* \"#utility.yul\":2778:2779   */\n  0x01\n    /* \"#utility.yul\":2773:2800   */\n  dup2\n  eq\n  tag_148\n  jumpi\n    /* \"#utility.yul\":2814:2815   */\n  0x02\n    /* \"#utility.yul\":2809:3000   */\n  dup2\n  eq\n  tag_149\n  jumpi\n    /* \"#utility.yul\":2723:3000   */\n  jump(tag_147)\n    /* \"#utility.yul\":2773:2800   */\ntag_148:\n    /* \"#utility.yul\":2791:2792   */\n  0x01\n    /* \"#utility.yul\":2782:2792   */\n  swap2\n  pop\n    /* \"#utility.yul\":2793:2798   */\n  pop\n  jump(tag_144)\n    /* \"#utility.yul\":2809:3000   */\ntag_149:\n    /* \"#utility.yul\":2854:2857   */\n  0xff\n    /* \"#utility.yul\":2844:2852   */\n  dup5\n    /* \"#utility.yul\":2841:2858   */\n  gt\n    /* \"#utility.yul\":2838:2881   */\n  iszero\n  tag_150\n  jumpi\n    /* \"#utility.yul\":2861:2879   */\n  tag_151\n  tag_85\n  jump\t// in\ntag_151:\n    /* \"#utility.yul\":2838:2881   */\ntag_150:\n    /* \"#utility.yul\":2910:2918   */\n  dup4\n    /* \"#utility.yul\":2907:2908   */\n  0x02\n    /* \"#utility.yul\":2903:2919   */\n  exp\n    /* \"#utility.yul\":2894:2919   */\n  swap2\n  pop\n    /* \"#utility.yul\":2945:2948   */\n  dup5\n    /* \"#utility.yul\":2938:2943   */\n  dup3\n    /* \"#utility.yul\":2935:2949   */\n  gt\n    /* \"#utility.yul\":2932:2972   */\n  iszero\n  tag_152\n  jumpi\n    /* \"#utility.yul\":2952:2970   */\n  tag_153\n  tag_85\n  jump\t// in\ntag_153:\n    /* \"#utility.yul\":2932:2972   */\ntag_152:\n    /* \"#utility.yul\":2985:2990   */\n  pop\n  jump(tag_144)\n    /* \"#utility.yul\":2723:3000   */\ntag_147:\n  pop\n    /* \"#utility.yul\":3109:3111   */\n  0x20\n    /* \"#utility.yul\":3099:3107   */\n  dup4\n    /* \"#utility.yul\":3096:3112   */\n  lt\n    /* \"#utility.yul\":3090:3093   */\n  0x0133\n    /* \"#utility.yul\":3084:3088   */\n  dup4\n    /* \"#utility.yul\":3081:3094   */\n  lt\n    /* \"#utility.yul\":3077:3113   */\n  and\n    /* \"#utility.yul\":3059:3061   */\n  0x4e\n    /* \"#utility.yul\":3049:3057   */\n  dup5\n    /* \"#utility.yul\":3046:3062   */\n  lt\n    /* \"#utility.yul\":3041:3043   */\n  0x0b\n    /* \"#utility.yul\":3035:3039   */\n  dup5\n    /* \"#utility.yul\":3032:3044   */\n  lt\n    /* \"#utility.yul\":3028:3063   */\n  and\n    /* \"#utility.yul\":3012:3123   */\n  or\n    /* \"#utility.yul\":3009:3255   */\n  iszero\n  tag_154\n  jumpi\n    /* \"#utility.yul\":3165:3173   */\n  dup3\n    /* \"#utility.yul\":3159:3163   */\n  dup3\n    /* \"#utility.yul\":3155:3174   */\n  exp\n    /* \"#utility.yul\":3146:3174   */\n  swap1\n  pop\n    /* \"#utility.yul\":3200:3203   */\n  dup4\n    /* \"#utility.yul\":3193:3198   */\n  dup2\n    /* \"#utility.yul\":3190:3204   */\n  gt\n    /* \"#utility.yul\":3187:3227   */\n  iszero\n  tag_155\n  jumpi\n    /* \"#utility.yul\":3207:3225   */\n  tag_156\n  tag_85\n  jump\t// in\ntag_156:\n    /* \"#utility.yul\":3187:3227   */\ntag_155:\n    /* \"#utility.yul\":3240:3245   */\n  jump(tag_144)\n    /* \"#utility.yul\":3009:3255   */\ntag_154:\n    /* \"#utility.yul\":3280:3322   */\n  tag_157\n    /* \"#utility.yul\":3318:3321   */\n  dup5\n    /* \"#utility.yul\":3308:3316   */\n  dup5\n    /* \"#utility.yul\":3302:3306   */\n  dup5\n    /* \"#utility.yul\":3299:3300   */\n  0x01\n    /* \"#utility.yul\":3280:3322   */\n  tag_87\n  jump\t// in\ntag_157:\n    /* \"#utility.yul\":3265:3322   */\n  swap3\n  pop\n  swap1\n  pop\n    /* \"#utility.yul\":3354:3358   */\n  dup2\n    /* \"#utility.yul\":3349:3352   */\n  dup5\n    /* \"#utility.yul\":3345:3359   */\n  div\n    /* \"#utility.yul\":3338:3343   */\n  dup2\n    /* \"#utility.yul\":3335:3360   */\n  gt\n    /* \"#utility.yul\":3332:3383   */\n  iszero\n  tag_158\n  jumpi\n    /* \"#utility.yul\":3363:3381   */\n  tag_159\n  tag_85\n  jump\t// in\ntag_159:\n    /* \"#utility.yul\":3332:3383   */\ntag_158:\n    /* \"#utility.yul\":3412:3416   */\n  dup2\n    /* \"#utility.yul\":3405:3410   */\n  dup2\n    /* \"#utility.yul\":3401:3417   */\n  mul\n    /* \"#utility.yul\":3392:3417   */\n  swap1\n  pop\n    /* \"#utility.yul\":2350:3423   */\ntag_144:\n  swap4\n  swap3\n  pop\n  pop\n  pop\n  jump\t// out\n    /* \"#utility.yul\":3429:3506   */\ntag_89:\n    /* \"#utility.yul\":3466:3473   */\n  0x00\n    /* \"#utility.yul\":3495:3500   */\n  dup2\n    /* \"#utility.yul\":3484:3500   */\n  swap1\n  pop\n    /* \"#utility.yul\":3429:3506   */\n  swap2\n  swap1\n  pop\n  jump\t// out\n    /* \"#utility.yul\":3512:3598   */\ntag_90:\n    /* \"#utility.yul\":3547:3554   */\n  0x00\n    /* \"#utility.yul\":3587:3591   */\n  0xff\n    /* \"#utility.yul\":3580:3585   */\n  dup3\n    /* \"#utility.yul\":3576:3592   */\n  and\n    /* \"#utility.yul\":3565:3592   */\n  swap1\n  pop\n    /* \"#utility.yul\":3512:3598   */\n  swap2\n  swap1\n  pop\n  jump\t// out\n    /* \"#utility.yul\":3604:3885   */\ntag_10:\n    /* \"#utility.yul\":3662:3667   */\n  0x00\n    /* \"#utility.yul\":3686:3709   */\n  tag_163\n    /* \"#utility.yul\":3704:3708   */\n  dup3\n    /* \"#utility.yul\":3686:3709   */\n  tag_89\n  jump\t// in\ntag_163:\n    /* \"#utility.yul\":3678:3709   */\n  swap2\n  pop\n    /* \"#utility.yul\":3730:3755   */\n  tag_164\n    /* \"#utility.yul\":3746:3754   */\n  dup4\n    /* \"#utility.yul\":3730:3755   */\n  tag_90\n  jump\t// in\ntag_164:\n    /* \"#utility.yul\":3718:3755   */\n  swap3\n  pop\n    /* \"#utility.yul\":3774:3878   */\n  tag_165\n    /* \"#utility.yul\":3811:3877   */\n  0xffffffffffffffffffffffffffffffffffffffffffffffffffffffffffffffff\n    /* \"#utility.yul\":3801:3809   */\n  dup5\n    /* \"#utility.yul\":3795:3799   */\n  dup5\n    /* \"#utility.yul\":3774:3878   */\n  tag_88\n  jump\t// in\ntag_165:\n    /* \"#utility.yul\":3765:3878   */\n  swap1\n  pop\n    /* \"#utility.yul\":3604:3885   */\n  swap3\n  swap2\n  pop\n  pop\n  jump\t// out\n    /* \"#utility.yul\":3891:4301   */\ntag_12:\n    /* \"#utility.yul\":3931:3938   */\n  0x00\n    /* \"#utility.yul\":3954:3974   */\n  tag_167\n    /* \"#utility.yul\":3972:3973   */\n  dup3\n    /* \"#utility.yul\":3954:3974   */\n  tag_89\n  jump\t// in\ntag_167:\n    /* \"#utility.yul\":3949:3974   */\n  swap2\n  pop\n    /* \"#utility.yul\":3988:4008   */\n  tag_168\n    /* \"#utility.yul\":4006:4007   */\n  dup4\n    /* \"#utility.yul\":3988:4008   */\n  tag_89\n  jump\t// in\ntag_168:\n    /* \"#utility.yul\":3983:4008   */\n  swap3\n  pop\n    /* \"#utility.yul\":4043:4044   */\n  dup3\n    /* \"#utility.yul\":4040:4041   */\n  dup3\n    /* \"#utility.yul\":4036:4045   */\n  mul\n    /* \"#utility.yul\":4065:4095   */\n  tag_169\n    /* \"#utility.yul\":4083:4094   */\n  dup2\n    /* \"#utility.yul\":4065:4095   */\n  tag_89\n  jump\t// in\ntag_169:\n    /* \"#utility.yul\":4054:4095   */\n  swap2\n  pop\n    /* \"#utility.yul\":4244:4245   */\n  dup3\n    /* \"#utility.yul\":4235:4242   */\n  dup3\n    /* \"#utility.yul\":4231:4246   */\n  div\n    /* \"#utility.yul\":4228:4229   */\n  dup5\n    /* \"#utility.yul\":4225:4247   */\n  eq\n    /* \"#utility.yul\":4205:4206   */\n  dup4\n    /* \"#utility.yul\":4198:4207   */\n  iszero\n    /* \"#utility.yul\":4178:4261   */\n  or\n    /* \"#utility.yul\":4155:4294   */\n  tag_170\n  jumpi\n    /* \"#utility.yul\":4274:4292   */\n  tag_171\n  tag_85\n  jump\t// in\ntag_171:\n    /* \"#utility.yul\":4155:4294   */\ntag_170:\n    /* \"#utility.yul\":3939:4301   */\n  pop\n    /* \"#utility.yul\":3891:4301   */\n  swap3\n  swap2\n  pop\n  pop\n  jump\t// out\n    /* \"#utility.yul\":4307:4406   */\ntag_91:\n    /* \"#utility.yul\":4359:4365   */\n  0x00\n    /* \"#utility.yul\":4393:4398   */\n  dup2\n    /* \"#utility.yul\":4387:4399   */\n  mload\n    /* \"#utility.yul\":4377:4399   */\n  swap1\n  pop\n    /* \"#utility.yul\":4307:4406   */\n  swap2\n  swap1\n  pop\n  jump\t// out\n    /* \"#utility.yul\":4412:4592   */\ntag_92:\n    /* \"#utility.yul\":4460:4537   */\n  0x4e487b7100000000000000000000000000000000000000000000000000000000\n    /* \"#utility.yul\":4457:4458   */\n  0x00\n    /* \"#utility.yul\":4450:4538   */\n  mstore\n    /* \"#utility.yul\":4557:4561   */\n  0x41\n    /* \"#utility.yul\":4554:4555   */\n  0x04\n    /* \"#utility.yul\":4547:4562   */\n  mstore\n    /* \"#utility.yul\":4581:4585   */\n  0x24\n    /* \"#utility.yul\":4578:4579   */\n  0x00\n    /* \"#utility.yul\":4571:4586   */\n  revert\n    /* \"#utility.yul\":4598:4778   */\ntag_93:\n    /* \"#utility.yul\":4646:4723   */\n  0x4e487b7100000000000000000000000000000000000000000000000000000000\n    /* \"#utility.yul\":4643:4644   */\n  0x00\n    /* \"#utility.yul\":4636:4724   */\n  mstore\n    /* \"#utility.yul\":4743:4747   */\n  0x22\n    /* \"#utility.yul\":4740:4741   */\n  0x04\n    /* \"#utility.yul\":4733:4748   */\n  mstore\n    /* \"#utility.yul\":4767:4771   */\n  0x24\n    /* \"#utility.yul\":4764:4765   */\n  0x00\n    /* \"#utility.yul\":4757:4772   */\n  revert\n    /* \"#utility.yul\":4784:5104   */\ntag_94:\n    /* \"#utility.yul\":4828:4834   */\n  0x00\n    /* \"#utility.yul\":4865:4866   */\n  0x02\n    /* \"#utility.yul\":4859:4863   */\n  dup3\n    /* \"#utility.yul\":4855:4867   */\n  div\n    /* \"#utility.yul\":4845:4867   */\n  swap1\n  pop\n    /* \"#utility.yul\":4912:4913   */\n  0x01\n    /* \"#utility.yul\":4906:4910   */\n  dup3\n    /* \"#utility.yul\":4902:4914   */\n  and\n    /* \"#utility.yul\":4933:4951   */\n  dup1\n    /* \"#utility.yul\":4923:5004   */\n  tag_176\n  jumpi\n    /* \"#utility.yul\":4989:4993   */\n  0x7f\n    /* \"#utility.yul\":4981:4987   */\n  dup3\n    /* \"#utility.yul\":4977:4994   */\n  and\n    /* \"#utility.yul\":4967:4994   */\n  swap2\n  pop\n    /* \"#utility.yul\":4923:5004   */\ntag_176:\n    /* \"#utility.yul\":5051:5053   */\n  0x20\n    /* \"#utility.yul\":5043:5049   */\n  dup3\n    /* \"#utility.yul\":5040:5054   */\n  lt\n    /* \"#utility.yul\":5020:5038   */\n  dup2\n    /* \"#utility.yul\":5017:5055   */\n  sub\n    /* \"#utility.yul\":5014:5098   */\n  tag_177\n  jumpi\n    /* \"#utility.yul\":5070:5088   */\n  tag_178\n  tag_93\n  jump\t// in\ntag_178:\n    /* \"#utility.yul\":5014:5098   */\ntag_177:\n    /* \"#utility.yul\":4835:5104   */\n  pop\n    /* \"#utility.yul\":4784:5104   */\n  swap2\n  swap1\n  pop\n  jump\t// out\n    /* \"#utility.yul\":5110:5251   */\ntag_95:\n    /* \"#utility.yul\":5159:5163   */\n  0x00\n    /* \"#utility.yul\":5182:5185   */\n  dup2\n    /* \"#utility.yul\":5174:5185   */\n  swap1\n  pop\n    /* \"#utility.yul\":5205:5208   */\n  dup2\n    /* \"#utility.yul\":5202:5203   */\n  0x00\n    /* \"#utility.yul\":5195:5209   */\n  mstore\n    /* \"#utility.yul\":5239:5243   */\n  0x20\n    /* \"#utility.yul\":5236:5237   */\n  0x00\n    /* \"#utility.yul\":5226:5244   */\n  keccak256\n    /* \"#utility.yul\":5218:5244   */\n  swap1\n  pop\n    /* \"#utility.yul\":5110:5251   */\n  swap2\n  swap1\n  pop\n  jump\t// out\n    /* \"#utility.yul\":5257:5350   */\ntag_96:\n    /* \"#utility.yul\":5294:5300   */\n  0x00\n    /* \"#utility.yul\":5341:5343   */\n  0x20\n    /* \"#utility.yul\":5336:5338   */\n  0x1f\n    /* \"#utility.yul\":5329:5334   */\n  dup4\n    /* \"#utility.yul\":5325:5339   */\n  add\n    /* \"#utility.yul\":5321:5344   */\n  div\n    /* \"#utility.yul\":5311:5344   */\n  swap1\n  pop\n    /* \"#utility.yul\":5257:5350   */\n  swap2\n  swap1\n  pop\n  jump\t// out\n    /* \"#utility.yul\":5356:5463   */\ntag_97:\n    /* \"#utility.yul\":5400:5408   */\n  0x00\n    /* \"#utility.yul\":5450:5455   */\n  dup3\n    /* \"#utility.yul\":5444:5448   */\n  dup3\n    /* \"#utility.yul\":5440:5456   */\n  shl\n    /* \"#utility.yul\":5419:5456   */\n  swap1\n  pop\n    /* \"#utility.yul\":5356:5463   */\n  swap3\n  swap2\n  pop\n  pop\n  jump\t// out\n    /* \"#utility.yul\":5469:5862   */\ntag_98:\n    /* \"#utility.yul\":5538:5544   */\n  0x00\n    /* \"#utility.yul\":5588:5589   */\n  0x08\n    /* \"#utility.yul\":5576:5586   */\n  dup4\n    /* \"#utility.yul\":5572:5590   */\n  mul\n    /* \"#utility.yul\":5611:5708   */\n  tag_183\n    /* \"#utility.yul\":5641:5707   */\n  0xffffffffffffffffffffffffffffffffffffffffffffffffffffffffffffffff\n    /* \"#utility.yul\":5630:5639   */\n  dup3\n    /* \"#utility.yul\":5611:5708   */\n  tag_97\n  jump\t// in\ntag_183:\n    /* \"#utility.yul\":5729:5768   */\n  tag_184\n    /* \"#utility.yul\":5759:5767   */\n  dup7\n    /* \"#utility.yul\":5748:5757   */\n  dup4\n    /* \"#utility.yul\":5729:5768   */\n  tag_97\n  jump\t// in\ntag_184:\n    /* \"#utility.yul\":5717:5768   */\n  swap6\n  pop\n    /* \"#utility.yul\":5801:5805   */\n  dup1\n    /* \"#utility.yul\":5797:5806   */\n  not\n    /* \"#utility.yul\":5790:5795   */\n  dup5\n    /* \"#utility.yul\":5786:5807   */\n  and\n    /* \"#utility.yul\":5777:5807   */\n  swap4\n  pop\n    /* \"#utility.yul\":5850:5854   */\n  dup1\n    /* \"#utility.yul\":5840:5848   */\n  dup7\n    /* \"#utility.yul\":5836:5855   */\n  and\n    /* \"#utility.yul\":5829:5834   */\n  dup5\n    /* \"#utility.yul\":5826:5856   */\n  or\n    /* \"#utility.yul\":5816:5856   */\n  swap3\n  pop\n    /* \"#utility.yul\":5545:5862   */\n  pop\n  pop\n    /* \"#utility.yul\":5469:5862   */\n  swap4\n  swap3\n  pop\n  pop\n  pop\n  jump\t// out\n    /* \"#utility.yul\":5868:5928   */\ntag_99:\n    /* \"#utility.yul\":5896:5899   */\n  0x00\n    /* \"#utility.yul\":5917:5922   */\n  dup2\n    /* \"#utility.yul\":5910:5922   */\n  swap1\n  pop\n    /* \"#utility.yul\":5868:5928   */\n  swap2\n  swap1\n  pop\n  jump\t// out\n    /* \"#utility.yul\":5934:6076   */\ntag_100:\n    /* \"#utility.yul\":5984:5993   */\n  0x00\n    /* \"#utility.yul\":6017:6070   */\n  tag_187\n    /* \"#utility.yul\":6035:6069   */\n  tag_188\n    /* \"#utility.yul\":6044:6068   */\n  tag_189\n    /* \"#utility.yul\":6062:6067   */\n  dup5\n    /* \"#utility.yul\":6044:6068   */\n  tag_89\n  jump\t// in\ntag_189:\n    /* \"#utility.yul\":6035:6069   */\n  tag_99\n  jump\t// in\ntag_188:\n    /* \"#utility.yul\":6017:6070   */\n  tag_89\n  jump\t// in\ntag_187:\n    /* \"#utility.yul\":6004:6070   */\n  swap1\n  pop\n    /* \"#utility.yul\":5934:6076   */\n  swap2\n  swap1\n  pop\n  jump\t// out\n    /* \"#utility.yul\":6082:6157   */\ntag_101:\n    /* \"#utility.yul\":6125:6128   */\n  0x00\n    /* \"#utility.yul\":6146:6151   */\n  dup2\n    /* \"#utility.yul\":6139:6151   */\n  swap1\n  pop\n    /* \"#utility.yul\":6082:6157   */\n  swap2\n  swap1\n  pop\n  jump\t// out\n    /* \"#utility.yul\":6163:6432   */\ntag_102:\n    /* \"#utility.yul\":6273:6312   */\n  tag_192\n    /* \"#utility.yul\":6304:6311   */\n  dup4\n    /* \"#utility.yul\":6273:6312   */\n  tag_100\n  jump\t// in\ntag_192:\n    /* \"#utility.yul\":6334:6425   */\n  tag_193\n    /* \"#utility.yul\":6383:6424   */\n  tag_194\n    /* \"#utility.yul\":6407:6423   */\n  dup3\n    /* \"#utility.yul\":6383:6424   */\n  tag_101\n  jump\t// in\ntag_194:\n    /* \"#utility.yul\":6375:6381   */\n  dup5\n    /* \"#utility.yul\":6368:6372   */\n  dup5\n    /* \"#utility.yul\":6362:6373   */\n  sload\n    /* \"#utility.yul\":6334:6425   */\n  tag_98\n  jump\t// in\ntag_193:\n    /* \"#utility.yul\":6328:6332   */\n  dup3\n    /* \"#utility.yul\":6321:6426   */\n  sstore\n    /* \"#utility.yul\":6239:6432   */\n  pop\n    /* \"#utility.yul\":6163:6432   */\n  pop\n  pop\n  pop\n  jump\t// out\n    /* \"#utility.yul\":6438:6511   */\ntag_103:\n    /* \"#utility.yul\":6483:6486   */\n  0x00\n    /* \"#utility.yul\":6438:6511   */\n  swap1\n  jump\t// out\n    /* \"#utility.yul\":6517:6706   */\ntag_104:\n    /* \"#utility.yul\":6594:6626   */\n  tag_197\n  tag_103\n  jump\t// in\ntag_197:\n    /* \"#utility.yul\":6635:6700   */\n  tag_198\n    /* \"#utility.yul\":6693:6699   */\n  dup2\n    /* \"#utility.yul\":6685:6691   */\n  dup5\n    /* \"#utility.yul\":6679:6683   */\n  dup5\n    /* \"#utility.yul\":6635:6700   */\n  tag_102\n  jump\t// in\ntag_198:\n    /* \"#utility.yul\":6570:6706   */\n  pop\n    /* \"#utility.yul\":6517:6706   */\n  pop\n  pop\n  jump\t// out\n    /* \"#utility.yul\":6712:6898   */\ntag_105:\n    /* \"#utility.yul\":6772:6892   */\ntag_200:\n    /* \"#utility.yul\":6789:6792   */\n  dup2\n    /* \"#utility.yul\":6782:6787   */\n  dup2\n    /* \"#utility.yul\":6779:6793   */\n  lt\n    /* \"#utility.yul\":6772:6892   */\n  iszero\n  tag_202\n  jumpi\n    /* \"#utility.yul\":6843:6882   */\n  tag_203\n    /* \"#utility.yul\":6880:6881   */\n  0x00\n    /* \"#utility.yul\":6873:6878   */\n  dup3\n    /* \"#utility.yul\":6843:6882   */\n  tag_104\n  jump\t// in\ntag_203:\n    /* \"#utility.yul\":6816:6817   */\n  0x01\n    /* \"#utility.yul\":6809:6814   */\n  dup2\n    /* \"#utility.yul\":6805:6818   */\n  add\n    /* \"#utility.yul\":6796:6818   */\n  swap1\n  pop\n    /* \"#utility.yul\":6772:6892   */\n  jump(tag_200)\ntag_202:\n    /* \"#utility.yul\":6712:6898   */\n  pop\n  pop\n  jump\t// out\n    /* \"#utility.yul\":6904:7447   */\ntag_106:\n    /* \"#utility.yul\":7005:7007   */\n  0x1f\n    /* \"#utility.yul\":7000:7003   */\n  dup3\n    /* \"#utility.yul\":6997:7008   */\n  gt\n    /* \"#utility.yul\":6994:7440   */\n  iszero\n  tag_205\n  jumpi\n    /* \"#utility.yul\":7039:7077   */\n  tag_206\n    /* \"#utility.yul\":7071:7076   */\n  dup2\n    /* \"#utility.yul\":7039:7077   */\n  tag_95\n  jump\t// in\ntag_206:\n    /* \"#utility.yul\":7123:7152   */\n  tag_207\n    /* \"#utility.yul\":7141:7151   */\n  dup5\n    /* \"#utility.yul\":7123:7152   */\n  tag_96\n  jump\t// in\ntag_207:\n    /* \"#utility.yul\":7113:7121   */\n  dup2\n    /* \"#utility.yul\":7109:7153   */\n  add\n    /* \"#utility.yul\":7306:7308   */\n  0x20\n    /* \"#utility.yul\":7294:7304   */\n  dup6\n    /* \"#utility.yul\":7291:7309   */\n  lt\n    /* \"#utility.yul\":7288:7337   */\n  iszero\n  tag_208\n  jumpi\n    /* \"#utility.yul\":7327:7335   */\n  dup2\n    /* \"#utility.yul\":7312:7335   */\n  swap1\n  pop\n    /* \"#utility.yul\":7288:7337   */\ntag_208:\n    /* \"#utility.yul\":7350:7430   */\n  tag_209\n    /* \"#utility.yul\":7406:7428   */\n  tag_210\n    /* \"#utility.yul\":7424:7427   */\n  dup6\n    /* \"#utility.yul\":7406:7428   */\n  tag_96\n  jump\t// in\ntag_210:\n    /* \"#utility.yul\":7396:7404   */\n  dup4\n    /* \"#utility.yul\":7392:7429   */\n  add\n    /* \"#utility.yul\":7379:7390   */\n  dup3\n    /* \"#utility.yul\":7350:7430   */\n  tag_105\n  jump\t// in\ntag_209:\n    /* \"#utility.yul\":7009:7440   */\n  pop\n  pop\n    /* \"#utility.yul\":6994:7440   */\ntag_205:\n    /* \"#utility.yul\":6904:7447   */\n  pop\n  pop\n  pop\n  jump\t// out\n    /* \"#utility.yul\":7453:7570   */\ntag_107:\n    /* \"#utility.yul\":7507:7515   */\n  0x00\n    /* \"#utility.yul\":7557:7562   */\n  dup3\n    /* \"#utility.yul\":7551:7555   */\n  dup3\n    /* \"#utility.yul\":7547:7563   */\n  shr\n    /* \"#utility.yul\":7526:7563   */\n  swap1\n  pop\n    /* \"#utility.yul\":7453:7570   */\n  swap3\n  swap2\n  pop\n  pop\n  jump\t// out\n    /* \"#utility.yul\":7576:7745   */\ntag_108:\n    /* \"#utility.yul\":7620:7626   */\n  0x00\n    /* \"#utility.yul\":7653:7704   */\n  tag_213\n    /* \"#utility.yul\":7701:7702   */\n  0x00\n    /* \"#utility.yul\":7697:7703   */\n  not\n    /* \"#utility.yul\":7689:7694   */\n  dup5\n    /* \"#utility.yul\":7686:7687   */\n  0x08\n    /* \"#utility.yul\":7682:7695   */\n  mul\n    /* \"#utility.yul\":7653:7704   */\n  tag_107\n  jump\t// in\ntag_213:\n    /* \"#utility.yul\":7649:7705   */\n  not\n    /* \"#utility.yul\":7734:7738   */\n  dup1\n    /* \"#utility.yul\":7728:7732   */\n  dup4\n    /* \"#utility.yul\":7724:7739   */\n  and\n    /* \"#utility.yul\":7714:7739   */\n  swap2\n  pop\n    /* \"#utility.yul\":7627:7745   */\n  pop\n    /* \"#utility.yul\":7576:7745   */\n  swap3\n  swap2\n  pop\n  pop\n  jump\t// out\n    /* \"#utility.yul\":7750:8045   */\ntag_109:\n    /* \"#utility.yul\":7826:7830   */\n  0x00\n    /* \"#utility.yul\":7972:8001   */\n  tag_215\n    /* \"#utility.yul\":7997:8000   */\n  dup4\n    /* \"#utility.yul\":7991:7995   */\n  dup4\n    /* \"#utility.yul\":7972:8001   */\n  tag_108\n  jump\t// in\ntag_215:\n    /* \"#utility.yul\":7964:8001   */\n  swap2\n  pop\n    /* \"#utility.yul\":8034:8037   */\n  dup3\n    /* \"#utility.yul\":8031:8032   */\n  0x02\n    /* \"#utility.yul\":8027:8038   */\n  mul\n    /* \"#utility.yul\":8021:8025   */\n  dup3\n    /* \"#utility.yul\":8018:8039   */\n  or\n    /* \"#utility.yul\":8010:8039   */\n  swap1\n  pop\n    /* \"#utility.yul\":7750:8045   */\n  swap3\n  swap2\n  pop\n  pop\n  jump\t// out\n    /* \"#utility.yul\":8050:9445   */\ntag_17:\n    /* \"#utility.yul\":8167:8204   */\n  tag_217\n    /* \"#utility.yul\":8200:8203   */\n  dup3\n    /* \"#utility.yul\":8167:8204   */\n  tag_91\n  jump\t// in\ntag_217:\n    /* \"#utility.yul\":8269:8287   */\n  0xffffffffffffffff\n    /* \"#utility.yul\":8261:8267   */\n  dup2\n    /* \"#utility.yul\":8258:8288   */\n  gt\n    /* \"#utility.yul\":8255:8311   */\n  iszero\n  tag_218\n  jumpi\n    /* \"#utility.yul\":8291:8309   */\n  tag_219\n  tag_92\n  jump\t// in\ntag_219:\n    /* \"#utility.yul\":8255:8311   */\ntag_218:\n    /* \"#utility.yul\":8335:8373   */\n  tag_220\n    /* \"#utility.yul\":8367:8371   */\n  dup3\n    /* \"#utility.yul\":8361:8372   */\n  sload\n    /* \"#utility.yul\":8335:8373   */\n  tag_94\n  jump\t// in\ntag_220:\n    /* \"#utility.yul\":8420:8487   */\n  tag_221\n    /* \"#utility.yul\":8480:8486   */\n  dup3\n    /* \"#utility.yul\":8472:8478   */\n  dup3\n    /* \"#utility.yul\":8466:8470   */\n  dup6\n    /* \"#utility.yul\":8420:8487   */\n  tag_106\n  jump\t// in\ntag_221:\n    /* \"#utility.yul\":8514:8515   */\n  0x00\n    /* \"#utility.yul\":8538:8542   */\n  0x20\n    /* \"#utility.yul\":8525:8542   */\n  swap1\n  pop\n    /* \"#utility.yul\":8570:8572   */\n  0x1f\n    /* \"#utility.yul\":8562:8568   */\n  dup4\n    /* \"#utility.yul\":8559:8573   */\n  gt\n    /* \"#utility.yul\":8587:8588   */\n  0x01\n    /* \"#utility.yul\":8582:9200   */\n  dup2\n  eq\n  tag_223\n  jumpi\n    /* \"#utility.yul\":9244:9245   */\n  0x00\n    /* \"#utility.yul\":9261:9267   */\n  dup5\n    /* \"#utility.yul\":9258:9335   */\n  iszero\n  tag_224\n  jumpi\n    /* \"#utility.yul\":9310:9319   */\n  dup3\n    /* \"#utility.yul\":9305:9308   */\n  dup8\n    /* \"#utility.yul\":9301:9320   */\n  add\n    /* \"#utility.yul\":9295:9321   */\n  mload\n    /* \"#utility.yul\":9286:9321   */\n  swap1\n  pop\n    /* \"#utility.yul\":9258:9335   */\ntag_224:\n    /* \"#utility.yul\":9361:9428   */\n  tag_225\n    /* \"#utility.yul\":9421:9427   */\n  dup6\n    /* \"#utility.yul\":9414:9419   */\n  dup3\n    /* \"#utility.yul\":9361:9428   */\n  tag_109\n  jump\t// in\ntag_225:\n    /* \"#utility.yul\":9355:9359   */\n  dup7\n    /* \"#utility.yul\":9348:9429   */\n  sstore\n    /* \"#utility.yul\":9217:9439   */\n  pop\n    /* \"#utility.yul\":8552:9439   */\n  jump(tag_222)\n    /* \"#utility.yul\":8582:9200   */\ntag_223:\n    /* \"#utility.yul\":8634:8638   */\n  0x1f\n    /* \"#utility.yul\":8630:8639   */\n  not\n    /* \"#utility.yul\":8622:8628   */\n  dup5\n    /* \"#utility.yul\":8618:8640   */\n  and\n    /* \"#utility.yul\":8668:8705   */\n  tag_226\n    /* \"#utility.yul\":8700:8704   */\n  dup7\n    /* \"#utility.yul\":8668:8705   */\n  tag_95\n  jump\t// in\ntag_226:\n    /* \"#utility.yul\":8727:8728   */\n  0x00\n    /* \"#utility.yul\":8741:8949   */\ntag_227:\n    /* \"#utility.yul\":8755:8762   */\n  dup3\n    /* \"#utility.yul\":8752:8753   */\n  dup2\n    /* \"#utility.yul\":8749:8763   */\n  lt\n    /* \"#utility.yul\":8741:8949   */\n  iszero\n  tag_229\n  jumpi\n    /* \"#utility.yul\":8834:8843   */\n  dup5\n    /* \"#utility.yul\":8829:8832   */\n  dup10\n    /* \"#utility.yul\":8825:8844   */\n  add\n    /* \"#utility.yul\":8819:8845   */\n  mload\n    /* \"#utility.yul\":8811:8817   */\n  dup3\n    /* \"#utility.yul\":8804:8846   */\n  sstore\n    /* \"#utility.yul\":8885:8886   */\n  0x01\n    /* \"#utility.yul\":8877:8883   */\n  dup3\n    /* \"#utility.yul\":8873:8887   */\n  add\n    /* \"#utility.yul\":8863:8887   */\n  swap2\n  pop\n    /* \"#utility.yul\":8932:8934   */\n  0x20\n    /* \"#utility.yul\":8921:8930   */\n  dup6\n    /* \"#utility.yul\":8917:8935   */\n  add\n    /* \"#utility.yul\":8904:8935   */\n  swap5\n  pop\n    /* \"#utility.yul\":8778:8782   */\n  0x20\n    /* \"#utility.yul\":8775:8776   */\n  dup2\n    /* \"#utility.yul\":8771:8783   */\n  add\n    /* \"#utility.yul\":8766:8783   */\n  swap1\n  pop\n    /* \"#utility.yul\":8741:8949   */\n  jump(tag_227)\ntag_229:\n    /* \"#utility.yul\":8977:8983   */\n  dup7\n    /* \"#utility.yul\":8968:8975   */\n  dup4\n    /* \"#utility.yul\":8965:8984   */\n  lt\n    /* \"#utility.yul\":8962:9141   */\n  iszero\n  tag_230\n  jumpi\n    /* \"#utility.yul\":9035:9044   */\n  dup5\n    /* \"#utility.yul\":9030:9033   */\n  dup10\n    /* \"#utility.yul\":9026:9045   */\n  add\n    /* \"#utility.yul\":9020:9046   */\n  mload\n    /* \"#utility.yul\":9078:9126   */\n  tag_231\n    /* \"#utility.yul\":9120:9124   */\n  0x1f\n    /* \"#utility.yul\":9112:9118   */\n  dup10\n    /* \"#utility.yul\":9108:9125   */\n  and\n    /* \"#utility.yul\":9097:9106   */\n  dup3\n    /* \"#utility.yul\":9078:9126   */\n  tag_108\n  jump\t// in\ntag_231:\n    /* \"#utility.yul\":9070:9076   */\n  dup4\n    /* \"#utility.yul\":9063:9127   */\n  sstore\n    /* \"#utility.yul\":8985:9141   */\n  pop\n    /* \"#utility.yul\":8962:9141   */\ntag_230:\n    /* \"#utility.yul\":9187:9188   */\n  0x01\n    /* \"#utility.yul\":9183:9184   */\n  0x02\n    /* \"#utility.yul\":9175:9181   */\n  dup9\n    /* \"#utility.yul\":9171:9185   */\n  mul\n    /* \"#utility.yul\":9167:9189   */\n  add\n    /* \"#utility.yul\":9161:9165   */\n  dup9\n    /* \"#utility.yul\":9154:9190   */\n  sstore\n    /* \"#utility.yul\":8589:9200   */\n  pop\n  pop\n  pop\n    /* \"#utility.yul\":8552:9439   */\ntag_222:\n  pop\n    /* \"#utility.yul\":8142:9445   */\n  pop\n  pop\n  pop\n    /* \"#utility.yul\":8050:9445   */\n  pop\n  pop\n  jump\t// out\n    /* \"#utility.yul\":9451:9536   */\ntag_110:\n    /* \"#utility.yul\":9496:9503   */\n  0x00\n    /* \"#utility.yul\":9525:9530   */\n  dup2\n    /* \"#utility.yul\":9514:9530   */\n  swap1\n  pop\n    /* \"#utility.yul\":9451:9536   */\n  swap2\n  swap1\n  pop\n  jump\t// out\n    /* \"#utility.yul\":9542:9700   */\ntag_111:\n    /* \"#utility.yul\":9600:9609   */\n  0x00\n    /* \"#utility.yul\":9633:9694   */\n  tag_234\n    /* \"#utility.yul\":9651:9693   */\n  tag_235\n    /* \"#utility.yul\":9660:9692   */\n  tag_236\n    /* \"#utility.yul\":9686:9691   */\n  dup5\n    /* \"#utility.yul\":9660:9692   */\n  tag_110\n  jump\t// in\ntag_236:\n    /* \"#utility.yul\":9651:9693   */\n  tag_99\n  jump\t// in\ntag_235:\n    /* \"#utility.yul\":9633:9694   */\n  tag_89\n  jump\t// in\ntag_234:\n    /* \"#utility.yul\":9620:9694   */\n  swap1\n  pop\n    /* \"#utility.yul\":9542:9700   */\n  swap2\n  swap1\n  pop\n  jump\t// out\n    /* \"#utility.yul\":9706:9853   */\ntag_112:\n    /* \"#utility.yul\":9801:9846   */\n  tag_238\n    /* \"#utility.yul\":9840:9845   */\n  dup2\n    /* \"#utility.yul\":9801:9846   */\n  tag_111\n  jump\t// in\ntag_238:\n    /* \"#utility.yul\":9796:9799   */\n  dup3\n    /* \"#utility.yul\":9789:9847   */\n  mstore\n    /* \"#utility.yul\":9706:9853   */\n  pop\n  pop\n  jump\t// out\n    /* \"#utility.yul\":9859:10097   */\ntag_22:\n    /* \"#utility.yul\":9960:9964   */\n  0x00\n    /* \"#utility.yul\":9998:10000   */\n  0x20\n    /* \"#utility.yul\":9987:9996   */\n  dup3\n    /* \"#utility.yul\":9983:10001   */\n  add\n    /* \"#utility.yul\":9975:10001   */\n  swap1\n  pop\n    /* \"#utility.yul\":10011:10090   */\n  tag_240\n    /* \"#utility.yul\":10087:10088   */\n  0x00\n    /* \"#utility.yul\":10076:10085   */\n  dup4\n    /* \"#utility.yul\":10072:10089   */\n  add\n    /* \"#utility.yul\":10063:10069   */\n  dup5\n    /* \"#utility.yul\":10011:10090   */\n  tag_112\n  jump\t// in\ntag_240:\n    /* \"#utility.yul\":9859:10097   */\n  swap3\n  swap2\n  pop\n  pop\n  jump\t// out\n    /* \"#utility.yul\":10103:10221   */\ntag_113:\n    /* \"#utility.yul\":10190:10214   */\n  tag_242\n    /* \"#utility.yul\":10208:10213   */\n  dup2\n    /* \"#utility.yul\":10190:10214   */\n  tag_82\n  jump\t// in\ntag_242:\n    /* \"#utility.yul\":10185:10188   */\n  dup3\n    /* \"#utility.yul\":10178:10215   */\n  mstore\n    /* \"#utility.yul\":10103:10221   */\n  pop\n  pop\n  jump\t// out\n    /* \"#utility.yul\":10227:10449   */\ntag_27:\n    /* \"#utility.yul\":10320:10324   */\n  0x00\n    /* \"#utility.yul\":10358:10360   */\n  0x20\n    /* \"#utility.yul\":10347:10356   */\n  dup3\n    /* \"#utility.yul\":10343:10361   */\n  add\n    /* \"#utility.yul\":10335:10361   */\n  swap1\n  pop\n    /* \"#utility.yul\":10371:10442   */\n  tag_244\n    /* \"#utility.yul\":10439:10440   */\n  0x00\n    /* \"#utility.yul\":10428:10437   */\n  dup4\n    /* \"#utility.yul\":10424:10441   */\n  add\n    /* \"#utility.yul\":10415:10421   */\n  dup5\n    /* \"#utility.yul\":10371:10442   */\n  tag_113\n  jump\t// in\ntag_244:\n    /* \"#utility.yul\":10227:10449   */\n  swap3\n  swap2\n  pop\n  pop\n  jump\t// out\n    /* \"#utility.yul\":10455:10624   */\ntag_114:\n    /* \"#utility.yul\":10539:10550   */\n  0x00\n    /* \"#utility.yul\":10573:10579   */\n  dup3\n    /* \"#utility.yul\":10568:10571   */\n  dup3\n    /* \"#utility.yul\":10561:10580   */\n  mstore\n    /* \"#utility.yul\":10613:10617   */\n  0x20\n    /* \"#utility.yul\":10608:10611   */\n  dup3\n    /* \"#utility.yul\":10604:10618   */\n  add\n    /* \"#utility.yul\":10589:10618   */\n  swap1\n  pop\n    /* \"#utility.yul\":10455:10624   */\n  swap3\n  swap2\n  pop\n  pop\n  jump\t// out\n    /* \"#utility.yul\":10630:10803   */\ntag_115:\n    /* \"#utility.yul\":10770:10795   */\n  0x5472616e73666572656e63696173207061757361646173000000000000000000\n    /* \"#utility.yul\":10766:10767   */\n  0x00\n    /* \"#utility.yul\":10758:10764   */\n  dup3\n    /* \"#utility.yul\":10754:10768   */\n  add\n    /* \"#utility.yul\":10747:10796   */\n  mstore\n    /* \"#utility.yul\":10630:10803   */\n  pop\n  jump\t// out\n    /* \"#utility.yul\":10809:11175   */\ntag_116:\n    /* \"#utility.yul\":10951:10954   */\n  0x00\n    /* \"#utility.yul\":10972:11039   */\n  tag_248\n    /* \"#utility.yul\":11036:11038   */\n  0x17\n    /* \"#utility.yul\":11031:11034   */\n  dup4\n    /* \"#utility.yul\":10972:11039   */\n  tag_114\n  jump\t// in\ntag_248:\n    /* \"#utility.yul\":10965:11039   */\n  swap2\n  pop\n    /* \"#utility.yul\":11048:11141   */\n  tag_249\n    /* \"#utility.yul\":11137:11140   */\n  dup3\n    /* \"#utility.yul\":11048:11141   */\n  tag_115\n  jump\t// in\ntag_249:\n    /* \"#utility.yul\":11166:11168   */\n  0x20\n    /* \"#utility.yul\":11161:11164   */\n  dup3\n    /* \"#utility.yul\":11157:11169   */\n  add\n    /* \"#utility.yul\":11150:11169   */\n  swap1\n  pop\n    /* \"#utility.yul\":10809:11175   */\n  swap2\n  swap1\n  pop\n  jump\t// out\n    /* \"#utility.yul\":11181:11600   */\ntag_49:\n    /* \"#utility.yul\":11347:11351   */\n  0x00\n    /* \"#utility.yul\":11385:11387   */\n  0x20\n    /* \"#utility.yul\":11374:11383   */\n  dup3\n    /* \"#utility.yul\":11370:11388   */\n  add\n    /* \"#utility.yul\":11362:11388   */\n  swap1\n  pop\n    /* \"#utility.yul\":11434:11443   */\n  dup2\n    /* \"#utility.yul\":11428:11432   */\n  dup2\n    /* \"#utility.yul\":11424:11444   */\n  sub\n    /* \"#utility.yul\":11420:11421   */\n  0x00\n    /* \"#utility.yul\":11409:11418   */\n  dup4\n    /* \"#utility.yul\":11405:11422   */\n  add\n    /* \"#utility.yul\":11398:11445   */\n  mstore\n    /* \"#utility.yul\":11462:11593   */\n  tag_251\n    /* \"#utility.yul\":11588:11592   */\n  dup2\n    /* \"#utility.yul\":11462:11593   */\n  tag_116\n  jump\t// in\ntag_251:\n    /* \"#utility.yul\":11454:11593   */\n  swap1\n  pop\n    /* \"#utility.yul\":11181:11600   */\n  swap2\n  swap1\n  pop\n  jump\t// out\n    /* \"#utility.yul\":11606:11724   */\ntag_117:\n    /* \"#utility.yul\":11693:11717   */\n  tag_253\n    /* \"#utility.yul\":11711:11716   */\n  dup2\n    /* \"#utility.yul\":11693:11717   */\n  tag_89\n  jump\t// in\ntag_253:\n    /* \"#utility.yul\":11688:11691   */\n  dup3\n    /* \"#utility.yul\":11681:11718   */\n  mstore\n    /* \"#utility.yul\":11606:11724   */\n  pop\n  pop\n  jump\t// out\n    /* \"#utility.yul\":11730:12062   */\ntag_63:\n    /* \"#utility.yul\":11851:11855   */\n  0x00\n    /* \"#utility.yul\":11889:11891   */\n  0x40\n    /* \"#utility.yul\":11878:11887   */\n  dup3\n    /* \"#utility.yul\":11874:11892   */\n  add\n    /* \"#utility.yul\":11866:11892   */\n  swap1\n  pop\n    /* \"#utility.yul\":11902:11973   */\n  tag_255\n    /* \"#utility.yul\":11970:11971   */\n  0x00\n    /* \"#utility.yul\":11959:11968   */\n  dup4\n    /* \"#utility.yul\":11955:11972   */\n  add\n    /* \"#utility.yul\":11946:11952   */\n  dup6\n    /* \"#utility.yul\":11902:11973   */\n  tag_117\n  jump\t// in\ntag_255:\n    /* \"#utility.yul\":11983:12055   */\n  tag_256\n    /* \"#utility.yul\":12051:12053   */\n  0x20\n    /* \"#utility.yul\":12040:12049   */\n  dup4\n    /* \"#utility.yul\":12036:12054   */\n  add\n    /* \"#utility.yul\":12027:12033   */\n  dup5\n    /* \"#utility.yul\":11983:12055   */\n  tag_117\n  jump\t// in\ntag_256:\n    /* \"#utility.yul\":11730:12062   */\n  swap4\n  swap3\n  pop\n  pop\n  pop\n  jump\t// out\n    /* \"#utility.yul\":12068:12259   */\ntag_67:\n    /* \"#utility.yul\":12108:12111   */\n  0x00\n    /* \"#utility.yul\":12127:12147   */\n  tag_258\n    /* \"#utility.yul\":12145:12146   */\n  dup3\n    /* \"#utility.yul\":12127:12147   */\n  tag_89\n  jump\t// in\ntag_258:\n    /* \"#utility.yul\":12122:12147   */\n  swap2\n  pop\n    /* \"#utility.yul\":12161:12181   */\n  tag_259\n    /* \"#utility.yul\":12179:12180   */\n  dup4\n    /* \"#utility.yul\":12161:12181   */\n  tag_89\n  jump\t// in\ntag_259:\n    /* \"#utility.yul\":12156:12181   */\n  swap3\n  pop\n    /* \"#utility.yul\":12204:12205   */\n  dup3\n    /* \"#utility.yul\":12201:12202   */\n  dup3\n    /* \"#utility.yul\":12197:12206   */\n  add\n    /* \"#utility.yul\":12190:12206   */\n  swap1\n  pop\n    /* \"#utility.yul\":12225:12228   */\n  dup1\n    /* \"#utility.yul\":12222:12223   */\n  dup3\n    /* \"#utility.yul\":12219:12229   */\n  gt\n    /* \"#utility.yul\":12216:12252   */\n  iszero\n  tag_260\n  jumpi\n    /* \"#utility.yul\":12232:12250   */\n  tag_261\n  tag_85\n  jump\t// in\ntag_261:\n    /* \"#utility.yul\":12216:12252   */\ntag_260:\n    /* \"#utility.yul\":12068:12259   */\n  swap3\n  swap2\n  pop\n  pop\n  jump\t// out\n    /* \"#utility.yul\":12265:12707   */\ntag_71:\n    /* \"#utility.yul\":12414:12418   */\n  0x00\n    /* \"#utility.yul\":12452:12454   */\n  0x60\n    /* \"#utility.yul\":12441:12450   */\n  dup3\n    /* \"#utility.yul\":12437:12455   */\n  add\n    /* \"#utility.yul\":12429:12455   */\n  swap1\n  pop\n    /* \"#utility.yul\":12465:12536   */\n  tag_263\n    /* \"#utility.yul\":12533:12534   */\n  0x00\n    /* \"#utility.yul\":12522:12531   */\n  dup4\n    /* \"#utility.yul\":12518:12535   */\n  add\n    /* \"#utility.yul\":12509:12515   */\n  dup7\n    /* \"#utility.yul\":12465:12536   */\n  tag_113\n  jump\t// in\ntag_263:\n    /* \"#utility.yul\":12546:12618   */\n  tag_264\n    /* \"#utility.yul\":12614:12616   */\n  0x20\n    /* \"#utility.yul\":12603:12612   */\n  dup4\n    /* \"#utility.yul\":12599:12617   */\n  add\n    /* \"#utility.yul\":12590:12596   */\n  dup6\n    /* \"#utility.yul\":12546:12618   */\n  tag_117\n  jump\t// in\ntag_264:\n    /* \"#utility.yul\":12628:12700   */\n  tag_265\n    /* \"#utility.yul\":12696:12698   */\n  0x40\n    /* \"#utility.yul\":12685:12694   */\n  dup4\n    /* \"#utility.yul\":12681:12699   */\n  add\n    /* \"#utility.yul\":12672:12678   */\n  dup5\n    /* \"#utility.yul\":12628:12700   */\n  tag_117\n  jump\t// in\ntag_265:\n    /* \"#utility.yul\":12265:12707   */\n  swap5\n  swap4\n  pop\n  pop\n  pop\n  pop\n  jump\t// out\n    /* \"#utility.yul\":12713:12935   */\ntag_75:\n    /* \"#utility.yul\":12806:12810   */\n  0x00\n    /* \"#utility.yul\":12844:12846   */\n  0x20\n    /* \"#utility.yul\":12833:12842   */\n  dup3\n    /* \"#utility.yul\":12829:12847   */\n  add\n    /* \"#utility.yul\":12821:12847   */\n  swap1\n  pop\n    /* \"#utility.yul\":12857:12928   */\n  tag_267\n    /* \"#utility.yul\":12925:12926   */\n  0x00\n    /* \"#utility.yul\":12914:12923   */\n  dup4\n    /* \"#utility.yul\":12910:12927   */\n  add\n    /* \"#utility.yul\":12901:12907   */\n  dup5\n    /* \"#utility.yul\":12857:12928   */\n  tag_117\n  jump\t// in\ntag_267:\n    /* \"#utility.yul\":12713:12935   */\n  swap3\n  swap2\n  pop\n  pop\n  jump\t// out\n    /* \"PulseToken.sol\":297:993  contract PulseToken is ERC20, ERC20Capped, Pausable, Ownable {... */\ntag_36:\n  mload(0x80)\n  codecopy(0x00, dataOffset(sub_0), dataSize(sub_0))\n  0x00\n  assignImmutable(\"0xa94eb21dc683b2617e70b464660e1d440b88a596ad8df201f6a0560b3aa241c4\")\n  return(0x00, dataSize(sub_0))\nstop\n\nsub_0: assembly {\n        /* \"PulseToken.sol\":297:993  contract PulseToken is ERC20, ERC20Capped, Pausable, Ownable {... */\n      mstore(0x40, 0x80)\n      callvalue\n      dup1\n      iszero\n      tag_1\n      jumpi\n      0x00\n      dup1\n      revert\n    tag_1:\n      pop\n      jumpi(tag_2, lt(calldatasize, 0x04))\n      shr(0xe0, calldataload(0x00))\n      dup1\n      0x70a08231\n      gt\n      tag_19\n      jumpi\n      dup1\n      0x95d89b41\n      gt\n      tag_20\n      jumpi\n      dup1\n      0x95d89b41\n      eq\n      tag_15\n      jumpi\n      dup1\n      0xa9059cbb\n      eq\n      tag_16\n      jumpi\n      dup1\n      0xdd62ed3e\n      eq\n      tag_17\n      jumpi\n      dup1\n      0xf2fde38b\n      eq\n      tag_18\n      jumpi\n      jump(tag_2)\n    tag_20:\n      dup1\n      0x70a08231\n      eq\n      tag_11\n      jumpi\n      dup1\n      0x715018a6\n      eq\n      tag_12\n      jumpi\n      dup1\n      0x8456cb59\n      eq\n      tag_13\n      jumpi\n      dup1\n      0x8da5cb5b\n      eq\n      tag_14\n      jumpi\n      jump(tag_2)\n    tag_19:\n      dup1\n      0x313ce567\n      gt\n      tag_21\n      jumpi\n      dup1\n      0x313ce567\n      eq\n      tag_7\n      jumpi\n      dup1\n      0x355274ea\n      eq\n      tag_8\n      jumpi\n      dup1\n      0x3f4ba83a\n      eq\n      tag_9\n      jumpi\n      dup1\n      0x5c975abb\n      eq\n      tag_10\n      jumpi\n      jump(tag_2)\n    tag_21:\n      dup1\n      0x06fdde03\n      eq\n      tag_3\n      jumpi\n      dup1\n      0x095ea7b3\n      eq\n      tag_4\n      jumpi\n      dup1\n      0x18160ddd\n      eq\n      tag_5\n      jumpi\n      dup1\n      0x23b872dd\n      eq\n      tag_6\n      jumpi\n    tag_2:\n      0x00\n      dup1\n      revert\n        /* \"@openzeppelin/contracts/token/ERC20/ERC20.sol\":1760:1849  function name() public view virtual returns (string memory) {... */\n    tag_3:\n      tag_22\n      tag_23\n      jump\t// in\n    tag_22:\n      mload(0x40)\n      tag_24\n      swap2\n      swap1\n      tag_25\n      jump\t// in\n    tag_24:\n      mload(0x40)\n      dup1\n      swap2\n      sub\n      swap1\n      return\n        /* \"@openzeppelin/contracts/token/ERC20/ERC20.sol\":3979:4165  function approve(address spender, uint256 value) public virtual returns (bool) {... */\n    tag_4:\n      tag_26\n      0x04\n      dup1\n      calldatasize\n      sub\n      dup2\n      add\n      swap1\n      tag_27\n      swap2\n      swap1\n      tag_28\n      jump\t// in\n    tag_27:\n      tag_29\n      jump\t// in\n    tag_26:\n      mload(0x40)\n      tag_30\n      swap2\n      swap1\n      tag_31\n      jump\t// in\n    tag_30:\n      mload(0x40)\n      dup1\n      swap2\n      sub\n      swap1\n      return\n        /* \"@openzeppelin/contracts/token/ERC20/ERC20.sol\":2830:2927  function totalSupply() public view virtual returns (uint256) {... */\n    tag_5:\n      tag_32\n      tag_33\n      jump\t// in\n    tag_32:\n      mload(0x40)\n      tag_34\n      swap2\n      swap1\n      tag_35\n      jump\t// in\n    tag_34:\n      mload(0x40)\n      dup1\n      swap2\n      sub\n      swap1\n      return\n        /* \"@openzeppelin/contracts/token/ERC20/ERC20.sol\":4757:5001  function transferFrom(address from, address to, uint256 value) public virtual returns (bool) {... */\n    tag_6:\n      tag_36\n      0x04\n      dup1\n      calldatasize\n      sub\n      dup2\n      add\n      swap1\n      tag_37\n      swap2\n      swap1\n      tag_38\n      jump\t// in\n    tag_37:\n      tag_39\n      jump\t// in\n    tag_36:\n      mload(0x40)\n      tag_40\n      swap2\n      swap1\n      tag_31\n      jump\t// in\n    tag_40:\n      mload(0x40)\n      dup1\n      swap2\n      sub\n      swap1\n      return\n        /* \"@openzeppelin/contracts/token/ERC20/ERC20.sol\":2688:2770  function decimals() public view virtual returns (uint8) {... */\n    tag_7:\n      tag_41\n      tag_42\n      jump\t// in\n    tag_41:\n      mload(0x40)\n      tag_43\n      swap2\n      swap1\n      tag_44\n      jump\t// in\n    tag_43:\n      mload(0x40)\n      dup1\n      swap2\n      sub\n      swap1\n      return\n        /* \"@openzeppelin/contracts/token/ERC20/extensions/ERC20Capped.sol\":923:1004  function cap() public view virtual returns (uint256) {... */\n    tag_8:\n      tag_45\n      tag_46\n      jump\t// in\n    tag_45:\n      mload(0x40)\n      tag_47\n      swap2\n      swap1\n      tag_35\n      jump\t// in\n    tag_47:\n      mload(0x40)\n      dup1\n      swap2\n      sub\n      swap1\n      return\n        /* \"PulseToken.sol\":700:765  function unpause() external onlyOwner {... */\n    tag_9:\n      tag_48\n      tag_49\n      jump\t// in\n    tag_48:\n      stop\n        /* \"@openzeppelin/contracts/security/Pausable.sol\":1615:1699  function paused() public view virtual returns (bool) {... */\n    tag_10:\n      tag_50\n      tag_51\n      jump\t// in\n    tag_50:\n      mload(0x40)\n      tag_52\n      swap2\n      swap1\n      tag_31\n      jump\t// in\n    tag_52:\n      mload(0x40)\n      dup1\n      swap2\n      sub\n      swap1\n      return\n        /* \"@openzeppelin/contracts/token/ERC20/ERC20.sol\":2985:3101  function balanceOf(address account) public view virtual returns (uint256) {... */\n    tag_11:\n      tag_53\n      0x04\n      dup1\n      calldatasize\n      sub\n      dup2\n      add\n      swap1\n      tag_54\n      swap2\n      swap1\n      tag_55\n      jump\t// in\n    tag_54:\n      tag_56\n      jump\t// in\n    tag_53:\n      mload(0x40)\n      tag_57\n      swap2\n      swap1\n      tag_35\n      jump\t// in\n    tag_57:\n      mload(0x40)\n      dup1\n      swap2\n      sub\n      swap1\n      return\n        /* \"@openzeppelin/contracts/access/Ownable.sol\":2293:2394  function renounceOwnership() public virtual onlyOwner {... */\n    tag_12:\n      tag_58\n      tag_59\n      jump\t// in\n    tag_58:\n      stop\n        /* \"PulseToken.sol\":633:694  function pause() external onlyOwner {... */\n    tag_13:\n      tag_60\n      tag_61\n      jump\t// in\n    tag_60:\n      stop\n        /* \"@openzeppelin/contracts/access/Ownable.sol\":1638:1723  function owner() public view virtual returns (address) {... */\n    tag_14:\n      tag_62\n      tag_63\n      jump\t// in\n    tag_62:\n      mload(0x40)\n      tag_64\n      swap2\n      swap1\n      tag_65\n      jump\t// in\n    tag_64:\n      mload(0x40)\n      dup1\n      swap2\n      sub\n      swap1\n      return\n        /* \"@openzeppelin/contracts/token/ERC20/ERC20.sol\":1962:2055  function symbol() public view virtual returns (string memory) {... */\n    tag_15:\n      tag_66\n      tag_67\n      jump\t// in\n    tag_66:\n      mload(0x40)\n      tag_68\n      swap2\n      swap1\n      tag_25\n      jump\t// in\n    tag_68:\n      mload(0x40)\n      dup1\n      swap2\n      sub\n      swap1\n      return\n        /* \"@openzeppelin/contracts/token/ERC20/ERC20.sol\":3296:3474  function transfer(address to, uint256 value) public virtual returns (bool) {... */\n    tag_16:\n      tag_69\n      0x04\n      dup1\n      calldatasize\n      sub\n      dup2\n      add\n      swap1\n      tag_70\n      swap2\n      swap1\n      tag_28\n      jump\t// in\n    tag_70:\n      tag_71\n      jump\t// in\n    tag_69:\n      mload(0x40)\n      tag_72\n      swap2\n      swap1\n      tag_31\n      jump\t// in\n    tag_72:\n      mload(0x40)\n      dup1\n      swap2\n      sub\n      swap1\n      return\n        /* \"@openzeppelin/contracts/token/ERC20/ERC20.sol\":3532:3672  function allowance(address owner, address spender) public view virtual returns (uint256) {... */\n    tag_17:\n      tag_73\n      0x04\n      dup1\n      calldatasize\n      sub\n      dup2\n      add\n      swap1\n      tag_74\n      swap2\n      swap1\n      tag_75\n      jump\t// in\n    tag_74:\n      tag_76\n      jump\t// in\n    tag_73:\n      mload(0x40)\n      tag_77\n      swap2\n      swap1\n      tag_35\n      jump\t// in\n    tag_77:\n      mload(0x40)\n      dup1\n      swap2\n      sub\n      swap1\n      return\n        /* \"@openzeppelin/contracts/access/Ownable.sol\":2543:2758  function transferOwnership(address newOwner) public virtual onlyOwner {... */\n    tag_18:\n      tag_78\n      0x04\n      dup1\n      calldatasize\n      sub\n      dup2\n      add\n      swap1\n      tag_79\n      swap2\n      swap1\n      tag_55\n      jump\t// in\n    tag_79:\n      tag_80\n      jump\t// in\n    tag_78:\n      stop\n        /* \"@openzeppelin/contracts/token/ERC20/ERC20.sol\":1760:1849  function name() public view virtual returns (string memory) {... */\n    tag_23:\n        /* \"@openzeppelin/contracts/token/ERC20/ERC20.sol\":1805:1818  string memory */\n      0x60\n        /* \"@openzeppelin/contracts/token/ERC20/ERC20.sol\":1837:1842  _name */\n      0x03\n        /* \"@openzeppelin/contracts/token/ERC20/ERC20.sol\":1830:1842  return _name */\n      dup1\n      sload\n      tag_82\n      swap1\n      tag_83\n      jump\t// in\n    tag_82:\n      dup1\n      0x1f\n      add\n      0x20\n      dup1\n      swap2\n      div\n      mul\n      0x20\n      add\n      mload(0x40)\n      swap1\n      dup2\n      add\n      0x40\n      mstore\n      dup1\n      swap3\n      swap2\n      swap1\n      dup2\n      dup2\n      mstore\n      0x20\n      add\n      dup3\n      dup1\n      sload\n      tag_84\n      swap1\n      tag_83\n      jump\t// in\n    tag_84:\n      dup1\n      iszero\n      tag_85\n      jumpi\n      dup1\n      0x1f\n      lt\n      tag_86\n      jumpi\n      0x0100\n      dup1\n      dup4\n      sload\n      div\n      mul\n      dup4\n      mstore\n      swap2\n      0x20\n      add\n      swap2\n      jump(tag_85)\n    tag_86:\n      dup3\n      add\n      swap2\n      swap1\n      0x00\n      mstore\n      keccak256(0x00, 0x20)\n      swap1\n    tag_87:\n      dup2\n      sload\n      dup2\n      mstore\n      swap1\n      0x01\n      add\n      swap1\n      0x20\n      add\n      dup1\n      dup4\n      gt\n      tag_87\n      jumpi\n      dup3\n      swap1\n      sub\n      0x1f\n      and\n      dup3\n      add\n      swap2\n    tag_85:\n      pop\n      pop\n      pop\n      pop\n      pop\n      swap1\n      pop\n        /* \"@openzeppelin/contracts/token/ERC20/ERC20.sol\":1760:1849  function name() public view virtual returns (string memory) {... */\n      swap1\n      jump\t// out\n        /* \"@openzeppelin/contracts/token/ERC20/ERC20.sol\":3979:4165  function approve(address spender, uint256 value) public virtual returns (bool) {... */\n    tag_29:\n        /* \"@openzeppelin/contracts/token/ERC20/ERC20.sol\":4052:4056  bool */\n      0x00\n        /* \"@openzeppelin/contracts/token/ERC20/ERC20.sol\":4068:4081  address owner */\n      dup1\n        /* \"@openzeppelin/contracts/token/ERC20/ERC20.sol\":4084:4096  _msgSender() */\n      tag_89\n        /* \"@openzeppelin/contracts/token/ERC20/ERC20.sol\":4084:4094  _msgSender */\n      tag_90\n        /* \"@openzeppelin/contracts/token/ERC20/ERC20.sol\":4084:4096  _msgSender() */\n      jump\t// in\n    tag_89:\n        /* \"@openzeppelin/contracts/token/ERC20/ERC20.sol\":4068:4096  address owner = _msgSender() */\n      swap1\n      pop\n        /* \"@openzeppelin/contracts/token/ERC20/ERC20.sol\":4106:4137  _approve(owner, spender, value) */\n      tag_91\n        /* \"@openzeppelin/contracts/token/ERC20/ERC20.sol\":4115:4120  owner */\n      dup2\n        /* \"@openzeppelin/contracts/token/ERC20/ERC20.sol\":4122:4129  spender */\n      dup6\n        /* \"@openzeppelin/contracts/token/ERC20/ERC20.sol\":4131:4136  value */\n      dup6\n        /* \"@openzeppelin/contracts/token/ERC20/ERC20.sol\":4106:4114  _approve */\n      tag_92\n        /* \"@openzeppelin/contracts/token/ERC20/ERC20.sol\":4106:4137  _approve(owner, spender, value) */\n      jump\t// in\n    tag_91:\n        /* \"@openzeppelin/contracts/token/ERC20/ERC20.sol\":4154:4158  true */\n      0x01\n        /* \"@openzeppelin/contracts/token/ERC20/ERC20.sol\":4147:4158  return true */\n      swap2\n      pop\n      pop\n        /* \"@openzeppelin/contracts/token/ERC20/ERC20.sol\":3979:4165  function approve(address spender, uint256 value) public virtual returns (bool) {... */\n      swap3\n      swap2\n      pop\n      pop\n      jump\t// out\n        /* \"@openzeppelin/contracts/token/ERC20/ERC20.sol\":2830:2927  function totalSupply() public view virtual returns (uint256) {... */\n    tag_33:\n        /* \"@openzeppelin/contracts/token/ERC20/ERC20.sol\":2882:2889  uint256 */\n      0x00\n        /* \"@openzeppelin/contracts/token/ERC20/ERC20.sol\":2908:2920  _totalSupply */\n      sload(0x02)\n        /* \"@openzeppelin/contracts/token/ERC20/ERC20.sol\":2901:2920  return _totalSupply */\n      swap1\n      pop\n        /* \"@openzeppelin/contracts/token/ERC20/ERC20.sol\":2830:2927  function totalSupply() public view virtual returns (uint256) {... */\n      swap1\n      jump\t// out\n        /* \"@openzeppelin/contracts/token/ERC20/ERC20.sol\":4757:5001  function transferFrom(address from, address to, uint256 value) public virtual returns (bool) {... */\n    tag_39:\n        /* \"@openzeppelin/contracts/token/ERC20/ERC20.sol\":4844:4848  bool */\n      0x00\n        /* \"@openzeppelin/contracts/token/ERC20/ERC20.sol\":4860:4875  address spender */\n      dup1\n        /* \"@openzeppelin/contracts/token/ERC20/ERC20.sol\":4878:4890  _msgSender() */\n      tag_95\n        /* \"@openzeppelin/contracts/token/ERC20/ERC20.sol\":4878:4888  _msgSender */\n      tag_90\n        /* \"@openzeppelin/contracts/token/ERC20/ERC20.sol\":4878:4890  _msgSender() */\n      jump\t// in\n    tag_95:\n        /* \"@openzeppelin/contracts/token/ERC20/ERC20.sol\":4860:4890  address spender = _msgSender() */\n      swap1\n      pop\n        /* \"@openzeppelin/contracts/token/ERC20/ERC20.sol\":4900:4937  _spendAllowance(from, spender, value) */\n      tag_96\n        /* \"@openzeppelin/contracts/token/ERC20/ERC20.sol\":4916:4920  from */\n      dup6\n        /* \"@openzeppelin/contracts/token/ERC20/ERC20.sol\":4922:4929  spender */\n      dup3\n        /* \"@openzeppelin/contracts/token/ERC20/ERC20.sol\":4931:4936  value */\n      dup6\n        /* \"@openzeppelin/contracts/token/ERC20/ERC20.sol\":4900:4915  _spendAllowance */\n      tag_97\n        /* \"@openzeppelin/contracts/token/ERC20/ERC20.sol\":4900:4937  _spendAllowance(from, spender, value) */\n      jump\t// in\n    tag_96:\n        /* \"@openzeppelin/contracts/token/ERC20/ERC20.sol\":4947:4973  _transfer(from, to, value) */\n      tag_98\n        /* \"@openzeppelin/contracts/token/ERC20/ERC20.sol\":4957:4961  from */\n      dup6\n        /* \"@openzeppelin/contracts/token/ERC20/ERC20.sol\":4963:4965  to */\n      dup6\n        /* \"@openzeppelin/contracts/token/ERC20/ERC20.sol\":4967:4972  value */\n      dup6\n        /* \"@openzeppelin/contracts/token/ERC20/ERC20.sol\":4947:4956  _transfer */\n      tag_99\n        /* \"@openzeppelin/contracts/token/ERC20/ERC20.sol\":4947:4973  _transfer(from, to, value) */\n      jump\t// in\n    tag_98:\n        /* \"@openzeppelin/contracts/token/ERC20/ERC20.sol\":4990:4994  true */\n      0x01\n        /* \"@openzeppelin/contracts/token/ERC20/ERC20.sol\":4983:4994  return true */\n      swap2\n      pop\n      pop\n        /* \"@openzeppelin/contracts/token/ERC20/ERC20.sol\":4757:5001  function transferFrom(address from, address to, uint256 value) public virtual returns (bool) {... */\n      swap4\n      swap3\n      pop\n      pop\n      pop\n      jump\t// out\n        /* \"@openzeppelin/contracts/token/ERC20/ERC20.sol\":2688:2770  function decimals() public view virtual returns (uint8) {... */\n    tag_42:\n        /* \"@openzeppelin/contracts/token/ERC20/ERC20.sol\":2737:2742  uint8 */\n      0x00\n        /* \"@openzeppelin/contracts/token/ERC20/ERC20.sol\":2761:2763  18 */\n      0x12\n        /* \"@openzeppelin/contracts/token/ERC20/ERC20.sol\":2754:2763  return 18 */\n      swap1\n      pop\n        /* \"@openzeppelin/contracts/token/ERC20/ERC20.sol\":2688:2770  function decimals() public view virtual returns (uint8) {... */\n      swap1\n      jump\t// out\n        /* \"@openzeppelin/contracts/token/ERC20/extensions/ERC20Capped.sol\":923:1004  function cap() public view virtual returns (uint256) {... */\n    tag_46:\n        /* \"@openzeppelin/contracts/token/ERC20/extensions/ERC20Capped.sol\":967:974  uint256 */\n      0x00\n        /* \"@openzeppelin/contracts/token/ERC20/extensions/ERC20Capped.sol\":993:997  _cap */\n      immutable(\"0xa94eb21dc683b2617e70b464660e1d440b88a596ad8df201f6a0560b3aa241c4\")\n        /* \"@openzeppelin/contracts/token/ERC20/extensions/ERC20Capped.sol\":986:997  return _cap */\n      swap1\n      pop\n        /* \"@openzeppelin/contracts/token/ERC20/extensions/ERC20Capped.sol\":923:1004  function cap() public view virtual returns (uint256) {... */\n      swap1\n      jump\t// out\n        /* \"PulseToken.sol\":700:765  function unpause() external onlyOwner {... */\n    tag_49:\n        /* \"@openzeppelin/contracts/access/Ownable.sol\":1531:1544  _checkOwner() */\n      tag_103\n        /* \"@openzeppelin/contracts/access/Ownable.sol\":1531:1542  _checkOwner */\n      tag_104\n        /* \"@openzeppelin/contracts/access/Ownable.sol\":1531:1544  _checkOwner() */\n      jump\t// in\n    tag_103:\n        /* \"PulseToken.sol\":748:758  _unpause() */\n      tag_106\n        /* \"PulseToken.sol\":748:756  _unpause */\n      tag_107\n        /* \"PulseToken.sol\":748:758  _unpause() */\n      jump\t// in\n    tag_106:\n        /* \"PulseToken.sol\":700:765  function unpause() external onlyOwner {... */\n      jump\t// out\n        /* \"@openzeppelin/contracts/security/Pausable.sol\":1615:1699  function paused() public view virtual returns (bool) {... */\n    tag_51:\n        /* \"@openzeppelin/contracts/security/Pausable.sol\":1662:1666  bool */\n      0x00\n        /* \"@openzeppelin/contracts/security/Pausable.sol\":1685:1692  _paused */\n      0x05\n      0x00\n      swap1\n      sload\n      swap1\n      0x0100\n      exp\n      swap1\n      div\n      0xff\n      and\n        /* \"@openzeppelin/contracts/security/Pausable.sol\":1678:1692  return _paused */\n      swap1\n      pop\n        /* \"@openzeppelin/contracts/security/Pausable.sol\":1615:1699  function paused() public view virtual returns (bool) {... */\n      swap1\n      jump\t// out\n        /* \"@openzeppelin/contracts/token/ERC20/ERC20.sol\":2985:3101  function balanceOf(address account) public view virtual returns (uint256) {... */\n    tag_56:\n        /* \"@openzeppelin/contracts/token/ERC20/ERC20.sol\":3050:3057  uint256 */\n      0x00\n        /* \"@openzeppelin/contracts/token/ERC20/ERC20.sol\":3076:3085  _balances */\n      dup1\n        /* \"@openzeppelin/contracts/token/ERC20/ERC20.sol\":3076:3094  _balances[account] */\n      0x00\n        /* \"@openzeppelin/contracts/token/ERC20/ERC20.sol\":3086:3093  account */\n      dup4\n        /* \"@openzeppelin/contracts/token/ERC20/ERC20.sol\":3076:3094  _balances[account] */\n      0xffffffffffffffffffffffffffffffffffffffff\n      and\n      0xffffffffffffffffffffffffffffffffffffffff\n      and\n      dup2\n      mstore\n      0x20\n      add\n      swap1\n      dup2\n      mstore\n      0x20\n      add\n      0x00\n      keccak256\n      sload\n        /* \"@openzeppelin/contracts/token/ERC20/ERC20.sol\":3069:3094  return _balances[account] */\n      swap1\n      pop\n        /* \"@openzeppelin/contracts/token/ERC20/ERC20.sol\":2985:3101  function balanceOf(address account) public view virtual returns (uint256) {... */\n      swap2\n      swap1\n      pop\n      jump\t// out\n        /* \"@openzeppelin/contracts/access/Ownable.sol\":2293:2394  function renounceOwnership() public virtual onlyOwner {... */\n    tag_59:\n        /* \"@openzeppelin/contracts/access/Ownable.sol\":1531:1544  _checkOwner() */\n      tag_111\n        /* \"@openzeppelin/contracts/access/Ownable.sol\":1531:1542  _checkOwner */\n      tag_104\n        /* \"@openzeppelin/contracts/access/Ownable.sol\":1531:1544  _checkOwner() */\n      jump\t// in\n    tag_111:\n        /* \"@openzeppelin/contracts/access/Ownable.sol\":2357:2387  _transferOwnership(address(0)) */\n      tag_113\n        /* \"@openzeppelin/contracts/access/Ownable.sol\":2384:2385  0 */\n      0x00\n        /* \"@openzeppelin/contracts/access/Ownable.sol\":2357:2375  _transferOwnership */\n      tag_114\n        /* \"@openzeppelin/contracts/access/Ownable.sol\":2357:2387  _transferOwnership(address(0)) */\n      jump\t// in\n    tag_113:\n        /* \"@openzeppelin/contracts/access/Ownable.sol\":2293:2394  function renounceOwnership() public virtual onlyOwner {... */\n      jump\t// out\n        /* \"PulseToken.sol\":633:694  function pause() external onlyOwner {... */\n    tag_61:\n        /* \"@openzeppelin/contracts/access/Ownable.sol\":1531:1544  _checkOwner() */\n      tag_116\n        /* \"@openzeppelin/contracts/access/Ownable.sol\":1531:1542  _checkOwner */\n      tag_104\n        /* \"@openzeppelin/contracts/access/Ownable.sol\":1531:1544  _checkOwner() */\n      jump\t// in\n    tag_116:\n        /* \"PulseToken.sol\":679:687  _pause() */\n      tag_118\n        /* \"PulseToken.sol\":679:685  _pause */\n      tag_119\n        /* \"PulseToken.sol\":679:687  _pause() */\n      jump\t// in\n    tag_118:\n        /* \"PulseToken.sol\":633:694  function pause() external onlyOwner {... */\n      jump\t// out\n        /* \"@openzeppelin/contracts/access/Ownable.sol\":1638:1723  function owner() public view virtual returns (address) {... */\n    tag_63:\n        /* \"@openzeppelin/contracts/access/Ownable.sol\":1684:1691  address */\n      0x00\n        /* \"@openzeppelin/contracts/access/Ownable.sol\":1710:1716  _owner */\n      0x05\n      0x01\n      swap1\n      sload\n      swap1\n      0x0100\n      exp\n      swap1\n      div\n      0xffffffffffffffffffffffffffffffffffffffff\n      and\n        /* \"@openzeppelin/contracts/access/Ownable.sol\":1703:1716  return _owner */\n      swap1\n      pop\n        /* \"@openzeppelin/contracts/access/Ownable.sol\":1638:1723  function owner() public view virtual returns (address) {... */\n      swap1\n      jump\t// out\n        /* \"@openzeppelin/contracts/token/ERC20/ERC20.sol\":1962:2055  function symbol() public view virtual returns (string memory) {... */\n    tag_67:\n        /* \"@openzeppelin/contracts/token/ERC20/ERC20.sol\":2009:2022  string memory */\n      0x60\n        /* \"@openzeppelin/contracts/token/ERC20/ERC20.sol\":2041:2048  _symbol */\n      0x04\n        /* \"@openzeppelin/contracts/token/ERC20/ERC20.sol\":2034:2048  return _symbol */\n      dup1\n      sload\n      tag_122\n      swap1\n      tag_83\n      jump\t// in\n    tag_122:\n      dup1\n      0x1f\n      add\n      0x20\n      dup1\n      swap2\n      div\n      mul\n      0x20\n      add\n      mload(0x40)\n      swap1\n      dup2\n      add\n      0x40\n      mstore\n      dup1\n      swap3\n      swap2\n      swap1\n      dup2\n      dup2\n      mstore\n      0x20\n      add\n      dup3\n      dup1\n      sload\n      tag_123\n      swap1\n      tag_83\n      jump\t// in\n    tag_123:\n      dup1\n      iszero\n      tag_124\n      jumpi\n      dup1\n      0x1f\n      lt\n      tag_125\n      jumpi\n      0x0100\n      dup1\n      dup4\n      sload\n      div\n      mul\n      dup4\n      mstore\n      swap2\n      0x20\n      add\n      swap2\n      jump(tag_124)\n    tag_125:\n      dup3\n      add\n      swap2\n      swap1\n      0x00\n      mstore\n      keccak256(0x00, 0x20)\n      swap1\n    tag_126:\n      dup2\n      sload\n      dup2\n      mstore\n      swap1\n      0x01\n      add\n      swap1\n      0x20\n      add\n      dup1\n      dup4\n      gt\n      tag_126\n      jumpi\n      dup3\n      swap1\n      sub\n      0x1f\n      and\n      dup3\n      add\n      swap2\n    tag_124:\n      pop\n      pop\n      pop\n      pop\n      pop\n      swap1\n      pop\n        /* \"@openzeppelin/contracts/token/ERC20/ERC20.sol\":1962:2055  function symbol() public view virtual returns (string memory) {... */\n      swap1\n      jump\t// out\n        /* \"@openzeppelin/contracts/token/ERC20/ERC20.sol\":3296:3474  function transfer(address to, uint256 value) public virtual returns (bool) {... */\n    tag_71:\n        /* \"@openzeppelin/contracts/token/ERC20/ERC20.sol\":3365:3369  bool */\n      0x00\n        /* \"@openzeppelin/contracts/token/ERC20/ERC20.sol\":3381:3394  address owner */\n      dup1\n        /* \"@openzeppelin/contracts/token/ERC20/ERC20.sol\":3397:3409  _msgSender() */\n      tag_128\n        /* \"@openzeppelin/contracts/token/ERC20/ERC20.sol\":3397:3407  _msgSender */\n      tag_90\n        /* \"@openzeppelin/contracts/token/ERC20/ERC20.sol\":3397:3409  _msgSender() */\n      jump\t// in\n    tag_128:\n        /* \"@openzeppelin/contracts/token/ERC20/ERC20.sol\":3381:3409  address owner = _msgSender() */\n      swap1\n      pop\n        /* \"@openzeppelin/contracts/token/ERC20/ERC20.sol\":3419:3446  _transfer(owner, to, value) */\n      tag_129\n        /* \"@openzeppelin/contracts/token/ERC20/ERC20.sol\":3429:3434  owner */\n      dup2\n        /* \"@openzeppelin/contracts/token/ERC20/ERC20.sol\":3436:3438  to */\n      dup6\n        /* \"@openzeppelin/contracts/token/ERC20/ERC20.sol\":3440:3445  value */\n      dup6\n        /* \"@openzeppelin/contracts/token/ERC20/ERC20.sol\":3419:3428  _transfer */\n      tag_99\n        /* \"@openzeppelin/contracts/token/ERC20/ERC20.sol\":3419:3446  _transfer(owner, to, value) */\n      jump\t// in\n    tag_129:\n        /* \"@openzeppelin/contracts/token/ERC20/ERC20.sol\":3463:3467  true */\n      0x01\n        /* \"@openzeppelin/contracts/token/ERC20/ERC20.sol\":3456:3467  return true */\n      swap2\n      pop\n      pop\n        /* \"@openzeppelin/contracts/token/ERC20/ERC20.sol\":3296:3474  function transfer(address to, uint256 value) public virtual returns (bool) {... */\n      swap3\n      swap2\n      pop\n      pop\n      jump\t// out\n        /* \"@openzeppelin/contracts/token/ERC20/ERC20.sol\":3532:3672  function allowance(address owner, address spender) public view virtual returns (uint256) {... */\n    tag_76:\n        /* \"@openzeppelin/contracts/token/ERC20/ERC20.sol\":3612:3619  uint256 */\n      0x00\n        /* \"@openzeppelin/contracts/token/ERC20/ERC20.sol\":3638:3649  _allowances */\n      0x01\n        /* \"@openzeppelin/contracts/token/ERC20/ERC20.sol\":3638:3656  _allowances[owner] */\n      0x00\n        /* \"@openzeppelin/contracts/token/ERC20/ERC20.sol\":3650:3655  owner */\n      dup5\n        /* \"@openzeppelin/contracts/token/ERC20/ERC20.sol\":3638:3656  _allowances[owner] */\n      0xffffffffffffffffffffffffffffffffffffffff\n      and\n      0xffffffffffffffffffffffffffffffffffffffff\n      and\n      dup2\n      mstore\n      0x20\n      add\n      swap1\n      dup2\n      mstore\n      0x20\n      add\n      0x00\n      keccak256\n        /* \"@openzeppelin/contracts/token/ERC20/ERC20.sol\":3638:3665  _allowances[owner][spender] */\n      0x00\n        /* \"@openzeppelin/contracts/token/ERC20/ERC20.sol\":3657:3664  spender */\n      dup4\n        /* \"@openzeppelin/contracts/token/ERC20/ERC20.sol\":3638:3665  _allowances[owner][spender] */\n      0xffffffffffffffffffffffffffffffffffffffff\n      and\n      0xffffffffffffffffffffffffffffffffffffffff\n      and\n      dup2\n      mstore\n      0x20\n      add\n      swap1\n      dup2\n      mstore\n      0x20\n      add\n      0x00\n      keccak256\n      sload\n        /* \"@openzeppelin/contracts/token/ERC20/ERC20.sol\":3631:3665  return _allowances[owner][spender] */\n      swap1\n      pop\n        /* \"@openzeppelin/contracts/token/ERC20/ERC20.sol\":3532:3672  function allowance(address owner, address spender) public view virtual returns (uint256) {... */\n      swap3\n      swap2\n      pop\n      pop\n      jump\t// out\n        /* \"@openzeppelin/contracts/access/Ownable.sol\":2543:2758  function transferOwnership(address newOwner) public virtual onlyOwner {... */\n    tag_80:\n        /* \"@openzeppelin/contracts/access/Ownable.sol\":1531:1544  _checkOwner() */\n      tag_132\n        /* \"@openzeppelin/contracts/access/Ownable.sol\":1531:1542  _checkOwner */\n      tag_104\n        /* \"@openzeppelin/contracts/access/Ownable.sol\":1531:1544  _checkOwner() */\n      jump\t// in\n    tag_132:\n        /* \"@openzeppelin/contracts/access/Ownable.sol\":2647:2648  0 */\n      0x00\n        /* \"@openzeppelin/contracts/access/Ownable.sol\":2627:2649  newOwner == address(0) */\n      0xffffffffffffffffffffffffffffffffffffffff\n      and\n        /* \"@openzeppelin/contracts/access/Ownable.sol\":2627:2635  newOwner */\n      dup2\n        /* \"@openzeppelin/contracts/access/Ownable.sol\":2627:2649  newOwner == address(0) */\n      0xffffffffffffffffffffffffffffffffffffffff\n      and\n      sub\n        /* \"@openzeppelin/contracts/access/Ownable.sol\":2623:2714  if (newOwner == address(0)) {... */\n      tag_134\n      jumpi\n        /* \"@openzeppelin/contracts/access/Ownable.sol\":2700:2701  0 */\n      0x00\n        /* \"@openzeppelin/contracts/access/Ownable.sol\":2672:2703  OwnableInvalidOwner(address(0)) */\n      mload(0x40)\n      0x1e4fbdf700000000000000000000000000000000000000000000000000000000\n      dup2\n      mstore\n      0x04\n      add\n      tag_135\n      swap2\n      swap1\n      tag_65\n      jump\t// in\n    tag_135:\n      mload(0x40)\n      dup1\n      swap2\n      sub\n      swap1\n      revert\n        /* \"@openzeppelin/contracts/access/Ownable.sol\":2623:2714  if (newOwner == address(0)) {... */\n    tag_134:\n        /* \"@openzeppelin/contracts/access/Ownable.sol\":2723:2751  _transferOwnership(newOwner) */\n      tag_136\n        /* \"@openzeppelin/contracts/access/Ownable.sol\":2742:2750  newOwner */\n      dup2\n        /* \"@openzeppelin/contracts/access/Ownable.sol\":2723:2741  _transferOwnership */\n      tag_114\n        /* \"@openzeppelin/contracts/access/Ownable.sol\":2723:2751  _transferOwnership(newOwner) */\n      jump\t// in\n    tag_136:\n        /* \"@openzeppelin/contracts/access/Ownable.sol\":2543:2758  function transferOwnership(address newOwner) public virtual onlyOwner {... */\n      pop\n      jump\t// out\n        /* \"@openzeppelin/contracts/utils/Context.sol\":656:752  function _msgSender() internal view virtual returns (address) {... */\n    tag_90:\n        /* \"@openzeppelin/contracts/utils/Context.sol\":709:716  address */\n      0x00\n        /* \"@openzeppelin/contracts/utils/Context.sol\":735:745  msg.sender */\n      caller\n        /* \"@openzeppelin/contracts/utils/Context.sol\":728:745  return msg.sender */\n      swap1\n      pop\n        /* \"@openzeppelin/contracts/utils/Context.sol\":656:752  function _msgSender() internal view virtual returns (address) {... */\n      swap1\n      jump\t// out\n        /* \"@openzeppelin/contracts/token/ERC20/ERC20.sol\":8707:8835  function _approve(address owner, address spender, uint256 value) internal {... */\n    tag_92:\n        /* \"@openzeppelin/contracts/token/ERC20/ERC20.sol\":8791:8828  _approve(owner, spender, value, true) */\n      tag_139\n        /* \"@openzeppelin/contracts/token/ERC20/ERC20.sol\":8800:8805  owner */\n      dup4\n        /* \"@openzeppelin/contracts/token/ERC20/ERC20.sol\":8807:8814  spender */\n      dup4\n        /* \"@openzeppelin/contracts/token/ERC20/ERC20.sol\":8816:8821  value */\n      dup4\n        /* \"@openzeppelin/contracts/token/ERC20/ERC20.sol\":8823:8827  true */\n      0x01\n        /* \"@openzeppelin/contracts/token/ERC20/ERC20.sol\":8791:8799  _approve */\n      tag_140\n        /* \"@openzeppelin/contracts/token/ERC20/ERC20.sol\":8791:8828  _approve(owner, spender, value, true) */\n      jump\t// in\n    tag_139:\n        /* \"@openzeppelin/contracts/token/ERC20/ERC20.sol\":8707:8835  function _approve(address owner, address spender, uint256 value) internal {... */\n      pop\n      pop\n      pop\n      jump\t// out\n        /* \"@openzeppelin/contracts/token/ERC20/ERC20.sol\":10396:10872  function _spendAllowance(address owner, address spender, uint256 value) internal virtual {... */\n    tag_97:\n        /* \"@openzeppelin/contracts/token/ERC20/ERC20.sol\":10495:10519  uint256 currentAllowance */\n      0x00\n        /* \"@openzeppelin/contracts/token/ERC20/ERC20.sol\":10522:10547  allowance(owner, spender) */\n      tag_142\n        /* \"@openzeppelin/contracts/token/ERC20/ERC20.sol\":10532:10537  owner */\n      dup5\n        /* \"@openzeppelin/contracts/token/ERC20/ERC20.sol\":10539:10546  spender */\n      dup5\n        /* \"@openzeppelin/contracts/token/ERC20/ERC20.sol\":10522:10531  allowance */\n      tag_76\n        /* \"@openzeppelin/contracts/token/ERC20/ERC20.sol\":10522:10547  allowance(owner, spender) */\n      jump\t// in\n    tag_142:\n        /* \"@openzeppelin/contracts/token/ERC20/ERC20.sol\":10495:10547  uint256 currentAllowance = allowance(owner, spender) */\n      swap1\n      pop\n        /* \"@openzeppelin/contracts/token/ERC20/ERC20.sol\":10580:10597  type(uint256).max */\n      0xffffffffffffffffffffffffffffffffffffffffffffffffffffffffffffffff\n        /* \"@openzeppelin/contracts/token/ERC20/ERC20.sol\":10561:10577  currentAllowance */\n      dup2\n        /* \"@openzeppelin/contracts/token/ERC20/ERC20.sol\":10561:10597  currentAllowance < type(uint256).max */\n      lt\n        /* \"@openzeppelin/contracts/token/ERC20/ERC20.sol\":10557:10866  if (currentAllowance < type(uint256).max) {... */\n      iszero\n      tag_143\n      jumpi\n        /* \"@openzeppelin/contracts/token/ERC20/ERC20.sol\":10636:10641  value */\n      dup2\n        /* \"@openzeppelin/contracts/token/ERC20/ERC20.sol\":10617:10633  currentAllowance */\n      dup2\n        /* \"@openzeppelin/contracts/token/ERC20/ERC20.sol\":10617:10641  currentAllowance < value */\n      lt\n        /* \"@openzeppelin/contracts/token/ERC20/ERC20.sol\":10613:10743  if (currentAllowance < value) {... */\n      iszero\n      tag_144\n      jumpi\n        /* \"@openzeppelin/contracts/token/ERC20/ERC20.sol\":10695:10702  spender */\n      dup3\n        /* \"@openzeppelin/contracts/token/ERC20/ERC20.sol\":10704:10720  currentAllowance */\n      dup2\n        /* \"@openzeppelin/contracts/token/ERC20/ERC20.sol\":10722:10727  value */\n      dup4\n        /* \"@openzeppelin/contracts/token/ERC20/ERC20.sol\":10668:10728  ERC20InsufficientAllowance(spender, currentAllowance, value) */\n      mload(0x40)\n      0xfb8f41b200000000000000000000000000000000000000000000000000000000\n      dup2\n      mstore\n      0x04\n      add\n      tag_145\n      swap4\n      swap3\n      swap2\n      swap1\n      tag_146\n      jump\t// in\n    tag_145:\n      mload(0x40)\n      dup1\n      swap2\n      sub\n      swap1\n      revert\n        /* \"@openzeppelin/contracts/token/ERC20/ERC20.sol\":10613:10743  if (currentAllowance < value) {... */\n    tag_144:\n        /* \"@openzeppelin/contracts/token/ERC20/ERC20.sol\":10784:10841  _approve(owner, spender, currentAllowance - value, false) */\n      tag_147\n        /* \"@openzeppelin/contracts/token/ERC20/ERC20.sol\":10793:10798  owner */\n      dup5\n        /* \"@openzeppelin/contracts/token/ERC20/ERC20.sol\":10800:10807  spender */\n      dup5\n        /* \"@openzeppelin/contracts/token/ERC20/ERC20.sol\":10828:10833  value */\n      dup5\n        /* \"@openzeppelin/contracts/token/ERC20/ERC20.sol\":10809:10825  currentAllowance */\n      dup5\n        /* \"@openzeppelin/contracts/token/ERC20/ERC20.sol\":10809:10833  currentAllowance - value */\n      sub\n        /* \"@openzeppelin/contracts/token/ERC20/ERC20.sol\":10835:10840  false */\n      0x00\n        /* \"@openzeppelin/contracts/token/ERC20/ERC20.sol\":10784:10792  _approve */\n      tag_140\n        /* \"@openzeppelin/contracts/token/ERC20/ERC20.sol\":10784:10841  _approve(owner, spender, currentAllowance - value, false) */\n      jump\t// in\n    tag_147:\n        /* \"@openzeppelin/contracts/token/ERC20/ERC20.sol\":10557:10866  if (currentAllowance < type(uint256).max) {... */\n    tag_143:\n        /* \"@openzeppelin/contracts/token/ERC20/ERC20.sol\":10485:10872  {... */\n      pop\n        /* \"@openzeppelin/contracts/token/ERC20/ERC20.sol\":10396:10872  function _spendAllowance(address owner, address spender, uint256 value) internal virtual {... */\n      pop\n      pop\n      pop\n      jump\t// out\n        /* \"@openzeppelin/contracts/token/ERC20/ERC20.sol\":5374:5674  function _transfer(address from, address to, uint256 value) internal {... */\n    tag_99:\n        /* \"@openzeppelin/contracts/token/ERC20/ERC20.sol\":5473:5474  0 */\n      0x00\n        /* \"@openzeppelin/contracts/token/ERC20/ERC20.sol\":5457:5475  from == address(0) */\n      0xffffffffffffffffffffffffffffffffffffffff\n      and\n        /* \"@openzeppelin/contracts/token/ERC20/ERC20.sol\":5457:5461  from */\n      dup4\n        /* \"@openzeppelin/contracts/token/ERC20/ERC20.sol\":5457:5475  from == address(0) */\n      0xffffffffffffffffffffffffffffffffffffffff\n      and\n      sub\n        /* \"@openzeppelin/contracts/token/ERC20/ERC20.sol\":5453:5539  if (from == address(0)) {... */\n      tag_149\n      jumpi\n        /* \"@openzeppelin/contracts/token/ERC20/ERC20.sol\":5525:5526  0 */\n      0x00\n        /* \"@openzeppelin/contracts/token/ERC20/ERC20.sol\":5498:5528  ERC20InvalidSender(address(0)) */\n      mload(0x40)\n      0x96c6fd1e00000000000000000000000000000000000000000000000000000000\n      dup2\n      mstore\n      0x04\n      add\n      tag_150\n      swap2\n      swap1\n      tag_65\n      jump\t// in\n    tag_150:\n      mload(0x40)\n      dup1\n      swap2\n      sub\n      swap1\n      revert\n        /* \"@openzeppelin/contracts/token/ERC20/ERC20.sol\":5453:5539  if (from == address(0)) {... */\n    tag_149:\n        /* \"@openzeppelin/contracts/token/ERC20/ERC20.sol\":5566:5567  0 */\n      0x00\n        /* \"@openzeppelin/contracts/token/ERC20/ERC20.sol\":5552:5568  to == address(0) */\n      0xffffffffffffffffffffffffffffffffffffffff\n      and\n        /* \"@openzeppelin/contracts/token/ERC20/ERC20.sol\":5552:5554  to */\n      dup3\n        /* \"@openzeppelin/contracts/token/ERC20/ERC20.sol\":5552:5568  to == address(0) */\n      0xffffffffffffffffffffffffffffffffffffffff\n      and\n      sub\n        /* \"@openzeppelin/contracts/token/ERC20/ERC20.sol\":5548:5634  if (to == address(0)) {... */\n      tag_151\n      jumpi\n        /* \"@openzeppelin/contracts/token/ERC20/ERC20.sol\":5620:5621  0 */\n      0x00\n        /* \"@openzeppelin/contracts/token/ERC20/ERC20.sol\":5591:5623  ERC20InvalidReceiver(address(0)) */\n      mload(0x40)\n      0xec442f0500000000000000000000000000000000000000000000000000000000\n      dup2\n      mstore\n      0x04\n      add\n      tag_152\n      swap2\n      swap1\n      tag_65\n      jump\t// in\n    tag_152:\n      mload(0x40)\n      dup1\n      swap2\n      sub\n      swap1\n      revert\n        /* \"@openzeppelin/contracts/token/ERC20/ERC20.sol\":5548:5634  if (to == address(0)) {... */\n    tag_151:\n        /* \"@openzeppelin/contracts/token/ERC20/ERC20.sol\":5643:5667  _update(from, to, value) */\n      tag_153\n        /* \"@openzeppelin/contracts/token/ERC20/ERC20.sol\":5651:5655  from */\n      dup4\n        /* \"@openzeppelin/contracts/token/ERC20/ERC20.sol\":5657:5659  to */\n      dup4\n        /* \"@openzeppelin/contracts/token/ERC20/ERC20.sol\":5661:5666  value */\n      dup4\n        /* \"@openzeppelin/contracts/token/ERC20/ERC20.sol\":5643:5650  _update */\n      tag_154\n        /* \"@openzeppelin/contracts/token/ERC20/ERC20.sol\":5643:5667  _update(from, to, value) */\n      jump\t// in\n    tag_153:\n        /* \"@openzeppelin/contracts/token/ERC20/ERC20.sol\":5374:5674  function _transfer(address from, address to, uint256 value) internal {... */\n      pop\n      pop\n      pop\n      jump\t// out\n        /* \"@openzeppelin/contracts/access/Ownable.sol\":1796:1958  function _checkOwner() internal view virtual {... */\n    tag_104:\n        /* \"@openzeppelin/contracts/access/Ownable.sol\":1866:1878  _msgSender() */\n      tag_156\n        /* \"@openzeppelin/contracts/access/Ownable.sol\":1866:1876  _msgSender */\n      tag_90\n        /* \"@openzeppelin/contracts/access/Ownable.sol\":1866:1878  _msgSender() */\n      jump\t// in\n    tag_156:\n        /* \"@openzeppelin/contracts/access/Ownable.sol\":1855:1878  owner() != _msgSender() */\n      0xffffffffffffffffffffffffffffffffffffffff\n      and\n        /* \"@openzeppelin/contracts/access/Ownable.sol\":1855:1862  owner() */\n      tag_157\n        /* \"@openzeppelin/contracts/access/Ownable.sol\":1855:1860  owner */\n      tag_63\n        /* \"@openzeppelin/contracts/access/Ownable.sol\":1855:1862  owner() */\n      jump\t// in\n    tag_157:\n        /* \"@openzeppelin/contracts/access/Ownable.sol\":1855:1878  owner() != _msgSender() */\n      0xffffffffffffffffffffffffffffffffffffffff\n      and\n      eq\n        /* \"@openzeppelin/contracts/access/Ownable.sol\":1851:1952  if (owner() != _msgSender()) {... */\n      tag_158\n      jumpi\n        /* \"@openzeppelin/contracts/access/Ownable.sol\":1928:1940  _msgSender() */\n      tag_159\n        /* \"@openzeppelin/contracts/access/Ownable.sol\":1928:1938  _msgSender */\n      tag_90\n        /* \"@openzeppelin/contracts/access/Ownable.sol\":1928:1940  _msgSender() */\n      jump\t// in\n    tag_159:\n        /* \"@openzeppelin/contracts/access/Ownable.sol\":1901:1941  OwnableUnauthorizedAccount(_msgSender()) */\n      mload(0x40)\n      0x118cdaa700000000000000000000000000000000000000000000000000000000\n      dup2\n      mstore\n      0x04\n      add\n      tag_160\n      swap2\n      swap1\n      tag_65\n      jump\t// in\n    tag_160:\n      mload(0x40)\n      dup1\n      swap2\n      sub\n      swap1\n      revert\n        /* \"@openzeppelin/contracts/access/Ownable.sol\":1851:1952  if (owner() != _msgSender()) {... */\n    tag_158:\n        /* \"@openzeppelin/contracts/access/Ownable.sol\":1796:1958  function _checkOwner() internal view virtual {... */\n      jump\t// out\n        /* \"@openzeppelin/contracts/security/Pausable.sol\":2433:2550  function _unpause() internal virtual whenPaused {... */\n    tag_107:\n        /* \"@openzeppelin/contracts/security/Pausable.sol\":1486:1502  _requirePaused() */\n      tag_162\n        /* \"@openzeppelin/contracts/security/Pausable.sol\":1486:1500  _requirePaused */\n      tag_163\n        /* \"@openzeppelin/contracts/security/Pausable.sol\":1486:1502  _requirePaused() */\n      jump\t// in\n    tag_162:\n        /* \"@openzeppelin/contracts/security/Pausable.sol\":2501:2506  false */\n      0x00\n        /* \"@openzeppelin/contracts/security/Pausable.sol\":2491:2498  _paused */\n      0x05\n      0x00\n        /* \"@openzeppelin/contracts/security/Pausable.sol\":2491:2506  _paused = false */\n      0x0100\n      exp\n      dup2\n      sload\n      dup2\n      0xff\n      mul\n      not\n      and\n      swap1\n      dup4\n      iszero\n      iszero\n      mul\n      or\n      swap1\n      sstore\n      pop\n        /* \"@openzeppelin/contracts/security/Pausable.sol\":2521:2543  Unpaused(_msgSender()) */\n      0x5db9ee0a495bf2e6ff9c91a7834c1ba4fdd244a5e8aa4e537bd38aeae4b073aa\n        /* \"@openzeppelin/contracts/security/Pausable.sol\":2530:2542  _msgSender() */\n      tag_165\n        /* \"@openzeppelin/contracts/security/Pausable.sol\":2530:2540  _msgSender */\n      tag_90\n        /* \"@openzeppelin/contracts/security/Pausable.sol\":2530:2542  _msgSender() */\n      jump\t// in\n    tag_165:\n        /* \"@openzeppelin/contracts/security/Pausable.sol\":2521:2543  Unpaused(_msgSender()) */\n      mload(0x40)\n      tag_166\n      swap2\n      swap1\n      tag_65\n      jump\t// in\n    tag_166:\n      mload(0x40)\n      dup1\n      swap2\n      sub\n      swap1\n      log1\n        /* \"@openzeppelin/contracts/security/Pausable.sol\":2433:2550  function _unpause() internal virtual whenPaused {... */\n      jump\t// out\n        /* \"@openzeppelin/contracts/access/Ownable.sol\":2912:3099  function _transferOwnership(address newOwner) internal virtual {... */\n    tag_114:\n        /* \"@openzeppelin/contracts/access/Ownable.sol\":2985:3001  address oldOwner */\n      0x00\n        /* \"@openzeppelin/contracts/access/Ownable.sol\":3004:3010  _owner */\n      0x05\n      0x01\n      swap1\n      sload\n      swap1\n      0x0100\n      exp\n      swap1\n      div\n      0xffffffffffffffffffffffffffffffffffffffff\n      and\n        /* \"@openzeppelin/contracts/access/Ownable.sol\":2985:3010  address oldOwner = _owner */\n      swap1\n      pop\n        /* \"@openzeppelin/contracts/access/Ownable.sol\":3029:3037  newOwner */\n      dup2\n        /* \"@openzeppelin/contracts/access/Ownable.sol\":3020:3026  _owner */\n      0x05\n      0x01\n        /* \"@openzeppelin/contracts/access/Ownable.sol\":3020:3037  _owner = newOwner */\n      0x0100\n      exp\n      dup2\n      sload\n      dup2\n      0xffffffffffffffffffffffffffffffffffffffff\n      mul\n      not\n      and\n      swap1\n      dup4\n      0xffffffffffffffffffffffffffffffffffffffff\n      and\n      mul\n      or\n      swap1\n      sstore\n      pop\n        /* \"@openzeppelin/contracts/access/Ownable.sol\":3083:3091  newOwner */\n      dup2\n        /* \"@openzeppelin/contracts/access/Ownable.sol\":3052:3092  OwnershipTransferred(oldOwner, newOwner) */\n      0xffffffffffffffffffffffffffffffffffffffff\n      and\n        /* \"@openzeppelin/contracts/access/Ownable.sol\":3073:3081  oldOwner */\n      dup2\n        /* \"@openzeppelin/contracts/access/Ownable.sol\":3052:3092  OwnershipTransferred(oldOwner, newOwner) */\n      0xffffffffffffffffffffffffffffffffffffffff\n      and\n      0x8be0079c531659141344cd1fd0a4f28419497f9722a3daafe3b4186f6b6457e0\n      mload(0x40)\n      mload(0x40)\n      dup1\n      swap2\n      sub\n      swap1\n      log3\n        /* \"@openzeppelin/contracts/access/Ownable.sol\":2975:3099  {... */\n      pop\n        /* \"@openzeppelin/contracts/access/Ownable.sol\":2912:3099  function _transferOwnership(address newOwner) internal virtual {... */\n      pop\n      jump\t// out\n        /* \"@openzeppelin/contracts/security/Pausable.sol\":2186:2301  function _pause() internal virtual whenNotPaused {... */\n    tag_119:\n        /* \"@openzeppelin/contracts/security/Pausable.sol\":1239:1258  _requireNotPaused() */\n      tag_169\n        /* \"@openzeppelin/contracts/security/Pausable.sol\":1239:1256  _requireNotPaused */\n      tag_170\n        /* \"@openzeppelin/contracts/security/Pausable.sol\":1239:1258  _requireNotPaused() */\n      jump\t// in\n    tag_169:\n        /* \"@openzeppelin/contracts/security/Pausable.sol\":2255:2259  true */\n      0x01\n        /* \"@openzeppelin/contracts/security/Pausable.sol\":2245:2252  _paused */\n      0x05\n      0x00\n        /* \"@openzeppelin/contracts/security/Pausable.sol\":2245:2259  _paused = true */\n      0x0100\n      exp\n      dup2\n      sload\n      dup2\n      0xff\n      mul\n      not\n      and\n      swap1\n      dup4\n      iszero\n      iszero\n      mul\n      or\n      swap1\n      sstore\n      pop\n        /* \"@openzeppelin/contracts/security/Pausable.sol\":2274:2294  Paused(_msgSender()) */\n      0x62e78cea01bee320cd4e420270b5ea74000d11b0c9f74754ebdbfc544b05a258\n        /* \"@openzeppelin/contracts/security/Pausable.sol\":2281:2293  _msgSender() */\n      tag_172\n        /* \"@openzeppelin/contracts/security/Pausable.sol\":2281:2291  _msgSender */\n      tag_90\n        /* \"@openzeppelin/contracts/security/Pausable.sol\":2281:2293  _msgSender() */\n      jump\t// in\n    tag_172:\n        /* \"@openzeppelin/contracts/security/Pausable.sol\":2274:2294  Paused(_msgSender()) */\n      mload(0x40)\n      tag_173\n      swap2\n      swap1\n      tag_65\n      jump\t// in\n    tag_173:\n      mload(0x40)\n      dup1\n      swap2\n      sub\n      swap1\n      log1\n        /* \"@openzeppelin/contracts/security/Pausable.sol\":2186:2301  function _pause() internal virtual whenNotPaused {... */\n      jump\t// out\n        /* \"@openzeppelin/contracts/token/ERC20/ERC20.sol\":9682:10114  function _approve(address owner, address spender, uint256 value, bool emitEvent) internal virtual {... */\n    tag_140:\n        /* \"@openzeppelin/contracts/token/ERC20/ERC20.sol\":9811:9812  0 */\n      0x00\n        /* \"@openzeppelin/contracts/token/ERC20/ERC20.sol\":9794:9813  owner == address(0) */\n      0xffffffffffffffffffffffffffffffffffffffff\n      and\n        /* \"@openzeppelin/contracts/token/ERC20/ERC20.sol\":9794:9799  owner */\n      dup5\n        /* \"@openzeppelin/contracts/token/ERC20/ERC20.sol\":9794:9813  owner == address(0) */\n      0xffffffffffffffffffffffffffffffffffffffff\n      and\n      sub\n        /* \"@openzeppelin/contracts/token/ERC20/ERC20.sol\":9790:9879  if (owner == address(0)) {... */\n      tag_175\n      jumpi\n        /* \"@openzeppelin/contracts/token/ERC20/ERC20.sol\":9865:9866  0 */\n      0x00\n        /* \"@openzeppelin/contracts/token/ERC20/ERC20.sol\":9836:9868  ERC20InvalidApprover(address(0)) */\n      mload(0x40)\n      0xe602df0500000000000000000000000000000000000000000000000000000000\n      dup2\n      mstore\n      0x04\n      add\n      tag_176\n      swap2\n      swap1\n      tag_65\n      jump\t// in\n    tag_176:\n      mload(0x40)\n      dup1\n      swap2\n      sub\n      swap1\n      revert\n        /* \"@openzeppelin/contracts/token/ERC20/ERC20.sol\":9790:9879  if (owner == address(0)) {... */\n    tag_175:\n        /* \"@openzeppelin/contracts/token/ERC20/ERC20.sol\":9911:9912  0 */\n      0x00\n        /* \"@openzeppelin/contracts/token/ERC20/ERC20.sol\":9892:9913  spender == address(0) */\n      0xffffffffffffffffffffffffffffffffffffffff\n      and\n        /* \"@openzeppelin/contracts/token/ERC20/ERC20.sol\":9892:9899  spender */\n      dup4\n        /* \"@openzeppelin/contracts/token/ERC20/ERC20.sol\":9892:9913  spender == address(0) */\n      0xffffffffffffffffffffffffffffffffffffffff\n      and\n      sub\n        /* \"@openzeppelin/contracts/token/ERC20/ERC20.sol\":9888:9978  if (spender == address(0)) {... */\n      tag_177\n      jumpi\n        /* \"@openzeppelin/contracts/token/ERC20/ERC20.sol\":9964:9965  0 */\n      0x00\n        /* \"@openzeppelin/contracts/token/ERC20/ERC20.sol\":9936:9967  ERC20InvalidSpender(address(0)) */\n      mload(0x40)\n      0x94280d6200000000000000000000000000000000000000000000000000000000\n      dup2\n      mstore\n      0x04\n      add\n      tag_178\n      swap2\n      swap1\n      tag_65\n      jump\t// in\n    tag_178:\n      mload(0x40)\n      dup1\n      swap2\n      sub\n      swap1\n      revert\n        /* \"@openzeppelin/contracts/token/ERC20/ERC20.sol\":9888:9978  if (spender == address(0)) {... */\n    tag_177:\n        /* \"@openzeppelin/contracts/token/ERC20/ERC20.sol\":10017:10022  value */\n      dup2\n        /* \"@openzeppelin/contracts/token/ERC20/ERC20.sol\":9987:9998  _allowances */\n      0x01\n        /* \"@openzeppelin/contracts/token/ERC20/ERC20.sol\":9987:10005  _allowances[owner] */\n      0x00\n        /* \"@openzeppelin/contracts/token/ERC20/ERC20.sol\":9999:10004  owner */\n      dup7\n        /* \"@openzeppelin/contracts/token/ERC20/ERC20.sol\":9987:10005  _allowances[owner] */\n      0xffffffffffffffffffffffffffffffffffffffff\n      and\n      0xffffffffffffffffffffffffffffffffffffffff\n      and\n      dup2\n      mstore\n      0x20\n      add\n      swap1\n      dup2\n      mstore\n      0x20\n      add\n      0x00\n      keccak256\n        /* \"@openzeppelin/contracts/token/ERC20/ERC20.sol\":9987:10014  _allowances[owner][spender] */\n      0x00\n        /* \"@openzeppelin/contracts/token/ERC20/ERC20.sol\":10006:10013  spender */\n      dup6\n        /* \"@openzeppelin/contracts/token/ERC20/ERC20.sol\":9987:10014  _allowances[owner][spender] */\n      0xffffffffffffffffffffffffffffffffffffffff\n      and\n      0xffffffffffffffffffffffffffffffffffffffff\n      and\n      dup2\n      mstore\n      0x20\n      add\n      swap1\n      dup2\n      mstore\n      0x20\n      add\n      0x00\n      keccak256\n        /* \"@openzeppelin/contracts/token/ERC20/ERC20.sol\":9987:10022  _allowances[owner][spender] = value */\n      dup2\n      swap1\n      sstore\n      pop\n        /* \"@openzeppelin/contracts/token/ERC20/ERC20.sol\":10036:10045  emitEvent */\n      dup1\n        /* \"@openzeppelin/contracts/token/ERC20/ERC20.sol\":10032:10108  if (emitEvent) {... */\n      iszero\n      tag_179\n      jumpi\n        /* \"@openzeppelin/contracts/token/ERC20/ERC20.sol\":10082:10089  spender */\n      dup3\n        /* \"@openzeppelin/contracts/token/ERC20/ERC20.sol\":10066:10097  Approval(owner, spender, value) */\n      0xffffffffffffffffffffffffffffffffffffffff\n      and\n        /* \"@openzeppelin/contracts/token/ERC20/ERC20.sol\":10075:10080  owner */\n      dup5\n        /* \"@openzeppelin/contracts/token/ERC20/ERC20.sol\":10066:10097  Approval(owner, spender, value) */\n      0xffffffffffffffffffffffffffffffffffffffff\n      and\n      0x8c5be1e5ebec7d5bd14f71427d1e84f3dd0314c0f7b2291e5b200ac8c7c3b925\n        /* \"@openzeppelin/contracts/token/ERC20/ERC20.sol\":10091:10096  value */\n      dup5\n        /* \"@openzeppelin/contracts/token/ERC20/ERC20.sol\":10066:10097  Approval(owner, spender, value) */\n      mload(0x40)\n      tag_180\n      swap2\n      swap1\n      tag_35\n      jump\t// in\n    tag_180:\n      mload(0x40)\n      dup1\n      swap2\n      sub\n      swap1\n      log3\n        /* \"@openzeppelin/contracts/token/ERC20/ERC20.sol\":10032:10108  if (emitEvent) {... */\n    tag_179:\n        /* \"@openzeppelin/contracts/token/ERC20/ERC20.sol\":9682:10114  function _approve(address owner, address spender, uint256 value, bool emitEvent) internal virtual {... */\n      pop\n      pop\n      pop\n      pop\n      jump\t// out\n        /* \"PulseToken.sol\":771:991  function _update(address from, address to, uint256 amount)... */\n    tag_154:\n        /* \"PulseToken.sol\":907:915  paused() */\n      tag_182\n        /* \"PulseToken.sol\":907:913  paused */\n      tag_51\n        /* \"PulseToken.sol\":907:915  paused() */\n      jump\t// in\n    tag_182:\n        /* \"PulseToken.sol\":906:915  !paused() */\n      iszero\n        /* \"PulseToken.sol\":898:943  require(!paused(), \"Transferencias pausadas\") */\n      tag_183\n      jumpi\n      mload(0x40)\n      0x08c379a000000000000000000000000000000000000000000000000000000000\n      dup2\n      mstore\n      0x04\n      add\n      tag_184\n      swap1\n      tag_185\n      jump\t// in\n    tag_184:\n      mload(0x40)\n      dup1\n      swap2\n      sub\n      swap1\n      revert\n    tag_183:\n        /* \"PulseToken.sol\":953:984  super._update(from, to, amount) */\n      tag_186\n        /* \"PulseToken.sol\":967:971  from */\n      dup4\n        /* \"PulseToken.sol\":973:975  to */\n      dup4\n        /* \"PulseToken.sol\":977:983  amount */\n      dup4\n        /* \"PulseToken.sol\":953:966  super._update */\n      tag_187\n        /* \"PulseToken.sol\":953:984  super._update(from, to, amount) */\n      jump\t// in\n    tag_186:\n        /* \"PulseToken.sol\":771:991  function _update(address from, address to, uint256 amount)... */\n      pop\n      pop\n      pop\n      jump\t// out\n        /* \"@openzeppelin/contracts/security/Pausable.sol\":1945:2051  function _requirePaused() internal view virtual {... */\n    tag_163:\n        /* \"@openzeppelin/contracts/security/Pausable.sol\":2011:2019  paused() */\n      tag_189\n        /* \"@openzeppelin/contracts/security/Pausable.sol\":2011:2017  paused */\n      tag_51\n        /* \"@openzeppelin/contracts/security/Pausable.sol\":2011:2019  paused() */\n      jump\t// in\n    tag_189:\n        /* \"@openzeppelin/contracts/security/Pausable.sol\":2003:2044  require(paused(), \"Pausable: not paused\") */\n      tag_190\n      jumpi\n      mload(0x40)\n      0x08c379a000000000000000000000000000000000000000000000000000000000\n      dup2\n      mstore\n      0x04\n      add\n      tag_191\n      swap1\n      tag_192\n      jump\t// in\n    tag_191:\n      mload(0x40)\n      dup1\n      swap2\n      sub\n      swap1\n      revert\n    tag_190:\n        /* \"@openzeppelin/contracts/security/Pausable.sol\":1945:2051  function _requirePaused() internal view virtual {... */\n      jump\t// out\n        /* \"@openzeppelin/contracts/security/Pausable.sol\":1767:1873  function _requireNotPaused() internal view virtual {... */\n    tag_170:\n        /* \"@openzeppelin/contracts/security/Pausable.sol\":1837:1845  paused() */\n      tag_194\n        /* \"@openzeppelin/contracts/security/Pausable.sol\":1837:1843  paused */\n      tag_51\n        /* \"@openzeppelin/contracts/security/Pausable.sol\":1837:1845  paused() */\n      jump\t// in\n    tag_194:\n        /* \"@openzeppelin/contracts/security/Pausable.sol\":1836:1845  !paused() */\n      iszero\n        /* \"@openzeppelin/contracts/security/Pausable.sol\":1828:1866  require(!paused(), \"Pausable: paused\") */\n      tag_195\n      jumpi\n      mload(0x40)\n      0x08c379a000000000000000000000000000000000000000000000000000000000\n      dup2\n      mstore\n      0x04\n      add\n      tag_196\n      swap1\n      tag_197\n      jump\t// in\n    tag_196:\n      mload(0x40)\n      dup1\n      swap2\n      sub\n      swap1\n      revert\n    tag_195:\n        /* \"@openzeppelin/contracts/security/Pausable.sol\":1767:1873  function _requireNotPaused() internal view virtual {... */\n      jump\t// out\n        /* \"@openzeppelin/contracts/token/ERC20/extensions/ERC20Capped.sol\":1059:1430  function _update(address from, address to, uint256 value) internal virtual override {... */\n    tag_187:\n        /* \"@openzeppelin/contracts/token/ERC20/extensions/ERC20Capped.sol\":1153:1183  super._update(from, to, value) */\n      tag_199\n        /* \"@openzeppelin/contracts/token/ERC20/extensions/ERC20Capped.sol\":1167:1171  from */\n      dup4\n        /* \"@openzeppelin/contracts/token/ERC20/extensions/ERC20Capped.sol\":1173:1175  to */\n      dup4\n        /* \"@openzeppelin/contracts/token/ERC20/extensions/ERC20Capped.sol\":1177:1182  value */\n      dup4\n        /* \"@openzeppelin/contracts/token/ERC20/extensions/ERC20Capped.sol\":1153:1166  super._update */\n      tag_200\n        /* \"@openzeppelin/contracts/token/ERC20/extensions/ERC20Capped.sol\":1153:1183  super._update(from, to, value) */\n      jump\t// in\n    tag_199:\n        /* \"@openzeppelin/contracts/token/ERC20/extensions/ERC20Capped.sol\":1214:1215  0 */\n      0x00\n        /* \"@openzeppelin/contracts/token/ERC20/extensions/ERC20Capped.sol\":1198:1216  from == address(0) */\n      0xffffffffffffffffffffffffffffffffffffffff\n      and\n        /* \"@openzeppelin/contracts/token/ERC20/extensions/ERC20Capped.sol\":1198:1202  from */\n      dup4\n        /* \"@openzeppelin/contracts/token/ERC20/extensions/ERC20Capped.sol\":1198:1216  from == address(0) */\n      0xffffffffffffffffffffffffffffffffffffffff\n      and\n      sub\n        /* \"@openzeppelin/contracts/token/ERC20/extensions/ERC20Capped.sol\":1194:1424  if (from == address(0)) {... */\n      tag_201\n      jumpi\n        /* \"@openzeppelin/contracts/token/ERC20/extensions/ERC20Capped.sol\":1232:1249  uint256 maxSupply */\n      0x00\n        /* \"@openzeppelin/contracts/token/ERC20/extensions/ERC20Capped.sol\":1252:1257  cap() */\n      tag_202\n        /* \"@openzeppelin/contracts/token/ERC20/extensions/ERC20Capped.sol\":1252:1255  cap */\n      tag_46\n        /* \"@openzeppelin/contracts/token/ERC20/extensions/ERC20Capped.sol\":1252:1257  cap() */\n      jump\t// in\n    tag_202:\n        /* \"@openzeppelin/contracts/token/ERC20/extensions/ERC20Capped.sol\":1232:1257  uint256 maxSupply = cap() */\n      swap1\n      pop\n        /* \"@openzeppelin/contracts/token/ERC20/extensions/ERC20Capped.sol\":1271:1285  uint256 supply */\n      0x00\n        /* \"@openzeppelin/contracts/token/ERC20/extensions/ERC20Capped.sol\":1288:1301  totalSupply() */\n      tag_203\n        /* \"@openzeppelin/contracts/token/ERC20/extensions/ERC20Capped.sol\":1288:1299  totalSupply */\n      tag_33\n        /* \"@openzeppelin/contracts/token/ERC20/extensions/ERC20Capped.sol\":1288:1301  totalSupply() */\n      jump\t// in\n    tag_203:\n        /* \"@openzeppelin/contracts/token/ERC20/extensions/ERC20Capped.sol\":1271:1301  uint256 supply = totalSupply() */\n      swap1\n      pop\n        /* \"@openzeppelin/contracts/token/ERC20/extensions/ERC20Capped.sol\":1328:1337  maxSupply */\n      dup2\n        /* \"@openzeppelin/contracts/token/ERC20/extensions/ERC20Capped.sol\":1319:1325  supply */\n      dup2\n        /* \"@openzeppelin/contracts/token/ERC20/extensions/ERC20Capped.sol\":1319:1337  supply > maxSupply */\n      gt\n        /* \"@openzeppelin/contracts/token/ERC20/extensions/ERC20Capped.sol\":1315:1414  if (supply > maxSupply) {... */\n      iszero\n      tag_204\n      jumpi\n        /* \"@openzeppelin/contracts/token/ERC20/extensions/ERC20Capped.sol\":1381:1387  supply */\n      dup1\n        /* \"@openzeppelin/contracts/token/ERC20/extensions/ERC20Capped.sol\":1389:1398  maxSupply */\n      dup3\n        /* \"@openzeppelin/contracts/token/ERC20/extensions/ERC20Capped.sol\":1364:1399  ERC20ExceededCap(supply, maxSupply) */\n      mload(0x40)\n      0x9e79f85400000000000000000000000000000000000000000000000000000000\n      dup2\n      mstore\n      0x04\n      add\n      tag_205\n      swap3\n      swap2\n      swap1\n      tag_206\n      jump\t// in\n    tag_205:\n      mload(0x40)\n      dup1\n      swap2\n      sub\n      swap1\n      revert\n        /* \"@openzeppelin/contracts/token/ERC20/extensions/ERC20Capped.sol\":1315:1414  if (supply > maxSupply) {... */\n    tag_204:\n        /* \"@openzeppelin/contracts/token/ERC20/extensions/ERC20Capped.sol\":1218:1424  {... */\n      pop\n      pop\n        /* \"@openzeppelin/contracts/token/ERC20/extensions/ERC20Capped.sol\":1194:1424  if (from == address(0)) {... */\n    tag_201:\n        /* \"@openzeppelin/contracts/token/ERC20/extensions/ERC20Capped.sol\":1059:1430  function _update(address from, address to, uint256 value) internal virtual override {... */\n      pop\n      pop\n      pop\n      jump\t// out\n        /* \"@openzeppelin/contracts/token/ERC20/ERC20.sol\":5989:7096  function _update(address from, address to, uint256 value) internal virtual {... */\n    tag_200:\n        /* \"@openzeppelin/contracts/token/ERC20/ERC20.sol\":6094:6095  0 */\n      0x00\n        /* \"@openzeppelin/contracts/token/ERC20/ERC20.sol\":6078:6096  from == address(0) */\n      0xffffffffffffffffffffffffffffffffffffffff\n      and\n        /* \"@openzeppelin/contracts/token/ERC20/ERC20.sol\":6078:6082  from */\n      dup4\n        /* \"@openzeppelin/contracts/token/ERC20/ERC20.sol\":6078:6096  from == address(0) */\n      0xffffffffffffffffffffffffffffffffffffffff\n      and\n      sub\n        /* \"@openzeppelin/contracts/token/ERC20/ERC20.sol\":6074:6614  if (from == address(0)) {... */\n      tag_208\n      jumpi\n        /* \"@openzeppelin/contracts/token/ERC20/ERC20.sol\":6230:6235  value */\n      dup1\n        /* \"@openzeppelin/contracts/token/ERC20/ERC20.sol\":6214:6226  _totalSupply */\n      0x02\n      0x00\n        /* \"@openzeppelin/contracts/token/ERC20/ERC20.sol\":6214:6235  _totalSupply += value */\n      dup3\n      dup3\n      sload\n      tag_209\n      swap2\n      swap1\n      tag_210\n      jump\t// in\n    tag_209:\n      swap3\n      pop\n      pop\n      dup2\n      swap1\n      sstore\n      pop\n        /* \"@openzeppelin/contracts/token/ERC20/ERC20.sol\":6074:6614  if (from == address(0)) {... */\n      jump(tag_211)\n    tag_208:\n        /* \"@openzeppelin/contracts/token/ERC20/ERC20.sol\":6266:6285  uint256 fromBalance */\n      0x00\n        /* \"@openzeppelin/contracts/token/ERC20/ERC20.sol\":6288:6297  _balances */\n      dup1\n        /* \"@openzeppelin/contracts/token/ERC20/ERC20.sol\":6288:6303  _balances[from] */\n      0x00\n        /* \"@openzeppelin/contracts/token/ERC20/ERC20.sol\":6298:6302  from */\n      dup6\n        /* \"@openzeppelin/contracts/token/ERC20/ERC20.sol\":6288:6303  _balances[from] */\n      0xffffffffffffffffffffffffffffffffffffffff\n      and\n      0xffffffffffffffffffffffffffffffffffffffff\n      and\n      dup2\n      mstore\n      0x20\n      add\n      swap1\n      dup2\n      mstore\n      0x20\n      add\n      0x00\n      keccak256\n      sload\n        /* \"@openzeppelin/contracts/token/ERC20/ERC20.sol\":6266:6303  uint256 fromBalance = _balances[from] */\n      swap1\n      pop\n        /* \"@openzeppelin/contracts/token/ERC20/ERC20.sol\":6335:6340  value */\n      dup2\n        /* \"@openzeppelin/contracts/token/ERC20/ERC20.sol\":6321:6332  fromBalance */\n      dup2\n        /* \"@openzeppelin/contracts/token/ERC20/ERC20.sol\":6321:6340  fromBalance < value */\n      lt\n        /* \"@openzeppelin/contracts/token/ERC20/ERC20.sol\":6317:6432  if (fromBalance < value) {... */\n      iszero\n      tag_212\n      jumpi\n        /* \"@openzeppelin/contracts/token/ERC20/ERC20.sol\":6392:6396  from */\n      dup4\n        /* \"@openzeppelin/contracts/token/ERC20/ERC20.sol\":6398:6409  fromBalance */\n      dup2\n        /* \"@openzeppelin/contracts/token/ERC20/ERC20.sol\":6411:6416  value */\n      dup4\n        /* \"@openzeppelin/contracts/token/ERC20/ERC20.sol\":6367:6417  ERC20InsufficientBalance(from, fromBalance, value) */\n      mload(0x40)\n      0xe450d38c00000000000000000000000000000000000000000000000000000000\n      dup2\n      mstore\n      0x04\n      add\n      tag_213\n      swap4\n      swap3\n      swap2\n      swap1\n      tag_146\n      jump\t// in\n    tag_213:\n      mload(0x40)\n      dup1\n      swap2\n      sub\n      swap1\n      revert\n        /* \"@openzeppelin/contracts/token/ERC20/ERC20.sol\":6317:6432  if (fromBalance < value) {... */\n    tag_212:\n        /* \"@openzeppelin/contracts/token/ERC20/ERC20.sol\":6584:6589  value */\n      dup2\n        /* \"@openzeppelin/contracts/token/ERC20/ERC20.sol\":6570:6581  fromBalance */\n      dup2\n        /* \"@openzeppelin/contracts/token/ERC20/ERC20.sol\":6570:6589  fromBalance - value */\n      sub\n        /* \"@openzeppelin/contracts/token/ERC20/ERC20.sol\":6552:6561  _balances */\n      0x00\n        /* \"@openzeppelin/contracts/token/ERC20/ERC20.sol\":6552:6567  _balances[from] */\n      dup1\n        /* \"@openzeppelin/contracts/token/ERC20/ERC20.sol\":6562:6566  from */\n      dup7\n        /* \"@openzeppelin/contracts/token/ERC20/ERC20.sol\":6552:6567  _balances[from] */\n      0xffffffffffffffffffffffffffffffffffffffff\n      and\n      0xffffffffffffffffffffffffffffffffffffffff\n      and\n      dup2\n      mstore\n      0x20\n      add\n      swap1\n      dup2\n      mstore\n      0x20\n      add\n      0x00\n      keccak256\n        /* \"@openzeppelin/contracts/token/ERC20/ERC20.sol\":6552:6589  _balances[from] = fromBalance - value */\n      dup2\n      swap1\n      sstore\n      pop\n        /* \"@openzeppelin/contracts/token/ERC20/ERC20.sol\":6252:6614  {... */\n      pop\n        /* \"@openzeppelin/contracts/token/ERC20/ERC20.sol\":6074:6614  if (from == address(0)) {... */\n    tag_211:\n        /* \"@openzeppelin/contracts/token/ERC20/ERC20.sol\":6642:6643  0 */\n      0x00\n        /* \"@openzeppelin/contracts/token/ERC20/ERC20.sol\":6628:6644  to == address(0) */\n      0xffffffffffffffffffffffffffffffffffffffff\n      and\n        /* \"@openzeppelin/contracts/token/ERC20/ERC20.sol\":6628:6630  to */\n      dup3\n        /* \"@openzeppelin/contracts/token/ERC20/ERC20.sol\":6628:6644  to == address(0) */\n      0xffffffffffffffffffffffffffffffffffffffff\n      and\n      sub\n        /* \"@openzeppelin/contracts/token/ERC20/ERC20.sol\":6624:7049  if (to == address(0)) {... */\n      tag_214\n      jumpi\n        /* \"@openzeppelin/contracts/token/ERC20/ERC20.sol\":6807:6812  value */\n      dup1\n        /* \"@openzeppelin/contracts/token/ERC20/ERC20.sol\":6791:6803  _totalSupply */\n      0x02\n      0x00\n        /* \"@openzeppelin/contracts/token/ERC20/ERC20.sol\":6791:6812  _totalSupply -= value */\n      dup3\n      dup3\n      sload\n      sub\n      swap3\n      pop\n      pop\n      dup2\n      swap1\n      sstore\n      pop\n        /* \"@openzeppelin/contracts/token/ERC20/ERC20.sol\":6624:7049  if (to == address(0)) {... */\n      jump(tag_215)\n    tag_214:\n        /* \"@openzeppelin/contracts/token/ERC20/ERC20.sol\":7019:7024  value */\n      dup1\n        /* \"@openzeppelin/contracts/token/ERC20/ERC20.sol\":7002:7011  _balances */\n      0x00\n        /* \"@openzeppelin/contracts/token/ERC20/ERC20.sol\":7002:7015  _balances[to] */\n      dup1\n        /* \"@openzeppelin/contracts/token/ERC20/ERC20.sol\":7012:7014  to */\n      dup5\n        /* \"@openzeppelin/contracts/token/ERC20/ERC20.sol\":7002:7015  _balances[to] */\n      0xffffffffffffffffffffffffffffffffffffffff\n      and\n      0xffffffffffffffffffffffffffffffffffffffff\n      and\n      dup2\n      mstore\n      0x20\n      add\n      swap1\n      dup2\n      mstore\n      0x20\n      add\n      0x00\n      keccak256\n      0x00\n        /* \"@openzeppelin/contracts/token/ERC20/ERC20.sol\":7002:7024  _balances[to] += value */\n      dup3\n      dup3\n      sload\n      add\n      swap3\n      pop\n      pop\n      dup2\n      swap1\n      sstore\n      pop\n        /* \"@openzeppelin/contracts/token/ERC20/ERC20.sol\":6624:7049  if (to == address(0)) {... */\n    tag_215:\n        /* \"@openzeppelin/contracts/token/ERC20/ERC20.sol\":7079:7081  to */\n      dup2\n        /* \"@openzeppelin/contracts/token/ERC20/ERC20.sol\":7064:7089  Transfer(from, to, value) */\n      0xffffffffffffffffffffffffffffffffffffffff\n      and\n        /* \"@openzeppelin/contracts/token/ERC20/ERC20.sol\":7073:7077  from */\n      dup4\n        /* \"@openzeppelin/contracts/token/ERC20/ERC20.sol\":7064:7089  Transfer(from, to, value) */\n      0xffffffffffffffffffffffffffffffffffffffff\n      and\n      0xddf252ad1be2c89b69c2b068fc378daa952ba7f163c4a11628f55a4df523b3ef\n        /* \"@openzeppelin/contracts/token/ERC20/ERC20.sol\":7083:7088  value */\n      dup4\n        /* \"@openzeppelin/contracts/token/ERC20/ERC20.sol\":7064:7089  Transfer(from, to, value) */\n      mload(0x40)\n      tag_216\n      swap2\n      swap1\n      tag_35\n      jump\t// in\n    tag_216:\n      mload(0x40)\n      dup1\n      swap2\n      sub\n      swap1\n      log3\n        /* \"@openzeppelin/contracts/token/ERC20/ERC20.sol\":5989:7096  function _update(address from, address to, uint256 value) internal virtual {... */\n      pop\n      pop\n      pop\n      jump\t// out\n        /* \"#utility.yul\":7:106   */\n    tag_217:\n        /* \"#utility.yul\":59:65   */\n      0x00\n        /* \"#utility.yul\":93:98   */\n      dup2\n        /* \"#utility.yul\":87:99   */\n      mload\n        /* \"#utility.yul\":77:99   */\n      swap1\n      pop\n        /* \"#utility.yul\":7:106   */\n      swap2\n      swap1\n      pop\n      jump\t// out\n        /* \"#utility.yul\":112:281   */\n    tag_218:\n        /* \"#utility.yul\":196:207   */\n      0x00\n        /* \"#utility.yul\":230:236   */\n      dup3\n        /* \"#utility.yul\":225:228   */\n      dup3\n        /* \"#utility.yul\":218:237   */\n      mstore\n        /* \"#utility.yul\":270:274   */\n      0x20\n        /* \"#utility.yul\":265:268   */\n      dup3\n        /* \"#utility.yul\":261:275   */\n      add\n        /* \"#utility.yul\":246:275   */\n      swap1\n      pop\n        /* \"#utility.yul\":112:281   */\n      swap3\n      swap2\n      pop\n      pop\n      jump\t// out\n        /* \"#utility.yul\":287:533   */\n    tag_219:\n        /* \"#utility.yul\":368:369   */\n      0x00\n        /* \"#utility.yul\":378:491   */\n    tag_250:\n        /* \"#utility.yul\":392:398   */\n      dup4\n        /* \"#utility.yul\":389:390   */\n      dup2\n        /* \"#utility.yul\":386:399   */\n      lt\n        /* \"#utility.yul\":378:491   */\n      iszero\n      tag_252\n      jumpi\n        /* \"#utility.yul\":477:478   */\n      dup1\n        /* \"#utility.yul\":472:475   */\n      dup3\n        /* \"#utility.yul\":468:479   */\n      add\n        /* \"#utility.yul\":462:480   */\n      mload\n        /* \"#utility.yul\":458:459   */\n      dup2\n        /* \"#utility.yul\":453:456   */\n      dup5\n        /* \"#utility.yul\":449:460   */\n      add\n        /* \"#utility.yul\":442:481   */\n      mstore\n        /* \"#utility.yul\":414:416   */\n      0x20\n        /* \"#utility.yul\":411:412   */\n      dup2\n        /* \"#utility.yul\":407:417   */\n      add\n        /* \"#utility.yul\":402:417   */\n      swap1\n      pop\n        /* \"#utility.yul\":378:491   */\n      jump(tag_250)\n    tag_252:\n        /* \"#utility.yul\":525:526   */\n      0x00\n        /* \"#utility.yul\":516:522   */\n      dup5\n        /* \"#utility.yul\":511:514   */\n      dup5\n        /* \"#utility.yul\":507:523   */\n      add\n        /* \"#utility.yul\":500:527   */\n      mstore\n        /* \"#utility.yul\":349:533   */\n      pop\n        /* \"#utility.yul\":287:533   */\n      pop\n      pop\n      pop\n      jump\t// out\n        /* \"#utility.yul\":539:641   */\n    tag_220:\n        /* \"#utility.yul\":580:586   */\n      0x00\n        /* \"#utility.yul\":631:633   */\n      0x1f\n        /* \"#utility.yul\":627:634   */\n      not\n        /* \"#utility.yul\":622:624   */\n      0x1f\n        /* \"#utility.yul\":615:620   */\n      dup4\n        /* \"#utility.yul\":611:625   */\n      add\n        /* \"#utility.yul\":607:635   */\n      and\n        /* \"#utility.yul\":597:635   */\n      swap1\n      pop\n        /* \"#utility.yul\":539:641   */\n      swap2\n      swap1\n      pop\n      jump\t// out\n        /* \"#utility.yul\":647:1024   */\n    tag_221:\n        /* \"#utility.yul\":735:738   */\n      0x00\n        /* \"#utility.yul\":763:802   */\n      tag_255\n        /* \"#utility.yul\":796:801   */\n      dup3\n        /* \"#utility.yul\":763:802   */\n      tag_217\n      jump\t// in\n    tag_255:\n        /* \"#utility.yul\":818:889   */\n      tag_256\n        /* \"#utility.yul\":882:888   */\n      dup2\n        /* \"#utility.yul\":877:880   */\n      dup6\n        /* \"#utility.yul\":818:889   */\n      tag_218\n      jump\t// in\n    tag_256:\n        /* \"#utility.yul\":811:889   */\n      swap4\n      pop\n        /* \"#utility.yul\":898:963   */\n      tag_257\n        /* \"#utility.yul\":956:962   */\n      dup2\n        /* \"#utility.yul\":951:954   */\n      dup6\n        /* \"#utility.yul\":944:948   */\n      0x20\n        /* \"#utility.yul\":937:942   */\n      dup7\n        /* \"#utility.yul\":933:949   */\n      add\n        /* \"#utility.yul\":898:963   */\n      tag_219\n      jump\t// in\n    tag_257:\n        /* \"#utility.yul\":988:1017   */\n      tag_258\n        /* \"#utility.yul\":1010:1016   */\n      dup2\n        /* \"#utility.yul\":988:1017   */\n      tag_220\n      jump\t// in\n    tag_258:\n        /* \"#utility.yul\":983:986   */\n      dup5\n        /* \"#utility.yul\":979:1018   */\n      add\n        /* \"#utility.yul\":972:1018   */\n      swap2\n      pop\n        /* \"#utility.yul\":739:1024   */\n      pop\n        /* \"#utility.yul\":647:1024   */\n      swap3\n      swap2\n      pop\n      pop\n      jump\t// out\n        /* \"#utility.yul\":1030:1343   */\n    tag_25:\n        /* \"#utility.yul\":1143:1147   */\n      0x00\n        /* \"#utility.yul\":1181:1183   */\n      0x20\n        /* \"#utility.yul\":1170:1179   */\n      dup3\n        /* \"#utility.yul\":1166:1184   */\n      add\n        /* \"#utility.yul\":1158:1184   */\n      swap1\n      pop\n        /* \"#utility.yul\":1230:1239   */\n      dup2\n        /* \"#utility.yul\":1224:1228   */\n      dup2\n        /* \"#utility.yul\":1220:1240   */\n      sub\n        /* \"#utility.yul\":1216:1217   */\n      0x00\n        /* \"#utility.yul\":1205:1214   */\n      dup4\n        /* \"#utility.yul\":1201:1218   */\n      add\n        /* \"#utility.yul\":1194:1241   */\n      mstore\n        /* \"#utility.yul\":1258:1336   */\n      tag_260\n        /* \"#utility.yul\":1331:1335   */\n      dup2\n        /* \"#utility.yul\":1322:1328   */\n      dup5\n        /* \"#utility.yul\":1258:1336   */\n      tag_221\n      jump\t// in\n    tag_260:\n        /* \"#utility.yul\":1250:1336   */\n      swap1\n      pop\n        /* \"#utility.yul\":1030:1343   */\n      swap3\n      swap2\n      pop\n      pop\n      jump\t// out\n        /* \"#utility.yul\":1430:1547   */\n    tag_223:\n        /* \"#utility.yul\":1539:1540   */\n      0x00\n        /* \"#utility.yul\":1536:1537   */\n      dup1\n        /* \"#utility.yul\":1529:1541   */\n      revert\n        /* \"#utility.yul\":1676:1802   */\n    tag_225:\n        /* \"#utility.yul\":1713:1720   */\n      0x00\n        /* \"#utility.yul\":1753:1795   */\n      0xffffffffffffffffffffffffffffffffffffffff\n        /* \"#utility.yul\":1746:1751   */\n      dup3\n        /* \"#utility.yul\":1742:1796   */\n      and\n        /* \"#utility.yul\":1731:1796   */\n      swap1\n      pop\n        /* \"#utility.yul\":1676:1802   */\n      swap2\n      swap1\n      pop\n      jump\t// out\n        /* \"#utility.yul\":1808:1904   */\n    tag_226:\n        /* \"#utility.yul\":1845:1852   */\n      0x00\n        /* \"#utility.yul\":1874:1898   */\n      tag_266\n        /* \"#utility.yul\":1892:1897   */\n      dup3\n        /* \"#utility.yul\":1874:1898   */\n      tag_225\n      jump\t// in\n    tag_266:\n        /* \"#utility.yul\":1863:1898   */\n      swap1\n      pop\n        /* \"#utility.yul\":1808:1904   */\n      swap2\n      swap1\n      pop\n      jump\t// out\n        /* \"#utility.yul\":1910:2032   */\n    tag_227:\n        /* \"#utility.yul\":1983:2007   */\n      tag_268\n        /* \"#utility.yul\":2001:2006   */\n      dup2\n        /* \"#utility.yul\":1983:2007   */\n      tag_226\n      jump\t// in\n    tag_268:\n        /* \"#utility.yul\":1976:1981   */\n      dup2\n        /* \"#utility.yul\":1973:2008   */\n      eq\n        /* \"#utility.yul\":1963:2026   */\n      tag_269\n      jumpi\n        /* \"#utility.yul\":2022:2023   */\n      0x00\n        /* \"#utility.yul\":2019:2020   */\n      dup1\n        /* \"#utility.yul\":2012:2024   */\n      revert\n        /* \"#utility.yul\":1963:2026   */\n    tag_269:\n        /* \"#utility.yul\":1910:2032   */\n      pop\n      jump\t// out\n        /* \"#utility.yul\":2038:2177   */\n    tag_228:\n        /* \"#utility.yul\":2084:2089   */\n      0x00\n        /* \"#utility.yul\":2122:2128   */\n      dup2\n        /* \"#utility.yul\":2109:2129   */\n      calldataload\n        /* \"#utility.yul\":2100:2129   */\n      swap1\n      pop\n        /* \"#utility.yul\":2138:2171   */\n      tag_271\n        /* \"#utility.yul\":2165:2170   */\n      dup2\n        /* \"#utility.yul\":2138:2171   */\n      tag_227\n      jump\t// in\n    tag_271:\n        /* \"#utility.yul\":2038:2177   */\n      swap3\n      swap2\n      pop\n      pop\n      jump\t// out\n        /* \"#utility.yul\":2183:2260   */\n    tag_229:\n        /* \"#utility.yul\":2220:2227   */\n      0x00\n        /* \"#utility.yul\":2249:2254   */\n      dup2\n        /* \"#utility.yul\":2238:2254   */\n      swap1\n      pop\n        /* \"#utility.yul\":2183:2260   */\n      swap2\n      swap1\n      pop\n      jump\t// out\n        /* \"#utility.yul\":2266:2388   */\n    tag_230:\n        /* \"#utility.yul\":2339:2363   */\n      tag_274\n        /* \"#utility.yul\":2357:2362   */\n      dup2\n        /* \"#utility.yul\":2339:2363   */\n      tag_229\n      jump\t// in\n    tag_274:\n        /* \"#utility.yul\":2332:2337   */\n      dup2\n        /* \"#utility.yul\":2329:2364   */\n      eq\n        /* \"#utility.yul\":2319:2382   */\n      tag_275\n      jumpi\n        /* \"#utility.yul\":2378:2379   */\n      0x00\n        /* \"#utility.yul\":2375:2376   */\n      dup1\n        /* \"#utility.yul\":2368:2380   */\n      revert\n        /* \"#utility.yul\":2319:2382   */\n    tag_275:\n        /* \"#utility.yul\":2266:2388   */\n      pop\n      jump\t// out\n        /* \"#utility.yul\":2394:2533   */\n    tag_231:\n        /* \"#utility.yul\":2440:2445   */\n      0x00\n        /* \"#utility.yul\":2478:2484   */\n      dup2\n        /* \"#utility.yul\":2465:2485   */\n      calldataload\n        /* \"#utility.yul\":2456:2485   */\n      swap1\n      pop\n        /* \"#utility.yul\":2494:2527   */\n      tag_277\n        /* \"#utility.yul\":2521:2526   */\n      dup2\n        /* \"#utility.yul\":2494:2527   */\n      tag_230\n      jump\t// in\n    tag_277:\n        /* \"#utility.yul\":2394:2533   */\n      swap3\n      swap2\n      pop\n      pop\n      jump\t// out\n        /* \"#utility.yul\":2539:3013   */\n    tag_28:\n        /* \"#utility.yul\":2607:2613   */\n      0x00\n        /* \"#utility.yul\":2615:2621   */\n      dup1\n        /* \"#utility.yul\":2664:2666   */\n      0x40\n        /* \"#utility.yul\":2652:2661   */\n      dup4\n        /* \"#utility.yul\":2643:2650   */\n      dup6\n        /* \"#utility.yul\":2639:2662   */\n      sub\n        /* \"#utility.yul\":2635:2667   */\n      slt\n        /* \"#utility.yul\":2632:2751   */\n      iszero\n      tag_279\n      jumpi\n        /* \"#utility.yul\":2670:2749   */\n      tag_280\n      tag_223\n      jump\t// in\n    tag_280:\n        /* \"#utility.yul\":2632:2751   */\n    tag_279:\n        /* \"#utility.yul\":2790:2791   */\n      0x00\n        /* \"#utility.yul\":2815:2868   */\n      tag_281\n        /* \"#utility.yul\":2860:2867   */\n      dup6\n        /* \"#utility.yul\":2851:2857   */\n      dup3\n        /* \"#utility.yul\":2840:2849   */\n      dup7\n        /* \"#utility.yul\":2836:2858   */\n      add\n        /* \"#utility.yul\":2815:2868   */\n      tag_228\n      jump\t// in\n    tag_281:\n        /* \"#utility.yul\":2805:2868   */\n      swap3\n      pop\n        /* \"#utility.yul\":2761:2878   */\n      pop\n        /* \"#utility.yul\":2917:2919   */\n      0x20\n        /* \"#utility.yul\":2943:2996   */\n      tag_282\n        /* \"#utility.yul\":2988:2995   */\n      dup6\n        /* \"#utility.yul\":2979:2985   */\n      dup3\n        /* \"#utility.yul\":2968:2977   */\n      dup7\n        /* \"#utility.yul\":2964:2986   */\n      add\n        /* \"#utility.yul\":2943:2996   */\n      tag_231\n      jump\t// in\n    tag_282:\n        /* \"#utility.yul\":2933:2996   */\n      swap2\n      pop\n        /* \"#utility.yul\":2888:3006   */\n      pop\n        /* \"#utility.yul\":2539:3013   */\n      swap3\n      pop\n      swap3\n      swap1\n      pop\n      jump\t// out\n        /* \"#utility.yul\":3019:3109   */\n    tag_232:\n        /* \"#utility.yul\":3053:3060   */\n      0x00\n        /* \"#utility.yul\":3096:3101   */\n      dup2\n        /* \"#utility.yul\":3089:3102   */\n      iszero\n        /* \"#utility.yul\":3082:3103   */\n      iszero\n        /* \"#utility.yul\":3071:3103   */\n      swap1\n      pop\n        /* \"#utility.yul\":3019:3109   */\n      swap2\n      swap1\n      pop\n      jump\t// out\n        /* \"#utility.yul\":3115:3224   */\n    tag_233:\n        /* \"#utility.yul\":3196:3217   */\n      tag_285\n        /* \"#utility.yul\":3211:3216   */\n      dup2\n        /* \"#utility.yul\":3196:3217   */\n      tag_232\n      jump\t// in\n    tag_285:\n        /* \"#utility.yul\":3191:3194   */\n      dup3\n        /* \"#utility.yul\":3184:3218   */\n      mstore\n        /* \"#utility.yul\":3115:3224   */\n      pop\n      pop\n      jump\t// out\n        /* \"#utility.yul\":3230:3440   */\n    tag_31:\n        /* \"#utility.yul\":3317:3321   */\n      0x00\n        /* \"#utility.yul\":3355:3357   */\n      0x20\n        /* \"#utility.yul\":3344:3353   */\n      dup3\n        /* \"#utility.yul\":3340:3358   */\n      add\n        /* \"#utility.yul\":3332:3358   */\n      swap1\n      pop\n        /* \"#utility.yul\":3368:3433   */\n      tag_287\n        /* \"#utility.yul\":3430:3431   */\n      0x00\n        /* \"#utility.yul\":3419:3428   */\n      dup4\n        /* \"#utility.yul\":3415:3432   */\n      add\n        /* \"#utility.yul\":3406:3412   */\n      dup5\n        /* \"#utility.yul\":3368:3433   */\n      tag_233\n      jump\t// in\n    tag_287:\n        /* \"#utility.yul\":3230:3440   */\n      swap3\n      swap2\n      pop\n      pop\n      jump\t// out\n        /* \"#utility.yul\":3446:3564   */\n    tag_234:\n        /* \"#utility.yul\":3533:3557   */\n      tag_289\n        /* \"#utility.yul\":3551:3556   */\n      dup2\n        /* \"#utility.yul\":3533:3557   */\n      tag_229\n      jump\t// in\n    tag_289:\n        /* \"#utility.yul\":3528:3531   */\n      dup3\n        /* \"#utility.yul\":3521:3558   */\n      mstore\n        /* \"#utility.yul\":3446:3564   */\n      pop\n      pop\n      jump\t// out\n        /* \"#utility.yul\":3570:3792   */\n    tag_35:\n        /* \"#utility.yul\":3663:3667   */\n      0x00\n        /* \"#utility.yul\":3701:3703   */\n      0x20\n        /* \"#utility.yul\":3690:3699   */\n      dup3\n        /* \"#utility.yul\":3686:3704   */\n      add\n        /* \"#utility.yul\":3678:3704   */\n      swap1\n      pop\n        /* \"#utility.yul\":3714:3785   */\n      tag_291\n        /* \"#utility.yul\":3782:3783   */\n      0x00\n        /* \"#utility.yul\":3771:3780   */\n      dup4\n        /* \"#utility.yul\":3767:3784   */\n      add\n        /* \"#utility.yul\":3758:3764   */\n      dup5\n        /* \"#utility.yul\":3714:3785   */\n      tag_234\n      jump\t// in\n    tag_291:\n        /* \"#utility.yul\":3570:3792   */\n      swap3\n      swap2\n      pop\n      pop\n      jump\t// out\n        /* \"#utility.yul\":3798:4417   */\n    tag_38:\n        /* \"#utility.yul\":3875:3881   */\n      0x00\n        /* \"#utility.yul\":3883:3889   */\n      dup1\n        /* \"#utility.yul\":3891:3897   */\n      0x00\n        /* \"#utility.yul\":3940:3942   */\n      0x60\n        /* \"#utility.yul\":3928:3937   */\n      dup5\n        /* \"#utility.yul\":3919:3926   */\n      dup7\n        /* \"#utility.yul\":3915:3938   */\n      sub\n        /* \"#utility.yul\":3911:3943   */\n      slt\n        /* \"#utility.yul\":3908:4027   */\n      iszero\n      tag_293\n      jumpi\n        /* \"#utility.yul\":3946:4025   */\n      tag_294\n      tag_223\n      jump\t// in\n    tag_294:\n        /* \"#utility.yul\":3908:4027   */\n    tag_293:\n        /* \"#utility.yul\":4066:4067   */\n      0x00\n        /* \"#utility.yul\":4091:4144   */\n      tag_295\n        /* \"#utility.yul\":4136:4143   */\n      dup7\n        /* \"#utility.yul\":4127:4133   */\n      dup3\n        /* \"#utility.yul\":4116:4125   */\n      dup8\n        /* \"#utility.yul\":4112:4134   */\n      add\n        /* \"#utility.yul\":4091:4144   */\n      tag_228\n      jump\t// in\n    tag_295:\n        /* \"#utility.yul\":4081:4144   */\n      swap4\n      pop\n        /* \"#utility.yul\":4037:4154   */\n      pop\n        /* \"#utility.yul\":4193:4195   */\n      0x20\n        /* \"#utility.yul\":4219:4272   */\n      tag_296\n        /* \"#utility.yul\":4264:4271   */\n      dup7\n        /* \"#utility.yul\":4255:4261   */\n      dup3\n        /* \"#utility.yul\":4244:4253   */\n      dup8\n        /* \"#utility.yul\":4240:4262   */\n      add\n        /* \"#utility.yul\":4219:4272   */\n      tag_228\n      jump\t// in\n    tag_296:\n        /* \"#utility.yul\":4209:4272   */\n      swap3\n      pop\n        /* \"#utility.yul\":4164:4282   */\n      pop\n        /* \"#utility.yul\":4321:4323   */\n      0x40\n        /* \"#utility.yul\":4347:4400   */\n      tag_297\n        /* \"#utility.yul\":4392:4399   */\n      dup7\n        /* \"#utility.yul\":4383:4389   */\n      dup3\n        /* \"#utility.yul\":4372:4381   */\n      dup8\n        /* \"#utility.yul\":4368:4390   */\n      add\n        /* \"#utility.yul\":4347:4400   */\n      tag_231\n      jump\t// in\n    tag_297:\n        /* \"#utility.yul\":4337:4400   */\n      swap2\n      pop\n        /* \"#utility.yul\":4292:4410   */\n      pop\n        /* \"#utility.yul\":3798:4417   */\n      swap3\n      pop\n      swap3\n      pop\n      swap3\n      jump\t// out\n        /* \"#utility.yul\":4423:4509   */\n    tag_235:\n        /* \"#utility.yul\":4458:4465   */\n      0x00\n        /* \"#utility.yul\":4498:4502   */\n      0xff\n        /* \"#utility.yul\":4491:4496   */\n      dup3\n        /* \"#utility.yul\":4487:4503   */\n      and\n        /* \"#utility.yul\":4476:4503   */\n      swap1\n      pop\n        /* \"#utility.yul\":4423:4509   */\n      swap2\n      swap1\n      pop\n      jump\t// out\n        /* \"#utility.yul\":4515:4627   */\n    tag_236:\n        /* \"#utility.yul\":4598:4620   */\n      tag_300\n        /* \"#utility.yul\":4614:4619   */\n      dup2\n        /* \"#utility.yul\":4598:4620   */\n      tag_235\n      jump\t// in\n    tag_300:\n        /* \"#utility.yul\":4593:4596   */\n      dup3\n        /* \"#utility.yul\":4586:4621   */\n      mstore\n        /* \"#utility.yul\":4515:4627   */\n      pop\n      pop\n      jump\t// out\n        /* \"#utility.yul\":4633:4847   */\n    tag_44:\n        /* \"#utility.yul\":4722:4726   */\n      0x00\n        /* \"#utility.yul\":4760:4762   */\n      0x20\n        /* \"#utility.yul\":4749:4758   */\n      dup3\n        /* \"#utility.yul\":4745:4763   */\n      add\n        /* \"#utility.yul\":4737:4763   */\n      swap1\n      pop\n        /* \"#utility.yul\":4773:4840   */\n      tag_302\n        /* \"#utility.yul\":4837:4838   */\n      0x00\n        /* \"#utility.yul\":4826:4835   */\n      dup4\n        /* \"#utility.yul\":4822:4839   */\n      add\n        /* \"#utility.yul\":4813:4819   */\n      dup5\n        /* \"#utility.yul\":4773:4840   */\n      tag_236\n      jump\t// in\n    tag_302:\n        /* \"#utility.yul\":4633:4847   */\n      swap3\n      swap2\n      pop\n      pop\n      jump\t// out\n        /* \"#utility.yul\":4853:5182   */\n    tag_55:\n        /* \"#utility.yul\":4912:4918   */\n      0x00\n        /* \"#utility.yul\":4961:4963   */\n      0x20\n        /* \"#utility.yul\":4949:4958   */\n      dup3\n        /* \"#utility.yul\":4940:4947   */\n      dup5\n        /* \"#utility.yul\":4936:4959   */\n      sub\n        /* \"#utility.yul\":4932:4964   */\n      slt\n        /* \"#utility.yul\":4929:5048   */\n      iszero\n      tag_304\n      jumpi\n        /* \"#utility.yul\":4967:5046   */\n      tag_305\n      tag_223\n      jump\t// in\n    tag_305:\n        /* \"#utility.yul\":4929:5048   */\n    tag_304:\n        /* \"#utility.yul\":5087:5088   */\n      0x00\n        /* \"#utility.yul\":5112:5165   */\n      tag_306\n        /* \"#utility.yul\":5157:5164   */\n      dup5\n        /* \"#utility.yul\":5148:5154   */\n      dup3\n        /* \"#utility.yul\":5137:5146   */\n      dup6\n        /* \"#utility.yul\":5133:5155   */\n      add\n        /* \"#utility.yul\":5112:5165   */\n      tag_228\n      jump\t// in\n    tag_306:\n        /* \"#utility.yul\":5102:5165   */\n      swap2\n      pop\n        /* \"#utility.yul\":5058:5175   */\n      pop\n        /* \"#utility.yul\":4853:5182   */\n      swap3\n      swap2\n      pop\n      pop\n      jump\t// out\n        /* \"#utility.yul\":5188:5306   */\n    tag_237:\n        /* \"#utility.yul\":5275:5299   */\n      tag_308\n        /* \"#utility.yul\":5293:5298   */\n      dup2\n        /* \"#utility.yul\":5275:5299   */\n      tag_226\n      jump\t// in\n    tag_308:\n        /* \"#utility.yul\":5270:5273   */\n      dup3\n        /* \"#utility.yul\":5263:5300   */\n      mstore\n        /* \"#utility.yul\":5188:5306   */\n      pop\n      pop\n      jump\t// out\n        /* \"#utility.yul\":5312:5534   */\n    tag_65:\n        /* \"#utility.yul\":5405:5409   */\n      0x00\n        /* \"#utility.yul\":5443:5445   */\n      0x20\n        /* \"#utility.yul\":5432:5441   */\n      dup3\n        /* \"#utility.yul\":5428:5446   */\n      add\n        /* \"#utility.yul\":5420:5446   */\n      swap1\n      pop\n        /* \"#utility.yul\":5456:5527   */\n      tag_310\n        /* \"#utility.yul\":5524:5525   */\n      0x00\n        /* \"#utility.yul\":5513:5522   */\n      dup4\n        /* \"#utility.yul\":5509:5526   */\n      add\n        /* \"#utility.yul\":5500:5506   */\n      dup5\n        /* \"#utility.yul\":5456:5527   */\n      tag_237\n      jump\t// in\n    tag_310:\n        /* \"#utility.yul\":5312:5534   */\n      swap3\n      swap2\n      pop\n      pop\n      jump\t// out\n        /* \"#utility.yul\":5540:6014   */\n    tag_75:\n        /* \"#utility.yul\":5608:5614   */\n      0x00\n        /* \"#utility.yul\":5616:5622   */\n      dup1\n        /* \"#utility.yul\":5665:5667   */\n      0x40\n        /* \"#utility.yul\":5653:5662   */\n      dup4\n        /* \"#utility.yul\":5644:5651   */\n      dup6\n        /* \"#utility.yul\":5640:5663   */\n      sub\n        /* \"#utility.yul\":5636:5668   */\n      slt\n        /* \"#utility.yul\":5633:5752   */\n      iszero\n      tag_312\n      jumpi\n        /* \"#utility.yul\":5671:5750   */\n      tag_313\n      tag_223\n      jump\t// in\n    tag_313:\n        /* \"#utility.yul\":5633:5752   */\n    tag_312:\n        /* \"#utility.yul\":5791:5792   */\n      0x00\n        /* \"#utility.yul\":5816:5869   */\n      tag_314\n        /* \"#utility.yul\":5861:5868   */\n      dup6\n        /* \"#utility.yul\":5852:5858   */\n      dup3\n        /* \"#utility.yul\":5841:5850   */\n      dup7\n        /* \"#utility.yul\":5837:5859   */\n      add\n        /* \"#utility.yul\":5816:5869   */\n      tag_228\n      jump\t// in\n    tag_314:\n        /* \"#utility.yul\":5806:5869   */\n      swap3\n      pop\n        /* \"#utility.yul\":5762:5879   */\n      pop\n        /* \"#utility.yul\":5918:5920   */\n      0x20\n        /* \"#utility.yul\":5944:5997   */\n      tag_315\n        /* \"#utility.yul\":5989:5996   */\n      dup6\n        /* \"#utility.yul\":5980:5986   */\n      dup3\n        /* \"#utility.yul\":5969:5978   */\n      dup7\n        /* \"#utility.yul\":5965:5987   */\n      add\n        /* \"#utility.yul\":5944:5997   */\n      tag_228\n      jump\t// in\n    tag_315:\n        /* \"#utility.yul\":5934:5997   */\n      swap2\n      pop\n        /* \"#utility.yul\":5889:6007   */\n      pop\n        /* \"#utility.yul\":5540:6014   */\n      swap3\n      pop\n      swap3\n      swap1\n      pop\n      jump\t// out\n        /* \"#utility.yul\":6020:6200   */\n    tag_238:\n        /* \"#utility.yul\":6068:6145   */\n      0x4e487b7100000000000000000000000000000000000000000000000000000000\n        /* \"#utility.yul\":6065:6066   */\n      0x00\n        /* \"#utility.yul\":6058:6146   */\n      mstore\n        /* \"#utility.yul\":6165:6169   */\n      0x22\n        /* \"#utility.yul\":6162:6163   */\n      0x04\n        /* \"#utility.yul\":6155:6170   */\n      mstore\n        /* \"#utility.yul\":6189:6193   */\n      0x24\n        /* \"#utility.yul\":6186:6187   */\n      0x00\n        /* \"#utility.yul\":6179:6194   */\n      revert\n        /* \"#utility.yul\":6206:6526   */\n    tag_83:\n        /* \"#utility.yul\":6250:6256   */\n      0x00\n        /* \"#utility.yul\":6287:6288   */\n      0x02\n        /* \"#utility.yul\":6281:6285   */\n      dup3\n        /* \"#utility.yul\":6277:6289   */\n      div\n        /* \"#utility.yul\":6267:6289   */\n      swap1\n      pop\n        /* \"#utility.yul\":6334:6335   */\n      0x01\n        /* \"#utility.yul\":6328:6332   */\n      dup3\n        /* \"#utility.yul\":6324:6336   */\n      and\n        /* \"#utility.yul\":6355:6373   */\n      dup1\n        /* \"#utility.yul\":6345:6426   */\n      tag_318\n      jumpi\n        /* \"#utility.yul\":6411:6415   */\n      0x7f\n        /* \"#utility.yul\":6403:6409   */\n      dup3\n        /* \"#utility.yul\":6399:6416   */\n      and\n        /* \"#utility.yul\":6389:6416   */\n      swap2\n      pop\n        /* \"#utility.yul\":6345:6426   */\n    tag_318:\n        /* \"#utility.yul\":6473:6475   */\n      0x20\n        /* \"#utility.yul\":6465:6471   */\n      dup3\n        /* \"#utility.yul\":6462:6476   */\n      lt\n        /* \"#utility.yul\":6442:6460   */\n      dup2\n        /* \"#utility.yul\":6439:6477   */\n      sub\n        /* \"#utility.yul\":6436:6520   */\n      tag_319\n      jumpi\n        /* \"#utility.yul\":6492:6510   */\n      tag_320\n      tag_238\n      jump\t// in\n    tag_320:\n        /* \"#utility.yul\":6436:6520   */\n    tag_319:\n        /* \"#utility.yul\":6257:6526   */\n      pop\n        /* \"#utility.yul\":6206:6526   */\n      swap2\n      swap1\n      pop\n      jump\t// out\n        /* \"#utility.yul\":6532:6974   */\n    tag_146:\n        /* \"#utility.yul\":6681:6685   */\n      0x00\n        /* \"#utility.yul\":6719:6721   */\n      0x60\n        /* \"#utility.yul\":6708:6717   */\n      dup3\n        /* \"#utility.yul\":6704:6722   */\n      add\n        /* \"#utility.yul\":6696:6722   */\n      swap1\n      pop\n        /* \"#utility.yul\":6732:6803   */\n      tag_322\n        /* \"#utility.yul\":6800:6801   */\n      0x00\n        /* \"#utility.yul\":6789:6798   */\n      dup4\n        /* \"#utility.yul\":6785:6802   */\n      add\n        /* \"#utility.yul\":6776:6782   */\n      dup7\n        /* \"#utility.yul\":6732:6803   */\n      tag_237\n      jump\t// in\n    tag_322:\n        /* \"#utility.yul\":6813:6885   */\n      tag_323\n        /* \"#utility.yul\":6881:6883   */\n      0x20\n        /* \"#utility.yul\":6870:6879   */\n      dup4\n        /* \"#utility.yul\":6866:6884   */\n      add\n        /* \"#utility.yul\":6857:6863   */\n      dup6\n        /* \"#utility.yul\":6813:6885   */\n      tag_234\n      jump\t// in\n    tag_323:\n        /* \"#utility.yul\":6895:6967   */\n      tag_324\n        /* \"#utility.yul\":6963:6965   */\n      0x40\n        /* \"#utility.yul\":6952:6961   */\n      dup4\n        /* \"#utility.yul\":6948:6966   */\n      add\n        /* \"#utility.yul\":6939:6945   */\n      dup5\n        /* \"#utility.yul\":6895:6967   */\n      tag_234\n      jump\t// in\n    tag_324:\n        /* \"#utility.yul\":6532:6974   */\n      swap5\n      swap4\n      pop\n      pop\n      pop\n      pop\n      jump\t// out\n        /* \"#utility.yul\":6980:7153   */\n    tag_239:\n        /* \"#utility.yul\":7120:7145   */\n      0x5472616e73666572656e63696173207061757361646173000000000000000000\n        /* \"#utility.yul\":7116:7117   */\n      0x00\n        /* \"#utility.yul\":7108:7114   */\n      dup3\n        /* \"#utility.yul\":7104:7118   */\n      add\n        /* \"#utility.yul\":7097:7146   */\n      mstore\n        /* \"#utility.yul\":6980:7153   */\n      pop\n      jump\t// out\n        /* \"#utility.yul\":7159:7525   */\n    tag_240:\n        /* \"#utility.yul\":7301:7304   */\n      0x00\n        /* \"#utility.yul\":7322:7389   */\n      tag_327\n        /* \"#utility.yul\":7386:7388   */\n      0x17\n        /* \"#utility.yul\":7381:7384   */\n      dup4\n        /* \"#utility.yul\":7322:7389   */\n      tag_218\n      jump\t// in\n    tag_327:\n        /* \"#utility.yul\":7315:7389   */\n      swap2\n      pop\n        /* \"#utility.yul\":7398:7491   */\n      tag_328\n        /* \"#utility.yul\":7487:7490   */\n      dup3\n        /* \"#utility.yul\":7398:7491   */\n      tag_239\n      jump\t// in\n    tag_328:\n        /* \"#utility.yul\":7516:7518   */\n      0x20\n        /* \"#utility.yul\":7511:7514   */\n      dup3\n        /* \"#utility.yul\":7507:7519   */\n      add\n        /* \"#utility.yul\":7500:7519   */\n      swap1\n      pop\n        /* \"#utility.yul\":7159:7525   */\n      swap2\n      swap1\n      pop\n      jump\t// out\n        /* \"#utility.yul\":7531:7950   */\n    tag_185:\n        /* \"#utility.yul\":7697:7701   */\n      0x00\n        /* \"#utility.yul\":7735:7737   */\n      0x20\n        /* \"#utility.yul\":7724:7733   */\n      dup3\n        /* \"#utility.yul\":7720:7738   */\n      add\n        /* \"#utility.yul\":7712:7738   */\n      swap1\n      pop\n        /* \"#utility.yul\":7784:7793   */\n      dup2\n        /* \"#utility.yul\":7778:7782   */\n      dup2\n        /* \"#utility.yul\":7774:7794   */\n      sub\n        /* \"#utility.yul\":7770:7771   */\n      0x00\n        /* \"#utility.yul\":7759:7768   */\n      dup4\n        /* \"#utility.yul\":7755:7772   */\n      add\n        /* \"#utility.yul\":7748:7795   */\n      mstore\n        /* \"#utility.yul\":7812:7943   */\n      tag_330\n        /* \"#utility.yul\":7938:7942   */\n      dup2\n        /* \"#utility.yul\":7812:7943   */\n      tag_240\n      jump\t// in\n    tag_330:\n        /* \"#utility.yul\":7804:7943   */\n      swap1\n      pop\n        /* \"#utility.yul\":7531:7950   */\n      swap2\n      swap1\n      pop\n      jump\t// out\n        /* \"#utility.yul\":7956:8126   */\n    tag_241:\n        /* \"#utility.yul\":8096:8118   */\n      0x5061757361626c653a206e6f7420706175736564000000000000000000000000\n        /* \"#utility.yul\":8092:8093   */\n      0x00\n        /* \"#utility.yul\":8084:8090   */\n      dup3\n        /* \"#utility.yul\":8080:8094   */\n      add\n        /* \"#utility.yul\":8073:8119   */\n      mstore\n        /* \"#utility.yul\":7956:8126   */\n      pop\n      jump\t// out\n        /* \"#utility.yul\":8132:8498   */\n    tag_242:\n        /* \"#utility.yul\":8274:8277   */\n      0x00\n        /* \"#utility.yul\":8295:8362   */\n      tag_333\n        /* \"#utility.yul\":8359:8361   */\n      0x14\n        /* \"#utility.yul\":8354:8357   */\n      dup4\n        /* \"#utility.yul\":8295:8362   */\n      tag_218\n      jump\t// in\n    tag_333:\n        /* \"#utility.yul\":8288:8362   */\n      swap2\n      pop\n        /* \"#utility.yul\":8371:8464   */\n      tag_334\n        /* \"#utility.yul\":8460:8463   */\n      dup3\n        /* \"#utility.yul\":8371:8464   */\n      tag_241\n      jump\t// in\n    tag_334:\n        /* \"#utility.yul\":8489:8491   */\n      0x20\n        /* \"#utility.yul\":8484:8487   */\n      dup3\n        /* \"#utility.yul\":8480:8492   */\n      add\n        /* \"#utility.yul\":8473:8492   */\n      swap1\n      pop\n        /* \"#utility.yul\":8132:8498   */\n      swap2\n      swap1\n      pop\n      jump\t// out\n        /* \"#utility.yul\":8504:8923   */\n    tag_192:\n        /* \"#utility.yul\":8670:8674   */\n      0x00\n        /* \"#utility.yul\":8708:8710   */\n      0x20\n        /* \"#utility.yul\":8697:8706   */\n      dup3\n        /* \"#utility.yul\":8693:8711   */\n      add\n        /* \"#utility.yul\":8685:8711   */\n      swap1\n      pop\n        /* \"#utility.yul\":8757:8766   */\n      dup2\n        /* \"#utility.yul\":8751:8755   */\n      dup2\n        /* \"#utility.yul\":8747:8767   */\n      sub\n        /* \"#utility.yul\":8743:8744   */\n      0x00\n        /* \"#utility.yul\":8732:8741   */\n      dup4\n        /* \"#utility.yul\":8728:8745   */\n      add\n        /* \"#utility.yul\":8721:8768   */\n      mstore\n        /* \"#utility.yul\":8785:8916   */\n      tag_336\n        /* \"#utility.yul\":8911:8915   */\n      dup2\n        /* \"#utility.yul\":8785:8916   */\n      tag_242\n      jump\t// in\n    tag_336:\n        /* \"#utility.yul\":8777:8916   */\n      swap1\n      pop\n        /* \"#utility.yul\":8504:8923   */\n      swap2\n      swap1\n      pop\n      jump\t// out\n        /* \"#utility.yul\":8929:9095   */\n    tag_243:\n        /* \"#utility.yul\":9069:9087   */\n      0x5061757361626c653a2070617573656400000000000000000000000000000000\n        /* \"#utility.yul\":9065:9066   */\n      0x00\n        /* \"#utility.yul\":9057:9063   */\n      dup3\n        /* \"#utility.yul\":9053:9067   */\n      add\n        /* \"#utility.yul\":9046:9088   */\n      mstore\n        /* \"#utility.yul\":8929:9095   */\n      pop\n      jump\t// out\n        /* \"#utility.yul\":9101:9467   */\n    tag_244:\n        /* \"#utility.yul\":9243:9246   */\n      0x00\n        /* \"#utility.yul\":9264:9331   */\n      tag_339\n        /* \"#utility.yul\":9328:9330   */\n      0x10\n        /* \"#utility.yul\":9323:9326   */\n      dup4\n        /* \"#utility.yul\":9264:9331   */\n      tag_218\n      jump\t// in\n    tag_339:\n        /* \"#utility.yul\":9257:9331   */\n      swap2\n      pop\n        /* \"#utility.yul\":9340:9433   */\n      tag_340\n        /* \"#utility.yul\":9429:9432   */\n      dup3\n        /* \"#utility.yul\":9340:9433   */\n      tag_243\n      jump\t// in\n    tag_340:\n        /* \"#utility.yul\":9458:9460   */\n      0x20\n        /* \"#utility.yul\":9453:9456   */\n      dup3\n        /* \"#utility.yul\":9449:9461   */\n      add\n        /* \"#utility.yul\":9442:9461   */\n      swap1\n      pop\n        /* \"#utility.yul\":9101:9467   */\n      swap2\n      swap1\n      pop\n      jump\t// out\n        /* \"#utility.yul\":9473:9892   */\n    tag_197:\n        /* \"#utility.yul\":9639:9643   */\n      0x00\n        /* \"#utility.yul\":9677:9679   */\n      0x20\n        /* \"#utility.yul\":9666:9675   */\n      dup3\n        /* \"#utility.yul\":9662:9680   */\n      add\n        /* \"#utility.yul\":9654:9680   */\n      swap1\n      pop\n        /* \"#utility.yul\":9726:9735   */\n      dup2\n        /* \"#utility.yul\":9720:9724   */\n      dup2\n        /* \"#utility.yul\":9716:9736   */\n      sub\n        /* \"#utility.yul\":9712:9713   */\n      0x00\n        /* \"#utility.yul\":9701:9710   */\n      dup4\n        /* \"#utility.yul\":9697:9714   */\n      add\n        /* \"#utility.yul\":9690:9737   */\n      mstore\n        /* \"#utility.yul\":9754:9885   */\n      tag_342\n        /* \"#utility.yul\":9880:9884   */\n      dup2\n        /* \"#utility.yul\":9754:9885   */\n      tag_244\n      jump\t// in\n    tag_342:\n        /* \"#utility.yul\":9746:9885   */\n      swap1\n      pop\n        /* \"#utility.yul\":9473:9892   */\n      swap2\n      swap1\n      pop\n      jump\t// out\n        /* \"#utility.yul\":9898:10230   */\n    tag_206:\n        /* \"#utility.yul\":10019:10023   */\n      0x00\n        /* \"#utility.yul\":10057:10059   */\n      0x40\n        /* \"#utility.yul\":10046:10055   */\n      dup3\n        /* \"#utility.yul\":10042:10060   */\n      add\n        /* \"#utility.yul\":10034:10060   */\n      swap1\n      pop\n        /* \"#utility.yul\":10070:10141   */\n      tag_344\n        /* \"#utility.yul\":10138:10139   */\n      0x00\n        /* \"#utility.yul\":10127:10136   */\n      dup4\n        /* \"#utility.yul\":10123:10140   */\n      add\n        /* \"#utility.yul\":10114:10120   */\n      dup6\n        /* \"#utility.yul\":10070:10141   */\n      tag_234\n      jump\t// in\n    tag_344:\n        /* \"#utility.yul\":10151:10223   */\n      tag_345\n        /* \"#utility.yul\":10219:10221   */\n      0x20\n        /* \"#utility.yul\":10208:10217   */\n      dup4\n        /* \"#utility.yul\":10204:10222   */\n      add\n        /* \"#utility.yul\":10195:10201   */\n      dup5\n        /* \"#utility.yul\":10151:10223   */\n      tag_234\n      jump\t// in\n    tag_345:\n        /* \"#utility.yul\":9898:10230   */\n      swap4\n      swap3\n      pop\n      pop\n      pop\n      jump\t// out\n        /* \"#utility.yul\":10236:10416   */\n    tag_245:\n        /* \"#utility.yul\":10284:10361   */\n      0x4e487b7100000000000000000000000000000000000000000000000000000000\n        /* \"#utility.yul\":10281:10282   */\n      0x00\n        /* \"#utility.yul\":10274:10362   */\n      mstore\n        /* \"#utility.yul\":10381:10385   */\n      0x11\n        /* \"#utility.yul\":10378:10379   */\n      0x04\n        /* \"#utility.yul\":10371:10386   */\n      mstore\n        /* \"#utility.yul\":10405:10409   */\n      0x24\n        /* \"#utility.yul\":10402:10403   */\n      0x00\n        /* \"#utility.yul\":10395:10410   */\n      revert\n        /* \"#utility.yul\":10422:10613   */\n    tag_210:\n        /* \"#utility.yul\":10462:10465   */\n      0x00\n        /* \"#utility.yul\":10481:10501   */\n      tag_348\n        /* \"#utility.yul\":10499:10500   */\n      dup3\n        /* \"#utility.yul\":10481:10501   */\n      tag_229\n      jump\t// in\n    tag_348:\n        /* \"#utility.yul\":10476:10501   */\n      swap2\n      pop\n        /* \"#utility.yul\":10515:10535   */\n      tag_349\n        /* \"#utility.yul\":10533:10534   */\n      dup4\n        /* \"#utility.yul\":10515:10535   */\n      tag_229\n      jump\t// in\n    tag_349:\n        /* \"#utility.yul\":10510:10535   */\n      swap3\n      pop\n        /* \"#utility.yul\":10558:10559   */\n      dup3\n        /* \"#utility.yul\":10555:10556   */\n      dup3\n        /* \"#utility.yul\":10551:10560   */\n      add\n        /* \"#utility.yul\":10544:10560   */\n      swap1\n      pop\n        /* \"#utility.yul\":10579:10582   */\n      dup1\n        /* \"#utility.yul\":10576:10577   */\n      dup3\n        /* \"#utility.yul\":10573:10583   */\n      gt\n        /* \"#utility.yul\":10570:10606   */\n      iszero\n      tag_350\n      jumpi\n        /* \"#utility.yul\":10586:10604   */\n      tag_351\n      tag_245\n      jump\t// in\n    tag_351:\n        /* \"#utility.yul\":10570:10606   */\n    tag_350:\n        /* \"#utility.yul\":10422:10613   */\n      swap3\n      swap2\n      pop\n      pop\n      jump\t// out\n\n    auxdata: 0xa264697066735822122008d2a34ba18db9025ef469ef61161728be5af8586eff488b5b6fca1cdf18842264736f6c63430008140033\n}\n",
				"bytecode": {
					"linkReferences": {},
					"object": "60a060405234801562000010575f80fd5b50604051620023fc380380620023fc83398181016040528101906200003691906200075d565b80620000476200022c60201b60201c565b600a6200005591906200091f565b6301406f406200006691906200096f565b6040518060400160405280600a81526020017f50756c7365546f6b656e000000000000000000000000000000000000000000008152506040518060400160405280600381526020017f504c5300000000000000000000000000000000000000000000000000000000008152508160039081620000e3919062000c14565b508060049081620000f5919062000c14565b5050505f81036200013f575f6040517f392e1e2700000000000000000000000000000000000000000000000000000000815260040162000136919062000d39565b60405180910390fd5b8060808181525050505f60055f6101000a81548160ff0219169083151502179055505f73ffffffffffffffffffffffffffffffffffffffff168173ffffffffffffffffffffffffffffffffffffffff1603620001d4575f6040517f1e4fbdf7000000000000000000000000000000000000000000000000000000008152600401620001cb919062000d65565b60405180910390fd5b620001e5816200023460201b60201c565b506200022581620001fb6200022c60201b60201c565b600a6200020991906200091f565b620f42406200021991906200096f565b620002f960201b60201c565b5062000eca565b5f6012905090565b5f600560019054906101000a900473ffffffffffffffffffffffffffffffffffffffff16905081600560016101000a81548173ffffffffffffffffffffffffffffffffffffffff021916908373ffffffffffffffffffffffffffffffffffffffff1602179055508173ffffffffffffffffffffffffffffffffffffffff168173ffffffffffffffffffffffffffffffffffffffff167f8be0079c531659141344cd1fd0a4f28419497f9722a3daafe3b4186f6b6457e060405160405180910390a35050565b5f73ffffffffffffffffffffffffffffffffffffffff168273ffffffffffffffffffffffffffffffffffffffff16036200036c575f6040517fec442f0500000000000000000000000000000000000000000000000000000000815260040162000363919062000d65565b60405180910390fd5b6200037f5f83836200038360201b60201c565b5050565b62000393620003ee60201b60201c565b15620003d6576040517f08c379a0000000000000000000000000000000000000000000000000000000008152600401620003cd9062000dde565b60405180910390fd5b620003e98383836200040360201b60201c565b505050565b5f60055f9054906101000a900460ff16905090565b62000416838383620004c260201b60201c565b5f73ffffffffffffffffffffffffffffffffffffffff168373ffffffffffffffffffffffffffffffffffffffff1603620004bd575f6200045b620006e660201b60201c565b90505f6200046e620006ef60201b60201c565b905081811115620004ba5780826040517f9e79f854000000000000000000000000000000000000000000000000000000008152600401620004b192919062000e0f565b60405180910390fd5b50505b505050565b5f73ffffffffffffffffffffffffffffffffffffffff168373ffffffffffffffffffffffffffffffffffffffff160362000516578060025f82825462000509919062000e3a565b92505081905550620005e7565b5f805f8573ffffffffffffffffffffffffffffffffffffffff1673ffffffffffffffffffffffffffffffffffffffff1681526020019081526020015f2054905081811015620005a2578381836040517fe450d38c000000000000000000000000000000000000000000000000000000008152600401620005999392919062000e74565b60405180910390fd5b8181035f808673ffffffffffffffffffffffffffffffffffffffff1673ffffffffffffffffffffffffffffffffffffffff1681526020019081526020015f2081905550505b5f73ffffffffffffffffffffffffffffffffffffffff168273ffffffffffffffffffffffffffffffffffffffff160362000630578060025f82825403925050819055506200067a565b805f808473ffffffffffffffffffffffffffffffffffffffff1673ffffffffffffffffffffffffffffffffffffffff1681526020019081526020015f205f82825401925050819055505b8173ffffffffffffffffffffffffffffffffffffffff168373ffffffffffffffffffffffffffffffffffffffff167fddf252ad1be2c89b69c2b068fc378daa952ba7f163c4a11628f55a4df523b3ef83604051620006d9919062000eaf565b60405180910390a3505050565b5f608051905090565b5f600254905090565b5f80fd5b5f73ffffffffffffffffffffffffffffffffffffffff82169050919050565b5f6200072782620006fc565b9050919050565b62000739816200071b565b811462000744575f80fd5b50565b5f8151905062000757816200072e565b92915050565b5f60208284031215620007755762000774620006f8565b5b5f620007848482850162000747565b91505092915050565b7f4e487b71000000000000000000000000000000000000000000000000000000005f52601160045260245ffd5b5f8160011c9050919050565b5f808291508390505b60018511156200081757808604811115620007ef57620007ee6200078d565b5b6001851615620007ff5780820291505b80810290506200080f85620007ba565b9450620007cf565b94509492505050565b5f8262000831576001905062000903565b8162000840575f905062000903565b816001811462000859576002811462000864576200089a565b600191505062000903565b60ff8411156200087957620008786200078d565b5b8360020a9150848211156200089357620008926200078d565b5b5062000903565b5060208310610133831016604e8410600b8410161715620008d45782820a905083811115620008ce57620008cd6200078d565b5b62000903565b620008e38484846001620007c6565b92509050818404811115620008fd57620008fc6200078d565b5b81810290505b9392505050565b5f819050919050565b5f60ff82169050919050565b5f6200092b826200090a565b9150620009388362000913565b9250620009677fffffffffffffffffffffffffffffffffffffffffffffffffffffffffffffffff848462000820565b905092915050565b5f6200097b826200090a565b915062000988836200090a565b925082820262000998816200090a565b91508282048414831517620009b257620009b16200078d565b5b5092915050565b5f81519050919050565b7f4e487b71000000000000000000000000000000000000000000000000000000005f52604160045260245ffd5b7f4e487b71000000000000000000000000000000000000000000000000000000005f52602260045260245ffd5b5f600282049050600182168062000a3557607f821691505b60208210810362000a4b5762000a4a620009f0565b5b50919050565b5f819050815f5260205f209050919050565b5f6020601f8301049050919050565b5f82821b905092915050565b5f6008830262000aaf7fffffffffffffffffffffffffffffffffffffffffffffffffffffffffffffffff8262000a72565b62000abb868362000a72565b95508019841693508086168417925050509392505050565b5f819050919050565b5f62000afc62000af662000af0846200090a565b62000ad3565b6200090a565b9050919050565b5f819050919050565b62000b178362000adc565b62000b2f62000b268262000b03565b84845462000a7e565b825550505050565b5f90565b62000b4562000b37565b62000b5281848462000b0c565b505050565b5b8181101562000b795762000b6d5f8262000b3b565b60018101905062000b58565b5050565b601f82111562000bc85762000b928162000a51565b62000b9d8462000a63565b8101602085101562000bad578190505b62000bc562000bbc8562000a63565b83018262000b57565b50505b505050565b5f82821c905092915050565b5f62000bea5f198460080262000bcd565b1980831691505092915050565b5f62000c04838362000bd9565b9150826002028217905092915050565b62000c1f82620009b9565b67ffffffffffffffff81111562000c3b5762000c3a620009c3565b5b62000c47825462000a1d565b62000c5482828562000b7d565b5f60209050601f83116001811462000c8a575f841562000c75578287015190505b62000c81858262000bf7565b86555062000cf0565b601f19841662000c9a8662000a51565b5f5b8281101562000cc35784890151825560018201915060208501945060208101905062000c9c565b8683101562000ce3578489015162000cdf601f89168262000bd9565b8355505b6001600288020188555050505b505050505050565b5f819050919050565b5f62000d2162000d1b62000d158462000cf8565b62000ad3565b6200090a565b9050919050565b62000d338162000d01565b82525050565b5f60208201905062000d4e5f83018462000d28565b92915050565b62000d5f816200071b565b82525050565b5f60208201905062000d7a5f83018462000d54565b92915050565b5f82825260208201905092915050565b7f5472616e73666572656e636961732070617573616461730000000000000000005f82015250565b5f62000dc660178362000d80565b915062000dd38262000d90565b602082019050919050565b5f6020820190508181035f83015262000df78162000db8565b9050919050565b62000e09816200090a565b82525050565b5f60408201905062000e245f83018562000dfe565b62000e33602083018462000dfe565b9392505050565b5f62000e46826200090a565b915062000e53836200090a565b925082820190508082111562000e6e5762000e6d6200078d565b5b92915050565b5f60608201905062000e895f83018662000d54565b62000e98602083018562000dfe565b62000ea7604083018462000dfe565b949350505050565b5f60208201905062000ec45f83018462000dfe565b92915050565b60805161151962000ee35f395f6103f201526115195ff3fe608060405234801561000f575f80fd5b50600436106100fe575f3560e01c806370a082311161009557806395d89b411161006457806395d89b4114610264578063a9059cbb14610282578063dd62ed3e146102b2578063f2fde38b146102e2576100fe565b806370a0823114610202578063715018a6146102325780638456cb591461023c5780638da5cb5b14610246576100fe565b8063313ce567116100d1578063313ce5671461019e578063355274ea146101bc5780633f4ba83a146101da5780635c975abb146101e4576100fe565b806306fdde0314610102578063095ea7b31461012057806318160ddd1461015057806323b872dd1461016e575b5f80fd5b61010a6102fe565b6040516101179190611033565b60405180910390f35b61013a600480360381019061013591906110e4565b61038e565b604051610147919061113c565b60405180910390f35b6101586103b0565b6040516101659190611164565b60405180910390f35b6101886004803603810190610183919061117d565b6103b9565b604051610195919061113c565b60405180910390f35b6101a66103e7565b6040516101b391906111e8565b60405180910390f35b6101c46103ef565b6040516101d19190611164565b60405180910390f35b6101e2610416565b005b6101ec610428565b6040516101f9919061113c565b60405180910390f35b61021c60048036038101906102179190611201565b61043d565b6040516102299190611164565b60405180910390f35b61023a610482565b005b610244610495565b005b61024e6104a7565b60405161025b919061123b565b60405180910390f35b61026c6104d0565b6040516102799190611033565b60405180910390f35b61029c600480360381019061029791906110e4565b610560565b6040516102a9919061113c565b60405180910390f35b6102cc60048036038101906102c79190611254565b610582565b6040516102d99190611164565b60405180910390f35b6102fc60048036038101906102f79190611201565b610604565b005b60606003805461030d906112bf565b80601f0160208091040260200160405190810160405280929190818152602001828054610339906112bf565b80156103845780601f1061035b57610100808354040283529160200191610384565b820191905f5260205f20905b81548152906001019060200180831161036757829003601f168201915b5050505050905090565b5f80610398610688565b90506103a581858561068f565b600191505092915050565b5f600254905090565b5f806103c3610688565b90506103d08582856106a1565b6103db858585610734565b60019150509392505050565b5f6012905090565b5f7f0000000000000000000000000000000000000000000000000000000000000000905090565b61041e610824565b6104266108ab565b565b5f60055f9054906101000a900460ff16905090565b5f805f8373ffffffffffffffffffffffffffffffffffffffff1673ffffffffffffffffffffffffffffffffffffffff1681526020019081526020015f20549050919050565b61048a610824565b6104935f61090c565b565b61049d610824565b6104a56109d1565b565b5f600560019054906101000a900473ffffffffffffffffffffffffffffffffffffffff16905090565b6060600480546104df906112bf565b80601f016020809104026020016040519081016040528092919081815260200182805461050b906112bf565b80156105565780601f1061052d57610100808354040283529160200191610556565b820191905f5260205f20905b81548152906001019060200180831161053957829003601f168201915b5050505050905090565b5f8061056a610688565b9050610577818585610734565b600191505092915050565b5f60015f8473ffffffffffffffffffffffffffffffffffffffff1673ffffffffffffffffffffffffffffffffffffffff1681526020019081526020015f205f8373ffffffffffffffffffffffffffffffffffffffff1673ffffffffffffffffffffffffffffffffffffffff1681526020019081526020015f2054905092915050565b61060c610824565b5f73ffffffffffffffffffffffffffffffffffffffff168173ffffffffffffffffffffffffffffffffffffffff160361067c575f6040517f1e4fbdf7000000000000000000000000000000000000000000000000000000008152600401610673919061123b565b60405180910390fd5b6106858161090c565b50565b5f33905090565b61069c8383836001610a33565b505050565b5f6106ac8484610582565b90507fffffffffffffffffffffffffffffffffffffffffffffffffffffffffffffffff81101561072e578181101561071f578281836040517ffb8f41b2000000000000000000000000000000000000000000000000000000008152600401610716939291906112ef565b60405180910390fd5b61072d84848484035f610a33565b5b50505050565b5f73ffffffffffffffffffffffffffffffffffffffff168373ffffffffffffffffffffffffffffffffffffffff16036107a4575f6040517f96c6fd1e00000000000000000000000000000000000000000000000000000000815260040161079b919061123b565b60405180910390fd5b5f73ffffffffffffffffffffffffffffffffffffffff168273ffffffffffffffffffffffffffffffffffffffff1603610814575f6040517fec442f0500000000000000000000000000000000000000000000000000000000815260040161080b919061123b565b60405180910390fd5b61081f838383610c02565b505050565b61082c610688565b73ffffffffffffffffffffffffffffffffffffffff1661084a6104a7565b73ffffffffffffffffffffffffffffffffffffffff16146108a95761086d610688565b6040517f118cdaa70000000000000000000000000000000000000000000000000000000081526004016108a0919061123b565b60405180910390fd5b565b6108b3610c5a565b5f60055f6101000a81548160ff0219169083151502179055507f5db9ee0a495bf2e6ff9c91a7834c1ba4fdd244a5e8aa4e537bd38aeae4b073aa6108f5610688565b604051610902919061123b565b60405180910390a1565b5f600560019054906101000a900473ffffffffffffffffffffffffffffffffffffffff16905081600560016101000a81548173ffffffffffffffffffffffffffffffffffffffff021916908373ffffffffffffffffffffffffffffffffffffffff1602179055508173ffffffffffffffffffffffffffffffffffffffff168173ffffffffffffffffffffffffffffffffffffffff167f8be0079c531659141344cd1fd0a4f28419497f9722a3daafe3b4186f6b6457e060405160405180910390a35050565b6109d9610ca3565b600160055f6101000a81548160ff0219169083151502179055507f62e78cea01bee320cd4e420270b5ea74000d11b0c9f74754ebdbfc544b05a258610a1c610688565b604051610a29919061123b565b60405180910390a1565b5f73ffffffffffffffffffffffffffffffffffffffff168473ffffffffffffffffffffffffffffffffffffffff1603610aa3575f6040517fe602df05000000000000000000000000000000000000000000000000000000008152600401610a9a919061123b565b60405180910390fd5b5f73ffffffffffffffffffffffffffffffffffffffff168373ffffffffffffffffffffffffffffffffffffffff1603610b13575f6040517f94280d62000000000000000000000000000000000000000000000000000000008152600401610b0a919061123b565b60405180910390fd5b8160015f8673ffffffffffffffffffffffffffffffffffffffff1673ffffffffffffffffffffffffffffffffffffffff1681526020019081526020015f205f8573ffffffffffffffffffffffffffffffffffffffff1673ffffffffffffffffffffffffffffffffffffffff1681526020019081526020015f20819055508015610bfc578273ffffffffffffffffffffffffffffffffffffffff168473ffffffffffffffffffffffffffffffffffffffff167f8c5be1e5ebec7d5bd14f71427d1e84f3dd0314c0f7b2291e5b200ac8c7c3b92584604051610bf39190611164565b60405180910390a35b50505050565b610c0a610428565b15610c4a576040517f08c379a0000000000000000000000000000000000000000000000000000000008152600401610c419061136e565b60405180910390fd5b610c55838383610ced565b505050565b610c62610428565b610ca1576040517f08c379a0000000000000000000000000000000000000000000000000000000008152600401610c98906113d6565b60405180910390fd5b565b610cab610428565b15610ceb576040517f08c379a0000000000000000000000000000000000000000000000000000000008152600401610ce29061143e565b60405180910390fd5b565b610cf8838383610d90565b5f73ffffffffffffffffffffffffffffffffffffffff168373ffffffffffffffffffffffffffffffffffffffff1603610d8b575f610d346103ef565b90505f610d3f6103b0565b905081811115610d885780826040517f9e79f854000000000000000000000000000000000000000000000000000000008152600401610d7f92919061145c565b60405180910390fd5b50505b505050565b5f73ffffffffffffffffffffffffffffffffffffffff168373ffffffffffffffffffffffffffffffffffffffff1603610de0578060025f828254610dd491906114b0565b92505081905550610eae565b5f805f8573ffffffffffffffffffffffffffffffffffffffff1673ffffffffffffffffffffffffffffffffffffffff1681526020019081526020015f2054905081811015610e69578381836040517fe450d38c000000000000000000000000000000000000000000000000000000008152600401610e60939291906112ef565b60405180910390fd5b8181035f808673ffffffffffffffffffffffffffffffffffffffff1673ffffffffffffffffffffffffffffffffffffffff1681526020019081526020015f2081905550505b5f73ffffffffffffffffffffffffffffffffffffffff168273ffffffffffffffffffffffffffffffffffffffff1603610ef5578060025f8282540392505081905550610f3f565b805f808473ffffffffffffffffffffffffffffffffffffffff1673ffffffffffffffffffffffffffffffffffffffff1681526020019081526020015f205f82825401925050819055505b8173ffffffffffffffffffffffffffffffffffffffff168373ffffffffffffffffffffffffffffffffffffffff167fddf252ad1be2c89b69c2b068fc378daa952ba7f163c4a11628f55a4df523b3ef83604051610f9c9190611164565b60405180910390a3505050565b5f81519050919050565b5f82825260208201905092915050565b5f5b83811015610fe0578082015181840152602081019050610fc5565b5f8484015250505050565b5f601f19601f8301169050919050565b5f61100582610fa9565b61100f8185610fb3565b935061101f818560208601610fc3565b61102881610feb565b840191505092915050565b5f6020820190508181035f83015261104b8184610ffb565b905092915050565b5f80fd5b5f73ffffffffffffffffffffffffffffffffffffffff82169050919050565b5f61108082611057565b9050919050565b61109081611076565b811461109a575f80fd5b50565b5f813590506110ab81611087565b92915050565b5f819050919050565b6110c3816110b1565b81146110cd575f80fd5b50565b5f813590506110de816110ba565b92915050565b5f80604083850312156110fa576110f9611053565b5b5f6111078582860161109d565b9250506020611118858286016110d0565b9150509250929050565b5f8115159050919050565b61113681611122565b82525050565b5f60208201905061114f5f83018461112d565b92915050565b61115e816110b1565b82525050565b5f6020820190506111775f830184611155565b92915050565b5f805f6060848603121561119457611193611053565b5b5f6111a18682870161109d565b93505060206111b28682870161109d565b92505060406111c3868287016110d0565b9150509250925092565b5f60ff82169050919050565b6111e2816111cd565b82525050565b5f6020820190506111fb5f8301846111d9565b92915050565b5f6020828403121561121657611215611053565b5b5f6112238482850161109d565b91505092915050565b61123581611076565b82525050565b5f60208201905061124e5f83018461122c565b92915050565b5f806040838503121561126a57611269611053565b5b5f6112778582860161109d565b92505060206112888582860161109d565b9150509250929050565b7f4e487b71000000000000000000000000000000000000000000000000000000005f52602260045260245ffd5b5f60028204905060018216806112d657607f821691505b6020821081036112e9576112e8611292565b5b50919050565b5f6060820190506113025f83018661122c565b61130f6020830185611155565b61131c6040830184611155565b949350505050565b7f5472616e73666572656e636961732070617573616461730000000000000000005f82015250565b5f611358601783610fb3565b915061136382611324565b602082019050919050565b5f6020820190508181035f8301526113858161134c565b9050919050565b7f5061757361626c653a206e6f74207061757365640000000000000000000000005f82015250565b5f6113c0601483610fb3565b91506113cb8261138c565b602082019050919050565b5f6020820190508181035f8301526113ed816113b4565b9050919050565b7f5061757361626c653a20706175736564000000000000000000000000000000005f82015250565b5f611428601083610fb3565b9150611433826113f4565b602082019050919050565b5f6020820190508181035f8301526114558161141c565b9050919050565b5f60408201905061146f5f830185611155565b61147c6020830184611155565b9392505050565b7f4e487b71000000000000000000000000000000000000000000000000000000005f52601160045260245ffd5b5f6114ba826110b1565b91506114c5836110b1565b92508282019050808211156114dd576114dc611483565b5b9291505056fea264697066735822122008d2a34ba18db9025ef469ef61161728be5af8586eff488b5b6fca1cdf18842264736f6c63430008140033",
					"opcodes": "PUSH1 0xA0 PUSH1 0x40 MSTORE CALLVALUE DUP1 ISZERO PUSH3 0x10 JUMPI PUSH0 DUP1 REVERT JUMPDEST POP PUSH1 0x40 MLOAD PUSH3 0x23FC CODESIZE SUB DUP1 PUSH3 0x23FC DUP4 CODECOPY DUP2 DUP2 ADD PUSH1 0x40 MSTORE DUP2 ADD SWAP1 PUSH3 0x36 SWAP2 SWAP1 PUSH3 0x75D JUMP JUMPDEST DUP1 PUSH3 0x47 PUSH3 0x22C PUSH1 0x20 SHL PUSH1 0x20 SHR JUMP JUMPDEST PUSH1 0xA PUSH3 0x55 SWAP2 SWAP1 PUSH3 0x91F JUMP JUMPDEST PUSH4 0x1406F40 PUSH3 0x66 SWAP2 SWAP1 PUSH3 0x96F JUMP JUMPDEST PUSH1 0x40 MLOAD DUP1 PUSH1 0x40 ADD PUSH1 0x40 MSTORE DUP1 PUSH1 0xA DUP2 MSTORE PUSH1 0x20 ADD PUSH32 0x50756C7365546F6B656E00000000000000000000000000000000000000000000 DUP2 MSTORE POP PUSH1 0x40 MLOAD DUP1 PUSH1 0x40 ADD PUSH1 0x40 MSTORE DUP1 PUSH1 0x3 DUP2 MSTORE PUSH1 0x20 ADD PUSH32 0x504C530000000000000000000000000000000000000000000000000000000000 DUP2 MSTORE POP DUP2 PUSH1 0x3 SWAP1 DUP2 PUSH3 0xE3 SWAP2 SWAP1 PUSH3 0xC14 JUMP JUMPDEST POP DUP1 PUSH1 0x4 SWAP1 DUP2 PUSH3 0xF5 SWAP2 SWAP1 PUSH3 0xC14 JUMP JUMPDEST POP POP POP PUSH0 DUP2 SUB PUSH3 0x13F JUMPI PUSH0 PUSH1 0x40 MLOAD PUSH32 0x392E1E2700000000000000000000000000000000000000000000000000000000 DUP2 MSTORE PUSH1 0x4 ADD PUSH3 0x136 SWAP2 SWAP1 PUSH3 0xD39 JUMP JUMPDEST PUSH1 0x40 MLOAD DUP1 SWAP2 SUB SWAP1 REVERT JUMPDEST DUP1 PUSH1 0x80 DUP2 DUP2 MSTORE POP POP POP PUSH0 PUSH1 0x5 PUSH0 PUSH2 0x100 EXP DUP2 SLOAD DUP2 PUSH1 0xFF MUL NOT AND SWAP1 DUP4 ISZERO ISZERO MUL OR SWAP1 SSTORE POP PUSH0 PUSH20 0xFFFFFFFFFFFFFFFFFFFFFFFFFFFFFFFFFFFFFFFF AND DUP2 PUSH20 0xFFFFFFFFFFFFFFFFFFFFFFFFFFFFFFFFFFFFFFFF AND SUB PUSH3 0x1D4 JUMPI PUSH0 PUSH1 0x40 MLOAD PUSH32 0x1E4FBDF700000000000000000000000000000000000000000000000000000000 DUP2 MSTORE PUSH1 0x4 ADD PUSH3 0x1CB SWAP2 SWAP1 PUSH3 0xD65 JUMP JUMPDEST PUSH1 0x40 MLOAD DUP1 SWAP2 SUB SWAP1 REVERT JUMPDEST PUSH3 0x1E5 DUP2 PUSH3 0x234 PUSH1 0x20 SHL PUSH1 0x20 SHR JUMP JUMPDEST POP PUSH3 0x225 DUP2 PUSH3 0x1FB PUSH3 0x22C PUSH1 0x20 SHL PUSH1 0x20 SHR JUMP JUMPDEST PUSH1 0xA PUSH3 0x209 SWAP2 SWAP1 PUSH3 0x91F JUMP JUMPDEST PUSH3 0xF4240 PUSH3 0x219 SWAP2 SWAP1 PUSH3 0x96F JUMP JUMPDEST PUSH3 0x2F9 PUSH1 0x20 SHL PUSH1 0x20 SHR JUMP JUMPDEST POP PUSH3 0xECA JUMP JUMPDEST PUSH0 PUSH1 0x12 SWAP1 POP SWAP1 JUMP JUMPDEST PUSH0 PUSH1 0x5 PUSH1 0x1 SWAP1 SLOAD SWAP1 PUSH2 0x100 EXP SWAP1 DIV PUSH20 0xFFFFFFFFFFFFFFFFFFFFFFFFFFFFFFFFFFFFFFFF AND SWAP1 POP DUP2 PUSH1 0x5 PUSH1 0x1 PUSH2 0x100 EXP DUP2 SLOAD DUP2 PUSH20 0xFFFFFFFFFFFFFFFFFFFFFFFFFFFFFFFFFFFFFFFF MUL NOT AND SWAP1 DUP4 PUSH20 0xFFFFFFFFFFFFFFFFFFFFFFFFFFFFFFFFFFFFFFFF AND MUL OR SWAP1 SSTORE POP DUP2 PUSH20 0xFFFFFFFFFFFFFFFFFFFFFFFFFFFFFFFFFFFFFFFF AND DUP2 PUSH20 0xFFFFFFFFFFFFFFFFFFFFFFFFFFFFFFFFFFFFFFFF AND PUSH32 0x8BE0079C531659141344CD1FD0A4F28419497F9722A3DAAFE3B4186F6B6457E0 PUSH1 0x40 MLOAD PUSH1 0x40 MLOAD DUP1 SWAP2 SUB SWAP1 LOG3 POP POP JUMP JUMPDEST PUSH0 PUSH20 0xFFFFFFFFFFFFFFFFFFFFFFFFFFFFFFFFFFFFFFFF AND DUP3 PUSH20 0xFFFFFFFFFFFFFFFFFFFFFFFFFFFFFFFFFFFFFFFF AND SUB PUSH3 0x36C JUMPI PUSH0 PUSH1 0x40 MLOAD PUSH32 0xEC442F0500000000000000000000000000000000000000000000000000000000 DUP2 MSTORE PUSH1 0x4 ADD PUSH3 0x363 SWAP2 SWAP1 PUSH3 0xD65 JUMP JUMPDEST PUSH1 0x40 MLOAD DUP1 SWAP2 SUB SWAP1 REVERT JUMPDEST PUSH3 0x37F PUSH0 DUP4 DUP4 PUSH3 0x383 PUSH1 0x20 SHL PUSH1 0x20 SHR JUMP JUMPDEST POP POP JUMP JUMPDEST PUSH3 0x393 PUSH3 0x3EE PUSH1 0x20 SHL PUSH1 0x20 SHR JUMP JUMPDEST ISZERO PUSH3 0x3D6 JUMPI PUSH1 0x40 MLOAD PUSH32 0x8C379A000000000000000000000000000000000000000000000000000000000 DUP2 MSTORE PUSH1 0x4 ADD PUSH3 0x3CD SWAP1 PUSH3 0xDDE JUMP JUMPDEST PUSH1 0x40 MLOAD DUP1 SWAP2 SUB SWAP1 REVERT JUMPDEST PUSH3 0x3E9 DUP4 DUP4 DUP4 PUSH3 0x403 PUSH1 0x20 SHL PUSH1 0x20 SHR JUMP JUMPDEST POP POP POP JUMP JUMPDEST PUSH0 PUSH1 0x5 PUSH0 SWAP1 SLOAD SWAP1 PUSH2 0x100 EXP SWAP1 DIV PUSH1 0xFF AND SWAP1 POP SWAP1 JUMP JUMPDEST PUSH3 0x416 DUP4 DUP4 DUP4 PUSH3 0x4C2 PUSH1 0x20 SHL PUSH1 0x20 SHR JUMP JUMPDEST PUSH0 PUSH20 0xFFFFFFFFFFFFFFFFFFFFFFFFFFFFFFFFFFFFFFFF AND DUP4 PUSH20 0xFFFFFFFFFFFFFFFFFFFFFFFFFFFFFFFFFFFFFFFF AND SUB PUSH3 0x4BD JUMPI PUSH0 PUSH3 0x45B PUSH3 0x6E6 PUSH1 0x20 SHL PUSH1 0x20 SHR JUMP JUMPDEST SWAP1 POP PUSH0 PUSH3 0x46E PUSH3 0x6EF PUSH1 0x20 SHL PUSH1 0x20 SHR JUMP JUMPDEST SWAP1 POP DUP2 DUP2 GT ISZERO PUSH3 0x4BA JUMPI DUP1 DUP3 PUSH1 0x40 MLOAD PUSH32 0x9E79F85400000000000000000000000000000000000000000000000000000000 DUP2 MSTORE PUSH1 0x4 ADD PUSH3 0x4B1 SWAP3 SWAP2 SWAP1 PUSH3 0xE0F JUMP JUMPDEST PUSH1 0x40 MLOAD DUP1 SWAP2 SUB SWAP1 REVERT JUMPDEST POP POP JUMPDEST POP POP POP JUMP JUMPDEST PUSH0 PUSH20 0xFFFFFFFFFFFFFFFFFFFFFFFFFFFFFFFFFFFFFFFF AND DUP4 PUSH20 0xFFFFFFFFFFFFFFFFFFFFFFFFFFFFFFFFFFFFFFFF AND SUB PUSH3 0x516 JUMPI DUP1 PUSH1 0x2 PUSH0 DUP3 DUP3 SLOAD PUSH3 0x509 SWAP2 SWAP1 PUSH3 0xE3A JUMP JUMPDEST SWAP3 POP POP DUP2 SWAP1 SSTORE POP PUSH3 0x5E7 JUMP JUMPDEST PUSH0 DUP1 PUSH0 DUP6 PUSH20 0xFFFFFFFFFFFFFFFFFFFFFFFFFFFFFFFFFFFFFFFF AND PUSH20 0xFFFFFFFFFFFFFFFFFFFFFFFFFFFFFFFFFFFFFFFF AND DUP2 MSTORE PUSH1 0x20 ADD SWAP1 DUP2 MSTORE PUSH1 0x20 ADD PUSH0 KECCAK256 SLOAD SWAP1 POP DUP2 DUP2 LT ISZERO PUSH3 0x5A2 JUMPI DUP4 DUP2 DUP4 PUSH1 0x40 MLOAD PUSH32 0xE450D38C00000000000000000000000000000000000000000000000000000000 DUP2 MSTORE PUSH1 0x4 ADD PUSH3 0x599 SWAP4 SWAP3 SWAP2 SWAP1 PUSH3 0xE74 JUMP JUMPDEST PUSH1 0x40 MLOAD DUP1 SWAP2 SUB SWAP1 REVERT JUMPDEST DUP2 DUP2 SUB PUSH0 DUP1 DUP7 PUSH20 0xFFFFFFFFFFFFFFFFFFFFFFFFFFFFFFFFFFFFFFFF AND PUSH20 0xFFFFFFFFFFFFFFFFFFFFFFFFFFFFFFFFFFFFFFFF AND DUP2 MSTORE PUSH1 0x20 ADD SWAP1 DUP2 MSTORE PUSH1 0x20 ADD PUSH0 KECCAK256 DUP2 SWAP1 SSTORE POP POP JUMPDEST PUSH0 PUSH20 0xFFFFFFFFFFFFFFFFFFFFFFFFFFFFFFFFFFFFFFFF AND DUP3 PUSH20 0xFFFFFFFFFFFFFFFFFFFFFFFFFFFFFFFFFFFFFFFF AND SUB PUSH3 0x630 JUMPI DUP1 PUSH1 0x2 PUSH0 DUP3 DUP3 SLOAD SUB SWAP3 POP POP DUP2 SWAP1 SSTORE POP PUSH3 0x67A JUMP JUMPDEST DUP1 PUSH0 DUP1 DUP5 PUSH20 0xFFFFFFFFFFFFFFFFFFFFFFFFFFFFFFFFFFFFFFFF AND PUSH20 0xFFFFFFFFFFFFFFFFFFFFFFFFFFFFFFFFFFFFFFFF AND DUP2 MSTORE PUSH1 0x20 ADD SWAP1 DUP2 MSTORE PUSH1 0x20 ADD PUSH0 KECCAK256 PUSH0 DUP3 DUP3 SLOAD ADD SWAP3 POP POP DUP2 SWAP1 SSTORE POP JUMPDEST DUP2 PUSH20 0xFFFFFFFFFFFFFFFFFFFFFFFFFFFFFFFFFFFFFFFF AND DUP4 PUSH20 0xFFFFFFFFFFFFFFFFFFFFFFFFFFFFFFFFFFFFFFFF AND PUSH32 0xDDF252AD1BE2C89B69C2B068FC378DAA952BA7F163C4A11628F55A4DF523B3EF DUP4 PUSH1 0x40 MLOAD PUSH3 0x6D9 SWAP2 SWAP1 PUSH3 0xEAF JUMP JUMPDEST PUSH1 0x40 MLOAD DUP1 SWAP2 SUB SWAP1 LOG3 POP POP POP JUMP JUMPDEST PUSH0 PUSH1 0x80 MLOAD SWAP1 POP SWAP1 JUMP JUMPDEST PUSH0 PUSH1 0x2 SLOAD SWAP1 POP SWAP1 JUMP JUMPDEST PUSH0 DUP1 REVERT JUMPDEST PUSH0 PUSH20 0xFFFFFFFFFFFFFFFFFFFFFFFFFFFFFFFFFFFFFFFF DUP3 AND SWAP1 POP SWAP2 SWAP1 POP JUMP JUMPDEST PUSH0 PUSH3 0x727 DUP3 PUSH3 0x6FC JUMP JUMPDEST SWAP1 POP SWAP2 SWAP1 POP JUMP JUMPDEST PUSH3 0x739 DUP2 PUSH3 0x71B JUMP JUMPDEST DUP2 EQ PUSH3 0x744 JUMPI PUSH0 DUP1 REVERT JUMPDEST POP JUMP JUMPDEST PUSH0 DUP2 MLOAD SWAP1 POP PUSH3 0x757 DUP2 PUSH3 0x72E JUMP JUMPDEST SWAP3 SWAP2 POP POP JUMP JUMPDEST PUSH0 PUSH1 0x20 DUP3 DUP5 SUB SLT ISZERO PUSH3 0x775 JUMPI PUSH3 0x774 PUSH3 0x6F8 JUMP JUMPDEST JUMPDEST PUSH0 PUSH3 0x784 DUP5 DUP3 DUP6 ADD PUSH3 0x747 JUMP JUMPDEST SWAP2 POP POP SWAP3 SWAP2 POP POP JUMP JUMPDEST PUSH32 0x4E487B7100000000000000000000000000000000000000000000000000000000 PUSH0 MSTORE PUSH1 0x11 PUSH1 0x4 MSTORE PUSH1 0x24 PUSH0 REVERT JUMPDEST PUSH0 DUP2 PUSH1 0x1 SHR SWAP1 POP SWAP2 SWAP1 POP JUMP JUMPDEST PUSH0 DUP1 DUP3 SWAP2 POP DUP4 SWAP1 POP JUMPDEST PUSH1 0x1 DUP6 GT ISZERO PUSH3 0x817 JUMPI DUP1 DUP7 DIV DUP2 GT ISZERO PUSH3 0x7EF JUMPI PUSH3 0x7EE PUSH3 0x78D JUMP JUMPDEST JUMPDEST PUSH1 0x1 DUP6 AND ISZERO PUSH3 0x7FF JUMPI DUP1 DUP3 MUL SWAP2 POP JUMPDEST DUP1 DUP2 MUL SWAP1 POP PUSH3 0x80F DUP6 PUSH3 0x7BA JUMP JUMPDEST SWAP5 POP PUSH3 0x7CF JUMP JUMPDEST SWAP5 POP SWAP5 SWAP3 POP POP POP JUMP JUMPDEST PUSH0 DUP3 PUSH3 0x831 JUMPI PUSH1 0x1 SWAP1 POP PUSH3 0x903 JUMP JUMPDEST DUP2 PUSH3 0x840 JUMPI PUSH0 SWAP1 POP PUSH3 0x903 JUMP JUMPDEST DUP2 PUSH1 0x1 DUP2 EQ PUSH3 0x859 JUMPI PUSH1 0x2 DUP2 EQ PUSH3 0x864 JUMPI PUSH3 0x89A JUMP JUMPDEST PUSH1 0x1 SWAP2 POP POP PUSH3 0x903 JUMP JUMPDEST PUSH1 0xFF DUP5 GT ISZERO PUSH3 0x879 JUMPI PUSH3 0x878 PUSH3 0x78D JUMP JUMPDEST JUMPDEST DUP4 PUSH1 0x2 EXP SWAP2 POP DUP5 DUP3 GT ISZERO PUSH3 0x893 JUMPI PUSH3 0x892 PUSH3 0x78D JUMP JUMPDEST JUMPDEST POP PUSH3 0x903 JUMP JUMPDEST POP PUSH1 0x20 DUP4 LT PUSH2 0x133 DUP4 LT AND PUSH1 0x4E DUP5 LT PUSH1 0xB DUP5 LT AND OR ISZERO PUSH3 0x8D4 JUMPI DUP3 DUP3 EXP SWAP1 POP DUP4 DUP2 GT ISZERO PUSH3 0x8CE JUMPI PUSH3 0x8CD PUSH3 0x78D JUMP JUMPDEST JUMPDEST PUSH3 0x903 JUMP JUMPDEST PUSH3 0x8E3 DUP5 DUP5 DUP5 PUSH1 0x1 PUSH3 0x7C6 JUMP JUMPDEST SWAP3 POP SWAP1 POP DUP2 DUP5 DIV DUP2 GT ISZERO PUSH3 0x8FD JUMPI PUSH3 0x8FC PUSH3 0x78D JUMP JUMPDEST JUMPDEST DUP2 DUP2 MUL SWAP1 POP JUMPDEST SWAP4 SWAP3 POP POP POP JUMP JUMPDEST PUSH0 DUP2 SWAP1 POP SWAP2 SWAP1 POP JUMP JUMPDEST PUSH0 PUSH1 0xFF DUP3 AND SWAP1 POP SWAP2 SWAP1 POP JUMP JUMPDEST PUSH0 PUSH3 0x92B DUP3 PUSH3 0x90A JUMP JUMPDEST SWAP2 POP PUSH3 0x938 DUP4 PUSH3 0x913 JUMP JUMPDEST SWAP3 POP PUSH3 0x967 PUSH32 0xFFFFFFFFFFFFFFFFFFFFFFFFFFFFFFFFFFFFFFFFFFFFFFFFFFFFFFFFFFFFFFFF DUP5 DUP5 PUSH3 0x820 JUMP JUMPDEST SWAP1 POP SWAP3 SWAP2 POP POP JUMP JUMPDEST PUSH0 PUSH3 0x97B DUP3 PUSH3 0x90A JUMP JUMPDEST SWAP2 POP PUSH3 0x988 DUP4 PUSH3 0x90A JUMP JUMPDEST SWAP3 POP DUP3 DUP3 MUL PUSH3 0x998 DUP2 PUSH3 0x90A JUMP JUMPDEST SWAP2 POP DUP3 DUP3 DIV DUP5 EQ DUP4 ISZERO OR PUSH3 0x9B2 JUMPI PUSH3 0x9B1 PUSH3 0x78D JUMP JUMPDEST JUMPDEST POP SWAP3 SWAP2 POP POP JUMP JUMPDEST PUSH0 DUP2 MLOAD SWAP1 POP SWAP2 SWAP1 POP JUMP JUMPDEST PUSH32 0x4E487B7100000000000000000000000000000000000000000000000000000000 PUSH0 MSTORE PUSH1 0x41 PUSH1 0x4 MSTORE PUSH1 0x24 PUSH0 REVERT JUMPDEST PUSH32 0x4E487B7100000000000000000000000000000000000000000000000000000000 PUSH0 MSTORE PUSH1 0x22 PUSH1 0x4 MSTORE PUSH1 0x24 PUSH0 REVERT JUMPDEST PUSH0 PUSH1 0x2 DUP3 DIV SWAP1 POP PUSH1 0x1 DUP3 AND DUP1 PUSH3 0xA35 JUMPI PUSH1 0x7F DUP3 AND SWAP2 POP JUMPDEST PUSH1 0x20 DUP3 LT DUP2 SUB PUSH3 0xA4B JUMPI PUSH3 0xA4A PUSH3 0x9F0 JUMP JUMPDEST JUMPDEST POP SWAP2 SWAP1 POP JUMP JUMPDEST PUSH0 DUP2 SWAP1 POP DUP2 PUSH0 MSTORE PUSH1 0x20 PUSH0 KECCAK256 SWAP1 POP SWAP2 SWAP1 POP JUMP JUMPDEST PUSH0 PUSH1 0x20 PUSH1 0x1F DUP4 ADD DIV SWAP1 POP SWAP2 SWAP1 POP JUMP JUMPDEST PUSH0 DUP3 DUP3 SHL SWAP1 POP SWAP3 SWAP2 POP POP JUMP JUMPDEST PUSH0 PUSH1 0x8 DUP4 MUL PUSH3 0xAAF PUSH32 0xFFFFFFFFFFFFFFFFFFFFFFFFFFFFFFFFFFFFFFFFFFFFFFFFFFFFFFFFFFFFFFFF DUP3 PUSH3 0xA72 JUMP JUMPDEST PUSH3 0xABB DUP7 DUP4 PUSH3 0xA72 JUMP JUMPDEST SWAP6 POP DUP1 NOT DUP5 AND SWAP4 POP DUP1 DUP7 AND DUP5 OR SWAP3 POP POP POP SWAP4 SWAP3 POP POP POP JUMP JUMPDEST PUSH0 DUP2 SWAP1 POP SWAP2 SWAP1 POP JUMP JUMPDEST PUSH0 PUSH3 0xAFC PUSH3 0xAF6 PUSH3 0xAF0 DUP5 PUSH3 0x90A JUMP JUMPDEST PUSH3 0xAD3 JUMP JUMPDEST PUSH3 0x90A JUMP JUMPDEST SWAP1 POP SWAP2 SWAP1 POP JUMP JUMPDEST PUSH0 DUP2 SWAP1 POP SWAP2 SWAP1 POP JUMP JUMPDEST PUSH3 0xB17 DUP4 PUSH3 0xADC JUMP JUMPDEST PUSH3 0xB2F PUSH3 0xB26 DUP3 PUSH3 0xB03 JUMP JUMPDEST DUP5 DUP5 SLOAD PUSH3 0xA7E JUMP JUMPDEST DUP3 SSTORE POP POP POP POP JUMP JUMPDEST PUSH0 SWAP1 JUMP JUMPDEST PUSH3 0xB45 PUSH3 0xB37 JUMP JUMPDEST PUSH3 0xB52 DUP2 DUP5 DUP5 PUSH3 0xB0C JUMP JUMPDEST POP POP POP JUMP JUMPDEST JUMPDEST DUP2 DUP2 LT ISZERO PUSH3 0xB79 JUMPI PUSH3 0xB6D PUSH0 DUP3 PUSH3 0xB3B JUMP JUMPDEST PUSH1 0x1 DUP2 ADD SWAP1 POP PUSH3 0xB58 JUMP JUMPDEST POP POP JUMP JUMPDEST PUSH1 0x1F DUP3 GT ISZERO PUSH3 0xBC8 JUMPI PUSH3 0xB92 DUP2 PUSH3 0xA51 JUMP JUMPDEST PUSH3 0xB9D DUP5 PUSH3 0xA63 JUMP JUMPDEST DUP2 ADD PUSH1 0x20 DUP6 LT ISZERO PUSH3 0xBAD JUMPI DUP2 SWAP1 POP JUMPDEST PUSH3 0xBC5 PUSH3 0xBBC DUP6 PUSH3 0xA63 JUMP JUMPDEST DUP4 ADD DUP3 PUSH3 0xB57 JUMP JUMPDEST POP POP JUMPDEST POP POP POP JUMP JUMPDEST PUSH0 DUP3 DUP3 SHR SWAP1 POP SWAP3 SWAP2 POP POP JUMP JUMPDEST PUSH0 PUSH3 0xBEA PUSH0 NOT DUP5 PUSH1 0x8 MUL PUSH3 0xBCD JUMP JUMPDEST NOT DUP1 DUP4 AND SWAP2 POP POP SWAP3 SWAP2 POP POP JUMP JUMPDEST PUSH0 PUSH3 0xC04 DUP4 DUP4 PUSH3 0xBD9 JUMP JUMPDEST SWAP2 POP DUP3 PUSH1 0x2 MUL DUP3 OR SWAP1 POP SWAP3 SWAP2 POP POP JUMP JUMPDEST PUSH3 0xC1F DUP3 PUSH3 0x9B9 JUMP JUMPDEST PUSH8 0xFFFFFFFFFFFFFFFF DUP2 GT ISZERO PUSH3 0xC3B JUMPI PUSH3 0xC3A PUSH3 0x9C3 JUMP JUMPDEST JUMPDEST PUSH3 0xC47 DUP3 SLOAD PUSH3 0xA1D JUMP JUMPDEST PUSH3 0xC54 DUP3 DUP3 DUP6 PUSH3 0xB7D JUMP JUMPDEST PUSH0 PUSH1 0x20 SWAP1 POP PUSH1 0x1F DUP4 GT PUSH1 0x1 DUP2 EQ PUSH3 0xC8A JUMPI PUSH0 DUP5 ISZERO PUSH3 0xC75 JUMPI DUP3 DUP8 ADD MLOAD SWAP1 POP JUMPDEST PUSH3 0xC81 DUP6 DUP3 PUSH3 0xBF7 JUMP JUMPDEST DUP7 SSTORE POP PUSH3 0xCF0 JUMP JUMPDEST PUSH1 0x1F NOT DUP5 AND PUSH3 0xC9A DUP7 PUSH3 0xA51 JUMP JUMPDEST PUSH0 JUMPDEST DUP3 DUP2 LT ISZERO PUSH3 0xCC3 JUMPI DUP5 DUP10 ADD MLOAD DUP3 SSTORE PUSH1 0x1 DUP3 ADD SWAP2 POP PUSH1 0x20 DUP6 ADD SWAP5 POP PUSH1 0x20 DUP2 ADD SWAP1 POP PUSH3 0xC9C JUMP JUMPDEST DUP7 DUP4 LT ISZERO PUSH3 0xCE3 JUMPI DUP5 DUP10 ADD MLOAD PUSH3 0xCDF PUSH1 0x1F DUP10 AND DUP3 PUSH3 0xBD9 JUMP JUMPDEST DUP4 SSTORE POP JUMPDEST PUSH1 0x1 PUSH1 0x2 DUP9 MUL ADD DUP9 SSTORE POP POP POP JUMPDEST POP POP POP POP POP POP JUMP JUMPDEST PUSH0 DUP2 SWAP1 POP SWAP2 SWAP1 POP JUMP JUMPDEST PUSH0 PUSH3 0xD21 PUSH3 0xD1B PUSH3 0xD15 DUP5 PUSH3 0xCF8 JUMP JUMPDEST PUSH3 0xAD3 JUMP JUMPDEST PUSH3 0x90A JUMP JUMPDEST SWAP1 POP SWAP2 SWAP1 POP JUMP JUMPDEST PUSH3 0xD33 DUP2 PUSH3 0xD01 JUMP JUMPDEST DUP3 MSTORE POP POP JUMP JUMPDEST PUSH0 PUSH1 0x20 DUP3 ADD SWAP1 POP PUSH3 0xD4E PUSH0 DUP4 ADD DUP5 PUSH3 0xD28 JUMP JUMPDEST SWAP3 SWAP2 POP POP JUMP JUMPDEST PUSH3 0xD5F DUP2 PUSH3 0x71B JUMP JUMPDEST DUP3 MSTORE POP POP JUMP JUMPDEST PUSH0 PUSH1 0x20 DUP3 ADD SWAP1 POP PUSH3 0xD7A PUSH0 DUP4 ADD DUP5 PUSH3 0xD54 JUMP JUMPDEST SWAP3 SWAP2 POP POP JUMP JUMPDEST PUSH0 DUP3 DUP3 MSTORE PUSH1 0x20 DUP3 ADD SWAP1 POP SWAP3 SWAP2 POP POP JUMP JUMPDEST PUSH32 0x5472616E73666572656E63696173207061757361646173000000000000000000 PUSH0 DUP3 ADD MSTORE POP JUMP JUMPDEST PUSH0 PUSH3 0xDC6 PUSH1 0x17 DUP4 PUSH3 0xD80 JUMP JUMPDEST SWAP2 POP PUSH3 0xDD3 DUP3 PUSH3 0xD90 JUMP JUMPDEST PUSH1 0x20 DUP3 ADD SWAP1 POP SWAP2 SWAP1 POP JUMP JUMPDEST PUSH0 PUSH1 0x20 DUP3 ADD SWAP1 POP DUP2 DUP2 SUB PUSH0 DUP4 ADD MSTORE PUSH3 0xDF7 DUP2 PUSH3 0xDB8 JUMP JUMPDEST SWAP1 POP SWAP2 SWAP1 POP JUMP JUMPDEST PUSH3 0xE09 DUP2 PUSH3 0x90A JUMP JUMPDEST DUP3 MSTORE POP POP JUMP JUMPDEST PUSH0 PUSH1 0x40 DUP3 ADD SWAP1 POP PUSH3 0xE24 PUSH0 DUP4 ADD DUP6 PUSH3 0xDFE JUMP JUMPDEST PUSH3 0xE33 PUSH1 0x20 DUP4 ADD DUP5 PUSH3 0xDFE JUMP JUMPDEST SWAP4 SWAP3 POP POP POP JUMP JUMPDEST PUSH0 PUSH3 0xE46 DUP3 PUSH3 0x90A JUMP JUMPDEST SWAP2 POP PUSH3 0xE53 DUP4 PUSH3 0x90A JUMP JUMPDEST SWAP3 POP DUP3 DUP3 ADD SWAP1 POP DUP1 DUP3 GT ISZERO PUSH3 0xE6E JUMPI PUSH3 0xE6D PUSH3 0x78D JUMP JUMPDEST JUMPDEST SWAP3 SWAP2 POP POP JUMP JUMPDEST PUSH0 PUSH1 0x60 DUP3 ADD SWAP1 POP PUSH3 0xE89 PUSH0 DUP4 ADD DUP7 PUSH3 0xD54 JUMP JUMPDEST PUSH3 0xE98 PUSH1 0x20 DUP4 ADD DUP6 PUSH3 0xDFE JUMP JUMPDEST PUSH3 0xEA7 PUSH1 0x40 DUP4 ADD DUP5 PUSH3 0xDFE JUMP JUMPDEST SWAP5 SWAP4 POP POP POP POP JUMP JUMPDEST PUSH0 PUSH1 0x20 DUP3 ADD SWAP1 POP PUSH3 0xEC4 PUSH0 DUP4 ADD DUP5 PUSH3 0xDFE JUMP JUMPDEST SWAP3 SWAP2 POP POP JUMP JUMPDEST PUSH1 0x80 MLOAD PUSH2 0x1519 PUSH3 0xEE3 PUSH0 CODECOPY PUSH0 PUSH2 0x3F2 ADD MSTORE PUSH2 0x1519 PUSH0 RETURN INVALID PUSH1 0x80 PUSH1 0x40 MSTORE CALLVALUE DUP1 ISZERO PUSH2 0xF JUMPI PUSH0 DUP1 REVERT JUMPDEST POP PUSH1 0x4 CALLDATASIZE LT PUSH2 0xFE JUMPI PUSH0 CALLDATALOAD PUSH1 0xE0 SHR DUP1 PUSH4 0x70A08231 GT PUSH2 0x95 JUMPI DUP1 PUSH4 0x95D89B41 GT PUSH2 0x64 JUMPI DUP1 PUSH4 0x95D89B41 EQ PUSH2 0x264 JUMPI DUP1 PUSH4 0xA9059CBB EQ PUSH2 0x282 JUMPI DUP1 PUSH4 0xDD62ED3E EQ PUSH2 0x2B2 JUMPI DUP1 PUSH4 0xF2FDE38B EQ PUSH2 0x2E2 JUMPI PUSH2 0xFE JUMP JUMPDEST DUP1 PUSH4 0x70A08231 EQ PUSH2 0x202 JUMPI DUP1 PUSH4 0x715018A6 EQ PUSH2 0x232 JUMPI DUP1 PUSH4 0x8456CB59 EQ PUSH2 0x23C JUMPI DUP1 PUSH4 0x8DA5CB5B EQ PUSH2 0x246 JUMPI PUSH2 0xFE JUMP JUMPDEST DUP1 PUSH4 0x313CE567 GT PUSH2 0xD1 JUMPI DUP1 PUSH4 0x313CE567 EQ PUSH2 0x19E JUMPI DUP1 PUSH4 0x355274EA EQ PUSH2 0x1BC JUMPI DUP1 PUSH4 0x3F4BA83A EQ PUSH2 0x1DA JUMPI DUP1 PUSH4 0x5C975ABB EQ PUSH2 0x1E4 JUMPI PUSH2 0xFE JUMP JUMPDEST DUP1 PUSH4 0x6FDDE03 EQ PUSH2 0x102 JUMPI DUP1 PUSH4 0x95EA7B3 EQ PUSH2 0x120 JUMPI DUP1 PUSH4 0x18160DDD EQ PUSH2 0x150 JUMPI DUP1 PUSH4 0x23B872DD EQ PUSH2 0x16E JUMPI JUMPDEST PUSH0 DUP1 REVERT JUMPDEST PUSH2 0x10A PUSH2 0x2FE JUMP JUMPDEST PUSH1 0x40 MLOAD PUSH2 0x117 SWAP2 SWAP1 PUSH2 0x1033 JUMP JUMPDEST PUSH1 0x40 MLOAD DUP1 SWAP2 SUB SWAP1 RETURN JUMPDEST PUSH2 0x13A PUSH1 0x4 DUP1 CALLDATASIZE SUB DUP2 ADD SWAP1 PUSH2 0x135 SWAP2 SWAP1 PUSH2 0x10E4 JUMP JUMPDEST PUSH2 0x38E JUMP JUMPDEST PUSH1 0x40 MLOAD PUSH2 0x147 SWAP2 SWAP1 PUSH2 0x113C JUMP JUMPDEST PUSH1 0x40 MLOAD DUP1 SWAP2 SUB SWAP1 RETURN JUMPDEST PUSH2 0x158 PUSH2 0x3B0 JUMP JUMPDEST PUSH1 0x40 MLOAD PUSH2 0x165 SWAP2 SWAP1 PUSH2 0x1164 JUMP JUMPDEST PUSH1 0x40 MLOAD DUP1 SWAP2 SUB SWAP1 RETURN JUMPDEST PUSH2 0x188 PUSH1 0x4 DUP1 CALLDATASIZE SUB DUP2 ADD SWAP1 PUSH2 0x183 SWAP2 SWAP1 PUSH2 0x117D JUMP JUMPDEST PUSH2 0x3B9 JUMP JUMPDEST PUSH1 0x40 MLOAD PUSH2 0x195 SWAP2 SWAP1 PUSH2 0x113C JUMP JUMPDEST PUSH1 0x40 MLOAD DUP1 SWAP2 SUB SWAP1 RETURN JUMPDEST PUSH2 0x1A6 PUSH2 0x3E7 JUMP JUMPDEST PUSH1 0x40 MLOAD PUSH2 0x1B3 SWAP2 SWAP1 PUSH2 0x11E8 JUMP JUMPDEST PUSH1 0x40 MLOAD DUP1 SWAP2 SUB SWAP1 RETURN JUMPDEST PUSH2 0x1C4 PUSH2 0x3EF JUMP JUMPDEST PUSH1 0x40 MLOAD PUSH2 0x1D1 SWAP2 SWAP1 PUSH2 0x1164 JUMP JUMPDEST PUSH1 0x40 MLOAD DUP1 SWAP2 SUB SWAP1 RETURN JUMPDEST PUSH2 0x1E2 PUSH2 0x416 JUMP JUMPDEST STOP JUMPDEST PUSH2 0x1EC PUSH2 0x428 JUMP JUMPDEST PUSH1 0x40 MLOAD PUSH2 0x1F9 SWAP2 SWAP1 PUSH2 0x113C JUMP JUMPDEST PUSH1 0x40 MLOAD DUP1 SWAP2 SUB SWAP1 RETURN JUMPDEST PUSH2 0x21C PUSH1 0x4 DUP1 CALLDATASIZE SUB DUP2 ADD SWAP1 PUSH2 0x217 SWAP2 SWAP1 PUSH2 0x1201 JUMP JUMPDEST PUSH2 0x43D JUMP JUMPDEST PUSH1 0x40 MLOAD PUSH2 0x229 SWAP2 SWAP1 PUSH2 0x1164 JUMP JUMPDEST PUSH1 0x40 MLOAD DUP1 SWAP2 SUB SWAP1 RETURN JUMPDEST PUSH2 0x23A PUSH2 0x482 JUMP JUMPDEST STOP JUMPDEST PUSH2 0x244 PUSH2 0x495 JUMP JUMPDEST STOP JUMPDEST PUSH2 0x24E PUSH2 0x4A7 JUMP JUMPDEST PUSH1 0x40 MLOAD PUSH2 0x25B SWAP2 SWAP1 PUSH2 0x123B JUMP JUMPDEST PUSH1 0x40 MLOAD DUP1 SWAP2 SUB SWAP1 RETURN JUMPDEST PUSH2 0x26C PUSH2 0x4D0 JUMP JUMPDEST PUSH1 0x40 MLOAD PUSH2 0x279 SWAP2 SWAP1 PUSH2 0x1033 JUMP JUMPDEST PUSH1 0x40 MLOAD DUP1 SWAP2 SUB SWAP1 RETURN JUMPDEST PUSH2 0x29C PUSH1 0x4 DUP1 CALLDATASIZE SUB DUP2 ADD SWAP1 PUSH2 0x297 SWAP2 SWAP1 PUSH2 0x10E4 JUMP JUMPDEST PUSH2 0x560 JUMP JUMPDEST PUSH1 0x40 MLOAD PUSH2 0x2A9 SWAP2 SWAP1 PUSH2 0x113C JUMP JUMPDEST PUSH1 0x40 MLOAD DUP1 SWAP2 SUB SWAP1 RETURN JUMPDEST PUSH2 0x2CC PUSH1 0x4 DUP1 CALLDATASIZE SUB DUP2 ADD SWAP1 PUSH2 0x2C7 SWAP2 SWAP1 PUSH2 0x1254 JUMP JUMPDEST PUSH2 0x582 JUMP JUMPDEST PUSH1 0x40 MLOAD PUSH2 0x2D9 SWAP2 SWAP1 PUSH2 0x1164 JUMP JUMPDEST PUSH1 0x40 MLOAD DUP1 SWAP2 SUB SWAP1 RETURN JUMPDEST PUSH2 0x2FC PUSH1 0x4 DUP1 CALLDATASIZE SUB DUP2 ADD SWAP1 PUSH2 0x2F7 SWAP2 SWAP1 PUSH2 0x1201 JUMP JUMPDEST PUSH2 0x604 JUMP JUMPDEST STOP JUMPDEST PUSH1 0x60 PUSH1 0x3 DUP1 SLOAD PUSH2 0x30D SWAP1 PUSH2 0x12BF JUMP JUMPDEST DUP1 PUSH1 0x1F ADD PUSH1 0x20 DUP1 SWAP2 DIV MUL PUSH1 0x20 ADD PUSH1 0x40 MLOAD SWAP1 DUP2 ADD PUSH1 0x40 MSTORE DUP1 SWAP3 SWAP2 SWAP1 DUP2 DUP2 MSTORE PUSH1 0x20 ADD DUP3 DUP1 SLOAD PUSH2 0x339 SWAP1 PUSH2 0x12BF JUMP JUMPDEST DUP1 ISZERO PUSH2 0x384 JUMPI DUP1 PUSH1 0x1F LT PUSH2 0x35B JUMPI PUSH2 0x100 DUP1 DUP4 SLOAD DIV MUL DUP4 MSTORE SWAP2 PUSH1 0x20 ADD SWAP2 PUSH2 0x384 JUMP JUMPDEST DUP3 ADD SWAP2 SWAP1 PUSH0 MSTORE PUSH1 0x20 PUSH0 KECCAK256 SWAP1 JUMPDEST DUP2 SLOAD DUP2 MSTORE SWAP1 PUSH1 0x1 ADD SWAP1 PUSH1 0x20 ADD DUP1 DUP4 GT PUSH2 0x367 JUMPI DUP3 SWAP1 SUB PUSH1 0x1F AND DUP3 ADD SWAP2 JUMPDEST POP POP POP POP POP SWAP1 POP SWAP1 JUMP JUMPDEST PUSH0 DUP1 PUSH2 0x398 PUSH2 0x688 JUMP JUMPDEST SWAP1 POP PUSH2 0x3A5 DUP2 DUP6 DUP6 PUSH2 0x68F JUMP JUMPDEST PUSH1 0x1 SWAP2 POP POP SWAP3 SWAP2 POP POP JUMP JUMPDEST PUSH0 PUSH1 0x2 SLOAD SWAP1 POP SWAP1 JUMP JUMPDEST PUSH0 DUP1 PUSH2 0x3C3 PUSH2 0x688 JUMP JUMPDEST SWAP1 POP PUSH2 0x3D0 DUP6 DUP3 DUP6 PUSH2 0x6A1 JUMP JUMPDEST PUSH2 0x3DB DUP6 DUP6 DUP6 PUSH2 0x734 JUMP JUMPDEST PUSH1 0x1 SWAP2 POP POP SWAP4 SWAP3 POP POP POP JUMP JUMPDEST PUSH0 PUSH1 0x12 SWAP1 POP SWAP1 JUMP JUMPDEST PUSH0 PUSH32 0x0 SWAP1 POP SWAP1 JUMP JUMPDEST PUSH2 0x41E PUSH2 0x824 JUMP JUMPDEST PUSH2 0x426 PUSH2 0x8AB JUMP JUMPDEST JUMP JUMPDEST PUSH0 PUSH1 0x5 PUSH0 SWAP1 SLOAD SWAP1 PUSH2 0x100 EXP SWAP1 DIV PUSH1 0xFF AND SWAP1 POP SWAP1 JUMP JUMPDEST PUSH0 DUP1 PUSH0 DUP4 PUSH20 0xFFFFFFFFFFFFFFFFFFFFFFFFFFFFFFFFFFFFFFFF AND PUSH20 0xFFFFFFFFFFFFFFFFFFFFFFFFFFFFFFFFFFFFFFFF AND DUP2 MSTORE PUSH1 0x20 ADD SWAP1 DUP2 MSTORE PUSH1 0x20 ADD PUSH0 KECCAK256 SLOAD SWAP1 POP SWAP2 SWAP1 POP JUMP JUMPDEST PUSH2 0x48A PUSH2 0x824 JUMP JUMPDEST PUSH2 0x493 PUSH0 PUSH2 0x90C JUMP JUMPDEST JUMP JUMPDEST PUSH2 0x49D PUSH2 0x824 JUMP JUMPDEST PUSH2 0x4A5 PUSH2 0x9D1 JUMP JUMPDEST JUMP JUMPDEST PUSH0 PUSH1 0x5 PUSH1 0x1 SWAP1 SLOAD SWAP1 PUSH2 0x100 EXP SWAP1 DIV PUSH20 0xFFFFFFFFFFFFFFFFFFFFFFFFFFFFFFFFFFFFFFFF AND SWAP1 POP SWAP1 JUMP JUMPDEST PUSH1 0x60 PUSH1 0x4 DUP1 SLOAD PUSH2 0x4DF SWAP1 PUSH2 0x12BF JUMP JUMPDEST DUP1 PUSH1 0x1F ADD PUSH1 0x20 DUP1 SWAP2 DIV MUL PUSH1 0x20 ADD PUSH1 0x40 MLOAD SWAP1 DUP2 ADD PUSH1 0x40 MSTORE DUP1 SWAP3 SWAP2 SWAP1 DUP2 DUP2 MSTORE PUSH1 0x20 ADD DUP3 DUP1 SLOAD PUSH2 0x50B SWAP1 PUSH2 0x12BF JUMP JUMPDEST DUP1 ISZERO PUSH2 0x556 JUMPI DUP1 PUSH1 0x1F LT PUSH2 0x52D JUMPI PUSH2 0x100 DUP1 DUP4 SLOAD DIV MUL DUP4 MSTORE SWAP2 PUSH1 0x20 ADD SWAP2 PUSH2 0x556 JUMP JUMPDEST DUP3 ADD SWAP2 SWAP1 PUSH0 MSTORE PUSH1 0x20 PUSH0 KECCAK256 SWAP1 JUMPDEST DUP2 SLOAD DUP2 MSTORE SWAP1 PUSH1 0x1 ADD SWAP1 PUSH1 0x20 ADD DUP1 DUP4 GT PUSH2 0x539 JUMPI DUP3 SWAP1 SUB PUSH1 0x1F AND DUP3 ADD SWAP2 JUMPDEST POP POP POP POP POP SWAP1 POP SWAP1 JUMP JUMPDEST PUSH0 DUP1 PUSH2 0x56A PUSH2 0x688 JUMP JUMPDEST SWAP1 POP PUSH2 0x577 DUP2 DUP6 DUP6 PUSH2 0x734 JUMP JUMPDEST PUSH1 0x1 SWAP2 POP POP SWAP3 SWAP2 POP POP JUMP JUMPDEST PUSH0 PUSH1 0x1 PUSH0 DUP5 PUSH20 0xFFFFFFFFFFFFFFFFFFFFFFFFFFFFFFFFFFFFFFFF AND PUSH20 0xFFFFFFFFFFFFFFFFFFFFFFFFFFFFFFFFFFFFFFFF AND DUP2 MSTORE PUSH1 0x20 ADD SWAP1 DUP2 MSTORE PUSH1 0x20 ADD PUSH0 KECCAK256 PUSH0 DUP4 PUSH20 0xFFFFFFFFFFFFFFFFFFFFFFFFFFFFFFFFFFFFFFFF AND PUSH20 0xFFFFFFFFFFFFFFFFFFFFFFFFFFFFFFFFFFFFFFFF AND DUP2 MSTORE PUSH1 0x20 ADD SWAP1 DUP2 MSTORE PUSH1 0x20 ADD PUSH0 KECCAK256 SLOAD SWAP1 POP SWAP3 SWAP2 POP POP JUMP JUMPDEST PUSH2 0x60C PUSH2 0x824 JUMP JUMPDEST PUSH0 PUSH20 0xFFFFFFFFFFFFFFFFFFFFFFFFFFFFFFFFFFFFFFFF AND DUP2 PUSH20 0xFFFFFFFFFFFFFFFFFFFFFFFFFFFFFFFFFFFFFFFF AND SUB PUSH2 0x67C JUMPI PUSH0 PUSH1 0x40 MLOAD PUSH32 0x1E4FBDF700000000000000000000000000000000000000000000000000000000 DUP2 MSTORE PUSH1 0x4 ADD PUSH2 0x673 SWAP2 SWAP1 PUSH2 0x123B JUMP JUMPDEST PUSH1 0x40 MLOAD DUP1 SWAP2 SUB SWAP1 REVERT JUMPDEST PUSH2 0x685 DUP2 PUSH2 0x90C JUMP JUMPDEST POP JUMP JUMPDEST PUSH0 CALLER SWAP1 POP SWAP1 JUMP JUMPDEST PUSH2 0x69C DUP4 DUP4 DUP4 PUSH1 0x1 PUSH2 0xA33 JUMP JUMPDEST POP POP POP JUMP JUMPDEST PUSH0 PUSH2 0x6AC DUP5 DUP5 PUSH2 0x582 JUMP JUMPDEST SWAP1 POP PUSH32 0xFFFFFFFFFFFFFFFFFFFFFFFFFFFFFFFFFFFFFFFFFFFFFFFFFFFFFFFFFFFFFFFF DUP2 LT ISZERO PUSH2 0x72E JUMPI DUP2 DUP2 LT ISZERO PUSH2 0x71F JUMPI DUP3 DUP2 DUP4 PUSH1 0x40 MLOAD PUSH32 0xFB8F41B200000000000000000000000000000000000000000000000000000000 DUP2 MSTORE PUSH1 0x4 ADD PUSH2 0x716 SWAP4 SWAP3 SWAP2 SWAP1 PUSH2 0x12EF JUMP JUMPDEST PUSH1 0x40 MLOAD DUP1 SWAP2 SUB SWAP1 REVERT JUMPDEST PUSH2 0x72D DUP5 DUP5 DUP5 DUP5 SUB PUSH0 PUSH2 0xA33 JUMP JUMPDEST JUMPDEST POP POP POP POP JUMP JUMPDEST PUSH0 PUSH20 0xFFFFFFFFFFFFFFFFFFFFFFFFFFFFFFFFFFFFFFFF AND DUP4 PUSH20 0xFFFFFFFFFFFFFFFFFFFFFFFFFFFFFFFFFFFFFFFF AND SUB PUSH2 0x7A4 JUMPI PUSH0 PUSH1 0x40 MLOAD PUSH32 0x96C6FD1E00000000000000000000000000000000000000000000000000000000 DUP2 MSTORE PUSH1 0x4 ADD PUSH2 0x79B SWAP2 SWAP1 PUSH2 0x123B JUMP JUMPDEST PUSH1 0x40 MLOAD DUP1 SWAP2 SUB SWAP1 REVERT JUMPDEST PUSH0 PUSH20 0xFFFFFFFFFFFFFFFFFFFFFFFFFFFFFFFFFFFFFFFF AND DUP3 PUSH20 0xFFFFFFFFFFFFFFFFFFFFFFFFFFFFFFFFFFFFFFFF AND SUB PUSH2 0x814 JUMPI PUSH0 PUSH1 0x40 MLOAD PUSH32 0xEC442F0500000000000000000000000000000000000000000000000000000000 DUP2 MSTORE PUSH1 0x4 ADD PUSH2 0x80B SWAP2 SWAP1 PUSH2 0x123B JUMP JUMPDEST PUSH1 0x40 MLOAD DUP1 SWAP2 SUB SWAP1 REVERT JUMPDEST PUSH2 0x81F DUP4 DUP4 DUP4 PUSH2 0xC02 JUMP JUMPDEST POP POP POP JUMP JUMPDEST PUSH2 0x82C PUSH2 0x688 JUMP JUMPDEST PUSH20 0xFFFFFFFFFFFFFFFFFFFFFFFFFFFFFFFFFFFFFFFF AND PUSH2 0x84A PUSH2 0x4A7 JUMP JUMPDEST PUSH20 0xFFFFFFFFFFFFFFFFFFFFFFFFFFFFFFFFFFFFFFFF AND EQ PUSH2 0x8A9 JUMPI PUSH2 0x86D PUSH2 0x688 JUMP JUMPDEST PUSH1 0x40 MLOAD PUSH32 0x118CDAA700000000000000000000000000000000000000000000000000000000 DUP2 MSTORE PUSH1 0x4 ADD PUSH2 0x8A0 SWAP2 SWAP1 PUSH2 0x123B JUMP JUMPDEST PUSH1 0x40 MLOAD DUP1 SWAP2 SUB SWAP1 REVERT JUMPDEST JUMP JUMPDEST PUSH2 0x8B3 PUSH2 0xC5A JUMP JUMPDEST PUSH0 PUSH1 0x5 PUSH0 PUSH2 0x100 EXP DUP2 SLOAD DUP2 PUSH1 0xFF MUL NOT AND SWAP1 DUP4 ISZERO ISZERO MUL OR SWAP1 SSTORE POP PUSH32 0x5DB9EE0A495BF2E6FF9C91A7834C1BA4FDD244A5E8AA4E537BD38AEAE4B073AA PUSH2 0x8F5 PUSH2 0x688 JUMP JUMPDEST PUSH1 0x40 MLOAD PUSH2 0x902 SWAP2 SWAP1 PUSH2 0x123B JUMP JUMPDEST PUSH1 0x40 MLOAD DUP1 SWAP2 SUB SWAP1 LOG1 JUMP JUMPDEST PUSH0 PUSH1 0x5 PUSH1 0x1 SWAP1 SLOAD SWAP1 PUSH2 0x100 EXP SWAP1 DIV PUSH20 0xFFFFFFFFFFFFFFFFFFFFFFFFFFFFFFFFFFFFFFFF AND SWAP1 POP DUP2 PUSH1 0x5 PUSH1 0x1 PUSH2 0x100 EXP DUP2 SLOAD DUP2 PUSH20 0xFFFFFFFFFFFFFFFFFFFFFFFFFFFFFFFFFFFFFFFF MUL NOT AND SWAP1 DUP4 PUSH20 0xFFFFFFFFFFFFFFFFFFFFFFFFFFFFFFFFFFFFFFFF AND MUL OR SWAP1 SSTORE POP DUP2 PUSH20 0xFFFFFFFFFFFFFFFFFFFFFFFFFFFFFFFFFFFFFFFF AND DUP2 PUSH20 0xFFFFFFFFFFFFFFFFFFFFFFFFFFFFFFFFFFFFFFFF AND PUSH32 0x8BE0079C531659141344CD1FD0A4F28419497F9722A3DAAFE3B4186F6B6457E0 PUSH1 0x40 MLOAD PUSH1 0x40 MLOAD DUP1 SWAP2 SUB SWAP1 LOG3 POP POP JUMP JUMPDEST PUSH2 0x9D9 PUSH2 0xCA3 JUMP JUMPDEST PUSH1 0x1 PUSH1 0x5 PUSH0 PUSH2 0x100 EXP DUP2 SLOAD DUP2 PUSH1 0xFF MUL NOT AND SWAP1 DUP4 ISZERO ISZERO MUL OR SWAP1 SSTORE POP PUSH32 0x62E78CEA01BEE320CD4E420270B5EA74000D11B0C9F74754EBDBFC544B05A258 PUSH2 0xA1C PUSH2 0x688 JUMP JUMPDEST PUSH1 0x40 MLOAD PUSH2 0xA29 SWAP2 SWAP1 PUSH2 0x123B JUMP JUMPDEST PUSH1 0x40 MLOAD DUP1 SWAP2 SUB SWAP1 LOG1 JUMP JUMPDEST PUSH0 PUSH20 0xFFFFFFFFFFFFFFFFFFFFFFFFFFFFFFFFFFFFFFFF AND DUP5 PUSH20 0xFFFFFFFFFFFFFFFFFFFFFFFFFFFFFFFFFFFFFFFF AND SUB PUSH2 0xAA3 JUMPI PUSH0 PUSH1 0x40 MLOAD PUSH32 0xE602DF0500000000000000000000000000000000000000000000000000000000 DUP2 MSTORE PUSH1 0x4 ADD PUSH2 0xA9A SWAP2 SWAP1 PUSH2 0x123B JUMP JUMPDEST PUSH1 0x40 MLOAD DUP1 SWAP2 SUB SWAP1 REVERT JUMPDEST PUSH0 PUSH20 0xFFFFFFFFFFFFFFFFFFFFFFFFFFFFFFFFFFFFFFFF AND DUP4 PUSH20 0xFFFFFFFFFFFFFFFFFFFFFFFFFFFFFFFFFFFFFFFF AND SUB PUSH2 0xB13 JUMPI PUSH0 PUSH1 0x40 MLOAD PUSH32 0x94280D6200000000000000000000000000000000000000000000000000000000 DUP2 MSTORE PUSH1 0x4 ADD PUSH2 0xB0A SWAP2 SWAP1 PUSH2 0x123B JUMP JUMPDEST PUSH1 0x40 MLOAD DUP1 SWAP2 SUB SWAP1 REVERT JUMPDEST DUP2 PUSH1 0x1 PUSH0 DUP7 PUSH20 0xFFFFFFFFFFFFFFFFFFFFFFFFFFFFFFFFFFFFFFFF AND PUSH20 0xFFFFFFFFFFFFFFFFFFFFFFFFFFFFFFFFFFFFFFFF AND DUP2 MSTORE PUSH1 0x20 ADD SWAP1 DUP2 MSTORE PUSH1 0x20 ADD PUSH0 KECCAK256 PUSH0 DUP6 PUSH20 0xFFFFFFFFFFFFFFFFFFFFFFFFFFFFFFFFFFFFFFFF AND PUSH20 0xFFFFFFFFFFFFFFFFFFFFFFFFFFFFFFFFFFFFFFFF AND DUP2 MSTORE PUSH1 0x20 ADD SWAP1 DUP2 MSTORE PUSH1 0x20 ADD PUSH0 KECCAK256 DUP2 SWAP1 SSTORE POP DUP1 ISZERO PUSH2 0xBFC JUMPI DUP3 PUSH20 0xFFFFFFFFFFFFFFFFFFFFFFFFFFFFFFFFFFFFFFFF AND DUP5 PUSH20 0xFFFFFFFFFFFFFFFFFFFFFFFFFFFFFFFFFFFFFFFF AND PUSH32 0x8C5BE1E5EBEC7D5BD14F71427D1E84F3DD0314C0F7B2291E5B200AC8C7C3B925 DUP5 PUSH1 0x40 MLOAD PUSH2 0xBF3 SWAP2 SWAP1 PUSH2 0x1164 JUMP JUMPDEST PUSH1 0x40 MLOAD DUP1 SWAP2 SUB SWAP1 LOG3 JUMPDEST POP POP POP POP JUMP JUMPDEST PUSH2 0xC0A PUSH2 0x428 JUMP JUMPDEST ISZERO PUSH2 0xC4A JUMPI PUSH1 0x40 MLOAD PUSH32 0x8C379A000000000000000000000000000000000000000000000000000000000 DUP2 MSTORE PUSH1 0x4 ADD PUSH2 0xC41 SWAP1 PUSH2 0x136E JUMP JUMPDEST PUSH1 0x40 MLOAD DUP1 SWAP2 SUB SWAP1 REVERT JUMPDEST PUSH2 0xC55 DUP4 DUP4 DUP4 PUSH2 0xCED JUMP JUMPDEST POP POP POP JUMP JUMPDEST PUSH2 0xC62 PUSH2 0x428 JUMP JUMPDEST PUSH2 0xCA1 JUMPI PUSH1 0x40 MLOAD PUSH32 0x8C379A000000000000000000000000000000000000000000000000000000000 DUP2 MSTORE PUSH1 0x4 ADD PUSH2 0xC98 SWAP1 PUSH2 0x13D6 JUMP JUMPDEST PUSH1 0x40 MLOAD DUP1 SWAP2 SUB SWAP1 REVERT JUMPDEST JUMP JUMPDEST PUSH2 0xCAB PUSH2 0x428 JUMP JUMPDEST ISZERO PUSH2 0xCEB JUMPI PUSH1 0x40 MLOAD PUSH32 0x8C379A000000000000000000000000000000000000000000000000000000000 DUP2 MSTORE PUSH1 0x4 ADD PUSH2 0xCE2 SWAP1 PUSH2 0x143E JUMP JUMPDEST PUSH1 0x40 MLOAD DUP1 SWAP2 SUB SWAP1 REVERT JUMPDEST JUMP JUMPDEST PUSH2 0xCF8 DUP4 DUP4 DUP4 PUSH2 0xD90 JUMP JUMPDEST PUSH0 PUSH20 0xFFFFFFFFFFFFFFFFFFFFFFFFFFFFFFFFFFFFFFFF AND DUP4 PUSH20 0xFFFFFFFFFFFFFFFFFFFFFFFFFFFFFFFFFFFFFFFF AND SUB PUSH2 0xD8B JUMPI PUSH0 PUSH2 0xD34 PUSH2 0x3EF JUMP JUMPDEST SWAP1 POP PUSH0 PUSH2 0xD3F PUSH2 0x3B0 JUMP JUMPDEST SWAP1 POP DUP2 DUP2 GT ISZERO PUSH2 0xD88 JUMPI DUP1 DUP3 PUSH1 0x40 MLOAD PUSH32 0x9E79F85400000000000000000000000000000000000000000000000000000000 DUP2 MSTORE PUSH1 0x4 ADD PUSH2 0xD7F SWAP3 SWAP2 SWAP1 PUSH2 0x145C JUMP JUMPDEST PUSH1 0x40 MLOAD DUP1 SWAP2 SUB SWAP1 REVERT JUMPDEST POP POP JUMPDEST POP POP POP JUMP JUMPDEST PUSH0 PUSH20 0xFFFFFFFFFFFFFFFFFFFFFFFFFFFFFFFFFFFFFFFF AND DUP4 PUSH20 0xFFFFFFFFFFFFFFFFFFFFFFFFFFFFFFFFFFFFFFFF AND SUB PUSH2 0xDE0 JUMPI DUP1 PUSH1 0x2 PUSH0 DUP3 DUP3 SLOAD PUSH2 0xDD4 SWAP2 SWAP1 PUSH2 0x14B0 JUMP JUMPDEST SWAP3 POP POP DUP2 SWAP1 SSTORE POP PUSH2 0xEAE JUMP JUMPDEST PUSH0 DUP1 PUSH0 DUP6 PUSH20 0xFFFFFFFFFFFFFFFFFFFFFFFFFFFFFFFFFFFFFFFF AND PUSH20 0xFFFFFFFFFFFFFFFFFFFFFFFFFFFFFFFFFFFFFFFF AND DUP2 MSTORE PUSH1 0x20 ADD SWAP1 DUP2 MSTORE PUSH1 0x20 ADD PUSH0 KECCAK256 SLOAD SWAP1 POP DUP2 DUP2 LT ISZERO PUSH2 0xE69 JUMPI DUP4 DUP2 DUP4 PUSH1 0x40 MLOAD PUSH32 0xE450D38C00000000000000000000000000000000000000000000000000000000 DUP2 MSTORE PUSH1 0x4 ADD PUSH2 0xE60 SWAP4 SWAP3 SWAP2 SWAP1 PUSH2 0x12EF JUMP JUMPDEST PUSH1 0x40 MLOAD DUP1 SWAP2 SUB SWAP1 REVERT JUMPDEST DUP2 DUP2 SUB PUSH0 DUP1 DUP7 PUSH20 0xFFFFFFFFFFFFFFFFFFFFFFFFFFFFFFFFFFFFFFFF AND PUSH20 0xFFFFFFFFFFFFFFFFFFFFFFFFFFFFFFFFFFFFFFFF AND DUP2 MSTORE PUSH1 0x20 ADD SWAP1 DUP2 MSTORE PUSH1 0x20 ADD PUSH0 KECCAK256 DUP2 SWAP1 SSTORE POP POP JUMPDEST PUSH0 PUSH20 0xFFFFFFFFFFFFFFFFFFFFFFFFFFFFFFFFFFFFFFFF AND DUP3 PUSH20 0xFFFFFFFFFFFFFFFFFFFFFFFFFFFFFFFFFFFFFFFF AND SUB PUSH2 0xEF5 JUMPI DUP1 PUSH1 0x2 PUSH0 DUP3 DUP3 SLOAD SUB SWAP3 POP POP DUP2 SWAP1 SSTORE POP PUSH2 0xF3F JUMP JUMPDEST DUP1 PUSH0 DUP1 DUP5 PUSH20 0xFFFFFFFFFFFFFFFFFFFFFFFFFFFFFFFFFFFFFFFF AND PUSH20 0xFFFFFFFFFFFFFFFFFFFFFFFFFFFFFFFFFFFFFFFF AND DUP2 MSTORE PUSH1 0x20 ADD SWAP1 DUP2 MSTORE PUSH1 0x20 ADD PUSH0 KECCAK256 PUSH0 DUP3 DUP3 SLOAD ADD SWAP3 POP POP DUP2 SWAP1 SSTORE POP JUMPDEST DUP2 PUSH20 0xFFFFFFFFFFFFFFFFFFFFFFFFFFFFFFFFFFFFFFFF AND DUP4 PUSH20 0xFFFFFFFFFFFFFFFFFFFFFFFFFFFFFFFFFFFFFFFF AND PUSH32 0xDDF252AD1BE2C89B69C2B068FC378DAA952BA7F163C4A11628F55A4DF523B3EF DUP4 PUSH1 0x40 MLOAD PUSH2 0xF9C SWAP2 SWAP1 PUSH2 0x1164 JUMP JUMPDEST PUSH1 0x40 MLOAD DUP1 SWAP2 SUB SWAP1 LOG3 POP POP POP JUMP JUMPDEST PUSH0 DUP2 MLOAD SWAP1 POP SWAP2 SWAP1 POP JUMP JUMPDEST PUSH0 DUP3 DUP3 MSTORE PUSH1 0x20 DUP3 ADD SWAP1 POP SWAP3 SWAP2 POP POP JUMP JUMPDEST PUSH0 JUMPDEST DUP4 DUP2 LT ISZERO PUSH2 0xFE0 JUMPI DUP1 DUP3 ADD MLOAD DUP2 DUP5 ADD MSTORE PUSH1 0x20 DUP2 ADD SWAP1 POP PUSH2 0xFC5 JUMP JUMPDEST PUSH0 DUP5 DUP5 ADD MSTORE POP POP POP POP JUMP JUMPDEST PUSH0 PUSH1 0x1F NOT PUSH1 0x1F DUP4 ADD AND SWAP1 POP SWAP2 SWAP1 POP JUMP JUMPDEST PUSH0 PUSH2 0x1005 DUP3 PUSH2 0xFA9 JUMP JUMPDEST PUSH2 0x100F DUP2 DUP6 PUSH2 0xFB3 JUMP JUMPDEST SWAP4 POP PUSH2 0x101F DUP2 DUP6 PUSH1 0x20 DUP7 ADD PUSH2 0xFC3 JUMP JUMPDEST PUSH2 0x1028 DUP2 PUSH2 0xFEB JUMP JUMPDEST DUP5 ADD SWAP2 POP POP SWAP3 SWAP2 POP POP JUMP JUMPDEST PUSH0 PUSH1 0x20 DUP3 ADD SWAP1 POP DUP2 DUP2 SUB PUSH0 DUP4 ADD MSTORE PUSH2 0x104B DUP2 DUP5 PUSH2 0xFFB JUMP JUMPDEST SWAP1 POP SWAP3 SWAP2 POP POP JUMP JUMPDEST PUSH0 DUP1 REVERT JUMPDEST PUSH0 PUSH20 0xFFFFFFFFFFFFFFFFFFFFFFFFFFFFFFFFFFFFFFFF DUP3 AND SWAP1 POP SWAP2 SWAP1 POP JUMP JUMPDEST PUSH0 PUSH2 0x1080 DUP3 PUSH2 0x1057 JUMP JUMPDEST SWAP1 POP SWAP2 SWAP1 POP JUMP JUMPDEST PUSH2 0x1090 DUP2 PUSH2 0x1076 JUMP JUMPDEST DUP2 EQ PUSH2 0x109A JUMPI PUSH0 DUP1 REVERT JUMPDEST POP JUMP JUMPDEST PUSH0 DUP2 CALLDATALOAD SWAP1 POP PUSH2 0x10AB DUP2 PUSH2 0x1087 JUMP JUMPDEST SWAP3 SWAP2 POP POP JUMP JUMPDEST PUSH0 DUP2 SWAP1 POP SWAP2 SWAP1 POP JUMP JUMPDEST PUSH2 0x10C3 DUP2 PUSH2 0x10B1 JUMP JUMPDEST DUP2 EQ PUSH2 0x10CD JUMPI PUSH0 DUP1 REVERT JUMPDEST POP JUMP JUMPDEST PUSH0 DUP2 CALLDATALOAD SWAP1 POP PUSH2 0x10DE DUP2 PUSH2 0x10BA JUMP JUMPDEST SWAP3 SWAP2 POP POP JUMP JUMPDEST PUSH0 DUP1 PUSH1 0x40 DUP4 DUP6 SUB SLT ISZERO PUSH2 0x10FA JUMPI PUSH2 0x10F9 PUSH2 0x1053 JUMP JUMPDEST JUMPDEST PUSH0 PUSH2 0x1107 DUP6 DUP3 DUP7 ADD PUSH2 0x109D JUMP JUMPDEST SWAP3 POP POP PUSH1 0x20 PUSH2 0x1118 DUP6 DUP3 DUP7 ADD PUSH2 0x10D0 JUMP JUMPDEST SWAP2 POP POP SWAP3 POP SWAP3 SWAP1 POP JUMP JUMPDEST PUSH0 DUP2 ISZERO ISZERO SWAP1 POP SWAP2 SWAP1 POP JUMP JUMPDEST PUSH2 0x1136 DUP2 PUSH2 0x1122 JUMP JUMPDEST DUP3 MSTORE POP POP JUMP JUMPDEST PUSH0 PUSH1 0x20 DUP3 ADD SWAP1 POP PUSH2 0x114F PUSH0 DUP4 ADD DUP5 PUSH2 0x112D JUMP JUMPDEST SWAP3 SWAP2 POP POP JUMP JUMPDEST PUSH2 0x115E DUP2 PUSH2 0x10B1 JUMP JUMPDEST DUP3 MSTORE POP POP JUMP JUMPDEST PUSH0 PUSH1 0x20 DUP3 ADD SWAP1 POP PUSH2 0x1177 PUSH0 DUP4 ADD DUP5 PUSH2 0x1155 JUMP JUMPDEST SWAP3 SWAP2 POP POP JUMP JUMPDEST PUSH0 DUP1 PUSH0 PUSH1 0x60 DUP5 DUP7 SUB SLT ISZERO PUSH2 0x1194 JUMPI PUSH2 0x1193 PUSH2 0x1053 JUMP JUMPDEST JUMPDEST PUSH0 PUSH2 0x11A1 DUP7 DUP3 DUP8 ADD PUSH2 0x109D JUMP JUMPDEST SWAP4 POP POP PUSH1 0x20 PUSH2 0x11B2 DUP7 DUP3 DUP8 ADD PUSH2 0x109D JUMP JUMPDEST SWAP3 POP POP PUSH1 0x40 PUSH2 0x11C3 DUP7 DUP3 DUP8 ADD PUSH2 0x10D0 JUMP JUMPDEST SWAP2 POP POP SWAP3 POP SWAP3 POP SWAP3 JUMP JUMPDEST PUSH0 PUSH1 0xFF DUP3 AND SWAP1 POP SWAP2 SWAP1 POP JUMP JUMPDEST PUSH2 0x11E2 DUP2 PUSH2 0x11CD JUMP JUMPDEST DUP3 MSTORE POP POP JUMP JUMPDEST PUSH0 PUSH1 0x20 DUP3 ADD SWAP1 POP PUSH2 0x11FB PUSH0 DUP4 ADD DUP5 PUSH2 0x11D9 JUMP JUMPDEST SWAP3 SWAP2 POP POP JUMP JUMPDEST PUSH0 PUSH1 0x20 DUP3 DUP5 SUB SLT ISZERO PUSH2 0x1216 JUMPI PUSH2 0x1215 PUSH2 0x1053 JUMP JUMPDEST JUMPDEST PUSH0 PUSH2 0x1223 DUP5 DUP3 DUP6 ADD PUSH2 0x109D JUMP JUMPDEST SWAP2 POP POP SWAP3 SWAP2 POP POP JUMP JUMPDEST PUSH2 0x1235 DUP2 PUSH2 0x1076 JUMP JUMPDEST DUP3 MSTORE POP POP JUMP JUMPDEST PUSH0 PUSH1 0x20 DUP3 ADD SWAP1 POP PUSH2 0x124E PUSH0 DUP4 ADD DUP5 PUSH2 0x122C JUMP JUMPDEST SWAP3 SWAP2 POP POP JUMP JUMPDEST PUSH0 DUP1 PUSH1 0x40 DUP4 DUP6 SUB SLT ISZERO PUSH2 0x126A JUMPI PUSH2 0x1269 PUSH2 0x1053 JUMP JUMPDEST JUMPDEST PUSH0 PUSH2 0x1277 DUP6 DUP3 DUP7 ADD PUSH2 0x109D JUMP JUMPDEST SWAP3 POP POP PUSH1 0x20 PUSH2 0x1288 DUP6 DUP3 DUP7 ADD PUSH2 0x109D JUMP JUMPDEST SWAP2 POP POP SWAP3 POP SWAP3 SWAP1 POP JUMP JUMPDEST PUSH32 0x4E487B7100000000000000000000000000000000000000000000000000000000 PUSH0 MSTORE PUSH1 0x22 PUSH1 0x4 MSTORE PUSH1 0x24 PUSH0 REVERT JUMPDEST PUSH0 PUSH1 0x2 DUP3 DIV SWAP1 POP PUSH1 0x1 DUP3 AND DUP1 PUSH2 0x12D6 JUMPI PUSH1 0x7F DUP3 AND SWAP2 POP JUMPDEST PUSH1 0x20 DUP3 LT DUP2 SUB PUSH2 0x12E9 JUMPI PUSH2 0x12E8 PUSH2 0x1292 JUMP JUMPDEST JUMPDEST POP SWAP2 SWAP1 POP JUMP JUMPDEST PUSH0 PUSH1 0x60 DUP3 ADD SWAP1 POP PUSH2 0x1302 PUSH0 DUP4 ADD DUP7 PUSH2 0x122C JUMP JUMPDEST PUSH2 0x130F PUSH1 0x20 DUP4 ADD DUP6 PUSH2 0x1155 JUMP JUMPDEST PUSH2 0x131C PUSH1 0x40 DUP4 ADD DUP5 PUSH2 0x1155 JUMP JUMPDEST SWAP5 SWAP4 POP POP POP POP JUMP JUMPDEST PUSH32 0x5472616E73666572656E63696173207061757361646173000000000000000000 PUSH0 DUP3 ADD MSTORE POP JUMP JUMPDEST PUSH0 PUSH2 0x1358 PUSH1 0x17 DUP4 PUSH2 0xFB3 JUMP JUMPDEST SWAP2 POP PUSH2 0x1363 DUP3 PUSH2 0x1324 JUMP JUMPDEST PUSH1 0x20 DUP3 ADD SWAP1 POP SWAP2 SWAP1 POP JUMP JUMPDEST PUSH0 PUSH1 0x20 DUP3 ADD SWAP1 POP DUP2 DUP2 SUB PUSH0 DUP4 ADD MSTORE PUSH2 0x1385 DUP2 PUSH2 0x134C JUMP JUMPDEST SWAP1 POP SWAP2 SWAP1 POP JUMP JUMPDEST PUSH32 0x5061757361626C653A206E6F7420706175736564000000000000000000000000 PUSH0 DUP3 ADD MSTORE POP JUMP JUMPDEST PUSH0 PUSH2 0x13C0 PUSH1 0x14 DUP4 PUSH2 0xFB3 JUMP JUMPDEST SWAP2 POP PUSH2 0x13CB DUP3 PUSH2 0x138C JUMP JUMPDEST PUSH1 0x20 DUP3 ADD SWAP1 POP SWAP2 SWAP1 POP JUMP JUMPDEST PUSH0 PUSH1 0x20 DUP3 ADD SWAP1 POP DUP2 DUP2 SUB PUSH0 DUP4 ADD MSTORE PUSH2 0x13ED DUP2 PUSH2 0x13B4 JUMP JUMPDEST SWAP1 POP SWAP2 SWAP1 POP JUMP JUMPDEST PUSH32 0x5061757361626C653A2070617573656400000000000000000000000000000000 PUSH0 DUP3 ADD MSTORE POP JUMP JUMPDEST PUSH0 PUSH2 0x1428 PUSH1 0x10 DUP4 PUSH2 0xFB3 JUMP JUMPDEST SWAP2 POP PUSH2 0x1433 DUP3 PUSH2 0x13F4 JUMP JUMPDEST PUSH1 0x20 DUP3 ADD SWAP1 POP SWAP2 SWAP1 POP JUMP JUMPDEST PUSH0 PUSH1 0x20 DUP3 ADD SWAP1 POP DUP2 DUP2 SUB PUSH0 DUP4 ADD MSTORE PUSH2 0x1455 DUP2 PUSH2 0x141C JUMP JUMPDEST SWAP1 POP SWAP2 SWAP1 POP JUMP JUMPDEST PUSH0 PUSH1 0x40 DUP3 ADD SWAP1 POP PUSH2 0x146F PUSH0 DUP4 ADD DUP6 PUSH2 0x1155 JUMP JUMPDEST PUSH2 0x147C PUSH1 0x20 DUP4 ADD DUP5 PUSH2 0x1155 JUMP JUMPDEST SWAP4 SWAP3 POP POP POP JUMP JUMPDEST PUSH32 0x4E487B7100000000000000000000000000000000000000000000000000000000 PUSH0 MSTORE PUSH1 0x11 PUSH1 0x4 MSTORE PUSH1 0x24 PUSH0 REVERT JUMPDEST PUSH0 PUSH2 0x14BA DUP3 PUSH2 0x10B1 JUMP JUMPDEST SWAP2 POP PUSH2 0x14C5 DUP4 PUSH2 0x10B1 JUMP JUMPDEST SWAP3 POP DUP3 DUP3 ADD SWAP1 POP DUP1 DUP3 GT ISZERO PUSH2 0x14DD JUMPI PUSH2 0x14DC PUSH2 0x1483 JUMP JUMPDEST JUMPDEST SWAP3 SWAP2 POP POP JUMP INVALID LOG2 PUSH5 0x6970667358 0x22 SLT KECCAK256 ADDMOD 0xD2 LOG3 0x4B LOG1 DUP14 0xB9 MUL 0x5E DELEGATECALL PUSH10 0xEF61161728BE5AF8586E SELFDESTRUCT BASEFEE DUP12 JUMPDEST PUSH16 0xCA1CDF18842264736F6C634300081400 CALLER "
				},
				"gasEstimates": {
					"creation": {
						"codeDepositCost": "1080200",
						"executionCost": "infinite",
						"totalCost": "infinite"
					},
					"external": {
						"allowance(address,address)": "infinite",
						"approve(address,uint256)": "infinite",
						"balanceOf(address)": "2852",
						"cap()": "infinite",
						"decimals()": "361",
						"name()": "infinite",
						"owner()": "2655",
						"pause()": "infinite",
						"paused()": "2562",
						"renounceOwnership()": "infinite",
						"symbol()": "infinite",
						"totalSupply()": "2500",
						"transfer(address,uint256)": "infinite",
						"transferFrom(address,address,uint256)": "infinite",
						"transferOwnership(address)": "infinite",
						"unpause()": "infinite"
					},
					"internal": {
						"_update(address,address,uint256)": "infinite"
					}
				},
				"methodIdentifiers": {
					"allowance(address,address)": "dd62ed3e",
					"approve(address,uint256)": "095ea7b3",
					"balanceOf(address)": "70a08231",
					"cap()": "355274ea",
					"decimals()": "313ce567",
					"name()": "06fdde03",
					"owner()": "8da5cb5b",
					"pause()": "8456cb59",
					"paused()": "5c975abb",
					"renounceOwnership()": "715018a6",
					"symbol()": "95d89b41",
					"totalSupply()": "18160ddd",
					"transfer(address,uint256)": "a9059cbb",
					"transferFrom(address,address,uint256)": "23b872dd",
					"transferOwnership(address)": "f2fde38b",
					"unpause()": "3f4ba83a"
				}
			},
			"storageLayout": {
				"storage": [
					{
						"astId": 415,
						"contract": "PulseToken.sol:PulseToken",
						"label": "_balances",
						"offset": 0,
						"slot": "0",
						"type": "t_mapping(t_address,t_uint256)"
					},
					{
						"astId": 421,
						"contract": "PulseToken.sol:PulseToken",
						"label": "_allowances",
						"offset": 0,
						"slot": "1",
						"type": "t_mapping(t_address,t_mapping(t_address,t_uint256))"
					},
					{
						"astId": 423,
						"contract": "PulseToken.sol:PulseToken",
						"label": "_totalSupply",
						"offset": 0,
						"slot": "2",
						"type": "t_uint256"
					},
					{
						"astId": 425,
						"contract": "PulseToken.sol:PulseToken",
						"label": "_name",
						"offset": 0,
						"slot": "3",
						"type": "t_string_storage"
					},
					{
						"astId": 427,
						"contract": "PulseToken.sol:PulseToken",
						"label": "_symbol",
						"offset": 0,
						"slot": "4",
						"type": "t_string_storage"
					},
					{
						"astId": 302,
						"contract": "PulseToken.sol:PulseToken",
						"label": "_paused",
						"offset": 0,
						"slot": "5",
						"type": "t_bool"
					},
					{
						"astId": 8,
						"contract": "PulseToken.sol:PulseToken",
						"label": "_owner",
						"offset": 1,
						"slot": "5",
						"type": "t_address"
					}
				],
				"types": {
					"t_address": {
						"encoding": "inplace",
						"label": "address",
						"numberOfBytes": "20"
					},
					"t_bool": {
						"encoding": "inplace",
						"label": "bool",
						"numberOfBytes": "1"
					},
					"t_mapping(t_address,t_mapping(t_address,t_uint256))": {
						"encoding": "mapping",
						"key": "t_address",
						"label": "mapping(address => mapping(address => uint256))",
						"numberOfBytes": "32",
						"value": "t_mapping(t_address,t_uint256)"
					},
					"t_mapping(t_address,t_uint256)": {
						"encoding": "mapping",
						"key": "t_address",
						"label": "mapping(address => uint256)",
						"numberOfBytes": "32",
						"value": "t_uint256"
					},
					"t_string_storage": {
						"encoding": "bytes",
						"label": "string",
						"numberOfBytes": "32"
					},
					"t_uint256": {
						"encoding": "inplace",
						"label": "uint256",
						"numberOfBytes": "32"
					}
				}
			},
			"userdoc": {
				"kind": "user",
				"methods": {},
				"version": 1
			}
		}
	}
}