{
	"data": {
		"bytecode": {
			"linkReferences": {},
			"object": "60a060405234801562000010575f80fd5b50604051620023fc380380620023fc83398181016040528101906200003691906200075d565b80620000476200022c60201b60201c565b600a6200005591906200091f565b6301406f406200006691906200096f565b6040518060400160405280600a81526020017f50756c7365546f6b656e000000000000000000000000000000000000000000008152506040518060400160405280600381526020017f504c5300000000000000000000000000000000000000000000000000000000008152508160039081620000e3919062000c14565b508060049081620000f5919062000c14565b5050505f81036200013f575f6040517f392e1e2700000000000000000000000000000000000000000000000000000000815260040162000136919062000d39565b60405180910390fd5b8060808181525050505f60055f6101000a81548160ff0219169083151502179055505f73ffffffffffffffffffffffffffffffffffffffff168173ffffffffffffffffffffffffffffffffffffffff1603620001d4575f6040517f1e4fbdf7000000000000000000000000000000000000000000000000000000008152600401620001cb919062000d65565b60405180910390fd5b620001e5816200023460201b60201c565b506200022581620001fb6200022c60201b60201c565b600a6200020991906200091f565b620f42406200021991906200096f565b620002f960201b60201c565b5062000eca565b5f6012905090565b5f600560019054906101000a900473ffffffffffffffffffffffffffffffffffffffff16905081600560016101000a81548173ffffffffffffffffffffffffffffffffffffffff021916908373ffffffffffffffffffffffffffffffffffffffff1602179055508173ffffffffffffffffffffffffffffffffffffffff168173ffffffffffffffffffffffffffffffffffffffff167f8be0079c531659141344cd1fd0a4f28419497f9722a3daafe3b4186f6b6457e060405160405180910390a35050565b5f73ffffffffffffffffffffffffffffffffffffffff168273ffffffffffffffffffffffffffffffffffffffff16036200036c575f6040517fec442f0500000000000000000000000000000000000000000000000000000000815260040162000363919062000d65565b60405180910390fd5b6200037f5f83836200038360201b60201c565b5050565b62000393620003ee60201b60201c565b15620003d6576040517f08c379a0000000000000000000000000000000000000000000000000000000008152600401620003cd9062000dde565b60405180910390fd5b620003e98383836200040360201b60201c565b505050565b5f60055f9054906101000a900460ff16905090565b62000416838383620004c260201b60201c565b5f73ffffffffffffffffffffffffffffffffffffffff168373ffffffffffffffffffffffffffffffffffffffff1603620004bd575f6200045b620006e660201b60201c565b90505f6200046e620006ef60201b60201c565b905081811115620004ba5780826040517f9e79f854000000000000000000000000000000000000000000000000000000008152600401620004b192919062000e0f565b60405180910390fd5b50505b505050565b5f73ffffffffffffffffffffffffffffffffffffffff168373ffffffffffffffffffffffffffffffffffffffff160362000516578060025f82825462000509919062000e3a565b92505081905550620005e7565b5f805f8573ffffffffffffffffffffffffffffffffffffffff1673ffffffffffffffffffffffffffffffffffffffff1681526020019081526020015f2054905081811015620005a2578381836040517fe450d38c000000000000000000000000000000000000000000000000000000008152600401620005999392919062000e74565b60405180910390fd5b8181035f808673ffffffffffffffffffffffffffffffffffffffff1673ffffffffffffffffffffffffffffffffffffffff1681526020019081526020015f2081905550505b5f73ffffffffffffffffffffffffffffffffffffffff168273ffffffffffffffffffffffffffffffffffffffff160362000630578060025f82825403925050819055506200067a565b805f808473ffffffffffffffffffffffffffffffffffffffff1673ffffffffffffffffffffffffffffffffffffffff1681526020019081526020015f205f82825401925050819055505b8173ffffffffffffffffffffffffffffffffffffffff168373ffffffffffffffffffffffffffffffffffffffff167fddf252ad1be2c89b69c2b068fc378daa952ba7f163c4a11628f55a4df523b3ef83604051620006d9919062000eaf565b60405180910390a3505050565b5f608051905090565b5f600254905090565b5f80fd5b5f73ffffffffffffffffffffffffffffffffffffffff82169050919050565b5f6200072782620006fc565b9050919050565b62000739816200071b565b811462000744575f80fd5b50565b5f8151905062000757816200072e565b92915050565b5f60208284031215620007755762000774620006f8565b5b5f620007848482850162000747565b91505092915050565b7f4e487b71000000000000000000000000000000000000000000000000000000005f52601160045260245ffd5b5f8160011c9050919050565b5f808291508390505b60018511156200081757808604811115620007ef57620007ee6200078d565b5b6001851615620007ff5780820291505b80810290506200080f85620007ba565b9450620007cf565b94509492505050565b5f8262000831576001905062000903565b8162000840575f905062000903565b816001811462000859576002811462000864576200089a565b600191505062000903565b60ff8411156200087957620008786200078d565b5b8360020a9150848211156200089357620008926200078d565b5b5062000903565b5060208310610133831016604e8410600b8410161715620008d45782820a905083811115620008ce57620008cd6200078d565b5b62000903565b620008e38484846001620007c6565b92509050818404811115620008fd57620008fc6200078d565b5b81810290505b9392505050565b5f819050919050565b5f60ff82169050919050565b5f6200092b826200090a565b9150620009388362000913565b9250620009677fffffffffffffffffffffffffffffffffffffffffffffffffffffffffffffffff848462000820565b905092915050565b5f6200097b826200090a565b915062000988836200090a565b925082820262000998816200090a565b91508282048414831517620009b257620009b16200078d565b5b5092915050565b5f81519050919050565b7f4e487b71000000000000000000000000000000000000000000000000000000005f52604160045260245ffd5b7f4e487b71000000000000000000000000000000000000000000000000000000005f52602260045260245ffd5b5f600282049050600182168062000a3557607f821691505b60208210810362000a4b5762000a4a620009f0565b5b50919050565b5f819050815f5260205f209050919050565b5f6020601f8301049050919050565b5f82821b905092915050565b5f6008830262000aaf7fffffffffffffffffffffffffffffffffffffffffffffffffffffffffffffffff8262000a72565b62000abb868362000a72565b95508019841693508086168417925050509392505050565b5f819050919050565b5f62000afc62000af662000af0846200090a565b62000ad3565b6200090a565b9050919050565b5f819050919050565b62000b178362000adc565b62000b2f62000b268262000b03565b84845462000a7e565b825550505050565b5f90565b62000b4562000b37565b62000b5281848462000b0c565b505050565b5b8181101562000b795762000b6d5f8262000b3b565b60018101905062000b58565b5050565b601f82111562000bc85762000b928162000a51565b62000b9d8462000a63565b8101602085101562000bad578190505b62000bc562000bbc8562000a63565b83018262000b57565b50505b505050565b5f82821c905092915050565b5f62000bea5f198460080262000bcd565b1980831691505092915050565b5f62000c04838362000bd9565b9150826002028217905092915050565b62000c1f82620009b9565b67ffffffffffffffff81111562000c3b5762000c3a620009c3565b5b62000c47825462000a1d565b62000c5482828562000b7d565b5f60209050601f83116001811462000c8a575f841562000c75578287015190505b62000c81858262000bf7565b86555062000cf0565b601f19841662000c9a8662000a51565b5f5b8281101562000cc35784890151825560018201915060208501945060208101905062000c9c565b8683101562000ce3578489015162000cdf601f89168262000bd9565b8355505b6001600288020188555050505b505050505050565b5f819050919050565b5f62000d2162000d1b62000d158462000cf8565b62000ad3565b6200090a565b9050919050565b62000d338162000d01565b82525050565b5f60208201905062000d4e5f83018462000d28565b92915050565b62000d5f816200071b565b82525050565b5f60208201905062000d7a5f83018462000d54565b92915050565b5f82825260208201905092915050565b7f5472616e73666572656e636961732070617573616461730000000000000000005f82015250565b5f62000dc660178362000d80565b915062000dd38262000d90565b602082019050919050565b5f6020820190508181035f83015262000df78162000db8565b9050919050565b62000e09816200090a565b82525050565b5f60408201905062000e245f83018562000dfe565b62000e33602083018462000dfe565b9392505050565b5f62000e46826200090a565b915062000e53836200090a565b925082820190508082111562000e6e5762000e6d6200078d565b5b92915050565b5f60608201905062000e895f83018662000d54565b62000e98602083018562000dfe565b62000ea7604083018462000dfe565b949350505050565b5f60208201905062000ec45f83018462000dfe565b92915050565b60805161151962000ee35f395f6103f201526115195ff3fe608060405234801561000f575f80fd5b50600436106100fe575f3560e01c806370a082311161009557806395d89b411161006457806395d89b4114610264578063a9059cbb14610282578063dd62ed3e146102b2578063f2fde38b146102e2576100fe565b806370a0823114610202578063715018a6146102325780638456cb591461023c5780638da5cb5b14610246576100fe565b8063313ce567116100d1578063313ce5671461019e578063355274ea146101bc5780633f4ba83a146101da5780635c975abb146101e4576100fe565b806306fdde0314610102578063095ea7b31461012057806318160ddd1461015057806323b872dd1461016e575b5f80fd5b61010a6102fe565b6040516101179190611033565b60405180910390f35b61013a600480360381019061013591906110e4565b61038e565b604051610147919061113c565b60405180910390f35b6101586103b0565b6040516101659190611164565b60405180910390f35b6101886004803603810190610183919061117d565b6103b9565b604051610195919061113c565b60405180910390f35b6101a66103e7565b6040516101b391906111e8565b60405180910390f35b6101c46103ef565b6040516101d19190611164565b60405180910390f35b6101e2610416565b005b6101ec610428565b6040516101f9919061113c565b60405180910390f35b61021c60048036038101906102179190611201565b61043d565b6040516102299190611164565b60405180910390f35b61023a610482565b005b610244610495565b005b61024e6104a7565b60405161025b919061123b565b60405180910390f35b61026c6104d0565b6040516102799190611033565b60405180910390f35b61029c600480360381019061029791906110e4565b610560565b6040516102a9919061113c565b60405180910390f35b6102cc60048036038101906102c79190611254565b610582565b6040516102d99190611164565b60405180910390f35b6102fc60048036038101906102f79190611201565b610604565b005b60606003805461030d906112bf565b80601f0160208091040260200160405190810160405280929190818152602001828054610339906112bf565b80156103845780601f1061035b57610100808354040283529160200191610384565b820191905f5260205f20905b81548152906001019060200180831161036757829003601f168201915b5050505050905090565b5f80610398610688565b90506103a581858561068f565b600191505092915050565b5f600254905090565b5f806103c3610688565b90506103d08582856106a1565b6103db858585610734565b60019150509392505050565b5f6012905090565b5f7f0000000000000000000000000000000000000000000000000000000000000000905090565b61041e610824565b6104266108ab565b565b5f60055f9054906101000a900460ff16905090565b5f805f8373ffffffffffffffffffffffffffffffffffffffff1673ffffffffffffffffffffffffffffffffffffffff1681526020019081526020015f20549050919050565b61048a610824565b6104935f61090c565b565b61049d610824565b6104a56109d1565b565b5f600560019054906101000a900473ffffffffffffffffffffffffffffffffffffffff16905090565b6060600480546104df906112bf565b80601f016020809104026020016040519081016040528092919081815260200182805461050b906112bf565b80156105565780601f1061052d57610100808354040283529160200191610556565b820191905f5260205f20905b81548152906001019060200180831161053957829003601f168201915b5050505050905090565b5f8061056a610688565b9050610577818585610734565b600191505092915050565b5f60015f8473ffffffffffffffffffffffffffffffffffffffff1673ffffffffffffffffffffffffffffffffffffffff1681526020019081526020015f205f8373ffffffffffffffffffffffffffffffffffffffff1673ffffffffffffffffffffffffffffffffffffffff1681526020019081526020015f2054905092915050565b61060c610824565b5f73ffffffffffffffffffffffffffffffffffffffff168173ffffffffffffffffffffffffffffffffffffffff160361067c575f6040517f1e4fbdf7000000000000000000000000000000000000000000000000000000008152600401610673919061123b565b60405180910390fd5b6106858161090c565b50565b5f33905090565b61069c8383836001610a33565b505050565b5f6106ac8484610582565b90507fffffffffffffffffffffffffffffffffffffffffffffffffffffffffffffffff81101561072e578181101561071f578281836040517ffb8f41b2000000000000000000000000000000000000000000000000000000008152600401610716939291906112ef565b60405180910390fd5b61072d84848484035f610a33565b5b50505050565b5f73ffffffffffffffffffffffffffffffffffffffff168373ffffffffffffffffffffffffffffffffffffffff16036107a4575f6040517f96c6fd1e00000000000000000000000000000000000000000000000000000000815260040161079b919061123b565b60405180910390fd5b5f73ffffffffffffffffffffffffffffffffffffffff168273ffffffffffffffffffffffffffffffffffffffff1603610814575f6040517fec442f0500000000000000000000000000000000000000000000000000000000815260040161080b919061123b565b60405180910390fd5b61081f838383610c02565b505050565b61082c610688565b73ffffffffffffffffffffffffffffffffffffffff1661084a6104a7565b73ffffffffffffffffffffffffffffffffffffffff16146108a95761086d610688565b6040517f118cdaa70000000000000000000000000000000000000000000000000000000081526004016108a0919061123b565b60405180910390fd5b565b6108b3610c5a565b5f60055f6101000a81548160ff0219169083151502179055507f5db9ee0a495bf2e6ff9c91a7834c1ba4fdd244a5e8aa4e537bd38aeae4b073aa6108f5610688565b604051610902919061123b565b60405180910390a1565b5f600560019054906101000a900473ffffffffffffffffffffffffffffffffffffffff16905081600560016101000a81548173ffffffffffffffffffffffffffffffffffffffff021916908373ffffffffffffffffffffffffffffffffffffffff1602179055508173ffffffffffffffffffffffffffffffffffffffff168173ffffffffffffffffffffffffffffffffffffffff167f8be0079c531659141344cd1fd0a4f28419497f9722a3daafe3b4186f6b6457e060405160405180910390a35050565b6109d9610ca3565b600160055f6101000a81548160ff0219169083151502179055507f62e78cea01bee320cd4e420270b5ea74000d11b0c9f74754ebdbfc544b05a258610a1c610688565b604051610a29919061123b565b60405180910390a1565b5f73ffffffffffffffffffffffffffffffffffffffff168473ffffffffffffffffffffffffffffffffffffffff1603610aa3575f6040517fe602df05000000000000000000000000000000000000000000000000000000008152600401610a9a919061123b565b60405180910390fd5b5f73ffffffffffffffffffffffffffffffffffffffff168373ffffffffffffffffffffffffffffffffffffffff1603610b13575f6040517f94280d62000000000000000000000000000000000000000000000000000000008152600401610b0a919061123b565b60405180910390fd5b8160015f8673ffffffffffffffffffffffffffffffffffffffff1673ffffffffffffffffffffffffffffffffffffffff1681526020019081526020015f205f8573ffffffffffffffffffffffffffffffffffffffff1673ffffffffffffffffffffffffffffffffffffffff1681526020019081526020015f20819055508015610bfc578273ffffffffffffffffffffffffffffffffffffffff168473ffffffffffffffffffffffffffffffffffffffff167f8c5be1e5ebec7d5bd14f71427d1e84f3dd0314c0f7b2291e5b200ac8c7c3b92584604051610bf39190611164565b60405180910390a35b50505050565b610c0a610428565b15610c4a576040517f08c379a0000000000000000000000000000000000000000000000000000000008152600401610c419061136e565b60405180910390fd5b610c55838383610ced565b505050565b610c62610428565b610ca1576040517f08c379a0000000000000000000000000000000000000000000000000000000008152600401610c98906113d6565b60405180910390fd5b565b610cab610428565b15610ceb576040517f08c379a0000000000000000000000000000000000000000000000000000000008152600401610ce29061143e565b60405180910390fd5b565b610cf8838383610d90565b5f73ffffffffffffffffffffffffffffffffffffffff168373ffffffffffffffffffffffffffffffffffffffff1603610d8b575f610d346103ef565b90505f610d3f6103b0565b905081811115610d885780826040517f9e79f854000000000000000000000000000000000000000000000000000000008152600401610d7f92919061145c565b60405180910390fd5b50505b505050565b5f73ffffffffffffffffffffffffffffffffffffffff168373ffffffffffffffffffffffffffffffffffffffff1603610de0578060025f828254610dd491906114b0565b92505081905550610eae565b5f805f8573ffffffffffffffffffffffffffffffffffffffff1673ffffffffffffffffffffffffffffffffffffffff1681526020019081526020015f2054905081811015610e69578381836040517fe450d38c000000000000000000000000000000000000000000000000000000008152600401610e60939291906112ef565b60405180910390fd5b8181035f808673ffffffffffffffffffffffffffffffffffffffff1673ffffffffffffffffffffffffffffffffffffffff1681526020019081526020015f2081905550505b5f73ffffffffffffffffffffffffffffffffffffffff168273ffffffffffffffffffffffffffffffffffffffff1603610ef5578060025f8282540392505081905550610f3f565b805f808473ffffffffffffffffffffffffffffffffffffffff1673ffffffffffffffffffffffffffffffffffffffff1681526020019081526020015f205f82825401925050819055505b8173ffffffffffffffffffffffffffffffffffffffff168373ffffffffffffffffffffffffffffffffffffffff167fddf252ad1be2c89b69c2b068fc378daa952ba7f163c4a11628f55a4df523b3ef83604051610f9c9190611164565b60405180910390a3505050565b5f81519050919050565b5f82825260208201905092915050565b5f5b83811015610fe0578082015181840152602081019050610fc5565b5f8484015250505050565b5f601f19601f8301169050919050565b5f61100582610fa9565b61100f8185610fb3565b935061101f818560208601610fc3565b61102881610feb565b840191505092915050565b5f6020820190508181035f83015261104b8184610ffb565b905092915050565b5f80fd5b5f73ffffffffffffffffffffffffffffffffffffffff82169050919050565b5f61108082611057565b9050919050565b61109081611076565b811461109a575f80fd5b50565b5f813590506110ab81611087565b92915050565b5f819050919050565b6110c3816110b1565b81146110cd575f80fd5b50565b5f813590506110de816110ba565b92915050565b5f80604083850312156110fa576110f9611053565b5b5f6111078582860161109d565b9250506020611118858286016110d0565b9150509250929050565b5f8115159050919050565b61113681611122565b82525050565b5f60208201905061114f5f83018461112d565b92915050565b61115e816110b1565b82525050565b5f6020820190506111775f830184611155565b92915050565b5f805f6060848603121561119457611193611053565b5b5f6111a18682870161109d565b93505060206111b28682870161109d565b92505060406111c3868287016110d0565b9150509250925092565b5f60ff82169050919050565b6111e2816111cd565b82525050565b5f6020820190506111fb5f8301846111d9565b92915050565b5f6020828403121561121657611215611053565b5b5f6112238482850161109d565b91505092915050565b61123581611076565b82525050565b5f60208201905061124e5f83018461122c565b92915050565b5f806040838503121561126a57611269611053565b5b5f6112778582860161109d565b92505060206112888582860161109d565b9150509250929050565b7f4e487b71000000000000000000000000000000000000000000000000000000005f52602260045260245ffd5b5f60028204905060018216806112d657607f821691505b6020821081036112e9576112e8611292565b5b50919050565b5f6060820190506113025f83018661122c565b61130f6020830185611155565b61131c6040830184611155565b949350505050565b7f5472616e73666572656e636961732070617573616461730000000000000000005f82015250565b5f611358601783610fb3565b915061136382611324565b602082019050919050565b5f6020820190508181035f8301526113858161134c565b9050919050565b7f5061757361626c653a206e6f74207061757365640000000000000000000000005f82015250565b5f6113c0601483610fb3565b91506113cb8261138c565b602082019050919050565b5f6020820190508181035f8301526113ed816113b4565b9050919050565b7f5061757361626c653a20706175736564000000000000000000000000000000005f82015250565b5f611428601083610fb3565b9150611433826113f4565b602082019050919050565b5f6020820190508181035f8301526114558161141c565b9050919050565b5f60408201905061146f5f830185611155565b61147c6020830184611155565b9392505050565b7f4e487b71000000000000000000000000000000000000000000000000000000005f52601160045260245ffd5b5f6114ba826110b1565b91506114c5836110b1565b92508282019050808211156114dd576114dc611483565b5b9291505056fea264697066735822122008d2a34ba18db9025ef469ef61161728be5af8586eff488b5b6fca1cdf18842264736f6c63430008140033",
			"opcodes": "PUSH1 0xA0 PUSH1 0x40 MSTORE CALLVALUE DUP1 ISZERO PUSH3 0x10 JUMPI PUSH0 DUP1 REVERT JUMPDEST POP PUSH1 0x40 MLOAD PUSH3 0x23FC CODESIZE SUB DUP1 PUSH3 0x23FC DUP4 CODECOPY DUP2 DUP2 ADD PUSH1 0x40 MSTORE DUP2 ADD SWAP1 PUSH3 0x36 SWAP2 SWAP1 PUSH3 0x75D JUMP JUMPDEST DUP1 PUSH3 0x47 PUSH3 0x22C PUSH1 0x20 SHL PUSH1 0x20 SHR JUMP JUMPDEST PUSH1 0xA PUSH3 0x55 SWAP2 SWAP1 PUSH3 0x91F JUMP JUMPDEST PUSH4 0x1406F40 PUSH3 0x66 SWAP2 SWAP1 PUSH3 0x96F JUMP JUMPDEST PUSH1 0x40 MLOAD DUP1 PUSH1 0x40 ADD PUSH1 0x40 MSTORE DUP1 PUSH1 0xA DUP2 MSTORE PUSH1 0x20 ADD PUSH32 0x50756C7365546F6B656E00000000000000000000000000000000000000000000 DUP2 MSTORE POP PUSH1 0x40 MLOAD DUP1 PUSH1 0x40 ADD PUSH1 0x40 MSTORE DUP1 PUSH1 0x3 DUP2 MSTORE PUSH1 0x20 ADD PUSH32 0x504C530000000000000000000000000000000000000000000000000000000000 DUP2 MSTORE POP DUP2 PUSH1 0x3 SWAP1 DUP2 PUSH3 0xE3 SWAP2 SWAP1 PUSH3 0xC14 JUMP JUMPDEST POP DUP1 PUSH1 0x4 SWAP1 DUP2 PUSH3 0xF5 SWAP2 SWAP1 PUSH3 0xC14 JUMP JUMPDEST POP POP POP PUSH0 DUP2 SUB PUSH3 0x13F JUMPI PUSH0 PUSH1 0x40 MLOAD PUSH32 0x392E1E2700000000000000000000000000000000000000000000000000000000 DUP2 MSTORE PUSH1 0x4 ADD PUSH3 0x136 SWAP2 SWAP1 PUSH3 0xD39 JUMP JUMPDEST PUSH1 0x40 MLOAD DUP1 SWAP2 SUB SWAP1 REVERT JUMPDEST DUP1 PUSH1 0x80 DUP2 DUP2 MSTORE POP POP POP PUSH0 PUSH1 0x5 PUSH0 PUSH2 0x100 EXP DUP2 SLOAD DUP2 PUSH1 0xFF MUL NOT AND SWAP1 DUP4 ISZERO ISZERO MUL OR SWAP1 SSTORE POP PUSH0 PUSH20 0xFFFFFFFFFFFFFFFFFFFFFFFFFFFFFFFFFFFFFFFF AND DUP2 PUSH20 0xFFFFFFFFFFFFFFFFFFFFFFFFFFFFFFFFFFFFFFFF AND SUB PUSH3 0x1D4 JUMPI PUSH0 PUSH1 0x40 MLOAD PUSH32 0x1E4FBDF700000000000000000000000000000000000000000000000000000000 DUP2 MSTORE PUSH1 0x4 ADD PUSH3 0x1CB SWAP2 SWAP1 PUSH3 0xD65 JUMP JUMPDEST PUSH1 0x40 MLOAD DUP1 SWAP2 SUB SWAP1 REVERT JUMPDEST PUSH3 0x1E5 DUP2 PUSH3 0x234 PUSH1 0x20 SHL PUSH1 0x20 SHR JUMP JUMPDEST POP PUSH3 0x225 DUP2 PUSH3 0x1FB PUSH3 0x22C PUSH1 0x20 SHL PUSH1 0x20 SHR JUMP JUMPDEST PUSH1 0xA PUSH3 0x209 SWAP2 SWAP1 PUSH3 0x91F JUMP JUMPDEST PUSH3 0xF4240 PUSH3 0x219 SWAP2 SWAP1 PUSH3 0x96F JUMP JUMPDEST PUSH3 0x2F9 PUSH1 0x20 SHL PUSH1 0x20 SHR JUMP JUMPDEST POP PUSH3 0xECA JUMP JUMPDEST PUSH0 PUSH1 0x12 SWAP1 POP SWAP1 JUMP JUMPDEST PUSH0 PUSH1 0x5 PUSH1 0x1 SWAP1 SLOAD SWAP1 PUSH2 0x100 EXP SWAP1 DIV PUSH20 0xFFFFFFFFFFFFFFFFFFFFFFFFFFFFFFFFFFFFFFFF AND SWAP1 POP DUP2 PUSH1 0x5 PUSH1 0x1 PUSH2 0x100 EXP DUP2 SLOAD DUP2 PUSH20 0xFFFFFFFFFFFFFFFFFFFFFFFFFFFFFFFFFFFFFFFF MUL NOT AND SWAP1 DUP4 PUSH20 0xFFFFFFFFFFFFFFFFFFFFFFFFFFFFFFFFFFFFFFFF AND MUL OR SWAP1 SSTORE POP DUP2 PUSH20 0xFFFFFFFFFFFFFFFFFFFFFFFFFFFFFFFFFFFFFFFF AND DUP2 PUSH20 0xFFFFFFFFFFFFFFFFFFFFFFFFFFFFFFFFFFFFFFFF AND PUSH32 0x8BE0079C531659141344CD1FD0A4F28419497F9722A3DAAFE3B4186F6B6457E0 PUSH1 0x40 MLOAD PUSH1 0x40 MLOAD DUP1 SWAP2 SUB SWAP1 LOG3 POP POP JUMP JUMPDEST PUSH0 PUSH20 0xFFFFFFFFFFFFFFFFFFFFFFFFFFFFFFFFFFFFFFFF AND DUP3 PUSH20 0xFFFFFFFFFFFFFFFFFFFFFFFFFFFFFFFFFFFFFFFF AND SUB PUSH3 0x36C JUMPI PUSH0 PUSH1 0x40 MLOAD PUSH32 0xEC442F0500000000000000000000000000000000000000000000000000000000 DUP2 MSTORE PUSH1 0x4 ADD PUSH3 0x363 SWAP2 SWAP1 PUSH3 0xD65 JUMP JUMPDEST PUSH1 0x40 MLOAD DUP1 SWAP2 SUB SWAP1 REVERT JUMPDEST PUSH3 0x37F PUSH0 DUP4 DUP4 PUSH3 0x383 PUSH1 0x20 SHL PUSH1 0x20 SHR JUMP JUMPDEST POP POP JUMP JUMPDEST PUSH3 0x393 PUSH3 0x3EE PUSH1 0x20 SHL PUSH1 0x20 SHR JUMP JUMPDEST ISZERO PUSH3 0x3D6 JUMPI PUSH1 0x40 MLOAD PUSH32 0x8C379A000000000000000000000000000000000000000000000000000000000 DUP2 MSTORE PUSH1 0x4 ADD PUSH3 0x3CD SWAP1 PUSH3 0xDDE JUMP JUMPDEST PUSH1 0x40 MLOAD DUP1 SWAP2 SUB SWAP1 REVERT JUMPDEST PUSH3 0x3E9 DUP4 DUP4 DUP4 PUSH3 0x403 PUSH1 0x20 SHL PUSH1 0x20 SHR JUMP JUMPDEST POP POP POP JUMP JUMPDEST PUSH0 PUSH1 0x5 PUSH0 SWAP1 SLOAD SWAP1 PUSH2 0x100 EXP SWAP1 DIV PUSH1 0xFF AND SWAP1 POP SWAP1 JUMP JUMPDEST PUSH3 0x416 DUP4 DUP4 DUP4 PUSH3 0x4C2 PUSH1 0x20 SHL PUSH1 0x20 SHR JUMP JUMPDEST PUSH0 PUSH20 0xFFFFFFFFFFFFFFFFFFFFFFFFFFFFFFFFFFFFFFFF AND DUP4 PUSH20 0xFFFFFFFFFFFFFFFFFFFFFFFFFFFFFFFFFFFFFFFF AND SUB PUSH3 0x4BD JUMPI PUSH0 PUSH3 0x45B PUSH3 0x6E6 PUSH1 0x20 SHL PUSH1 0x20 SHR JUMP JUMPDEST SWAP1 POP PUSH0 PUSH3 0x46E PUSH3 0x6EF PUSH1 0x20 SHL PUSH1 0x20 SHR JUMP JUMPDEST SWAP1 POP DUP2 DUP2 GT ISZERO PUSH3 0x4BA JUMPI DUP1 DUP3 PUSH1 0x40 MLOAD PUSH32 0x9E79F85400000000000000000000000000000000000000000000000000000000 DUP2 MSTORE PUSH1 0x4 ADD PUSH3 0x4B1 SWAP3 SWAP2 SWAP1 PUSH3 0xE0F JUMP JUMPDEST PUSH1 0x40 MLOAD DUP1 SWAP2 SUB SWAP1 REVERT JUMPDEST POP POP JUMPDEST POP POP POP JUMP JUMPDEST PUSH0 PUSH20 0xFFFFFFFFFFFFFFFFFFFFFFFFFFFFFFFFFFFFFFFF AND DUP4 PUSH20 0xFFFFFFFFFFFFFFFFFFFFFFFFFFFFFFFFFFFFFFFF AND SUB PUSH3 0x516 JUMPI DUP1 PUSH1 0x2 PUSH0 DUP3 DUP3 SLOAD PUSH3 0x509 SWAP2 SWAP1 PUSH3 0xE3A JUMP JUMPDEST SWAP3 POP POP DUP2 SWAP1 SSTORE POP PUSH3 0x5E7 JUMP JUMPDEST PUSH0 DUP1 PUSH0 DUP6 PUSH20 0xFFFFFFFFFFFFFFFFFFFFFFFFFFFFFFFFFFFFFFFF AND PUSH20 0xFFFFFFFFFFFFFFFFFFFFFFFFFFFFFFFFFFFFFFFF AND DUP2 MSTORE PUSH1 0x20 ADD SWAP1 DUP2 MSTORE PUSH1 0x20 ADD PUSH0 KECCAK256 SLOAD SWAP1 POP DUP2 DUP2 LT ISZERO PUSH3 0x5A2 JUMPI DUP4 DUP2 DUP4 PUSH1 0x40 MLOAD PUSH32 0xE450D38C00000000000000000000000000000000000000000000000000000000 DUP2 MSTORE PUSH1 0x4 ADD PUSH3 0x599 SWAP4 SWAP3 SWAP2 SWAP1 PUSH3 0xE74 JUMP JUMPDEST PUSH1 0x40 MLOAD DUP1 SWAP2 SUB SWAP1 REVERT JUMPDEST DUP2 DUP2 SUB PUSH0 DUP1 DUP7 PUSH20 0xFFFFFFFFFFFFFFFFFFFFFFFFFFFFFFFFFFFFFFFF AND PUSH20 0xFFFFFFFFFFFFFFFFFFFFFFFFFFFFFFFFFFFFFFFF AND DUP2 MSTORE PUSH1 0x20 ADD SWAP1 DUP2 MSTORE PUSH1 0x20 ADD PUSH0 KECCAK256 DUP2 SWAP1 SSTORE POP POP JUMPDEST PUSH0 PUSH20 0xFFFFFFFFFFFFFFFFFFFFFFFFFFFFFFFFFFFFFFFF AND DUP3 PUSH20 0xFFFFFFFFFFFFFFFFFFFFFFFFFFFFFFFFFFFFFFFF AND SUB PUSH3 0x630 JUMPI DUP1 PUSH1 0x2 PUSH0 DUP3 DUP3 SLOAD SUB SWAP3 POP POP DUP2 SWAP1 SSTORE POP PUSH3 0x67A JUMP JUMPDEST DUP1 PUSH0 DUP1 DUP5 PUSH20 0xFFFFFFFFFFFFFFFFFFFFFFFFFFFFFFFFFFFFFFFF AND PUSH20 0xFFFFFFFFFFFFFFFFFFFFFFFFFFFFFFFFFFFFFFFF AND DUP2 MSTORE PUSH1 0x20 ADD SWAP1 DUP2 MSTORE PUSH1 0x20 ADD PUSH0 KECCAK256 PUSH0 DUP3 DUP3 SLOAD ADD SWAP3 POP POP DUP2 SWAP1 SSTORE POP JUMPDEST DUP2 PUSH20 0xFFFFFFFFFFFFFFFFFFFFFFFFFFFFFFFFFFFFFFFF AND DUP4 PUSH20 0xFFFFFFFFFFFFFFFFFFFFFFFFFFFFFFFFFFFFFFFF AND PUSH32 0xDDF252AD1BE2C89B69C2B068FC378DAA952BA7F163C4A11628F55A4DF523B3EF DUP4 PUSH1 0x40 MLOAD PUSH3 0x6D9 SWAP2 SWAP1 PUSH3 0xEAF JUMP JUMPDEST PUSH1 0x40 MLOAD DUP1 SWAP2 SUB SWAP1 LOG3 POP POP POP JUMP JUMPDEST PUSH0 PUSH1 0x80 MLOAD SWAP1 POP SWAP1 JUMP JUMPDEST PUSH0 PUSH1 0x2 SLOAD SWAP1 POP SWAP1 JUMP JUMPDEST PUSH0 DUP1 REVERT JUMPDEST PUSH0 PUSH20 0xFFFFFFFFFFFFFFFFFFFFFFFFFFFFFFFFFFFFFFFF DUP3 AND SWAP1 POP SWAP2 SWAP1 POP JUMP JUMPDEST PUSH0 PUSH3 0x727 DUP3 PUSH3 0x6FC JUMP JUMPDEST SWAP1 POP SWAP2 SWAP1 POP JUMP JUMPDEST PUSH3 0x739 DUP2 PUSH3 0x71B JUMP JUMPDEST DUP2 EQ PUSH3 0x744 JUMPI PUSH0 DUP1 REVERT JUMPDEST POP JUMP JUMPDEST PUSH0 DUP2 MLOAD SWAP1 POP PUSH3 0x757 DUP2 PUSH3 0x72E JUMP JUMPDEST SWAP3 SWAP2 POP POP JUMP JUMPDEST PUSH0 PUSH1 0x20 DUP3 DUP5 SUB SLT ISZERO PUSH3 0x775 JUMPI PUSH3 0x774 PUSH3 0x6F8 JUMP JUMPDEST JUMPDEST PUSH0 PUSH3 0x784 DUP5 DUP3 DUP6 ADD PUSH3 0x747 JUMP JUMPDEST SWAP2 POP POP SWAP3 SWAP2 POP POP JUMP JUMPDEST PUSH32 0x4E487B7100000000000000000000000000000000000000000000000000000000 PUSH0 MSTORE PUSH1 0x11 PUSH1 0x4 MSTORE PUSH1 0x24 PUSH0 REVERT JUMPDEST PUSH0 DUP2 PUSH1 0x1 SHR SWAP1 POP SWAP2 SWAP1 POP JUMP JUMPDEST PUSH0 DUP1 DUP3 SWAP2 POP DUP4 SWAP1 POP JUMPDEST PUSH1 0x1 DUP6 GT ISZERO PUSH3 0x817 JUMPI DUP1 DUP7 DIV DUP2 GT ISZERO PUSH3 0x7EF JUMPI PUSH3 0x7EE PUSH3 0x78D JUMP JUMPDEST JUMPDEST PUSH1 0x1 DUP6 AND ISZERO PUSH3 0x7FF JUMPI DUP1 DUP3 MUL SWAP2 POP JUMPDEST DUP1 DUP2 MUL SWAP1 POP PUSH3 0x80F DUP6 PUSH3 0x7BA JUMP JUMPDEST SWAP5 POP PUSH3 0x7CF JUMP JUMPDEST SWAP5 POP SWAP5 SWAP3 POP POP POP JUMP JUMPDEST PUSH0 DUP3 PUSH3 0x831 JUMPI PUSH1 0x1 SWAP1 POP PUSH3 0x903 JUMP JUMPDEST DUP2 PUSH3 0x840 JUMPI PUSH0 SWAP1 POP PUSH3 0x903 JUMP JUMPDEST DUP2 PUSH1 0x1 DUP2 EQ PUSH3 0x859 JUMPI PUSH1 0x2 DUP2 EQ PUSH3 0x864 JUMPI PUSH3 0x89A JUMP JUMPDEST PUSH1 0x1 SWAP2 POP POP PUSH3 0x903 JUMP JUMPDEST PUSH1 0xFF DUP5 GT ISZERO PUSH3 0x879 JUMPI PUSH3 0x878 PUSH3 0x78D JUMP JUMPDEST JUMPDEST DUP4 PUSH1 0x2 EXP SWAP2 POP DUP5 DUP3 GT ISZERO PUSH3 0x893 JUMPI PUSH3 0x892 PUSH3 0x78D JUMP JUMPDEST JUMPDEST POP PUSH3 0x903 JUMP JUMPDEST POP PUSH1 0x20 DUP4 LT PUSH2 0x133 DUP4 LT AND PUSH1 0x4E DUP5 LT PUSH1 0xB DUP5 LT AND OR ISZERO PUSH3 0x8D4 JUMPI DUP3 DUP3 EXP SWAP1 POP DUP4 DUP2 GT ISZERO PUSH3 0x8CE JUMPI PUSH3 0x8CD PUSH3 0x78D JUMP JUMPDEST JUMPDEST PUSH3 0x903 JUMP JUMPDEST PUSH3 0x8E3 DUP5 DUP5 DUP5 PUSH1 0x1 PUSH3 0x7C6 JUMP JUMPDEST SWAP3 POP SWAP1 POP DUP2 DUP5 DIV DUP2 GT ISZERO PUSH3 0x8FD JUMPI PUSH3 0x8FC PUSH3 0x78D JUMP JUMPDEST JUMPDEST DUP2 DUP2 MUL SWAP1 POP JUMPDEST SWAP4 SWAP3 POP POP POP JUMP JUMPDEST PUSH0 DUP2 SWAP1 POP SWAP2 SWAP1 POP JUMP JUMPDEST PUSH0 PUSH1 0xFF DUP3 AND SWAP1 POP SWAP2 SWAP1 POP JUMP JUMPDEST PUSH0 PUSH3 0x92B DUP3 PUSH3 0x90A JUMP JUMPDEST SWAP2 POP PUSH3 0x938 DUP4 PUSH3 0x913 JUMP JUMPDEST SWAP3 POP PUSH3 0x967 PUSH32 0xFFFFFFFFFFFFFFFFFFFFFFFFFFFFFFFFFFFFFFFFFFFFFFFFFFFFFFFFFFFFFFFF DUP5 DUP5 PUSH3 0x820 JUMP JUMPDEST SWAP1 POP SWAP3 SWAP2 POP POP JUMP JUMPDEST PUSH0 PUSH3 0x97B DUP3 PUSH3 0x90A JUMP JUMPDEST SWAP2 POP PUSH3 0x988 DUP4 PUSH3 0x90A JUMP JUMPDEST SWAP3 POP DUP3 DUP3 MUL PUSH3 0x998 DUP2 PUSH3 0x90A JUMP JUMPDEST SWAP2 POP DUP3 DUP3 DIV DUP5 EQ DUP4 ISZERO OR PUSH3 0x9B2 JUMPI PUSH3 0x9B1 PUSH3 0x78D JUMP JUMPDEST JUMPDEST POP SWAP3 SWAP2 POP POP JUMP JUMPDEST PUSH0 DUP2 MLOAD SWAP1 POP SWAP2 SWAP1 POP JUMP JUMPDEST PUSH32 0x4E487B7100000000000000000000000000000000000000000000000000000000 PUSH0 MSTORE PUSH1 0x41 PUSH1 0x4 MSTORE PUSH1 0x24 PUSH0 REVERT JUMPDEST PUSH32 0x4E487B7100000000000000000000000000000000000000000000000000000000 PUSH0 MSTORE PUSH1 0x22 PUSH1 0x4 MSTORE PUSH1 0x24 PUSH0 REVERT JUMPDEST PUSH0 PUSH1 0x2 DUP3 DIV SWAP1 POP PUSH1 0x1 DUP3 AND DUP1 PUSH3 0xA35 JUMPI PUSH1 0x7F DUP3 AND SWAP2 POP JUMPDEST PUSH1 0x20 DUP3 LT DUP2 SUB PUSH3 0xA4B JUMPI PUSH3 0xA4A PUSH3 0x9F0 JUMP JUMPDEST JUMPDEST POP SWAP2 SWAP1 POP JUMP JUMPDEST PUSH0 DUP2 SWAP1 POP DUP2 PUSH0 MSTORE PUSH1 0x20 PUSH0 KECCAK256 SWAP1 POP SWAP2 SWAP1 POP JUMP JUMPDEST PUSH0 PUSH1 0x20 PUSH1 0x1F DUP4 ADD DIV SWAP1 POP SWAP2 SWAP1 POP JUMP JUMPDEST PUSH0 DUP3 DUP3 SHL SWAP1 POP SWAP3 SWAP2 POP POP JUMP JUMPDEST PUSH0 PUSH1 0x8 DUP4 MUL PUSH3 0xAAF PUSH32 0xFFFFFFFFFFFFFFFFFFFFFFFFFFFFFFFFFFFFFFFFFFFFFFFFFFFFFFFFFFFFFFFF DUP3 PUSH3 0xA72 JUMP JUMPDEST PUSH3 0xABB DUP7 DUP4 PUSH3 0xA72 JUMP JUMPDEST SWAP6 POP DUP1 NOT DUP5 AND SWAP4 POP DUP1 DUP7 AND DUP5 OR SWAP3 POP POP POP SWAP4 SWAP3 POP POP POP JUMP JUMPDEST PUSH0 DUP2 SWAP1 POP SWAP2 SWAP1 POP JUMP JUMPDEST PUSH0 PUSH3 0xAFC PUSH3 0xAF6 PUSH3 0xAF0 DUP5 PUSH3 0x90A JUMP JUMPDEST PUSH3 0xAD3 JUMP JUMPDEST PUSH3 0x90A JUMP JUMPDEST SWAP1 POP SWAP2 SWAP1 POP JUMP JUMPDEST PUSH0 DUP2 SWAP1 POP SWAP2 SWAP1 POP JUMP JUMPDEST PUSH3 0xB17 DUP4 PUSH3 0xADC JUMP JUMPDEST PUSH3 0xB2F PUSH3 0xB26 DUP3 PUSH3 0xB03 JUMP JUMPDEST DUP5 DUP5 SLOAD PUSH3 0xA7E JUMP JUMPDEST DUP3 SSTORE POP POP POP POP JUMP JUMPDEST PUSH0 SWAP1 JUMP JUMPDEST PUSH3 0xB45 PUSH3 0xB37 JUMP JUMPDEST PUSH3 0xB52 DUP2 DUP5 DUP5 PUSH3 0xB0C JUMP JUMPDEST POP POP POP JUMP JUMPDEST JUMPDEST DUP2 DUP2 LT ISZERO PUSH3 0xB79 JUMPI PUSH3 0xB6D PUSH0 DUP3 PUSH3 0xB3B JUMP JUMPDEST PUSH1 0x1 DUP2 ADD SWAP1 POP PUSH3 0xB58 JUMP JUMPDEST POP POP JUMP JUMPDEST PUSH1 0x1F DUP3 GT ISZERO PUSH3 0xBC8 JUMPI PUSH3 0xB92 DUP2 PUSH3 0xA51 JUMP JUMPDEST PUSH3 0xB9D DUP5 PUSH3 0xA63 JUMP JUMPDEST DUP2 ADD PUSH1 0x20 DUP6 LT ISZERO PUSH3 0xBAD JUMPI DUP2 SWAP1 POP JUMPDEST PUSH3 0xBC5 PUSH3 0xBBC DUP6 PUSH3 0xA63 JUMP JUMPDEST DUP4 ADD DUP3 PUSH3 0xB57 JUMP JUMPDEST POP POP JUMPDEST POP POP POP JUMP JUMPDEST PUSH0 DUP3 DUP3 SHR SWAP1 POP SWAP3 SWAP2 POP POP JUMP JUMPDEST PUSH0 PUSH3 0xBEA PUSH0 NOT DUP5 PUSH1 0x8 MUL PUSH3 0xBCD JUMP JUMPDEST NOT DUP1 DUP4 AND SWAP2 POP POP SWAP3 SWAP2 POP POP JUMP JUMPDEST PUSH0 PUSH3 0xC04 DUP4 DUP4 PUSH3 0xBD9 JUMP JUMPDEST SWAP2 POP DUP3 PUSH1 0x2 MUL DUP3 OR SWAP1 POP SWAP3 SWAP2 POP POP JUMP JUMPDEST PUSH3 0xC1F DUP3 PUSH3 0x9B9 JUMP JUMPDEST PUSH8 0xFFFFFFFFFFFFFFFF DUP2 GT ISZERO PUSH3 0xC3B JUMPI PUSH3 0xC3A PUSH3 0x9C3 JUMP JUMPDEST JUMPDEST PUSH3 0xC47 DUP3 SLOAD PUSH3 0xA1D JUMP JUMPDEST PUSH3 0xC54 DUP3 DUP3 DUP6 PUSH3 0xB7D JUMP JUMPDEST PUSH0 PUSH1 0x20 SWAP1 POP PUSH1 0x1F DUP4 GT PUSH1 0x1 DUP2 EQ PUSH3 0xC8A JUMPI PUSH0 DUP5 ISZERO PUSH3 0xC75 JUMPI DUP3 DUP8 ADD MLOAD SWAP1 POP JUMPDEST PUSH3 0xC81 DUP6 DUP3 PUSH3 0xBF7 JUMP JUMPDEST DUP7 SSTORE POP PUSH3 0xCF0 JUMP JUMPDEST PUSH1 0x1F NOT DUP5 AND PUSH3 0xC9A DUP7 PUSH3 0xA51 JUMP JUMPDEST PUSH0 JUMPDEST DUP3 DUP2 LT ISZERO PUSH3 0xCC3 JUMPI DUP5 DUP10 ADD MLOAD DUP3 SSTORE PUSH1 0x1 DUP3 ADD SWAP2 POP PUSH1 0x20 DUP6 ADD SWAP5 POP PUSH1 0x20 DUP2 ADD SWAP1 POP PUSH3 0xC9C JUMP JUMPDEST DUP7 DUP4 LT ISZERO PUSH3 0xCE3 JUMPI DUP5 DUP10 ADD MLOAD PUSH3 0xCDF PUSH1 0x1F DUP10 AND DUP3 PUSH3 0xBD9 JUMP JUMPDEST DUP4 SSTORE POP JUMPDEST PUSH1 0x1 PUSH1 0x2 DUP9 MUL ADD DUP9 SSTORE POP POP POP JUMPDEST POP POP POP POP POP POP JUMP JUMPDEST PUSH0 DUP2 SWAP1 POP SWAP2 SWAP1 POP JUMP JUMPDEST PUSH0 PUSH3 0xD21 PUSH3 0xD1B PUSH3 0xD15 DUP5 PUSH3 0xCF8 JUMP JUMPDEST PUSH3 0xAD3 JUMP JUMPDEST PUSH3 0x90A JUMP JUMPDEST SWAP1 POP SWAP2 SWAP1 POP JUMP JUMPDEST PUSH3 0xD33 DUP2 PUSH3 0xD01 JUMP JUMPDEST DUP3 MSTORE POP POP JUMP JUMPDEST PUSH0 PUSH1 0x20 DUP3 ADD SWAP1 POP PUSH3 0xD4E PUSH0 DUP4 ADD DUP5 PUSH3 0xD28 JUMP JUMPDEST SWAP3 SWAP2 POP POP JUMP JUMPDEST PUSH3 0xD5F DUP2 PUSH3 0x71B JUMP JUMPDEST DUP3 MSTORE POP POP JUMP JUMPDEST PUSH0 PUSH1 0x20 DUP3 ADD SWAP1 POP PUSH3 0xD7A PUSH0 DUP4 ADD DUP5 PUSH3 0xD54 JUMP JUMPDEST SWAP3 SWAP2 POP POP JUMP JUMPDEST PUSH0 DUP3 DUP3 MSTORE PUSH1 0x20 DUP3 ADD SWAP1 POP SWAP3 SWAP2 POP POP JUMP JUMPDEST PUSH32 0x5472616E73666572656E63696173207061757361646173000000000000000000 PUSH0 DUP3 ADD MSTORE POP JUMP JUMPDEST PUSH0 PUSH3 0xDC6 PUSH1 0x17 DUP4 PUSH3 0xD80 JUMP JUMPDEST SWAP2 POP PUSH3 0xDD3 DUP3 PUSH3 0xD90 JUMP JUMPDEST PUSH1 0x20 DUP3 ADD SWAP1 POP SWAP2 SWAP1 POP JUMP JUMPDEST PUSH0 PUSH1 0x20 DUP3 ADD SWAP1 POP DUP2 DUP2 SUB PUSH0 DUP4 ADD MSTORE PUSH3 0xDF7 DUP2 PUSH3 0xDB8 JUMP JUMPDEST SWAP1 POP SWAP2 SWAP1 POP JUMP JUMPDEST PUSH3 0xE09 DUP2 PUSH3 0x90A JUMP JUMPDEST DUP3 MSTORE POP POP JUMP JUMPDEST PUSH0 PUSH1 0x40 DUP3 ADD SWAP1 POP PUSH3 0xE24 PUSH0 DUP4 ADD DUP6 PUSH3 0xDFE JUMP JUMPDEST PUSH3 0xE33 PUSH1 0x20 DUP4 ADD DUP5 PUSH3 0xDFE JUMP JUMPDEST SWAP4 SWAP3 POP POP POP JUMP JUMPDEST PUSH0 PUSH3 0xE46 DUP3 PUSH3 0x90A JUMP JUMPDEST SWAP2 POP PUSH3 0xE53 DUP4 PUSH3 0x90A JUMP JUMPDEST SWAP3 POP DUP3 DUP3 ADD SWAP1 POP DUP1 DUP3 GT ISZERO PUSH3 0xE6E JUMPI PUSH3 0xE6D PUSH3 0x78D JUMP JUMPDEST JUMPDEST SWAP3 SWAP2 POP POP JUMP JUMPDEST PUSH0 PUSH1 0x60 DUP3 ADD SWAP1 POP PUSH3 0xE89 PUSH0 DUP4 ADD DUP7 PUSH3 0xD54 JUMP JUMPDEST PUSH3 0xE98 PUSH1 0x20 DUP4 ADD DUP6 PUSH3 0xDFE JUMP JUMPDEST PUSH3 0xEA7 PUSH1 0x40 DUP4 ADD DUP5 PUSH3 0xDFE JUMP JUMPDEST SWAP5 SWAP4 POP POP POP POP JUMP JUMPDEST PUSH0 PUSH1 0x20 DUP3 ADD SWAP1 POP PUSH3 0xEC4 PUSH0 DUP4 ADD DUP5 PUSH3 0xDFE JUMP JUMPDEST SWAP3 SWAP2 POP POP JUMP JUMPDEST PUSH1 0x80 MLOAD PUSH2 0x1519 PUSH3 0xEE3 PUSH0 CODECOPY PUSH0 PUSH2 0x3F2 ADD MSTORE PUSH2 0x1519 PUSH0 RETURN INVALID PUSH1 0x80 PUSH1 0x40 MSTORE CALLVALUE DUP1 ISZERO PUSH2 0xF JUMPI PUSH0 DUP1 REVERT JUMPDEST POP PUSH1 0x4 CALLDATASIZE LT PUSH2 0xFE JUMPI PUSH0 CALLDATALOAD PUSH1 0xE0 SHR DUP1 PUSH4 0x70A08231 GT PUSH2 0x95 JUMPI DUP1 PUSH4 0x95D89B41 GT PUSH2 0x64 JUMPI DUP1 PUSH4 0x95D89B41 EQ PUSH2 0x264 JUMPI DUP1 PUSH4 0xA9059CBB EQ PUSH2 0x282 JUMPI DUP1 PUSH4 0xDD62ED3E EQ PUSH2 0x2B2 JUMPI DUP1 PUSH4 0xF2FDE38B EQ PUSH2 0x2E2 JUMPI PUSH2 0xFE JUMP JUMPDEST DUP1 PUSH4 0x70A08231 EQ PUSH2 0x202 JUMPI DUP1 PUSH4 0x715018A6 EQ PUSH2 0x232 JUMPI DUP1 PUSH4 0x8456CB59 EQ PUSH2 0x23C JUMPI DUP1 PUSH4 0x8DA5CB5B EQ PUSH2 0x246 JUMPI PUSH2 0xFE JUMP JUMPDEST DUP1 PUSH4 0x313CE567 GT PUSH2 0xD1 JUMPI DUP1 PUSH4 0x313CE567 EQ PUSH2 0x19E JUMPI DUP1 PUSH4 0x355274EA EQ PUSH2 0x1BC JUMPI DUP1 PUSH4 0x3F4BA83A EQ PUSH2 0x1DA JUMPI DUP1 PUSH4 0x5C975ABB EQ PUSH2 0x1E4 JUMPI PUSH2 0xFE JUMP JUMPDEST DUP1 PUSH4 0x6FDDE03 EQ PUSH2 0x102 JUMPI DUP1 PUSH4 0x95EA7B3 EQ PUSH2 0x120 JUMPI DUP1 PUSH4 0x18160DDD EQ PUSH2 0x150 JUMPI DUP1 PUSH4 0x23B872DD EQ PUSH2 0x16E JUMPI JUMPDEST PUSH0 DUP1 REVERT JUMPDEST PUSH2 0x10A PUSH2 0x2FE JUMP JUMPDEST PUSH1 0x40 MLOAD PUSH2 0x117 SWAP2 SWAP1 PUSH2 0x1033 JUMP JUMPDEST PUSH1 0x40 MLOAD DUP1 SWAP2 SUB SWAP1 RETURN JUMPDEST PUSH2 0x13A PUSH1 0x4 DUP1 CALLDATASIZE SUB DUP2 ADD SWAP1 PUSH2 0x135 SWAP2 SWAP1 PUSH2 0x10E4 JUMP JUMPDEST PUSH2 0x38E JUMP JUMPDEST PUSH1 0x40 MLOAD PUSH2 0x147 SWAP2 SWAP1 PUSH2 0x113C JUMP JUMPDEST PUSH1 0x40 MLOAD DUP1 SWAP2 SUB SWAP1 RETURN JUMPDEST PUSH2 0x158 PUSH2 0x3B0 JUMP JUMPDEST PUSH1 0x40 MLOAD PUSH2 0x165 SWAP2 SWAP1 PUSH2 0x1164 JUMP JUMPDEST PUSH1 0x40 MLOAD DUP1 SWAP2 SUB SWAP1 RETURN JUMPDEST PUSH2 0x188 PUSH1 0x4 DUP1 CALLDATASIZE SUB DUP2 ADD SWAP1 PUSH2 0x183 SWAP2 SWAP1 PUSH2 0x117D JUMP JUMPDEST PUSH2 0x3B9 JUMP JUMPDEST PUSH1 0x40 MLOAD PUSH2 0x195 SWAP2 SWAP1 PUSH2 0x113C JUMP JUMPDEST PUSH1 0x40 MLOAD DUP1 SWAP2 SUB SWAP1 RETURN JUMPDEST PUSH2 0x1A6 PUSH2 0x3E7 JUMP JUMPDEST PUSH1 0x40 MLOAD PUSH2 0x1B3 SWAP2 SWAP1 PUSH2 0x11E8 JUMP JUMPDEST PUSH1 0x40 MLOAD DUP1 SWAP2 SUB SWAP1 RETURN JUMPDEST PUSH2 0x1C4 PUSH2 0x3EF JUMP JUMPDEST PUSH1 0x40 MLOAD PUSH2 0x1D1 SWAP2 SWAP1 PUSH2 0x1164 JUMP JUMPDEST PUSH1 0x40 MLOAD DUP1 SWAP2 SUB SWAP1 RETURN JUMPDEST PUSH2 0x1E2 PUSH2 0x416 JUMP JUMPDEST STOP JUMPDEST PUSH2 0x1EC PUSH2 0x428 JUMP JUMPDEST PUSH1 0x40 MLOAD PUSH2 0x1F9 SWAP2 SWAP1 PUSH2 0x113C JUMP JUMPDEST PUSH1 0x40 MLOAD DUP1 SWAP2 SUB SWAP1 RETURN JUMPDEST PUSH2 0x21C PUSH1 0x4 DUP1 CALLDATASIZE SUB DUP2 ADD SWAP1 PUSH2 0x217 SWAP2 SWAP1 PUSH2 0x1201 JUMP JUMPDEST PUSH2 0x43D JUMP JUMPDEST PUSH1 0x40 MLOAD PUSH2 0x229 SWAP2 SWAP1 PUSH2 0x1164 JUMP JUMPDEST PUSH1 0x40 MLOAD DUP1 SWAP2 SUB SWAP1 RETURN JUMPDEST PUSH2 0x23A PUSH2 0x482 JUMP JUMPDEST STOP JUMPDEST PUSH2 0x244 PUSH2 0x495 JUMP JUMPDEST STOP JUMPDEST PUSH2 0x24E PUSH2 0x4A7 JUMP JUMPDEST PUSH1 0x40 MLOAD PUSH2 0x25B SWAP2 SWAP1 PUSH2 0x123B JUMP JUMPDEST PUSH1 0x40 MLOAD DUP1 SWAP2 SUB SWAP1 RETURN JUMPDEST PUSH2 0x26C PUSH2 0x4D0 JUMP JUMPDEST PUSH1 0x40 MLOAD PUSH2 0x279 SWAP2 SWAP1 PUSH2 0x1033 JUMP JUMPDEST PUSH1 0x40 MLOAD DUP1 SWAP2 SUB SWAP1 RETURN JUMPDEST PUSH2 0x29C PUSH1 0x4 DUP1 CALLDATASIZE SUB DUP2 ADD SWAP1 PUSH2 0x297 SWAP2 SWAP1 PUSH2 0x10E4 JUMP JUMPDEST PUSH2 0x560 JUMP JUMPDEST PUSH1 0x40 MLOAD PUSH2 0x2A9 SWAP2 SWAP1 PUSH2 0x113C JUMP JUMPDEST PUSH1 0x40 MLOAD DUP1 SWAP2 SUB SWAP1 RETURN JUMPDEST PUSH2 0x2CC PUSH1 0x4 DUP1 CALLDATASIZE SUB DUP2 ADD SWAP1 PUSH2 0x2C7 SWAP2 SWAP1 PUSH2 0x1254 JUMP JUMPDEST PUSH2 0x582 JUMP JUMPDEST PUSH1 0x40 MLOAD PUSH2 0x2D9 SWAP2 SWAP1 PUSH2 0x1164 JUMP JUMPDEST PUSH1 0x40 MLOAD DUP1 SWAP2 SUB SWAP1 RETURN JUMPDEST PUSH2 0x2FC PUSH1 0x4 DUP1 CALLDATASIZE SUB DUP2 ADD SWAP1 PUSH2 0x2F7 SWAP2 SWAP1 PUSH2 0x1201 JUMP JUMPDEST PUSH2 0x604 JUMP JUMPDEST STOP JUMPDEST PUSH1 0x60 PUSH1 0x3 DUP1 SLOAD PUSH2 0x30D SWAP1 PUSH2 0x12BF JUMP JUMPDEST DUP1 PUSH1 0x1F ADD PUSH1 0x20 DUP1 SWAP2 DIV MUL PUSH1 0x20 ADD PUSH1 0x40 MLOAD SWAP1 DUP2 ADD PUSH1 0x40 MSTORE DUP1 SWAP3 SWAP2 SWAP1 DUP2 DUP2 MSTORE PUSH1 0x20 ADD DUP3 DUP1 SLOAD PUSH2 0x339 SWAP1 PUSH2 0x12BF JUMP JUMPDEST DUP1 ISZERO PUSH2 0x384 JUMPI DUP1 PUSH1 0x1F LT PUSH2 0x35B JUMPI PUSH2 0x100 DUP1 DUP4 SLOAD DIV MUL DUP4 MSTORE SWAP2 PUSH1 0x20 ADD SWAP2 PUSH2 0x384 JUMP JUMPDEST DUP3 ADD SWAP2 SWAP1 PUSH0 MSTORE PUSH1 0x20 PUSH0 KECCAK256 SWAP1 JUMPDEST DUP2 SLOAD DUP2 MSTORE SWAP1 PUSH1 0x1 ADD SWAP1 PUSH1 0x20 ADD DUP1 DUP4 GT PUSH2 0x367 JUMPI DUP3 SWAP1 SUB PUSH1 0x1F AND DUP3 ADD SWAP2 JUMPDEST POP POP POP POP POP SWAP1 POP SWAP1 JUMP JUMPDEST PUSH0 DUP1 PUSH2 0x398 PUSH2 0x688 JUMP JUMPDEST SWAP1 POP PUSH2 0x3A5 DUP2 DUP6 DUP6 PUSH2 0x68F JUMP JUMPDEST PUSH1 0x1 SWAP2 POP POP SWAP3 SWAP2 POP POP JUMP JUMPDEST PUSH0 PUSH1 0x2 SLOAD SWAP1 POP SWAP1 JUMP JUMPDEST PUSH0 DUP1 PUSH2 0x3C3 PUSH2 0x688 JUMP JUMPDEST SWAP1 POP PUSH2 0x3D0 DUP6 DUP3 DUP6 PUSH2 0x6A1 JUMP JUMPDEST PUSH2 0x3DB DUP6 DUP6 DUP6 PUSH2 0x734 JUMP JUMPDEST PUSH1 0x1 SWAP2 POP POP SWAP4 SWAP3 POP POP POP JUMP JUMPDEST PUSH0 PUSH1 0x12 SWAP1 POP SWAP1 JUMP JUMPDEST PUSH0 PUSH32 0x0 SWAP1 POP SWAP1 JUMP JUMPDEST PUSH2 0x41E PUSH2 0x824 JUMP JUMPDEST PUSH2 0x426 PUSH2 0x8AB JUMP JUMPDEST JUMP JUMPDEST PUSH0 PUSH1 0x5 PUSH0 SWAP1 SLOAD SWAP1 PUSH2 0x100 EXP SWAP1 DIV PUSH1 0xFF AND SWAP1 POP SWAP1 JUMP JUMPDEST PUSH0 DUP1 PUSH0 DUP4 PUSH20 0xFFFFFFFFFFFFFFFFFFFFFFFFFFFFFFFFFFFFFFFF AND PUSH20 0xFFFFFFFFFFFFFFFFFFFFFFFFFFFFFFFFFFFFFFFF AND DUP2 MSTORE PUSH1 0x20 ADD SWAP1 DUP2 MSTORE PUSH1 0x20 ADD PUSH0 KECCAK256 SLOAD SWAP1 POP SWAP2 SWAP1 POP JUMP JUMPDEST PUSH2 0x48A PUSH2 0x824 JUMP JUMPDEST PUSH2 0x493 PUSH0 PUSH2 0x90C JUMP JUMPDEST JUMP JUMPDEST PUSH2 0x49D PUSH2 0x824 JUMP JUMPDEST PUSH2 0x4A5 PUSH2 0x9D1 JUMP JUMPDEST JUMP JUMPDEST PUSH0 PUSH1 0x5 PUSH1 0x1 SWAP1 SLOAD SWAP1 PUSH2 0x100 EXP SWAP1 DIV PUSH20 0xFFFFFFFFFFFFFFFFFFFFFFFFFFFFFFFFFFFFFFFF AND SWAP1 POP SWAP1 JUMP JUMPDEST PUSH1 0x60 PUSH1 0x4 DUP1 SLOAD PUSH2 0x4DF SWAP1 PUSH2 0x12BF JUMP JUMPDEST DUP1 PUSH1 0x1F ADD PUSH1 0x20 DUP1 SWAP2 DIV MUL PUSH1 0x20 ADD PUSH1 0x40 MLOAD SWAP1 DUP2 ADD PUSH1 0x40 MSTORE DUP1 SWAP3 SWAP2 SWAP1 DUP2 DUP2 MSTORE PUSH1 0x20 ADD DUP3 DUP1 SLOAD PUSH2 0x50B SWAP1 PUSH2 0x12BF JUMP JUMPDEST DUP1 ISZERO PUSH2 0x556 JUMPI DUP1 PUSH1 0x1F LT PUSH2 0x52D JUMPI PUSH2 0x100 DUP1 DUP4 SLOAD DIV MUL DUP4 MSTORE SWAP2 PUSH1 0x20 ADD SWAP2 PUSH2 0x556 JUMP JUMPDEST DUP3 ADD SWAP2 SWAP1 PUSH0 MSTORE PUSH1 0x20 PUSH0 KECCAK256 SWAP1 JUMPDEST DUP2 SLOAD DUP2 MSTORE SWAP1 PUSH1 0x1 ADD SWAP1 PUSH1 0x20 ADD DUP1 DUP4 GT PUSH2 0x539 JUMPI DUP3 SWAP1 SUB PUSH1 0x1F AND DUP3 ADD SWAP2 JUMPDEST POP POP POP POP POP SWAP1 POP SWAP1 JUMP JUMPDEST PUSH0 DUP1 PUSH2 0x56A PUSH2 0x688 JUMP JUMPDEST SWAP1 POP PUSH2 0x577 DUP2 DUP6 DUP6 PUSH2 0x734 JUMP JUMPDEST PUSH1 0x1 SWAP2 POP POP SWAP3 SWAP2 POP POP JUMP JUMPDEST PUSH0 PUSH1 0x1 PUSH0 DUP5 PUSH20 0xFFFFFFFFFFFFFFFFFFFFFFFFFFFFFFFFFFFFFFFF AND PUSH20 0xFFFFFFFFFFFFFFFFFFFFFFFFFFFFFFFFFFFFFFFF AND DUP2 MSTORE PUSH1 0x20 ADD SWAP1 DUP2 MSTORE PUSH1 0x20 ADD PUSH0 KECCAK256 PUSH0 DUP4 PUSH20 0xFFFFFFFFFFFFFFFFFFFFFFFFFFFFFFFFFFFFFFFF AND PUSH20 0xFFFFFFFFFFFFFFFFFFFFFFFFFFFFFFFFFFFFFFFF AND DUP2 MSTORE PUSH1 0x20 ADD SWAP1 DUP2 MSTORE PUSH1 0x20 ADD PUSH0 KECCAK256 SLOAD SWAP1 POP SWAP3 SWAP2 POP POP JUMP JUMPDEST PUSH2 0x60C PUSH2 0x824 JUMP JUMPDEST PUSH0 PUSH20 0xFFFFFFFFFFFFFFFFFFFFFFFFFFFFFFFFFFFFFFFF AND DUP2 PUSH20 0xFFFFFFFFFFFFFFFFFFFFFFFFFFFFFFFFFFFFFFFF AND SUB PUSH2 0x67C JUMPI PUSH0 PUSH1 0x40 MLOAD PUSH32 0x1E4FBDF700000000000000000000000000000000000000000000000000000000 DUP2 MSTORE PUSH1 0x4 ADD PUSH2 0x673 SWAP2 SWAP1 PUSH2 0x123B JUMP JUMPDEST PUSH1 0x40 MLOAD DUP1 SWAP2 SUB SWAP1 REVERT JUMPDEST PUSH2 0x685 DUP2 PUSH2 0x90C JUMP JUMPDEST POP JUMP JUMPDEST PUSH0 CALLER SWAP1 POP SWAP1 JUMP JUMPDEST PUSH2 0x69C DUP4 DUP4 DUP4 PUSH1 0x1 PUSH2 0xA33 JUMP JUMPDEST POP POP POP JUMP JUMPDEST PUSH0 PUSH2 0x6AC DUP5 DUP5 PUSH2 0x582 JUMP JUMPDEST SWAP1 POP PUSH32 0xFFFFFFFFFFFFFFFFFFFFFFFFFFFFFFFFFFFFFFFFFFFFFFFFFFFFFFFFFFFFFFFF DUP2 LT ISZERO PUSH2 0x72E JUMPI DUP2 DUP2 LT ISZERO PUSH2 0x71F JUMPI DUP3 DUP2 DUP4 PUSH1 0x40 MLOAD PUSH32 0xFB8F41B200000000000000000000000000000000000000000000000000000000 DUP2 MSTORE PUSH1 0x4 ADD PUSH2 0x716 SWAP4 SWAP3 SWAP2 SWAP1 PUSH2 0x12EF JUMP JUMPDEST PUSH1 0x40 MLOAD DUP1 SWAP2 SUB SWAP1 REVERT JUMPDEST PUSH2 0x72D DUP5 DUP5 DUP5 DUP5 SUB PUSH0 PUSH2 0xA33 JUMP JUMPDEST JUMPDEST POP POP POP POP JUMP JUMPDEST PUSH0 PUSH20 0xFFFFFFFFFFFFFFFFFFFFFFFFFFFFFFFFFFFFFFFF AND DUP4 PUSH20 0xFFFFFFFFFFFFFFFFFFFFFFFFFFFFFFFFFFFFFFFF AND SUB PUSH2 0x7A4 JUMPI PUSH0 PUSH1 0x40 MLOAD PUSH32 0x96C6FD1E00000000000000000000000000000000000000000000000000000000 DUP2 MSTORE PUSH1 0x4 ADD PUSH2 0x79B SWAP2 SWAP1 PUSH2 0x123B JUMP JUMPDEST PUSH1 0x40 MLOAD DUP1 SWAP2 SUB SWAP1 REVERT JUMPDEST PUSH0 PUSH20 0xFFFFFFFFFFFFFFFFFFFFFFFFFFFFFFFFFFFFFFFF AND DUP3 PUSH20 0xFFFFFFFFFFFFFFFFFFFFFFFFFFFFFFFFFFFFFFFF AND SUB PUSH2 0x814 JUMPI PUSH0 PUSH1 0x40 MLOAD PUSH32 0xEC442F0500000000000000000000000000000000000000000000000000000000 DUP2 MSTORE PUSH1 0x4 ADD PUSH2 0x80B SWAP2 SWAP1 PUSH2 0x123B JUMP JUMPDEST PUSH1 0x40 MLOAD DUP1 SWAP2 SUB SWAP1 REVERT JUMPDEST PUSH2 0x81F DUP4 DUP4 DUP4 PUSH2 0xC02 JUMP JUMPDEST POP POP POP JUMP JUMPDEST PUSH2 0x82C PUSH2 0x688 JUMP JUMPDEST PUSH20 0xFFFFFFFFFFFFFFFFFFFFFFFFFFFFFFFFFFFFFFFF AND PUSH2 0x84A PUSH2 0x4A7 JUMP JUMPDEST PUSH20 0xFFFFFFFFFFFFFFFFFFFFFFFFFFFFFFFFFFFFFFFF AND EQ PUSH2 0x8A9 JUMPI PUSH2 0x86D PUSH2 0x688 JUMP JUMPDEST PUSH1 0x40 MLOAD PUSH32 0x118CDAA700000000000000000000000000000000000000000000000000000000 DUP2 MSTORE PUSH1 0x4 ADD PUSH2 0x8A0 SWAP2 SWAP1 PUSH2 0x123B JUMP JUMPDEST PUSH1 0x40 MLOAD DUP1 SWAP2 SUB SWAP1 REVERT JUMPDEST JUMP JUMPDEST PUSH2 0x8B3 PUSH2 0xC5A JUMP JUMPDEST PUSH0 PUSH1 0x5 PUSH0 PUSH2 0x100 EXP DUP2 SLOAD DUP2 PUSH1 0xFF MUL NOT AND SWAP1 DUP4 ISZERO ISZERO MUL OR SWAP1 SSTORE POP PUSH32 0x5DB9EE0A495BF2E6FF9C91A7834C1BA4FDD244A5E8AA4E537BD38AEAE4B073AA PUSH2 0x8F5 PUSH2 0x688 JUMP JUMPDEST PUSH1 0x40 MLOAD PUSH2 0x902 SWAP2 SWAP1 PUSH2 0x123B JUMP JUMPDEST PUSH1 0x40 MLOAD DUP1 SWAP2 SUB SWAP1 LOG1 JUMP JUMPDEST PUSH0 PUSH1 0x5 PUSH1 0x1 SWAP1 SLOAD SWAP1 PUSH2 0x100 EXP SWAP1 DIV PUSH20 0xFFFFFFFFFFFFFFFFFFFFFFFFFFFFFFFFFFFFFFFF AND SWAP1 POP DUP2 PUSH1 0x5 PUSH1 0x1 PUSH2 0x100 EXP DUP2 SLOAD DUP2 PUSH20 0xFFFFFFFFFFFFFFFFFFFFFFFFFFFFFFFFFFFFFFFF MUL NOT AND SWAP1 DUP4 PUSH20 0xFFFFFFFFFFFFFFFFFFFFFFFFFFFFFFFFFFFFFFFF AND MUL OR SWAP1 SSTORE POP DUP2 PUSH20 0xFFFFFFFFFFFFFFFFFFFFFFFFFFFFFFFFFFFFFFFF AND DUP2 PUSH20 0xFFFFFFFFFFFFFFFFFFFFFFFFFFFFFFFFFFFFFFFF AND PUSH32 0x8BE0079C531659141344CD1FD0A4F28419497F9722A3DAAFE3B4186F6B6457E0 PUSH1 0x40 MLOAD PUSH1 0x40 MLOAD DUP1 SWAP2 SUB SWAP1 LOG3 POP POP JUMP JUMPDEST PUSH2 0x9D9 PUSH2 0xCA3 JUMP JUMPDEST PUSH1 0x1 PUSH1 0x5 PUSH0 PUSH2 0x100 EXP DUP2 SLOAD DUP2 PUSH1 0xFF MUL NOT AND SWAP1 DUP4 ISZERO ISZERO MUL OR SWAP1 SSTORE POP PUSH32 0x62E78CEA01BEE320CD4E420270B5EA74000D11B0C9F74754EBDBFC544B05A258 PUSH2 0xA1C PUSH2 0x688 JUMP JUMPDEST PUSH1 0x40 MLOAD PUSH2 0xA29 SWAP2 SWAP1 PUSH2 0x123B JUMP JUMPDEST PUSH1 0x40 MLOAD DUP1 SWAP2 SUB SWAP1 LOG1 JUMP JUMPDEST PUSH0 PUSH20 0xFFFFFFFFFFFFFFFFFFFFFFFFFFFFFFFFFFFFFFFF AND DUP5 PUSH20 0xFFFFFFFFFFFFFFFFFFFFFFFFFFFFFFFFFFFFFFFF AND SUB PUSH2 0xAA3 JUMPI PUSH0 PUSH1 0x40 MLOAD PUSH32 0xE602DF0500000000000000000000000000000000000000000000000000000000 DUP2 MSTORE PUSH1 0x4 ADD PUSH2 0xA9A SWAP2 SWAP1 PUSH2 0x123B JUMP JUMPDEST PUSH1 0x40 MLOAD DUP1 SWAP2 SUB SWAP1 REVERT JUMPDEST PUSH0 PUSH20 0xFFFFFFFFFFFFFFFFFFFFFFFFFFFFFFFFFFFFFFFF AND DUP4 PUSH20 0xFFFFFFFFFFFFFFFFFFFFFFFFFFFFFFFFFFFFFFFF AND SUB PUSH2 0xB13 JUMPI PUSH0 PUSH1 0x40 MLOAD PUSH32 0x94280D6200000000000000000000000000000000000000000000000000000000 DUP2 MSTORE PUSH1 0x4 ADD PUSH2 0xB0A SWAP2 SWAP1 PUSH2 0x123B JUMP JUMPDEST PUSH1 0x40 MLOAD DUP1 SWAP2 SUB SWAP1 REVERT JUMPDEST DUP2 PUSH1 0x1 PUSH0 DUP7 PUSH20 0xFFFFFFFFFFFFFFFFFFFFFFFFFFFFFFFFFFFFFFFF AND PUSH20 0xFFFFFFFFFFFFFFFFFFFFFFFFFFFFFFFFFFFFFFFF AND DUP2 MSTORE PUSH1 0x20 ADD SWAP1 DUP2 MSTORE PUSH1 0x20 ADD PUSH0 KECCAK256 PUSH0 DUP6 PUSH20 0xFFFFFFFFFFFFFFFFFFFFFFFFFFFFFFFFFFFFFFFF AND PUSH20 0xFFFFFFFFFFFFFFFFFFFFFFFFFFFFFFFFFFFFFFFF AND DUP2 MSTORE PUSH1 0x20 ADD SWAP1 DUP2 MSTORE PUSH1 0x20 ADD PUSH0 KECCAK256 DUP2 SWAP1 SSTORE POP DUP1 ISZERO PUSH2 0xBFC JUMPI DUP3 PUSH20 0xFFFFFFFFFFFFFFFFFFFFFFFFFFFFFFFFFFFFFFFF AND DUP5 PUSH20 0xFFFFFFFFFFFFFFFFFFFFFFFFFFFFFFFFFFFFFFFF AND PUSH32 0x8C5BE1E5EBEC7D5BD14F71427D1E84F3DD0314C0F7B2291E5B200AC8C7C3B925 DUP5 PUSH1 0x40 MLOAD PUSH2 0xBF3 SWAP2 SWAP1 PUSH2 0x1164 JUMP JUMPDEST PUSH1 0x40 MLOAD DUP1 SWAP2 SUB SWAP1 LOG3 JUMPDEST POP POP POP POP JUMP JUMPDEST PUSH2 0xC0A PUSH2 0x428 JUMP JUMPDEST ISZERO PUSH2 0xC4A JUMPI PUSH1 0x40 MLOAD PUSH32 0x8C379A000000000000000000000000000000000000000000000000000000000 DUP2 MSTORE PUSH1 0x4 ADD PUSH2 0xC41 SWAP1 PUSH2 0x136E JUMP JUMPDEST PUSH1 0x40 MLOAD DUP1 SWAP2 SUB SWAP1 REVERT JUMPDEST PUSH2 0xC55 DUP4 DUP4 DUP4 PUSH2 0xCED JUMP JUMPDEST POP POP POP JUMP JUMPDEST PUSH2 0xC62 PUSH2 0x428 JUMP JUMPDEST PUSH2 0xCA1 JUMPI PUSH1 0x40 MLOAD PUSH32 0x8C379A000000000000000000000000000000000000000000000000000000000 DUP2 MSTORE PUSH1 0x4 ADD PUSH2 0xC98 SWAP1 PUSH2 0x13D6 JUMP JUMPDEST PUSH1 0x40 MLOAD DUP1 SWAP2 SUB SWAP1 REVERT JUMPDEST JUMP JUMPDEST PUSH2 0xCAB PUSH2 0x428 JUMP JUMPDEST ISZERO PUSH2 0xCEB JUMPI PUSH1 0x40 MLOAD PUSH32 0x8C379A000000000000000000000000000000000000000000000000000000000 DUP2 MSTORE PUSH1 0x4 ADD PUSH2 0xCE2 SWAP1 PUSH2 0x143E JUMP JUMPDEST PUSH1 0x40 MLOAD DUP1 SWAP2 SUB SWAP1 REVERT JUMPDEST JUMP JUMPDEST PUSH2 0xCF8 DUP4 DUP4 DUP4 PUSH2 0xD90 JUMP JUMPDEST PUSH0 PUSH20 0xFFFFFFFFFFFFFFFFFFFFFFFFFFFFFFFFFFFFFFFF AND DUP4 PUSH20 0xFFFFFFFFFFFFFFFFFFFFFFFFFFFFFFFFFFFFFFFF AND SUB PUSH2 0xD8B JUMPI PUSH0 PUSH2 0xD34 PUSH2 0x3EF JUMP JUMPDEST SWAP1 POP PUSH0 PUSH2 0xD3F PUSH2 0x3B0 JUMP JUMPDEST SWAP1 POP DUP2 DUP2 GT ISZERO PUSH2 0xD88 JUMPI DUP1 DUP3 PUSH1 0x40 MLOAD PUSH32 0x9E79F85400000000000000000000000000000000000000000000000000000000 DUP2 MSTORE PUSH1 0x4 ADD PUSH2 0xD7F SWAP3 SWAP2 SWAP1 PUSH2 0x145C JUMP JUMPDEST PUSH1 0x40 MLOAD DUP1 SWAP2 SUB SWAP1 REVERT JUMPDEST POP POP JUMPDEST POP POP POP JUMP JUMPDEST PUSH0 PUSH20 0xFFFFFFFFFFFFFFFFFFFFFFFFFFFFFFFFFFFFFFFF AND DUP4 PUSH20 0xFFFFFFFFFFFFFFFFFFFFFFFFFFFFFFFFFFFFFFFF AND SUB PUSH2 0xDE0 JUMPI DUP1 PUSH1 0x2 PUSH0 DUP3 DUP3 SLOAD PUSH2 0xDD4 SWAP2 SWAP1 PUSH2 0x14B0 JUMP JUMPDEST SWAP3 POP POP DUP2 SWAP1 SSTORE POP PUSH2 0xEAE JUMP JUMPDEST PUSH0 DUP1 PUSH0 DUP6 PUSH20 0xFFFFFFFFFFFFFFFFFFFFFFFFFFFFFFFFFFFFFFFF AND PUSH20 0xFFFFFFFFFFFFFFFFFFFFFFFFFFFFFFFFFFFFFFFF AND DUP2 MSTORE PUSH1 0x20 ADD SWAP1 DUP2 MSTORE PUSH1 0x20 ADD PUSH0 KECCAK256 SLOAD SWAP1 POP DUP2 DUP2 LT ISZERO PUSH2 0xE69 JUMPI DUP4 DUP2 DUP4 PUSH1 0x40 MLOAD PUSH32 0xE450D38C00000000000000000000000000000000000000000000000000000000 DUP2 MSTORE PUSH1 0x4 ADD PUSH2 0xE60 SWAP4 SWAP3 SWAP2 SWAP1 PUSH2 0x12EF JUMP JUMPDEST PUSH1 0x40 MLOAD DUP1 SWAP2 SUB SWAP1 REVERT JUMPDEST DUP2 DUP2 SUB PUSH0 DUP1 DUP7 PUSH20 0xFFFFFFFFFFFFFFFFFFFFFFFFFFFFFFFFFFFFFFFF AND PUSH20 0xFFFFFFFFFFFFFFFFFFFFFFFFFFFFFFFFFFFFFFFF AND DUP2 MSTORE PUSH1 0x20 ADD SWAP1 DUP2 MSTORE PUSH1 0x20 ADD PUSH0 KECCAK256 DUP2 SWAP1 SSTORE POP POP JUMPDEST PUSH0 PUSH20 0xFFFFFFFFFFFFFFFFFFFFFFFFFFFFFFFFFFFFFFFF AND DUP3 PUSH20 0xFFFFFFFFFFFFFFFFFFFFFFFFFFFFFFFFFFFFFFFF AND SUB PUSH2 0xEF5 JUMPI DUP1 PUSH1 0x2 PUSH0 DUP3 DUP3 SLOAD SUB SWAP3 POP POP DUP2 SWAP1 SSTORE POP PUSH2 0xF3F JUMP JUMPDEST DUP1 PUSH0 DUP1 DUP5 PUSH20 0xFFFFFFFFFFFFFFFFFFFFFFFFFFFFFFFFFFFFFFFF AND PUSH20 0xFFFFFFFFFFFFFFFFFFFFFFFFFFFFFFFFFFFFFFFF AND DUP2 MSTORE PUSH1 0x20 ADD SWAP1 DUP2 MSTORE PUSH1 0x20 ADD PUSH0 KECCAK256 PUSH0 DUP3 DUP3 SLOAD ADD SWAP3 POP POP DUP2 SWAP1 SSTORE POP JUMPDEST DUP2 PUSH20 0xFFFFFFFFFFFFFFFFFFFFFFFFFFFFFFFFFFFFFFFF AND DUP4 PUSH20 0xFFFFFFFFFFFFFFFFFFFFFFFFFFFFFFFFFFFFFFFF AND PUSH32 0xDDF252AD1BE2C89B69C2B068FC378DAA952BA7F163C4A11628F55A4DF523B3EF DUP4 PUSH1 0x40 MLOAD PUSH2 0xF9C SWAP2 SWAP1 PUSH2 0x1164 JUMP JUMPDEST PUSH1 0x40 MLOAD DUP1 SWAP2 SUB SWAP1 LOG3 POP POP POP JUMP JUMPDEST PUSH0 DUP2 MLOAD SWAP1 POP SWAP2 SWAP1 POP JUMP JUMPDEST PUSH0 DUP3 DUP3 MSTORE PUSH1 0x20 DUP3 ADD SWAP1 POP SWAP3 SWAP2 POP POP JUMP JUMPDEST PUSH0 JUMPDEST DUP4 DUP2 LT ISZERO PUSH2 0xFE0 JUMPI DUP1 DUP3 ADD MLOAD DUP2 DUP5 ADD MSTORE PUSH1 0x20 DUP2 ADD SWAP1 POP PUSH2 0xFC5 JUMP JUMPDEST PUSH0 DUP5 DUP5 ADD MSTORE POP POP POP POP JUMP JUMPDEST PUSH0 PUSH1 0x1F NOT PUSH1 0x1F DUP4 ADD AND SWAP1 POP SWAP2 SWAP1 POP JUMP JUMPDEST PUSH0 PUSH2 0x1005 DUP3 PUSH2 0xFA9 JUMP JUMPDEST PUSH2 0x100F DUP2 DUP6 PUSH2 0xFB3 JUMP JUMPDEST SWAP4 POP PUSH2 0x101F DUP2 DUP6 PUSH1 0x20 DUP7 ADD PUSH2 0xFC3 JUMP JUMPDEST PUSH2 0x1028 DUP2 PUSH2 0xFEB JUMP JUMPDEST DUP5 ADD SWAP2 POP POP SWAP3 SWAP2 POP POP JUMP JUMPDEST PUSH0 PUSH1 0x20 DUP3 ADD SWAP1 POP DUP2 DUP2 SUB PUSH0 DUP4 ADD MSTORE PUSH2 0x104B DUP2 DUP5 PUSH2 0xFFB JUMP JUMPDEST SWAP1 POP SWAP3 SWAP2 POP POP JUMP JUMPDEST PUSH0 DUP1 REVERT JUMPDEST PUSH0 PUSH20 0xFFFFFFFFFFFFFFFFFFFFFFFFFFFFFFFFFFFFFFFF DUP3 AND SWAP1 POP SWAP2 SWAP1 POP JUMP JUMPDEST PUSH0 PUSH2 0x1080 DUP3 PUSH2 0x1057 JUMP JUMPDEST SWAP1 POP SWAP2 SWAP1 POP JUMP JUMPDEST PUSH2 0x1090 DUP2 PUSH2 0x1076 JUMP JUMPDEST DUP2 EQ PUSH2 0x109A JUMPI PUSH0 DUP1 REVERT JUMPDEST POP JUMP JUMPDEST PUSH0 DUP2 CALLDATALOAD SWAP1 POP PUSH2 0x10AB DUP2 PUSH2 0x1087 JUMP JUMPDEST SWAP3 SWAP2 POP POP JUMP JUMPDEST PUSH0 DUP2 SWAP1 POP SWAP2 SWAP1 POP JUMP JUMPDEST PUSH2 0x10C3 DUP2 PUSH2 0x10B1 JUMP JUMPDEST DUP2 EQ PUSH2 0x10CD JUMPI PUSH0 DUP1 REVERT JUMPDEST POP JUMP JUMPDEST PUSH0 DUP2 CALLDATALOAD SWAP1 POP PUSH2 0x10DE DUP2 PUSH2 0x10BA JUMP JUMPDEST SWAP3 SWAP2 POP POP JUMP JUMPDEST PUSH0 DUP1 PUSH1 0x40 DUP4 DUP6 SUB SLT ISZERO PUSH2 0x10FA JUMPI PUSH2 0x10F9 PUSH2 0x1053 JUMP JUMPDEST JUMPDEST PUSH0 PUSH2 0x1107 DUP6 DUP3 DUP7 ADD PUSH2 0x109D JUMP JUMPDEST SWAP3 POP POP PUSH1 0x20 PUSH2 0x1118 DUP6 DUP3 DUP7 ADD PUSH2 0x10D0 JUMP JUMPDEST SWAP2 POP POP SWAP3 POP SWAP3 SWAP1 POP JUMP JUMPDEST PUSH0 DUP2 ISZERO ISZERO SWAP1 POP SWAP2 SWAP1 POP JUMP JUMPDEST PUSH2 0x1136 DUP2 PUSH2 0x1122 JUMP JUMPDEST DUP3 MSTORE POP POP JUMP JUMPDEST PUSH0 PUSH1 0x20 DUP3 ADD SWAP1 POP PUSH2 0x114F PUSH0 DUP4 ADD DUP5 PUSH2 0x112D JUMP JUMPDEST SWAP3 SWAP2 POP POP JUMP JUMPDEST PUSH2 0x115E DUP2 PUSH2 0x10B1 JUMP JUMPDEST DUP3 MSTORE POP POP JUMP JUMPDEST PUSH0 PUSH1 0x20 DUP3 ADD SWAP1 POP PUSH2 0x1177 PUSH0 DUP4 ADD DUP5 PUSH2 0x1155 JUMP JUMPDEST SWAP3 SWAP2 POP POP JUMP JUMPDEST PUSH0 DUP1 PUSH0 PUSH1 0x60 DUP5 DUP7 SUB SLT ISZERO PUSH2 0x1194 JUMPI PUSH2 0x1193 PUSH2 0x1053 JUMP JUMPDEST JUMPDEST PUSH0 PUSH2 0x11A1 DUP7 DUP3 DUP8 ADD PUSH2 0x109D JUMP JUMPDEST SWAP4 POP POP PUSH1 0x20 PUSH2 0x11B2 DUP7 DUP3 DUP8 ADD PUSH2 0x109D JUMP JUMPDEST SWAP3 POP POP PUSH1 0x40 PUSH2 0x11C3 DUP7 DUP3 DUP8 ADD PUSH2 0x10D0 JUMP JUMPDEST SWAP2 POP POP SWAP3 POP SWAP3 POP SWAP3 JUMP JUMPDEST PUSH0 PUSH1 0xFF DUP3 AND SWAP1 POP SWAP2 SWAP1 POP JUMP JUMPDEST PUSH2 0x11E2 DUP2 PUSH2 0x11CD JUMP JUMPDEST DUP3 MSTORE POP POP JUMP JUMPDEST PUSH0 PUSH1 0x20 DUP3 ADD SWAP1 POP PUSH2 0x11FB PUSH0 DUP4 ADD DUP5 PUSH2 0x11D9 JUMP JUMPDEST SWAP3 SWAP2 POP POP JUMP JUMPDEST PUSH0 PUSH1 0x20 DUP3 DUP5 SUB SLT ISZERO PUSH2 0x1216 JUMPI PUSH2 0x1215 PUSH2 0x1053 JUMP JUMPDEST JUMPDEST PUSH0 PUSH2 0x1223 DUP5 DUP3 DUP6 ADD PUSH2 0x109D JUMP JUMPDEST SWAP2 POP POP SWAP3 SWAP2 POP POP JUMP JUMPDEST PUSH2 0x1235 DUP2 PUSH2 0x1076 JUMP JUMPDEST DUP3 MSTORE POP POP JUMP JUMPDEST PUSH0 PUSH1 0x20 DUP3 ADD SWAP1 POP PUSH2 0x124E PUSH0 DUP4 ADD DUP5 PUSH2 0x122C JUMP JUMPDEST SWAP3 SWAP2 POP POP JUMP JUMPDEST PUSH0 DUP1 PUSH1 0x40 DUP4 DUP6 SUB SLT ISZERO PUSH2 0x126A JUMPI PUSH2 0x1269 PUSH2 0x1053 JUMP JUMPDEST JUMPDEST PUSH0 PUSH2 0x1277 DUP6 DUP3 DUP7 ADD PUSH2 0x109D JUMP JUMPDEST SWAP3 POP POP PUSH1 0x20 PUSH2 0x1288 DUP6 DUP3 DUP7 ADD PUSH2 0x109D JUMP JUMPDEST SWAP2 POP POP SWAP3 POP SWAP3 SWAP1 POP JUMP JUMPDEST PUSH32 0x4E487B7100000000000000000000000000000000000000000000000000000000 PUSH0 MSTORE PUSH1 0x22 PUSH1 0x4 MSTORE PUSH1 0x24 PUSH0 REVERT JUMPDEST PUSH0 PUSH1 0x2 DUP3 DIV SWAP1 POP PUSH1 0x1 DUP3 AND DUP1 PUSH2 0x12D6 JUMPI PUSH1 0x7F DUP3 AND SWAP2 POP JUMPDEST PUSH1 0x20 DUP3 LT DUP2 SUB PUSH2 0x12E9 JUMPI PUSH2 0x12E8 PUSH2 0x1292 JUMP JUMPDEST JUMPDEST POP SWAP2 SWAP1 POP JUMP JUMPDEST PUSH0 PUSH1 0x60 DUP3 ADD SWAP1 POP PUSH2 0x1302 PUSH0 DUP4 ADD DUP7 PUSH2 0x122C JUMP JUMPDEST PUSH2 0x130F PUSH1 0x20 DUP4 ADD DUP6 PUSH2 0x1155 JUMP JUMPDEST PUSH2 0x131C PUSH1 0x40 DUP4 ADD DUP5 PUSH2 0x1155 JUMP JUMPDEST SWAP5 SWAP4 POP POP POP POP JUMP JUMPDEST PUSH32 0x5472616E73666572656E63696173207061757361646173000000000000000000 PUSH0 DUP3 ADD MSTORE POP JUMP JUMPDEST PUSH0 PUSH2 0x1358 PUSH1 0x17 DUP4 PUSH2 0xFB3 JUMP JUMPDEST SWAP2 POP PUSH2 0x1363 DUP3 PUSH2 0x1324 JUMP JUMPDEST PUSH1 0x20 DUP3 ADD SWAP1 POP SWAP2 SWAP1 POP JUMP JUMPDEST PUSH0 PUSH1 0x20 DUP3 ADD SWAP1 POP DUP2 DUP2 SUB PUSH0 DUP4 ADD MSTORE PUSH2 0x1385 DUP2 PUSH2 0x134C JUMP JUMPDEST SWAP1 POP SWAP2 SWAP1 POP JUMP JUMPDEST PUSH32 0x5061757361626C653A206E6F7420706175736564000000000000000000000000 PUSH0 DUP3 ADD MSTORE POP JUMP JUMPDEST PUSH0 PUSH2 0x13C0 PUSH1 0x14 DUP4 PUSH2 0xFB3 JUMP JUMPDEST SWAP2 POP PUSH2 0x13CB DUP3 PUSH2 0x138C JUMP JUMPDEST PUSH1 0x20 DUP3 ADD SWAP1 POP SWAP2 SWAP1 POP JUMP JUMPDEST PUSH0 PUSH1 0x20 DUP3 ADD SWAP1 POP DUP2 DUP2 SUB PUSH0 DUP4 ADD MSTORE PUSH2 0x13ED DUP2 PUSH2 0x13B4 JUMP JUMPDEST SWAP1 POP SWAP2 SWAP1 POP JUMP JUMPDEST PUSH32 0x5061757361626C653A2070617573656400000000000000000000000000000000 PUSH0 DUP3 ADD MSTORE POP JUMP JUMPDEST PUSH0 PUSH2 0x1428 PUSH1 0x10 DUP4 PUSH2 0xFB3 JUMP JUMPDEST SWAP2 POP PUSH2 0x1433 DUP3 PUSH2 0x13F4 JUMP JUMPDEST PUSH1 0x20 DUP3 ADD SWAP1 POP SWAP2 SWAP1 POP JUMP JUMPDEST PUSH0 PUSH1 0x20 DUP3 ADD SWAP1 POP DUP2 DUP2 SUB PUSH0 DUP4 ADD MSTORE PUSH2 0x1455 DUP2 PUSH2 0x141C JUMP JUMPDEST SWAP1 POP SWAP2 SWAP1 POP JUMP JUMPDEST PUSH0 PUSH1 0x40 DUP3 ADD SWAP1 POP PUSH2 0x146F PUSH0 DUP4 ADD DUP6 PUSH2 0x1155 JUMP JUMPDEST PUSH2 0x147C PUSH1 0x20 DUP4 ADD DUP5 PUSH2 0x1155 JUMP JUMPDEST SWAP4 SWAP3 POP POP POP JUMP JUMPDEST PUSH32 0x4E487B7100000000000000000000000000000000000000000000000000000000 PUSH0 MSTORE PUSH1 0x11 PUSH1 0x4 MSTORE PUSH1 0x24 PUSH0 REVERT JUMPDEST PUSH0 PUSH2 0x14BA DUP3 PUSH2 0x10B1 JUMP JUMPDEST SWAP2 POP PUSH2 0x14C5 DUP4 PUSH2 0x10B1 JUMP JUMPDEST SWAP3 POP DUP3 DUP3 ADD SWAP1 POP DUP1 DUP3 GT ISZERO PUSH2 0x14DD JUMPI PUSH2 0x14DC PUSH2 0x1483 JUMP JUMPDEST JUMPDEST SWAP3 SWAP2 POP POP JUMP INVALID LOG2 PUSH5 0x6970667358 0x22 SLT KECCAK256 ADDMOD 0xD2 LOG3 0x4B LOG1 DUP14 0xB9 MUL 0x5E DELEGATECALL PUSH10 0xEF61161728BE5AF8586E SELFDESTRUCT BASEFEE DUP12 JUMPDEST PUSH16 0xCA1CDF18842264736F6C634300081400 CALLER "
		},
		"gasEstimates": {
			"creation": {
				"codeDepositCost": "1080200",
				"executionCost": "infinite",
				"totalCost": "infinite"
			},
			"external": {
				"allowance(address,address)": "infinite",
				"approve(address,uint256)": "infinite",
				"balanceOf(address)": "2852",
				"cap()": "infinite",
				"decimals()": "361",
				"name()": "infinite",
				"owner()": "2655",
				"pause()": "infinite",
				"paused()": "2562",
				"renounceOwnership()": "infinite",
				"symbol()": "infinite",
				"totalSupply()": "2500",
				"transfer(address,uint256)": "infinite",
				"transferFrom(address,address,uint256)": "infinite",
				"transferOwnership(address)": "infinite",
				"unpause()": "infinite"
			},
			"internal": {
				"_update(address,address,uint256)": "infinite"
			}
		},
		"methodIdentifiers": {
			"allowance(address,address)": "dd62ed3e",
			"approve(address,uint256)": "095ea7b3",
			"balanceOf(address)": "70a08231",
			"cap()": "355274ea",
			"decimals()": "313ce567",
			"name()": "06fdde03",
			"owner()": "8da5cb5b",
			"pause()": "8456cb59",
			"paused()": "5c975abb",
			"renounceOwnership()": "715018a6",
			"symbol()": "95d89b41",
			"totalSupply()": "18160ddd",
			"transfer(address,uint256)": "a9059cbb",
			"transferFrom(address,address,uint256)": "23b872dd",
			"transferOwnership(address)": "f2fde38b",
			"unpause()": "3f4ba83a"
		}
	},
	"abi": [
		{
			"inputs": [
				{
					"internalType": "address",
					"name": "initialOwner",
					"type": "address"
				}
			],
			"stateMutability": "nonpayable",
			"type": "constructor"
		},
		{
			"inputs": [
				{
					"internalType": "uint256",
					"name": "increasedSupply",
					"type": "uint256"
				},
				{
					"internalType": "uint256",
					"name": "cap",
					"type": "uint256"
				}
			],
			"name": "ERC20ExceededCap",
			"type": "error"
		},
		{
			"inputs": [
				{
					"internalType": "address",
					"name": "spender",
					"type": "address"
				},
				{
					"internalType": "uint256",
					"name": "allowance",
					"type": "uint256"
				},
				{
					"internalType": "uint256",
					"name": "needed",
					"type": "uint256"
				}
			],
			"name": "ERC20InsufficientAllowance",
			"type": "error"
		},
		{
			"inputs": [
				{
					"internalType": "address",
					"name": "sender",
					"type": "address"
				},
				{
					"internalType": "uint256",
					"name": "balance",
					"type": "uint256"
				},
				{
					"internalType": "uint256",
					"name": "needed",
					"type": "uint256"
				}
			],
			"name": "ERC20InsufficientBalance",
			"type": "error"
		},
		{
			"inputs": [
				{
					"internalType": "address",
					"name": "approver",
					"type": "address"
				}
			],
			"name": "ERC20InvalidApprover",
			"type": "error"
		},
		{
			"inputs": [
				{
					"internalType": "uint256",
					"name": "cap",
					"type": "uint256"
				}
			],
			"name": "ERC20InvalidCap",
			"type": "error"
		},
		{
			"inputs": [
				{
					"internalType": "address",
					"name": "receiver",
					"type": "address"
				}
			],
			"name": "ERC20InvalidReceiver",
			"type": "error"
		},
		{
			"inputs": [
				{
					"internalType": "address",
					"name": "sender",
					"type": "address"
				}
			],
			"name": "ERC20InvalidSender",
			"type": "error"
		},
		{
			"inputs": [
				{
					"internalType": "address",
					"name": "spender",
					"type": "address"
				}
			],
			"name": "ERC20InvalidSpender",
			"type": "error"
		},
		{
			"inputs": [
				{
					"internalType": "address",
					"name": "owner",
					"type": "address"
				}
			],
			"name": "OwnableInvalidOwner",
			"type": "error"
		},
		{
			"inputs": [
				{
					"internalType": "address",
					"name": "account",
					"type": "address"
				}
			],
			"name": "OwnableUnauthorizedAccount",
			"type": "error"
		},
		{
			"anonymous": false,
			"inputs": [
				{
					"indexed": true,
					"internalType": "address",
					"name": "owner",
					"type": "address"
				},
				{
					"indexed": true,
					"internalType": "address",
					"name": "spender",
					"type": "address"
				},
				{
					"indexed": false,
					"internalType": "uint256",
					"name": "value",
					"type": "uint256"
				}
			],
			"name": "Approval",
			"type": "event"
		},
		{
			"anonymous": false,
			"inputs": [
				{
					"indexed": true,
					"internalType": "address",
					"name": "previousOwner",
					"type": "address"
				},
				{
					"indexed": true,
					"internalType": "address",
					"name": "newOwner",
					"type": "address"
				}
			],
			"name": "OwnershipTransferred",
			"type": "event"
		},
		{
			"anonymous": false,
			"inputs": [
				{
					"indexed": false,
					"internalType": "address",
					"name": "account",
					"type": "address"
				}
			],
			"name": "Paused",
			"type": "event"
		},
		{
			"anonymous": false,
			"inputs": [
				{
					"indexed": true,
					"internalType": "address",
					"name": "from",
					"type": "address"
				},
				{
					"indexed": true,
					"internalType": "address",
					"name": "to",
					"type": "address"
				},
				{
					"indexed": false,
					"internalType": "uint256",
					"name": "value",
					"type": "uint256"
				}
			],
			"name": "Transfer",
			"type": "event"
		},
		{
			"anonymous": false,
			"inputs": [
				{
					"indexed": false,
					"internalType": "address",
					"name": "account",
					"type": "address"
				}
			],
			"name": "Unpaused",
			"type": "event"
		},
		{
			"inputs": [
				{
					"internalType": "address",
					"name": "owner",
					"type": "address"
				},
				{
					"internalType": "address",
					"name": "spender",
					"type": "address"
				}
			],
			"name": "allowance",
			"outputs": [
				{
					"internalType": "uint256",
					"name": "",
					"type": "uint256"
				}
			],
			"stateMutability": "view",
			"type": "function"
		},
		{
			"inputs": [
				{
					"internalType": "address",
					"name": "spender",
					"type": "address"
				},
				{
					"internalType": "uint256",
					"name": "value",
					"type": "uint256"
				}
			],
			"name": "approve",
			"outputs": [
				{
					"internalType": "bool",
					"name": "",
					"type": "bool"
				}
			],
			"stateMutability": "nonpayable",
			"type": "function"
		},
		{
			"inputs": [
				{
					"internalType": "address",
					"name": "account",
					"type": "address"
				}
			],
			"name": "balanceOf",
			"outputs": [
				{
					"internalType": "uint256",
					"name": "",
					"type": "uint256"
				}
			],
			"stateMutability": "view",
			"type": "function"
		},
		{
			"inputs": [],
			"name": "cap",
			"outputs": [
				{
					"internalType": "uint256",
					"name": "",
					"type": "uint256"
				}
			],
			"stateMutability": "view",
			"type": "function"
		},
		{
			"inputs": [],
			"name": "decimals",
			"outputs": [
				{
					"internalType": "uint8",
					"name": "",
					"type": "uint8"
				}
			],
			"stateMutability": "view",
			"type": "function"
		},
		{
			"inputs": [],
			"name": "name",
			"outputs": [
				{
					"internalType": "string",
					"name": "",
					"type": "string"
				}
			],
			"stateMutability": "view",
			"type": "function"
		},
		{
			"inputs": [],
			"name": "owner",
			"outputs": [
				{
					"internalType": "address",
					"name": "",
					"type": "address"
				}
			],
			"stateMutability": "view",
			"type": "function"
		},
		{
			"inputs": [],
			"name": "pause",
			"outputs": [],
			"stateMutability": "nonpayable",
			"type": "function"
		},
		{
			"inputs": [],
			"name": "paused",
			"outputs": [
				{
					"internalType": "bool",
					"name": "",
					"type": "bool"
				}
			],
			"stateMutability": "view",
			"type": "function"
		},
		{
			"inputs": [],
			"name": "renounceOwnership",
			"outputs": [],
			"stateMutability": "nonpayable",
			"type": "function"
		},
		{
			"inputs": [],
			"name": "symbol",
			"outputs": [
				{
					"internalType": "string",
					"name": "",
					"type": "string"
				}
			],
			"stateMutability": "view",
			"type": "function"
		},
		{
			"inputs": [],
			"name": "totalSupply",
			"outputs": [
				{
					"internalType": "uint256",
					"name": "",
					"type": "uint256"
				}
			],
			"stateMutability": "view",
			"type": "function"
		},
		{
			"inputs": [
				{
					"internalType": "address",
					"name": "to",
					"type": "address"
				},
				{
					"internalType": "uint256",
					"name": "value",
					"type": "uint256"
				}
			],
			"name": "transfer",
			"outputs": [
				{
					"internalType": "bool",
					"name": "",
					"type": "bool"
				}
			],
			"stateMutability": "nonpayable",
			"type": "function"
		},
		{
			"inputs": [
				{
					"internalType": "address",
					"name": "from",
					"type": "address"
				},
				{
					"internalType": "address",
					"name": "to",
					"type": "address"
				},
				{
					"internalType": "uint256",
					"name": "value",
					"type": "uint256"
				}
			],
			"name": "transferFrom",
			"outputs": [
				{
					"internalType": "bool",
					"name": "",
					"type": "bool"
				}
			],
			"stateMutability": "nonpayable",
			"type": "function"
		},
		{
			"inputs": [
				{
					"internalType": "address",
					"name": "newOwner",
					"type": "address"
				}
			],
			"name": "transferOwnership",
			"outputs": [],
			"stateMutability": "nonpayable",
			"type": "function"
		},
		{
			"inputs": [],
			"name": "unpause",
			"outputs": [],
			"stateMutability": "nonpayable",
			"type": "function"
		}
	]
}